{
	"data": {
		"bytecode": {
			"linkReferences": {},
			"object": "6080604052335f5f6101000a81548173ffffffffffffffffffffffffffffffffffffffff021916908373ffffffffffffffffffffffffffffffffffffffff160217905550348015604d575f5ffd5b506159348061005b5f395ff3fe6080604052600436106101c5575f3560e01c80639047bf58116100f6578063d682dab511610094578063e7fad70a11610063578063e7fad70a146105fc578063f013e4b514610624578063f0d3361b1461064e578063f9f92be414610676576101cc565b8063d682dab514610547578063de2cf97214610571578063e1ec3c681461059b578063e7774868146105e0576101cc565b8063a6f9dae1116100d0578063a6f9dae1146104b1578063aa452fa6146104d9578063aadc1ac1146104f5578063bd998cb31461051d576101cc565b80639047bf581461043757806392af38d914610461578063a5623ffc14610489576101cc565b8063559b9b4c1161016357806375e3661e1161013d57806375e3661e146103665780637794e3fd1461038e5780637be9878b146103ca5780638349d6be146103f2576101cc565b8063559b9b4c146102ee5780635b4d76f1146103165780635d29cb981461033e576101cc565b806326c8d0ae1161019f57806326c8d0ae1461024c5780634492b5c914610274578063485cc9551461029e578063549defb4146102c6576101cc565b8063161ba46a146101d0578063217fe6c6146101fa57806323e77db314610236576101cc565b366101cc57005b5f5ffd5b3480156101db575f5ffd5b506101e46106b2565b6040516101f191906148e7565b60405180910390f35b348015610205575f5ffd5b50610220600480360381019061021b91906149c3565b6106c6565b60405161022d9190614a3a565b60405180910390f35b348015610241575f5ffd5b5061024a610738565b005b348015610257575f5ffd5b50610272600480360381019061026d9190614a7d565b6108d9565b005b34801561027f575f5ffd5b50610288610a76565b6040516102959190614ac0565b60405180910390f35b3480156102a9575f5ffd5b506102c460048036038101906102bf9190614b14565b610b2e565b005b3480156102d1575f5ffd5b506102ec60048036038101906102e79190614b52565b610e65565b005b3480156102f9575f5ffd5b50610314600480360381019061030f91906149c3565b611029565b005b348015610321575f5ffd5b5061033c60048036038101906103379190614ba7565b6112d1565b005b348015610349575f5ffd5b50610364600480360381019061035f9190614ba7565b611578565b005b348015610371575f5ffd5b5061038c60048036038101906103879190614b52565b611833565b005b348015610399575f5ffd5b506103b460048036038101906103af9190614b52565b611a0d565b6040516103c19190614ac0565b60405180910390f35b3480156103d5575f5ffd5b506103f060048036038101906103eb9190614bd2565b611a22565b005b3480156103fd575f5ffd5b5061041860048036038101906104139190614ba7565b611bbf565b60405161042e9a99989796959493929190614c0c565b60405180910390f35b348015610442575f5ffd5b5061044b611d2c565b6040516104589190614ac0565b60405180910390f35b34801561046c575f5ffd5b5061048760048036038101906104829190614a7d565b611d32565b005b348015610494575f5ffd5b506104af60048036038101906104aa91906149c3565b611ecf565b005b3480156104bc575f5ffd5b506104d760048036038101906104d29190614b52565b6121e7565b005b6104f360048036038101906104ee9190614ca6565b612348565b005b348015610500575f5ffd5b5061051b60048036038101906105169190614ba7565b612817565b005b348015610528575f5ffd5b50610531612bc9565b60405161053e9190614ac0565b60405180910390f35b348015610552575f5ffd5b5061055b612bcf565b60405161056891906148e7565b60405180910390f35b34801561057c575f5ffd5b50610585612be3565b60405161059291906148e7565b60405180910390f35b3480156105a6575f5ffd5b506105c160048036038101906105bc9190614ba7565b612bf7565b6040516105d79a99989796959493929190614c0c565b60405180910390f35b6105fa60048036038101906105f59190614ca6565b612c8e565b005b348015610607575f5ffd5b50610622600480360381019061061d9190614a7d565b61337e565b005b34801561062f575f5ffd5b5061063861351b565b60405161064591906148e7565b60405180910390f35b348015610659575f5ffd5b50610674600480360381019061066f9190614a7d565b61352e565b005b348015610681575f5ffd5b5061069c60048036038101906106979190614b52565b6136cb565b6040516106a99190614a3a565b60405180910390f35b603660029054906101000a900461ffff1681565b5f60025f8573ffffffffffffffffffffffffffffffffffffffff1673ffffffffffffffffffffffffffffffffffffffff1681526020019081526020015f208383604051610714929190614d20565b90815260200160405180910390205f9054906101000a900460ff1690509392505050565b60025f3373ffffffffffffffffffffffffffffffffffffffff1673ffffffffffffffffffffffffffffffffffffffff1681526020019081526020015f2060405161078190614d82565b90815260200160405180910390205f9054906101000a900460ff166107db576040517f08c379a00000000000000000000000000000000000000000000000000000000081526004016107d290614e16565b60405180910390fd5b6107e36136e8565b6107ec33613737565b6108cf60395f9054906101000a900473ffffffffffffffffffffffffffffffffffffffff166040516024016040516020818303038152906040527f639807d0000000000000000000000000000000000000000000000000000000007bffffffffffffffffffffffffffffffffffffffffffffffffffffffff19166020820180517bffffffffffffffffffffffffffffffffffffffffffffffffffffffff83818316178352505050506040518060400160405280600281526020017f54500000000000000000000000000000000000000000000000000000000000008152506137a8565b6108d761386b565b565b60025f3373ffffffffffffffffffffffffffffffffffffffff1673ffffffffffffffffffffffffffffffffffffffff1681526020019081526020015f2060405161092290614d82565b90815260200160405180910390205f9054906101000a900460ff1661097c576040517f08c379a000000000000000000000000000000000000000000000000000000000815260040161097390614e16565b60405180910390fd5b61098533613737565b610a7360395f9054906101000a900473ffffffffffffffffffffffffffffffffffffffff16826040516024016109bb91906148e7565b6040516020818303038152906040527f1b745bff000000000000000000000000000000000000000000000000000000007bffffffffffffffffffffffffffffffffffffffffffffffffffffffff19166020820180517bffffffffffffffffffffffffffffffffffffffffffffffffffffffff83818316178352505050506040518060400160405280601681526020017f4d6f6e74686c79496e74657265737450657263656e74000000000000000000008152506137a8565b50565b5f60025f3373ffffffffffffffffffffffffffffffffffffffff1673ffffffffffffffffffffffffffffffffffffffff1681526020019081526020015f20604051610ac090614d82565b90815260200160405180910390205f9054906101000a900460ff16610b1a576040517f08c379a0000000000000000000000000000000000000000000000000000000008152600401610b1190614e16565b60405180910390fd5b610b2333613737565b603580549050905090565b5f610b37613875565b90505f815f0160089054906101000a900460ff161590505f825f015f9054906101000a900467ffffffffffffffff1690505f5f8267ffffffffffffffff16148015610b7f5750825b90505f60018367ffffffffffffffff16148015610bb257505f3073ffffffffffffffffffffffffffffffffffffffff163b145b905081158015610bc0575080155b15610bf7576040517ff92ee8a900000000000000000000000000000000000000000000000000000000815260040160405180910390fd5b6001855f015f6101000a81548167ffffffffffffffff021916908367ffffffffffffffff1602179055508315610c44576001855f0160086101000a81548160ff0219169083151502179055505b610c4c613888565b5f73ffffffffffffffffffffffffffffffffffffffff168773ffffffffffffffffffffffffffffffffffffffff1603610cb1576040517fd92e233d00000000000000000000000000000000000000000000000000000000815260040160405180910390fd5b8660385f6101000a81548173ffffffffffffffffffffffffffffffffffffffff021916908373ffffffffffffffffffffffffffffffffffffffff160217905550600260365f6101000a81548161ffff021916908361ffff1602179055506001603660026101000a81548161ffff021916908361ffff1602179055506032603660046101000a81548161ffff021916908361ffff1602179055506014603660066101000a81548161ffff021916908361ffff1602179055508560395f6101000a81548173ffffffffffffffffffffffffffffffffffffffff021916908373ffffffffffffffffffffffffffffffffffffffff1602179055508573ffffffffffffffffffffffffffffffffffffffff168773ffffffffffffffffffffffffffffffffffffffff167f49a7fc26e6579aa5cf9db7b2a3ace21873b6ab1cb60627834b8722f128eb47b160405160405180910390a38315610e5c575f855f0160086101000a81548160ff0219169083151502179055507fc7f505b2f371ae2175ee4913f4499e1f2633a7b5936321eed1cdaeb6115181d26001604051610e539190614e89565b60405180910390a15b50505050505050565b610e6e33613737565b5f5f9054906101000a900473ffffffffffffffffffffffffffffffffffffffff1673ffffffffffffffffffffffffffffffffffffffff163373ffffffffffffffffffffffffffffffffffffffff1614610efc576040517f08c379a0000000000000000000000000000000000000000000000000000000008152600401610ef390614f12565b60405180910390fd5b5f73ffffffffffffffffffffffffffffffffffffffff168173ffffffffffffffffffffffffffffffffffffffff1603610f61576040517fd92e233d00000000000000000000000000000000000000000000000000000000815260040160405180910390fd5b5f60395f9054906101000a900473ffffffffffffffffffffffffffffffffffffffff1690505f8290508260395f6101000a81548173ffffffffffffffffffffffffffffffffffffffff021916908373ffffffffffffffffffffffffffffffffffffffff1602179055508073ffffffffffffffffffffffffffffffffffffffff168273ffffffffffffffffffffffffffffffffffffffff167f2df5e5ee6ded36425ef37cddc3fbe6151513d55c0ec00c7053e2df70f2189c4760405160405180910390a3505050565b5f5f9054906101000a900473ffffffffffffffffffffffffffffffffffffffff1673ffffffffffffffffffffffffffffffffffffffff163373ffffffffffffffffffffffffffffffffffffffff16146110b7576040517f08c379a00000000000000000000000000000000000000000000000000000000081526004016110ae90614f12565b60405180910390fd5b6040518060400160405280600781526020017f456d706c6f796500000000000000000000000000000000000000000000000000815250805190602001208282604051611104929190614f5e565b60405180910390201461114c576040517f08c379a000000000000000000000000000000000000000000000000000000000815260040161114390614fc0565b60405180910390fd5b60025f8473ffffffffffffffffffffffffffffffffffffffff1673ffffffffffffffffffffffffffffffffffffffff1681526020019081526020015f208282604051611199929190614d20565b90815260200160405180910390205f9054906101000a900460ff166111f3576040517f08c379a00000000000000000000000000000000000000000000000000000000081526004016111ea9061504e565b60405180910390fd5b5f60025f8573ffffffffffffffffffffffffffffffffffffffff1673ffffffffffffffffffffffffffffffffffffffff1681526020019081526020015f208383604051611241929190614d20565b90815260200160405180910390205f6101000a81548160ff02191690831515021790555060015f81548092919061127790615099565b91905055508273ffffffffffffffffffffffffffffffffffffffff167fcf3bbb93629b62834974659efc838721fa2bd3b41cafd38b516ac86b661491e183836040516112c49291906150fc565b60405180910390a2505050565b60025f3373ffffffffffffffffffffffffffffffffffffffff1673ffffffffffffffffffffffffffffffffffffffff1681526020019081526020015f2060405161131a90614d82565b90815260200160405180910390205f9054906101000a900460ff1615611375576040517f08c379a000000000000000000000000000000000000000000000000000000000815260040161136c9061518e565b60405180910390fd5b5f5f9054906101000a900473ffffffffffffffffffffffffffffffffffffffff1673ffffffffffffffffffffffffffffffffffffffff163373ffffffffffffffffffffffffffffffffffffffff1603611403576040517f08c379a00000000000000000000000000000000000000000000000000000000081526004016113fa9061521c565b60405180910390fd5b61140c33613737565b6114158161389a565b5f6035828154811061142a5761142961523a565b5b905f5260205f20906009020190508060080160019054906101000a900460ff1615806114635750806008015f9054906101000a900460ff165b1561146e5750611575565b5f611484826003015461147f6138e6565b6138ed565b90505f819050826002015481111561149e57826002015490505b8260040154811115611515575f8360040154826114bb9190615267565b905080846005015f8282546114d0919061529a565b92505081905550847fa9bd81b5e2fa2470f02961f37fa6590c16a995e9bbf73088778e72ea4237c4bb856005015460405161150b9190614ac0565b60405180910390a2505b600383600501541061152d5761152c846003613925565b5b82600201548210158015611548575082600201548360040154105b80156115625750826008015f9054906101000a900460ff16155b15611571576115708461401c565b5b5050505b50565b60025f3373ffffffffffffffffffffffffffffffffffffffff1673ffffffffffffffffffffffffffffffffffffffff1681526020019081526020015f206040516115c190614d82565b90815260200160405180910390205f9054906101000a900460ff1661161b576040517f08c379a000000000000000000000000000000000000000000000000000000000815260040161161290614e16565b60405180910390fd5b6116236136e8565b61162c33613737565b6116358161389a565b5f6035828154811061164a5761164961523a565b5b905f5260205f20906009020190508060080160019054906101000a900460ff16806116825750806008015f9054906101000a900460ff165b156116b9576040517fe48d68df00000000000000000000000000000000000000000000000000000000815260040160405180910390fd5b5f816007015490505f82600701819055505f825f015f9054906101000a900473ffffffffffffffffffffffffffffffffffffffff1673ffffffffffffffffffffffffffffffffffffffff1682604051611711906152f0565b5f6040518083038185875af1925050503d805f811461174b576040519150601f19603f3d011682016040523d82523d5f602084013e611750565b606091505b5050905080611794576040517f08c379a000000000000000000000000000000000000000000000000000000000815260040161178b9061534e565b60405180910390fd5b6001836008015f6101000a81548160ff021916908315150217905550825f015f9054906101000a900473ffffffffffffffffffffffffffffffffffffffff1673ffffffffffffffffffffffffffffffffffffffff16847f4a14ed616ce90b51a0a9222c0e231e9ce03b6885730aff30c76a5ccb7c5b8106845f5f60405161181d939291906153a5565b60405180910390a350505061183061386b565b50565b60025f3373ffffffffffffffffffffffffffffffffffffffff1673ffffffffffffffffffffffffffffffffffffffff1681526020019081526020015f2060405161187c90614d82565b90815260200160405180910390205f9054906101000a900460ff166118d6576040517f08c379a00000000000000000000000000000000000000000000000000000000081526004016118cd90614e16565b60405180910390fd5b6118df33613737565b6118e881613737565b603a5f8273ffffffffffffffffffffffffffffffffffffffff1673ffffffffffffffffffffffffffffffffffffffff1681526020019081526020015f205f9054906101000a900460ff1661197357806040517f7be8837900000000000000000000000000000000000000000000000000000000815260040161196a91906153da565b60405180910390fd5b5f603a5f8373ffffffffffffffffffffffffffffffffffffffff1673ffffffffffffffffffffffffffffffffffffffff1681526020019081526020015f205f6101000a81548160ff0219169083151502179055508073ffffffffffffffffffffffffffffffffffffffff167f117e3210bb9aa7d9baff172026820255c6f6c30ba8999d1c2fd88e2848137c4e60405160405180910390a250565b603b602052805f5260405f205f915090505481565b60025f3373ffffffffffffffffffffffffffffffffffffffff1673ffffffffffffffffffffffffffffffffffffffff1681526020019081526020015f20604051611a6b90614d82565b90815260200160405180910390205f9054906101000a900460ff16611ac5576040517f08c379a0000000000000000000000000000000000000000000000000000000008152600401611abc90614e16565b60405180910390fd5b611ace33613737565b611bbc60395f9054906101000a900473ffffffffffffffffffffffffffffffffffffffff1682604051602401611b049190615402565b6040516020818303038152906040527f0b94bed0000000000000000000000000000000000000000000000000000000007bffffffffffffffffffffffffffffffffffffffffffffffffffffffff19166020820180517bffffffffffffffffffffffffffffffffffffffffffffffffffffffff83818316178352505050506040518060400160405280601081526020017f4d616e6167656d656e7457616c6c6574000000000000000000000000000000008152506137a8565b50565b5f5f5f5f5f5f5f5f5f5f60025f3373ffffffffffffffffffffffffffffffffffffffff1673ffffffffffffffffffffffffffffffffffffffff1681526020019081526020015f20604051611c1290614d82565b90815260200160405180910390205f9054906101000a900460ff16611c6c576040517f08c379a0000000000000000000000000000000000000000000000000000000008152600401611c6390614e16565b60405180910390fd5b611c7533613737565b611c7e8b61389a565b5f60358c81548110611c9357611c9261523a565b5b905f5260205f2090600902019050805f015f9054906101000a900473ffffffffffffffffffffffffffffffffffffffff168160010154826002015483600301548460040154856005015486600601548760070154886008015f9054906101000a900460ff168960080160019054906101000a900460ff169a509a509a509a509a509a509a509a509a509a50509193959799509193959799565b60015481565b60025f3373ffffffffffffffffffffffffffffffffffffffff1673ffffffffffffffffffffffffffffffffffffffff1681526020019081526020015f20604051611d7b90614d82565b90815260200160405180910390205f9054906101000a900460ff16611dd5576040517f08c379a0000000000000000000000000000000000000000000000000000000008152600401611dcc90614e16565b60405180910390fd5b611dde33613737565b611ecc60395f9054906101000a900473ffffffffffffffffffffffffffffffffffffffff1682604051602401611e1491906148e7565b6040516020818303038152906040527f55a19dac000000000000000000000000000000000000000000000000000000007bffffffffffffffffffffffffffffffffffffffffffffffffffffffff19166020820180517bffffffffffffffffffffffffffffffffffffffffffffffffffffffff83818316178352505050506040518060400160405280601681526020017f436f6c6c61746572616c526174696f50657263656e74000000000000000000008152506137a8565b50565b5f5f9054906101000a900473ffffffffffffffffffffffffffffffffffffffff1673ffffffffffffffffffffffffffffffffffffffff163373ffffffffffffffffffffffffffffffffffffffff1614611f5d576040517f08c379a0000000000000000000000000000000000000000000000000000000008152600401611f5490614f12565b60405180910390fd5b6040518060400160405280600781526020017f456d706c6f796500000000000000000000000000000000000000000000000000815250805190602001208282604051611faa929190614f5e565b604051809103902014611ff2576040517f08c379a0000000000000000000000000000000000000000000000000000000008152600401611fe990614fc0565b60405180910390fd5b5f73ffffffffffffffffffffffffffffffffffffffff168373ffffffffffffffffffffffffffffffffffffffff1603612060576040517f08c379a00000000000000000000000000000000000000000000000000000000081526004016120579061548b565b60405180910390fd5b60025f8473ffffffffffffffffffffffffffffffffffffffff1673ffffffffffffffffffffffffffffffffffffffff1681526020019081526020015f2082826040516120ad929190614d20565b90815260200160405180910390205f9054906101000a900460ff1615612108576040517f08c379a00000000000000000000000000000000000000000000000000000000081526004016120ff90615519565b60405180910390fd5b600160025f8573ffffffffffffffffffffffffffffffffffffffff1673ffffffffffffffffffffffffffffffffffffffff1681526020019081526020015f208383604051612157929190614d20565b90815260200160405180910390205f6101000a81548160ff02191690831515021790555060015f81548092919061218d90615537565b91905055508273ffffffffffffffffffffffffffffffffffffffff167f088567665d11bb1ca04896b9d3c620779f90a9f00f12488f6050a74eb11c2be583836040516121da9291906150fc565b60405180910390a2505050565b5f5f9054906101000a900473ffffffffffffffffffffffffffffffffffffffff1673ffffffffffffffffffffffffffffffffffffffff163373ffffffffffffffffffffffffffffffffffffffff1614612275576040517f08c379a000000000000000000000000000000000000000000000000000000000815260040161226c90614f12565b60405180910390fd5b61227e81613737565b61228733613737565b5f5f5f9054906101000a900473ffffffffffffffffffffffffffffffffffffffff169050815f5f6101000a81548173ffffffffffffffffffffffffffffffffffffffff021916908373ffffffffffffffffffffffffffffffffffffffff1602179055508173ffffffffffffffffffffffffffffffffffffffff168173ffffffffffffffffffffffffffffffffffffffff167fb532073b38c83145e3e5135377a08bf9aab55bc0fd7c1179cd4fb995d2a5159c60405160405180910390a35050565b60025f3373ffffffffffffffffffffffffffffffffffffffff1673ffffffffffffffffffffffffffffffffffffffff1681526020019081526020015f2060405161239190614d82565b90815260200160405180910390205f9054906101000a900460ff16156123ec576040517f08c379a00000000000000000000000000000000000000000000000000000000081526004016123e39061518e565b60405180910390fd5b5f5f9054906101000a900473ffffffffffffffffffffffffffffffffffffffff1673ffffffffffffffffffffffffffffffffffffffff163373ffffffffffffffffffffffffffffffffffffffff160361247a576040517f08c379a00000000000000000000000000000000000000000000000000000000081526004016124719061521c565b60405180910390fd5b61248333613737565b603a5f3373ffffffffffffffffffffffffffffffffffffffff1673ffffffffffffffffffffffffffffffffffffffff1681526020019081526020015f205f9054906101000a900460ff161561250f57336040517fffa4e61800000000000000000000000000000000000000000000000000000000815260040161250691906153da565b60405180910390fd5b5f8203612548576040517fdfee2c0b00000000000000000000000000000000000000000000000000000000815260040160405180910390fd5b6001811015612583576040517f7616640100000000000000000000000000000000000000000000000000000000815260040160405180910390fd5b61258b61467f565b6125c1576040517f0373c24600000000000000000000000000000000000000000000000000000000815260040160405180910390fd5b5f670de0b6b3a7640000836125d6919061557e565b90505f6064603660049054906101000a900461ffff1661ffff16836125fb919061557e565b61260591906155ec565b90508034101561264e5780346040517fb07e3bc400000000000000000000000000000000000000000000000000000000815260040161264592919061561c565b60405180910390fd5b5f6040518061014001604052803373ffffffffffffffffffffffffffffffffffffffff1681526020018481526020018581526020015f81526020015f81526020015f81526020018481526020013481526020015f151581526020015f15158152509050603581908060018154018082558091505060019003905f5260205f2090600902015f909190919091505f820151815f015f6101000a81548173ffffffffffffffffffffffffffffffffffffffff021916908373ffffffffffffffffffffffffffffffffffffffff1602179055506020820151816001015560408201518160020155606082015181600301556080820151816004015560a0820151816005015560c0820151816006015560e08201518160070155610100820151816008015f6101000a81548160ff0219169083151502179055506101208201518160080160016101000a81548160ff02191690831515021790555050505f60016035805490506127ba9190615267565b90503373ffffffffffffffffffffffffffffffffffffffff16817ff6cc19e46a340ab5888d736bfc79aef72ae92d12d7b76319d72b0abc170868e686883460405161280793929190615643565b60405180910390a3505050505050565b60025f3373ffffffffffffffffffffffffffffffffffffffff1673ffffffffffffffffffffffffffffffffffffffff1681526020019081526020015f2060405161286090614d82565b90815260200160405180910390205f9054906101000a900460ff166128ba576040517f08c379a00000000000000000000000000000000000000000000000000000000081526004016128b190614e16565b60405180910390fd5b6128c26136e8565b6128cb33613737565b6128d48161389a565b5f603582815481106128e9576128e861523a565b5b905f5260205f2090600902019050806008015f9054906101000a900460ff161561293f576040517fe48d68df00000000000000000000000000000000000000000000000000000000815260040160405180910390fd5b8060080160019054906101000a900460ff1615612988576040517fe48d68df00000000000000000000000000000000000000000000000000000000815260040160405180910390fd5b80600101544710156129d7578060010154476040517fee8d17460000000000000000000000000000000000000000000000000000000081526004016129ce92919061561c565b60405180910390fd5b6129df6138e6565b816003018190555060018160080160016101000a81548160ff0219169083151502179055505f815f015f9054906101000a900473ffffffffffffffffffffffffffffffffffffffff1673ffffffffffffffffffffffffffffffffffffffff168260010154604051612a4f906152f0565b5f6040518083038185875af1925050503d805f8114612a89576040519150601f19603f3d011682016040523d82523d5f602084013e612a8e565b606091505b5050905080612ad2576040517f08c379a0000000000000000000000000000000000000000000000000000000008152600401612ac9906156c2565b60405180910390fd5b815f015f9054906101000a900473ffffffffffffffffffffffffffffffffffffffff1673ffffffffffffffffffffffffffffffffffffffff16837f2b993938baa27c88e77a207903d275c96fa30ae5949a3ea5cd56e466e4f5c8918460030154604051612b3f9190614ac0565b60405180910390a3815f015f9054906101000a900473ffffffffffffffffffffffffffffffffffffffff1673ffffffffffffffffffffffffffffffffffffffff16837f0ceeb4503a2fe0b51298a0af21358f3d89e7eab3f65ae2a7835859c3e2c516048460010154604051612bb49190614ac0565b60405180910390a35050612bc661386b565b50565b60375481565b603660049054906101000a900461ffff1681565b603660069054906101000a900461ffff1681565b60358181548110612c06575f80fd5b905f5260205f2090600902015f91509050805f015f9054906101000a900473ffffffffffffffffffffffffffffffffffffffff1690806001015490806002015490806003015490806004015490806005015490806006015490806007015490806008015f9054906101000a900460ff16908060080160019054906101000a900460ff1690508a565b60025f3373ffffffffffffffffffffffffffffffffffffffff1673ffffffffffffffffffffffffffffffffffffffff1681526020019081526020015f20604051612cd790614d82565b90815260200160405180910390205f9054906101000a900460ff1615612d32576040517f08c379a0000000000000000000000000000000000000000000000000000000008152600401612d299061518e565b60405180910390fd5b5f5f9054906101000a900473ffffffffffffffffffffffffffffffffffffffff1673ffffffffffffffffffffffffffffffffffffffff163373ffffffffffffffffffffffffffffffffffffffff1603612dc0576040517f08c379a0000000000000000000000000000000000000000000000000000000008152600401612db79061521c565b60405180910390fd5b612dc86136e8565b612dd133613737565b612dda8261389a565b5f60358381548110612def57612dee61523a565b5b905f5260205f20906009020190508060080160019054906101000a900460ff161580612e285750806008015f9054906101000a900460ff165b15612e5f576040517fe48d68df00000000000000000000000000000000000000000000000000000000815260040160405180910390fd5b805f015f9054906101000a900473ffffffffffffffffffffffffffffffffffffffff1673ffffffffffffffffffffffffffffffffffffffff163373ffffffffffffffffffffffffffffffffffffffff1614612ee6576040517fcb1e8f3800000000000000000000000000000000000000000000000000000000815260040160405180910390fd5b5f8203612f1f576040517f7616640100000000000000000000000000000000000000000000000000000000815260040160405180910390fd5b8060020154828260040154612f34919061529a565b1115612f6c576040517f7616640100000000000000000000000000000000000000000000000000000000815260040160405180910390fd5b5f612f828260030154612f7d6138e6565b6138ed565b90508160020154826004015410612fc5576040517f7616640100000000000000000000000000000000000000000000000000000000815260040160405180910390fd5b5f612fcf856146c8565b90505f836004015490505f8390505f5f905082821115613033575f8383612ff69190615267565b9050806064603660029054906101000a900461ffff1661ffff168761301b919061557e565b61302591906155ec565b61302f919061557e565b9150505b5f8185613040919061529a565b90506001881115613071576001886130589190615267565b85613063919061557e565b8161306e919061529a565b90505b8034146130b75780346040517facd9f50a0000000000000000000000000000000000000000000000000000000081526004016130ae92919061561c565b60405180910390fd5b5f5f90505b888110156131ea575f5f82146130d257866130df565b83876130de919061529a565b5b90505f606460365f9054906101000a900461ffff1661ffff168b60010154613107919061557e565b61311191906155ec565b90505f81896131209190615267565b90505f8403613151578582613135919061529a565b60375f828254613145919061529a565b9250508190555061316a565b8160375f828254613162919061529a565b925050819055505b8a6006015481111561317e578a6006015490505b808b6006015f8282546131919190615267565b9250508190555060018b6004015f8282546131ac919061529a565b925050819055508a600201548b600401541015806131cd57505f8b60060154145b156131da575050506131ea565b50505080806001019150506130bc565b505f87600501819055503373ffffffffffffffffffffffffffffffffffffffff16897f041e038704bf70ce2e97dcddc75986a8dec282d710422669d04a1d908ff94b34348a6004015460405161324192919061561c565b60405180910390a38660020154876004015410158061326357505f8760060154145b1561336b575f8760080160016101000a81548160ff0219169083151502179055505f876007015490505f88600701819055505f811115613369575f885f015f9054906101000a900473ffffffffffffffffffffffffffffffffffffffff1673ffffffffffffffffffffffffffffffffffffffff16826040516132e4906152f0565b5f6040518083038185875af1925050503d805f811461331e576040519150601f19603f3d011682016040523d82523d5f602084013e613323565b606091505b5050905080613367576040517f08c379a000000000000000000000000000000000000000000000000000000000815260040161335e9061572a565b60405180910390fd5b505b505b5050505050505061337a61386b565b5050565b60025f3373ffffffffffffffffffffffffffffffffffffffff1673ffffffffffffffffffffffffffffffffffffffff1681526020019081526020015f206040516133c790614d82565b90815260200160405180910390205f9054906101000a900460ff16613421576040517f08c379a000000000000000000000000000000000000000000000000000000000815260040161341890614e16565b60405180910390fd5b61342a33613737565b61351860395f9054906101000a900473ffffffffffffffffffffffffffffffffffffffff168260405160240161346091906148e7565b6040516020818303038152906040527f6ec4d2d1000000000000000000000000000000000000000000000000000000007bffffffffffffffffffffffffffffffffffffffffffffffffffffffff19166020820180517bffffffffffffffffffffffffffffffffffffffffffffffffffffffff83818316178352505050506040518060400160405280600e81526020017f50656e616c747950657263656e740000000000000000000000000000000000008152506137a8565b50565b60365f9054906101000a900461ffff1681565b60025f3373ffffffffffffffffffffffffffffffffffffffff1673ffffffffffffffffffffffffffffffffffffffff1681526020019081526020015f2060405161357790614d82565b90815260200160405180910390205f9054906101000a900460ff166135d1576040517f08c379a00000000000000000000000000000000000000000000000000000000081526004016135c890614e16565b60405180910390fd5b6135da33613737565b6136c860395f9054906101000a900473ffffffffffffffffffffffffffffffffffffffff168260405160240161361091906148e7565b6040516020818303038152906040527f9608bbd5000000000000000000000000000000000000000000000000000000007bffffffffffffffffffffffffffffffffffffffffffffffffffffffff19166020820180517bffffffffffffffffffffffffffffffffffffffffffffffffffffffff83818316178352505050506040518060400160405280600d81526020017f4d61784e504c50657263656e74000000000000000000000000000000000000008152506137a8565b50565b603a602052805f5260405f205f915054906101000a900460ff1681565b60026003540361372d576040517f08c379a000000000000000000000000000000000000000000000000000000000815260040161372490615792565b60405180910390fd5b6002600381905550565b5f73ffffffffffffffffffffffffffffffffffffffff168173ffffffffffffffffffffffffffffffffffffffff16036137a5576040517f08c379a000000000000000000000000000000000000000000000000000000000815260040161379c90615820565b60405180910390fd5b50565b5f5f8473ffffffffffffffffffffffffffffffffffffffff16846040516137cf9190615886565b5f60405180830381855af49150503d805f8114613807576040519150601f19603f3d011682016040523d82523d5f602084013e61380c565b606091505b509150915081613864575f8151111561382757805160208201fd5b826040517f9becf85d00000000000000000000000000000000000000000000000000000000815260040161385b91906158de565b60405180910390fd5b5050505050565b6001600381905550565b5f5f61387f614791565b90508091505090565b6138906147ba565b6138986147fa565b565b60358054905081106138e357806040517f16bc3e2c0000000000000000000000000000000000000000000000000000000081526004016138da9190614ac0565b60405180910390fd5b50565b5f42905090565b5f8282116138fd575f905061391f565b5f62278d0090508084846139119190615267565b61391b91906155ec565b9150505b92915050565b61392e8261389a565b5f603583815481106139435761394261523a565b5b905f5260205f2090600902019050806008015f9054906101000a900460ff168061397c57508060080160019054906101000a900460ff16155b156139875750614018565b5f82905081600201548183600401546139a0919061529a565b11156139bd57816004015482600201546139ba9190615267565b90505b5f81036139cb575050614018565b5f6139d5856146c8565b90505f82826139e4919061557e565b90505f6064603660029054906101000a900461ffff1661ffff1683613a09919061557e565b613a1391906155ec565b90505f8183613a22919061529a565b90505f5f90505f5f90505f5f905083896007015410613b0c578392505f606460365f9054906101000a900461ffff1661ffff168b60010154613a64919061557e565b613a6e91906155ec565b90505f8982613a7d919061557e565b90508681613a8b919061529a565b60375f828254613a9b919061529a565b925050819055505f8a83613aaf919061557e565b89613aba9190615267565b90508b60060154811115613ad0578b6006015490505b808c6006015f828254613ae39190615267565b92505081905550858c6007015f828254613afd9190615267565b92505081905550505050613c77565b886007015492505f8390505f898b600201548c60010154613b2d91906155ec565b613b37919061557e565b90508a60060154811115613b4d578a6006015490505b81811115613b7757818b6006015f828254613b689190615267565b925050819055505f9150613ba0565b808b6006015f828254613b8a9190615267565b925050819055508082613b9d9190615267565b91505b5f606460365f9054906101000a900461ffff1661ffff168d60010154613bc6919061557e565b613bd091906155ec565b90505f8b82613bdf919061557e565b90505f8982613bee919061529a565b9050808510613c30578060375f828254613c08919061529a565b925050819055508085613c1b9190615267565b94508487613c29919061529a565b9650613c4c565b8460375f828254613c41919061529a565b925050819055505f94505b5f8e60070181905550878911613c62575f613c6f565b8789613c6e9190615267565b5b955050505050505b87896004015f828254613c8a919061529a565b92505081905550886002015489600401541115613caf57886002015489600401819055505b5f89600501819055506001603b5f8b5f015f9054906101000a900473ffffffffffffffffffffffffffffffffffffffff1673ffffffffffffffffffffffffffffffffffffffff1673ffffffffffffffffffffffffffffffffffffffff1681526020019081526020015f205f828254613d27919061529a565b92505081905550885f015f9054906101000a900473ffffffffffffffffffffffffffffffffffffffff1673ffffffffffffffffffffffffffffffffffffffff167f073dc1dabfe81e4b13a65bbc538e7bfc06bafcca30510b59584f1043e4c04851603b5f8c5f015f9054906101000a900473ffffffffffffffffffffffffffffffffffffffff1673ffffffffffffffffffffffffffffffffffffffff1673ffffffffffffffffffffffffffffffffffffffff1681526020019081526020015f2054604051613df59190614ac0565b60405180910390a26003603b5f8b5f015f9054906101000a900473ffffffffffffffffffffffffffffffffffffffff1673ffffffffffffffffffffffffffffffffffffffff1673ffffffffffffffffffffffffffffffffffffffff1681526020019081526020015f205410613f41576001603a5f8b5f015f9054906101000a900473ffffffffffffffffffffffffffffffffffffffff1673ffffffffffffffffffffffffffffffffffffffff1673ffffffffffffffffffffffffffffffffffffffff1681526020019081526020015f205f6101000a81548160ff021916908315150217905550885f015f9054906101000a900473ffffffffffffffffffffffffffffffffffffffff1673ffffffffffffffffffffffffffffffffffffffff167fc8438a8bb94764a622dc982e4d066815feb7ced0657a3cdcb23bba6ea9f51dc360405160405180910390a25b88600201548960040154101580613f5b57505f8960060154145b15613f99575f8960080160016101000a81548160ff0219169083151502179055506001896008015f6101000a81548160ff0219169083151502179055505b885f015f9054906101000a900473ffffffffffffffffffffffffffffffffffffffff1673ffffffffffffffffffffffffffffffffffffffff168b7f4a14ed616ce90b51a0a9222c0e231e9ce03b6885730aff30c76a5ccb7c5b810685848660405161400693929190615643565b60405180910390a35050505050505050505b5050565b6140258161389a565b5f6035828154811061403a5761403961523a565b5b905f5260205f2090600902019050806008015f9054906101000a900460ff1615614064575061467c565b5f816004015482600201541161407a575f61408f565b8160040154826002015461408e9190615267565b5b90505f61409b846146c8565b90505f82826140aa919061557e565b90505f6064603660029054906101000a900461ffff1661ffff16836140cf919061557e565b6140d991906155ec565b90505f81836140e8919061529a565b90505f5f90505f5f90505f5f9050838960070154106141d2578392505f606460365f9054906101000a900461ffff1661ffff168b6001015461412a919061557e565b61413491906155ec565b90505f8982614143919061557e565b90508681614151919061529a565b60375f828254614161919061529a565b925050819055505f8a83614175919061557e565b896141809190615267565b90508b60060154811115614196578b6006015490505b808c6006015f8282546141a99190615267565b92505081905550858c6007015f8282546141c39190615267565b9250508190555050505061433c565b886007015492505f8390505f898b600201548c600101546141f391906155ec565b6141fd919061557e565b90508a60060154811115614213578a6006015490505b8082106142475780826142269190615267565b9150808b6006015f82825461423b9190615267565b92505081905550614265565b818b6006015f82825461425a9190615267565b925050819055505f91505b5f606460365f9054906101000a900461ffff1661ffff168d6001015461428b919061557e565b61429591906155ec565b90505f8b826142a4919061557e565b90505f89826142b3919061529a565b90508085106142f5578060375f8282546142cd919061529a565b9250508190555080856142e09190615267565b945084866142ee919061529a565b9550614311565b8460375f828254614306919061529a565b925050819055505f94505b5f8e60070181905550878911614327575f614334565b87896143339190615267565b5b965050505050505b6001896008015f6101000a81548160ff0219169083151502179055505f8960080160016101000a81548160ff0219169083151502179055506001603b5f8b5f015f9054906101000a900473ffffffffffffffffffffffffffffffffffffffff1673ffffffffffffffffffffffffffffffffffffffff1673ffffffffffffffffffffffffffffffffffffffff1681526020019081526020015f205f8282546143e3919061529a565b92505081905550885f015f9054906101000a900473ffffffffffffffffffffffffffffffffffffffff1673ffffffffffffffffffffffffffffffffffffffff167f073dc1dabfe81e4b13a65bbc538e7bfc06bafcca30510b59584f1043e4c04851603b5f8c5f015f9054906101000a900473ffffffffffffffffffffffffffffffffffffffff1673ffffffffffffffffffffffffffffffffffffffff1673ffffffffffffffffffffffffffffffffffffffff1681526020019081526020015f20546040516144b19190614ac0565b60405180910390a26003603b5f8b5f015f9054906101000a900473ffffffffffffffffffffffffffffffffffffffff1673ffffffffffffffffffffffffffffffffffffffff1673ffffffffffffffffffffffffffffffffffffffff1681526020019081526020015f2054106145fd576001603a5f8b5f015f9054906101000a900473ffffffffffffffffffffffffffffffffffffffff1673ffffffffffffffffffffffffffffffffffffffff1673ffffffffffffffffffffffffffffffffffffffff1681526020019081526020015f205f6101000a81548160ff021916908315150217905550885f015f9054906101000a900473ffffffffffffffffffffffffffffffffffffffff1673ffffffffffffffffffffffffffffffffffffffff167fc8438a8bb94764a622dc982e4d066815feb7ced0657a3cdcb23bba6ea9f51dc360405160405180910390a25b885f015f9054906101000a900473ffffffffffffffffffffffffffffffffffffffff1673ffffffffffffffffffffffffffffffffffffffff168a7f4a14ed616ce90b51a0a9222c0e231e9ce03b6885730aff30c76a5ccb7c5b810685858560405161466a93929190615643565b60405180910390a35050505050505050505b50565b5f5f603660069054906101000a900461ffff1661ffff16036146a457600190506146c5565b603660069054906101000a900461ffff1661ffff166146c161480c565b1090505b90565b5f6146d28261389a565b5f603583815481106146e7576146e661523a565b5b905f5260205f20906009020190505f816002015403614732576040517f7616640100000000000000000000000000000000000000000000000000000000815260040160405180910390fd5b5f8160020154826001015461474791906155ec565b90505f606460365f9054906101000a900461ffff1661ffff16846001015461476f919061557e565b61477991906155ec565b90508082614787919061529a565b9350505050919050565b5f7ff0c57e16840df040f15088dc2f81fe391c3923bec73e23a9662efc9c229c6a005f1b905090565b6147c26148ad565b6147f8576040517fd7e6bcf800000000000000000000000000000000000000000000000000000000815260040160405180910390fd5b565b6148026147ba565b6001600381905550565b5f5f60358054905003614821575f90506148aa565b5f5f90505f5f90505b603580549050811015614888576035818154811061484b5761484a61523a565b5b905f5260205f2090600902016008015f9054906101000a900460ff161561487b57818061487790615537565b9250505b808060010191505061482a565b5060358054905060648261489c919061557e565b6148a691906155ec565b9150505b90565b5f6148b6613875565b5f0160089054906101000a900460ff16905090565b5f61ffff82169050919050565b6148e1816148cb565b82525050565b5f6020820190506148fa5f8301846148d8565b92915050565b5f5ffd5b5f5ffd5b5f73ffffffffffffffffffffffffffffffffffffffff82169050919050565b5f61493182614908565b9050919050565b61494181614927565b811461494b575f5ffd5b50565b5f8135905061495c81614938565b92915050565b5f5ffd5b5f5ffd5b5f5ffd5b5f5f83601f84011261498357614982614962565b5b8235905067ffffffffffffffff8111156149a05761499f614966565b5b6020830191508360018202830111156149bc576149bb61496a565b5b9250929050565b5f5f5f604084860312156149da576149d9614900565b5b5f6149e78682870161494e565b935050602084013567ffffffffffffffff811115614a0857614a07614904565b5b614a148682870161496e565b92509250509250925092565b5f8115159050919050565b614a3481614a20565b82525050565b5f602082019050614a4d5f830184614a2b565b92915050565b614a5c816148cb565b8114614a66575f5ffd5b50565b5f81359050614a7781614a53565b92915050565b5f60208284031215614a9257614a91614900565b5b5f614a9f84828501614a69565b91505092915050565b5f819050919050565b614aba81614aa8565b82525050565b5f602082019050614ad35f830184614ab1565b92915050565b5f614ae382614908565b9050919050565b614af381614ad9565b8114614afd575f5ffd5b50565b5f81359050614b0e81614aea565b92915050565b5f5f60408385031215614b2a57614b29614900565b5b5f614b3785828601614b00565b9250506020614b488582860161494e565b9150509250929050565b5f60208284031215614b6757614b66614900565b5b5f614b748482850161494e565b91505092915050565b614b8681614aa8565b8114614b90575f5ffd5b50565b5f81359050614ba181614b7d565b92915050565b5f60208284031215614bbc57614bbb614900565b5b5f614bc984828501614b93565b91505092915050565b5f60208284031215614be757614be6614900565b5b5f614bf484828501614b00565b91505092915050565b614c0681614927565b82525050565b5f61014082019050614c205f83018d614bfd565b614c2d602083018c614ab1565b614c3a604083018b614ab1565b614c47606083018a614ab1565b614c546080830189614ab1565b614c6160a0830188614ab1565b614c6e60c0830187614ab1565b614c7b60e0830186614ab1565b614c89610100830185614a2b565b614c97610120830184614a2b565b9b9a5050505050505050505050565b5f5f60408385031215614cbc57614cbb614900565b5b5f614cc985828601614b93565b9250506020614cda85828601614b93565b9150509250929050565b5f81905092915050565b828183375f83830152505050565b5f614d078385614ce4565b9350614d14838584614cee565b82840190509392505050565b5f614d2c828486614cfc565b91508190509392505050565b7f41646d696e0000000000000000000000000000000000000000000000000000005f82015250565b5f614d6c600583614ce4565b9150614d7782614d38565b600582019050919050565b5f614d8c82614d60565b9150819050919050565b5f82825260208201905092915050565b7f456d706c6f79656541737369676e6d656e743a2063616c6c6572206973206e6f5f8201527f7420616e2061646d696e00000000000000000000000000000000000000000000602082015250565b5f614e00602a83614d96565b9150614e0b82614da6565b604082019050919050565b5f6020820190508181035f830152614e2d81614df4565b9050919050565b5f819050919050565b5f67ffffffffffffffff82169050919050565b5f819050919050565b5f614e73614e6e614e6984614e34565b614e50565b614e3d565b9050919050565b614e8381614e59565b82525050565b5f602082019050614e9c5f830184614e7a565b92915050565b7f456d706c6f79656541737369676e6d656e743a2063616c6c6572206973206e6f5f8201527f7420746865206f776e6572000000000000000000000000000000000000000000602082015250565b5f614efc602b83614d96565b9150614f0782614ea2565b604082019050919050565b5f6020820190508181035f830152614f2981614ef0565b9050919050565b5f81905092915050565b5f614f458385614f30565b9350614f52838584614cee565b82840190509392505050565b5f614f6a828486614f3a565b91508190509392505050565b7f456d706c6f79656541737369676e6d656e743a20696e76616c696420726f6c655f82015250565b5f614faa602083614d96565b9150614fb582614f76565b602082019050919050565b5f6020820190508181035f830152614fd781614f9e565b9050919050565b7f456d706c6f79656541737369676e6d656e743a20656d706c6f79656520646f655f8201527f73206e6f742068617665207468697320726f6c65000000000000000000000000602082015250565b5f615038603483614d96565b915061504382614fde565b604082019050919050565b5f6020820190508181035f8301526150658161502c565b9050919050565b7f4e487b71000000000000000000000000000000000000000000000000000000005f52601160045260245ffd5b5f6150a382614aa8565b91505f82036150b5576150b461506c565b5b600182039050919050565b5f601f19601f8301169050919050565b5f6150db8385614d96565b93506150e8838584614cee565b6150f1836150c0565b840190509392505050565b5f6020820190508181035f8301526151158184866150d0565b90509392505050565b7f456d706c6f79656541737369676e6d656e743a2063616c6c657220697320616e5f8201527f2061646d696e0000000000000000000000000000000000000000000000000000602082015250565b5f615178602683614d96565b91506151838261511e565b604082019050919050565b5f6020820190508181035f8301526151a58161516c565b9050919050565b7f456d706c6f79656541737369676e6d656e743a2063616c6c65722069732074685f8201527f65206f776e657200000000000000000000000000000000000000000000000000602082015250565b5f615206602783614d96565b9150615211826151ac565b604082019050919050565b5f6020820190508181035f830152615233816151fa565b9050919050565b7f4e487b71000000000000000000000000000000000000000000000000000000005f52603260045260245ffd5b5f61527182614aa8565b915061527c83614aa8565b92508282039050818111156152945761529361506c565b5b92915050565b5f6152a482614aa8565b91506152af83614aa8565b92508282019050808211156152c7576152c661506c565b5b92915050565b50565b5f6152db5f83614f30565b91506152e6826152cd565b5f82019050919050565b5f6152fa826152d0565b9150819050919050565b7f526566756e64206661696c6564000000000000000000000000000000000000005f82015250565b5f615338600d83614d96565b915061534382615304565b602082019050919050565b5f6020820190508181035f8301526153658161532c565b9050919050565b5f819050919050565b5f61538f61538a6153858461536c565b614e50565b614aa8565b9050919050565b61539f81615375565b82525050565b5f6060820190506153b85f830186614ab1565b6153c56020830185615396565b6153d26040830184615396565b949350505050565b5f6020820190506153ed5f830184614bfd565b92915050565b6153fc81614ad9565b82525050565b5f6020820190506154155f8301846153f3565b92915050565b7f456d706c6f79656541737369676e6d656e743a20656d706c6f7965652063616e5f8201527f6e6f74206265207a65726f206164647265737300000000000000000000000000602082015250565b5f615475603383614d96565b91506154808261541b565b604082019050919050565b5f6020820190508181035f8301526154a281615469565b9050919050565b7f456d706c6f79656541737369676e6d656e743a20656d706c6f79656520616c725f8201527f6561647920686173207468697320726f6c650000000000000000000000000000602082015250565b5f615503603283614d96565b915061550e826154a9565b604082019050919050565b5f6020820190508181035f830152615530816154f7565b9050919050565b5f61554182614aa8565b91507fffffffffffffffffffffffffffffffffffffffffffffffffffffffffffffffff82036155735761557261506c565b5b600182019050919050565b5f61558882614aa8565b915061559383614aa8565b92508282026155a181614aa8565b915082820484148315176155b8576155b761506c565b5b5092915050565b7f4e487b71000000000000000000000000000000000000000000000000000000005f52601260045260245ffd5b5f6155f682614aa8565b915061560183614aa8565b925082615611576156106155bf565b5b828204905092915050565b5f60408201905061562f5f830185614ab1565b61563c6020830184614ab1565b9392505050565b5f6060820190506156565f830186614ab1565b6156636020830185614ab1565b6156706040830184614ab1565b949350505050565b7f4469736275727365206661696c656400000000000000000000000000000000005f82015250565b5f6156ac600f83614d96565b91506156b782615678565b602082019050919050565b5f6020820190508181035f8301526156d9816156a0565b9050919050565b7f436f6c6c61746572616c206661696c656420746f2073656e64210000000000005f82015250565b5f615714601a83614d96565b915061571f826156e0565b602082019050919050565b5f6020820190508181035f83015261574181615708565b9050919050565b7f5265656e7472616e637947756172643a207265656e7472616e742063616c6c005f82015250565b5f61577c601f83614d96565b915061578782615748565b602082019050919050565b5f6020820190508181035f8301526157a981615770565b9050919050565b7f456d706c6f79656541737369676e6d656e743a207a65726f20616464726573735f8201527f206e6f7420616c6c6f7765640000000000000000000000000000000000000000602082015250565b5f61580a602c83614d96565b9150615815826157b0565b604082019050919050565b5f6020820190508181035f830152615837816157fe565b9050919050565b5f81519050919050565b8281835e5f83830152505050565b5f6158608261583e565b61586a8185614f30565b935061587a818560208601615848565b80840191505092915050565b5f6158918284615856565b915081905092915050565b5f81519050919050565b5f6158b08261589c565b6158ba8185614d96565b93506158ca818560208601615848565b6158d3816150c0565b840191505092915050565b5f6020820190508181035f8301526158f681846158a6565b90509291505056fea2646970667358221220d415aa81b4b1244d8226dbff26a127a67cb7573e40017c170f8732a9e20c465b64736f6c634300081e0033",
			"opcodes": "PUSH1 0x80 PUSH1 0x40 MSTORE CALLER PUSH0 PUSH0 PUSH2 0x100 EXP DUP2 SLOAD DUP2 PUSH20 0xFFFFFFFFFFFFFFFFFFFFFFFFFFFFFFFFFFFFFFFF MUL NOT AND SWAP1 DUP4 PUSH20 0xFFFFFFFFFFFFFFFFFFFFFFFFFFFFFFFFFFFFFFFF AND MUL OR SWAP1 SSTORE POP CALLVALUE DUP1 ISZERO PUSH1 0x4D JUMPI PUSH0 PUSH0 REVERT JUMPDEST POP PUSH2 0x5934 DUP1 PUSH2 0x5B PUSH0 CODECOPY PUSH0 RETURN INVALID PUSH1 0x80 PUSH1 0x40 MSTORE PUSH1 0x4 CALLDATASIZE LT PUSH2 0x1C5 JUMPI PUSH0 CALLDATALOAD PUSH1 0xE0 SHR DUP1 PUSH4 0x9047BF58 GT PUSH2 0xF6 JUMPI DUP1 PUSH4 0xD682DAB5 GT PUSH2 0x94 JUMPI DUP1 PUSH4 0xE7FAD70A GT PUSH2 0x63 JUMPI DUP1 PUSH4 0xE7FAD70A EQ PUSH2 0x5FC JUMPI DUP1 PUSH4 0xF013E4B5 EQ PUSH2 0x624 JUMPI DUP1 PUSH4 0xF0D3361B EQ PUSH2 0x64E JUMPI DUP1 PUSH4 0xF9F92BE4 EQ PUSH2 0x676 JUMPI PUSH2 0x1CC JUMP JUMPDEST DUP1 PUSH4 0xD682DAB5 EQ PUSH2 0x547 JUMPI DUP1 PUSH4 0xDE2CF972 EQ PUSH2 0x571 JUMPI DUP1 PUSH4 0xE1EC3C68 EQ PUSH2 0x59B JUMPI DUP1 PUSH4 0xE7774868 EQ PUSH2 0x5E0 JUMPI PUSH2 0x1CC JUMP JUMPDEST DUP1 PUSH4 0xA6F9DAE1 GT PUSH2 0xD0 JUMPI DUP1 PUSH4 0xA6F9DAE1 EQ PUSH2 0x4B1 JUMPI DUP1 PUSH4 0xAA452FA6 EQ PUSH2 0x4D9 JUMPI DUP1 PUSH4 0xAADC1AC1 EQ PUSH2 0x4F5 JUMPI DUP1 PUSH4 0xBD998CB3 EQ PUSH2 0x51D JUMPI PUSH2 0x1CC JUMP JUMPDEST DUP1 PUSH4 0x9047BF58 EQ PUSH2 0x437 JUMPI DUP1 PUSH4 0x92AF38D9 EQ PUSH2 0x461 JUMPI DUP1 PUSH4 0xA5623FFC EQ PUSH2 0x489 JUMPI PUSH2 0x1CC JUMP JUMPDEST DUP1 PUSH4 0x559B9B4C GT PUSH2 0x163 JUMPI DUP1 PUSH4 0x75E3661E GT PUSH2 0x13D JUMPI DUP1 PUSH4 0x75E3661E EQ PUSH2 0x366 JUMPI DUP1 PUSH4 0x7794E3FD EQ PUSH2 0x38E JUMPI DUP1 PUSH4 0x7BE9878B EQ PUSH2 0x3CA JUMPI DUP1 PUSH4 0x8349D6BE EQ PUSH2 0x3F2 JUMPI PUSH2 0x1CC JUMP JUMPDEST DUP1 PUSH4 0x559B9B4C EQ PUSH2 0x2EE JUMPI DUP1 PUSH4 0x5B4D76F1 EQ PUSH2 0x316 JUMPI DUP1 PUSH4 0x5D29CB98 EQ PUSH2 0x33E JUMPI PUSH2 0x1CC JUMP JUMPDEST DUP1 PUSH4 0x26C8D0AE GT PUSH2 0x19F JUMPI DUP1 PUSH4 0x26C8D0AE EQ PUSH2 0x24C JUMPI DUP1 PUSH4 0x4492B5C9 EQ PUSH2 0x274 JUMPI DUP1 PUSH4 0x485CC955 EQ PUSH2 0x29E JUMPI DUP1 PUSH4 0x549DEFB4 EQ PUSH2 0x2C6 JUMPI PUSH2 0x1CC JUMP JUMPDEST DUP1 PUSH4 0x161BA46A EQ PUSH2 0x1D0 JUMPI DUP1 PUSH4 0x217FE6C6 EQ PUSH2 0x1FA JUMPI DUP1 PUSH4 0x23E77DB3 EQ PUSH2 0x236 JUMPI PUSH2 0x1CC JUMP JUMPDEST CALLDATASIZE PUSH2 0x1CC JUMPI STOP JUMPDEST PUSH0 PUSH0 REVERT JUMPDEST CALLVALUE DUP1 ISZERO PUSH2 0x1DB JUMPI PUSH0 PUSH0 REVERT JUMPDEST POP PUSH2 0x1E4 PUSH2 0x6B2 JUMP JUMPDEST PUSH1 0x40 MLOAD PUSH2 0x1F1 SWAP2 SWAP1 PUSH2 0x48E7 JUMP JUMPDEST PUSH1 0x40 MLOAD DUP1 SWAP2 SUB SWAP1 RETURN JUMPDEST CALLVALUE DUP1 ISZERO PUSH2 0x205 JUMPI PUSH0 PUSH0 REVERT JUMPDEST POP PUSH2 0x220 PUSH1 0x4 DUP1 CALLDATASIZE SUB DUP2 ADD SWAP1 PUSH2 0x21B SWAP2 SWAP1 PUSH2 0x49C3 JUMP JUMPDEST PUSH2 0x6C6 JUMP JUMPDEST PUSH1 0x40 MLOAD PUSH2 0x22D SWAP2 SWAP1 PUSH2 0x4A3A JUMP JUMPDEST PUSH1 0x40 MLOAD DUP1 SWAP2 SUB SWAP1 RETURN JUMPDEST CALLVALUE DUP1 ISZERO PUSH2 0x241 JUMPI PUSH0 PUSH0 REVERT JUMPDEST POP PUSH2 0x24A PUSH2 0x738 JUMP JUMPDEST STOP JUMPDEST CALLVALUE DUP1 ISZERO PUSH2 0x257 JUMPI PUSH0 PUSH0 REVERT JUMPDEST POP PUSH2 0x272 PUSH1 0x4 DUP1 CALLDATASIZE SUB DUP2 ADD SWAP1 PUSH2 0x26D SWAP2 SWAP1 PUSH2 0x4A7D JUMP JUMPDEST PUSH2 0x8D9 JUMP JUMPDEST STOP JUMPDEST CALLVALUE DUP1 ISZERO PUSH2 0x27F JUMPI PUSH0 PUSH0 REVERT JUMPDEST POP PUSH2 0x288 PUSH2 0xA76 JUMP JUMPDEST PUSH1 0x40 MLOAD PUSH2 0x295 SWAP2 SWAP1 PUSH2 0x4AC0 JUMP JUMPDEST PUSH1 0x40 MLOAD DUP1 SWAP2 SUB SWAP1 RETURN JUMPDEST CALLVALUE DUP1 ISZERO PUSH2 0x2A9 JUMPI PUSH0 PUSH0 REVERT JUMPDEST POP PUSH2 0x2C4 PUSH1 0x4 DUP1 CALLDATASIZE SUB DUP2 ADD SWAP1 PUSH2 0x2BF SWAP2 SWAP1 PUSH2 0x4B14 JUMP JUMPDEST PUSH2 0xB2E JUMP JUMPDEST STOP JUMPDEST CALLVALUE DUP1 ISZERO PUSH2 0x2D1 JUMPI PUSH0 PUSH0 REVERT JUMPDEST POP PUSH2 0x2EC PUSH1 0x4 DUP1 CALLDATASIZE SUB DUP2 ADD SWAP1 PUSH2 0x2E7 SWAP2 SWAP1 PUSH2 0x4B52 JUMP JUMPDEST PUSH2 0xE65 JUMP JUMPDEST STOP JUMPDEST CALLVALUE DUP1 ISZERO PUSH2 0x2F9 JUMPI PUSH0 PUSH0 REVERT JUMPDEST POP PUSH2 0x314 PUSH1 0x4 DUP1 CALLDATASIZE SUB DUP2 ADD SWAP1 PUSH2 0x30F SWAP2 SWAP1 PUSH2 0x49C3 JUMP JUMPDEST PUSH2 0x1029 JUMP JUMPDEST STOP JUMPDEST CALLVALUE DUP1 ISZERO PUSH2 0x321 JUMPI PUSH0 PUSH0 REVERT JUMPDEST POP PUSH2 0x33C PUSH1 0x4 DUP1 CALLDATASIZE SUB DUP2 ADD SWAP1 PUSH2 0x337 SWAP2 SWAP1 PUSH2 0x4BA7 JUMP JUMPDEST PUSH2 0x12D1 JUMP JUMPDEST STOP JUMPDEST CALLVALUE DUP1 ISZERO PUSH2 0x349 JUMPI PUSH0 PUSH0 REVERT JUMPDEST POP PUSH2 0x364 PUSH1 0x4 DUP1 CALLDATASIZE SUB DUP2 ADD SWAP1 PUSH2 0x35F SWAP2 SWAP1 PUSH2 0x4BA7 JUMP JUMPDEST PUSH2 0x1578 JUMP JUMPDEST STOP JUMPDEST CALLVALUE DUP1 ISZERO PUSH2 0x371 JUMPI PUSH0 PUSH0 REVERT JUMPDEST POP PUSH2 0x38C PUSH1 0x4 DUP1 CALLDATASIZE SUB DUP2 ADD SWAP1 PUSH2 0x387 SWAP2 SWAP1 PUSH2 0x4B52 JUMP JUMPDEST PUSH2 0x1833 JUMP JUMPDEST STOP JUMPDEST CALLVALUE DUP1 ISZERO PUSH2 0x399 JUMPI PUSH0 PUSH0 REVERT JUMPDEST POP PUSH2 0x3B4 PUSH1 0x4 DUP1 CALLDATASIZE SUB DUP2 ADD SWAP1 PUSH2 0x3AF SWAP2 SWAP1 PUSH2 0x4B52 JUMP JUMPDEST PUSH2 0x1A0D JUMP JUMPDEST PUSH1 0x40 MLOAD PUSH2 0x3C1 SWAP2 SWAP1 PUSH2 0x4AC0 JUMP JUMPDEST PUSH1 0x40 MLOAD DUP1 SWAP2 SUB SWAP1 RETURN JUMPDEST CALLVALUE DUP1 ISZERO PUSH2 0x3D5 JUMPI PUSH0 PUSH0 REVERT JUMPDEST POP PUSH2 0x3F0 PUSH1 0x4 DUP1 CALLDATASIZE SUB DUP2 ADD SWAP1 PUSH2 0x3EB SWAP2 SWAP1 PUSH2 0x4BD2 JUMP JUMPDEST PUSH2 0x1A22 JUMP JUMPDEST STOP JUMPDEST CALLVALUE DUP1 ISZERO PUSH2 0x3FD JUMPI PUSH0 PUSH0 REVERT JUMPDEST POP PUSH2 0x418 PUSH1 0x4 DUP1 CALLDATASIZE SUB DUP2 ADD SWAP1 PUSH2 0x413 SWAP2 SWAP1 PUSH2 0x4BA7 JUMP JUMPDEST PUSH2 0x1BBF JUMP JUMPDEST PUSH1 0x40 MLOAD PUSH2 0x42E SWAP11 SWAP10 SWAP9 SWAP8 SWAP7 SWAP6 SWAP5 SWAP4 SWAP3 SWAP2 SWAP1 PUSH2 0x4C0C JUMP JUMPDEST PUSH1 0x40 MLOAD DUP1 SWAP2 SUB SWAP1 RETURN JUMPDEST CALLVALUE DUP1 ISZERO PUSH2 0x442 JUMPI PUSH0 PUSH0 REVERT JUMPDEST POP PUSH2 0x44B PUSH2 0x1D2C JUMP JUMPDEST PUSH1 0x40 MLOAD PUSH2 0x458 SWAP2 SWAP1 PUSH2 0x4AC0 JUMP JUMPDEST PUSH1 0x40 MLOAD DUP1 SWAP2 SUB SWAP1 RETURN JUMPDEST CALLVALUE DUP1 ISZERO PUSH2 0x46C JUMPI PUSH0 PUSH0 REVERT JUMPDEST POP PUSH2 0x487 PUSH1 0x4 DUP1 CALLDATASIZE SUB DUP2 ADD SWAP1 PUSH2 0x482 SWAP2 SWAP1 PUSH2 0x4A7D JUMP JUMPDEST PUSH2 0x1D32 JUMP JUMPDEST STOP JUMPDEST CALLVALUE DUP1 ISZERO PUSH2 0x494 JUMPI PUSH0 PUSH0 REVERT JUMPDEST POP PUSH2 0x4AF PUSH1 0x4 DUP1 CALLDATASIZE SUB DUP2 ADD SWAP1 PUSH2 0x4AA SWAP2 SWAP1 PUSH2 0x49C3 JUMP JUMPDEST PUSH2 0x1ECF JUMP JUMPDEST STOP JUMPDEST CALLVALUE DUP1 ISZERO PUSH2 0x4BC JUMPI PUSH0 PUSH0 REVERT JUMPDEST POP PUSH2 0x4D7 PUSH1 0x4 DUP1 CALLDATASIZE SUB DUP2 ADD SWAP1 PUSH2 0x4D2 SWAP2 SWAP1 PUSH2 0x4B52 JUMP JUMPDEST PUSH2 0x21E7 JUMP JUMPDEST STOP JUMPDEST PUSH2 0x4F3 PUSH1 0x4 DUP1 CALLDATASIZE SUB DUP2 ADD SWAP1 PUSH2 0x4EE SWAP2 SWAP1 PUSH2 0x4CA6 JUMP JUMPDEST PUSH2 0x2348 JUMP JUMPDEST STOP JUMPDEST CALLVALUE DUP1 ISZERO PUSH2 0x500 JUMPI PUSH0 PUSH0 REVERT JUMPDEST POP PUSH2 0x51B PUSH1 0x4 DUP1 CALLDATASIZE SUB DUP2 ADD SWAP1 PUSH2 0x516 SWAP2 SWAP1 PUSH2 0x4BA7 JUMP JUMPDEST PUSH2 0x2817 JUMP JUMPDEST STOP JUMPDEST CALLVALUE DUP1 ISZERO PUSH2 0x528 JUMPI PUSH0 PUSH0 REVERT JUMPDEST POP PUSH2 0x531 PUSH2 0x2BC9 JUMP JUMPDEST PUSH1 0x40 MLOAD PUSH2 0x53E SWAP2 SWAP1 PUSH2 0x4AC0 JUMP JUMPDEST PUSH1 0x40 MLOAD DUP1 SWAP2 SUB SWAP1 RETURN JUMPDEST CALLVALUE DUP1 ISZERO PUSH2 0x552 JUMPI PUSH0 PUSH0 REVERT JUMPDEST POP PUSH2 0x55B PUSH2 0x2BCF JUMP JUMPDEST PUSH1 0x40 MLOAD PUSH2 0x568 SWAP2 SWAP1 PUSH2 0x48E7 JUMP JUMPDEST PUSH1 0x40 MLOAD DUP1 SWAP2 SUB SWAP1 RETURN JUMPDEST CALLVALUE DUP1 ISZERO PUSH2 0x57C JUMPI PUSH0 PUSH0 REVERT JUMPDEST POP PUSH2 0x585 PUSH2 0x2BE3 JUMP JUMPDEST PUSH1 0x40 MLOAD PUSH2 0x592 SWAP2 SWAP1 PUSH2 0x48E7 JUMP JUMPDEST PUSH1 0x40 MLOAD DUP1 SWAP2 SUB SWAP1 RETURN JUMPDEST CALLVALUE DUP1 ISZERO PUSH2 0x5A6 JUMPI PUSH0 PUSH0 REVERT JUMPDEST POP PUSH2 0x5C1 PUSH1 0x4 DUP1 CALLDATASIZE SUB DUP2 ADD SWAP1 PUSH2 0x5BC SWAP2 SWAP1 PUSH2 0x4BA7 JUMP JUMPDEST PUSH2 0x2BF7 JUMP JUMPDEST PUSH1 0x40 MLOAD PUSH2 0x5D7 SWAP11 SWAP10 SWAP9 SWAP8 SWAP7 SWAP6 SWAP5 SWAP4 SWAP3 SWAP2 SWAP1 PUSH2 0x4C0C JUMP JUMPDEST PUSH1 0x40 MLOAD DUP1 SWAP2 SUB SWAP1 RETURN JUMPDEST PUSH2 0x5FA PUSH1 0x4 DUP1 CALLDATASIZE SUB DUP2 ADD SWAP1 PUSH2 0x5F5 SWAP2 SWAP1 PUSH2 0x4CA6 JUMP JUMPDEST PUSH2 0x2C8E JUMP JUMPDEST STOP JUMPDEST CALLVALUE DUP1 ISZERO PUSH2 0x607 JUMPI PUSH0 PUSH0 REVERT JUMPDEST POP PUSH2 0x622 PUSH1 0x4 DUP1 CALLDATASIZE SUB DUP2 ADD SWAP1 PUSH2 0x61D SWAP2 SWAP1 PUSH2 0x4A7D JUMP JUMPDEST PUSH2 0x337E JUMP JUMPDEST STOP JUMPDEST CALLVALUE DUP1 ISZERO PUSH2 0x62F JUMPI PUSH0 PUSH0 REVERT JUMPDEST POP PUSH2 0x638 PUSH2 0x351B JUMP JUMPDEST PUSH1 0x40 MLOAD PUSH2 0x645 SWAP2 SWAP1 PUSH2 0x48E7 JUMP JUMPDEST PUSH1 0x40 MLOAD DUP1 SWAP2 SUB SWAP1 RETURN JUMPDEST CALLVALUE DUP1 ISZERO PUSH2 0x659 JUMPI PUSH0 PUSH0 REVERT JUMPDEST POP PUSH2 0x674 PUSH1 0x4 DUP1 CALLDATASIZE SUB DUP2 ADD SWAP1 PUSH2 0x66F SWAP2 SWAP1 PUSH2 0x4A7D JUMP JUMPDEST PUSH2 0x352E JUMP JUMPDEST STOP JUMPDEST CALLVALUE DUP1 ISZERO PUSH2 0x681 JUMPI PUSH0 PUSH0 REVERT JUMPDEST POP PUSH2 0x69C PUSH1 0x4 DUP1 CALLDATASIZE SUB DUP2 ADD SWAP1 PUSH2 0x697 SWAP2 SWAP1 PUSH2 0x4B52 JUMP JUMPDEST PUSH2 0x36CB JUMP JUMPDEST PUSH1 0x40 MLOAD PUSH2 0x6A9 SWAP2 SWAP1 PUSH2 0x4A3A JUMP JUMPDEST PUSH1 0x40 MLOAD DUP1 SWAP2 SUB SWAP1 RETURN JUMPDEST PUSH1 0x36 PUSH1 0x2 SWAP1 SLOAD SWAP1 PUSH2 0x100 EXP SWAP1 DIV PUSH2 0xFFFF AND DUP2 JUMP JUMPDEST PUSH0 PUSH1 0x2 PUSH0 DUP6 PUSH20 0xFFFFFFFFFFFFFFFFFFFFFFFFFFFFFFFFFFFFFFFF AND PUSH20 0xFFFFFFFFFFFFFFFFFFFFFFFFFFFFFFFFFFFFFFFF AND DUP2 MSTORE PUSH1 0x20 ADD SWAP1 DUP2 MSTORE PUSH1 0x20 ADD PUSH0 KECCAK256 DUP4 DUP4 PUSH1 0x40 MLOAD PUSH2 0x714 SWAP3 SWAP2 SWAP1 PUSH2 0x4D20 JUMP JUMPDEST SWAP1 DUP2 MSTORE PUSH1 0x20 ADD PUSH1 0x40 MLOAD DUP1 SWAP2 SUB SWAP1 KECCAK256 PUSH0 SWAP1 SLOAD SWAP1 PUSH2 0x100 EXP SWAP1 DIV PUSH1 0xFF AND SWAP1 POP SWAP4 SWAP3 POP POP POP JUMP JUMPDEST PUSH1 0x2 PUSH0 CALLER PUSH20 0xFFFFFFFFFFFFFFFFFFFFFFFFFFFFFFFFFFFFFFFF AND PUSH20 0xFFFFFFFFFFFFFFFFFFFFFFFFFFFFFFFFFFFFFFFF AND DUP2 MSTORE PUSH1 0x20 ADD SWAP1 DUP2 MSTORE PUSH1 0x20 ADD PUSH0 KECCAK256 PUSH1 0x40 MLOAD PUSH2 0x781 SWAP1 PUSH2 0x4D82 JUMP JUMPDEST SWAP1 DUP2 MSTORE PUSH1 0x20 ADD PUSH1 0x40 MLOAD DUP1 SWAP2 SUB SWAP1 KECCAK256 PUSH0 SWAP1 SLOAD SWAP1 PUSH2 0x100 EXP SWAP1 DIV PUSH1 0xFF AND PUSH2 0x7DB JUMPI PUSH1 0x40 MLOAD PUSH32 0x8C379A000000000000000000000000000000000000000000000000000000000 DUP2 MSTORE PUSH1 0x4 ADD PUSH2 0x7D2 SWAP1 PUSH2 0x4E16 JUMP JUMPDEST PUSH1 0x40 MLOAD DUP1 SWAP2 SUB SWAP1 REVERT JUMPDEST PUSH2 0x7E3 PUSH2 0x36E8 JUMP JUMPDEST PUSH2 0x7EC CALLER PUSH2 0x3737 JUMP JUMPDEST PUSH2 0x8CF PUSH1 0x39 PUSH0 SWAP1 SLOAD SWAP1 PUSH2 0x100 EXP SWAP1 DIV PUSH20 0xFFFFFFFFFFFFFFFFFFFFFFFFFFFFFFFFFFFFFFFF AND PUSH1 0x40 MLOAD PUSH1 0x24 ADD PUSH1 0x40 MLOAD PUSH1 0x20 DUP2 DUP4 SUB SUB DUP2 MSTORE SWAP1 PUSH1 0x40 MSTORE PUSH32 0x639807D000000000000000000000000000000000000000000000000000000000 PUSH28 0xFFFFFFFFFFFFFFFFFFFFFFFFFFFFFFFFFFFFFFFFFFFFFFFFFFFFFFFF NOT AND PUSH1 0x20 DUP3 ADD DUP1 MLOAD PUSH28 0xFFFFFFFFFFFFFFFFFFFFFFFFFFFFFFFFFFFFFFFFFFFFFFFFFFFFFFFF DUP4 DUP2 DUP4 AND OR DUP4 MSTORE POP POP POP POP PUSH1 0x40 MLOAD DUP1 PUSH1 0x40 ADD PUSH1 0x40 MSTORE DUP1 PUSH1 0x2 DUP2 MSTORE PUSH1 0x20 ADD PUSH32 0x5450000000000000000000000000000000000000000000000000000000000000 DUP2 MSTORE POP PUSH2 0x37A8 JUMP JUMPDEST PUSH2 0x8D7 PUSH2 0x386B JUMP JUMPDEST JUMP JUMPDEST PUSH1 0x2 PUSH0 CALLER PUSH20 0xFFFFFFFFFFFFFFFFFFFFFFFFFFFFFFFFFFFFFFFF AND PUSH20 0xFFFFFFFFFFFFFFFFFFFFFFFFFFFFFFFFFFFFFFFF AND DUP2 MSTORE PUSH1 0x20 ADD SWAP1 DUP2 MSTORE PUSH1 0x20 ADD PUSH0 KECCAK256 PUSH1 0x40 MLOAD PUSH2 0x922 SWAP1 PUSH2 0x4D82 JUMP JUMPDEST SWAP1 DUP2 MSTORE PUSH1 0x20 ADD PUSH1 0x40 MLOAD DUP1 SWAP2 SUB SWAP1 KECCAK256 PUSH0 SWAP1 SLOAD SWAP1 PUSH2 0x100 EXP SWAP1 DIV PUSH1 0xFF AND PUSH2 0x97C JUMPI PUSH1 0x40 MLOAD PUSH32 0x8C379A000000000000000000000000000000000000000000000000000000000 DUP2 MSTORE PUSH1 0x4 ADD PUSH2 0x973 SWAP1 PUSH2 0x4E16 JUMP JUMPDEST PUSH1 0x40 MLOAD DUP1 SWAP2 SUB SWAP1 REVERT JUMPDEST PUSH2 0x985 CALLER PUSH2 0x3737 JUMP JUMPDEST PUSH2 0xA73 PUSH1 0x39 PUSH0 SWAP1 SLOAD SWAP1 PUSH2 0x100 EXP SWAP1 DIV PUSH20 0xFFFFFFFFFFFFFFFFFFFFFFFFFFFFFFFFFFFFFFFF AND DUP3 PUSH1 0x40 MLOAD PUSH1 0x24 ADD PUSH2 0x9BB SWAP2 SWAP1 PUSH2 0x48E7 JUMP JUMPDEST PUSH1 0x40 MLOAD PUSH1 0x20 DUP2 DUP4 SUB SUB DUP2 MSTORE SWAP1 PUSH1 0x40 MSTORE PUSH32 0x1B745BFF00000000000000000000000000000000000000000000000000000000 PUSH28 0xFFFFFFFFFFFFFFFFFFFFFFFFFFFFFFFFFFFFFFFFFFFFFFFFFFFFFFFF NOT AND PUSH1 0x20 DUP3 ADD DUP1 MLOAD PUSH28 0xFFFFFFFFFFFFFFFFFFFFFFFFFFFFFFFFFFFFFFFFFFFFFFFFFFFFFFFF DUP4 DUP2 DUP4 AND OR DUP4 MSTORE POP POP POP POP PUSH1 0x40 MLOAD DUP1 PUSH1 0x40 ADD PUSH1 0x40 MSTORE DUP1 PUSH1 0x16 DUP2 MSTORE PUSH1 0x20 ADD PUSH32 0x4D6F6E74686C79496E74657265737450657263656E7400000000000000000000 DUP2 MSTORE POP PUSH2 0x37A8 JUMP JUMPDEST POP JUMP JUMPDEST PUSH0 PUSH1 0x2 PUSH0 CALLER PUSH20 0xFFFFFFFFFFFFFFFFFFFFFFFFFFFFFFFFFFFFFFFF AND PUSH20 0xFFFFFFFFFFFFFFFFFFFFFFFFFFFFFFFFFFFFFFFF AND DUP2 MSTORE PUSH1 0x20 ADD SWAP1 DUP2 MSTORE PUSH1 0x20 ADD PUSH0 KECCAK256 PUSH1 0x40 MLOAD PUSH2 0xAC0 SWAP1 PUSH2 0x4D82 JUMP JUMPDEST SWAP1 DUP2 MSTORE PUSH1 0x20 ADD PUSH1 0x40 MLOAD DUP1 SWAP2 SUB SWAP1 KECCAK256 PUSH0 SWAP1 SLOAD SWAP1 PUSH2 0x100 EXP SWAP1 DIV PUSH1 0xFF AND PUSH2 0xB1A JUMPI PUSH1 0x40 MLOAD PUSH32 0x8C379A000000000000000000000000000000000000000000000000000000000 DUP2 MSTORE PUSH1 0x4 ADD PUSH2 0xB11 SWAP1 PUSH2 0x4E16 JUMP JUMPDEST PUSH1 0x40 MLOAD DUP1 SWAP2 SUB SWAP1 REVERT JUMPDEST PUSH2 0xB23 CALLER PUSH2 0x3737 JUMP JUMPDEST PUSH1 0x35 DUP1 SLOAD SWAP1 POP SWAP1 POP SWAP1 JUMP JUMPDEST PUSH0 PUSH2 0xB37 PUSH2 0x3875 JUMP JUMPDEST SWAP1 POP PUSH0 DUP2 PUSH0 ADD PUSH1 0x8 SWAP1 SLOAD SWAP1 PUSH2 0x100 EXP SWAP1 DIV PUSH1 0xFF AND ISZERO SWAP1 POP PUSH0 DUP3 PUSH0 ADD PUSH0 SWAP1 SLOAD SWAP1 PUSH2 0x100 EXP SWAP1 DIV PUSH8 0xFFFFFFFFFFFFFFFF AND SWAP1 POP PUSH0 PUSH0 DUP3 PUSH8 0xFFFFFFFFFFFFFFFF AND EQ DUP1 ISZERO PUSH2 0xB7F JUMPI POP DUP3 JUMPDEST SWAP1 POP PUSH0 PUSH1 0x1 DUP4 PUSH8 0xFFFFFFFFFFFFFFFF AND EQ DUP1 ISZERO PUSH2 0xBB2 JUMPI POP PUSH0 ADDRESS PUSH20 0xFFFFFFFFFFFFFFFFFFFFFFFFFFFFFFFFFFFFFFFF AND EXTCODESIZE EQ JUMPDEST SWAP1 POP DUP2 ISZERO DUP1 ISZERO PUSH2 0xBC0 JUMPI POP DUP1 ISZERO JUMPDEST ISZERO PUSH2 0xBF7 JUMPI PUSH1 0x40 MLOAD PUSH32 0xF92EE8A900000000000000000000000000000000000000000000000000000000 DUP2 MSTORE PUSH1 0x4 ADD PUSH1 0x40 MLOAD DUP1 SWAP2 SUB SWAP1 REVERT JUMPDEST PUSH1 0x1 DUP6 PUSH0 ADD PUSH0 PUSH2 0x100 EXP DUP2 SLOAD DUP2 PUSH8 0xFFFFFFFFFFFFFFFF MUL NOT AND SWAP1 DUP4 PUSH8 0xFFFFFFFFFFFFFFFF AND MUL OR SWAP1 SSTORE POP DUP4 ISZERO PUSH2 0xC44 JUMPI PUSH1 0x1 DUP6 PUSH0 ADD PUSH1 0x8 PUSH2 0x100 EXP DUP2 SLOAD DUP2 PUSH1 0xFF MUL NOT AND SWAP1 DUP4 ISZERO ISZERO MUL OR SWAP1 SSTORE POP JUMPDEST PUSH2 0xC4C PUSH2 0x3888 JUMP JUMPDEST PUSH0 PUSH20 0xFFFFFFFFFFFFFFFFFFFFFFFFFFFFFFFFFFFFFFFF AND DUP8 PUSH20 0xFFFFFFFFFFFFFFFFFFFFFFFFFFFFFFFFFFFFFFFF AND SUB PUSH2 0xCB1 JUMPI PUSH1 0x40 MLOAD PUSH32 0xD92E233D00000000000000000000000000000000000000000000000000000000 DUP2 MSTORE PUSH1 0x4 ADD PUSH1 0x40 MLOAD DUP1 SWAP2 SUB SWAP1 REVERT JUMPDEST DUP7 PUSH1 0x38 PUSH0 PUSH2 0x100 EXP DUP2 SLOAD DUP2 PUSH20 0xFFFFFFFFFFFFFFFFFFFFFFFFFFFFFFFFFFFFFFFF MUL NOT AND SWAP1 DUP4 PUSH20 0xFFFFFFFFFFFFFFFFFFFFFFFFFFFFFFFFFFFFFFFF AND MUL OR SWAP1 SSTORE POP PUSH1 0x2 PUSH1 0x36 PUSH0 PUSH2 0x100 EXP DUP2 SLOAD DUP2 PUSH2 0xFFFF MUL NOT AND SWAP1 DUP4 PUSH2 0xFFFF AND MUL OR SWAP1 SSTORE POP PUSH1 0x1 PUSH1 0x36 PUSH1 0x2 PUSH2 0x100 EXP DUP2 SLOAD DUP2 PUSH2 0xFFFF MUL NOT AND SWAP1 DUP4 PUSH2 0xFFFF AND MUL OR SWAP1 SSTORE POP PUSH1 0x32 PUSH1 0x36 PUSH1 0x4 PUSH2 0x100 EXP DUP2 SLOAD DUP2 PUSH2 0xFFFF MUL NOT AND SWAP1 DUP4 PUSH2 0xFFFF AND MUL OR SWAP1 SSTORE POP PUSH1 0x14 PUSH1 0x36 PUSH1 0x6 PUSH2 0x100 EXP DUP2 SLOAD DUP2 PUSH2 0xFFFF MUL NOT AND SWAP1 DUP4 PUSH2 0xFFFF AND MUL OR SWAP1 SSTORE POP DUP6 PUSH1 0x39 PUSH0 PUSH2 0x100 EXP DUP2 SLOAD DUP2 PUSH20 0xFFFFFFFFFFFFFFFFFFFFFFFFFFFFFFFFFFFFFFFF MUL NOT AND SWAP1 DUP4 PUSH20 0xFFFFFFFFFFFFFFFFFFFFFFFFFFFFFFFFFFFFFFFF AND MUL OR SWAP1 SSTORE POP DUP6 PUSH20 0xFFFFFFFFFFFFFFFFFFFFFFFFFFFFFFFFFFFFFFFF AND DUP8 PUSH20 0xFFFFFFFFFFFFFFFFFFFFFFFFFFFFFFFFFFFFFFFF AND PUSH32 0x49A7FC26E6579AA5CF9DB7B2A3ACE21873B6AB1CB60627834B8722F128EB47B1 PUSH1 0x40 MLOAD PUSH1 0x40 MLOAD DUP1 SWAP2 SUB SWAP1 LOG3 DUP4 ISZERO PUSH2 0xE5C JUMPI PUSH0 DUP6 PUSH0 ADD PUSH1 0x8 PUSH2 0x100 EXP DUP2 SLOAD DUP2 PUSH1 0xFF MUL NOT AND SWAP1 DUP4 ISZERO ISZERO MUL OR SWAP1 SSTORE POP PUSH32 0xC7F505B2F371AE2175EE4913F4499E1F2633A7B5936321EED1CDAEB6115181D2 PUSH1 0x1 PUSH1 0x40 MLOAD PUSH2 0xE53 SWAP2 SWAP1 PUSH2 0x4E89 JUMP JUMPDEST PUSH1 0x40 MLOAD DUP1 SWAP2 SUB SWAP1 LOG1 JUMPDEST POP POP POP POP POP POP POP JUMP JUMPDEST PUSH2 0xE6E CALLER PUSH2 0x3737 JUMP JUMPDEST PUSH0 PUSH0 SWAP1 SLOAD SWAP1 PUSH2 0x100 EXP SWAP1 DIV PUSH20 0xFFFFFFFFFFFFFFFFFFFFFFFFFFFFFFFFFFFFFFFF AND PUSH20 0xFFFFFFFFFFFFFFFFFFFFFFFFFFFFFFFFFFFFFFFF AND CALLER PUSH20 0xFFFFFFFFFFFFFFFFFFFFFFFFFFFFFFFFFFFFFFFF AND EQ PUSH2 0xEFC JUMPI PUSH1 0x40 MLOAD PUSH32 0x8C379A000000000000000000000000000000000000000000000000000000000 DUP2 MSTORE PUSH1 0x4 ADD PUSH2 0xEF3 SWAP1 PUSH2 0x4F12 JUMP JUMPDEST PUSH1 0x40 MLOAD DUP1 SWAP2 SUB SWAP1 REVERT JUMPDEST PUSH0 PUSH20 0xFFFFFFFFFFFFFFFFFFFFFFFFFFFFFFFFFFFFFFFF AND DUP2 PUSH20 0xFFFFFFFFFFFFFFFFFFFFFFFFFFFFFFFFFFFFFFFF AND SUB PUSH2 0xF61 JUMPI PUSH1 0x40 MLOAD PUSH32 0xD92E233D00000000000000000000000000000000000000000000000000000000 DUP2 MSTORE PUSH1 0x4 ADD PUSH1 0x40 MLOAD DUP1 SWAP2 SUB SWAP1 REVERT JUMPDEST PUSH0 PUSH1 0x39 PUSH0 SWAP1 SLOAD SWAP1 PUSH2 0x100 EXP SWAP1 DIV PUSH20 0xFFFFFFFFFFFFFFFFFFFFFFFFFFFFFFFFFFFFFFFF AND SWAP1 POP PUSH0 DUP3 SWAP1 POP DUP3 PUSH1 0x39 PUSH0 PUSH2 0x100 EXP DUP2 SLOAD DUP2 PUSH20 0xFFFFFFFFFFFFFFFFFFFFFFFFFFFFFFFFFFFFFFFF MUL NOT AND SWAP1 DUP4 PUSH20 0xFFFFFFFFFFFFFFFFFFFFFFFFFFFFFFFFFFFFFFFF AND MUL OR SWAP1 SSTORE POP DUP1 PUSH20 0xFFFFFFFFFFFFFFFFFFFFFFFFFFFFFFFFFFFFFFFF AND DUP3 PUSH20 0xFFFFFFFFFFFFFFFFFFFFFFFFFFFFFFFFFFFFFFFF AND PUSH32 0x2DF5E5EE6DED36425EF37CDDC3FBE6151513D55C0EC00C7053E2DF70F2189C47 PUSH1 0x40 MLOAD PUSH1 0x40 MLOAD DUP1 SWAP2 SUB SWAP1 LOG3 POP POP POP JUMP JUMPDEST PUSH0 PUSH0 SWAP1 SLOAD SWAP1 PUSH2 0x100 EXP SWAP1 DIV PUSH20 0xFFFFFFFFFFFFFFFFFFFFFFFFFFFFFFFFFFFFFFFF AND PUSH20 0xFFFFFFFFFFFFFFFFFFFFFFFFFFFFFFFFFFFFFFFF AND CALLER PUSH20 0xFFFFFFFFFFFFFFFFFFFFFFFFFFFFFFFFFFFFFFFF AND EQ PUSH2 0x10B7 JUMPI PUSH1 0x40 MLOAD PUSH32 0x8C379A000000000000000000000000000000000000000000000000000000000 DUP2 MSTORE PUSH1 0x4 ADD PUSH2 0x10AE SWAP1 PUSH2 0x4F12 JUMP JUMPDEST PUSH1 0x40 MLOAD DUP1 SWAP2 SUB SWAP1 REVERT JUMPDEST PUSH1 0x40 MLOAD DUP1 PUSH1 0x40 ADD PUSH1 0x40 MSTORE DUP1 PUSH1 0x7 DUP2 MSTORE PUSH1 0x20 ADD PUSH32 0x456D706C6F796500000000000000000000000000000000000000000000000000 DUP2 MSTORE POP DUP1 MLOAD SWAP1 PUSH1 0x20 ADD KECCAK256 DUP3 DUP3 PUSH1 0x40 MLOAD PUSH2 0x1104 SWAP3 SWAP2 SWAP1 PUSH2 0x4F5E JUMP JUMPDEST PUSH1 0x40 MLOAD DUP1 SWAP2 SUB SWAP1 KECCAK256 EQ PUSH2 0x114C JUMPI PUSH1 0x40 MLOAD PUSH32 0x8C379A000000000000000000000000000000000000000000000000000000000 DUP2 MSTORE PUSH1 0x4 ADD PUSH2 0x1143 SWAP1 PUSH2 0x4FC0 JUMP JUMPDEST PUSH1 0x40 MLOAD DUP1 SWAP2 SUB SWAP1 REVERT JUMPDEST PUSH1 0x2 PUSH0 DUP5 PUSH20 0xFFFFFFFFFFFFFFFFFFFFFFFFFFFFFFFFFFFFFFFF AND PUSH20 0xFFFFFFFFFFFFFFFFFFFFFFFFFFFFFFFFFFFFFFFF AND DUP2 MSTORE PUSH1 0x20 ADD SWAP1 DUP2 MSTORE PUSH1 0x20 ADD PUSH0 KECCAK256 DUP3 DUP3 PUSH1 0x40 MLOAD PUSH2 0x1199 SWAP3 SWAP2 SWAP1 PUSH2 0x4D20 JUMP JUMPDEST SWAP1 DUP2 MSTORE PUSH1 0x20 ADD PUSH1 0x40 MLOAD DUP1 SWAP2 SUB SWAP1 KECCAK256 PUSH0 SWAP1 SLOAD SWAP1 PUSH2 0x100 EXP SWAP1 DIV PUSH1 0xFF AND PUSH2 0x11F3 JUMPI PUSH1 0x40 MLOAD PUSH32 0x8C379A000000000000000000000000000000000000000000000000000000000 DUP2 MSTORE PUSH1 0x4 ADD PUSH2 0x11EA SWAP1 PUSH2 0x504E JUMP JUMPDEST PUSH1 0x40 MLOAD DUP1 SWAP2 SUB SWAP1 REVERT JUMPDEST PUSH0 PUSH1 0x2 PUSH0 DUP6 PUSH20 0xFFFFFFFFFFFFFFFFFFFFFFFFFFFFFFFFFFFFFFFF AND PUSH20 0xFFFFFFFFFFFFFFFFFFFFFFFFFFFFFFFFFFFFFFFF AND DUP2 MSTORE PUSH1 0x20 ADD SWAP1 DUP2 MSTORE PUSH1 0x20 ADD PUSH0 KECCAK256 DUP4 DUP4 PUSH1 0x40 MLOAD PUSH2 0x1241 SWAP3 SWAP2 SWAP1 PUSH2 0x4D20 JUMP JUMPDEST SWAP1 DUP2 MSTORE PUSH1 0x20 ADD PUSH1 0x40 MLOAD DUP1 SWAP2 SUB SWAP1 KECCAK256 PUSH0 PUSH2 0x100 EXP DUP2 SLOAD DUP2 PUSH1 0xFF MUL NOT AND SWAP1 DUP4 ISZERO ISZERO MUL OR SWAP1 SSTORE POP PUSH1 0x1 PUSH0 DUP2 SLOAD DUP1 SWAP3 SWAP2 SWAP1 PUSH2 0x1277 SWAP1 PUSH2 0x5099 JUMP JUMPDEST SWAP2 SWAP1 POP SSTORE POP DUP3 PUSH20 0xFFFFFFFFFFFFFFFFFFFFFFFFFFFFFFFFFFFFFFFF AND PUSH32 0xCF3BBB93629B62834974659EFC838721FA2BD3B41CAFD38B516AC86B661491E1 DUP4 DUP4 PUSH1 0x40 MLOAD PUSH2 0x12C4 SWAP3 SWAP2 SWAP1 PUSH2 0x50FC JUMP JUMPDEST PUSH1 0x40 MLOAD DUP1 SWAP2 SUB SWAP1 LOG2 POP POP POP JUMP JUMPDEST PUSH1 0x2 PUSH0 CALLER PUSH20 0xFFFFFFFFFFFFFFFFFFFFFFFFFFFFFFFFFFFFFFFF AND PUSH20 0xFFFFFFFFFFFFFFFFFFFFFFFFFFFFFFFFFFFFFFFF AND DUP2 MSTORE PUSH1 0x20 ADD SWAP1 DUP2 MSTORE PUSH1 0x20 ADD PUSH0 KECCAK256 PUSH1 0x40 MLOAD PUSH2 0x131A SWAP1 PUSH2 0x4D82 JUMP JUMPDEST SWAP1 DUP2 MSTORE PUSH1 0x20 ADD PUSH1 0x40 MLOAD DUP1 SWAP2 SUB SWAP1 KECCAK256 PUSH0 SWAP1 SLOAD SWAP1 PUSH2 0x100 EXP SWAP1 DIV PUSH1 0xFF AND ISZERO PUSH2 0x1375 JUMPI PUSH1 0x40 MLOAD PUSH32 0x8C379A000000000000000000000000000000000000000000000000000000000 DUP2 MSTORE PUSH1 0x4 ADD PUSH2 0x136C SWAP1 PUSH2 0x518E JUMP JUMPDEST PUSH1 0x40 MLOAD DUP1 SWAP2 SUB SWAP1 REVERT JUMPDEST PUSH0 PUSH0 SWAP1 SLOAD SWAP1 PUSH2 0x100 EXP SWAP1 DIV PUSH20 0xFFFFFFFFFFFFFFFFFFFFFFFFFFFFFFFFFFFFFFFF AND PUSH20 0xFFFFFFFFFFFFFFFFFFFFFFFFFFFFFFFFFFFFFFFF AND CALLER PUSH20 0xFFFFFFFFFFFFFFFFFFFFFFFFFFFFFFFFFFFFFFFF AND SUB PUSH2 0x1403 JUMPI PUSH1 0x40 MLOAD PUSH32 0x8C379A000000000000000000000000000000000000000000000000000000000 DUP2 MSTORE PUSH1 0x4 ADD PUSH2 0x13FA SWAP1 PUSH2 0x521C JUMP JUMPDEST PUSH1 0x40 MLOAD DUP1 SWAP2 SUB SWAP1 REVERT JUMPDEST PUSH2 0x140C CALLER PUSH2 0x3737 JUMP JUMPDEST PUSH2 0x1415 DUP2 PUSH2 0x389A JUMP JUMPDEST PUSH0 PUSH1 0x35 DUP3 DUP2 SLOAD DUP2 LT PUSH2 0x142A JUMPI PUSH2 0x1429 PUSH2 0x523A JUMP JUMPDEST JUMPDEST SWAP1 PUSH0 MSTORE PUSH1 0x20 PUSH0 KECCAK256 SWAP1 PUSH1 0x9 MUL ADD SWAP1 POP DUP1 PUSH1 0x8 ADD PUSH1 0x1 SWAP1 SLOAD SWAP1 PUSH2 0x100 EXP SWAP1 DIV PUSH1 0xFF AND ISZERO DUP1 PUSH2 0x1463 JUMPI POP DUP1 PUSH1 0x8 ADD PUSH0 SWAP1 SLOAD SWAP1 PUSH2 0x100 EXP SWAP1 DIV PUSH1 0xFF AND JUMPDEST ISZERO PUSH2 0x146E JUMPI POP PUSH2 0x1575 JUMP JUMPDEST PUSH0 PUSH2 0x1484 DUP3 PUSH1 0x3 ADD SLOAD PUSH2 0x147F PUSH2 0x38E6 JUMP JUMPDEST PUSH2 0x38ED JUMP JUMPDEST SWAP1 POP PUSH0 DUP2 SWAP1 POP DUP3 PUSH1 0x2 ADD SLOAD DUP2 GT ISZERO PUSH2 0x149E JUMPI DUP3 PUSH1 0x2 ADD SLOAD SWAP1 POP JUMPDEST DUP3 PUSH1 0x4 ADD SLOAD DUP2 GT ISZERO PUSH2 0x1515 JUMPI PUSH0 DUP4 PUSH1 0x4 ADD SLOAD DUP3 PUSH2 0x14BB SWAP2 SWAP1 PUSH2 0x5267 JUMP JUMPDEST SWAP1 POP DUP1 DUP5 PUSH1 0x5 ADD PUSH0 DUP3 DUP3 SLOAD PUSH2 0x14D0 SWAP2 SWAP1 PUSH2 0x529A JUMP JUMPDEST SWAP3 POP POP DUP2 SWAP1 SSTORE POP DUP5 PUSH32 0xA9BD81B5E2FA2470F02961F37FA6590C16A995E9BBF73088778E72EA4237C4BB DUP6 PUSH1 0x5 ADD SLOAD PUSH1 0x40 MLOAD PUSH2 0x150B SWAP2 SWAP1 PUSH2 0x4AC0 JUMP JUMPDEST PUSH1 0x40 MLOAD DUP1 SWAP2 SUB SWAP1 LOG2 POP JUMPDEST PUSH1 0x3 DUP4 PUSH1 0x5 ADD SLOAD LT PUSH2 0x152D JUMPI PUSH2 0x152C DUP5 PUSH1 0x3 PUSH2 0x3925 JUMP JUMPDEST JUMPDEST DUP3 PUSH1 0x2 ADD SLOAD DUP3 LT ISZERO DUP1 ISZERO PUSH2 0x1548 JUMPI POP DUP3 PUSH1 0x2 ADD SLOAD DUP4 PUSH1 0x4 ADD SLOAD LT JUMPDEST DUP1 ISZERO PUSH2 0x1562 JUMPI POP DUP3 PUSH1 0x8 ADD PUSH0 SWAP1 SLOAD SWAP1 PUSH2 0x100 EXP SWAP1 DIV PUSH1 0xFF AND ISZERO JUMPDEST ISZERO PUSH2 0x1571 JUMPI PUSH2 0x1570 DUP5 PUSH2 0x401C JUMP JUMPDEST JUMPDEST POP POP POP JUMPDEST POP JUMP JUMPDEST PUSH1 0x2 PUSH0 CALLER PUSH20 0xFFFFFFFFFFFFFFFFFFFFFFFFFFFFFFFFFFFFFFFF AND PUSH20 0xFFFFFFFFFFFFFFFFFFFFFFFFFFFFFFFFFFFFFFFF AND DUP2 MSTORE PUSH1 0x20 ADD SWAP1 DUP2 MSTORE PUSH1 0x20 ADD PUSH0 KECCAK256 PUSH1 0x40 MLOAD PUSH2 0x15C1 SWAP1 PUSH2 0x4D82 JUMP JUMPDEST SWAP1 DUP2 MSTORE PUSH1 0x20 ADD PUSH1 0x40 MLOAD DUP1 SWAP2 SUB SWAP1 KECCAK256 PUSH0 SWAP1 SLOAD SWAP1 PUSH2 0x100 EXP SWAP1 DIV PUSH1 0xFF AND PUSH2 0x161B JUMPI PUSH1 0x40 MLOAD PUSH32 0x8C379A000000000000000000000000000000000000000000000000000000000 DUP2 MSTORE PUSH1 0x4 ADD PUSH2 0x1612 SWAP1 PUSH2 0x4E16 JUMP JUMPDEST PUSH1 0x40 MLOAD DUP1 SWAP2 SUB SWAP1 REVERT JUMPDEST PUSH2 0x1623 PUSH2 0x36E8 JUMP JUMPDEST PUSH2 0x162C CALLER PUSH2 0x3737 JUMP JUMPDEST PUSH2 0x1635 DUP2 PUSH2 0x389A JUMP JUMPDEST PUSH0 PUSH1 0x35 DUP3 DUP2 SLOAD DUP2 LT PUSH2 0x164A JUMPI PUSH2 0x1649 PUSH2 0x523A JUMP JUMPDEST JUMPDEST SWAP1 PUSH0 MSTORE PUSH1 0x20 PUSH0 KECCAK256 SWAP1 PUSH1 0x9 MUL ADD SWAP1 POP DUP1 PUSH1 0x8 ADD PUSH1 0x1 SWAP1 SLOAD SWAP1 PUSH2 0x100 EXP SWAP1 DIV PUSH1 0xFF AND DUP1 PUSH2 0x1682 JUMPI POP DUP1 PUSH1 0x8 ADD PUSH0 SWAP1 SLOAD SWAP1 PUSH2 0x100 EXP SWAP1 DIV PUSH1 0xFF AND JUMPDEST ISZERO PUSH2 0x16B9 JUMPI PUSH1 0x40 MLOAD PUSH32 0xE48D68DF00000000000000000000000000000000000000000000000000000000 DUP2 MSTORE PUSH1 0x4 ADD PUSH1 0x40 MLOAD DUP1 SWAP2 SUB SWAP1 REVERT JUMPDEST PUSH0 DUP2 PUSH1 0x7 ADD SLOAD SWAP1 POP PUSH0 DUP3 PUSH1 0x7 ADD DUP2 SWAP1 SSTORE POP PUSH0 DUP3 PUSH0 ADD PUSH0 SWAP1 SLOAD SWAP1 PUSH2 0x100 EXP SWAP1 DIV PUSH20 0xFFFFFFFFFFFFFFFFFFFFFFFFFFFFFFFFFFFFFFFF AND PUSH20 0xFFFFFFFFFFFFFFFFFFFFFFFFFFFFFFFFFFFFFFFF AND DUP3 PUSH1 0x40 MLOAD PUSH2 0x1711 SWAP1 PUSH2 0x52F0 JUMP JUMPDEST PUSH0 PUSH1 0x40 MLOAD DUP1 DUP4 SUB DUP2 DUP6 DUP8 GAS CALL SWAP3 POP POP POP RETURNDATASIZE DUP1 PUSH0 DUP2 EQ PUSH2 0x174B JUMPI PUSH1 0x40 MLOAD SWAP2 POP PUSH1 0x1F NOT PUSH1 0x3F RETURNDATASIZE ADD AND DUP3 ADD PUSH1 0x40 MSTORE RETURNDATASIZE DUP3 MSTORE RETURNDATASIZE PUSH0 PUSH1 0x20 DUP5 ADD RETURNDATACOPY PUSH2 0x1750 JUMP JUMPDEST PUSH1 0x60 SWAP2 POP JUMPDEST POP POP SWAP1 POP DUP1 PUSH2 0x1794 JUMPI PUSH1 0x40 MLOAD PUSH32 0x8C379A000000000000000000000000000000000000000000000000000000000 DUP2 MSTORE PUSH1 0x4 ADD PUSH2 0x178B SWAP1 PUSH2 0x534E JUMP JUMPDEST PUSH1 0x40 MLOAD DUP1 SWAP2 SUB SWAP1 REVERT JUMPDEST PUSH1 0x1 DUP4 PUSH1 0x8 ADD PUSH0 PUSH2 0x100 EXP DUP2 SLOAD DUP2 PUSH1 0xFF MUL NOT AND SWAP1 DUP4 ISZERO ISZERO MUL OR SWAP1 SSTORE POP DUP3 PUSH0 ADD PUSH0 SWAP1 SLOAD SWAP1 PUSH2 0x100 EXP SWAP1 DIV PUSH20 0xFFFFFFFFFFFFFFFFFFFFFFFFFFFFFFFFFFFFFFFF AND PUSH20 0xFFFFFFFFFFFFFFFFFFFFFFFFFFFFFFFFFFFFFFFF AND DUP5 PUSH32 0x4A14ED616CE90B51A0A9222C0E231E9CE03B6885730AFF30C76A5CCB7C5B8106 DUP5 PUSH0 PUSH0 PUSH1 0x40 MLOAD PUSH2 0x181D SWAP4 SWAP3 SWAP2 SWAP1 PUSH2 0x53A5 JUMP JUMPDEST PUSH1 0x40 MLOAD DUP1 SWAP2 SUB SWAP1 LOG3 POP POP POP PUSH2 0x1830 PUSH2 0x386B JUMP JUMPDEST POP JUMP JUMPDEST PUSH1 0x2 PUSH0 CALLER PUSH20 0xFFFFFFFFFFFFFFFFFFFFFFFFFFFFFFFFFFFFFFFF AND PUSH20 0xFFFFFFFFFFFFFFFFFFFFFFFFFFFFFFFFFFFFFFFF AND DUP2 MSTORE PUSH1 0x20 ADD SWAP1 DUP2 MSTORE PUSH1 0x20 ADD PUSH0 KECCAK256 PUSH1 0x40 MLOAD PUSH2 0x187C SWAP1 PUSH2 0x4D82 JUMP JUMPDEST SWAP1 DUP2 MSTORE PUSH1 0x20 ADD PUSH1 0x40 MLOAD DUP1 SWAP2 SUB SWAP1 KECCAK256 PUSH0 SWAP1 SLOAD SWAP1 PUSH2 0x100 EXP SWAP1 DIV PUSH1 0xFF AND PUSH2 0x18D6 JUMPI PUSH1 0x40 MLOAD PUSH32 0x8C379A000000000000000000000000000000000000000000000000000000000 DUP2 MSTORE PUSH1 0x4 ADD PUSH2 0x18CD SWAP1 PUSH2 0x4E16 JUMP JUMPDEST PUSH1 0x40 MLOAD DUP1 SWAP2 SUB SWAP1 REVERT JUMPDEST PUSH2 0x18DF CALLER PUSH2 0x3737 JUMP JUMPDEST PUSH2 0x18E8 DUP2 PUSH2 0x3737 JUMP JUMPDEST PUSH1 0x3A PUSH0 DUP3 PUSH20 0xFFFFFFFFFFFFFFFFFFFFFFFFFFFFFFFFFFFFFFFF AND PUSH20 0xFFFFFFFFFFFFFFFFFFFFFFFFFFFFFFFFFFFFFFFF AND DUP2 MSTORE PUSH1 0x20 ADD SWAP1 DUP2 MSTORE PUSH1 0x20 ADD PUSH0 KECCAK256 PUSH0 SWAP1 SLOAD SWAP1 PUSH2 0x100 EXP SWAP1 DIV PUSH1 0xFF AND PUSH2 0x1973 JUMPI DUP1 PUSH1 0x40 MLOAD PUSH32 0x7BE8837900000000000000000000000000000000000000000000000000000000 DUP2 MSTORE PUSH1 0x4 ADD PUSH2 0x196A SWAP2 SWAP1 PUSH2 0x53DA JUMP JUMPDEST PUSH1 0x40 MLOAD DUP1 SWAP2 SUB SWAP1 REVERT JUMPDEST PUSH0 PUSH1 0x3A PUSH0 DUP4 PUSH20 0xFFFFFFFFFFFFFFFFFFFFFFFFFFFFFFFFFFFFFFFF AND PUSH20 0xFFFFFFFFFFFFFFFFFFFFFFFFFFFFFFFFFFFFFFFF AND DUP2 MSTORE PUSH1 0x20 ADD SWAP1 DUP2 MSTORE PUSH1 0x20 ADD PUSH0 KECCAK256 PUSH0 PUSH2 0x100 EXP DUP2 SLOAD DUP2 PUSH1 0xFF MUL NOT AND SWAP1 DUP4 ISZERO ISZERO MUL OR SWAP1 SSTORE POP DUP1 PUSH20 0xFFFFFFFFFFFFFFFFFFFFFFFFFFFFFFFFFFFFFFFF AND PUSH32 0x117E3210BB9AA7D9BAFF172026820255C6F6C30BA8999D1C2FD88E2848137C4E PUSH1 0x40 MLOAD PUSH1 0x40 MLOAD DUP1 SWAP2 SUB SWAP1 LOG2 POP JUMP JUMPDEST PUSH1 0x3B PUSH1 0x20 MSTORE DUP1 PUSH0 MSTORE PUSH1 0x40 PUSH0 KECCAK256 PUSH0 SWAP2 POP SWAP1 POP SLOAD DUP2 JUMP JUMPDEST PUSH1 0x2 PUSH0 CALLER PUSH20 0xFFFFFFFFFFFFFFFFFFFFFFFFFFFFFFFFFFFFFFFF AND PUSH20 0xFFFFFFFFFFFFFFFFFFFFFFFFFFFFFFFFFFFFFFFF AND DUP2 MSTORE PUSH1 0x20 ADD SWAP1 DUP2 MSTORE PUSH1 0x20 ADD PUSH0 KECCAK256 PUSH1 0x40 MLOAD PUSH2 0x1A6B SWAP1 PUSH2 0x4D82 JUMP JUMPDEST SWAP1 DUP2 MSTORE PUSH1 0x20 ADD PUSH1 0x40 MLOAD DUP1 SWAP2 SUB SWAP1 KECCAK256 PUSH0 SWAP1 SLOAD SWAP1 PUSH2 0x100 EXP SWAP1 DIV PUSH1 0xFF AND PUSH2 0x1AC5 JUMPI PUSH1 0x40 MLOAD PUSH32 0x8C379A000000000000000000000000000000000000000000000000000000000 DUP2 MSTORE PUSH1 0x4 ADD PUSH2 0x1ABC SWAP1 PUSH2 0x4E16 JUMP JUMPDEST PUSH1 0x40 MLOAD DUP1 SWAP2 SUB SWAP1 REVERT JUMPDEST PUSH2 0x1ACE CALLER PUSH2 0x3737 JUMP JUMPDEST PUSH2 0x1BBC PUSH1 0x39 PUSH0 SWAP1 SLOAD SWAP1 PUSH2 0x100 EXP SWAP1 DIV PUSH20 0xFFFFFFFFFFFFFFFFFFFFFFFFFFFFFFFFFFFFFFFF AND DUP3 PUSH1 0x40 MLOAD PUSH1 0x24 ADD PUSH2 0x1B04 SWAP2 SWAP1 PUSH2 0x5402 JUMP JUMPDEST PUSH1 0x40 MLOAD PUSH1 0x20 DUP2 DUP4 SUB SUB DUP2 MSTORE SWAP1 PUSH1 0x40 MSTORE PUSH32 0xB94BED000000000000000000000000000000000000000000000000000000000 PUSH28 0xFFFFFFFFFFFFFFFFFFFFFFFFFFFFFFFFFFFFFFFFFFFFFFFFFFFFFFFF NOT AND PUSH1 0x20 DUP3 ADD DUP1 MLOAD PUSH28 0xFFFFFFFFFFFFFFFFFFFFFFFFFFFFFFFFFFFFFFFFFFFFFFFFFFFFFFFF DUP4 DUP2 DUP4 AND OR DUP4 MSTORE POP POP POP POP PUSH1 0x40 MLOAD DUP1 PUSH1 0x40 ADD PUSH1 0x40 MSTORE DUP1 PUSH1 0x10 DUP2 MSTORE PUSH1 0x20 ADD PUSH32 0x4D616E6167656D656E7457616C6C657400000000000000000000000000000000 DUP2 MSTORE POP PUSH2 0x37A8 JUMP JUMPDEST POP JUMP JUMPDEST PUSH0 PUSH0 PUSH0 PUSH0 PUSH0 PUSH0 PUSH0 PUSH0 PUSH0 PUSH0 PUSH1 0x2 PUSH0 CALLER PUSH20 0xFFFFFFFFFFFFFFFFFFFFFFFFFFFFFFFFFFFFFFFF AND PUSH20 0xFFFFFFFFFFFFFFFFFFFFFFFFFFFFFFFFFFFFFFFF AND DUP2 MSTORE PUSH1 0x20 ADD SWAP1 DUP2 MSTORE PUSH1 0x20 ADD PUSH0 KECCAK256 PUSH1 0x40 MLOAD PUSH2 0x1C12 SWAP1 PUSH2 0x4D82 JUMP JUMPDEST SWAP1 DUP2 MSTORE PUSH1 0x20 ADD PUSH1 0x40 MLOAD DUP1 SWAP2 SUB SWAP1 KECCAK256 PUSH0 SWAP1 SLOAD SWAP1 PUSH2 0x100 EXP SWAP1 DIV PUSH1 0xFF AND PUSH2 0x1C6C JUMPI PUSH1 0x40 MLOAD PUSH32 0x8C379A000000000000000000000000000000000000000000000000000000000 DUP2 MSTORE PUSH1 0x4 ADD PUSH2 0x1C63 SWAP1 PUSH2 0x4E16 JUMP JUMPDEST PUSH1 0x40 MLOAD DUP1 SWAP2 SUB SWAP1 REVERT JUMPDEST PUSH2 0x1C75 CALLER PUSH2 0x3737 JUMP JUMPDEST PUSH2 0x1C7E DUP12 PUSH2 0x389A JUMP JUMPDEST PUSH0 PUSH1 0x35 DUP13 DUP2 SLOAD DUP2 LT PUSH2 0x1C93 JUMPI PUSH2 0x1C92 PUSH2 0x523A JUMP JUMPDEST JUMPDEST SWAP1 PUSH0 MSTORE PUSH1 0x20 PUSH0 KECCAK256 SWAP1 PUSH1 0x9 MUL ADD SWAP1 POP DUP1 PUSH0 ADD PUSH0 SWAP1 SLOAD SWAP1 PUSH2 0x100 EXP SWAP1 DIV PUSH20 0xFFFFFFFFFFFFFFFFFFFFFFFFFFFFFFFFFFFFFFFF AND DUP2 PUSH1 0x1 ADD SLOAD DUP3 PUSH1 0x2 ADD SLOAD DUP4 PUSH1 0x3 ADD SLOAD DUP5 PUSH1 0x4 ADD SLOAD DUP6 PUSH1 0x5 ADD SLOAD DUP7 PUSH1 0x6 ADD SLOAD DUP8 PUSH1 0x7 ADD SLOAD DUP9 PUSH1 0x8 ADD PUSH0 SWAP1 SLOAD SWAP1 PUSH2 0x100 EXP SWAP1 DIV PUSH1 0xFF AND DUP10 PUSH1 0x8 ADD PUSH1 0x1 SWAP1 SLOAD SWAP1 PUSH2 0x100 EXP SWAP1 DIV PUSH1 0xFF AND SWAP11 POP SWAP11 POP SWAP11 POP SWAP11 POP SWAP11 POP SWAP11 POP SWAP11 POP SWAP11 POP SWAP11 POP SWAP11 POP POP SWAP2 SWAP4 SWAP6 SWAP8 SWAP10 POP SWAP2 SWAP4 SWAP6 SWAP8 SWAP10 JUMP JUMPDEST PUSH1 0x1 SLOAD DUP2 JUMP JUMPDEST PUSH1 0x2 PUSH0 CALLER PUSH20 0xFFFFFFFFFFFFFFFFFFFFFFFFFFFFFFFFFFFFFFFF AND PUSH20 0xFFFFFFFFFFFFFFFFFFFFFFFFFFFFFFFFFFFFFFFF AND DUP2 MSTORE PUSH1 0x20 ADD SWAP1 DUP2 MSTORE PUSH1 0x20 ADD PUSH0 KECCAK256 PUSH1 0x40 MLOAD PUSH2 0x1D7B SWAP1 PUSH2 0x4D82 JUMP JUMPDEST SWAP1 DUP2 MSTORE PUSH1 0x20 ADD PUSH1 0x40 MLOAD DUP1 SWAP2 SUB SWAP1 KECCAK256 PUSH0 SWAP1 SLOAD SWAP1 PUSH2 0x100 EXP SWAP1 DIV PUSH1 0xFF AND PUSH2 0x1DD5 JUMPI PUSH1 0x40 MLOAD PUSH32 0x8C379A000000000000000000000000000000000000000000000000000000000 DUP2 MSTORE PUSH1 0x4 ADD PUSH2 0x1DCC SWAP1 PUSH2 0x4E16 JUMP JUMPDEST PUSH1 0x40 MLOAD DUP1 SWAP2 SUB SWAP1 REVERT JUMPDEST PUSH2 0x1DDE CALLER PUSH2 0x3737 JUMP JUMPDEST PUSH2 0x1ECC PUSH1 0x39 PUSH0 SWAP1 SLOAD SWAP1 PUSH2 0x100 EXP SWAP1 DIV PUSH20 0xFFFFFFFFFFFFFFFFFFFFFFFFFFFFFFFFFFFFFFFF AND DUP3 PUSH1 0x40 MLOAD PUSH1 0x24 ADD PUSH2 0x1E14 SWAP2 SWAP1 PUSH2 0x48E7 JUMP JUMPDEST PUSH1 0x40 MLOAD PUSH1 0x20 DUP2 DUP4 SUB SUB DUP2 MSTORE SWAP1 PUSH1 0x40 MSTORE PUSH32 0x55A19DAC00000000000000000000000000000000000000000000000000000000 PUSH28 0xFFFFFFFFFFFFFFFFFFFFFFFFFFFFFFFFFFFFFFFFFFFFFFFFFFFFFFFF NOT AND PUSH1 0x20 DUP3 ADD DUP1 MLOAD PUSH28 0xFFFFFFFFFFFFFFFFFFFFFFFFFFFFFFFFFFFFFFFFFFFFFFFFFFFFFFFF DUP4 DUP2 DUP4 AND OR DUP4 MSTORE POP POP POP POP PUSH1 0x40 MLOAD DUP1 PUSH1 0x40 ADD PUSH1 0x40 MSTORE DUP1 PUSH1 0x16 DUP2 MSTORE PUSH1 0x20 ADD PUSH32 0x436F6C6C61746572616C526174696F50657263656E7400000000000000000000 DUP2 MSTORE POP PUSH2 0x37A8 JUMP JUMPDEST POP JUMP JUMPDEST PUSH0 PUSH0 SWAP1 SLOAD SWAP1 PUSH2 0x100 EXP SWAP1 DIV PUSH20 0xFFFFFFFFFFFFFFFFFFFFFFFFFFFFFFFFFFFFFFFF AND PUSH20 0xFFFFFFFFFFFFFFFFFFFFFFFFFFFFFFFFFFFFFFFF AND CALLER PUSH20 0xFFFFFFFFFFFFFFFFFFFFFFFFFFFFFFFFFFFFFFFF AND EQ PUSH2 0x1F5D JUMPI PUSH1 0x40 MLOAD PUSH32 0x8C379A000000000000000000000000000000000000000000000000000000000 DUP2 MSTORE PUSH1 0x4 ADD PUSH2 0x1F54 SWAP1 PUSH2 0x4F12 JUMP JUMPDEST PUSH1 0x40 MLOAD DUP1 SWAP2 SUB SWAP1 REVERT JUMPDEST PUSH1 0x40 MLOAD DUP1 PUSH1 0x40 ADD PUSH1 0x40 MSTORE DUP1 PUSH1 0x7 DUP2 MSTORE PUSH1 0x20 ADD PUSH32 0x456D706C6F796500000000000000000000000000000000000000000000000000 DUP2 MSTORE POP DUP1 MLOAD SWAP1 PUSH1 0x20 ADD KECCAK256 DUP3 DUP3 PUSH1 0x40 MLOAD PUSH2 0x1FAA SWAP3 SWAP2 SWAP1 PUSH2 0x4F5E JUMP JUMPDEST PUSH1 0x40 MLOAD DUP1 SWAP2 SUB SWAP1 KECCAK256 EQ PUSH2 0x1FF2 JUMPI PUSH1 0x40 MLOAD PUSH32 0x8C379A000000000000000000000000000000000000000000000000000000000 DUP2 MSTORE PUSH1 0x4 ADD PUSH2 0x1FE9 SWAP1 PUSH2 0x4FC0 JUMP JUMPDEST PUSH1 0x40 MLOAD DUP1 SWAP2 SUB SWAP1 REVERT JUMPDEST PUSH0 PUSH20 0xFFFFFFFFFFFFFFFFFFFFFFFFFFFFFFFFFFFFFFFF AND DUP4 PUSH20 0xFFFFFFFFFFFFFFFFFFFFFFFFFFFFFFFFFFFFFFFF AND SUB PUSH2 0x2060 JUMPI PUSH1 0x40 MLOAD PUSH32 0x8C379A000000000000000000000000000000000000000000000000000000000 DUP2 MSTORE PUSH1 0x4 ADD PUSH2 0x2057 SWAP1 PUSH2 0x548B JUMP JUMPDEST PUSH1 0x40 MLOAD DUP1 SWAP2 SUB SWAP1 REVERT JUMPDEST PUSH1 0x2 PUSH0 DUP5 PUSH20 0xFFFFFFFFFFFFFFFFFFFFFFFFFFFFFFFFFFFFFFFF AND PUSH20 0xFFFFFFFFFFFFFFFFFFFFFFFFFFFFFFFFFFFFFFFF AND DUP2 MSTORE PUSH1 0x20 ADD SWAP1 DUP2 MSTORE PUSH1 0x20 ADD PUSH0 KECCAK256 DUP3 DUP3 PUSH1 0x40 MLOAD PUSH2 0x20AD SWAP3 SWAP2 SWAP1 PUSH2 0x4D20 JUMP JUMPDEST SWAP1 DUP2 MSTORE PUSH1 0x20 ADD PUSH1 0x40 MLOAD DUP1 SWAP2 SUB SWAP1 KECCAK256 PUSH0 SWAP1 SLOAD SWAP1 PUSH2 0x100 EXP SWAP1 DIV PUSH1 0xFF AND ISZERO PUSH2 0x2108 JUMPI PUSH1 0x40 MLOAD PUSH32 0x8C379A000000000000000000000000000000000000000000000000000000000 DUP2 MSTORE PUSH1 0x4 ADD PUSH2 0x20FF SWAP1 PUSH2 0x5519 JUMP JUMPDEST PUSH1 0x40 MLOAD DUP1 SWAP2 SUB SWAP1 REVERT JUMPDEST PUSH1 0x1 PUSH1 0x2 PUSH0 DUP6 PUSH20 0xFFFFFFFFFFFFFFFFFFFFFFFFFFFFFFFFFFFFFFFF AND PUSH20 0xFFFFFFFFFFFFFFFFFFFFFFFFFFFFFFFFFFFFFFFF AND DUP2 MSTORE PUSH1 0x20 ADD SWAP1 DUP2 MSTORE PUSH1 0x20 ADD PUSH0 KECCAK256 DUP4 DUP4 PUSH1 0x40 MLOAD PUSH2 0x2157 SWAP3 SWAP2 SWAP1 PUSH2 0x4D20 JUMP JUMPDEST SWAP1 DUP2 MSTORE PUSH1 0x20 ADD PUSH1 0x40 MLOAD DUP1 SWAP2 SUB SWAP1 KECCAK256 PUSH0 PUSH2 0x100 EXP DUP2 SLOAD DUP2 PUSH1 0xFF MUL NOT AND SWAP1 DUP4 ISZERO ISZERO MUL OR SWAP1 SSTORE POP PUSH1 0x1 PUSH0 DUP2 SLOAD DUP1 SWAP3 SWAP2 SWAP1 PUSH2 0x218D SWAP1 PUSH2 0x5537 JUMP JUMPDEST SWAP2 SWAP1 POP SSTORE POP DUP3 PUSH20 0xFFFFFFFFFFFFFFFFFFFFFFFFFFFFFFFFFFFFFFFF AND PUSH32 0x88567665D11BB1CA04896B9D3C620779F90A9F00F12488F6050A74EB11C2BE5 DUP4 DUP4 PUSH1 0x40 MLOAD PUSH2 0x21DA SWAP3 SWAP2 SWAP1 PUSH2 0x50FC JUMP JUMPDEST PUSH1 0x40 MLOAD DUP1 SWAP2 SUB SWAP1 LOG2 POP POP POP JUMP JUMPDEST PUSH0 PUSH0 SWAP1 SLOAD SWAP1 PUSH2 0x100 EXP SWAP1 DIV PUSH20 0xFFFFFFFFFFFFFFFFFFFFFFFFFFFFFFFFFFFFFFFF AND PUSH20 0xFFFFFFFFFFFFFFFFFFFFFFFFFFFFFFFFFFFFFFFF AND CALLER PUSH20 0xFFFFFFFFFFFFFFFFFFFFFFFFFFFFFFFFFFFFFFFF AND EQ PUSH2 0x2275 JUMPI PUSH1 0x40 MLOAD PUSH32 0x8C379A000000000000000000000000000000000000000000000000000000000 DUP2 MSTORE PUSH1 0x4 ADD PUSH2 0x226C SWAP1 PUSH2 0x4F12 JUMP JUMPDEST PUSH1 0x40 MLOAD DUP1 SWAP2 SUB SWAP1 REVERT JUMPDEST PUSH2 0x227E DUP2 PUSH2 0x3737 JUMP JUMPDEST PUSH2 0x2287 CALLER PUSH2 0x3737 JUMP JUMPDEST PUSH0 PUSH0 PUSH0 SWAP1 SLOAD SWAP1 PUSH2 0x100 EXP SWAP1 DIV PUSH20 0xFFFFFFFFFFFFFFFFFFFFFFFFFFFFFFFFFFFFFFFF AND SWAP1 POP DUP2 PUSH0 PUSH0 PUSH2 0x100 EXP DUP2 SLOAD DUP2 PUSH20 0xFFFFFFFFFFFFFFFFFFFFFFFFFFFFFFFFFFFFFFFF MUL NOT AND SWAP1 DUP4 PUSH20 0xFFFFFFFFFFFFFFFFFFFFFFFFFFFFFFFFFFFFFFFF AND MUL OR SWAP1 SSTORE POP DUP2 PUSH20 0xFFFFFFFFFFFFFFFFFFFFFFFFFFFFFFFFFFFFFFFF AND DUP2 PUSH20 0xFFFFFFFFFFFFFFFFFFFFFFFFFFFFFFFFFFFFFFFF AND PUSH32 0xB532073B38C83145E3E5135377A08BF9AAB55BC0FD7C1179CD4FB995D2A5159C PUSH1 0x40 MLOAD PUSH1 0x40 MLOAD DUP1 SWAP2 SUB SWAP1 LOG3 POP POP JUMP JUMPDEST PUSH1 0x2 PUSH0 CALLER PUSH20 0xFFFFFFFFFFFFFFFFFFFFFFFFFFFFFFFFFFFFFFFF AND PUSH20 0xFFFFFFFFFFFFFFFFFFFFFFFFFFFFFFFFFFFFFFFF AND DUP2 MSTORE PUSH1 0x20 ADD SWAP1 DUP2 MSTORE PUSH1 0x20 ADD PUSH0 KECCAK256 PUSH1 0x40 MLOAD PUSH2 0x2391 SWAP1 PUSH2 0x4D82 JUMP JUMPDEST SWAP1 DUP2 MSTORE PUSH1 0x20 ADD PUSH1 0x40 MLOAD DUP1 SWAP2 SUB SWAP1 KECCAK256 PUSH0 SWAP1 SLOAD SWAP1 PUSH2 0x100 EXP SWAP1 DIV PUSH1 0xFF AND ISZERO PUSH2 0x23EC JUMPI PUSH1 0x40 MLOAD PUSH32 0x8C379A000000000000000000000000000000000000000000000000000000000 DUP2 MSTORE PUSH1 0x4 ADD PUSH2 0x23E3 SWAP1 PUSH2 0x518E JUMP JUMPDEST PUSH1 0x40 MLOAD DUP1 SWAP2 SUB SWAP1 REVERT JUMPDEST PUSH0 PUSH0 SWAP1 SLOAD SWAP1 PUSH2 0x100 EXP SWAP1 DIV PUSH20 0xFFFFFFFFFFFFFFFFFFFFFFFFFFFFFFFFFFFFFFFF AND PUSH20 0xFFFFFFFFFFFFFFFFFFFFFFFFFFFFFFFFFFFFFFFF AND CALLER PUSH20 0xFFFFFFFFFFFFFFFFFFFFFFFFFFFFFFFFFFFFFFFF AND SUB PUSH2 0x247A JUMPI PUSH1 0x40 MLOAD PUSH32 0x8C379A000000000000000000000000000000000000000000000000000000000 DUP2 MSTORE PUSH1 0x4 ADD PUSH2 0x2471 SWAP1 PUSH2 0x521C JUMP JUMPDEST PUSH1 0x40 MLOAD DUP1 SWAP2 SUB SWAP1 REVERT JUMPDEST PUSH2 0x2483 CALLER PUSH2 0x3737 JUMP JUMPDEST PUSH1 0x3A PUSH0 CALLER PUSH20 0xFFFFFFFFFFFFFFFFFFFFFFFFFFFFFFFFFFFFFFFF AND PUSH20 0xFFFFFFFFFFFFFFFFFFFFFFFFFFFFFFFFFFFFFFFF AND DUP2 MSTORE PUSH1 0x20 ADD SWAP1 DUP2 MSTORE PUSH1 0x20 ADD PUSH0 KECCAK256 PUSH0 SWAP1 SLOAD SWAP1 PUSH2 0x100 EXP SWAP1 DIV PUSH1 0xFF AND ISZERO PUSH2 0x250F JUMPI CALLER PUSH1 0x40 MLOAD PUSH32 0xFFA4E61800000000000000000000000000000000000000000000000000000000 DUP2 MSTORE PUSH1 0x4 ADD PUSH2 0x2506 SWAP2 SWAP1 PUSH2 0x53DA JUMP JUMPDEST PUSH1 0x40 MLOAD DUP1 SWAP2 SUB SWAP1 REVERT JUMPDEST PUSH0 DUP3 SUB PUSH2 0x2548 JUMPI PUSH1 0x40 MLOAD PUSH32 0xDFEE2C0B00000000000000000000000000000000000000000000000000000000 DUP2 MSTORE PUSH1 0x4 ADD PUSH1 0x40 MLOAD DUP1 SWAP2 SUB SWAP1 REVERT JUMPDEST PUSH1 0x1 DUP2 LT ISZERO PUSH2 0x2583 JUMPI PUSH1 0x40 MLOAD PUSH32 0x7616640100000000000000000000000000000000000000000000000000000000 DUP2 MSTORE PUSH1 0x4 ADD PUSH1 0x40 MLOAD DUP1 SWAP2 SUB SWAP1 REVERT JUMPDEST PUSH2 0x258B PUSH2 0x467F JUMP JUMPDEST PUSH2 0x25C1 JUMPI PUSH1 0x40 MLOAD PUSH32 0x373C24600000000000000000000000000000000000000000000000000000000 DUP2 MSTORE PUSH1 0x4 ADD PUSH1 0x40 MLOAD DUP1 SWAP2 SUB SWAP1 REVERT JUMPDEST PUSH0 PUSH8 0xDE0B6B3A7640000 DUP4 PUSH2 0x25D6 SWAP2 SWAP1 PUSH2 0x557E JUMP JUMPDEST SWAP1 POP PUSH0 PUSH1 0x64 PUSH1 0x36 PUSH1 0x4 SWAP1 SLOAD SWAP1 PUSH2 0x100 EXP SWAP1 DIV PUSH2 0xFFFF AND PUSH2 0xFFFF AND DUP4 PUSH2 0x25FB SWAP2 SWAP1 PUSH2 0x557E JUMP JUMPDEST PUSH2 0x2605 SWAP2 SWAP1 PUSH2 0x55EC JUMP JUMPDEST SWAP1 POP DUP1 CALLVALUE LT ISZERO PUSH2 0x264E JUMPI DUP1 CALLVALUE PUSH1 0x40 MLOAD PUSH32 0xB07E3BC400000000000000000000000000000000000000000000000000000000 DUP2 MSTORE PUSH1 0x4 ADD PUSH2 0x2645 SWAP3 SWAP2 SWAP1 PUSH2 0x561C JUMP JUMPDEST PUSH1 0x40 MLOAD DUP1 SWAP2 SUB SWAP1 REVERT JUMPDEST PUSH0 PUSH1 0x40 MLOAD DUP1 PUSH2 0x140 ADD PUSH1 0x40 MSTORE DUP1 CALLER PUSH20 0xFFFFFFFFFFFFFFFFFFFFFFFFFFFFFFFFFFFFFFFF AND DUP2 MSTORE PUSH1 0x20 ADD DUP5 DUP2 MSTORE PUSH1 0x20 ADD DUP6 DUP2 MSTORE PUSH1 0x20 ADD PUSH0 DUP2 MSTORE PUSH1 0x20 ADD PUSH0 DUP2 MSTORE PUSH1 0x20 ADD PUSH0 DUP2 MSTORE PUSH1 0x20 ADD DUP5 DUP2 MSTORE PUSH1 0x20 ADD CALLVALUE DUP2 MSTORE PUSH1 0x20 ADD PUSH0 ISZERO ISZERO DUP2 MSTORE PUSH1 0x20 ADD PUSH0 ISZERO ISZERO DUP2 MSTORE POP SWAP1 POP PUSH1 0x35 DUP2 SWAP1 DUP1 PUSH1 0x1 DUP2 SLOAD ADD DUP1 DUP3 SSTORE DUP1 SWAP2 POP POP PUSH1 0x1 SWAP1 SUB SWAP1 PUSH0 MSTORE PUSH1 0x20 PUSH0 KECCAK256 SWAP1 PUSH1 0x9 MUL ADD PUSH0 SWAP1 SWAP2 SWAP1 SWAP2 SWAP1 SWAP2 POP PUSH0 DUP3 ADD MLOAD DUP2 PUSH0 ADD PUSH0 PUSH2 0x100 EXP DUP2 SLOAD DUP2 PUSH20 0xFFFFFFFFFFFFFFFFFFFFFFFFFFFFFFFFFFFFFFFF MUL NOT AND SWAP1 DUP4 PUSH20 0xFFFFFFFFFFFFFFFFFFFFFFFFFFFFFFFFFFFFFFFF AND MUL OR SWAP1 SSTORE POP PUSH1 0x20 DUP3 ADD MLOAD DUP2 PUSH1 0x1 ADD SSTORE PUSH1 0x40 DUP3 ADD MLOAD DUP2 PUSH1 0x2 ADD SSTORE PUSH1 0x60 DUP3 ADD MLOAD DUP2 PUSH1 0x3 ADD SSTORE PUSH1 0x80 DUP3 ADD MLOAD DUP2 PUSH1 0x4 ADD SSTORE PUSH1 0xA0 DUP3 ADD MLOAD DUP2 PUSH1 0x5 ADD SSTORE PUSH1 0xC0 DUP3 ADD MLOAD DUP2 PUSH1 0x6 ADD SSTORE PUSH1 0xE0 DUP3 ADD MLOAD DUP2 PUSH1 0x7 ADD SSTORE PUSH2 0x100 DUP3 ADD MLOAD DUP2 PUSH1 0x8 ADD PUSH0 PUSH2 0x100 EXP DUP2 SLOAD DUP2 PUSH1 0xFF MUL NOT AND SWAP1 DUP4 ISZERO ISZERO MUL OR SWAP1 SSTORE POP PUSH2 0x120 DUP3 ADD MLOAD DUP2 PUSH1 0x8 ADD PUSH1 0x1 PUSH2 0x100 EXP DUP2 SLOAD DUP2 PUSH1 0xFF MUL NOT AND SWAP1 DUP4 ISZERO ISZERO MUL OR SWAP1 SSTORE POP POP POP PUSH0 PUSH1 0x1 PUSH1 0x35 DUP1 SLOAD SWAP1 POP PUSH2 0x27BA SWAP2 SWAP1 PUSH2 0x5267 JUMP JUMPDEST SWAP1 POP CALLER PUSH20 0xFFFFFFFFFFFFFFFFFFFFFFFFFFFFFFFFFFFFFFFF AND DUP2 PUSH32 0xF6CC19E46A340AB5888D736BFC79AEF72AE92D12D7B76319D72B0ABC170868E6 DUP7 DUP9 CALLVALUE PUSH1 0x40 MLOAD PUSH2 0x2807 SWAP4 SWAP3 SWAP2 SWAP1 PUSH2 0x5643 JUMP JUMPDEST PUSH1 0x40 MLOAD DUP1 SWAP2 SUB SWAP1 LOG3 POP POP POP POP POP POP JUMP JUMPDEST PUSH1 0x2 PUSH0 CALLER PUSH20 0xFFFFFFFFFFFFFFFFFFFFFFFFFFFFFFFFFFFFFFFF AND PUSH20 0xFFFFFFFFFFFFFFFFFFFFFFFFFFFFFFFFFFFFFFFF AND DUP2 MSTORE PUSH1 0x20 ADD SWAP1 DUP2 MSTORE PUSH1 0x20 ADD PUSH0 KECCAK256 PUSH1 0x40 MLOAD PUSH2 0x2860 SWAP1 PUSH2 0x4D82 JUMP JUMPDEST SWAP1 DUP2 MSTORE PUSH1 0x20 ADD PUSH1 0x40 MLOAD DUP1 SWAP2 SUB SWAP1 KECCAK256 PUSH0 SWAP1 SLOAD SWAP1 PUSH2 0x100 EXP SWAP1 DIV PUSH1 0xFF AND PUSH2 0x28BA JUMPI PUSH1 0x40 MLOAD PUSH32 0x8C379A000000000000000000000000000000000000000000000000000000000 DUP2 MSTORE PUSH1 0x4 ADD PUSH2 0x28B1 SWAP1 PUSH2 0x4E16 JUMP JUMPDEST PUSH1 0x40 MLOAD DUP1 SWAP2 SUB SWAP1 REVERT JUMPDEST PUSH2 0x28C2 PUSH2 0x36E8 JUMP JUMPDEST PUSH2 0x28CB CALLER PUSH2 0x3737 JUMP JUMPDEST PUSH2 0x28D4 DUP2 PUSH2 0x389A JUMP JUMPDEST PUSH0 PUSH1 0x35 DUP3 DUP2 SLOAD DUP2 LT PUSH2 0x28E9 JUMPI PUSH2 0x28E8 PUSH2 0x523A JUMP JUMPDEST JUMPDEST SWAP1 PUSH0 MSTORE PUSH1 0x20 PUSH0 KECCAK256 SWAP1 PUSH1 0x9 MUL ADD SWAP1 POP DUP1 PUSH1 0x8 ADD PUSH0 SWAP1 SLOAD SWAP1 PUSH2 0x100 EXP SWAP1 DIV PUSH1 0xFF AND ISZERO PUSH2 0x293F JUMPI PUSH1 0x40 MLOAD PUSH32 0xE48D68DF00000000000000000000000000000000000000000000000000000000 DUP2 MSTORE PUSH1 0x4 ADD PUSH1 0x40 MLOAD DUP1 SWAP2 SUB SWAP1 REVERT JUMPDEST DUP1 PUSH1 0x8 ADD PUSH1 0x1 SWAP1 SLOAD SWAP1 PUSH2 0x100 EXP SWAP1 DIV PUSH1 0xFF AND ISZERO PUSH2 0x2988 JUMPI PUSH1 0x40 MLOAD PUSH32 0xE48D68DF00000000000000000000000000000000000000000000000000000000 DUP2 MSTORE PUSH1 0x4 ADD PUSH1 0x40 MLOAD DUP1 SWAP2 SUB SWAP1 REVERT JUMPDEST DUP1 PUSH1 0x1 ADD SLOAD SELFBALANCE LT ISZERO PUSH2 0x29D7 JUMPI DUP1 PUSH1 0x1 ADD SLOAD SELFBALANCE PUSH1 0x40 MLOAD PUSH32 0xEE8D174600000000000000000000000000000000000000000000000000000000 DUP2 MSTORE PUSH1 0x4 ADD PUSH2 0x29CE SWAP3 SWAP2 SWAP1 PUSH2 0x561C JUMP JUMPDEST PUSH1 0x40 MLOAD DUP1 SWAP2 SUB SWAP1 REVERT JUMPDEST PUSH2 0x29DF PUSH2 0x38E6 JUMP JUMPDEST DUP2 PUSH1 0x3 ADD DUP2 SWAP1 SSTORE POP PUSH1 0x1 DUP2 PUSH1 0x8 ADD PUSH1 0x1 PUSH2 0x100 EXP DUP2 SLOAD DUP2 PUSH1 0xFF MUL NOT AND SWAP1 DUP4 ISZERO ISZERO MUL OR SWAP1 SSTORE POP PUSH0 DUP2 PUSH0 ADD PUSH0 SWAP1 SLOAD SWAP1 PUSH2 0x100 EXP SWAP1 DIV PUSH20 0xFFFFFFFFFFFFFFFFFFFFFFFFFFFFFFFFFFFFFFFF AND PUSH20 0xFFFFFFFFFFFFFFFFFFFFFFFFFFFFFFFFFFFFFFFF AND DUP3 PUSH1 0x1 ADD SLOAD PUSH1 0x40 MLOAD PUSH2 0x2A4F SWAP1 PUSH2 0x52F0 JUMP JUMPDEST PUSH0 PUSH1 0x40 MLOAD DUP1 DUP4 SUB DUP2 DUP6 DUP8 GAS CALL SWAP3 POP POP POP RETURNDATASIZE DUP1 PUSH0 DUP2 EQ PUSH2 0x2A89 JUMPI PUSH1 0x40 MLOAD SWAP2 POP PUSH1 0x1F NOT PUSH1 0x3F RETURNDATASIZE ADD AND DUP3 ADD PUSH1 0x40 MSTORE RETURNDATASIZE DUP3 MSTORE RETURNDATASIZE PUSH0 PUSH1 0x20 DUP5 ADD RETURNDATACOPY PUSH2 0x2A8E JUMP JUMPDEST PUSH1 0x60 SWAP2 POP JUMPDEST POP POP SWAP1 POP DUP1 PUSH2 0x2AD2 JUMPI PUSH1 0x40 MLOAD PUSH32 0x8C379A000000000000000000000000000000000000000000000000000000000 DUP2 MSTORE PUSH1 0x4 ADD PUSH2 0x2AC9 SWAP1 PUSH2 0x56C2 JUMP JUMPDEST PUSH1 0x40 MLOAD DUP1 SWAP2 SUB SWAP1 REVERT JUMPDEST DUP2 PUSH0 ADD PUSH0 SWAP1 SLOAD SWAP1 PUSH2 0x100 EXP SWAP1 DIV PUSH20 0xFFFFFFFFFFFFFFFFFFFFFFFFFFFFFFFFFFFFFFFF AND PUSH20 0xFFFFFFFFFFFFFFFFFFFFFFFFFFFFFFFFFFFFFFFF AND DUP4 PUSH32 0x2B993938BAA27C88E77A207903D275C96FA30AE5949A3EA5CD56E466E4F5C891 DUP5 PUSH1 0x3 ADD SLOAD PUSH1 0x40 MLOAD PUSH2 0x2B3F SWAP2 SWAP1 PUSH2 0x4AC0 JUMP JUMPDEST PUSH1 0x40 MLOAD DUP1 SWAP2 SUB SWAP1 LOG3 DUP2 PUSH0 ADD PUSH0 SWAP1 SLOAD SWAP1 PUSH2 0x100 EXP SWAP1 DIV PUSH20 0xFFFFFFFFFFFFFFFFFFFFFFFFFFFFFFFFFFFFFFFF AND PUSH20 0xFFFFFFFFFFFFFFFFFFFFFFFFFFFFFFFFFFFFFFFF AND DUP4 PUSH32 0xCEEB4503A2FE0B51298A0AF21358F3D89E7EAB3F65AE2A7835859C3E2C51604 DUP5 PUSH1 0x1 ADD SLOAD PUSH1 0x40 MLOAD PUSH2 0x2BB4 SWAP2 SWAP1 PUSH2 0x4AC0 JUMP JUMPDEST PUSH1 0x40 MLOAD DUP1 SWAP2 SUB SWAP1 LOG3 POP POP PUSH2 0x2BC6 PUSH2 0x386B JUMP JUMPDEST POP JUMP JUMPDEST PUSH1 0x37 SLOAD DUP2 JUMP JUMPDEST PUSH1 0x36 PUSH1 0x4 SWAP1 SLOAD SWAP1 PUSH2 0x100 EXP SWAP1 DIV PUSH2 0xFFFF AND DUP2 JUMP JUMPDEST PUSH1 0x36 PUSH1 0x6 SWAP1 SLOAD SWAP1 PUSH2 0x100 EXP SWAP1 DIV PUSH2 0xFFFF AND DUP2 JUMP JUMPDEST PUSH1 0x35 DUP2 DUP2 SLOAD DUP2 LT PUSH2 0x2C06 JUMPI PUSH0 DUP1 REVERT JUMPDEST SWAP1 PUSH0 MSTORE PUSH1 0x20 PUSH0 KECCAK256 SWAP1 PUSH1 0x9 MUL ADD PUSH0 SWAP2 POP SWAP1 POP DUP1 PUSH0 ADD PUSH0 SWAP1 SLOAD SWAP1 PUSH2 0x100 EXP SWAP1 DIV PUSH20 0xFFFFFFFFFFFFFFFFFFFFFFFFFFFFFFFFFFFFFFFF AND SWAP1 DUP1 PUSH1 0x1 ADD SLOAD SWAP1 DUP1 PUSH1 0x2 ADD SLOAD SWAP1 DUP1 PUSH1 0x3 ADD SLOAD SWAP1 DUP1 PUSH1 0x4 ADD SLOAD SWAP1 DUP1 PUSH1 0x5 ADD SLOAD SWAP1 DUP1 PUSH1 0x6 ADD SLOAD SWAP1 DUP1 PUSH1 0x7 ADD SLOAD SWAP1 DUP1 PUSH1 0x8 ADD PUSH0 SWAP1 SLOAD SWAP1 PUSH2 0x100 EXP SWAP1 DIV PUSH1 0xFF AND SWAP1 DUP1 PUSH1 0x8 ADD PUSH1 0x1 SWAP1 SLOAD SWAP1 PUSH2 0x100 EXP SWAP1 DIV PUSH1 0xFF AND SWAP1 POP DUP11 JUMP JUMPDEST PUSH1 0x2 PUSH0 CALLER PUSH20 0xFFFFFFFFFFFFFFFFFFFFFFFFFFFFFFFFFFFFFFFF AND PUSH20 0xFFFFFFFFFFFFFFFFFFFFFFFFFFFFFFFFFFFFFFFF AND DUP2 MSTORE PUSH1 0x20 ADD SWAP1 DUP2 MSTORE PUSH1 0x20 ADD PUSH0 KECCAK256 PUSH1 0x40 MLOAD PUSH2 0x2CD7 SWAP1 PUSH2 0x4D82 JUMP JUMPDEST SWAP1 DUP2 MSTORE PUSH1 0x20 ADD PUSH1 0x40 MLOAD DUP1 SWAP2 SUB SWAP1 KECCAK256 PUSH0 SWAP1 SLOAD SWAP1 PUSH2 0x100 EXP SWAP1 DIV PUSH1 0xFF AND ISZERO PUSH2 0x2D32 JUMPI PUSH1 0x40 MLOAD PUSH32 0x8C379A000000000000000000000000000000000000000000000000000000000 DUP2 MSTORE PUSH1 0x4 ADD PUSH2 0x2D29 SWAP1 PUSH2 0x518E JUMP JUMPDEST PUSH1 0x40 MLOAD DUP1 SWAP2 SUB SWAP1 REVERT JUMPDEST PUSH0 PUSH0 SWAP1 SLOAD SWAP1 PUSH2 0x100 EXP SWAP1 DIV PUSH20 0xFFFFFFFFFFFFFFFFFFFFFFFFFFFFFFFFFFFFFFFF AND PUSH20 0xFFFFFFFFFFFFFFFFFFFFFFFFFFFFFFFFFFFFFFFF AND CALLER PUSH20 0xFFFFFFFFFFFFFFFFFFFFFFFFFFFFFFFFFFFFFFFF AND SUB PUSH2 0x2DC0 JUMPI PUSH1 0x40 MLOAD PUSH32 0x8C379A000000000000000000000000000000000000000000000000000000000 DUP2 MSTORE PUSH1 0x4 ADD PUSH2 0x2DB7 SWAP1 PUSH2 0x521C JUMP JUMPDEST PUSH1 0x40 MLOAD DUP1 SWAP2 SUB SWAP1 REVERT JUMPDEST PUSH2 0x2DC8 PUSH2 0x36E8 JUMP JUMPDEST PUSH2 0x2DD1 CALLER PUSH2 0x3737 JUMP JUMPDEST PUSH2 0x2DDA DUP3 PUSH2 0x389A JUMP JUMPDEST PUSH0 PUSH1 0x35 DUP4 DUP2 SLOAD DUP2 LT PUSH2 0x2DEF JUMPI PUSH2 0x2DEE PUSH2 0x523A JUMP JUMPDEST JUMPDEST SWAP1 PUSH0 MSTORE PUSH1 0x20 PUSH0 KECCAK256 SWAP1 PUSH1 0x9 MUL ADD SWAP1 POP DUP1 PUSH1 0x8 ADD PUSH1 0x1 SWAP1 SLOAD SWAP1 PUSH2 0x100 EXP SWAP1 DIV PUSH1 0xFF AND ISZERO DUP1 PUSH2 0x2E28 JUMPI POP DUP1 PUSH1 0x8 ADD PUSH0 SWAP1 SLOAD SWAP1 PUSH2 0x100 EXP SWAP1 DIV PUSH1 0xFF AND JUMPDEST ISZERO PUSH2 0x2E5F JUMPI PUSH1 0x40 MLOAD PUSH32 0xE48D68DF00000000000000000000000000000000000000000000000000000000 DUP2 MSTORE PUSH1 0x4 ADD PUSH1 0x40 MLOAD DUP1 SWAP2 SUB SWAP1 REVERT JUMPDEST DUP1 PUSH0 ADD PUSH0 SWAP1 SLOAD SWAP1 PUSH2 0x100 EXP SWAP1 DIV PUSH20 0xFFFFFFFFFFFFFFFFFFFFFFFFFFFFFFFFFFFFFFFF AND PUSH20 0xFFFFFFFFFFFFFFFFFFFFFFFFFFFFFFFFFFFFFFFF AND CALLER PUSH20 0xFFFFFFFFFFFFFFFFFFFFFFFFFFFFFFFFFFFFFFFF AND EQ PUSH2 0x2EE6 JUMPI PUSH1 0x40 MLOAD PUSH32 0xCB1E8F3800000000000000000000000000000000000000000000000000000000 DUP2 MSTORE PUSH1 0x4 ADD PUSH1 0x40 MLOAD DUP1 SWAP2 SUB SWAP1 REVERT JUMPDEST PUSH0 DUP3 SUB PUSH2 0x2F1F JUMPI PUSH1 0x40 MLOAD PUSH32 0x7616640100000000000000000000000000000000000000000000000000000000 DUP2 MSTORE PUSH1 0x4 ADD PUSH1 0x40 MLOAD DUP1 SWAP2 SUB SWAP1 REVERT JUMPDEST DUP1 PUSH1 0x2 ADD SLOAD DUP3 DUP3 PUSH1 0x4 ADD SLOAD PUSH2 0x2F34 SWAP2 SWAP1 PUSH2 0x529A JUMP JUMPDEST GT ISZERO PUSH2 0x2F6C JUMPI PUSH1 0x40 MLOAD PUSH32 0x7616640100000000000000000000000000000000000000000000000000000000 DUP2 MSTORE PUSH1 0x4 ADD PUSH1 0x40 MLOAD DUP1 SWAP2 SUB SWAP1 REVERT JUMPDEST PUSH0 PUSH2 0x2F82 DUP3 PUSH1 0x3 ADD SLOAD PUSH2 0x2F7D PUSH2 0x38E6 JUMP JUMPDEST PUSH2 0x38ED JUMP JUMPDEST SWAP1 POP DUP2 PUSH1 0x2 ADD SLOAD DUP3 PUSH1 0x4 ADD SLOAD LT PUSH2 0x2FC5 JUMPI PUSH1 0x40 MLOAD PUSH32 0x7616640100000000000000000000000000000000000000000000000000000000 DUP2 MSTORE PUSH1 0x4 ADD PUSH1 0x40 MLOAD DUP1 SWAP2 SUB SWAP1 REVERT JUMPDEST PUSH0 PUSH2 0x2FCF DUP6 PUSH2 0x46C8 JUMP JUMPDEST SWAP1 POP PUSH0 DUP4 PUSH1 0x4 ADD SLOAD SWAP1 POP PUSH0 DUP4 SWAP1 POP PUSH0 PUSH0 SWAP1 POP DUP3 DUP3 GT ISZERO PUSH2 0x3033 JUMPI PUSH0 DUP4 DUP4 PUSH2 0x2FF6 SWAP2 SWAP1 PUSH2 0x5267 JUMP JUMPDEST SWAP1 POP DUP1 PUSH1 0x64 PUSH1 0x36 PUSH1 0x2 SWAP1 SLOAD SWAP1 PUSH2 0x100 EXP SWAP1 DIV PUSH2 0xFFFF AND PUSH2 0xFFFF AND DUP8 PUSH2 0x301B SWAP2 SWAP1 PUSH2 0x557E JUMP JUMPDEST PUSH2 0x3025 SWAP2 SWAP1 PUSH2 0x55EC JUMP JUMPDEST PUSH2 0x302F SWAP2 SWAP1 PUSH2 0x557E JUMP JUMPDEST SWAP2 POP POP JUMPDEST PUSH0 DUP2 DUP6 PUSH2 0x3040 SWAP2 SWAP1 PUSH2 0x529A JUMP JUMPDEST SWAP1 POP PUSH1 0x1 DUP9 GT ISZERO PUSH2 0x3071 JUMPI PUSH1 0x1 DUP9 PUSH2 0x3058 SWAP2 SWAP1 PUSH2 0x5267 JUMP JUMPDEST DUP6 PUSH2 0x3063 SWAP2 SWAP1 PUSH2 0x557E JUMP JUMPDEST DUP2 PUSH2 0x306E SWAP2 SWAP1 PUSH2 0x529A JUMP JUMPDEST SWAP1 POP JUMPDEST DUP1 CALLVALUE EQ PUSH2 0x30B7 JUMPI DUP1 CALLVALUE PUSH1 0x40 MLOAD PUSH32 0xACD9F50A00000000000000000000000000000000000000000000000000000000 DUP2 MSTORE PUSH1 0x4 ADD PUSH2 0x30AE SWAP3 SWAP2 SWAP1 PUSH2 0x561C JUMP JUMPDEST PUSH1 0x40 MLOAD DUP1 SWAP2 SUB SWAP1 REVERT JUMPDEST PUSH0 PUSH0 SWAP1 POP JUMPDEST DUP9 DUP2 LT ISZERO PUSH2 0x31EA JUMPI PUSH0 PUSH0 DUP3 EQ PUSH2 0x30D2 JUMPI DUP7 PUSH2 0x30DF JUMP JUMPDEST DUP4 DUP8 PUSH2 0x30DE SWAP2 SWAP1 PUSH2 0x529A JUMP JUMPDEST JUMPDEST SWAP1 POP PUSH0 PUSH1 0x64 PUSH1 0x36 PUSH0 SWAP1 SLOAD SWAP1 PUSH2 0x100 EXP SWAP1 DIV PUSH2 0xFFFF AND PUSH2 0xFFFF AND DUP12 PUSH1 0x1 ADD SLOAD PUSH2 0x3107 SWAP2 SWAP1 PUSH2 0x557E JUMP JUMPDEST PUSH2 0x3111 SWAP2 SWAP1 PUSH2 0x55EC JUMP JUMPDEST SWAP1 POP PUSH0 DUP2 DUP10 PUSH2 0x3120 SWAP2 SWAP1 PUSH2 0x5267 JUMP JUMPDEST SWAP1 POP PUSH0 DUP5 SUB PUSH2 0x3151 JUMPI DUP6 DUP3 PUSH2 0x3135 SWAP2 SWAP1 PUSH2 0x529A JUMP JUMPDEST PUSH1 0x37 PUSH0 DUP3 DUP3 SLOAD PUSH2 0x3145 SWAP2 SWAP1 PUSH2 0x529A JUMP JUMPDEST SWAP3 POP POP DUP2 SWAP1 SSTORE POP PUSH2 0x316A JUMP JUMPDEST DUP2 PUSH1 0x37 PUSH0 DUP3 DUP3 SLOAD PUSH2 0x3162 SWAP2 SWAP1 PUSH2 0x529A JUMP JUMPDEST SWAP3 POP POP DUP2 SWAP1 SSTORE POP JUMPDEST DUP11 PUSH1 0x6 ADD SLOAD DUP2 GT ISZERO PUSH2 0x317E JUMPI DUP11 PUSH1 0x6 ADD SLOAD SWAP1 POP JUMPDEST DUP1 DUP12 PUSH1 0x6 ADD PUSH0 DUP3 DUP3 SLOAD PUSH2 0x3191 SWAP2 SWAP1 PUSH2 0x5267 JUMP JUMPDEST SWAP3 POP POP DUP2 SWAP1 SSTORE POP PUSH1 0x1 DUP12 PUSH1 0x4 ADD PUSH0 DUP3 DUP3 SLOAD PUSH2 0x31AC SWAP2 SWAP1 PUSH2 0x529A JUMP JUMPDEST SWAP3 POP POP DUP2 SWAP1 SSTORE POP DUP11 PUSH1 0x2 ADD SLOAD DUP12 PUSH1 0x4 ADD SLOAD LT ISZERO DUP1 PUSH2 0x31CD JUMPI POP PUSH0 DUP12 PUSH1 0x6 ADD SLOAD EQ JUMPDEST ISZERO PUSH2 0x31DA JUMPI POP POP POP PUSH2 0x31EA JUMP JUMPDEST POP POP POP DUP1 DUP1 PUSH1 0x1 ADD SWAP2 POP POP PUSH2 0x30BC JUMP JUMPDEST POP PUSH0 DUP8 PUSH1 0x5 ADD DUP2 SWAP1 SSTORE POP CALLER PUSH20 0xFFFFFFFFFFFFFFFFFFFFFFFFFFFFFFFFFFFFFFFF AND DUP10 PUSH32 0x41E038704BF70CE2E97DCDDC75986A8DEC282D710422669D04A1D908FF94B34 CALLVALUE DUP11 PUSH1 0x4 ADD SLOAD PUSH1 0x40 MLOAD PUSH2 0x3241 SWAP3 SWAP2 SWAP1 PUSH2 0x561C JUMP JUMPDEST PUSH1 0x40 MLOAD DUP1 SWAP2 SUB SWAP1 LOG3 DUP7 PUSH1 0x2 ADD SLOAD DUP8 PUSH1 0x4 ADD SLOAD LT ISZERO DUP1 PUSH2 0x3263 JUMPI POP PUSH0 DUP8 PUSH1 0x6 ADD SLOAD EQ JUMPDEST ISZERO PUSH2 0x336B JUMPI PUSH0 DUP8 PUSH1 0x8 ADD PUSH1 0x1 PUSH2 0x100 EXP DUP2 SLOAD DUP2 PUSH1 0xFF MUL NOT AND SWAP1 DUP4 ISZERO ISZERO MUL OR SWAP1 SSTORE POP PUSH0 DUP8 PUSH1 0x7 ADD SLOAD SWAP1 POP PUSH0 DUP9 PUSH1 0x7 ADD DUP2 SWAP1 SSTORE POP PUSH0 DUP2 GT ISZERO PUSH2 0x3369 JUMPI PUSH0 DUP9 PUSH0 ADD PUSH0 SWAP1 SLOAD SWAP1 PUSH2 0x100 EXP SWAP1 DIV PUSH20 0xFFFFFFFFFFFFFFFFFFFFFFFFFFFFFFFFFFFFFFFF AND PUSH20 0xFFFFFFFFFFFFFFFFFFFFFFFFFFFFFFFFFFFFFFFF AND DUP3 PUSH1 0x40 MLOAD PUSH2 0x32E4 SWAP1 PUSH2 0x52F0 JUMP JUMPDEST PUSH0 PUSH1 0x40 MLOAD DUP1 DUP4 SUB DUP2 DUP6 DUP8 GAS CALL SWAP3 POP POP POP RETURNDATASIZE DUP1 PUSH0 DUP2 EQ PUSH2 0x331E JUMPI PUSH1 0x40 MLOAD SWAP2 POP PUSH1 0x1F NOT PUSH1 0x3F RETURNDATASIZE ADD AND DUP3 ADD PUSH1 0x40 MSTORE RETURNDATASIZE DUP3 MSTORE RETURNDATASIZE PUSH0 PUSH1 0x20 DUP5 ADD RETURNDATACOPY PUSH2 0x3323 JUMP JUMPDEST PUSH1 0x60 SWAP2 POP JUMPDEST POP POP SWAP1 POP DUP1 PUSH2 0x3367 JUMPI PUSH1 0x40 MLOAD PUSH32 0x8C379A000000000000000000000000000000000000000000000000000000000 DUP2 MSTORE PUSH1 0x4 ADD PUSH2 0x335E SWAP1 PUSH2 0x572A JUMP JUMPDEST PUSH1 0x40 MLOAD DUP1 SWAP2 SUB SWAP1 REVERT JUMPDEST POP JUMPDEST POP JUMPDEST POP POP POP POP POP POP POP PUSH2 0x337A PUSH2 0x386B JUMP JUMPDEST POP POP JUMP JUMPDEST PUSH1 0x2 PUSH0 CALLER PUSH20 0xFFFFFFFFFFFFFFFFFFFFFFFFFFFFFFFFFFFFFFFF AND PUSH20 0xFFFFFFFFFFFFFFFFFFFFFFFFFFFFFFFFFFFFFFFF AND DUP2 MSTORE PUSH1 0x20 ADD SWAP1 DUP2 MSTORE PUSH1 0x20 ADD PUSH0 KECCAK256 PUSH1 0x40 MLOAD PUSH2 0x33C7 SWAP1 PUSH2 0x4D82 JUMP JUMPDEST SWAP1 DUP2 MSTORE PUSH1 0x20 ADD PUSH1 0x40 MLOAD DUP1 SWAP2 SUB SWAP1 KECCAK256 PUSH0 SWAP1 SLOAD SWAP1 PUSH2 0x100 EXP SWAP1 DIV PUSH1 0xFF AND PUSH2 0x3421 JUMPI PUSH1 0x40 MLOAD PUSH32 0x8C379A000000000000000000000000000000000000000000000000000000000 DUP2 MSTORE PUSH1 0x4 ADD PUSH2 0x3418 SWAP1 PUSH2 0x4E16 JUMP JUMPDEST PUSH1 0x40 MLOAD DUP1 SWAP2 SUB SWAP1 REVERT JUMPDEST PUSH2 0x342A CALLER PUSH2 0x3737 JUMP JUMPDEST PUSH2 0x3518 PUSH1 0x39 PUSH0 SWAP1 SLOAD SWAP1 PUSH2 0x100 EXP SWAP1 DIV PUSH20 0xFFFFFFFFFFFFFFFFFFFFFFFFFFFFFFFFFFFFFFFF AND DUP3 PUSH1 0x40 MLOAD PUSH1 0x24 ADD PUSH2 0x3460 SWAP2 SWAP1 PUSH2 0x48E7 JUMP JUMPDEST PUSH1 0x40 MLOAD PUSH1 0x20 DUP2 DUP4 SUB SUB DUP2 MSTORE SWAP1 PUSH1 0x40 MSTORE PUSH32 0x6EC4D2D100000000000000000000000000000000000000000000000000000000 PUSH28 0xFFFFFFFFFFFFFFFFFFFFFFFFFFFFFFFFFFFFFFFFFFFFFFFFFFFFFFFF NOT AND PUSH1 0x20 DUP3 ADD DUP1 MLOAD PUSH28 0xFFFFFFFFFFFFFFFFFFFFFFFFFFFFFFFFFFFFFFFFFFFFFFFFFFFFFFFF DUP4 DUP2 DUP4 AND OR DUP4 MSTORE POP POP POP POP PUSH1 0x40 MLOAD DUP1 PUSH1 0x40 ADD PUSH1 0x40 MSTORE DUP1 PUSH1 0xE DUP2 MSTORE PUSH1 0x20 ADD PUSH32 0x50656E616C747950657263656E74000000000000000000000000000000000000 DUP2 MSTORE POP PUSH2 0x37A8 JUMP JUMPDEST POP JUMP JUMPDEST PUSH1 0x36 PUSH0 SWAP1 SLOAD SWAP1 PUSH2 0x100 EXP SWAP1 DIV PUSH2 0xFFFF AND DUP2 JUMP JUMPDEST PUSH1 0x2 PUSH0 CALLER PUSH20 0xFFFFFFFFFFFFFFFFFFFFFFFFFFFFFFFFFFFFFFFF AND PUSH20 0xFFFFFFFFFFFFFFFFFFFFFFFFFFFFFFFFFFFFFFFF AND DUP2 MSTORE PUSH1 0x20 ADD SWAP1 DUP2 MSTORE PUSH1 0x20 ADD PUSH0 KECCAK256 PUSH1 0x40 MLOAD PUSH2 0x3577 SWAP1 PUSH2 0x4D82 JUMP JUMPDEST SWAP1 DUP2 MSTORE PUSH1 0x20 ADD PUSH1 0x40 MLOAD DUP1 SWAP2 SUB SWAP1 KECCAK256 PUSH0 SWAP1 SLOAD SWAP1 PUSH2 0x100 EXP SWAP1 DIV PUSH1 0xFF AND PUSH2 0x35D1 JUMPI PUSH1 0x40 MLOAD PUSH32 0x8C379A000000000000000000000000000000000000000000000000000000000 DUP2 MSTORE PUSH1 0x4 ADD PUSH2 0x35C8 SWAP1 PUSH2 0x4E16 JUMP JUMPDEST PUSH1 0x40 MLOAD DUP1 SWAP2 SUB SWAP1 REVERT JUMPDEST PUSH2 0x35DA CALLER PUSH2 0x3737 JUMP JUMPDEST PUSH2 0x36C8 PUSH1 0x39 PUSH0 SWAP1 SLOAD SWAP1 PUSH2 0x100 EXP SWAP1 DIV PUSH20 0xFFFFFFFFFFFFFFFFFFFFFFFFFFFFFFFFFFFFFFFF AND DUP3 PUSH1 0x40 MLOAD PUSH1 0x24 ADD PUSH2 0x3610 SWAP2 SWAP1 PUSH2 0x48E7 JUMP JUMPDEST PUSH1 0x40 MLOAD PUSH1 0x20 DUP2 DUP4 SUB SUB DUP2 MSTORE SWAP1 PUSH1 0x40 MSTORE PUSH32 0x9608BBD500000000000000000000000000000000000000000000000000000000 PUSH28 0xFFFFFFFFFFFFFFFFFFFFFFFFFFFFFFFFFFFFFFFFFFFFFFFFFFFFFFFF NOT AND PUSH1 0x20 DUP3 ADD DUP1 MLOAD PUSH28 0xFFFFFFFFFFFFFFFFFFFFFFFFFFFFFFFFFFFFFFFFFFFFFFFFFFFFFFFF DUP4 DUP2 DUP4 AND OR DUP4 MSTORE POP POP POP POP PUSH1 0x40 MLOAD DUP1 PUSH1 0x40 ADD PUSH1 0x40 MSTORE DUP1 PUSH1 0xD DUP2 MSTORE PUSH1 0x20 ADD PUSH32 0x4D61784E504C50657263656E7400000000000000000000000000000000000000 DUP2 MSTORE POP PUSH2 0x37A8 JUMP JUMPDEST POP JUMP JUMPDEST PUSH1 0x3A PUSH1 0x20 MSTORE DUP1 PUSH0 MSTORE PUSH1 0x40 PUSH0 KECCAK256 PUSH0 SWAP2 POP SLOAD SWAP1 PUSH2 0x100 EXP SWAP1 DIV PUSH1 0xFF AND DUP2 JUMP JUMPDEST PUSH1 0x2 PUSH1 0x3 SLOAD SUB PUSH2 0x372D JUMPI PUSH1 0x40 MLOAD PUSH32 0x8C379A000000000000000000000000000000000000000000000000000000000 DUP2 MSTORE PUSH1 0x4 ADD PUSH2 0x3724 SWAP1 PUSH2 0x5792 JUMP JUMPDEST PUSH1 0x40 MLOAD DUP1 SWAP2 SUB SWAP1 REVERT JUMPDEST PUSH1 0x2 PUSH1 0x3 DUP2 SWAP1 SSTORE POP JUMP JUMPDEST PUSH0 PUSH20 0xFFFFFFFFFFFFFFFFFFFFFFFFFFFFFFFFFFFFFFFF AND DUP2 PUSH20 0xFFFFFFFFFFFFFFFFFFFFFFFFFFFFFFFFFFFFFFFF AND SUB PUSH2 0x37A5 JUMPI PUSH1 0x40 MLOAD PUSH32 0x8C379A000000000000000000000000000000000000000000000000000000000 DUP2 MSTORE PUSH1 0x4 ADD PUSH2 0x379C SWAP1 PUSH2 0x5820 JUMP JUMPDEST PUSH1 0x40 MLOAD DUP1 SWAP2 SUB SWAP1 REVERT JUMPDEST POP JUMP JUMPDEST PUSH0 PUSH0 DUP5 PUSH20 0xFFFFFFFFFFFFFFFFFFFFFFFFFFFFFFFFFFFFFFFF AND DUP5 PUSH1 0x40 MLOAD PUSH2 0x37CF SWAP2 SWAP1 PUSH2 0x5886 JUMP JUMPDEST PUSH0 PUSH1 0x40 MLOAD DUP1 DUP4 SUB DUP2 DUP6 GAS DELEGATECALL SWAP2 POP POP RETURNDATASIZE DUP1 PUSH0 DUP2 EQ PUSH2 0x3807 JUMPI PUSH1 0x40 MLOAD SWAP2 POP PUSH1 0x1F NOT PUSH1 0x3F RETURNDATASIZE ADD AND DUP3 ADD PUSH1 0x40 MSTORE RETURNDATASIZE DUP3 MSTORE RETURNDATASIZE PUSH0 PUSH1 0x20 DUP5 ADD RETURNDATACOPY PUSH2 0x380C JUMP JUMPDEST PUSH1 0x60 SWAP2 POP JUMPDEST POP SWAP2 POP SWAP2 POP DUP2 PUSH2 0x3864 JUMPI PUSH0 DUP2 MLOAD GT ISZERO PUSH2 0x3827 JUMPI DUP1 MLOAD PUSH1 0x20 DUP3 ADD REVERT JUMPDEST DUP3 PUSH1 0x40 MLOAD PUSH32 0x9BECF85D00000000000000000000000000000000000000000000000000000000 DUP2 MSTORE PUSH1 0x4 ADD PUSH2 0x385B SWAP2 SWAP1 PUSH2 0x58DE JUMP JUMPDEST PUSH1 0x40 MLOAD DUP1 SWAP2 SUB SWAP1 REVERT JUMPDEST POP POP POP POP POP JUMP JUMPDEST PUSH1 0x1 PUSH1 0x3 DUP2 SWAP1 SSTORE POP JUMP JUMPDEST PUSH0 PUSH0 PUSH2 0x387F PUSH2 0x4791 JUMP JUMPDEST SWAP1 POP DUP1 SWAP2 POP POP SWAP1 JUMP JUMPDEST PUSH2 0x3890 PUSH2 0x47BA JUMP JUMPDEST PUSH2 0x3898 PUSH2 0x47FA JUMP JUMPDEST JUMP JUMPDEST PUSH1 0x35 DUP1 SLOAD SWAP1 POP DUP2 LT PUSH2 0x38E3 JUMPI DUP1 PUSH1 0x40 MLOAD PUSH32 0x16BC3E2C00000000000000000000000000000000000000000000000000000000 DUP2 MSTORE PUSH1 0x4 ADD PUSH2 0x38DA SWAP2 SWAP1 PUSH2 0x4AC0 JUMP JUMPDEST PUSH1 0x40 MLOAD DUP1 SWAP2 SUB SWAP1 REVERT JUMPDEST POP JUMP JUMPDEST PUSH0 TIMESTAMP SWAP1 POP SWAP1 JUMP JUMPDEST PUSH0 DUP3 DUP3 GT PUSH2 0x38FD JUMPI PUSH0 SWAP1 POP PUSH2 0x391F JUMP JUMPDEST PUSH0 PUSH3 0x278D00 SWAP1 POP DUP1 DUP5 DUP5 PUSH2 0x3911 SWAP2 SWAP1 PUSH2 0x5267 JUMP JUMPDEST PUSH2 0x391B SWAP2 SWAP1 PUSH2 0x55EC JUMP JUMPDEST SWAP2 POP POP JUMPDEST SWAP3 SWAP2 POP POP JUMP JUMPDEST PUSH2 0x392E DUP3 PUSH2 0x389A JUMP JUMPDEST PUSH0 PUSH1 0x35 DUP4 DUP2 SLOAD DUP2 LT PUSH2 0x3943 JUMPI PUSH2 0x3942 PUSH2 0x523A JUMP JUMPDEST JUMPDEST SWAP1 PUSH0 MSTORE PUSH1 0x20 PUSH0 KECCAK256 SWAP1 PUSH1 0x9 MUL ADD SWAP1 POP DUP1 PUSH1 0x8 ADD PUSH0 SWAP1 SLOAD SWAP1 PUSH2 0x100 EXP SWAP1 DIV PUSH1 0xFF AND DUP1 PUSH2 0x397C JUMPI POP DUP1 PUSH1 0x8 ADD PUSH1 0x1 SWAP1 SLOAD SWAP1 PUSH2 0x100 EXP SWAP1 DIV PUSH1 0xFF AND ISZERO JUMPDEST ISZERO PUSH2 0x3987 JUMPI POP PUSH2 0x4018 JUMP JUMPDEST PUSH0 DUP3 SWAP1 POP DUP2 PUSH1 0x2 ADD SLOAD DUP2 DUP4 PUSH1 0x4 ADD SLOAD PUSH2 0x39A0 SWAP2 SWAP1 PUSH2 0x529A JUMP JUMPDEST GT ISZERO PUSH2 0x39BD JUMPI DUP2 PUSH1 0x4 ADD SLOAD DUP3 PUSH1 0x2 ADD SLOAD PUSH2 0x39BA SWAP2 SWAP1 PUSH2 0x5267 JUMP JUMPDEST SWAP1 POP JUMPDEST PUSH0 DUP2 SUB PUSH2 0x39CB JUMPI POP POP PUSH2 0x4018 JUMP JUMPDEST PUSH0 PUSH2 0x39D5 DUP6 PUSH2 0x46C8 JUMP JUMPDEST SWAP1 POP PUSH0 DUP3 DUP3 PUSH2 0x39E4 SWAP2 SWAP1 PUSH2 0x557E JUMP JUMPDEST SWAP1 POP PUSH0 PUSH1 0x64 PUSH1 0x36 PUSH1 0x2 SWAP1 SLOAD SWAP1 PUSH2 0x100 EXP SWAP1 DIV PUSH2 0xFFFF AND PUSH2 0xFFFF AND DUP4 PUSH2 0x3A09 SWAP2 SWAP1 PUSH2 0x557E JUMP JUMPDEST PUSH2 0x3A13 SWAP2 SWAP1 PUSH2 0x55EC JUMP JUMPDEST SWAP1 POP PUSH0 DUP2 DUP4 PUSH2 0x3A22 SWAP2 SWAP1 PUSH2 0x529A JUMP JUMPDEST SWAP1 POP PUSH0 PUSH0 SWAP1 POP PUSH0 PUSH0 SWAP1 POP PUSH0 PUSH0 SWAP1 POP DUP4 DUP10 PUSH1 0x7 ADD SLOAD LT PUSH2 0x3B0C JUMPI DUP4 SWAP3 POP PUSH0 PUSH1 0x64 PUSH1 0x36 PUSH0 SWAP1 SLOAD SWAP1 PUSH2 0x100 EXP SWAP1 DIV PUSH2 0xFFFF AND PUSH2 0xFFFF AND DUP12 PUSH1 0x1 ADD SLOAD PUSH2 0x3A64 SWAP2 SWAP1 PUSH2 0x557E JUMP JUMPDEST PUSH2 0x3A6E SWAP2 SWAP1 PUSH2 0x55EC JUMP JUMPDEST SWAP1 POP PUSH0 DUP10 DUP3 PUSH2 0x3A7D SWAP2 SWAP1 PUSH2 0x557E JUMP JUMPDEST SWAP1 POP DUP7 DUP2 PUSH2 0x3A8B SWAP2 SWAP1 PUSH2 0x529A JUMP JUMPDEST PUSH1 0x37 PUSH0 DUP3 DUP3 SLOAD PUSH2 0x3A9B SWAP2 SWAP1 PUSH2 0x529A JUMP JUMPDEST SWAP3 POP POP DUP2 SWAP1 SSTORE POP PUSH0 DUP11 DUP4 PUSH2 0x3AAF SWAP2 SWAP1 PUSH2 0x557E JUMP JUMPDEST DUP10 PUSH2 0x3ABA SWAP2 SWAP1 PUSH2 0x5267 JUMP JUMPDEST SWAP1 POP DUP12 PUSH1 0x6 ADD SLOAD DUP2 GT ISZERO PUSH2 0x3AD0 JUMPI DUP12 PUSH1 0x6 ADD SLOAD SWAP1 POP JUMPDEST DUP1 DUP13 PUSH1 0x6 ADD PUSH0 DUP3 DUP3 SLOAD PUSH2 0x3AE3 SWAP2 SWAP1 PUSH2 0x5267 JUMP JUMPDEST SWAP3 POP POP DUP2 SWAP1 SSTORE POP DUP6 DUP13 PUSH1 0x7 ADD PUSH0 DUP3 DUP3 SLOAD PUSH2 0x3AFD SWAP2 SWAP1 PUSH2 0x5267 JUMP JUMPDEST SWAP3 POP POP DUP2 SWAP1 SSTORE POP POP POP POP PUSH2 0x3C77 JUMP JUMPDEST DUP9 PUSH1 0x7 ADD SLOAD SWAP3 POP PUSH0 DUP4 SWAP1 POP PUSH0 DUP10 DUP12 PUSH1 0x2 ADD SLOAD DUP13 PUSH1 0x1 ADD SLOAD PUSH2 0x3B2D SWAP2 SWAP1 PUSH2 0x55EC JUMP JUMPDEST PUSH2 0x3B37 SWAP2 SWAP1 PUSH2 0x557E JUMP JUMPDEST SWAP1 POP DUP11 PUSH1 0x6 ADD SLOAD DUP2 GT ISZERO PUSH2 0x3B4D JUMPI DUP11 PUSH1 0x6 ADD SLOAD SWAP1 POP JUMPDEST DUP2 DUP2 GT ISZERO PUSH2 0x3B77 JUMPI DUP2 DUP12 PUSH1 0x6 ADD PUSH0 DUP3 DUP3 SLOAD PUSH2 0x3B68 SWAP2 SWAP1 PUSH2 0x5267 JUMP JUMPDEST SWAP3 POP POP DUP2 SWAP1 SSTORE POP PUSH0 SWAP2 POP PUSH2 0x3BA0 JUMP JUMPDEST DUP1 DUP12 PUSH1 0x6 ADD PUSH0 DUP3 DUP3 SLOAD PUSH2 0x3B8A SWAP2 SWAP1 PUSH2 0x5267 JUMP JUMPDEST SWAP3 POP POP DUP2 SWAP1 SSTORE POP DUP1 DUP3 PUSH2 0x3B9D SWAP2 SWAP1 PUSH2 0x5267 JUMP JUMPDEST SWAP2 POP JUMPDEST PUSH0 PUSH1 0x64 PUSH1 0x36 PUSH0 SWAP1 SLOAD SWAP1 PUSH2 0x100 EXP SWAP1 DIV PUSH2 0xFFFF AND PUSH2 0xFFFF AND DUP14 PUSH1 0x1 ADD SLOAD PUSH2 0x3BC6 SWAP2 SWAP1 PUSH2 0x557E JUMP JUMPDEST PUSH2 0x3BD0 SWAP2 SWAP1 PUSH2 0x55EC JUMP JUMPDEST SWAP1 POP PUSH0 DUP12 DUP3 PUSH2 0x3BDF SWAP2 SWAP1 PUSH2 0x557E JUMP JUMPDEST SWAP1 POP PUSH0 DUP10 DUP3 PUSH2 0x3BEE SWAP2 SWAP1 PUSH2 0x529A JUMP JUMPDEST SWAP1 POP DUP1 DUP6 LT PUSH2 0x3C30 JUMPI DUP1 PUSH1 0x37 PUSH0 DUP3 DUP3 SLOAD PUSH2 0x3C08 SWAP2 SWAP1 PUSH2 0x529A JUMP JUMPDEST SWAP3 POP POP DUP2 SWAP1 SSTORE POP DUP1 DUP6 PUSH2 0x3C1B SWAP2 SWAP1 PUSH2 0x5267 JUMP JUMPDEST SWAP5 POP DUP5 DUP8 PUSH2 0x3C29 SWAP2 SWAP1 PUSH2 0x529A JUMP JUMPDEST SWAP7 POP PUSH2 0x3C4C JUMP JUMPDEST DUP5 PUSH1 0x37 PUSH0 DUP3 DUP3 SLOAD PUSH2 0x3C41 SWAP2 SWAP1 PUSH2 0x529A JUMP JUMPDEST SWAP3 POP POP DUP2 SWAP1 SSTORE POP PUSH0 SWAP5 POP JUMPDEST PUSH0 DUP15 PUSH1 0x7 ADD DUP2 SWAP1 SSTORE POP DUP8 DUP10 GT PUSH2 0x3C62 JUMPI PUSH0 PUSH2 0x3C6F JUMP JUMPDEST DUP8 DUP10 PUSH2 0x3C6E SWAP2 SWAP1 PUSH2 0x5267 JUMP JUMPDEST JUMPDEST SWAP6 POP POP POP POP POP POP JUMPDEST DUP8 DUP10 PUSH1 0x4 ADD PUSH0 DUP3 DUP3 SLOAD PUSH2 0x3C8A SWAP2 SWAP1 PUSH2 0x529A JUMP JUMPDEST SWAP3 POP POP DUP2 SWAP1 SSTORE POP DUP9 PUSH1 0x2 ADD SLOAD DUP10 PUSH1 0x4 ADD SLOAD GT ISZERO PUSH2 0x3CAF JUMPI DUP9 PUSH1 0x2 ADD SLOAD DUP10 PUSH1 0x4 ADD DUP2 SWAP1 SSTORE POP JUMPDEST PUSH0 DUP10 PUSH1 0x5 ADD DUP2 SWAP1 SSTORE POP PUSH1 0x1 PUSH1 0x3B PUSH0 DUP12 PUSH0 ADD PUSH0 SWAP1 SLOAD SWAP1 PUSH2 0x100 EXP SWAP1 DIV PUSH20 0xFFFFFFFFFFFFFFFFFFFFFFFFFFFFFFFFFFFFFFFF AND PUSH20 0xFFFFFFFFFFFFFFFFFFFFFFFFFFFFFFFFFFFFFFFF AND PUSH20 0xFFFFFFFFFFFFFFFFFFFFFFFFFFFFFFFFFFFFFFFF AND DUP2 MSTORE PUSH1 0x20 ADD SWAP1 DUP2 MSTORE PUSH1 0x20 ADD PUSH0 KECCAK256 PUSH0 DUP3 DUP3 SLOAD PUSH2 0x3D27 SWAP2 SWAP1 PUSH2 0x529A JUMP JUMPDEST SWAP3 POP POP DUP2 SWAP1 SSTORE POP DUP9 PUSH0 ADD PUSH0 SWAP1 SLOAD SWAP1 PUSH2 0x100 EXP SWAP1 DIV PUSH20 0xFFFFFFFFFFFFFFFFFFFFFFFFFFFFFFFFFFFFFFFF AND PUSH20 0xFFFFFFFFFFFFFFFFFFFFFFFFFFFFFFFFFFFFFFFF AND PUSH32 0x73DC1DABFE81E4B13A65BBC538E7BFC06BAFCCA30510B59584F1043E4C04851 PUSH1 0x3B PUSH0 DUP13 PUSH0 ADD PUSH0 SWAP1 SLOAD SWAP1 PUSH2 0x100 EXP SWAP1 DIV PUSH20 0xFFFFFFFFFFFFFFFFFFFFFFFFFFFFFFFFFFFFFFFF AND PUSH20 0xFFFFFFFFFFFFFFFFFFFFFFFFFFFFFFFFFFFFFFFF AND PUSH20 0xFFFFFFFFFFFFFFFFFFFFFFFFFFFFFFFFFFFFFFFF AND DUP2 MSTORE PUSH1 0x20 ADD SWAP1 DUP2 MSTORE PUSH1 0x20 ADD PUSH0 KECCAK256 SLOAD PUSH1 0x40 MLOAD PUSH2 0x3DF5 SWAP2 SWAP1 PUSH2 0x4AC0 JUMP JUMPDEST PUSH1 0x40 MLOAD DUP1 SWAP2 SUB SWAP1 LOG2 PUSH1 0x3 PUSH1 0x3B PUSH0 DUP12 PUSH0 ADD PUSH0 SWAP1 SLOAD SWAP1 PUSH2 0x100 EXP SWAP1 DIV PUSH20 0xFFFFFFFFFFFFFFFFFFFFFFFFFFFFFFFFFFFFFFFF AND PUSH20 0xFFFFFFFFFFFFFFFFFFFFFFFFFFFFFFFFFFFFFFFF AND PUSH20 0xFFFFFFFFFFFFFFFFFFFFFFFFFFFFFFFFFFFFFFFF AND DUP2 MSTORE PUSH1 0x20 ADD SWAP1 DUP2 MSTORE PUSH1 0x20 ADD PUSH0 KECCAK256 SLOAD LT PUSH2 0x3F41 JUMPI PUSH1 0x1 PUSH1 0x3A PUSH0 DUP12 PUSH0 ADD PUSH0 SWAP1 SLOAD SWAP1 PUSH2 0x100 EXP SWAP1 DIV PUSH20 0xFFFFFFFFFFFFFFFFFFFFFFFFFFFFFFFFFFFFFFFF AND PUSH20 0xFFFFFFFFFFFFFFFFFFFFFFFFFFFFFFFFFFFFFFFF AND PUSH20 0xFFFFFFFFFFFFFFFFFFFFFFFFFFFFFFFFFFFFFFFF AND DUP2 MSTORE PUSH1 0x20 ADD SWAP1 DUP2 MSTORE PUSH1 0x20 ADD PUSH0 KECCAK256 PUSH0 PUSH2 0x100 EXP DUP2 SLOAD DUP2 PUSH1 0xFF MUL NOT AND SWAP1 DUP4 ISZERO ISZERO MUL OR SWAP1 SSTORE POP DUP9 PUSH0 ADD PUSH0 SWAP1 SLOAD SWAP1 PUSH2 0x100 EXP SWAP1 DIV PUSH20 0xFFFFFFFFFFFFFFFFFFFFFFFFFFFFFFFFFFFFFFFF AND PUSH20 0xFFFFFFFFFFFFFFFFFFFFFFFFFFFFFFFFFFFFFFFF AND PUSH32 0xC8438A8BB94764A622DC982E4D066815FEB7CED0657A3CDCB23BBA6EA9F51DC3 PUSH1 0x40 MLOAD PUSH1 0x40 MLOAD DUP1 SWAP2 SUB SWAP1 LOG2 JUMPDEST DUP9 PUSH1 0x2 ADD SLOAD DUP10 PUSH1 0x4 ADD SLOAD LT ISZERO DUP1 PUSH2 0x3F5B JUMPI POP PUSH0 DUP10 PUSH1 0x6 ADD SLOAD EQ JUMPDEST ISZERO PUSH2 0x3F99 JUMPI PUSH0 DUP10 PUSH1 0x8 ADD PUSH1 0x1 PUSH2 0x100 EXP DUP2 SLOAD DUP2 PUSH1 0xFF MUL NOT AND SWAP1 DUP4 ISZERO ISZERO MUL OR SWAP1 SSTORE POP PUSH1 0x1 DUP10 PUSH1 0x8 ADD PUSH0 PUSH2 0x100 EXP DUP2 SLOAD DUP2 PUSH1 0xFF MUL NOT AND SWAP1 DUP4 ISZERO ISZERO MUL OR SWAP1 SSTORE POP JUMPDEST DUP9 PUSH0 ADD PUSH0 SWAP1 SLOAD SWAP1 PUSH2 0x100 EXP SWAP1 DIV PUSH20 0xFFFFFFFFFFFFFFFFFFFFFFFFFFFFFFFFFFFFFFFF AND PUSH20 0xFFFFFFFFFFFFFFFFFFFFFFFFFFFFFFFFFFFFFFFF AND DUP12 PUSH32 0x4A14ED616CE90B51A0A9222C0E231E9CE03B6885730AFF30C76A5CCB7C5B8106 DUP6 DUP5 DUP7 PUSH1 0x40 MLOAD PUSH2 0x4006 SWAP4 SWAP3 SWAP2 SWAP1 PUSH2 0x5643 JUMP JUMPDEST PUSH1 0x40 MLOAD DUP1 SWAP2 SUB SWAP1 LOG3 POP POP POP POP POP POP POP POP POP JUMPDEST POP POP JUMP JUMPDEST PUSH2 0x4025 DUP2 PUSH2 0x389A JUMP JUMPDEST PUSH0 PUSH1 0x35 DUP3 DUP2 SLOAD DUP2 LT PUSH2 0x403A JUMPI PUSH2 0x4039 PUSH2 0x523A JUMP JUMPDEST JUMPDEST SWAP1 PUSH0 MSTORE PUSH1 0x20 PUSH0 KECCAK256 SWAP1 PUSH1 0x9 MUL ADD SWAP1 POP DUP1 PUSH1 0x8 ADD PUSH0 SWAP1 SLOAD SWAP1 PUSH2 0x100 EXP SWAP1 DIV PUSH1 0xFF AND ISZERO PUSH2 0x4064 JUMPI POP PUSH2 0x467C JUMP JUMPDEST PUSH0 DUP2 PUSH1 0x4 ADD SLOAD DUP3 PUSH1 0x2 ADD SLOAD GT PUSH2 0x407A JUMPI PUSH0 PUSH2 0x408F JUMP JUMPDEST DUP2 PUSH1 0x4 ADD SLOAD DUP3 PUSH1 0x2 ADD SLOAD PUSH2 0x408E SWAP2 SWAP1 PUSH2 0x5267 JUMP JUMPDEST JUMPDEST SWAP1 POP PUSH0 PUSH2 0x409B DUP5 PUSH2 0x46C8 JUMP JUMPDEST SWAP1 POP PUSH0 DUP3 DUP3 PUSH2 0x40AA SWAP2 SWAP1 PUSH2 0x557E JUMP JUMPDEST SWAP1 POP PUSH0 PUSH1 0x64 PUSH1 0x36 PUSH1 0x2 SWAP1 SLOAD SWAP1 PUSH2 0x100 EXP SWAP1 DIV PUSH2 0xFFFF AND PUSH2 0xFFFF AND DUP4 PUSH2 0x40CF SWAP2 SWAP1 PUSH2 0x557E JUMP JUMPDEST PUSH2 0x40D9 SWAP2 SWAP1 PUSH2 0x55EC JUMP JUMPDEST SWAP1 POP PUSH0 DUP2 DUP4 PUSH2 0x40E8 SWAP2 SWAP1 PUSH2 0x529A JUMP JUMPDEST SWAP1 POP PUSH0 PUSH0 SWAP1 POP PUSH0 PUSH0 SWAP1 POP PUSH0 PUSH0 SWAP1 POP DUP4 DUP10 PUSH1 0x7 ADD SLOAD LT PUSH2 0x41D2 JUMPI DUP4 SWAP3 POP PUSH0 PUSH1 0x64 PUSH1 0x36 PUSH0 SWAP1 SLOAD SWAP1 PUSH2 0x100 EXP SWAP1 DIV PUSH2 0xFFFF AND PUSH2 0xFFFF AND DUP12 PUSH1 0x1 ADD SLOAD PUSH2 0x412A SWAP2 SWAP1 PUSH2 0x557E JUMP JUMPDEST PUSH2 0x4134 SWAP2 SWAP1 PUSH2 0x55EC JUMP JUMPDEST SWAP1 POP PUSH0 DUP10 DUP3 PUSH2 0x4143 SWAP2 SWAP1 PUSH2 0x557E JUMP JUMPDEST SWAP1 POP DUP7 DUP2 PUSH2 0x4151 SWAP2 SWAP1 PUSH2 0x529A JUMP JUMPDEST PUSH1 0x37 PUSH0 DUP3 DUP3 SLOAD PUSH2 0x4161 SWAP2 SWAP1 PUSH2 0x529A JUMP JUMPDEST SWAP3 POP POP DUP2 SWAP1 SSTORE POP PUSH0 DUP11 DUP4 PUSH2 0x4175 SWAP2 SWAP1 PUSH2 0x557E JUMP JUMPDEST DUP10 PUSH2 0x4180 SWAP2 SWAP1 PUSH2 0x5267 JUMP JUMPDEST SWAP1 POP DUP12 PUSH1 0x6 ADD SLOAD DUP2 GT ISZERO PUSH2 0x4196 JUMPI DUP12 PUSH1 0x6 ADD SLOAD SWAP1 POP JUMPDEST DUP1 DUP13 PUSH1 0x6 ADD PUSH0 DUP3 DUP3 SLOAD PUSH2 0x41A9 SWAP2 SWAP1 PUSH2 0x5267 JUMP JUMPDEST SWAP3 POP POP DUP2 SWAP1 SSTORE POP DUP6 DUP13 PUSH1 0x7 ADD PUSH0 DUP3 DUP3 SLOAD PUSH2 0x41C3 SWAP2 SWAP1 PUSH2 0x5267 JUMP JUMPDEST SWAP3 POP POP DUP2 SWAP1 SSTORE POP POP POP POP PUSH2 0x433C JUMP JUMPDEST DUP9 PUSH1 0x7 ADD SLOAD SWAP3 POP PUSH0 DUP4 SWAP1 POP PUSH0 DUP10 DUP12 PUSH1 0x2 ADD SLOAD DUP13 PUSH1 0x1 ADD SLOAD PUSH2 0x41F3 SWAP2 SWAP1 PUSH2 0x55EC JUMP JUMPDEST PUSH2 0x41FD SWAP2 SWAP1 PUSH2 0x557E JUMP JUMPDEST SWAP1 POP DUP11 PUSH1 0x6 ADD SLOAD DUP2 GT ISZERO PUSH2 0x4213 JUMPI DUP11 PUSH1 0x6 ADD SLOAD SWAP1 POP JUMPDEST DUP1 DUP3 LT PUSH2 0x4247 JUMPI DUP1 DUP3 PUSH2 0x4226 SWAP2 SWAP1 PUSH2 0x5267 JUMP JUMPDEST SWAP2 POP DUP1 DUP12 PUSH1 0x6 ADD PUSH0 DUP3 DUP3 SLOAD PUSH2 0x423B SWAP2 SWAP1 PUSH2 0x5267 JUMP JUMPDEST SWAP3 POP POP DUP2 SWAP1 SSTORE POP PUSH2 0x4265 JUMP JUMPDEST DUP2 DUP12 PUSH1 0x6 ADD PUSH0 DUP3 DUP3 SLOAD PUSH2 0x425A SWAP2 SWAP1 PUSH2 0x5267 JUMP JUMPDEST SWAP3 POP POP DUP2 SWAP1 SSTORE POP PUSH0 SWAP2 POP JUMPDEST PUSH0 PUSH1 0x64 PUSH1 0x36 PUSH0 SWAP1 SLOAD SWAP1 PUSH2 0x100 EXP SWAP1 DIV PUSH2 0xFFFF AND PUSH2 0xFFFF AND DUP14 PUSH1 0x1 ADD SLOAD PUSH2 0x428B SWAP2 SWAP1 PUSH2 0x557E JUMP JUMPDEST PUSH2 0x4295 SWAP2 SWAP1 PUSH2 0x55EC JUMP JUMPDEST SWAP1 POP PUSH0 DUP12 DUP3 PUSH2 0x42A4 SWAP2 SWAP1 PUSH2 0x557E JUMP JUMPDEST SWAP1 POP PUSH0 DUP10 DUP3 PUSH2 0x42B3 SWAP2 SWAP1 PUSH2 0x529A JUMP JUMPDEST SWAP1 POP DUP1 DUP6 LT PUSH2 0x42F5 JUMPI DUP1 PUSH1 0x37 PUSH0 DUP3 DUP3 SLOAD PUSH2 0x42CD SWAP2 SWAP1 PUSH2 0x529A JUMP JUMPDEST SWAP3 POP POP DUP2 SWAP1 SSTORE POP DUP1 DUP6 PUSH2 0x42E0 SWAP2 SWAP1 PUSH2 0x5267 JUMP JUMPDEST SWAP5 POP DUP5 DUP7 PUSH2 0x42EE SWAP2 SWAP1 PUSH2 0x529A JUMP JUMPDEST SWAP6 POP PUSH2 0x4311 JUMP JUMPDEST DUP5 PUSH1 0x37 PUSH0 DUP3 DUP3 SLOAD PUSH2 0x4306 SWAP2 SWAP1 PUSH2 0x529A JUMP JUMPDEST SWAP3 POP POP DUP2 SWAP1 SSTORE POP PUSH0 SWAP5 POP JUMPDEST PUSH0 DUP15 PUSH1 0x7 ADD DUP2 SWAP1 SSTORE POP DUP8 DUP10 GT PUSH2 0x4327 JUMPI PUSH0 PUSH2 0x4334 JUMP JUMPDEST DUP8 DUP10 PUSH2 0x4333 SWAP2 SWAP1 PUSH2 0x5267 JUMP JUMPDEST JUMPDEST SWAP7 POP POP POP POP POP POP JUMPDEST PUSH1 0x1 DUP10 PUSH1 0x8 ADD PUSH0 PUSH2 0x100 EXP DUP2 SLOAD DUP2 PUSH1 0xFF MUL NOT AND SWAP1 DUP4 ISZERO ISZERO MUL OR SWAP1 SSTORE POP PUSH0 DUP10 PUSH1 0x8 ADD PUSH1 0x1 PUSH2 0x100 EXP DUP2 SLOAD DUP2 PUSH1 0xFF MUL NOT AND SWAP1 DUP4 ISZERO ISZERO MUL OR SWAP1 SSTORE POP PUSH1 0x1 PUSH1 0x3B PUSH0 DUP12 PUSH0 ADD PUSH0 SWAP1 SLOAD SWAP1 PUSH2 0x100 EXP SWAP1 DIV PUSH20 0xFFFFFFFFFFFFFFFFFFFFFFFFFFFFFFFFFFFFFFFF AND PUSH20 0xFFFFFFFFFFFFFFFFFFFFFFFFFFFFFFFFFFFFFFFF AND PUSH20 0xFFFFFFFFFFFFFFFFFFFFFFFFFFFFFFFFFFFFFFFF AND DUP2 MSTORE PUSH1 0x20 ADD SWAP1 DUP2 MSTORE PUSH1 0x20 ADD PUSH0 KECCAK256 PUSH0 DUP3 DUP3 SLOAD PUSH2 0x43E3 SWAP2 SWAP1 PUSH2 0x529A JUMP JUMPDEST SWAP3 POP POP DUP2 SWAP1 SSTORE POP DUP9 PUSH0 ADD PUSH0 SWAP1 SLOAD SWAP1 PUSH2 0x100 EXP SWAP1 DIV PUSH20 0xFFFFFFFFFFFFFFFFFFFFFFFFFFFFFFFFFFFFFFFF AND PUSH20 0xFFFFFFFFFFFFFFFFFFFFFFFFFFFFFFFFFFFFFFFF AND PUSH32 0x73DC1DABFE81E4B13A65BBC538E7BFC06BAFCCA30510B59584F1043E4C04851 PUSH1 0x3B PUSH0 DUP13 PUSH0 ADD PUSH0 SWAP1 SLOAD SWAP1 PUSH2 0x100 EXP SWAP1 DIV PUSH20 0xFFFFFFFFFFFFFFFFFFFFFFFFFFFFFFFFFFFFFFFF AND PUSH20 0xFFFFFFFFFFFFFFFFFFFFFFFFFFFFFFFFFFFFFFFF AND PUSH20 0xFFFFFFFFFFFFFFFFFFFFFFFFFFFFFFFFFFFFFFFF AND DUP2 MSTORE PUSH1 0x20 ADD SWAP1 DUP2 MSTORE PUSH1 0x20 ADD PUSH0 KECCAK256 SLOAD PUSH1 0x40 MLOAD PUSH2 0x44B1 SWAP2 SWAP1 PUSH2 0x4AC0 JUMP JUMPDEST PUSH1 0x40 MLOAD DUP1 SWAP2 SUB SWAP1 LOG2 PUSH1 0x3 PUSH1 0x3B PUSH0 DUP12 PUSH0 ADD PUSH0 SWAP1 SLOAD SWAP1 PUSH2 0x100 EXP SWAP1 DIV PUSH20 0xFFFFFFFFFFFFFFFFFFFFFFFFFFFFFFFFFFFFFFFF AND PUSH20 0xFFFFFFFFFFFFFFFFFFFFFFFFFFFFFFFFFFFFFFFF AND PUSH20 0xFFFFFFFFFFFFFFFFFFFFFFFFFFFFFFFFFFFFFFFF AND DUP2 MSTORE PUSH1 0x20 ADD SWAP1 DUP2 MSTORE PUSH1 0x20 ADD PUSH0 KECCAK256 SLOAD LT PUSH2 0x45FD JUMPI PUSH1 0x1 PUSH1 0x3A PUSH0 DUP12 PUSH0 ADD PUSH0 SWAP1 SLOAD SWAP1 PUSH2 0x100 EXP SWAP1 DIV PUSH20 0xFFFFFFFFFFFFFFFFFFFFFFFFFFFFFFFFFFFFFFFF AND PUSH20 0xFFFFFFFFFFFFFFFFFFFFFFFFFFFFFFFFFFFFFFFF AND PUSH20 0xFFFFFFFFFFFFFFFFFFFFFFFFFFFFFFFFFFFFFFFF AND DUP2 MSTORE PUSH1 0x20 ADD SWAP1 DUP2 MSTORE PUSH1 0x20 ADD PUSH0 KECCAK256 PUSH0 PUSH2 0x100 EXP DUP2 SLOAD DUP2 PUSH1 0xFF MUL NOT AND SWAP1 DUP4 ISZERO ISZERO MUL OR SWAP1 SSTORE POP DUP9 PUSH0 ADD PUSH0 SWAP1 SLOAD SWAP1 PUSH2 0x100 EXP SWAP1 DIV PUSH20 0xFFFFFFFFFFFFFFFFFFFFFFFFFFFFFFFFFFFFFFFF AND PUSH20 0xFFFFFFFFFFFFFFFFFFFFFFFFFFFFFFFFFFFFFFFF AND PUSH32 0xC8438A8BB94764A622DC982E4D066815FEB7CED0657A3CDCB23BBA6EA9F51DC3 PUSH1 0x40 MLOAD PUSH1 0x40 MLOAD DUP1 SWAP2 SUB SWAP1 LOG2 JUMPDEST DUP9 PUSH0 ADD PUSH0 SWAP1 SLOAD SWAP1 PUSH2 0x100 EXP SWAP1 DIV PUSH20 0xFFFFFFFFFFFFFFFFFFFFFFFFFFFFFFFFFFFFFFFF AND PUSH20 0xFFFFFFFFFFFFFFFFFFFFFFFFFFFFFFFFFFFFFFFF AND DUP11 PUSH32 0x4A14ED616CE90B51A0A9222C0E231E9CE03B6885730AFF30C76A5CCB7C5B8106 DUP6 DUP6 DUP6 PUSH1 0x40 MLOAD PUSH2 0x466A SWAP4 SWAP3 SWAP2 SWAP1 PUSH2 0x5643 JUMP JUMPDEST PUSH1 0x40 MLOAD DUP1 SWAP2 SUB SWAP1 LOG3 POP POP POP POP POP POP POP POP POP JUMPDEST POP JUMP JUMPDEST PUSH0 PUSH0 PUSH1 0x36 PUSH1 0x6 SWAP1 SLOAD SWAP1 PUSH2 0x100 EXP SWAP1 DIV PUSH2 0xFFFF AND PUSH2 0xFFFF AND SUB PUSH2 0x46A4 JUMPI PUSH1 0x1 SWAP1 POP PUSH2 0x46C5 JUMP JUMPDEST PUSH1 0x36 PUSH1 0x6 SWAP1 SLOAD SWAP1 PUSH2 0x100 EXP SWAP1 DIV PUSH2 0xFFFF AND PUSH2 0xFFFF AND PUSH2 0x46C1 PUSH2 0x480C JUMP JUMPDEST LT SWAP1 POP JUMPDEST SWAP1 JUMP JUMPDEST PUSH0 PUSH2 0x46D2 DUP3 PUSH2 0x389A JUMP JUMPDEST PUSH0 PUSH1 0x35 DUP4 DUP2 SLOAD DUP2 LT PUSH2 0x46E7 JUMPI PUSH2 0x46E6 PUSH2 0x523A JUMP JUMPDEST JUMPDEST SWAP1 PUSH0 MSTORE PUSH1 0x20 PUSH0 KECCAK256 SWAP1 PUSH1 0x9 MUL ADD SWAP1 POP PUSH0 DUP2 PUSH1 0x2 ADD SLOAD SUB PUSH2 0x4732 JUMPI PUSH1 0x40 MLOAD PUSH32 0x7616640100000000000000000000000000000000000000000000000000000000 DUP2 MSTORE PUSH1 0x4 ADD PUSH1 0x40 MLOAD DUP1 SWAP2 SUB SWAP1 REVERT JUMPDEST PUSH0 DUP2 PUSH1 0x2 ADD SLOAD DUP3 PUSH1 0x1 ADD SLOAD PUSH2 0x4747 SWAP2 SWAP1 PUSH2 0x55EC JUMP JUMPDEST SWAP1 POP PUSH0 PUSH1 0x64 PUSH1 0x36 PUSH0 SWAP1 SLOAD SWAP1 PUSH2 0x100 EXP SWAP1 DIV PUSH2 0xFFFF AND PUSH2 0xFFFF AND DUP5 PUSH1 0x1 ADD SLOAD PUSH2 0x476F SWAP2 SWAP1 PUSH2 0x557E JUMP JUMPDEST PUSH2 0x4779 SWAP2 SWAP1 PUSH2 0x55EC JUMP JUMPDEST SWAP1 POP DUP1 DUP3 PUSH2 0x4787 SWAP2 SWAP1 PUSH2 0x529A JUMP JUMPDEST SWAP4 POP POP POP POP SWAP2 SWAP1 POP JUMP JUMPDEST PUSH0 PUSH32 0xF0C57E16840DF040F15088DC2F81FE391C3923BEC73E23A9662EFC9C229C6A00 PUSH0 SHL SWAP1 POP SWAP1 JUMP JUMPDEST PUSH2 0x47C2 PUSH2 0x48AD JUMP JUMPDEST PUSH2 0x47F8 JUMPI PUSH1 0x40 MLOAD PUSH32 0xD7E6BCF800000000000000000000000000000000000000000000000000000000 DUP2 MSTORE PUSH1 0x4 ADD PUSH1 0x40 MLOAD DUP1 SWAP2 SUB SWAP1 REVERT JUMPDEST JUMP JUMPDEST PUSH2 0x4802 PUSH2 0x47BA JUMP JUMPDEST PUSH1 0x1 PUSH1 0x3 DUP2 SWAP1 SSTORE POP JUMP JUMPDEST PUSH0 PUSH0 PUSH1 0x35 DUP1 SLOAD SWAP1 POP SUB PUSH2 0x4821 JUMPI PUSH0 SWAP1 POP PUSH2 0x48AA JUMP JUMPDEST PUSH0 PUSH0 SWAP1 POP PUSH0 PUSH0 SWAP1 POP JUMPDEST PUSH1 0x35 DUP1 SLOAD SWAP1 POP DUP2 LT ISZERO PUSH2 0x4888 JUMPI PUSH1 0x35 DUP2 DUP2 SLOAD DUP2 LT PUSH2 0x484B JUMPI PUSH2 0x484A PUSH2 0x523A JUMP JUMPDEST JUMPDEST SWAP1 PUSH0 MSTORE PUSH1 0x20 PUSH0 KECCAK256 SWAP1 PUSH1 0x9 MUL ADD PUSH1 0x8 ADD PUSH0 SWAP1 SLOAD SWAP1 PUSH2 0x100 EXP SWAP1 DIV PUSH1 0xFF AND ISZERO PUSH2 0x487B JUMPI DUP2 DUP1 PUSH2 0x4877 SWAP1 PUSH2 0x5537 JUMP JUMPDEST SWAP3 POP POP JUMPDEST DUP1 DUP1 PUSH1 0x1 ADD SWAP2 POP POP PUSH2 0x482A JUMP JUMPDEST POP PUSH1 0x35 DUP1 SLOAD SWAP1 POP PUSH1 0x64 DUP3 PUSH2 0x489C SWAP2 SWAP1 PUSH2 0x557E JUMP JUMPDEST PUSH2 0x48A6 SWAP2 SWAP1 PUSH2 0x55EC JUMP JUMPDEST SWAP2 POP POP JUMPDEST SWAP1 JUMP JUMPDEST PUSH0 PUSH2 0x48B6 PUSH2 0x3875 JUMP JUMPDEST PUSH0 ADD PUSH1 0x8 SWAP1 SLOAD SWAP1 PUSH2 0x100 EXP SWAP1 DIV PUSH1 0xFF AND SWAP1 POP SWAP1 JUMP JUMPDEST PUSH0 PUSH2 0xFFFF DUP3 AND SWAP1 POP SWAP2 SWAP1 POP JUMP JUMPDEST PUSH2 0x48E1 DUP2 PUSH2 0x48CB JUMP JUMPDEST DUP3 MSTORE POP POP JUMP JUMPDEST PUSH0 PUSH1 0x20 DUP3 ADD SWAP1 POP PUSH2 0x48FA PUSH0 DUP4 ADD DUP5 PUSH2 0x48D8 JUMP JUMPDEST SWAP3 SWAP2 POP POP JUMP JUMPDEST PUSH0 PUSH0 REVERT JUMPDEST PUSH0 PUSH0 REVERT JUMPDEST PUSH0 PUSH20 0xFFFFFFFFFFFFFFFFFFFFFFFFFFFFFFFFFFFFFFFF DUP3 AND SWAP1 POP SWAP2 SWAP1 POP JUMP JUMPDEST PUSH0 PUSH2 0x4931 DUP3 PUSH2 0x4908 JUMP JUMPDEST SWAP1 POP SWAP2 SWAP1 POP JUMP JUMPDEST PUSH2 0x4941 DUP2 PUSH2 0x4927 JUMP JUMPDEST DUP2 EQ PUSH2 0x494B JUMPI PUSH0 PUSH0 REVERT JUMPDEST POP JUMP JUMPDEST PUSH0 DUP2 CALLDATALOAD SWAP1 POP PUSH2 0x495C DUP2 PUSH2 0x4938 JUMP JUMPDEST SWAP3 SWAP2 POP POP JUMP JUMPDEST PUSH0 PUSH0 REVERT JUMPDEST PUSH0 PUSH0 REVERT JUMPDEST PUSH0 PUSH0 REVERT JUMPDEST PUSH0 PUSH0 DUP4 PUSH1 0x1F DUP5 ADD SLT PUSH2 0x4983 JUMPI PUSH2 0x4982 PUSH2 0x4962 JUMP JUMPDEST JUMPDEST DUP3 CALLDATALOAD SWAP1 POP PUSH8 0xFFFFFFFFFFFFFFFF DUP2 GT ISZERO PUSH2 0x49A0 JUMPI PUSH2 0x499F PUSH2 0x4966 JUMP JUMPDEST JUMPDEST PUSH1 0x20 DUP4 ADD SWAP2 POP DUP4 PUSH1 0x1 DUP3 MUL DUP4 ADD GT ISZERO PUSH2 0x49BC JUMPI PUSH2 0x49BB PUSH2 0x496A JUMP JUMPDEST JUMPDEST SWAP3 POP SWAP3 SWAP1 POP JUMP JUMPDEST PUSH0 PUSH0 PUSH0 PUSH1 0x40 DUP5 DUP7 SUB SLT ISZERO PUSH2 0x49DA JUMPI PUSH2 0x49D9 PUSH2 0x4900 JUMP JUMPDEST JUMPDEST PUSH0 PUSH2 0x49E7 DUP7 DUP3 DUP8 ADD PUSH2 0x494E JUMP JUMPDEST SWAP4 POP POP PUSH1 0x20 DUP5 ADD CALLDATALOAD PUSH8 0xFFFFFFFFFFFFFFFF DUP2 GT ISZERO PUSH2 0x4A08 JUMPI PUSH2 0x4A07 PUSH2 0x4904 JUMP JUMPDEST JUMPDEST PUSH2 0x4A14 DUP7 DUP3 DUP8 ADD PUSH2 0x496E JUMP JUMPDEST SWAP3 POP SWAP3 POP POP SWAP3 POP SWAP3 POP SWAP3 JUMP JUMPDEST PUSH0 DUP2 ISZERO ISZERO SWAP1 POP SWAP2 SWAP1 POP JUMP JUMPDEST PUSH2 0x4A34 DUP2 PUSH2 0x4A20 JUMP JUMPDEST DUP3 MSTORE POP POP JUMP JUMPDEST PUSH0 PUSH1 0x20 DUP3 ADD SWAP1 POP PUSH2 0x4A4D PUSH0 DUP4 ADD DUP5 PUSH2 0x4A2B JUMP JUMPDEST SWAP3 SWAP2 POP POP JUMP JUMPDEST PUSH2 0x4A5C DUP2 PUSH2 0x48CB JUMP JUMPDEST DUP2 EQ PUSH2 0x4A66 JUMPI PUSH0 PUSH0 REVERT JUMPDEST POP JUMP JUMPDEST PUSH0 DUP2 CALLDATALOAD SWAP1 POP PUSH2 0x4A77 DUP2 PUSH2 0x4A53 JUMP JUMPDEST SWAP3 SWAP2 POP POP JUMP JUMPDEST PUSH0 PUSH1 0x20 DUP3 DUP5 SUB SLT ISZERO PUSH2 0x4A92 JUMPI PUSH2 0x4A91 PUSH2 0x4900 JUMP JUMPDEST JUMPDEST PUSH0 PUSH2 0x4A9F DUP5 DUP3 DUP6 ADD PUSH2 0x4A69 JUMP JUMPDEST SWAP2 POP POP SWAP3 SWAP2 POP POP JUMP JUMPDEST PUSH0 DUP2 SWAP1 POP SWAP2 SWAP1 POP JUMP JUMPDEST PUSH2 0x4ABA DUP2 PUSH2 0x4AA8 JUMP JUMPDEST DUP3 MSTORE POP POP JUMP JUMPDEST PUSH0 PUSH1 0x20 DUP3 ADD SWAP1 POP PUSH2 0x4AD3 PUSH0 DUP4 ADD DUP5 PUSH2 0x4AB1 JUMP JUMPDEST SWAP3 SWAP2 POP POP JUMP JUMPDEST PUSH0 PUSH2 0x4AE3 DUP3 PUSH2 0x4908 JUMP JUMPDEST SWAP1 POP SWAP2 SWAP1 POP JUMP JUMPDEST PUSH2 0x4AF3 DUP2 PUSH2 0x4AD9 JUMP JUMPDEST DUP2 EQ PUSH2 0x4AFD JUMPI PUSH0 PUSH0 REVERT JUMPDEST POP JUMP JUMPDEST PUSH0 DUP2 CALLDATALOAD SWAP1 POP PUSH2 0x4B0E DUP2 PUSH2 0x4AEA JUMP JUMPDEST SWAP3 SWAP2 POP POP JUMP JUMPDEST PUSH0 PUSH0 PUSH1 0x40 DUP4 DUP6 SUB SLT ISZERO PUSH2 0x4B2A JUMPI PUSH2 0x4B29 PUSH2 0x4900 JUMP JUMPDEST JUMPDEST PUSH0 PUSH2 0x4B37 DUP6 DUP3 DUP7 ADD PUSH2 0x4B00 JUMP JUMPDEST SWAP3 POP POP PUSH1 0x20 PUSH2 0x4B48 DUP6 DUP3 DUP7 ADD PUSH2 0x494E JUMP JUMPDEST SWAP2 POP POP SWAP3 POP SWAP3 SWAP1 POP JUMP JUMPDEST PUSH0 PUSH1 0x20 DUP3 DUP5 SUB SLT ISZERO PUSH2 0x4B67 JUMPI PUSH2 0x4B66 PUSH2 0x4900 JUMP JUMPDEST JUMPDEST PUSH0 PUSH2 0x4B74 DUP5 DUP3 DUP6 ADD PUSH2 0x494E JUMP JUMPDEST SWAP2 POP POP SWAP3 SWAP2 POP POP JUMP JUMPDEST PUSH2 0x4B86 DUP2 PUSH2 0x4AA8 JUMP JUMPDEST DUP2 EQ PUSH2 0x4B90 JUMPI PUSH0 PUSH0 REVERT JUMPDEST POP JUMP JUMPDEST PUSH0 DUP2 CALLDATALOAD SWAP1 POP PUSH2 0x4BA1 DUP2 PUSH2 0x4B7D JUMP JUMPDEST SWAP3 SWAP2 POP POP JUMP JUMPDEST PUSH0 PUSH1 0x20 DUP3 DUP5 SUB SLT ISZERO PUSH2 0x4BBC JUMPI PUSH2 0x4BBB PUSH2 0x4900 JUMP JUMPDEST JUMPDEST PUSH0 PUSH2 0x4BC9 DUP5 DUP3 DUP6 ADD PUSH2 0x4B93 JUMP JUMPDEST SWAP2 POP POP SWAP3 SWAP2 POP POP JUMP JUMPDEST PUSH0 PUSH1 0x20 DUP3 DUP5 SUB SLT ISZERO PUSH2 0x4BE7 JUMPI PUSH2 0x4BE6 PUSH2 0x4900 JUMP JUMPDEST JUMPDEST PUSH0 PUSH2 0x4BF4 DUP5 DUP3 DUP6 ADD PUSH2 0x4B00 JUMP JUMPDEST SWAP2 POP POP SWAP3 SWAP2 POP POP JUMP JUMPDEST PUSH2 0x4C06 DUP2 PUSH2 0x4927 JUMP JUMPDEST DUP3 MSTORE POP POP JUMP JUMPDEST PUSH0 PUSH2 0x140 DUP3 ADD SWAP1 POP PUSH2 0x4C20 PUSH0 DUP4 ADD DUP14 PUSH2 0x4BFD JUMP JUMPDEST PUSH2 0x4C2D PUSH1 0x20 DUP4 ADD DUP13 PUSH2 0x4AB1 JUMP JUMPDEST PUSH2 0x4C3A PUSH1 0x40 DUP4 ADD DUP12 PUSH2 0x4AB1 JUMP JUMPDEST PUSH2 0x4C47 PUSH1 0x60 DUP4 ADD DUP11 PUSH2 0x4AB1 JUMP JUMPDEST PUSH2 0x4C54 PUSH1 0x80 DUP4 ADD DUP10 PUSH2 0x4AB1 JUMP JUMPDEST PUSH2 0x4C61 PUSH1 0xA0 DUP4 ADD DUP9 PUSH2 0x4AB1 JUMP JUMPDEST PUSH2 0x4C6E PUSH1 0xC0 DUP4 ADD DUP8 PUSH2 0x4AB1 JUMP JUMPDEST PUSH2 0x4C7B PUSH1 0xE0 DUP4 ADD DUP7 PUSH2 0x4AB1 JUMP JUMPDEST PUSH2 0x4C89 PUSH2 0x100 DUP4 ADD DUP6 PUSH2 0x4A2B JUMP JUMPDEST PUSH2 0x4C97 PUSH2 0x120 DUP4 ADD DUP5 PUSH2 0x4A2B JUMP JUMPDEST SWAP12 SWAP11 POP POP POP POP POP POP POP POP POP POP POP JUMP JUMPDEST PUSH0 PUSH0 PUSH1 0x40 DUP4 DUP6 SUB SLT ISZERO PUSH2 0x4CBC JUMPI PUSH2 0x4CBB PUSH2 0x4900 JUMP JUMPDEST JUMPDEST PUSH0 PUSH2 0x4CC9 DUP6 DUP3 DUP7 ADD PUSH2 0x4B93 JUMP JUMPDEST SWAP3 POP POP PUSH1 0x20 PUSH2 0x4CDA DUP6 DUP3 DUP7 ADD PUSH2 0x4B93 JUMP JUMPDEST SWAP2 POP POP SWAP3 POP SWAP3 SWAP1 POP JUMP JUMPDEST PUSH0 DUP2 SWAP1 POP SWAP3 SWAP2 POP POP JUMP JUMPDEST DUP3 DUP2 DUP4 CALLDATACOPY PUSH0 DUP4 DUP4 ADD MSTORE POP POP POP JUMP JUMPDEST PUSH0 PUSH2 0x4D07 DUP4 DUP6 PUSH2 0x4CE4 JUMP JUMPDEST SWAP4 POP PUSH2 0x4D14 DUP4 DUP6 DUP5 PUSH2 0x4CEE JUMP JUMPDEST DUP3 DUP5 ADD SWAP1 POP SWAP4 SWAP3 POP POP POP JUMP JUMPDEST PUSH0 PUSH2 0x4D2C DUP3 DUP5 DUP7 PUSH2 0x4CFC JUMP JUMPDEST SWAP2 POP DUP2 SWAP1 POP SWAP4 SWAP3 POP POP POP JUMP JUMPDEST PUSH32 0x41646D696E000000000000000000000000000000000000000000000000000000 PUSH0 DUP3 ADD MSTORE POP JUMP JUMPDEST PUSH0 PUSH2 0x4D6C PUSH1 0x5 DUP4 PUSH2 0x4CE4 JUMP JUMPDEST SWAP2 POP PUSH2 0x4D77 DUP3 PUSH2 0x4D38 JUMP JUMPDEST PUSH1 0x5 DUP3 ADD SWAP1 POP SWAP2 SWAP1 POP JUMP JUMPDEST PUSH0 PUSH2 0x4D8C DUP3 PUSH2 0x4D60 JUMP JUMPDEST SWAP2 POP DUP2 SWAP1 POP SWAP2 SWAP1 POP JUMP JUMPDEST PUSH0 DUP3 DUP3 MSTORE PUSH1 0x20 DUP3 ADD SWAP1 POP SWAP3 SWAP2 POP POP JUMP JUMPDEST PUSH32 0x456D706C6F79656541737369676E6D656E743A2063616C6C6572206973206E6F PUSH0 DUP3 ADD MSTORE PUSH32 0x7420616E2061646D696E00000000000000000000000000000000000000000000 PUSH1 0x20 DUP3 ADD MSTORE POP JUMP JUMPDEST PUSH0 PUSH2 0x4E00 PUSH1 0x2A DUP4 PUSH2 0x4D96 JUMP JUMPDEST SWAP2 POP PUSH2 0x4E0B DUP3 PUSH2 0x4DA6 JUMP JUMPDEST PUSH1 0x40 DUP3 ADD SWAP1 POP SWAP2 SWAP1 POP JUMP JUMPDEST PUSH0 PUSH1 0x20 DUP3 ADD SWAP1 POP DUP2 DUP2 SUB PUSH0 DUP4 ADD MSTORE PUSH2 0x4E2D DUP2 PUSH2 0x4DF4 JUMP JUMPDEST SWAP1 POP SWAP2 SWAP1 POP JUMP JUMPDEST PUSH0 DUP2 SWAP1 POP SWAP2 SWAP1 POP JUMP JUMPDEST PUSH0 PUSH8 0xFFFFFFFFFFFFFFFF DUP3 AND SWAP1 POP SWAP2 SWAP1 POP JUMP JUMPDEST PUSH0 DUP2 SWAP1 POP SWAP2 SWAP1 POP JUMP JUMPDEST PUSH0 PUSH2 0x4E73 PUSH2 0x4E6E PUSH2 0x4E69 DUP5 PUSH2 0x4E34 JUMP JUMPDEST PUSH2 0x4E50 JUMP JUMPDEST PUSH2 0x4E3D JUMP JUMPDEST SWAP1 POP SWAP2 SWAP1 POP JUMP JUMPDEST PUSH2 0x4E83 DUP2 PUSH2 0x4E59 JUMP JUMPDEST DUP3 MSTORE POP POP JUMP JUMPDEST PUSH0 PUSH1 0x20 DUP3 ADD SWAP1 POP PUSH2 0x4E9C PUSH0 DUP4 ADD DUP5 PUSH2 0x4E7A JUMP JUMPDEST SWAP3 SWAP2 POP POP JUMP JUMPDEST PUSH32 0x456D706C6F79656541737369676E6D656E743A2063616C6C6572206973206E6F PUSH0 DUP3 ADD MSTORE PUSH32 0x7420746865206F776E6572000000000000000000000000000000000000000000 PUSH1 0x20 DUP3 ADD MSTORE POP JUMP JUMPDEST PUSH0 PUSH2 0x4EFC PUSH1 0x2B DUP4 PUSH2 0x4D96 JUMP JUMPDEST SWAP2 POP PUSH2 0x4F07 DUP3 PUSH2 0x4EA2 JUMP JUMPDEST PUSH1 0x40 DUP3 ADD SWAP1 POP SWAP2 SWAP1 POP JUMP JUMPDEST PUSH0 PUSH1 0x20 DUP3 ADD SWAP1 POP DUP2 DUP2 SUB PUSH0 DUP4 ADD MSTORE PUSH2 0x4F29 DUP2 PUSH2 0x4EF0 JUMP JUMPDEST SWAP1 POP SWAP2 SWAP1 POP JUMP JUMPDEST PUSH0 DUP2 SWAP1 POP SWAP3 SWAP2 POP POP JUMP JUMPDEST PUSH0 PUSH2 0x4F45 DUP4 DUP6 PUSH2 0x4F30 JUMP JUMPDEST SWAP4 POP PUSH2 0x4F52 DUP4 DUP6 DUP5 PUSH2 0x4CEE JUMP JUMPDEST DUP3 DUP5 ADD SWAP1 POP SWAP4 SWAP3 POP POP POP JUMP JUMPDEST PUSH0 PUSH2 0x4F6A DUP3 DUP5 DUP7 PUSH2 0x4F3A JUMP JUMPDEST SWAP2 POP DUP2 SWAP1 POP SWAP4 SWAP3 POP POP POP JUMP JUMPDEST PUSH32 0x456D706C6F79656541737369676E6D656E743A20696E76616C696420726F6C65 PUSH0 DUP3 ADD MSTORE POP JUMP JUMPDEST PUSH0 PUSH2 0x4FAA PUSH1 0x20 DUP4 PUSH2 0x4D96 JUMP JUMPDEST SWAP2 POP PUSH2 0x4FB5 DUP3 PUSH2 0x4F76 JUMP JUMPDEST PUSH1 0x20 DUP3 ADD SWAP1 POP SWAP2 SWAP1 POP JUMP JUMPDEST PUSH0 PUSH1 0x20 DUP3 ADD SWAP1 POP DUP2 DUP2 SUB PUSH0 DUP4 ADD MSTORE PUSH2 0x4FD7 DUP2 PUSH2 0x4F9E JUMP JUMPDEST SWAP1 POP SWAP2 SWAP1 POP JUMP JUMPDEST PUSH32 0x456D706C6F79656541737369676E6D656E743A20656D706C6F79656520646F65 PUSH0 DUP3 ADD MSTORE PUSH32 0x73206E6F742068617665207468697320726F6C65000000000000000000000000 PUSH1 0x20 DUP3 ADD MSTORE POP JUMP JUMPDEST PUSH0 PUSH2 0x5038 PUSH1 0x34 DUP4 PUSH2 0x4D96 JUMP JUMPDEST SWAP2 POP PUSH2 0x5043 DUP3 PUSH2 0x4FDE JUMP JUMPDEST PUSH1 0x40 DUP3 ADD SWAP1 POP SWAP2 SWAP1 POP JUMP JUMPDEST PUSH0 PUSH1 0x20 DUP3 ADD SWAP1 POP DUP2 DUP2 SUB PUSH0 DUP4 ADD MSTORE PUSH2 0x5065 DUP2 PUSH2 0x502C JUMP JUMPDEST SWAP1 POP SWAP2 SWAP1 POP JUMP JUMPDEST PUSH32 0x4E487B7100000000000000000000000000000000000000000000000000000000 PUSH0 MSTORE PUSH1 0x11 PUSH1 0x4 MSTORE PUSH1 0x24 PUSH0 REVERT JUMPDEST PUSH0 PUSH2 0x50A3 DUP3 PUSH2 0x4AA8 JUMP JUMPDEST SWAP2 POP PUSH0 DUP3 SUB PUSH2 0x50B5 JUMPI PUSH2 0x50B4 PUSH2 0x506C JUMP JUMPDEST JUMPDEST PUSH1 0x1 DUP3 SUB SWAP1 POP SWAP2 SWAP1 POP JUMP JUMPDEST PUSH0 PUSH1 0x1F NOT PUSH1 0x1F DUP4 ADD AND SWAP1 POP SWAP2 SWAP1 POP JUMP JUMPDEST PUSH0 PUSH2 0x50DB DUP4 DUP6 PUSH2 0x4D96 JUMP JUMPDEST SWAP4 POP PUSH2 0x50E8 DUP4 DUP6 DUP5 PUSH2 0x4CEE JUMP JUMPDEST PUSH2 0x50F1 DUP4 PUSH2 0x50C0 JUMP JUMPDEST DUP5 ADD SWAP1 POP SWAP4 SWAP3 POP POP POP JUMP JUMPDEST PUSH0 PUSH1 0x20 DUP3 ADD SWAP1 POP DUP2 DUP2 SUB PUSH0 DUP4 ADD MSTORE PUSH2 0x5115 DUP2 DUP5 DUP7 PUSH2 0x50D0 JUMP JUMPDEST SWAP1 POP SWAP4 SWAP3 POP POP POP JUMP JUMPDEST PUSH32 0x456D706C6F79656541737369676E6D656E743A2063616C6C657220697320616E PUSH0 DUP3 ADD MSTORE PUSH32 0x2061646D696E0000000000000000000000000000000000000000000000000000 PUSH1 0x20 DUP3 ADD MSTORE POP JUMP JUMPDEST PUSH0 PUSH2 0x5178 PUSH1 0x26 DUP4 PUSH2 0x4D96 JUMP JUMPDEST SWAP2 POP PUSH2 0x5183 DUP3 PUSH2 0x511E JUMP JUMPDEST PUSH1 0x40 DUP3 ADD SWAP1 POP SWAP2 SWAP1 POP JUMP JUMPDEST PUSH0 PUSH1 0x20 DUP3 ADD SWAP1 POP DUP2 DUP2 SUB PUSH0 DUP4 ADD MSTORE PUSH2 0x51A5 DUP2 PUSH2 0x516C JUMP JUMPDEST SWAP1 POP SWAP2 SWAP1 POP JUMP JUMPDEST PUSH32 0x456D706C6F79656541737369676E6D656E743A2063616C6C6572206973207468 PUSH0 DUP3 ADD MSTORE PUSH32 0x65206F776E657200000000000000000000000000000000000000000000000000 PUSH1 0x20 DUP3 ADD MSTORE POP JUMP JUMPDEST PUSH0 PUSH2 0x5206 PUSH1 0x27 DUP4 PUSH2 0x4D96 JUMP JUMPDEST SWAP2 POP PUSH2 0x5211 DUP3 PUSH2 0x51AC JUMP JUMPDEST PUSH1 0x40 DUP3 ADD SWAP1 POP SWAP2 SWAP1 POP JUMP JUMPDEST PUSH0 PUSH1 0x20 DUP3 ADD SWAP1 POP DUP2 DUP2 SUB PUSH0 DUP4 ADD MSTORE PUSH2 0x5233 DUP2 PUSH2 0x51FA JUMP JUMPDEST SWAP1 POP SWAP2 SWAP1 POP JUMP JUMPDEST PUSH32 0x4E487B7100000000000000000000000000000000000000000000000000000000 PUSH0 MSTORE PUSH1 0x32 PUSH1 0x4 MSTORE PUSH1 0x24 PUSH0 REVERT JUMPDEST PUSH0 PUSH2 0x5271 DUP3 PUSH2 0x4AA8 JUMP JUMPDEST SWAP2 POP PUSH2 0x527C DUP4 PUSH2 0x4AA8 JUMP JUMPDEST SWAP3 POP DUP3 DUP3 SUB SWAP1 POP DUP2 DUP2 GT ISZERO PUSH2 0x5294 JUMPI PUSH2 0x5293 PUSH2 0x506C JUMP JUMPDEST JUMPDEST SWAP3 SWAP2 POP POP JUMP JUMPDEST PUSH0 PUSH2 0x52A4 DUP3 PUSH2 0x4AA8 JUMP JUMPDEST SWAP2 POP PUSH2 0x52AF DUP4 PUSH2 0x4AA8 JUMP JUMPDEST SWAP3 POP DUP3 DUP3 ADD SWAP1 POP DUP1 DUP3 GT ISZERO PUSH2 0x52C7 JUMPI PUSH2 0x52C6 PUSH2 0x506C JUMP JUMPDEST JUMPDEST SWAP3 SWAP2 POP POP JUMP JUMPDEST POP JUMP JUMPDEST PUSH0 PUSH2 0x52DB PUSH0 DUP4 PUSH2 0x4F30 JUMP JUMPDEST SWAP2 POP PUSH2 0x52E6 DUP3 PUSH2 0x52CD JUMP JUMPDEST PUSH0 DUP3 ADD SWAP1 POP SWAP2 SWAP1 POP JUMP JUMPDEST PUSH0 PUSH2 0x52FA DUP3 PUSH2 0x52D0 JUMP JUMPDEST SWAP2 POP DUP2 SWAP1 POP SWAP2 SWAP1 POP JUMP JUMPDEST PUSH32 0x526566756E64206661696C656400000000000000000000000000000000000000 PUSH0 DUP3 ADD MSTORE POP JUMP JUMPDEST PUSH0 PUSH2 0x5338 PUSH1 0xD DUP4 PUSH2 0x4D96 JUMP JUMPDEST SWAP2 POP PUSH2 0x5343 DUP3 PUSH2 0x5304 JUMP JUMPDEST PUSH1 0x20 DUP3 ADD SWAP1 POP SWAP2 SWAP1 POP JUMP JUMPDEST PUSH0 PUSH1 0x20 DUP3 ADD SWAP1 POP DUP2 DUP2 SUB PUSH0 DUP4 ADD MSTORE PUSH2 0x5365 DUP2 PUSH2 0x532C JUMP JUMPDEST SWAP1 POP SWAP2 SWAP1 POP JUMP JUMPDEST PUSH0 DUP2 SWAP1 POP SWAP2 SWAP1 POP JUMP JUMPDEST PUSH0 PUSH2 0x538F PUSH2 0x538A PUSH2 0x5385 DUP5 PUSH2 0x536C JUMP JUMPDEST PUSH2 0x4E50 JUMP JUMPDEST PUSH2 0x4AA8 JUMP JUMPDEST SWAP1 POP SWAP2 SWAP1 POP JUMP JUMPDEST PUSH2 0x539F DUP2 PUSH2 0x5375 JUMP JUMPDEST DUP3 MSTORE POP POP JUMP JUMPDEST PUSH0 PUSH1 0x60 DUP3 ADD SWAP1 POP PUSH2 0x53B8 PUSH0 DUP4 ADD DUP7 PUSH2 0x4AB1 JUMP JUMPDEST PUSH2 0x53C5 PUSH1 0x20 DUP4 ADD DUP6 PUSH2 0x5396 JUMP JUMPDEST PUSH2 0x53D2 PUSH1 0x40 DUP4 ADD DUP5 PUSH2 0x5396 JUMP JUMPDEST SWAP5 SWAP4 POP POP POP POP JUMP JUMPDEST PUSH0 PUSH1 0x20 DUP3 ADD SWAP1 POP PUSH2 0x53ED PUSH0 DUP4 ADD DUP5 PUSH2 0x4BFD JUMP JUMPDEST SWAP3 SWAP2 POP POP JUMP JUMPDEST PUSH2 0x53FC DUP2 PUSH2 0x4AD9 JUMP JUMPDEST DUP3 MSTORE POP POP JUMP JUMPDEST PUSH0 PUSH1 0x20 DUP3 ADD SWAP1 POP PUSH2 0x5415 PUSH0 DUP4 ADD DUP5 PUSH2 0x53F3 JUMP JUMPDEST SWAP3 SWAP2 POP POP JUMP JUMPDEST PUSH32 0x456D706C6F79656541737369676E6D656E743A20656D706C6F7965652063616E PUSH0 DUP3 ADD MSTORE PUSH32 0x6E6F74206265207A65726F206164647265737300000000000000000000000000 PUSH1 0x20 DUP3 ADD MSTORE POP JUMP JUMPDEST PUSH0 PUSH2 0x5475 PUSH1 0x33 DUP4 PUSH2 0x4D96 JUMP JUMPDEST SWAP2 POP PUSH2 0x5480 DUP3 PUSH2 0x541B JUMP JUMPDEST PUSH1 0x40 DUP3 ADD SWAP1 POP SWAP2 SWAP1 POP JUMP JUMPDEST PUSH0 PUSH1 0x20 DUP3 ADD SWAP1 POP DUP2 DUP2 SUB PUSH0 DUP4 ADD MSTORE PUSH2 0x54A2 DUP2 PUSH2 0x5469 JUMP JUMPDEST SWAP1 POP SWAP2 SWAP1 POP JUMP JUMPDEST PUSH32 0x456D706C6F79656541737369676E6D656E743A20656D706C6F79656520616C72 PUSH0 DUP3 ADD MSTORE PUSH32 0x6561647920686173207468697320726F6C650000000000000000000000000000 PUSH1 0x20 DUP3 ADD MSTORE POP JUMP JUMPDEST PUSH0 PUSH2 0x5503 PUSH1 0x32 DUP4 PUSH2 0x4D96 JUMP JUMPDEST SWAP2 POP PUSH2 0x550E DUP3 PUSH2 0x54A9 JUMP JUMPDEST PUSH1 0x40 DUP3 ADD SWAP1 POP SWAP2 SWAP1 POP JUMP JUMPDEST PUSH0 PUSH1 0x20 DUP3 ADD SWAP1 POP DUP2 DUP2 SUB PUSH0 DUP4 ADD MSTORE PUSH2 0x5530 DUP2 PUSH2 0x54F7 JUMP JUMPDEST SWAP1 POP SWAP2 SWAP1 POP JUMP JUMPDEST PUSH0 PUSH2 0x5541 DUP3 PUSH2 0x4AA8 JUMP JUMPDEST SWAP2 POP PUSH32 0xFFFFFFFFFFFFFFFFFFFFFFFFFFFFFFFFFFFFFFFFFFFFFFFFFFFFFFFFFFFFFFFF DUP3 SUB PUSH2 0x5573 JUMPI PUSH2 0x5572 PUSH2 0x506C JUMP JUMPDEST JUMPDEST PUSH1 0x1 DUP3 ADD SWAP1 POP SWAP2 SWAP1 POP JUMP JUMPDEST PUSH0 PUSH2 0x5588 DUP3 PUSH2 0x4AA8 JUMP JUMPDEST SWAP2 POP PUSH2 0x5593 DUP4 PUSH2 0x4AA8 JUMP JUMPDEST SWAP3 POP DUP3 DUP3 MUL PUSH2 0x55A1 DUP2 PUSH2 0x4AA8 JUMP JUMPDEST SWAP2 POP DUP3 DUP3 DIV DUP5 EQ DUP4 ISZERO OR PUSH2 0x55B8 JUMPI PUSH2 0x55B7 PUSH2 0x506C JUMP JUMPDEST JUMPDEST POP SWAP3 SWAP2 POP POP JUMP JUMPDEST PUSH32 0x4E487B7100000000000000000000000000000000000000000000000000000000 PUSH0 MSTORE PUSH1 0x12 PUSH1 0x4 MSTORE PUSH1 0x24 PUSH0 REVERT JUMPDEST PUSH0 PUSH2 0x55F6 DUP3 PUSH2 0x4AA8 JUMP JUMPDEST SWAP2 POP PUSH2 0x5601 DUP4 PUSH2 0x4AA8 JUMP JUMPDEST SWAP3 POP DUP3 PUSH2 0x5611 JUMPI PUSH2 0x5610 PUSH2 0x55BF JUMP JUMPDEST JUMPDEST DUP3 DUP3 DIV SWAP1 POP SWAP3 SWAP2 POP POP JUMP JUMPDEST PUSH0 PUSH1 0x40 DUP3 ADD SWAP1 POP PUSH2 0x562F PUSH0 DUP4 ADD DUP6 PUSH2 0x4AB1 JUMP JUMPDEST PUSH2 0x563C PUSH1 0x20 DUP4 ADD DUP5 PUSH2 0x4AB1 JUMP JUMPDEST SWAP4 SWAP3 POP POP POP JUMP JUMPDEST PUSH0 PUSH1 0x60 DUP3 ADD SWAP1 POP PUSH2 0x5656 PUSH0 DUP4 ADD DUP7 PUSH2 0x4AB1 JUMP JUMPDEST PUSH2 0x5663 PUSH1 0x20 DUP4 ADD DUP6 PUSH2 0x4AB1 JUMP JUMPDEST PUSH2 0x5670 PUSH1 0x40 DUP4 ADD DUP5 PUSH2 0x4AB1 JUMP JUMPDEST SWAP5 SWAP4 POP POP POP POP JUMP JUMPDEST PUSH32 0x4469736275727365206661696C65640000000000000000000000000000000000 PUSH0 DUP3 ADD MSTORE POP JUMP JUMPDEST PUSH0 PUSH2 0x56AC PUSH1 0xF DUP4 PUSH2 0x4D96 JUMP JUMPDEST SWAP2 POP PUSH2 0x56B7 DUP3 PUSH2 0x5678 JUMP JUMPDEST PUSH1 0x20 DUP3 ADD SWAP1 POP SWAP2 SWAP1 POP JUMP JUMPDEST PUSH0 PUSH1 0x20 DUP3 ADD SWAP1 POP DUP2 DUP2 SUB PUSH0 DUP4 ADD MSTORE PUSH2 0x56D9 DUP2 PUSH2 0x56A0 JUMP JUMPDEST SWAP1 POP SWAP2 SWAP1 POP JUMP JUMPDEST PUSH32 0x436F6C6C61746572616C206661696C656420746F2073656E6421000000000000 PUSH0 DUP3 ADD MSTORE POP JUMP JUMPDEST PUSH0 PUSH2 0x5714 PUSH1 0x1A DUP4 PUSH2 0x4D96 JUMP JUMPDEST SWAP2 POP PUSH2 0x571F DUP3 PUSH2 0x56E0 JUMP JUMPDEST PUSH1 0x20 DUP3 ADD SWAP1 POP SWAP2 SWAP1 POP JUMP JUMPDEST PUSH0 PUSH1 0x20 DUP3 ADD SWAP1 POP DUP2 DUP2 SUB PUSH0 DUP4 ADD MSTORE PUSH2 0x5741 DUP2 PUSH2 0x5708 JUMP JUMPDEST SWAP1 POP SWAP2 SWAP1 POP JUMP JUMPDEST PUSH32 0x5265656E7472616E637947756172643A207265656E7472616E742063616C6C00 PUSH0 DUP3 ADD MSTORE POP JUMP JUMPDEST PUSH0 PUSH2 0x577C PUSH1 0x1F DUP4 PUSH2 0x4D96 JUMP JUMPDEST SWAP2 POP PUSH2 0x5787 DUP3 PUSH2 0x5748 JUMP JUMPDEST PUSH1 0x20 DUP3 ADD SWAP1 POP SWAP2 SWAP1 POP JUMP JUMPDEST PUSH0 PUSH1 0x20 DUP3 ADD SWAP1 POP DUP2 DUP2 SUB PUSH0 DUP4 ADD MSTORE PUSH2 0x57A9 DUP2 PUSH2 0x5770 JUMP JUMPDEST SWAP1 POP SWAP2 SWAP1 POP JUMP JUMPDEST PUSH32 0x456D706C6F79656541737369676E6D656E743A207A65726F2061646472657373 PUSH0 DUP3 ADD MSTORE PUSH32 0x206E6F7420616C6C6F7765640000000000000000000000000000000000000000 PUSH1 0x20 DUP3 ADD MSTORE POP JUMP JUMPDEST PUSH0 PUSH2 0x580A PUSH1 0x2C DUP4 PUSH2 0x4D96 JUMP JUMPDEST SWAP2 POP PUSH2 0x5815 DUP3 PUSH2 0x57B0 JUMP JUMPDEST PUSH1 0x40 DUP3 ADD SWAP1 POP SWAP2 SWAP1 POP JUMP JUMPDEST PUSH0 PUSH1 0x20 DUP3 ADD SWAP1 POP DUP2 DUP2 SUB PUSH0 DUP4 ADD MSTORE PUSH2 0x5837 DUP2 PUSH2 0x57FE JUMP JUMPDEST SWAP1 POP SWAP2 SWAP1 POP JUMP JUMPDEST PUSH0 DUP2 MLOAD SWAP1 POP SWAP2 SWAP1 POP JUMP JUMPDEST DUP3 DUP2 DUP4 MCOPY PUSH0 DUP4 DUP4 ADD MSTORE POP POP POP JUMP JUMPDEST PUSH0 PUSH2 0x5860 DUP3 PUSH2 0x583E JUMP JUMPDEST PUSH2 0x586A DUP2 DUP6 PUSH2 0x4F30 JUMP JUMPDEST SWAP4 POP PUSH2 0x587A DUP2 DUP6 PUSH1 0x20 DUP7 ADD PUSH2 0x5848 JUMP JUMPDEST DUP1 DUP5 ADD SWAP2 POP POP SWAP3 SWAP2 POP POP JUMP JUMPDEST PUSH0 PUSH2 0x5891 DUP3 DUP5 PUSH2 0x5856 JUMP JUMPDEST SWAP2 POP DUP2 SWAP1 POP SWAP3 SWAP2 POP POP JUMP JUMPDEST PUSH0 DUP2 MLOAD SWAP1 POP SWAP2 SWAP1 POP JUMP JUMPDEST PUSH0 PUSH2 0x58B0 DUP3 PUSH2 0x589C JUMP JUMPDEST PUSH2 0x58BA DUP2 DUP6 PUSH2 0x4D96 JUMP JUMPDEST SWAP4 POP PUSH2 0x58CA DUP2 DUP6 PUSH1 0x20 DUP7 ADD PUSH2 0x5848 JUMP JUMPDEST PUSH2 0x58D3 DUP2 PUSH2 0x50C0 JUMP JUMPDEST DUP5 ADD SWAP2 POP POP SWAP3 SWAP2 POP POP JUMP JUMPDEST PUSH0 PUSH1 0x20 DUP3 ADD SWAP1 POP DUP2 DUP2 SUB PUSH0 DUP4 ADD MSTORE PUSH2 0x58F6 DUP2 DUP5 PUSH2 0x58A6 JUMP JUMPDEST SWAP1 POP SWAP3 SWAP2 POP POP JUMP INVALID LOG2 PUSH5 0x6970667358 0x22 SLT KECCAK256 0xD4 ISZERO 0xAA DUP2 0xB4 0xB1 0x24 0x4D DUP3 0x26 0xDB SELFDESTRUCT 0x26 LOG1 0x27 0xA6 PUSH29 0xB7573E40017C170F8732A9E20C465B64736F6C634300081E0033000000 "
		},
		"gasEstimates": {
			"creation": {
				"codeDepositCost": "4567200",
				"executionCost": "29592",
				"totalCost": "4596792"
			},
			"external": {
				"TotalLoan()": "5092",
				"approveLoan(uint256)": "infinite",
				"assignNewEmployee(address,string)": "infinite",
				"blacklist(address)": "2943",
				"changeOwner(address)": "infinite",
				"checkAndProcessLoan(uint256)": "infinite",
				"collateralRatioPercent()": "2562",
				"employeeCount()": "2471",
				"hasRole(address,string)": "infinite",
				"initialize(address,address)": "infinite",
				"loanInfo(uint256)": "infinite",
				"loans(uint256)": "infinite",
				"maxNPLPercent()": "2584",
				"monthlyInterestPercent()": "2532",
				"payMonthly(uint256,uint256)": "infinite",
				"penaltyPercent()": "2564",
				"rejectLoan(uint256)": "infinite",
				"removeEmployee(address,string)": "infinite",
				"requestLoan(uint256,uint256)": "infinite",
				"setCollateralRatioPercent(uint16)": "infinite",
				"setLogicAdminContract(address)": "30795",
				"setManagementWallet(address)": "infinite",
				"setMaxNPLPercent(uint16)": "infinite",
				"setMonthlyInterestPercent(uint16)": "infinite",
				"setPenaltyPercent(uint16)": "infinite",
				"strikes(address)": "2869",
				"takeProfits()": "infinite",
				"totalProfits()": "2536",
				"unblacklist(address)": "infinite"
			},
			"internal": {
				"_delegateTo(address,bytes memory,string memory)": "infinite",
				"_finalLiquidation(uint256)": "infinite",
				"_invalidId(uint256)": "infinite",
				"_liquidateForConsecutiveMisses(uint256,uint256)": "infinite",
				"_monthsSince(uint256,uint256)": "infinite",
				"currentNPL()": "infinite",
				"loansAllowed()": "infinite",
				"monthlyDue(uint256)": "infinite"
			}
		},
		"methodIdentifiers": {
			"TotalLoan()": "4492b5c9",
			"approveLoan(uint256)": "aadc1ac1",
			"assignNewEmployee(address,string)": "a5623ffc",
			"blacklist(address)": "f9f92be4",
			"changeOwner(address)": "a6f9dae1",
			"checkAndProcessLoan(uint256)": "5b4d76f1",
			"collateralRatioPercent()": "d682dab5",
			"employeeCount()": "9047bf58",
			"hasRole(address,string)": "217fe6c6",
			"initialize(address,address)": "485cc955",
			"loanInfo(uint256)": "8349d6be",
			"loans(uint256)": "e1ec3c68",
			"maxNPLPercent()": "de2cf972",
			"monthlyInterestPercent()": "f013e4b5",
			"payMonthly(uint256,uint256)": "e7774868",
			"penaltyPercent()": "161ba46a",
			"rejectLoan(uint256)": "5d29cb98",
			"removeEmployee(address,string)": "559b9b4c",
			"requestLoan(uint256,uint256)": "aa452fa6",
			"setCollateralRatioPercent(uint16)": "92af38d9",
			"setLogicAdminContract(address)": "549defb4",
			"setManagementWallet(address)": "7be9878b",
			"setMaxNPLPercent(uint16)": "f0d3361b",
			"setMonthlyInterestPercent(uint16)": "26c8d0ae",
			"setPenaltyPercent(uint16)": "e7fad70a",
			"strikes(address)": "7794e3fd",
			"takeProfits()": "23e77db3",
			"totalProfits()": "bd998cb3",
			"unblacklist(address)": "75e3661e"
		}
	},
	"abi": [
		{
			"inputs": [
				{
					"internalType": "address",
					"name": "user",
					"type": "address"
				}
			],
			"name": "Blacklisted",
			"type": "error"
		},
		{
			"inputs": [
				{
					"internalType": "uint256",
					"name": "required",
					"type": "uint256"
				},
				{
					"internalType": "uint256",
					"name": "available",
					"type": "uint256"
				}
			],
			"name": "ContractLiquidityInsufficient",
			"type": "error"
		},
		{
			"inputs": [
				{
					"internalType": "string",
					"name": "fn",
					"type": "string"
				}
			],
			"name": "DelegateCallFailed",
			"type": "error"
		},
		{
			"inputs": [
				{
					"internalType": "uint256",
					"name": "required",
					"type": "uint256"
				},
				{
					"internalType": "uint256",
					"name": "provided",
					"type": "uint256"
				}
			],
			"name": "InsufficientCollateral",
			"type": "error"
		},
		{
			"inputs": [],
			"name": "InvalidDuration",
			"type": "error"
		},
		{
			"inputs": [],
			"name": "InvalidInitialization",
			"type": "error"
		},
		{
			"inputs": [
				{
					"internalType": "uint256",
					"name": "id",
					"type": "uint256"
				}
			],
			"name": "InvalidLoanId",
			"type": "error"
		},
		{
			"inputs": [],
			"name": "InvalidPrincipal",
			"type": "error"
		},
		{
			"inputs": [],
			"name": "LoanInactiveOrLiquidated",
			"type": "error"
		},
		{
			"inputs": [],
			"name": "NewLoansBlocked",
			"type": "error"
		},
		{
			"inputs": [
				{
					"internalType": "address",
					"name": "user",
					"type": "address"
				}
			],
			"name": "NotBlacklisted",
			"type": "error"
		},
		{
			"inputs": [],
			"name": "NotBorrower",
			"type": "error"
		},
		{
			"inputs": [],
			"name": "NotInitializing",
			"type": "error"
		},
		{
			"inputs": [
				{
					"internalType": "uint256",
					"name": "expected",
					"type": "uint256"
				},
				{
					"internalType": "uint256",
					"name": "received",
					"type": "uint256"
				}
			],
			"name": "PaymentValueMismatch",
			"type": "error"
		},
		{
			"inputs": [],
			"name": "ZeroAddress",
			"type": "error"
		},
		{
			"anonymous": false,
			"inputs": [
				{
					"indexed": true,
					"internalType": "address",
					"name": "oldContract",
					"type": "address"
				},
				{
					"indexed": true,
					"internalType": "address",
					"name": "newContract",
					"type": "address"
				}
			],
			"name": "AdminLogicChanged",
			"type": "event"
		},
		{
			"anonymous": false,
			"inputs": [
				{
					"indexed": true,
					"internalType": "address",
					"name": "borrower",
					"type": "address"
				}
			],
			"name": "Blacklistedi",
			"type": "event"
		},
		{
			"anonymous": false,
			"inputs": [
				{
					"indexed": false,
					"internalType": "uint256",
					"name": "oldValue",
					"type": "uint256"
				},
				{
					"indexed": false,
					"internalType": "uint256",
					"name": "newValue",
					"type": "uint256"
				}
			],
			"name": "CollateralRatioChanged",
			"type": "event"
		},
		{
			"anonymous": false,
			"inputs": [
				{
					"indexed": true,
					"internalType": "address",
					"name": "employee",
					"type": "address"
				},
				{
					"indexed": false,
					"internalType": "string",
					"name": "role",
					"type": "string"
				}
			],
			"name": "EmployeeAssigned",
			"type": "event"
		},
		{
			"anonymous": false,
			"inputs": [
				{
					"indexed": true,
					"internalType": "address",
					"name": "employee",
					"type": "address"
				},
				{
					"indexed": false,
					"internalType": "string",
					"name": "role",
					"type": "string"
				}
			],
			"name": "EmployeeRemoved",
			"type": "event"
		},
		{
			"anonymous": false,
			"inputs": [
				{
					"indexed": true,
					"internalType": "address",
					"name": "managementWallet",
					"type": "address"
				},
				{
					"indexed": true,
					"internalType": "address",
					"name": "AdminLogic",
					"type": "address"
				}
			],
			"name": "InitialAddress",
			"type": "event"
		},
		{
			"anonymous": false,
			"inputs": [
				{
					"indexed": false,
					"internalType": "uint64",
					"name": "version",
					"type": "uint64"
				}
			],
			"name": "Initialized",
			"type": "event"
		},
		{
			"anonymous": false,
			"inputs": [
				{
					"indexed": false,
					"internalType": "uint256",
					"name": "oldValue",
					"type": "uint256"
				},
				{
					"indexed": false,
					"internalType": "uint256",
					"name": "newValue",
					"type": "uint256"
				}
			],
			"name": "InterestRateChanged",
			"type": "event"
		},
		{
			"anonymous": false,
			"inputs": [
				{
					"indexed": true,
					"internalType": "uint256",
					"name": "loanId",
					"type": "uint256"
				},
				{
					"indexed": true,
					"internalType": "address",
					"name": "borrower",
					"type": "address"
				},
				{
					"indexed": false,
					"internalType": "uint256",
					"name": "startTimestamp",
					"type": "uint256"
				}
			],
			"name": "LoanApproved",
			"type": "event"
		},
		{
			"anonymous": false,
			"inputs": [
				{
					"indexed": true,
					"internalType": "uint256",
					"name": "loanId",
					"type": "uint256"
				},
				{
					"indexed": true,
					"internalType": "address",
					"name": "borrower",
					"type": "address"
				},
				{
					"indexed": false,
					"internalType": "uint256",
					"name": "amount",
					"type": "uint256"
				}
			],
			"name": "LoanDisbursed",
			"type": "event"
		},
		{
			"anonymous": false,
			"inputs": [
				{
					"indexed": true,
					"internalType": "uint256",
					"name": "loanId",
					"type": "uint256"
				},
				{
					"indexed": true,
					"internalType": "address",
					"name": "borrower",
					"type": "address"
				},
				{
					"indexed": false,
					"internalType": "uint256",
					"name": "collateralUsed",
					"type": "uint256"
				},
				{
					"indexed": false,
					"internalType": "uint256",
					"name": "deficitCovered",
					"type": "uint256"
				},
				{
					"indexed": false,
					"internalType": "uint256",
					"name": "profitFromCollateral",
					"type": "uint256"
				}
			],
			"name": "LoanLiquidated",
			"type": "event"
		},
		{
			"anonymous": false,
			"inputs": [
				{
					"indexed": true,
					"internalType": "uint256",
					"name": "loanId",
					"type": "uint256"
				},
				{
					"indexed": true,
					"internalType": "address",
					"name": "borrower",
					"type": "address"
				},
				{
					"indexed": false,
					"internalType": "uint256",
					"name": "principal",
					"type": "uint256"
				},
				{
					"indexed": false,
					"internalType": "uint256",
					"name": "durationMonths",
					"type": "uint256"
				},
				{
					"indexed": false,
					"internalType": "uint256",
					"name": "collateral",
					"type": "uint256"
				}
			],
			"name": "LoanRequested",
			"type": "event"
		},
		{
			"anonymous": false,
			"inputs": [
				{
					"indexed": false,
					"internalType": "address",
					"name": "oldWallet",
					"type": "address"
				},
				{
					"indexed": false,
					"internalType": "address",
					"name": "newWallet",
					"type": "address"
				}
			],
			"name": "ManagementWalletChanged",
			"type": "event"
		},
		{
			"anonymous": false,
			"inputs": [
				{
					"indexed": false,
					"internalType": "uint256",
					"name": "oldValue",
					"type": "uint256"
				},
				{
					"indexed": false,
					"internalType": "uint256",
					"name": "newValue",
					"type": "uint256"
				}
			],
			"name": "MaxNPLChanged",
			"type": "event"
		},
		{
			"anonymous": false,
			"inputs": [
				{
					"indexed": true,
					"internalType": "uint256",
					"name": "loanId",
					"type": "uint256"
				},
				{
					"indexed": false,
					"internalType": "uint256",
					"name": "missedCount",
					"type": "uint256"
				}
			],
			"name": "MonthMissed",
			"type": "event"
		},
		{
			"anonymous": false,
			"inputs": [
				{
					"indexed": true,
					"internalType": "uint256",
					"name": "loanId",
					"type": "uint256"
				},
				{
					"indexed": true,
					"internalType": "address",
					"name": "payer",
					"type": "address"
				},
				{
					"indexed": false,
					"internalType": "uint256",
					"name": "amount",
					"type": "uint256"
				},
				{
					"indexed": false,
					"internalType": "uint256",
					"name": "monthIndex",
					"type": "uint256"
				}
			],
			"name": "MonthlyPaymentMade",
			"type": "event"
		},
		{
			"anonymous": false,
			"inputs": [
				{
					"indexed": true,
					"internalType": "address",
					"name": "oldOwner",
					"type": "address"
				},
				{
					"indexed": true,
					"internalType": "address",
					"name": "newOwner",
					"type": "address"
				}
			],
			"name": "OwnerChanged",
			"type": "event"
		},
		{
			"anonymous": false,
			"inputs": [
				{
					"indexed": false,
					"internalType": "uint256",
					"name": "oldValue",
					"type": "uint256"
				},
				{
					"indexed": false,
					"internalType": "uint256",
					"name": "newValue",
					"type": "uint256"
				}
			],
			"name": "PenaltyPercentChanged",
			"type": "event"
		},
		{
			"anonymous": false,
			"inputs": [
				{
					"indexed": true,
					"internalType": "address",
					"name": "to",
					"type": "address"
				},
				{
					"indexed": false,
					"internalType": "uint256",
					"name": "amount",
					"type": "uint256"
				}
			],
			"name": "ProfitTaken",
			"type": "event"
		},
		{
			"anonymous": false,
			"inputs": [
				{
					"indexed": true,
					"internalType": "address",
					"name": "borrower",
					"type": "address"
				},
				{
					"indexed": false,
					"internalType": "uint256",
					"name": "strikes",
					"type": "uint256"
				}
			],
			"name": "StrikeAdded",
			"type": "event"
		},
		{
			"anonymous": false,
			"inputs": [
				{
					"indexed": true,
					"internalType": "address",
					"name": "borrower",
					"type": "address"
				}
			],
			"name": "UnBlacklisted",
			"type": "event"
		},
		{
			"inputs": [],
			"name": "TotalLoan",
			"outputs": [
				{
					"internalType": "uint256",
					"name": "",
					"type": "uint256"
				}
			],
			"stateMutability": "view",
			"type": "function"
		},
		{
			"inputs": [
				{
					"internalType": "uint256",
					"name": "loanId",
					"type": "uint256"
				}
			],
			"name": "approveLoan",
			"outputs": [],
			"stateMutability": "nonpayable",
			"type": "function"
		},
		{
			"inputs": [
				{
					"internalType": "address",
					"name": "newEmployee",
					"type": "address"
				},
				{
					"internalType": "string",
					"name": "role",
					"type": "string"
				}
			],
			"name": "assignNewEmployee",
			"outputs": [],
			"stateMutability": "nonpayable",
			"type": "function"
		},
		{
			"inputs": [
				{
					"internalType": "address",
					"name": "",
					"type": "address"
				}
			],
			"name": "blacklist",
			"outputs": [
				{
					"internalType": "bool",
					"name": "",
					"type": "bool"
				}
			],
			"stateMutability": "view",
			"type": "function"
		},
		{
			"inputs": [
				{
					"internalType": "address",
					"name": "newOwner",
					"type": "address"
				}
			],
			"name": "changeOwner",
			"outputs": [],
			"stateMutability": "nonpayable",
			"type": "function"
		},
		{
			"inputs": [
				{
					"internalType": "uint256",
					"name": "loanId",
					"type": "uint256"
				}
			],
			"name": "checkAndProcessLoan",
			"outputs": [],
			"stateMutability": "nonpayable",
			"type": "function"
		},
		{
			"inputs": [],
			"name": "collateralRatioPercent",
			"outputs": [
				{
					"internalType": "uint16",
					"name": "",
					"type": "uint16"
				}
			],
			"stateMutability": "view",
			"type": "function"
		},
		{
			"inputs": [],
			"name": "employeeCount",
			"outputs": [
				{
					"internalType": "uint256",
					"name": "",
					"type": "uint256"
				}
			],
			"stateMutability": "view",
			"type": "function"
		},
		{
			"inputs": [
				{
					"internalType": "address",
					"name": "account",
					"type": "address"
				},
				{
					"internalType": "string",
					"name": "role",
					"type": "string"
				}
			],
			"name": "hasRole",
			"outputs": [
				{
					"internalType": "bool",
					"name": "",
					"type": "bool"
				}
			],
			"stateMutability": "view",
			"type": "function"
		},
		{
			"inputs": [
				{
					"internalType": "address payable",
					"name": "_managementWallet",
					"type": "address"
				},
				{
					"internalType": "address",
					"name": "_AdminLogic",
					"type": "address"
				}
			],
			"name": "initialize",
			"outputs": [],
			"stateMutability": "nonpayable",
			"type": "function"
		},
		{
			"inputs": [
				{
					"internalType": "uint256",
					"name": "loanId",
					"type": "uint256"
				}
			],
			"name": "loanInfo",
			"outputs": [
				{
					"internalType": "address",
					"name": "borrower",
					"type": "address"
				},
				{
					"internalType": "uint256",
					"name": "principal",
					"type": "uint256"
				},
				{
					"internalType": "uint256",
					"name": "durationMonths",
					"type": "uint256"
				},
				{
					"internalType": "uint256",
					"name": "startTimestamp",
					"type": "uint256"
				},
				{
					"internalType": "uint256",
					"name": "paidMonths",
					"type": "uint256"
				},
				{
					"internalType": "uint256",
					"name": "consecutiveMissed",
					"type": "uint256"
				},
				{
					"internalType": "uint256",
					"name": "remainingPrincipal",
					"type": "uint256"
				},
				{
					"internalType": "uint256",
					"name": "collateral",
					"type": "uint256"
				},
				{
					"internalType": "bool",
					"name": "liquidated",
					"type": "bool"
				},
				{
					"internalType": "bool",
					"name": "active",
					"type": "bool"
				}
			],
			"stateMutability": "view",
			"type": "function"
		},
		{
			"inputs": [
				{
					"internalType": "uint256",
					"name": "",
					"type": "uint256"
				}
			],
			"name": "loans",
			"outputs": [
				{
					"internalType": "address",
					"name": "borrower",
					"type": "address"
				},
				{
					"internalType": "uint256",
					"name": "principal",
					"type": "uint256"
				},
				{
					"internalType": "uint256",
					"name": "durationMonths",
					"type": "uint256"
				},
				{
					"internalType": "uint256",
					"name": "startTimestamp",
					"type": "uint256"
				},
				{
					"internalType": "uint256",
					"name": "paidMonths",
					"type": "uint256"
				},
				{
					"internalType": "uint256",
					"name": "consecutiveMissed",
					"type": "uint256"
				},
				{
					"internalType": "uint256",
					"name": "remainingPrincipal",
					"type": "uint256"
				},
				{
					"internalType": "uint256",
					"name": "collateral",
					"type": "uint256"
				},
				{
					"internalType": "bool",
					"name": "liquidated",
					"type": "bool"
				},
				{
					"internalType": "bool",
					"name": "active",
					"type": "bool"
				}
			],
			"stateMutability": "view",
			"type": "function"
		},
		{
			"inputs": [],
			"name": "maxNPLPercent",
			"outputs": [
				{
					"internalType": "uint16",
					"name": "",
					"type": "uint16"
				}
			],
			"stateMutability": "view",
			"type": "function"
		},
		{
			"inputs": [],
			"name": "monthlyInterestPercent",
			"outputs": [
				{
					"internalType": "uint16",
					"name": "",
					"type": "uint16"
				}
			],
			"stateMutability": "view",
			"type": "function"
		},
		{
			"inputs": [
				{
					"internalType": "uint256",
					"name": "loanId",
					"type": "uint256"
				},
				{
					"internalType": "uint256",
					"name": "monthsToPay",
					"type": "uint256"
				}
			],
			"name": "payMonthly",
			"outputs": [],
			"stateMutability": "payable",
			"type": "function"
		},
		{
			"inputs": [],
			"name": "penaltyPercent",
			"outputs": [
				{
					"internalType": "uint16",
					"name": "",
					"type": "uint16"
				}
			],
			"stateMutability": "view",
			"type": "function"
		},
		{
			"inputs": [
				{
					"internalType": "uint256",
					"name": "loanId",
					"type": "uint256"
				}
			],
			"name": "rejectLoan",
			"outputs": [],
			"stateMutability": "nonpayable",
			"type": "function"
		},
		{
			"inputs": [
				{
					"internalType": "address",
					"name": "employee",
					"type": "address"
				},
				{
					"internalType": "string",
					"name": "role",
					"type": "string"
				}
			],
			"name": "removeEmployee",
			"outputs": [],
			"stateMutability": "nonpayable",
			"type": "function"
		},
		{
			"inputs": [
				{
					"internalType": "uint256",
					"name": "principalInETH",
					"type": "uint256"
				},
				{
					"internalType": "uint256",
					"name": "durationMonths",
					"type": "uint256"
				}
			],
			"name": "requestLoan",
			"outputs": [],
			"stateMutability": "payable",
			"type": "function"
		},
		{
			"inputs": [
				{
					"internalType": "uint16",
					"name": "p",
					"type": "uint16"
				}
			],
			"name": "setCollateralRatioPercent",
			"outputs": [],
			"stateMutability": "nonpayable",
			"type": "function"
		},
		{
			"inputs": [
				{
					"internalType": "address",
					"name": "_AdminLogic",
					"type": "address"
				}
			],
			"name": "setLogicAdminContract",
			"outputs": [],
			"stateMutability": "nonpayable",
			"type": "function"
		},
		{
			"inputs": [
				{
					"internalType": "address payable",
					"name": "w",
					"type": "address"
				}
			],
			"name": "setManagementWallet",
			"outputs": [],
			"stateMutability": "nonpayable",
			"type": "function"
		},
		{
			"inputs": [
				{
					"internalType": "uint16",
					"name": "p",
					"type": "uint16"
				}
			],
			"name": "setMaxNPLPercent",
			"outputs": [],
			"stateMutability": "nonpayable",
			"type": "function"
		},
		{
			"inputs": [
				{
					"internalType": "uint16",
					"name": "p",
					"type": "uint16"
				}
			],
			"name": "setMonthlyInterestPercent",
			"outputs": [],
			"stateMutability": "nonpayable",
			"type": "function"
		},
		{
			"inputs": [
				{
					"internalType": "uint16",
					"name": "p",
					"type": "uint16"
				}
			],
			"name": "setPenaltyPercent",
			"outputs": [],
			"stateMutability": "nonpayable",
			"type": "function"
		},
		{
			"inputs": [
				{
					"internalType": "address",
					"name": "",
					"type": "address"
				}
			],
			"name": "strikes",
			"outputs": [
				{
					"internalType": "uint256",
					"name": "",
					"type": "uint256"
				}
			],
			"stateMutability": "view",
			"type": "function"
		},
		{
			"inputs": [],
			"name": "takeProfits",
			"outputs": [],
			"stateMutability": "nonpayable",
			"type": "function"
		},
		{
			"inputs": [],
			"name": "totalProfits",
			"outputs": [
				{
					"internalType": "uint256",
					"name": "",
					"type": "uint256"
				}
			],
			"stateMutability": "view",
			"type": "function"
		},
		{
			"inputs": [
				{
					"internalType": "address",
					"name": "user",
					"type": "address"
				}
			],
			"name": "unblacklist",
			"outputs": [],
			"stateMutability": "nonpayable",
			"type": "function"
		},
		{
			"stateMutability": "payable",
			"type": "receive"
		}
	]
}