{
	"data": {
		"bytecode": {
			"linkReferences": {},
			"object": "608060405234801561000f575f5ffd5b506040516160c63803806160c683398181016040528101906100319190610244565b335f5f6101000a81548173ffffffffffffffffffffffffffffffffffffffff021916908373ffffffffffffffffffffffffffffffffffffffff16021790555060016003819055505f73ffffffffffffffffffffffffffffffffffffffff168173ffffffffffffffffffffffffffffffffffffffff16036100e6576040517f08c379a00000000000000000000000000000000000000000000000000000000081526004016100dd906102c9565b60405180910390fd5b8060075f6101000a81548173ffffffffffffffffffffffffffffffffffffffff021916908373ffffffffffffffffffffffffffffffffffffffff160217905550600260055f6101000a81548161ffff021916908361ffff1602179055506001600560026101000a81548161ffff021916908361ffff1602179055506032600560046101000a81548161ffff021916908361ffff1602179055506014600560066101000a81548161ffff021916908361ffff1602179055508073ffffffffffffffffffffffffffffffffffffffff167f6a92b2b1dac24378528816100cbbcd6428939c33c47425a39e3c9c506557ae3560405160405180910390a2506102e7565b5f5ffd5b5f73ffffffffffffffffffffffffffffffffffffffff82169050919050565b5f610213826101ea565b9050919050565b61022381610209565b811461022d575f5ffd5b50565b5f8151905061023e8161021a565b92915050565b5f60208284031215610259576102586101e6565b5b5f61026684828501610230565b91505092915050565b5f82825260208201905092915050565b7f4572723a207a65726f20616464722100000000000000000000000000000000005f82015250565b5f6102b3600f8361026f565b91506102be8261027f565b602082019050919050565b5f6020820190508181035f8301526102e0816102a7565b9050919050565b615dd2806102f45f395ff3fe608060405260043610610184575f3560e01c806392af38d9116100d0578063de2cf97211610089578063e7fad70a11610063578063e7fad70a14610543578063f013e4b51461056b578063f0d3361b14610595578063f9f92be4146105bd5761018b565b8063de2cf972146104b8578063e1ec3c68146104e2578063e7774868146105275761018b565b806392af38d9146103d0578063a5623ffc146103f8578063aa452fa614610420578063aadc1ac11461043c578063bd998cb314610464578063d682dab51461048e5761018b565b80635b4d76f11161013d5780637794e3fd116101175780637794e3fd146102fd5780637be9878b146103395780638349d6be146103615780639047bf58146103a65761018b565b80635b4d76f1146102855780635d29cb98146102ad57806375e3661e146102d55761018b565b8063161ba46a1461018f578063217fe6c6146101b957806323e77db3146101f557806326c8d0ae1461020b5780634492b5c914610233578063559b9b4c1461025d5761018b565b3661018b57005b5f5ffd5b34801561019a575f5ffd5b506101a36105f9565b6040516101b09190614245565b60405180910390f35b3480156101c4575f5ffd5b506101df60048036038101906101da9190614321565b61060d565b6040516101ec9190614398565b60405180910390f35b348015610200575f5ffd5b5061020961067f565b005b348015610216575f5ffd5b50610231600480360381019061022c91906143db565b6108c6565b005b34801561023e575f5ffd5b50610247610a71565b604051610254919061441e565b60405180910390f35b348015610268575f5ffd5b50610283600480360381019061027e9190614321565b610b29565b005b348015610290575f5ffd5b506102ab60048036038101906102a69190614461565b610dd1565b005b3480156102b8575f5ffd5b506102d360048036038101906102ce9190614461565b611078565b005b3480156102e0575f5ffd5b506102fb60048036038101906102f6919061448c565b61133e565b005b348015610308575f5ffd5b50610323600480360381019061031e919061448c565b611516565b604051610330919061441e565b60405180910390f35b348015610344575f5ffd5b5061035f600480360381019061035a91906144f2565b61152b565b005b34801561036c575f5ffd5b5061038760048036038101906103829190614461565b611755565b60405161039d9a9998979695949392919061452c565b60405180910390f35b3480156103b1575f5ffd5b506103ba6118b9565b6040516103c7919061441e565b60405180910390f35b3480156103db575f5ffd5b506103f660048036038101906103f191906143db565b6118bf565b005b348015610403575f5ffd5b5061041e60048036038101906104199190614321565b611a6c565b005b61043a600480360381019061043591906145c6565b611d84565b005b348015610447575f5ffd5b50610462600480360381019061045d9190614461565b612268565b005b34801561046f575f5ffd5b50610478612624565b604051610485919061441e565b60405180910390f35b348015610499575f5ffd5b506104a261262a565b6040516104af9190614245565b60405180910390f35b3480156104c3575f5ffd5b506104cc61263e565b6040516104d99190614245565b60405180910390f35b3480156104ed575f5ffd5b5061050860048036038101906105039190614461565b612652565b60405161051e9a9998979695949392919061452c565b60405180910390f35b610541600480360381019061053c91906145c6565b6126e9565b005b34801561054e575f5ffd5b50610569600480360381019061056491906143db565b612e02565b005b348015610576575f5ffd5b5061057f612faf565b60405161058c9190614245565b60405180910390f35b3480156105a0575f5ffd5b506105bb60048036038101906105b691906143db565b612fc2565b005b3480156105c8575f5ffd5b506105e360048036038101906105de919061448c565b613129565b6040516105f09190614398565b60405180910390f35b600560029054906101000a900461ffff1681565b5f60025f8573ffffffffffffffffffffffffffffffffffffffff1673ffffffffffffffffffffffffffffffffffffffff1681526020019081526020015f20838360405161065b929190614640565b90815260200160405180910390205f9054906101000a900460ff1690509392505050565b60025f3373ffffffffffffffffffffffffffffffffffffffff1673ffffffffffffffffffffffffffffffffffffffff1681526020019081526020015f206040516106c8906146a2565b90815260200160405180910390205f9054906101000a900460ff16610722576040517f08c379a000000000000000000000000000000000000000000000000000000000815260040161071990614736565b60405180910390fd5b61072a613146565b61073333613195565b5f60065490505f811161077b576040517f08c379a00000000000000000000000000000000000000000000000000000000081526004016107729061479e565b60405180910390fd5b5f6006819055505f60075f9054906101000a900473ffffffffffffffffffffffffffffffffffffffff1673ffffffffffffffffffffffffffffffffffffffff16826040516107c8906147e9565b5f6040518083038185875af1925050503d805f8114610802576040519150601f19603f3d011682016040523d82523d5f602084013e610807565b606091505b505090508061084b576040517f08c379a000000000000000000000000000000000000000000000000000000000815260040161084290614847565b60405180910390fd5b60075f9054906101000a900473ffffffffffffffffffffffffffffffffffffffff1673ffffffffffffffffffffffffffffffffffffffff167ff43e8d333b9ddb8704eb40c14e57021e6d22a57b7e9bf2111af5f1ffea6ada58836040516108b2919061441e565b60405180910390a250506108c4613206565b565b60025f3373ffffffffffffffffffffffffffffffffffffffff1673ffffffffffffffffffffffffffffffffffffffff1681526020019081526020015f2060405161090f906146a2565b90815260200160405180910390205f9054906101000a900460ff16610969576040517f08c379a000000000000000000000000000000000000000000000000000000000815260040161096090614736565b60405180910390fd5b61097233613195565b6107d08161ffff1611156109bb576040517f08c379a00000000000000000000000000000000000000000000000000000000081526004016109b2906148af565b60405180910390fd5b5f8161ffff1611610a01576040517f08c379a00000000000000000000000000000000000000000000000000000000081526004016109f890614917565b60405180910390fd5b5f60055f9054906101000a900461ffff1661ffff1690508160055f6101000a81548161ffff021916908361ffff1602179055507ff93ce1b2e2cb74b524760dff1842e28b944e9c40627c07348a36c404be739c028183604051610a6592919061496e565b60405180910390a15050565b5f60025f3373ffffffffffffffffffffffffffffffffffffffff1673ffffffffffffffffffffffffffffffffffffffff1681526020019081526020015f20604051610abb906146a2565b90815260200160405180910390205f9054906101000a900460ff16610b15576040517f08c379a0000000000000000000000000000000000000000000000000000000008152600401610b0c90614736565b60405180910390fd5b610b1e33613195565b600480549050905090565b5f5f9054906101000a900473ffffffffffffffffffffffffffffffffffffffff1673ffffffffffffffffffffffffffffffffffffffff163373ffffffffffffffffffffffffffffffffffffffff1614610bb7576040517f08c379a0000000000000000000000000000000000000000000000000000000008152600401610bae90614a05565b60405180910390fd5b6040518060400160405280600781526020017f456d706c6f796500000000000000000000000000000000000000000000000000815250805190602001208282604051610c04929190614a47565b604051809103902014610c4c576040517f08c379a0000000000000000000000000000000000000000000000000000000008152600401610c4390614aa9565b60405180910390fd5b60025f8473ffffffffffffffffffffffffffffffffffffffff1673ffffffffffffffffffffffffffffffffffffffff1681526020019081526020015f208282604051610c99929190614640565b90815260200160405180910390205f9054906101000a900460ff16610cf3576040517f08c379a0000000000000000000000000000000000000000000000000000000008152600401610cea90614b37565b60405180910390fd5b5f60025f8573ffffffffffffffffffffffffffffffffffffffff1673ffffffffffffffffffffffffffffffffffffffff1681526020019081526020015f208383604051610d41929190614640565b90815260200160405180910390205f6101000a81548160ff02191690831515021790555060015f815480929190610d7790614b82565b91905055508273ffffffffffffffffffffffffffffffffffffffff167fcf3bbb93629b62834974659efc838721fa2bd3b41cafd38b516ac86b661491e18383604051610dc4929190614be5565b60405180910390a2505050565b60025f3373ffffffffffffffffffffffffffffffffffffffff1673ffffffffffffffffffffffffffffffffffffffff1681526020019081526020015f20604051610e1a906146a2565b90815260200160405180910390205f9054906101000a900460ff1615610e75576040517f08c379a0000000000000000000000000000000000000000000000000000000008152600401610e6c90614c77565b60405180910390fd5b5f5f9054906101000a900473ffffffffffffffffffffffffffffffffffffffff1673ffffffffffffffffffffffffffffffffffffffff163373ffffffffffffffffffffffffffffffffffffffff1603610f03576040517f08c379a0000000000000000000000000000000000000000000000000000000008152600401610efa90614d05565b60405180910390fd5b610f0c33613195565b610f1581613210565b5f60048281548110610f2a57610f29614d23565b5b905f5260205f20906009020190508060080160019054906101000a900460ff161580610f635750806008015f9054906101000a900460ff165b15610f6e5750611075565b5f610f848260030154610f7f61325a565b613261565b90505f8190508260020154811115610f9e57826002015490505b8260040154811115611015575f836004015482610fbb9190614d50565b905080846005015f828254610fd09190614d83565b92505081905550847fa9bd81b5e2fa2470f02961f37fa6590c16a995e9bbf73088778e72ea4237c4bb856005015460405161100b919061441e565b60405180910390a2505b600383600501541061102d5761102c846003613299565b5b82600201548210158015611048575082600201548360040154105b80156110625750826008015f9054906101000a900460ff16155b156110715761107084613a0a565b5b5050505b50565b60025f3373ffffffffffffffffffffffffffffffffffffffff1673ffffffffffffffffffffffffffffffffffffffff1681526020019081526020015f206040516110c1906146a2565b90815260200160405180910390205f9054906101000a900460ff1661111b576040517f08c379a000000000000000000000000000000000000000000000000000000000815260040161111290614736565b60405180910390fd5b611123613146565b61112c33613195565b61113581613210565b5f6004828154811061114a57611149614d23565b5b905f5260205f20906009020190508060080160019054906101000a900460ff161580156111855750806008015f9054906101000a900460ff16155b6111c4576040517f08c379a00000000000000000000000000000000000000000000000000000000081526004016111bb90614e00565b60405180910390fd5b5f816007015490505f82600701819055505f825f015f9054906101000a900473ffffffffffffffffffffffffffffffffffffffff1673ffffffffffffffffffffffffffffffffffffffff168260405161121c906147e9565b5f6040518083038185875af1925050503d805f8114611256576040519150601f19603f3d011682016040523d82523d5f602084013e61125b565b606091505b505090508061129f576040517f08c379a000000000000000000000000000000000000000000000000000000000815260040161129690614e68565b60405180910390fd5b6001836008015f6101000a81548160ff021916908315150217905550825f015f9054906101000a900473ffffffffffffffffffffffffffffffffffffffff1673ffffffffffffffffffffffffffffffffffffffff16847f4a14ed616ce90b51a0a9222c0e231e9ce03b6885730aff30c76a5ccb7c5b8106845f5f60405161132893929190614ebf565b60405180910390a350505061133b613206565b50565b60025f3373ffffffffffffffffffffffffffffffffffffffff1673ffffffffffffffffffffffffffffffffffffffff1681526020019081526020015f20604051611387906146a2565b90815260200160405180910390205f9054906101000a900460ff166113e1576040517f08c379a00000000000000000000000000000000000000000000000000000000081526004016113d890614736565b60405180910390fd5b6113ea33613195565b6113f381613195565b60085f8273ffffffffffffffffffffffffffffffffffffffff1673ffffffffffffffffffffffffffffffffffffffff1681526020019081526020015f205f9054906101000a900460ff1661147c576040517f08c379a000000000000000000000000000000000000000000000000000000000815260040161147390614f3e565b60405180910390fd5b5f60085f8373ffffffffffffffffffffffffffffffffffffffff1673ffffffffffffffffffffffffffffffffffffffff1681526020019081526020015f205f6101000a81548160ff0219169083151502179055508073ffffffffffffffffffffffffffffffffffffffff167f117e3210bb9aa7d9baff172026820255c6f6c30ba8999d1c2fd88e2848137c4e60405160405180910390a250565b6009602052805f5260405f205f915090505481565b60025f3373ffffffffffffffffffffffffffffffffffffffff1673ffffffffffffffffffffffffffffffffffffffff1681526020019081526020015f20604051611574906146a2565b90815260200160405180910390205f9054906101000a900460ff166115ce576040517f08c379a00000000000000000000000000000000000000000000000000000000081526004016115c590614736565b60405180910390fd5b6115d733613195565b5f73ffffffffffffffffffffffffffffffffffffffff168173ffffffffffffffffffffffffffffffffffffffff1603611645576040517f08c379a000000000000000000000000000000000000000000000000000000000815260040161163c90614fa6565b60405180910390fd5b3073ffffffffffffffffffffffffffffffffffffffff168173ffffffffffffffffffffffffffffffffffffffff16036116b3576040517f08c379a00000000000000000000000000000000000000000000000000000000081526004016116aa9061500e565b60405180910390fd5b5f60075f9054906101000a900473ffffffffffffffffffffffffffffffffffffffff1690508160075f6101000a81548173ffffffffffffffffffffffffffffffffffffffff021916908373ffffffffffffffffffffffffffffffffffffffff1602179055507f97001b29d9d8207193fc2e3b05f37bc0387d72ffd176a0a2f69bf57241a7fcdb818360405161174992919061507e565b60405180910390a15050565b5f5f5f5f5f5f5f5f5f5f60025f3373ffffffffffffffffffffffffffffffffffffffff1673ffffffffffffffffffffffffffffffffffffffff1681526020019081526020015f206040516117a8906146a2565b90815260200160405180910390205f9054906101000a900460ff16611802576040517f08c379a00000000000000000000000000000000000000000000000000000000081526004016117f990614736565b60405180910390fd5b61180b33613195565b5f60048c815481106118205761181f614d23565b5b905f5260205f2090600902019050805f015f9054906101000a900473ffffffffffffffffffffffffffffffffffffffff168160010154826002015483600301548460040154856005015486600601548760070154886008015f9054906101000a900460ff168960080160019054906101000a900460ff169a509a509a509a509a509a509a509a509a509a50509193959799509193959799565b60015481565b60025f3373ffffffffffffffffffffffffffffffffffffffff1673ffffffffffffffffffffffffffffffffffffffff1681526020019081526020015f20604051611908906146a2565b90815260200160405180910390205f9054906101000a900460ff16611962576040517f08c379a000000000000000000000000000000000000000000000000000000000815260040161195990614736565b60405180910390fd5b61196b33613195565b5f8161ffff16116119b1576040517f08c379a00000000000000000000000000000000000000000000000000000000081526004016119a8906150ef565b60405180910390fd5b610bb88161ffff1611156119fa576040517f08c379a00000000000000000000000000000000000000000000000000000000081526004016119f19061517d565b60405180910390fd5b5f600560049054906101000a900461ffff1661ffff16905081600560046101000a81548161ffff021916908361ffff1602179055507feb19de72c23bc706d6e8d5f52adc31581e6c81cef627df8fe75398e901b9bfbd8183604051611a6092919061496e565b60405180910390a15050565b5f5f9054906101000a900473ffffffffffffffffffffffffffffffffffffffff1673ffffffffffffffffffffffffffffffffffffffff163373ffffffffffffffffffffffffffffffffffffffff1614611afa576040517f08c379a0000000000000000000000000000000000000000000000000000000008152600401611af190614a05565b60405180910390fd5b6040518060400160405280600781526020017f456d706c6f796500000000000000000000000000000000000000000000000000815250805190602001208282604051611b47929190614a47565b604051809103902014611b8f576040517f08c379a0000000000000000000000000000000000000000000000000000000008152600401611b8690614aa9565b60405180910390fd5b5f73ffffffffffffffffffffffffffffffffffffffff168373ffffffffffffffffffffffffffffffffffffffff1603611bfd576040517f08c379a0000000000000000000000000000000000000000000000000000000008152600401611bf49061520b565b60405180910390fd5b60025f8473ffffffffffffffffffffffffffffffffffffffff1673ffffffffffffffffffffffffffffffffffffffff1681526020019081526020015f208282604051611c4a929190614640565b90815260200160405180910390205f9054906101000a900460ff1615611ca5576040517f08c379a0000000000000000000000000000000000000000000000000000000008152600401611c9c90615299565b60405180910390fd5b600160025f8573ffffffffffffffffffffffffffffffffffffffff1673ffffffffffffffffffffffffffffffffffffffff1681526020019081526020015f208383604051611cf4929190614640565b90815260200160405180910390205f6101000a81548160ff02191690831515021790555060015f815480929190611d2a906152b7565b91905055508273ffffffffffffffffffffffffffffffffffffffff167f088567665d11bb1ca04896b9d3c620779f90a9f00f12488f6050a74eb11c2be58383604051611d77929190614be5565b60405180910390a2505050565b60025f3373ffffffffffffffffffffffffffffffffffffffff1673ffffffffffffffffffffffffffffffffffffffff1681526020019081526020015f20604051611dcd906146a2565b90815260200160405180910390205f9054906101000a900460ff1615611e28576040517f08c379a0000000000000000000000000000000000000000000000000000000008152600401611e1f90614c77565b60405180910390fd5b5f5f9054906101000a900473ffffffffffffffffffffffffffffffffffffffff1673ffffffffffffffffffffffffffffffffffffffff163373ffffffffffffffffffffffffffffffffffffffff1603611eb6576040517f08c379a0000000000000000000000000000000000000000000000000000000008152600401611ead90614d05565b60405180910390fd5b611ebf33613195565b60085f3373ffffffffffffffffffffffffffffffffffffffff1673ffffffffffffffffffffffffffffffffffffffff1681526020019081526020015f205f9054906101000a900460ff1615611f49576040517f08c379a0000000000000000000000000000000000000000000000000000000008152600401611f4090615348565b60405180910390fd5b5f8211611f8b576040517f08c379a0000000000000000000000000000000000000000000000000000000008152600401611f82906153b0565b60405180910390fd5b6001811015611fcf576040517f08c379a0000000000000000000000000000000000000000000000000000000008152600401611fc690615418565b60405180910390fd5b611fd761406d565b612016576040517f08c379a000000000000000000000000000000000000000000000000000000000815260040161200d90615480565b60405180910390fd5b5f670de0b6b3a76400008361202b919061549e565b90505f6064600560049054906101000a900461ffff1661ffff1683612050919061549e565b61205a919061550c565b90508034101561209f576040517f08c379a000000000000000000000000000000000000000000000000000000000815260040161209690615586565b60405180910390fd5b5f6040518061014001604052803373ffffffffffffffffffffffffffffffffffffffff1681526020018481526020018581526020015f81526020015f81526020015f81526020018481526020013481526020015f151581526020015f15158152509050600481908060018154018082558091505060019003905f5260205f2090600902015f909190919091505f820151815f015f6101000a81548173ffffffffffffffffffffffffffffffffffffffff021916908373ffffffffffffffffffffffffffffffffffffffff1602179055506020820151816001015560408201518160020155606082015181600301556080820151816004015560a0820151816005015560c0820151816006015560e08201518160070155610100820151816008015f6101000a81548160ff0219169083151502179055506101208201518160080160016101000a81548160ff02191690831515021790555050505f600160048054905061220b9190614d50565b90503373ffffffffffffffffffffffffffffffffffffffff16817ff6cc19e46a340ab5888d736bfc79aef72ae92d12d7b76319d72b0abc170868e6868834604051612258939291906155a4565b60405180910390a3505050505050565b60025f3373ffffffffffffffffffffffffffffffffffffffff1673ffffffffffffffffffffffffffffffffffffffff1681526020019081526020015f206040516122b1906146a2565b90815260200160405180910390205f9054906101000a900460ff1661230b576040517f08c379a000000000000000000000000000000000000000000000000000000000815260040161230290614736565b60405180910390fd5b612313613146565b61231c33613195565b61232581613210565b5f6004828154811061233a57612339614d23565b5b905f5260205f2090600902019050806008015f9054906101000a900460ff1615612399576040517f08c379a000000000000000000000000000000000000000000000000000000000815260040161239090615623565b60405180910390fd5b8060080160019054906101000a900460ff16156123eb576040517f08c379a00000000000000000000000000000000000000000000000000000000081526004016123e29061568b565b60405180910390fd5b8060010154471015612432576040517f08c379a0000000000000000000000000000000000000000000000000000000008152600401612429906156f3565b60405180910390fd5b61243a61325a565b816003018190555060018160080160016101000a81548160ff0219169083151502179055505f815f015f9054906101000a900473ffffffffffffffffffffffffffffffffffffffff1673ffffffffffffffffffffffffffffffffffffffff1682600101546040516124aa906147e9565b5f6040518083038185875af1925050503d805f81146124e4576040519150601f19603f3d011682016040523d82523d5f602084013e6124e9565b606091505b505090508061252d576040517f08c379a00000000000000000000000000000000000000000000000000000000081526004016125249061575b565b60405180910390fd5b815f015f9054906101000a900473ffffffffffffffffffffffffffffffffffffffff1673ffffffffffffffffffffffffffffffffffffffff16837f2b993938baa27c88e77a207903d275c96fa30ae5949a3ea5cd56e466e4f5c891846003015460405161259a919061441e565b60405180910390a3815f015f9054906101000a900473ffffffffffffffffffffffffffffffffffffffff1673ffffffffffffffffffffffffffffffffffffffff16837f0ceeb4503a2fe0b51298a0af21358f3d89e7eab3f65ae2a7835859c3e2c51604846001015460405161260f919061441e565b60405180910390a35050612621613206565b50565b60065481565b600560049054906101000a900461ffff1681565b600560069054906101000a900461ffff1681565b60048181548110612661575f80fd5b905f5260205f2090600902015f91509050805f015f9054906101000a900473ffffffffffffffffffffffffffffffffffffffff1690806001015490806002015490806003015490806004015490806005015490806006015490806007015490806008015f9054906101000a900460ff16908060080160019054906101000a900460ff1690508a565b60025f3373ffffffffffffffffffffffffffffffffffffffff1673ffffffffffffffffffffffffffffffffffffffff1681526020019081526020015f20604051612732906146a2565b90815260200160405180910390205f9054906101000a900460ff161561278d576040517f08c379a000000000000000000000000000000000000000000000000000000000815260040161278490614c77565b60405180910390fd5b5f5f9054906101000a900473ffffffffffffffffffffffffffffffffffffffff1673ffffffffffffffffffffffffffffffffffffffff163373ffffffffffffffffffffffffffffffffffffffff160361281b576040517f08c379a000000000000000000000000000000000000000000000000000000000815260040161281290614d05565b60405180910390fd5b612823613146565b61282c33613195565b61283582613210565b5f6004838154811061284a57612849614d23565b5b905f5260205f20906009020190508060080160019054906101000a900460ff1680156128845750806008015f9054906101000a900460ff16155b6128c3576040517f08c379a00000000000000000000000000000000000000000000000000000000081526004016128ba906157c3565b60405180910390fd5b805f015f9054906101000a900473ffffffffffffffffffffffffffffffffffffffff1673ffffffffffffffffffffffffffffffffffffffff163373ffffffffffffffffffffffffffffffffffffffff1614612953576040517f08c379a000000000000000000000000000000000000000000000000000000000815260040161294a9061582b565b60405180910390fd5b5f8211612995576040517f08c379a000000000000000000000000000000000000000000000000000000000815260040161298c90615893565b60405180910390fd5b80600201548282600401546129aa9190614d83565b11156129eb576040517f08c379a00000000000000000000000000000000000000000000000000000000081526004016129e2906158fb565b60405180910390fd5b5f612a0182600301546129fc61325a565b613261565b90508160020154826004015410612a4d576040517f08c379a0000000000000000000000000000000000000000000000000000000008152600401612a4490615963565b60405180910390fd5b5f612a57856140b6565b90505f836004015490505f8390505f5f905082821115612abb575f8383612a7e9190614d50565b9050806064600560029054906101000a900461ffff1661ffff1687612aa3919061549e565b612aad919061550c565b612ab7919061549e565b9150505b5f8185612ac89190614d83565b90506001881115612af957600188612ae09190614d50565b85612aeb919061549e565b81612af69190614d83565b90505b803414612b3b576040517f08c379a0000000000000000000000000000000000000000000000000000000008152600401612b32906159f1565b60405180910390fd5b5f5f90505b88811015612c6e575f5f8214612b565786612b63565b8387612b629190614d83565b5b90505f606460055f9054906101000a900461ffff1661ffff168b60010154612b8b919061549e565b612b95919061550c565b90505f8189612ba49190614d50565b90505f8403612bd5578582612bb99190614d83565b60065f828254612bc99190614d83565b92505081905550612bee565b8160065f828254612be69190614d83565b925050819055505b8a60060154811115612c02578a6006015490505b808b6006015f828254612c159190614d50565b9250508190555060018b6004015f828254612c309190614d83565b925050819055508a600201548b60040154101580612c5157505f8b60060154145b15612c5e57505050612c6e565b5050508080600101915050612b40565b505f87600501819055503373ffffffffffffffffffffffffffffffffffffffff16897f041e038704bf70ce2e97dcddc75986a8dec282d710422669d04a1d908ff94b34348a60040154604051612cc5929190615a0f565b60405180910390a386600201548760040154101580612ce757505f8760060154145b15612def575f8760080160016101000a81548160ff0219169083151502179055505f876007015490505f88600701819055505f811115612ded575f885f015f9054906101000a900473ffffffffffffffffffffffffffffffffffffffff1673ffffffffffffffffffffffffffffffffffffffff1682604051612d68906147e9565b5f6040518083038185875af1925050503d805f8114612da2576040519150601f19603f3d011682016040523d82523d5f602084013e612da7565b606091505b5050905080612deb576040517f08c379a0000000000000000000000000000000000000000000000000000000008152600401612de290615a80565b60405180910390fd5b505b505b50505050505050612dfe613206565b5050565b60025f3373ffffffffffffffffffffffffffffffffffffffff1673ffffffffffffffffffffffffffffffffffffffff1681526020019081526020015f20604051612e4b906146a2565b90815260200160405180910390205f9054906101000a900460ff16612ea5576040517f08c379a0000000000000000000000000000000000000000000000000000000008152600401612e9c90614736565b60405180910390fd5b612eae33613195565b6113888161ffff161115612ef7576040517f08c379a0000000000000000000000000000000000000000000000000000000008152600401612eee90615ae8565b60405180910390fd5b5f8161ffff1611612f3d576040517f08c379a0000000000000000000000000000000000000000000000000000000008152600401612f3490615b50565b60405180910390fd5b5f600560029054906101000a900461ffff1661ffff16905081600560026101000a81548161ffff021916908361ffff1602179055507f5b56293d2c832157ac8f4ce694bc788152793b86457d54956f1722633c5801398183604051612fa392919061496e565b60405180910390a15050565b60055f9054906101000a900461ffff1681565b60025f3373ffffffffffffffffffffffffffffffffffffffff1673ffffffffffffffffffffffffffffffffffffffff1681526020019081526020015f2060405161300b906146a2565b90815260200160405180910390205f9054906101000a900460ff16613065576040517f08c379a000000000000000000000000000000000000000000000000000000000815260040161305c90614736565b60405180910390fd5b61306e33613195565b6113888161ffff1611156130b7576040517f08c379a00000000000000000000000000000000000000000000000000000000081526004016130ae90615bb8565b60405180910390fd5b5f600560069054906101000a900461ffff1661ffff16905081600560066101000a81548161ffff021916908361ffff1602179055507f38fc5525c7ab9850422e6f2cd4b086b0b50f1235a0d8ddeb7b43f61b9a5bfb05818360405161311d92919061496e565b60405180910390a15050565b6008602052805f5260405f205f915054906101000a900460ff1681565b60026003540361318b576040517f08c379a000000000000000000000000000000000000000000000000000000000815260040161318290615c20565b60405180910390fd5b6002600381905550565b5f73ffffffffffffffffffffffffffffffffffffffff168173ffffffffffffffffffffffffffffffffffffffff1603613203576040517f08c379a00000000000000000000000000000000000000000000000000000000081526004016131fa90615cae565b60405180910390fd5b50565b6001600381905550565b6004805490508110613257576040517f08c379a000000000000000000000000000000000000000000000000000000000815260040161324e90615d16565b60405180910390fd5b50565b5f42905090565b5f828211613271575f9050613293565b5f62278d0090508084846132859190614d50565b61328f919061550c565b9150505b92915050565b6132a282613210565b5f600483815481106132b7576132b6614d23565b5b905f5260205f2090600902019050806008015f9054906101000a900460ff16806132f057508060080160019054906101000a900460ff16155b156132fb5750613a06565b5f82905081600201548183600401546133149190614d83565b1115613331578160040154826002015461332e9190614d50565b90505b5f810361333f575050613a06565b5f613349856140b6565b90505f8282613358919061549e565b90505f6064600560029054906101000a900461ffff1661ffff168361337d919061549e565b613387919061550c565b90505f81836133969190614d83565b90505f5f90505f5f90505f5f905083896007015410613486578392505f606460055f9054906101000a900461ffff1661ffff168b600101546133d8919061549e565b6133e2919061550c565b90505f89826133f1919061549e565b905086816133ff9190614d83565b60065f82825461340f9190614d83565b925050819055505f8a83613423919061549e565b8961342e9190614d50565b90508b60060154811115613444578b6006015490505b808c6006015f8282546134579190614d50565b92505081905550858c6007015f8282546134719190614d50565b925050819055505f94505f9350505050613665565b886007015492505f8390505f8a6006015490505f819050828111156134cc575f839050808d6006015f8282546134bc9190614d50565b925050819055505f935050613557565b5f8b8d600201548e600101546134e2919061550c565b6134ec919061549e565b90508c60060154811115613502578c6006015490505b8381111561352c57838d6006015f82825461351d9190614d50565b925050819055505f9350613555565b808d6006015f82825461353f9190614d50565b9250508190555080846135529190614d50565b93505b505b5f606460055f9054906101000a900461ffff1661ffff168e6001015461357d919061549e565b613587919061550c565b90505f8c82613596919061549e565b90505f6064600560029054906101000a900461ffff1661ffff168f8f6135bc919061549e565b6135c6919061549e565b6135d0919061550c565b826135db9190614d83565b905080861061361d578060065f8282546135f59190614d83565b9250508190555080866136089190614d50565b955085886136169190614d83565b9750613639565b8560065f82825461362e9190614d83565b925050819055505f95505b5f8f60070181905550888a1161364f575f61365c565b888a61365b9190614d50565b5b96505050505050505b87896004015f8282546136789190614d83565b9250508190555088600201548960040154111561369d57886002015489600401819055505b5f8960050181905550600160095f8b5f015f9054906101000a900473ffffffffffffffffffffffffffffffffffffffff1673ffffffffffffffffffffffffffffffffffffffff1673ffffffffffffffffffffffffffffffffffffffff1681526020019081526020015f205f8282546137159190614d83565b92505081905550885f015f9054906101000a900473ffffffffffffffffffffffffffffffffffffffff1673ffffffffffffffffffffffffffffffffffffffff167f073dc1dabfe81e4b13a65bbc538e7bfc06bafcca30510b59584f1043e4c0485160095f8c5f015f9054906101000a900473ffffffffffffffffffffffffffffffffffffffff1673ffffffffffffffffffffffffffffffffffffffff1673ffffffffffffffffffffffffffffffffffffffff1681526020019081526020015f20546040516137e3919061441e565b60405180910390a2600360095f8b5f015f9054906101000a900473ffffffffffffffffffffffffffffffffffffffff1673ffffffffffffffffffffffffffffffffffffffff1673ffffffffffffffffffffffffffffffffffffffff1681526020019081526020015f20541061392f57600160085f8b5f015f9054906101000a900473ffffffffffffffffffffffffffffffffffffffff1673ffffffffffffffffffffffffffffffffffffffff1673ffffffffffffffffffffffffffffffffffffffff1681526020019081526020015f205f6101000a81548160ff021916908315150217905550885f015f9054906101000a900473ffffffffffffffffffffffffffffffffffffffff1673ffffffffffffffffffffffffffffffffffffffff167fffa4e6181777692565cf28528fc88fd1516ea86b56da075235fa575af6a4b85560405160405180910390a25b8860020154896004015410158061394957505f8960060154145b15613987575f8960080160016101000a81548160ff0219169083151502179055506001896008015f6101000a81548160ff0219169083151502179055505b885f015f9054906101000a900473ffffffffffffffffffffffffffffffffffffffff1673ffffffffffffffffffffffffffffffffffffffff168b7f4a14ed616ce90b51a0a9222c0e231e9ce03b6885730aff30c76a5ccb7c5b81068584866040516139f4939291906155a4565b60405180910390a35050505050505050505b5050565b613a1381613210565b5f60048281548110613a2857613a27614d23565b5b905f5260205f2090600902019050806008015f9054906101000a900460ff1615613a52575061406a565b5f8160040154826002015411613a68575f613a7d565b81600401548260020154613a7c9190614d50565b5b90505f613a89846140b6565b90505f8282613a98919061549e565b90505f6064600560029054906101000a900461ffff1661ffff1683613abd919061549e565b613ac7919061550c565b90505f8183613ad69190614d83565b90505f5f90505f5f90505f5f905083896007015410613bc0578392505f606460055f9054906101000a900461ffff1661ffff168b60010154613b18919061549e565b613b22919061550c565b90505f8982613b31919061549e565b90508681613b3f9190614d83565b60065f828254613b4f9190614d83565b925050819055505f8a83613b63919061549e565b89613b6e9190614d50565b90508b60060154811115613b84578b6006015490505b808c6006015f828254613b979190614d50565b92505081905550858c6007015f828254613bb19190614d50565b92505081905550505050613d2a565b886007015492505f8390505f898b600201548c60010154613be1919061550c565b613beb919061549e565b90508a60060154811115613c01578a6006015490505b808210613c35578082613c149190614d50565b9150808b6006015f828254613c299190614d50565b92505081905550613c53565b818b6006015f828254613c489190614d50565b925050819055505f91505b5f606460055f9054906101000a900461ffff1661ffff168d60010154613c79919061549e565b613c83919061550c565b90505f8b82613c92919061549e565b90505f8982613ca19190614d83565b9050808510613ce3578060065f828254613cbb9190614d83565b925050819055508085613cce9190614d50565b94508486613cdc9190614d83565b9550613cff565b8460065f828254613cf49190614d83565b925050819055505f94505b5f8e60070181905550878911613d15575f613d22565b8789613d219190614d50565b5b965050505050505b6001896008015f6101000a81548160ff0219169083151502179055505f8960080160016101000a81548160ff021916908315150217905550600160095f8b5f015f9054906101000a900473ffffffffffffffffffffffffffffffffffffffff1673ffffffffffffffffffffffffffffffffffffffff1673ffffffffffffffffffffffffffffffffffffffff1681526020019081526020015f205f828254613dd19190614d83565b92505081905550885f015f9054906101000a900473ffffffffffffffffffffffffffffffffffffffff1673ffffffffffffffffffffffffffffffffffffffff167f073dc1dabfe81e4b13a65bbc538e7bfc06bafcca30510b59584f1043e4c0485160095f8c5f015f9054906101000a900473ffffffffffffffffffffffffffffffffffffffff1673ffffffffffffffffffffffffffffffffffffffff1673ffffffffffffffffffffffffffffffffffffffff1681526020019081526020015f2054604051613e9f919061441e565b60405180910390a2600360095f8b5f015f9054906101000a900473ffffffffffffffffffffffffffffffffffffffff1673ffffffffffffffffffffffffffffffffffffffff1673ffffffffffffffffffffffffffffffffffffffff1681526020019081526020015f205410613feb57600160085f8b5f015f9054906101000a900473ffffffffffffffffffffffffffffffffffffffff1673ffffffffffffffffffffffffffffffffffffffff1673ffffffffffffffffffffffffffffffffffffffff1681526020019081526020015f205f6101000a81548160ff021916908315150217905550885f015f9054906101000a900473ffffffffffffffffffffffffffffffffffffffff1673ffffffffffffffffffffffffffffffffffffffff167fffa4e6181777692565cf28528fc88fd1516ea86b56da075235fa575af6a4b85560405160405180910390a25b885f015f9054906101000a900473ffffffffffffffffffffffffffffffffffffffff1673ffffffffffffffffffffffffffffffffffffffff168a7f4a14ed616ce90b51a0a9222c0e231e9ce03b6885730aff30c76a5ccb7c5b8106858585604051614058939291906155a4565b60405180910390a35050505050505050505b50565b5f5f600560069054906101000a900461ffff1661ffff160361409257600190506140b3565b600560069054906101000a900461ffff1661ffff166140af614188565b1090505b90565b5f6140c082613210565b5f600483815481106140d5576140d4614d23565b5b905f5260205f20906009020190505f816002015411614129576040517f08c379a000000000000000000000000000000000000000000000000000000000815260040161412090615d7e565b60405180910390fd5b5f8160020154826001015461413e919061550c565b90505f606460055f9054906101000a900461ffff1661ffff168460010154614166919061549e565b614170919061550c565b9050808261417e9190614d83565b9350505050919050565b5f5f6004805490500361419d575f9050614226565b5f5f90505f5f90505b60048054905081101561420457600481815481106141c7576141c6614d23565b5b905f5260205f2090600902016008015f9054906101000a900460ff16156141f75781806141f3906152b7565b9250505b80806001019150506141a6565b50600480549050606482614218919061549e565b614222919061550c565b9150505b90565b5f61ffff82169050919050565b61423f81614229565b82525050565b5f6020820190506142585f830184614236565b92915050565b5f5ffd5b5f5ffd5b5f73ffffffffffffffffffffffffffffffffffffffff82169050919050565b5f61428f82614266565b9050919050565b61429f81614285565b81146142a9575f5ffd5b50565b5f813590506142ba81614296565b92915050565b5f5ffd5b5f5ffd5b5f5ffd5b5f5f83601f8401126142e1576142e06142c0565b5b8235905067ffffffffffffffff8111156142fe576142fd6142c4565b5b60208301915083600182028301111561431a576143196142c8565b5b9250929050565b5f5f5f604084860312156143385761433761425e565b5b5f614345868287016142ac565b935050602084013567ffffffffffffffff81111561436657614365614262565b5b614372868287016142cc565b92509250509250925092565b5f8115159050919050565b6143928161437e565b82525050565b5f6020820190506143ab5f830184614389565b92915050565b6143ba81614229565b81146143c4575f5ffd5b50565b5f813590506143d5816143b1565b92915050565b5f602082840312156143f0576143ef61425e565b5b5f6143fd848285016143c7565b91505092915050565b5f819050919050565b61441881614406565b82525050565b5f6020820190506144315f83018461440f565b92915050565b61444081614406565b811461444a575f5ffd5b50565b5f8135905061445b81614437565b92915050565b5f602082840312156144765761447561425e565b5b5f6144838482850161444d565b91505092915050565b5f602082840312156144a1576144a061425e565b5b5f6144ae848285016142ac565b91505092915050565b5f6144c182614266565b9050919050565b6144d1816144b7565b81146144db575f5ffd5b50565b5f813590506144ec816144c8565b92915050565b5f602082840312156145075761450661425e565b5b5f614514848285016144de565b91505092915050565b61452681614285565b82525050565b5f610140820190506145405f83018d61451d565b61454d602083018c61440f565b61455a604083018b61440f565b614567606083018a61440f565b614574608083018961440f565b61458160a083018861440f565b61458e60c083018761440f565b61459b60e083018661440f565b6145a9610100830185614389565b6145b7610120830184614389565b9b9a5050505050505050505050565b5f5f604083850312156145dc576145db61425e565b5b5f6145e98582860161444d565b92505060206145fa8582860161444d565b9150509250929050565b5f81905092915050565b828183375f83830152505050565b5f6146278385614604565b935061463483858461460e565b82840190509392505050565b5f61464c82848661461c565b91508190509392505050565b7f41646d696e0000000000000000000000000000000000000000000000000000005f82015250565b5f61468c600583614604565b915061469782614658565b600582019050919050565b5f6146ac82614680565b9150819050919050565b5f82825260208201905092915050565b7f456d706c6f79656541737369676e6d656e743a2063616c6c6572206973206e6f5f8201527f7420616e2061646d696e00000000000000000000000000000000000000000000602082015250565b5f614720602a836146b6565b915061472b826146c6565b604082019050919050565b5f6020820190508181035f83015261474d81614714565b9050919050565b7f6e6f2070726f66697473000000000000000000000000000000000000000000005f82015250565b5f614788600a836146b6565b915061479382614754565b602082019050919050565b5f6020820190508181035f8301526147b58161477c565b9050919050565b5f81905092915050565b50565b5f6147d45f836147bc565b91506147df826147c6565b5f82019050919050565b5f6147f3826147c9565b9150819050919050565b7f7472616e73666572206661696c656400000000000000000000000000000000005f82015250565b5f614831600f836146b6565b915061483c826147fd565b602082019050919050565b5f6020820190508181035f83015261485e81614825565b9050919050565b7f496e74657265737420746f6f20686967683a206d6178203230250000000000005f82015250565b5f614899601a836146b6565b91506148a482614865565b602082019050919050565b5f6020820190508181035f8301526148c68161488d565b9050919050565b7f496e7465726573742063616e6e6f74206265207a65726f0000000000000000005f82015250565b5f6149016017836146b6565b915061490c826148cd565b602082019050919050565b5f6020820190508181035f83015261492e816148f5565b9050919050565b5f819050919050565b5f61495861495361494e84614229565b614935565b614406565b9050919050565b6149688161493e565b82525050565b5f6040820190506149815f83018561440f565b61498e602083018461495f565b9392505050565b7f456d706c6f79656541737369676e6d656e743a2063616c6c6572206973206e6f5f8201527f7420746865206f776e6572000000000000000000000000000000000000000000602082015250565b5f6149ef602b836146b6565b91506149fa82614995565b604082019050919050565b5f6020820190508181035f830152614a1c816149e3565b9050919050565b5f614a2e83856147bc565b9350614a3b83858461460e565b82840190509392505050565b5f614a53828486614a23565b91508190509392505050565b7f456d706c6f79656541737369676e6d656e743a20696e76616c696420726f6c655f82015250565b5f614a936020836146b6565b9150614a9e82614a5f565b602082019050919050565b5f6020820190508181035f830152614ac081614a87565b9050919050565b7f456d706c6f79656541737369676e6d656e743a20656d706c6f79656520646f655f8201527f73206e6f742068617665207468697320726f6c65000000000000000000000000602082015250565b5f614b216034836146b6565b9150614b2c82614ac7565b604082019050919050565b5f6020820190508181035f830152614b4e81614b15565b9050919050565b7f4e487b71000000000000000000000000000000000000000000000000000000005f52601160045260245ffd5b5f614b8c82614406565b91505f8203614b9e57614b9d614b55565b5b600182039050919050565b5f601f19601f8301169050919050565b5f614bc483856146b6565b9350614bd183858461460e565b614bda83614ba9565b840190509392505050565b5f6020820190508181035f830152614bfe818486614bb9565b90509392505050565b7f456d706c6f79656541737369676e6d656e743a2063616c6c657220697320616e5f8201527f2061646d696e0000000000000000000000000000000000000000000000000000602082015250565b5f614c616026836146b6565b9150614c6c82614c07565b604082019050919050565b5f6020820190508181035f830152614c8e81614c55565b9050919050565b7f456d706c6f79656541737369676e6d656e743a2063616c6c65722069732074685f8201527f65206f776e657200000000000000000000000000000000000000000000000000602082015250565b5f614cef6027836146b6565b9150614cfa82614c95565b604082019050919050565b5f6020820190508181035f830152614d1c81614ce3565b9050919050565b7f4e487b71000000000000000000000000000000000000000000000000000000005f52603260045260245ffd5b5f614d5a82614406565b9150614d6583614406565b9250828203905081811115614d7d57614d7c614b55565b5b92915050565b5f614d8d82614406565b9150614d9883614406565b9250828201905080821115614db057614daf614b55565b5b92915050565b7f63616e6e6f742072656a656374206163746976652f6c697175696461746564005f82015250565b5f614dea601f836146b6565b9150614df582614db6565b602082019050919050565b5f6020820190508181035f830152614e1781614dde565b9050919050565b7f726566756e64206661696c6564000000000000000000000000000000000000005f82015250565b5f614e52600d836146b6565b9150614e5d82614e1e565b602082019050919050565b5f6020820190508181035f830152614e7f81614e46565b9050919050565b5f819050919050565b5f614ea9614ea4614e9f84614e86565b614935565b614406565b9050919050565b614eb981614e8f565b82525050565b5f606082019050614ed25f83018661440f565b614edf6020830185614eb0565b614eec6040830184614eb0565b949350505050565b7f41646472657373206973206e6f7420626c61636b6c69737465640000000000005f82015250565b5f614f28601a836146b6565b9150614f3382614ef4565b602082019050919050565b5f6020820190508181035f830152614f5581614f1c565b9050919050565b7f43616e6e6f7420736574207a65726f20616464726573730000000000000000005f82015250565b5f614f906017836146b6565b9150614f9b82614f5c565b602082019050919050565b5f6020820190508181035f830152614fbd81614f84565b9050919050565b7f43616e6e6f742073657420636f6e747261637420697473656c660000000000005f82015250565b5f614ff8601a836146b6565b915061500382614fc4565b602082019050919050565b5f6020820190508181035f83015261502581614fec565b9050919050565b5f61504661504161503c84614266565b614935565b614266565b9050919050565b5f6150578261502c565b9050919050565b5f6150688261504d565b9050919050565b6150788161505e565b82525050565b5f6040820190506150915f83018561451d565b61509e602083018461506f565b9392505050565b7f436f6c6c61746572616c20726174696f20746f6f206c6f7700000000000000005f82015250565b5f6150d96018836146b6565b91506150e4826150a5565b602082019050919050565b5f6020820190508181035f830152615106816150cd565b9050919050565b7f436f6c6c61746572616c20726174696f20746f6f20686967683a206d617820335f8201527f3030250000000000000000000000000000000000000000000000000000000000602082015250565b5f6151676023836146b6565b91506151728261510d565b604082019050919050565b5f6020820190508181035f8301526151948161515b565b9050919050565b7f456d706c6f79656541737369676e6d656e743a20656d706c6f7965652063616e5f8201527f6e6f74206265207a65726f206164647265737300000000000000000000000000602082015250565b5f6151f56033836146b6565b91506152008261519b565b604082019050919050565b5f6020820190508181035f830152615222816151e9565b9050919050565b7f456d706c6f79656541737369676e6d656e743a20656d706c6f79656520616c725f8201527f6561647920686173207468697320726f6c650000000000000000000000000000602082015250565b5f6152836032836146b6565b915061528e82615229565b604082019050919050565b5f6020820190508181035f8301526152b081615277565b9050919050565b5f6152c182614406565b91507fffffffffffffffffffffffffffffffffffffffffffffffffffffffffffffffff82036152f3576152f2614b55565b5b600182019050919050565b7f626c61636b6c69737465640000000000000000000000000000000000000000005f82015250565b5f615332600b836146b6565b915061533d826152fe565b602082019050919050565b5f6020820190508181035f83015261535f81615326565b9050919050565b7f696e76616c6964207072696e636970616c0000000000000000000000000000005f82015250565b5f61539a6011836146b6565b91506153a582615366565b602082019050919050565b5f6020820190508181035f8301526153c78161538e565b9050919050565b7f6475726174696f6e206d757374206265203e3d2031206d6f6e746800000000005f82015250565b5f615402601b836146b6565b915061540d826153ce565b602082019050919050565b5f6020820190508181035f83015261542f816153f6565b9050919050565b7f6e6577206c6f616e7320626c6f636b65640000000000000000000000000000005f82015250565b5f61546a6011836146b6565b915061547582615436565b602082019050919050565b5f6020820190508181035f8301526154978161545e565b9050919050565b5f6154a882614406565b91506154b383614406565b92508282026154c181614406565b915082820484148315176154d8576154d7614b55565b5b5092915050565b7f4e487b71000000000000000000000000000000000000000000000000000000005f52601260045260245ffd5b5f61551682614406565b915061552183614406565b925082615531576155306154df565b5b828204905092915050565b7f696e73756666696369656e7420636f6c6c61746572616c0000000000000000005f82015250565b5f6155706017836146b6565b915061557b8261553c565b602082019050919050565b5f6020820190508181035f83015261559d81615564565b9050919050565b5f6060820190506155b75f83018661440f565b6155c4602083018561440f565b6155d1604083018461440f565b949350505050565b7f616c7265616479206c69717569646174656400000000000000000000000000005f82015250565b5f61560d6012836146b6565b9150615618826155d9565b602082019050919050565b5f6020820190508181035f83015261563a81615601565b9050919050565b7f616c7265616479206163746976650000000000000000000000000000000000005f82015250565b5f615675600e836146b6565b915061568082615641565b602082019050919050565b5f6020820190508181035f8301526156a281615669565b9050919050565b7f636f6e7472616374206c61636b73206c697175696469747900000000000000005f82015250565b5f6156dd6018836146b6565b91506156e8826156a9565b602082019050919050565b5f6020820190508181035f83015261570a816156d1565b9050919050565b7f6469736275727365206661696c656400000000000000000000000000000000005f82015250565b5f615745600f836146b6565b915061575082615711565b602082019050919050565b5f6020820190508181035f83015261577281615739565b9050919050565b7f6c6f616e206e6f7420616374697665206f72206c6971756964617465640000005f82015250565b5f6157ad601d836146b6565b91506157b882615779565b602082019050919050565b5f6020820190508181035f8301526157da816157a1565b9050919050565b7f6f6e6c7920626f72726f776572000000000000000000000000000000000000005f82015250565b5f615815600d836146b6565b9150615820826157e1565b602082019050919050565b5f6020820190508181035f83015261584281615809565b9050919050565b7f6d75737420706179206174206c65617374206f6e65206d6f6e746800000000005f82015250565b5f61587d601b836146b6565b915061588882615849565b602082019050919050565b5f6020820190508181035f8301526158aa81615871565b9050919050565b7f657863656564732072656d61696e696e67206d6f6e74687300000000000000005f82015250565b5f6158e56018836146b6565b91506158f0826158b1565b602082019050919050565b5f6020820190508181035f830152615912816158d9565b9050919050565b7f6c6f616e20616c72656164792066756c6c7920706169640000000000000000005f82015250565b5f61594d6017836146b6565b915061595882615919565b602082019050919050565b5f6020820190508181035f83015261597a81615941565b9050919050565b7f6d73672e76616c7565206d69736d6174636820746f74616c207061796d656e745f8201527f206e656564656400000000000000000000000000000000000000000000000000602082015250565b5f6159db6027836146b6565b91506159e682615981565b604082019050919050565b5f6020820190508181035f830152615a08816159cf565b9050919050565b5f604082019050615a225f83018561440f565b615a2f602083018461440f565b9392505050565b7f436f6c61746572616c206661696c656420746f2073656e6420210000000000005f82015250565b5f615a6a601a836146b6565b9150615a7582615a36565b602082019050919050565b5f6020820190508181035f830152615a9781615a5e565b9050919050565b7f50656e616c747920746f6f20686967683a206d617820353025000000000000005f82015250565b5f615ad26019836146b6565b9150615add82615a9e565b602082019050919050565b5f6020820190508181035f830152615aff81615ac6565b9050919050565b7f50656e616c747920746f6f206c6f7700000000000000000000000000000000005f82015250565b5f615b3a600f836146b6565b9150615b4582615b06565b602082019050919050565b5f6020820190508181035f830152615b6781615b2e565b9050919050565b7f4e504c206c696d697420746f6f20686967683a206d61782035302500000000005f82015250565b5f615ba2601b836146b6565b9150615bad82615b6e565b602082019050919050565b5f6020820190508181035f830152615bcf81615b96565b9050919050565b7f5265656e7472616e637947756172643a207265656e7472616e742063616c6c005f82015250565b5f615c0a601f836146b6565b9150615c1582615bd6565b602082019050919050565b5f6020820190508181035f830152615c3781615bfe565b9050919050565b7f456d706c6f79656541737369676e6d656e743a207a65726f20616464726573735f8201527f206e6f7420616c6c6f7765640000000000000000000000000000000000000000602082015250565b5f615c98602c836146b6565b9150615ca382615c3e565b604082019050919050565b5f6020820190508181035f830152615cc581615c8c565b9050919050565b7f696e76616c6964204964000000000000000000000000000000000000000000005f82015250565b5f615d00600a836146b6565b9150615d0b82615ccc565b602082019050919050565b5f6020820190508181035f830152615d2d81615cf4565b9050919050565b7f696e76616c6964206c6f616e00000000000000000000000000000000000000005f82015250565b5f615d68600c836146b6565b9150615d7382615d34565b602082019050919050565b5f6020820190508181035f830152615d9581615d5c565b905091905056fea2646970667358221220c7076cc6e677e0932984b0d1022f4e637c4d8a259c5744442bde6cd956590d1c64736f6c634300081e0033",
			"opcodes": "PUSH1 0x80 PUSH1 0x40 MSTORE CALLVALUE DUP1 ISZERO PUSH2 0xF JUMPI PUSH0 PUSH0 REVERT JUMPDEST POP PUSH1 0x40 MLOAD PUSH2 0x60C6 CODESIZE SUB DUP1 PUSH2 0x60C6 DUP4 CODECOPY DUP2 DUP2 ADD PUSH1 0x40 MSTORE DUP2 ADD SWAP1 PUSH2 0x31 SWAP2 SWAP1 PUSH2 0x244 JUMP JUMPDEST CALLER PUSH0 PUSH0 PUSH2 0x100 EXP DUP2 SLOAD DUP2 PUSH20 0xFFFFFFFFFFFFFFFFFFFFFFFFFFFFFFFFFFFFFFFF MUL NOT AND SWAP1 DUP4 PUSH20 0xFFFFFFFFFFFFFFFFFFFFFFFFFFFFFFFFFFFFFFFF AND MUL OR SWAP1 SSTORE POP PUSH1 0x1 PUSH1 0x3 DUP2 SWAP1 SSTORE POP PUSH0 PUSH20 0xFFFFFFFFFFFFFFFFFFFFFFFFFFFFFFFFFFFFFFFF AND DUP2 PUSH20 0xFFFFFFFFFFFFFFFFFFFFFFFFFFFFFFFFFFFFFFFF AND SUB PUSH2 0xE6 JUMPI PUSH1 0x40 MLOAD PUSH32 0x8C379A000000000000000000000000000000000000000000000000000000000 DUP2 MSTORE PUSH1 0x4 ADD PUSH2 0xDD SWAP1 PUSH2 0x2C9 JUMP JUMPDEST PUSH1 0x40 MLOAD DUP1 SWAP2 SUB SWAP1 REVERT JUMPDEST DUP1 PUSH1 0x7 PUSH0 PUSH2 0x100 EXP DUP2 SLOAD DUP2 PUSH20 0xFFFFFFFFFFFFFFFFFFFFFFFFFFFFFFFFFFFFFFFF MUL NOT AND SWAP1 DUP4 PUSH20 0xFFFFFFFFFFFFFFFFFFFFFFFFFFFFFFFFFFFFFFFF AND MUL OR SWAP1 SSTORE POP PUSH1 0x2 PUSH1 0x5 PUSH0 PUSH2 0x100 EXP DUP2 SLOAD DUP2 PUSH2 0xFFFF MUL NOT AND SWAP1 DUP4 PUSH2 0xFFFF AND MUL OR SWAP1 SSTORE POP PUSH1 0x1 PUSH1 0x5 PUSH1 0x2 PUSH2 0x100 EXP DUP2 SLOAD DUP2 PUSH2 0xFFFF MUL NOT AND SWAP1 DUP4 PUSH2 0xFFFF AND MUL OR SWAP1 SSTORE POP PUSH1 0x32 PUSH1 0x5 PUSH1 0x4 PUSH2 0x100 EXP DUP2 SLOAD DUP2 PUSH2 0xFFFF MUL NOT AND SWAP1 DUP4 PUSH2 0xFFFF AND MUL OR SWAP1 SSTORE POP PUSH1 0x14 PUSH1 0x5 PUSH1 0x6 PUSH2 0x100 EXP DUP2 SLOAD DUP2 PUSH2 0xFFFF MUL NOT AND SWAP1 DUP4 PUSH2 0xFFFF AND MUL OR SWAP1 SSTORE POP DUP1 PUSH20 0xFFFFFFFFFFFFFFFFFFFFFFFFFFFFFFFFFFFFFFFF AND PUSH32 0x6A92B2B1DAC24378528816100CBBCD6428939C33C47425A39E3C9C506557AE35 PUSH1 0x40 MLOAD PUSH1 0x40 MLOAD DUP1 SWAP2 SUB SWAP1 LOG2 POP PUSH2 0x2E7 JUMP JUMPDEST PUSH0 PUSH0 REVERT JUMPDEST PUSH0 PUSH20 0xFFFFFFFFFFFFFFFFFFFFFFFFFFFFFFFFFFFFFFFF DUP3 AND SWAP1 POP SWAP2 SWAP1 POP JUMP JUMPDEST PUSH0 PUSH2 0x213 DUP3 PUSH2 0x1EA JUMP JUMPDEST SWAP1 POP SWAP2 SWAP1 POP JUMP JUMPDEST PUSH2 0x223 DUP2 PUSH2 0x209 JUMP JUMPDEST DUP2 EQ PUSH2 0x22D JUMPI PUSH0 PUSH0 REVERT JUMPDEST POP JUMP JUMPDEST PUSH0 DUP2 MLOAD SWAP1 POP PUSH2 0x23E DUP2 PUSH2 0x21A JUMP JUMPDEST SWAP3 SWAP2 POP POP JUMP JUMPDEST PUSH0 PUSH1 0x20 DUP3 DUP5 SUB SLT ISZERO PUSH2 0x259 JUMPI PUSH2 0x258 PUSH2 0x1E6 JUMP JUMPDEST JUMPDEST PUSH0 PUSH2 0x266 DUP5 DUP3 DUP6 ADD PUSH2 0x230 JUMP JUMPDEST SWAP2 POP POP SWAP3 SWAP2 POP POP JUMP JUMPDEST PUSH0 DUP3 DUP3 MSTORE PUSH1 0x20 DUP3 ADD SWAP1 POP SWAP3 SWAP2 POP POP JUMP JUMPDEST PUSH32 0x4572723A207A65726F2061646472210000000000000000000000000000000000 PUSH0 DUP3 ADD MSTORE POP JUMP JUMPDEST PUSH0 PUSH2 0x2B3 PUSH1 0xF DUP4 PUSH2 0x26F JUMP JUMPDEST SWAP2 POP PUSH2 0x2BE DUP3 PUSH2 0x27F JUMP JUMPDEST PUSH1 0x20 DUP3 ADD SWAP1 POP SWAP2 SWAP1 POP JUMP JUMPDEST PUSH0 PUSH1 0x20 DUP3 ADD SWAP1 POP DUP2 DUP2 SUB PUSH0 DUP4 ADD MSTORE PUSH2 0x2E0 DUP2 PUSH2 0x2A7 JUMP JUMPDEST SWAP1 POP SWAP2 SWAP1 POP JUMP JUMPDEST PUSH2 0x5DD2 DUP1 PUSH2 0x2F4 PUSH0 CODECOPY PUSH0 RETURN INVALID PUSH1 0x80 PUSH1 0x40 MSTORE PUSH1 0x4 CALLDATASIZE LT PUSH2 0x184 JUMPI PUSH0 CALLDATALOAD PUSH1 0xE0 SHR DUP1 PUSH4 0x92AF38D9 GT PUSH2 0xD0 JUMPI DUP1 PUSH4 0xDE2CF972 GT PUSH2 0x89 JUMPI DUP1 PUSH4 0xE7FAD70A GT PUSH2 0x63 JUMPI DUP1 PUSH4 0xE7FAD70A EQ PUSH2 0x543 JUMPI DUP1 PUSH4 0xF013E4B5 EQ PUSH2 0x56B JUMPI DUP1 PUSH4 0xF0D3361B EQ PUSH2 0x595 JUMPI DUP1 PUSH4 0xF9F92BE4 EQ PUSH2 0x5BD JUMPI PUSH2 0x18B JUMP JUMPDEST DUP1 PUSH4 0xDE2CF972 EQ PUSH2 0x4B8 JUMPI DUP1 PUSH4 0xE1EC3C68 EQ PUSH2 0x4E2 JUMPI DUP1 PUSH4 0xE7774868 EQ PUSH2 0x527 JUMPI PUSH2 0x18B JUMP JUMPDEST DUP1 PUSH4 0x92AF38D9 EQ PUSH2 0x3D0 JUMPI DUP1 PUSH4 0xA5623FFC EQ PUSH2 0x3F8 JUMPI DUP1 PUSH4 0xAA452FA6 EQ PUSH2 0x420 JUMPI DUP1 PUSH4 0xAADC1AC1 EQ PUSH2 0x43C JUMPI DUP1 PUSH4 0xBD998CB3 EQ PUSH2 0x464 JUMPI DUP1 PUSH4 0xD682DAB5 EQ PUSH2 0x48E JUMPI PUSH2 0x18B JUMP JUMPDEST DUP1 PUSH4 0x5B4D76F1 GT PUSH2 0x13D JUMPI DUP1 PUSH4 0x7794E3FD GT PUSH2 0x117 JUMPI DUP1 PUSH4 0x7794E3FD EQ PUSH2 0x2FD JUMPI DUP1 PUSH4 0x7BE9878B EQ PUSH2 0x339 JUMPI DUP1 PUSH4 0x8349D6BE EQ PUSH2 0x361 JUMPI DUP1 PUSH4 0x9047BF58 EQ PUSH2 0x3A6 JUMPI PUSH2 0x18B JUMP JUMPDEST DUP1 PUSH4 0x5B4D76F1 EQ PUSH2 0x285 JUMPI DUP1 PUSH4 0x5D29CB98 EQ PUSH2 0x2AD JUMPI DUP1 PUSH4 0x75E3661E EQ PUSH2 0x2D5 JUMPI PUSH2 0x18B JUMP JUMPDEST DUP1 PUSH4 0x161BA46A EQ PUSH2 0x18F JUMPI DUP1 PUSH4 0x217FE6C6 EQ PUSH2 0x1B9 JUMPI DUP1 PUSH4 0x23E77DB3 EQ PUSH2 0x1F5 JUMPI DUP1 PUSH4 0x26C8D0AE EQ PUSH2 0x20B JUMPI DUP1 PUSH4 0x4492B5C9 EQ PUSH2 0x233 JUMPI DUP1 PUSH4 0x559B9B4C EQ PUSH2 0x25D JUMPI PUSH2 0x18B JUMP JUMPDEST CALLDATASIZE PUSH2 0x18B JUMPI STOP JUMPDEST PUSH0 PUSH0 REVERT JUMPDEST CALLVALUE DUP1 ISZERO PUSH2 0x19A JUMPI PUSH0 PUSH0 REVERT JUMPDEST POP PUSH2 0x1A3 PUSH2 0x5F9 JUMP JUMPDEST PUSH1 0x40 MLOAD PUSH2 0x1B0 SWAP2 SWAP1 PUSH2 0x4245 JUMP JUMPDEST PUSH1 0x40 MLOAD DUP1 SWAP2 SUB SWAP1 RETURN JUMPDEST CALLVALUE DUP1 ISZERO PUSH2 0x1C4 JUMPI PUSH0 PUSH0 REVERT JUMPDEST POP PUSH2 0x1DF PUSH1 0x4 DUP1 CALLDATASIZE SUB DUP2 ADD SWAP1 PUSH2 0x1DA SWAP2 SWAP1 PUSH2 0x4321 JUMP JUMPDEST PUSH2 0x60D JUMP JUMPDEST PUSH1 0x40 MLOAD PUSH2 0x1EC SWAP2 SWAP1 PUSH2 0x4398 JUMP JUMPDEST PUSH1 0x40 MLOAD DUP1 SWAP2 SUB SWAP1 RETURN JUMPDEST CALLVALUE DUP1 ISZERO PUSH2 0x200 JUMPI PUSH0 PUSH0 REVERT JUMPDEST POP PUSH2 0x209 PUSH2 0x67F JUMP JUMPDEST STOP JUMPDEST CALLVALUE DUP1 ISZERO PUSH2 0x216 JUMPI PUSH0 PUSH0 REVERT JUMPDEST POP PUSH2 0x231 PUSH1 0x4 DUP1 CALLDATASIZE SUB DUP2 ADD SWAP1 PUSH2 0x22C SWAP2 SWAP1 PUSH2 0x43DB JUMP JUMPDEST PUSH2 0x8C6 JUMP JUMPDEST STOP JUMPDEST CALLVALUE DUP1 ISZERO PUSH2 0x23E JUMPI PUSH0 PUSH0 REVERT JUMPDEST POP PUSH2 0x247 PUSH2 0xA71 JUMP JUMPDEST PUSH1 0x40 MLOAD PUSH2 0x254 SWAP2 SWAP1 PUSH2 0x441E JUMP JUMPDEST PUSH1 0x40 MLOAD DUP1 SWAP2 SUB SWAP1 RETURN JUMPDEST CALLVALUE DUP1 ISZERO PUSH2 0x268 JUMPI PUSH0 PUSH0 REVERT JUMPDEST POP PUSH2 0x283 PUSH1 0x4 DUP1 CALLDATASIZE SUB DUP2 ADD SWAP1 PUSH2 0x27E SWAP2 SWAP1 PUSH2 0x4321 JUMP JUMPDEST PUSH2 0xB29 JUMP JUMPDEST STOP JUMPDEST CALLVALUE DUP1 ISZERO PUSH2 0x290 JUMPI PUSH0 PUSH0 REVERT JUMPDEST POP PUSH2 0x2AB PUSH1 0x4 DUP1 CALLDATASIZE SUB DUP2 ADD SWAP1 PUSH2 0x2A6 SWAP2 SWAP1 PUSH2 0x4461 JUMP JUMPDEST PUSH2 0xDD1 JUMP JUMPDEST STOP JUMPDEST CALLVALUE DUP1 ISZERO PUSH2 0x2B8 JUMPI PUSH0 PUSH0 REVERT JUMPDEST POP PUSH2 0x2D3 PUSH1 0x4 DUP1 CALLDATASIZE SUB DUP2 ADD SWAP1 PUSH2 0x2CE SWAP2 SWAP1 PUSH2 0x4461 JUMP JUMPDEST PUSH2 0x1078 JUMP JUMPDEST STOP JUMPDEST CALLVALUE DUP1 ISZERO PUSH2 0x2E0 JUMPI PUSH0 PUSH0 REVERT JUMPDEST POP PUSH2 0x2FB PUSH1 0x4 DUP1 CALLDATASIZE SUB DUP2 ADD SWAP1 PUSH2 0x2F6 SWAP2 SWAP1 PUSH2 0x448C JUMP JUMPDEST PUSH2 0x133E JUMP JUMPDEST STOP JUMPDEST CALLVALUE DUP1 ISZERO PUSH2 0x308 JUMPI PUSH0 PUSH0 REVERT JUMPDEST POP PUSH2 0x323 PUSH1 0x4 DUP1 CALLDATASIZE SUB DUP2 ADD SWAP1 PUSH2 0x31E SWAP2 SWAP1 PUSH2 0x448C JUMP JUMPDEST PUSH2 0x1516 JUMP JUMPDEST PUSH1 0x40 MLOAD PUSH2 0x330 SWAP2 SWAP1 PUSH2 0x441E JUMP JUMPDEST PUSH1 0x40 MLOAD DUP1 SWAP2 SUB SWAP1 RETURN JUMPDEST CALLVALUE DUP1 ISZERO PUSH2 0x344 JUMPI PUSH0 PUSH0 REVERT JUMPDEST POP PUSH2 0x35F PUSH1 0x4 DUP1 CALLDATASIZE SUB DUP2 ADD SWAP1 PUSH2 0x35A SWAP2 SWAP1 PUSH2 0x44F2 JUMP JUMPDEST PUSH2 0x152B JUMP JUMPDEST STOP JUMPDEST CALLVALUE DUP1 ISZERO PUSH2 0x36C JUMPI PUSH0 PUSH0 REVERT JUMPDEST POP PUSH2 0x387 PUSH1 0x4 DUP1 CALLDATASIZE SUB DUP2 ADD SWAP1 PUSH2 0x382 SWAP2 SWAP1 PUSH2 0x4461 JUMP JUMPDEST PUSH2 0x1755 JUMP JUMPDEST PUSH1 0x40 MLOAD PUSH2 0x39D SWAP11 SWAP10 SWAP9 SWAP8 SWAP7 SWAP6 SWAP5 SWAP4 SWAP3 SWAP2 SWAP1 PUSH2 0x452C JUMP JUMPDEST PUSH1 0x40 MLOAD DUP1 SWAP2 SUB SWAP1 RETURN JUMPDEST CALLVALUE DUP1 ISZERO PUSH2 0x3B1 JUMPI PUSH0 PUSH0 REVERT JUMPDEST POP PUSH2 0x3BA PUSH2 0x18B9 JUMP JUMPDEST PUSH1 0x40 MLOAD PUSH2 0x3C7 SWAP2 SWAP1 PUSH2 0x441E JUMP JUMPDEST PUSH1 0x40 MLOAD DUP1 SWAP2 SUB SWAP1 RETURN JUMPDEST CALLVALUE DUP1 ISZERO PUSH2 0x3DB JUMPI PUSH0 PUSH0 REVERT JUMPDEST POP PUSH2 0x3F6 PUSH1 0x4 DUP1 CALLDATASIZE SUB DUP2 ADD SWAP1 PUSH2 0x3F1 SWAP2 SWAP1 PUSH2 0x43DB JUMP JUMPDEST PUSH2 0x18BF JUMP JUMPDEST STOP JUMPDEST CALLVALUE DUP1 ISZERO PUSH2 0x403 JUMPI PUSH0 PUSH0 REVERT JUMPDEST POP PUSH2 0x41E PUSH1 0x4 DUP1 CALLDATASIZE SUB DUP2 ADD SWAP1 PUSH2 0x419 SWAP2 SWAP1 PUSH2 0x4321 JUMP JUMPDEST PUSH2 0x1A6C JUMP JUMPDEST STOP JUMPDEST PUSH2 0x43A PUSH1 0x4 DUP1 CALLDATASIZE SUB DUP2 ADD SWAP1 PUSH2 0x435 SWAP2 SWAP1 PUSH2 0x45C6 JUMP JUMPDEST PUSH2 0x1D84 JUMP JUMPDEST STOP JUMPDEST CALLVALUE DUP1 ISZERO PUSH2 0x447 JUMPI PUSH0 PUSH0 REVERT JUMPDEST POP PUSH2 0x462 PUSH1 0x4 DUP1 CALLDATASIZE SUB DUP2 ADD SWAP1 PUSH2 0x45D SWAP2 SWAP1 PUSH2 0x4461 JUMP JUMPDEST PUSH2 0x2268 JUMP JUMPDEST STOP JUMPDEST CALLVALUE DUP1 ISZERO PUSH2 0x46F JUMPI PUSH0 PUSH0 REVERT JUMPDEST POP PUSH2 0x478 PUSH2 0x2624 JUMP JUMPDEST PUSH1 0x40 MLOAD PUSH2 0x485 SWAP2 SWAP1 PUSH2 0x441E JUMP JUMPDEST PUSH1 0x40 MLOAD DUP1 SWAP2 SUB SWAP1 RETURN JUMPDEST CALLVALUE DUP1 ISZERO PUSH2 0x499 JUMPI PUSH0 PUSH0 REVERT JUMPDEST POP PUSH2 0x4A2 PUSH2 0x262A JUMP JUMPDEST PUSH1 0x40 MLOAD PUSH2 0x4AF SWAP2 SWAP1 PUSH2 0x4245 JUMP JUMPDEST PUSH1 0x40 MLOAD DUP1 SWAP2 SUB SWAP1 RETURN JUMPDEST CALLVALUE DUP1 ISZERO PUSH2 0x4C3 JUMPI PUSH0 PUSH0 REVERT JUMPDEST POP PUSH2 0x4CC PUSH2 0x263E JUMP JUMPDEST PUSH1 0x40 MLOAD PUSH2 0x4D9 SWAP2 SWAP1 PUSH2 0x4245 JUMP JUMPDEST PUSH1 0x40 MLOAD DUP1 SWAP2 SUB SWAP1 RETURN JUMPDEST CALLVALUE DUP1 ISZERO PUSH2 0x4ED JUMPI PUSH0 PUSH0 REVERT JUMPDEST POP PUSH2 0x508 PUSH1 0x4 DUP1 CALLDATASIZE SUB DUP2 ADD SWAP1 PUSH2 0x503 SWAP2 SWAP1 PUSH2 0x4461 JUMP JUMPDEST PUSH2 0x2652 JUMP JUMPDEST PUSH1 0x40 MLOAD PUSH2 0x51E SWAP11 SWAP10 SWAP9 SWAP8 SWAP7 SWAP6 SWAP5 SWAP4 SWAP3 SWAP2 SWAP1 PUSH2 0x452C JUMP JUMPDEST PUSH1 0x40 MLOAD DUP1 SWAP2 SUB SWAP1 RETURN JUMPDEST PUSH2 0x541 PUSH1 0x4 DUP1 CALLDATASIZE SUB DUP2 ADD SWAP1 PUSH2 0x53C SWAP2 SWAP1 PUSH2 0x45C6 JUMP JUMPDEST PUSH2 0x26E9 JUMP JUMPDEST STOP JUMPDEST CALLVALUE DUP1 ISZERO PUSH2 0x54E JUMPI PUSH0 PUSH0 REVERT JUMPDEST POP PUSH2 0x569 PUSH1 0x4 DUP1 CALLDATASIZE SUB DUP2 ADD SWAP1 PUSH2 0x564 SWAP2 SWAP1 PUSH2 0x43DB JUMP JUMPDEST PUSH2 0x2E02 JUMP JUMPDEST STOP JUMPDEST CALLVALUE DUP1 ISZERO PUSH2 0x576 JUMPI PUSH0 PUSH0 REVERT JUMPDEST POP PUSH2 0x57F PUSH2 0x2FAF JUMP JUMPDEST PUSH1 0x40 MLOAD PUSH2 0x58C SWAP2 SWAP1 PUSH2 0x4245 JUMP JUMPDEST PUSH1 0x40 MLOAD DUP1 SWAP2 SUB SWAP1 RETURN JUMPDEST CALLVALUE DUP1 ISZERO PUSH2 0x5A0 JUMPI PUSH0 PUSH0 REVERT JUMPDEST POP PUSH2 0x5BB PUSH1 0x4 DUP1 CALLDATASIZE SUB DUP2 ADD SWAP1 PUSH2 0x5B6 SWAP2 SWAP1 PUSH2 0x43DB JUMP JUMPDEST PUSH2 0x2FC2 JUMP JUMPDEST STOP JUMPDEST CALLVALUE DUP1 ISZERO PUSH2 0x5C8 JUMPI PUSH0 PUSH0 REVERT JUMPDEST POP PUSH2 0x5E3 PUSH1 0x4 DUP1 CALLDATASIZE SUB DUP2 ADD SWAP1 PUSH2 0x5DE SWAP2 SWAP1 PUSH2 0x448C JUMP JUMPDEST PUSH2 0x3129 JUMP JUMPDEST PUSH1 0x40 MLOAD PUSH2 0x5F0 SWAP2 SWAP1 PUSH2 0x4398 JUMP JUMPDEST PUSH1 0x40 MLOAD DUP1 SWAP2 SUB SWAP1 RETURN JUMPDEST PUSH1 0x5 PUSH1 0x2 SWAP1 SLOAD SWAP1 PUSH2 0x100 EXP SWAP1 DIV PUSH2 0xFFFF AND DUP2 JUMP JUMPDEST PUSH0 PUSH1 0x2 PUSH0 DUP6 PUSH20 0xFFFFFFFFFFFFFFFFFFFFFFFFFFFFFFFFFFFFFFFF AND PUSH20 0xFFFFFFFFFFFFFFFFFFFFFFFFFFFFFFFFFFFFFFFF AND DUP2 MSTORE PUSH1 0x20 ADD SWAP1 DUP2 MSTORE PUSH1 0x20 ADD PUSH0 KECCAK256 DUP4 DUP4 PUSH1 0x40 MLOAD PUSH2 0x65B SWAP3 SWAP2 SWAP1 PUSH2 0x4640 JUMP JUMPDEST SWAP1 DUP2 MSTORE PUSH1 0x20 ADD PUSH1 0x40 MLOAD DUP1 SWAP2 SUB SWAP1 KECCAK256 PUSH0 SWAP1 SLOAD SWAP1 PUSH2 0x100 EXP SWAP1 DIV PUSH1 0xFF AND SWAP1 POP SWAP4 SWAP3 POP POP POP JUMP JUMPDEST PUSH1 0x2 PUSH0 CALLER PUSH20 0xFFFFFFFFFFFFFFFFFFFFFFFFFFFFFFFFFFFFFFFF AND PUSH20 0xFFFFFFFFFFFFFFFFFFFFFFFFFFFFFFFFFFFFFFFF AND DUP2 MSTORE PUSH1 0x20 ADD SWAP1 DUP2 MSTORE PUSH1 0x20 ADD PUSH0 KECCAK256 PUSH1 0x40 MLOAD PUSH2 0x6C8 SWAP1 PUSH2 0x46A2 JUMP JUMPDEST SWAP1 DUP2 MSTORE PUSH1 0x20 ADD PUSH1 0x40 MLOAD DUP1 SWAP2 SUB SWAP1 KECCAK256 PUSH0 SWAP1 SLOAD SWAP1 PUSH2 0x100 EXP SWAP1 DIV PUSH1 0xFF AND PUSH2 0x722 JUMPI PUSH1 0x40 MLOAD PUSH32 0x8C379A000000000000000000000000000000000000000000000000000000000 DUP2 MSTORE PUSH1 0x4 ADD PUSH2 0x719 SWAP1 PUSH2 0x4736 JUMP JUMPDEST PUSH1 0x40 MLOAD DUP1 SWAP2 SUB SWAP1 REVERT JUMPDEST PUSH2 0x72A PUSH2 0x3146 JUMP JUMPDEST PUSH2 0x733 CALLER PUSH2 0x3195 JUMP JUMPDEST PUSH0 PUSH1 0x6 SLOAD SWAP1 POP PUSH0 DUP2 GT PUSH2 0x77B JUMPI PUSH1 0x40 MLOAD PUSH32 0x8C379A000000000000000000000000000000000000000000000000000000000 DUP2 MSTORE PUSH1 0x4 ADD PUSH2 0x772 SWAP1 PUSH2 0x479E JUMP JUMPDEST PUSH1 0x40 MLOAD DUP1 SWAP2 SUB SWAP1 REVERT JUMPDEST PUSH0 PUSH1 0x6 DUP2 SWAP1 SSTORE POP PUSH0 PUSH1 0x7 PUSH0 SWAP1 SLOAD SWAP1 PUSH2 0x100 EXP SWAP1 DIV PUSH20 0xFFFFFFFFFFFFFFFFFFFFFFFFFFFFFFFFFFFFFFFF AND PUSH20 0xFFFFFFFFFFFFFFFFFFFFFFFFFFFFFFFFFFFFFFFF AND DUP3 PUSH1 0x40 MLOAD PUSH2 0x7C8 SWAP1 PUSH2 0x47E9 JUMP JUMPDEST PUSH0 PUSH1 0x40 MLOAD DUP1 DUP4 SUB DUP2 DUP6 DUP8 GAS CALL SWAP3 POP POP POP RETURNDATASIZE DUP1 PUSH0 DUP2 EQ PUSH2 0x802 JUMPI PUSH1 0x40 MLOAD SWAP2 POP PUSH1 0x1F NOT PUSH1 0x3F RETURNDATASIZE ADD AND DUP3 ADD PUSH1 0x40 MSTORE RETURNDATASIZE DUP3 MSTORE RETURNDATASIZE PUSH0 PUSH1 0x20 DUP5 ADD RETURNDATACOPY PUSH2 0x807 JUMP JUMPDEST PUSH1 0x60 SWAP2 POP JUMPDEST POP POP SWAP1 POP DUP1 PUSH2 0x84B JUMPI PUSH1 0x40 MLOAD PUSH32 0x8C379A000000000000000000000000000000000000000000000000000000000 DUP2 MSTORE PUSH1 0x4 ADD PUSH2 0x842 SWAP1 PUSH2 0x4847 JUMP JUMPDEST PUSH1 0x40 MLOAD DUP1 SWAP2 SUB SWAP1 REVERT JUMPDEST PUSH1 0x7 PUSH0 SWAP1 SLOAD SWAP1 PUSH2 0x100 EXP SWAP1 DIV PUSH20 0xFFFFFFFFFFFFFFFFFFFFFFFFFFFFFFFFFFFFFFFF AND PUSH20 0xFFFFFFFFFFFFFFFFFFFFFFFFFFFFFFFFFFFFFFFF AND PUSH32 0xF43E8D333B9DDB8704EB40C14E57021E6D22A57B7E9BF2111AF5F1FFEA6ADA58 DUP4 PUSH1 0x40 MLOAD PUSH2 0x8B2 SWAP2 SWAP1 PUSH2 0x441E JUMP JUMPDEST PUSH1 0x40 MLOAD DUP1 SWAP2 SUB SWAP1 LOG2 POP POP PUSH2 0x8C4 PUSH2 0x3206 JUMP JUMPDEST JUMP JUMPDEST PUSH1 0x2 PUSH0 CALLER PUSH20 0xFFFFFFFFFFFFFFFFFFFFFFFFFFFFFFFFFFFFFFFF AND PUSH20 0xFFFFFFFFFFFFFFFFFFFFFFFFFFFFFFFFFFFFFFFF AND DUP2 MSTORE PUSH1 0x20 ADD SWAP1 DUP2 MSTORE PUSH1 0x20 ADD PUSH0 KECCAK256 PUSH1 0x40 MLOAD PUSH2 0x90F SWAP1 PUSH2 0x46A2 JUMP JUMPDEST SWAP1 DUP2 MSTORE PUSH1 0x20 ADD PUSH1 0x40 MLOAD DUP1 SWAP2 SUB SWAP1 KECCAK256 PUSH0 SWAP1 SLOAD SWAP1 PUSH2 0x100 EXP SWAP1 DIV PUSH1 0xFF AND PUSH2 0x969 JUMPI PUSH1 0x40 MLOAD PUSH32 0x8C379A000000000000000000000000000000000000000000000000000000000 DUP2 MSTORE PUSH1 0x4 ADD PUSH2 0x960 SWAP1 PUSH2 0x4736 JUMP JUMPDEST PUSH1 0x40 MLOAD DUP1 SWAP2 SUB SWAP1 REVERT JUMPDEST PUSH2 0x972 CALLER PUSH2 0x3195 JUMP JUMPDEST PUSH2 0x7D0 DUP2 PUSH2 0xFFFF AND GT ISZERO PUSH2 0x9BB JUMPI PUSH1 0x40 MLOAD PUSH32 0x8C379A000000000000000000000000000000000000000000000000000000000 DUP2 MSTORE PUSH1 0x4 ADD PUSH2 0x9B2 SWAP1 PUSH2 0x48AF JUMP JUMPDEST PUSH1 0x40 MLOAD DUP1 SWAP2 SUB SWAP1 REVERT JUMPDEST PUSH0 DUP2 PUSH2 0xFFFF AND GT PUSH2 0xA01 JUMPI PUSH1 0x40 MLOAD PUSH32 0x8C379A000000000000000000000000000000000000000000000000000000000 DUP2 MSTORE PUSH1 0x4 ADD PUSH2 0x9F8 SWAP1 PUSH2 0x4917 JUMP JUMPDEST PUSH1 0x40 MLOAD DUP1 SWAP2 SUB SWAP1 REVERT JUMPDEST PUSH0 PUSH1 0x5 PUSH0 SWAP1 SLOAD SWAP1 PUSH2 0x100 EXP SWAP1 DIV PUSH2 0xFFFF AND PUSH2 0xFFFF AND SWAP1 POP DUP2 PUSH1 0x5 PUSH0 PUSH2 0x100 EXP DUP2 SLOAD DUP2 PUSH2 0xFFFF MUL NOT AND SWAP1 DUP4 PUSH2 0xFFFF AND MUL OR SWAP1 SSTORE POP PUSH32 0xF93CE1B2E2CB74B524760DFF1842E28B944E9C40627C07348A36C404BE739C02 DUP2 DUP4 PUSH1 0x40 MLOAD PUSH2 0xA65 SWAP3 SWAP2 SWAP1 PUSH2 0x496E JUMP JUMPDEST PUSH1 0x40 MLOAD DUP1 SWAP2 SUB SWAP1 LOG1 POP POP JUMP JUMPDEST PUSH0 PUSH1 0x2 PUSH0 CALLER PUSH20 0xFFFFFFFFFFFFFFFFFFFFFFFFFFFFFFFFFFFFFFFF AND PUSH20 0xFFFFFFFFFFFFFFFFFFFFFFFFFFFFFFFFFFFFFFFF AND DUP2 MSTORE PUSH1 0x20 ADD SWAP1 DUP2 MSTORE PUSH1 0x20 ADD PUSH0 KECCAK256 PUSH1 0x40 MLOAD PUSH2 0xABB SWAP1 PUSH2 0x46A2 JUMP JUMPDEST SWAP1 DUP2 MSTORE PUSH1 0x20 ADD PUSH1 0x40 MLOAD DUP1 SWAP2 SUB SWAP1 KECCAK256 PUSH0 SWAP1 SLOAD SWAP1 PUSH2 0x100 EXP SWAP1 DIV PUSH1 0xFF AND PUSH2 0xB15 JUMPI PUSH1 0x40 MLOAD PUSH32 0x8C379A000000000000000000000000000000000000000000000000000000000 DUP2 MSTORE PUSH1 0x4 ADD PUSH2 0xB0C SWAP1 PUSH2 0x4736 JUMP JUMPDEST PUSH1 0x40 MLOAD DUP1 SWAP2 SUB SWAP1 REVERT JUMPDEST PUSH2 0xB1E CALLER PUSH2 0x3195 JUMP JUMPDEST PUSH1 0x4 DUP1 SLOAD SWAP1 POP SWAP1 POP SWAP1 JUMP JUMPDEST PUSH0 PUSH0 SWAP1 SLOAD SWAP1 PUSH2 0x100 EXP SWAP1 DIV PUSH20 0xFFFFFFFFFFFFFFFFFFFFFFFFFFFFFFFFFFFFFFFF AND PUSH20 0xFFFFFFFFFFFFFFFFFFFFFFFFFFFFFFFFFFFFFFFF AND CALLER PUSH20 0xFFFFFFFFFFFFFFFFFFFFFFFFFFFFFFFFFFFFFFFF AND EQ PUSH2 0xBB7 JUMPI PUSH1 0x40 MLOAD PUSH32 0x8C379A000000000000000000000000000000000000000000000000000000000 DUP2 MSTORE PUSH1 0x4 ADD PUSH2 0xBAE SWAP1 PUSH2 0x4A05 JUMP JUMPDEST PUSH1 0x40 MLOAD DUP1 SWAP2 SUB SWAP1 REVERT JUMPDEST PUSH1 0x40 MLOAD DUP1 PUSH1 0x40 ADD PUSH1 0x40 MSTORE DUP1 PUSH1 0x7 DUP2 MSTORE PUSH1 0x20 ADD PUSH32 0x456D706C6F796500000000000000000000000000000000000000000000000000 DUP2 MSTORE POP DUP1 MLOAD SWAP1 PUSH1 0x20 ADD KECCAK256 DUP3 DUP3 PUSH1 0x40 MLOAD PUSH2 0xC04 SWAP3 SWAP2 SWAP1 PUSH2 0x4A47 JUMP JUMPDEST PUSH1 0x40 MLOAD DUP1 SWAP2 SUB SWAP1 KECCAK256 EQ PUSH2 0xC4C JUMPI PUSH1 0x40 MLOAD PUSH32 0x8C379A000000000000000000000000000000000000000000000000000000000 DUP2 MSTORE PUSH1 0x4 ADD PUSH2 0xC43 SWAP1 PUSH2 0x4AA9 JUMP JUMPDEST PUSH1 0x40 MLOAD DUP1 SWAP2 SUB SWAP1 REVERT JUMPDEST PUSH1 0x2 PUSH0 DUP5 PUSH20 0xFFFFFFFFFFFFFFFFFFFFFFFFFFFFFFFFFFFFFFFF AND PUSH20 0xFFFFFFFFFFFFFFFFFFFFFFFFFFFFFFFFFFFFFFFF AND DUP2 MSTORE PUSH1 0x20 ADD SWAP1 DUP2 MSTORE PUSH1 0x20 ADD PUSH0 KECCAK256 DUP3 DUP3 PUSH1 0x40 MLOAD PUSH2 0xC99 SWAP3 SWAP2 SWAP1 PUSH2 0x4640 JUMP JUMPDEST SWAP1 DUP2 MSTORE PUSH1 0x20 ADD PUSH1 0x40 MLOAD DUP1 SWAP2 SUB SWAP1 KECCAK256 PUSH0 SWAP1 SLOAD SWAP1 PUSH2 0x100 EXP SWAP1 DIV PUSH1 0xFF AND PUSH2 0xCF3 JUMPI PUSH1 0x40 MLOAD PUSH32 0x8C379A000000000000000000000000000000000000000000000000000000000 DUP2 MSTORE PUSH1 0x4 ADD PUSH2 0xCEA SWAP1 PUSH2 0x4B37 JUMP JUMPDEST PUSH1 0x40 MLOAD DUP1 SWAP2 SUB SWAP1 REVERT JUMPDEST PUSH0 PUSH1 0x2 PUSH0 DUP6 PUSH20 0xFFFFFFFFFFFFFFFFFFFFFFFFFFFFFFFFFFFFFFFF AND PUSH20 0xFFFFFFFFFFFFFFFFFFFFFFFFFFFFFFFFFFFFFFFF AND DUP2 MSTORE PUSH1 0x20 ADD SWAP1 DUP2 MSTORE PUSH1 0x20 ADD PUSH0 KECCAK256 DUP4 DUP4 PUSH1 0x40 MLOAD PUSH2 0xD41 SWAP3 SWAP2 SWAP1 PUSH2 0x4640 JUMP JUMPDEST SWAP1 DUP2 MSTORE PUSH1 0x20 ADD PUSH1 0x40 MLOAD DUP1 SWAP2 SUB SWAP1 KECCAK256 PUSH0 PUSH2 0x100 EXP DUP2 SLOAD DUP2 PUSH1 0xFF MUL NOT AND SWAP1 DUP4 ISZERO ISZERO MUL OR SWAP1 SSTORE POP PUSH1 0x1 PUSH0 DUP2 SLOAD DUP1 SWAP3 SWAP2 SWAP1 PUSH2 0xD77 SWAP1 PUSH2 0x4B82 JUMP JUMPDEST SWAP2 SWAP1 POP SSTORE POP DUP3 PUSH20 0xFFFFFFFFFFFFFFFFFFFFFFFFFFFFFFFFFFFFFFFF AND PUSH32 0xCF3BBB93629B62834974659EFC838721FA2BD3B41CAFD38B516AC86B661491E1 DUP4 DUP4 PUSH1 0x40 MLOAD PUSH2 0xDC4 SWAP3 SWAP2 SWAP1 PUSH2 0x4BE5 JUMP JUMPDEST PUSH1 0x40 MLOAD DUP1 SWAP2 SUB SWAP1 LOG2 POP POP POP JUMP JUMPDEST PUSH1 0x2 PUSH0 CALLER PUSH20 0xFFFFFFFFFFFFFFFFFFFFFFFFFFFFFFFFFFFFFFFF AND PUSH20 0xFFFFFFFFFFFFFFFFFFFFFFFFFFFFFFFFFFFFFFFF AND DUP2 MSTORE PUSH1 0x20 ADD SWAP1 DUP2 MSTORE PUSH1 0x20 ADD PUSH0 KECCAK256 PUSH1 0x40 MLOAD PUSH2 0xE1A SWAP1 PUSH2 0x46A2 JUMP JUMPDEST SWAP1 DUP2 MSTORE PUSH1 0x20 ADD PUSH1 0x40 MLOAD DUP1 SWAP2 SUB SWAP1 KECCAK256 PUSH0 SWAP1 SLOAD SWAP1 PUSH2 0x100 EXP SWAP1 DIV PUSH1 0xFF AND ISZERO PUSH2 0xE75 JUMPI PUSH1 0x40 MLOAD PUSH32 0x8C379A000000000000000000000000000000000000000000000000000000000 DUP2 MSTORE PUSH1 0x4 ADD PUSH2 0xE6C SWAP1 PUSH2 0x4C77 JUMP JUMPDEST PUSH1 0x40 MLOAD DUP1 SWAP2 SUB SWAP1 REVERT JUMPDEST PUSH0 PUSH0 SWAP1 SLOAD SWAP1 PUSH2 0x100 EXP SWAP1 DIV PUSH20 0xFFFFFFFFFFFFFFFFFFFFFFFFFFFFFFFFFFFFFFFF AND PUSH20 0xFFFFFFFFFFFFFFFFFFFFFFFFFFFFFFFFFFFFFFFF AND CALLER PUSH20 0xFFFFFFFFFFFFFFFFFFFFFFFFFFFFFFFFFFFFFFFF AND SUB PUSH2 0xF03 JUMPI PUSH1 0x40 MLOAD PUSH32 0x8C379A000000000000000000000000000000000000000000000000000000000 DUP2 MSTORE PUSH1 0x4 ADD PUSH2 0xEFA SWAP1 PUSH2 0x4D05 JUMP JUMPDEST PUSH1 0x40 MLOAD DUP1 SWAP2 SUB SWAP1 REVERT JUMPDEST PUSH2 0xF0C CALLER PUSH2 0x3195 JUMP JUMPDEST PUSH2 0xF15 DUP2 PUSH2 0x3210 JUMP JUMPDEST PUSH0 PUSH1 0x4 DUP3 DUP2 SLOAD DUP2 LT PUSH2 0xF2A JUMPI PUSH2 0xF29 PUSH2 0x4D23 JUMP JUMPDEST JUMPDEST SWAP1 PUSH0 MSTORE PUSH1 0x20 PUSH0 KECCAK256 SWAP1 PUSH1 0x9 MUL ADD SWAP1 POP DUP1 PUSH1 0x8 ADD PUSH1 0x1 SWAP1 SLOAD SWAP1 PUSH2 0x100 EXP SWAP1 DIV PUSH1 0xFF AND ISZERO DUP1 PUSH2 0xF63 JUMPI POP DUP1 PUSH1 0x8 ADD PUSH0 SWAP1 SLOAD SWAP1 PUSH2 0x100 EXP SWAP1 DIV PUSH1 0xFF AND JUMPDEST ISZERO PUSH2 0xF6E JUMPI POP PUSH2 0x1075 JUMP JUMPDEST PUSH0 PUSH2 0xF84 DUP3 PUSH1 0x3 ADD SLOAD PUSH2 0xF7F PUSH2 0x325A JUMP JUMPDEST PUSH2 0x3261 JUMP JUMPDEST SWAP1 POP PUSH0 DUP2 SWAP1 POP DUP3 PUSH1 0x2 ADD SLOAD DUP2 GT ISZERO PUSH2 0xF9E JUMPI DUP3 PUSH1 0x2 ADD SLOAD SWAP1 POP JUMPDEST DUP3 PUSH1 0x4 ADD SLOAD DUP2 GT ISZERO PUSH2 0x1015 JUMPI PUSH0 DUP4 PUSH1 0x4 ADD SLOAD DUP3 PUSH2 0xFBB SWAP2 SWAP1 PUSH2 0x4D50 JUMP JUMPDEST SWAP1 POP DUP1 DUP5 PUSH1 0x5 ADD PUSH0 DUP3 DUP3 SLOAD PUSH2 0xFD0 SWAP2 SWAP1 PUSH2 0x4D83 JUMP JUMPDEST SWAP3 POP POP DUP2 SWAP1 SSTORE POP DUP5 PUSH32 0xA9BD81B5E2FA2470F02961F37FA6590C16A995E9BBF73088778E72EA4237C4BB DUP6 PUSH1 0x5 ADD SLOAD PUSH1 0x40 MLOAD PUSH2 0x100B SWAP2 SWAP1 PUSH2 0x441E JUMP JUMPDEST PUSH1 0x40 MLOAD DUP1 SWAP2 SUB SWAP1 LOG2 POP JUMPDEST PUSH1 0x3 DUP4 PUSH1 0x5 ADD SLOAD LT PUSH2 0x102D JUMPI PUSH2 0x102C DUP5 PUSH1 0x3 PUSH2 0x3299 JUMP JUMPDEST JUMPDEST DUP3 PUSH1 0x2 ADD SLOAD DUP3 LT ISZERO DUP1 ISZERO PUSH2 0x1048 JUMPI POP DUP3 PUSH1 0x2 ADD SLOAD DUP4 PUSH1 0x4 ADD SLOAD LT JUMPDEST DUP1 ISZERO PUSH2 0x1062 JUMPI POP DUP3 PUSH1 0x8 ADD PUSH0 SWAP1 SLOAD SWAP1 PUSH2 0x100 EXP SWAP1 DIV PUSH1 0xFF AND ISZERO JUMPDEST ISZERO PUSH2 0x1071 JUMPI PUSH2 0x1070 DUP5 PUSH2 0x3A0A JUMP JUMPDEST JUMPDEST POP POP POP JUMPDEST POP JUMP JUMPDEST PUSH1 0x2 PUSH0 CALLER PUSH20 0xFFFFFFFFFFFFFFFFFFFFFFFFFFFFFFFFFFFFFFFF AND PUSH20 0xFFFFFFFFFFFFFFFFFFFFFFFFFFFFFFFFFFFFFFFF AND DUP2 MSTORE PUSH1 0x20 ADD SWAP1 DUP2 MSTORE PUSH1 0x20 ADD PUSH0 KECCAK256 PUSH1 0x40 MLOAD PUSH2 0x10C1 SWAP1 PUSH2 0x46A2 JUMP JUMPDEST SWAP1 DUP2 MSTORE PUSH1 0x20 ADD PUSH1 0x40 MLOAD DUP1 SWAP2 SUB SWAP1 KECCAK256 PUSH0 SWAP1 SLOAD SWAP1 PUSH2 0x100 EXP SWAP1 DIV PUSH1 0xFF AND PUSH2 0x111B JUMPI PUSH1 0x40 MLOAD PUSH32 0x8C379A000000000000000000000000000000000000000000000000000000000 DUP2 MSTORE PUSH1 0x4 ADD PUSH2 0x1112 SWAP1 PUSH2 0x4736 JUMP JUMPDEST PUSH1 0x40 MLOAD DUP1 SWAP2 SUB SWAP1 REVERT JUMPDEST PUSH2 0x1123 PUSH2 0x3146 JUMP JUMPDEST PUSH2 0x112C CALLER PUSH2 0x3195 JUMP JUMPDEST PUSH2 0x1135 DUP2 PUSH2 0x3210 JUMP JUMPDEST PUSH0 PUSH1 0x4 DUP3 DUP2 SLOAD DUP2 LT PUSH2 0x114A JUMPI PUSH2 0x1149 PUSH2 0x4D23 JUMP JUMPDEST JUMPDEST SWAP1 PUSH0 MSTORE PUSH1 0x20 PUSH0 KECCAK256 SWAP1 PUSH1 0x9 MUL ADD SWAP1 POP DUP1 PUSH1 0x8 ADD PUSH1 0x1 SWAP1 SLOAD SWAP1 PUSH2 0x100 EXP SWAP1 DIV PUSH1 0xFF AND ISZERO DUP1 ISZERO PUSH2 0x1185 JUMPI POP DUP1 PUSH1 0x8 ADD PUSH0 SWAP1 SLOAD SWAP1 PUSH2 0x100 EXP SWAP1 DIV PUSH1 0xFF AND ISZERO JUMPDEST PUSH2 0x11C4 JUMPI PUSH1 0x40 MLOAD PUSH32 0x8C379A000000000000000000000000000000000000000000000000000000000 DUP2 MSTORE PUSH1 0x4 ADD PUSH2 0x11BB SWAP1 PUSH2 0x4E00 JUMP JUMPDEST PUSH1 0x40 MLOAD DUP1 SWAP2 SUB SWAP1 REVERT JUMPDEST PUSH0 DUP2 PUSH1 0x7 ADD SLOAD SWAP1 POP PUSH0 DUP3 PUSH1 0x7 ADD DUP2 SWAP1 SSTORE POP PUSH0 DUP3 PUSH0 ADD PUSH0 SWAP1 SLOAD SWAP1 PUSH2 0x100 EXP SWAP1 DIV PUSH20 0xFFFFFFFFFFFFFFFFFFFFFFFFFFFFFFFFFFFFFFFF AND PUSH20 0xFFFFFFFFFFFFFFFFFFFFFFFFFFFFFFFFFFFFFFFF AND DUP3 PUSH1 0x40 MLOAD PUSH2 0x121C SWAP1 PUSH2 0x47E9 JUMP JUMPDEST PUSH0 PUSH1 0x40 MLOAD DUP1 DUP4 SUB DUP2 DUP6 DUP8 GAS CALL SWAP3 POP POP POP RETURNDATASIZE DUP1 PUSH0 DUP2 EQ PUSH2 0x1256 JUMPI PUSH1 0x40 MLOAD SWAP2 POP PUSH1 0x1F NOT PUSH1 0x3F RETURNDATASIZE ADD AND DUP3 ADD PUSH1 0x40 MSTORE RETURNDATASIZE DUP3 MSTORE RETURNDATASIZE PUSH0 PUSH1 0x20 DUP5 ADD RETURNDATACOPY PUSH2 0x125B JUMP JUMPDEST PUSH1 0x60 SWAP2 POP JUMPDEST POP POP SWAP1 POP DUP1 PUSH2 0x129F JUMPI PUSH1 0x40 MLOAD PUSH32 0x8C379A000000000000000000000000000000000000000000000000000000000 DUP2 MSTORE PUSH1 0x4 ADD PUSH2 0x1296 SWAP1 PUSH2 0x4E68 JUMP JUMPDEST PUSH1 0x40 MLOAD DUP1 SWAP2 SUB SWAP1 REVERT JUMPDEST PUSH1 0x1 DUP4 PUSH1 0x8 ADD PUSH0 PUSH2 0x100 EXP DUP2 SLOAD DUP2 PUSH1 0xFF MUL NOT AND SWAP1 DUP4 ISZERO ISZERO MUL OR SWAP1 SSTORE POP DUP3 PUSH0 ADD PUSH0 SWAP1 SLOAD SWAP1 PUSH2 0x100 EXP SWAP1 DIV PUSH20 0xFFFFFFFFFFFFFFFFFFFFFFFFFFFFFFFFFFFFFFFF AND PUSH20 0xFFFFFFFFFFFFFFFFFFFFFFFFFFFFFFFFFFFFFFFF AND DUP5 PUSH32 0x4A14ED616CE90B51A0A9222C0E231E9CE03B6885730AFF30C76A5CCB7C5B8106 DUP5 PUSH0 PUSH0 PUSH1 0x40 MLOAD PUSH2 0x1328 SWAP4 SWAP3 SWAP2 SWAP1 PUSH2 0x4EBF JUMP JUMPDEST PUSH1 0x40 MLOAD DUP1 SWAP2 SUB SWAP1 LOG3 POP POP POP PUSH2 0x133B PUSH2 0x3206 JUMP JUMPDEST POP JUMP JUMPDEST PUSH1 0x2 PUSH0 CALLER PUSH20 0xFFFFFFFFFFFFFFFFFFFFFFFFFFFFFFFFFFFFFFFF AND PUSH20 0xFFFFFFFFFFFFFFFFFFFFFFFFFFFFFFFFFFFFFFFF AND DUP2 MSTORE PUSH1 0x20 ADD SWAP1 DUP2 MSTORE PUSH1 0x20 ADD PUSH0 KECCAK256 PUSH1 0x40 MLOAD PUSH2 0x1387 SWAP1 PUSH2 0x46A2 JUMP JUMPDEST SWAP1 DUP2 MSTORE PUSH1 0x20 ADD PUSH1 0x40 MLOAD DUP1 SWAP2 SUB SWAP1 KECCAK256 PUSH0 SWAP1 SLOAD SWAP1 PUSH2 0x100 EXP SWAP1 DIV PUSH1 0xFF AND PUSH2 0x13E1 JUMPI PUSH1 0x40 MLOAD PUSH32 0x8C379A000000000000000000000000000000000000000000000000000000000 DUP2 MSTORE PUSH1 0x4 ADD PUSH2 0x13D8 SWAP1 PUSH2 0x4736 JUMP JUMPDEST PUSH1 0x40 MLOAD DUP1 SWAP2 SUB SWAP1 REVERT JUMPDEST PUSH2 0x13EA CALLER PUSH2 0x3195 JUMP JUMPDEST PUSH2 0x13F3 DUP2 PUSH2 0x3195 JUMP JUMPDEST PUSH1 0x8 PUSH0 DUP3 PUSH20 0xFFFFFFFFFFFFFFFFFFFFFFFFFFFFFFFFFFFFFFFF AND PUSH20 0xFFFFFFFFFFFFFFFFFFFFFFFFFFFFFFFFFFFFFFFF AND DUP2 MSTORE PUSH1 0x20 ADD SWAP1 DUP2 MSTORE PUSH1 0x20 ADD PUSH0 KECCAK256 PUSH0 SWAP1 SLOAD SWAP1 PUSH2 0x100 EXP SWAP1 DIV PUSH1 0xFF AND PUSH2 0x147C JUMPI PUSH1 0x40 MLOAD PUSH32 0x8C379A000000000000000000000000000000000000000000000000000000000 DUP2 MSTORE PUSH1 0x4 ADD PUSH2 0x1473 SWAP1 PUSH2 0x4F3E JUMP JUMPDEST PUSH1 0x40 MLOAD DUP1 SWAP2 SUB SWAP1 REVERT JUMPDEST PUSH0 PUSH1 0x8 PUSH0 DUP4 PUSH20 0xFFFFFFFFFFFFFFFFFFFFFFFFFFFFFFFFFFFFFFFF AND PUSH20 0xFFFFFFFFFFFFFFFFFFFFFFFFFFFFFFFFFFFFFFFF AND DUP2 MSTORE PUSH1 0x20 ADD SWAP1 DUP2 MSTORE PUSH1 0x20 ADD PUSH0 KECCAK256 PUSH0 PUSH2 0x100 EXP DUP2 SLOAD DUP2 PUSH1 0xFF MUL NOT AND SWAP1 DUP4 ISZERO ISZERO MUL OR SWAP1 SSTORE POP DUP1 PUSH20 0xFFFFFFFFFFFFFFFFFFFFFFFFFFFFFFFFFFFFFFFF AND PUSH32 0x117E3210BB9AA7D9BAFF172026820255C6F6C30BA8999D1C2FD88E2848137C4E PUSH1 0x40 MLOAD PUSH1 0x40 MLOAD DUP1 SWAP2 SUB SWAP1 LOG2 POP JUMP JUMPDEST PUSH1 0x9 PUSH1 0x20 MSTORE DUP1 PUSH0 MSTORE PUSH1 0x40 PUSH0 KECCAK256 PUSH0 SWAP2 POP SWAP1 POP SLOAD DUP2 JUMP JUMPDEST PUSH1 0x2 PUSH0 CALLER PUSH20 0xFFFFFFFFFFFFFFFFFFFFFFFFFFFFFFFFFFFFFFFF AND PUSH20 0xFFFFFFFFFFFFFFFFFFFFFFFFFFFFFFFFFFFFFFFF AND DUP2 MSTORE PUSH1 0x20 ADD SWAP1 DUP2 MSTORE PUSH1 0x20 ADD PUSH0 KECCAK256 PUSH1 0x40 MLOAD PUSH2 0x1574 SWAP1 PUSH2 0x46A2 JUMP JUMPDEST SWAP1 DUP2 MSTORE PUSH1 0x20 ADD PUSH1 0x40 MLOAD DUP1 SWAP2 SUB SWAP1 KECCAK256 PUSH0 SWAP1 SLOAD SWAP1 PUSH2 0x100 EXP SWAP1 DIV PUSH1 0xFF AND PUSH2 0x15CE JUMPI PUSH1 0x40 MLOAD PUSH32 0x8C379A000000000000000000000000000000000000000000000000000000000 DUP2 MSTORE PUSH1 0x4 ADD PUSH2 0x15C5 SWAP1 PUSH2 0x4736 JUMP JUMPDEST PUSH1 0x40 MLOAD DUP1 SWAP2 SUB SWAP1 REVERT JUMPDEST PUSH2 0x15D7 CALLER PUSH2 0x3195 JUMP JUMPDEST PUSH0 PUSH20 0xFFFFFFFFFFFFFFFFFFFFFFFFFFFFFFFFFFFFFFFF AND DUP2 PUSH20 0xFFFFFFFFFFFFFFFFFFFFFFFFFFFFFFFFFFFFFFFF AND SUB PUSH2 0x1645 JUMPI PUSH1 0x40 MLOAD PUSH32 0x8C379A000000000000000000000000000000000000000000000000000000000 DUP2 MSTORE PUSH1 0x4 ADD PUSH2 0x163C SWAP1 PUSH2 0x4FA6 JUMP JUMPDEST PUSH1 0x40 MLOAD DUP1 SWAP2 SUB SWAP1 REVERT JUMPDEST ADDRESS PUSH20 0xFFFFFFFFFFFFFFFFFFFFFFFFFFFFFFFFFFFFFFFF AND DUP2 PUSH20 0xFFFFFFFFFFFFFFFFFFFFFFFFFFFFFFFFFFFFFFFF AND SUB PUSH2 0x16B3 JUMPI PUSH1 0x40 MLOAD PUSH32 0x8C379A000000000000000000000000000000000000000000000000000000000 DUP2 MSTORE PUSH1 0x4 ADD PUSH2 0x16AA SWAP1 PUSH2 0x500E JUMP JUMPDEST PUSH1 0x40 MLOAD DUP1 SWAP2 SUB SWAP1 REVERT JUMPDEST PUSH0 PUSH1 0x7 PUSH0 SWAP1 SLOAD SWAP1 PUSH2 0x100 EXP SWAP1 DIV PUSH20 0xFFFFFFFFFFFFFFFFFFFFFFFFFFFFFFFFFFFFFFFF AND SWAP1 POP DUP2 PUSH1 0x7 PUSH0 PUSH2 0x100 EXP DUP2 SLOAD DUP2 PUSH20 0xFFFFFFFFFFFFFFFFFFFFFFFFFFFFFFFFFFFFFFFF MUL NOT AND SWAP1 DUP4 PUSH20 0xFFFFFFFFFFFFFFFFFFFFFFFFFFFFFFFFFFFFFFFF AND MUL OR SWAP1 SSTORE POP PUSH32 0x97001B29D9D8207193FC2E3B05F37BC0387D72FFD176A0A2F69BF57241A7FCDB DUP2 DUP4 PUSH1 0x40 MLOAD PUSH2 0x1749 SWAP3 SWAP2 SWAP1 PUSH2 0x507E JUMP JUMPDEST PUSH1 0x40 MLOAD DUP1 SWAP2 SUB SWAP1 LOG1 POP POP JUMP JUMPDEST PUSH0 PUSH0 PUSH0 PUSH0 PUSH0 PUSH0 PUSH0 PUSH0 PUSH0 PUSH0 PUSH1 0x2 PUSH0 CALLER PUSH20 0xFFFFFFFFFFFFFFFFFFFFFFFFFFFFFFFFFFFFFFFF AND PUSH20 0xFFFFFFFFFFFFFFFFFFFFFFFFFFFFFFFFFFFFFFFF AND DUP2 MSTORE PUSH1 0x20 ADD SWAP1 DUP2 MSTORE PUSH1 0x20 ADD PUSH0 KECCAK256 PUSH1 0x40 MLOAD PUSH2 0x17A8 SWAP1 PUSH2 0x46A2 JUMP JUMPDEST SWAP1 DUP2 MSTORE PUSH1 0x20 ADD PUSH1 0x40 MLOAD DUP1 SWAP2 SUB SWAP1 KECCAK256 PUSH0 SWAP1 SLOAD SWAP1 PUSH2 0x100 EXP SWAP1 DIV PUSH1 0xFF AND PUSH2 0x1802 JUMPI PUSH1 0x40 MLOAD PUSH32 0x8C379A000000000000000000000000000000000000000000000000000000000 DUP2 MSTORE PUSH1 0x4 ADD PUSH2 0x17F9 SWAP1 PUSH2 0x4736 JUMP JUMPDEST PUSH1 0x40 MLOAD DUP1 SWAP2 SUB SWAP1 REVERT JUMPDEST PUSH2 0x180B CALLER PUSH2 0x3195 JUMP JUMPDEST PUSH0 PUSH1 0x4 DUP13 DUP2 SLOAD DUP2 LT PUSH2 0x1820 JUMPI PUSH2 0x181F PUSH2 0x4D23 JUMP JUMPDEST JUMPDEST SWAP1 PUSH0 MSTORE PUSH1 0x20 PUSH0 KECCAK256 SWAP1 PUSH1 0x9 MUL ADD SWAP1 POP DUP1 PUSH0 ADD PUSH0 SWAP1 SLOAD SWAP1 PUSH2 0x100 EXP SWAP1 DIV PUSH20 0xFFFFFFFFFFFFFFFFFFFFFFFFFFFFFFFFFFFFFFFF AND DUP2 PUSH1 0x1 ADD SLOAD DUP3 PUSH1 0x2 ADD SLOAD DUP4 PUSH1 0x3 ADD SLOAD DUP5 PUSH1 0x4 ADD SLOAD DUP6 PUSH1 0x5 ADD SLOAD DUP7 PUSH1 0x6 ADD SLOAD DUP8 PUSH1 0x7 ADD SLOAD DUP9 PUSH1 0x8 ADD PUSH0 SWAP1 SLOAD SWAP1 PUSH2 0x100 EXP SWAP1 DIV PUSH1 0xFF AND DUP10 PUSH1 0x8 ADD PUSH1 0x1 SWAP1 SLOAD SWAP1 PUSH2 0x100 EXP SWAP1 DIV PUSH1 0xFF AND SWAP11 POP SWAP11 POP SWAP11 POP SWAP11 POP SWAP11 POP SWAP11 POP SWAP11 POP SWAP11 POP SWAP11 POP SWAP11 POP POP SWAP2 SWAP4 SWAP6 SWAP8 SWAP10 POP SWAP2 SWAP4 SWAP6 SWAP8 SWAP10 JUMP JUMPDEST PUSH1 0x1 SLOAD DUP2 JUMP JUMPDEST PUSH1 0x2 PUSH0 CALLER PUSH20 0xFFFFFFFFFFFFFFFFFFFFFFFFFFFFFFFFFFFFFFFF AND PUSH20 0xFFFFFFFFFFFFFFFFFFFFFFFFFFFFFFFFFFFFFFFF AND DUP2 MSTORE PUSH1 0x20 ADD SWAP1 DUP2 MSTORE PUSH1 0x20 ADD PUSH0 KECCAK256 PUSH1 0x40 MLOAD PUSH2 0x1908 SWAP1 PUSH2 0x46A2 JUMP JUMPDEST SWAP1 DUP2 MSTORE PUSH1 0x20 ADD PUSH1 0x40 MLOAD DUP1 SWAP2 SUB SWAP1 KECCAK256 PUSH0 SWAP1 SLOAD SWAP1 PUSH2 0x100 EXP SWAP1 DIV PUSH1 0xFF AND PUSH2 0x1962 JUMPI PUSH1 0x40 MLOAD PUSH32 0x8C379A000000000000000000000000000000000000000000000000000000000 DUP2 MSTORE PUSH1 0x4 ADD PUSH2 0x1959 SWAP1 PUSH2 0x4736 JUMP JUMPDEST PUSH1 0x40 MLOAD DUP1 SWAP2 SUB SWAP1 REVERT JUMPDEST PUSH2 0x196B CALLER PUSH2 0x3195 JUMP JUMPDEST PUSH0 DUP2 PUSH2 0xFFFF AND GT PUSH2 0x19B1 JUMPI PUSH1 0x40 MLOAD PUSH32 0x8C379A000000000000000000000000000000000000000000000000000000000 DUP2 MSTORE PUSH1 0x4 ADD PUSH2 0x19A8 SWAP1 PUSH2 0x50EF JUMP JUMPDEST PUSH1 0x40 MLOAD DUP1 SWAP2 SUB SWAP1 REVERT JUMPDEST PUSH2 0xBB8 DUP2 PUSH2 0xFFFF AND GT ISZERO PUSH2 0x19FA JUMPI PUSH1 0x40 MLOAD PUSH32 0x8C379A000000000000000000000000000000000000000000000000000000000 DUP2 MSTORE PUSH1 0x4 ADD PUSH2 0x19F1 SWAP1 PUSH2 0x517D JUMP JUMPDEST PUSH1 0x40 MLOAD DUP1 SWAP2 SUB SWAP1 REVERT JUMPDEST PUSH0 PUSH1 0x5 PUSH1 0x4 SWAP1 SLOAD SWAP1 PUSH2 0x100 EXP SWAP1 DIV PUSH2 0xFFFF AND PUSH2 0xFFFF AND SWAP1 POP DUP2 PUSH1 0x5 PUSH1 0x4 PUSH2 0x100 EXP DUP2 SLOAD DUP2 PUSH2 0xFFFF MUL NOT AND SWAP1 DUP4 PUSH2 0xFFFF AND MUL OR SWAP1 SSTORE POP PUSH32 0xEB19DE72C23BC706D6E8D5F52ADC31581E6C81CEF627DF8FE75398E901B9BFBD DUP2 DUP4 PUSH1 0x40 MLOAD PUSH2 0x1A60 SWAP3 SWAP2 SWAP1 PUSH2 0x496E JUMP JUMPDEST PUSH1 0x40 MLOAD DUP1 SWAP2 SUB SWAP1 LOG1 POP POP JUMP JUMPDEST PUSH0 PUSH0 SWAP1 SLOAD SWAP1 PUSH2 0x100 EXP SWAP1 DIV PUSH20 0xFFFFFFFFFFFFFFFFFFFFFFFFFFFFFFFFFFFFFFFF AND PUSH20 0xFFFFFFFFFFFFFFFFFFFFFFFFFFFFFFFFFFFFFFFF AND CALLER PUSH20 0xFFFFFFFFFFFFFFFFFFFFFFFFFFFFFFFFFFFFFFFF AND EQ PUSH2 0x1AFA JUMPI PUSH1 0x40 MLOAD PUSH32 0x8C379A000000000000000000000000000000000000000000000000000000000 DUP2 MSTORE PUSH1 0x4 ADD PUSH2 0x1AF1 SWAP1 PUSH2 0x4A05 JUMP JUMPDEST PUSH1 0x40 MLOAD DUP1 SWAP2 SUB SWAP1 REVERT JUMPDEST PUSH1 0x40 MLOAD DUP1 PUSH1 0x40 ADD PUSH1 0x40 MSTORE DUP1 PUSH1 0x7 DUP2 MSTORE PUSH1 0x20 ADD PUSH32 0x456D706C6F796500000000000000000000000000000000000000000000000000 DUP2 MSTORE POP DUP1 MLOAD SWAP1 PUSH1 0x20 ADD KECCAK256 DUP3 DUP3 PUSH1 0x40 MLOAD PUSH2 0x1B47 SWAP3 SWAP2 SWAP1 PUSH2 0x4A47 JUMP JUMPDEST PUSH1 0x40 MLOAD DUP1 SWAP2 SUB SWAP1 KECCAK256 EQ PUSH2 0x1B8F JUMPI PUSH1 0x40 MLOAD PUSH32 0x8C379A000000000000000000000000000000000000000000000000000000000 DUP2 MSTORE PUSH1 0x4 ADD PUSH2 0x1B86 SWAP1 PUSH2 0x4AA9 JUMP JUMPDEST PUSH1 0x40 MLOAD DUP1 SWAP2 SUB SWAP1 REVERT JUMPDEST PUSH0 PUSH20 0xFFFFFFFFFFFFFFFFFFFFFFFFFFFFFFFFFFFFFFFF AND DUP4 PUSH20 0xFFFFFFFFFFFFFFFFFFFFFFFFFFFFFFFFFFFFFFFF AND SUB PUSH2 0x1BFD JUMPI PUSH1 0x40 MLOAD PUSH32 0x8C379A000000000000000000000000000000000000000000000000000000000 DUP2 MSTORE PUSH1 0x4 ADD PUSH2 0x1BF4 SWAP1 PUSH2 0x520B JUMP JUMPDEST PUSH1 0x40 MLOAD DUP1 SWAP2 SUB SWAP1 REVERT JUMPDEST PUSH1 0x2 PUSH0 DUP5 PUSH20 0xFFFFFFFFFFFFFFFFFFFFFFFFFFFFFFFFFFFFFFFF AND PUSH20 0xFFFFFFFFFFFFFFFFFFFFFFFFFFFFFFFFFFFFFFFF AND DUP2 MSTORE PUSH1 0x20 ADD SWAP1 DUP2 MSTORE PUSH1 0x20 ADD PUSH0 KECCAK256 DUP3 DUP3 PUSH1 0x40 MLOAD PUSH2 0x1C4A SWAP3 SWAP2 SWAP1 PUSH2 0x4640 JUMP JUMPDEST SWAP1 DUP2 MSTORE PUSH1 0x20 ADD PUSH1 0x40 MLOAD DUP1 SWAP2 SUB SWAP1 KECCAK256 PUSH0 SWAP1 SLOAD SWAP1 PUSH2 0x100 EXP SWAP1 DIV PUSH1 0xFF AND ISZERO PUSH2 0x1CA5 JUMPI PUSH1 0x40 MLOAD PUSH32 0x8C379A000000000000000000000000000000000000000000000000000000000 DUP2 MSTORE PUSH1 0x4 ADD PUSH2 0x1C9C SWAP1 PUSH2 0x5299 JUMP JUMPDEST PUSH1 0x40 MLOAD DUP1 SWAP2 SUB SWAP1 REVERT JUMPDEST PUSH1 0x1 PUSH1 0x2 PUSH0 DUP6 PUSH20 0xFFFFFFFFFFFFFFFFFFFFFFFFFFFFFFFFFFFFFFFF AND PUSH20 0xFFFFFFFFFFFFFFFFFFFFFFFFFFFFFFFFFFFFFFFF AND DUP2 MSTORE PUSH1 0x20 ADD SWAP1 DUP2 MSTORE PUSH1 0x20 ADD PUSH0 KECCAK256 DUP4 DUP4 PUSH1 0x40 MLOAD PUSH2 0x1CF4 SWAP3 SWAP2 SWAP1 PUSH2 0x4640 JUMP JUMPDEST SWAP1 DUP2 MSTORE PUSH1 0x20 ADD PUSH1 0x40 MLOAD DUP1 SWAP2 SUB SWAP1 KECCAK256 PUSH0 PUSH2 0x100 EXP DUP2 SLOAD DUP2 PUSH1 0xFF MUL NOT AND SWAP1 DUP4 ISZERO ISZERO MUL OR SWAP1 SSTORE POP PUSH1 0x1 PUSH0 DUP2 SLOAD DUP1 SWAP3 SWAP2 SWAP1 PUSH2 0x1D2A SWAP1 PUSH2 0x52B7 JUMP JUMPDEST SWAP2 SWAP1 POP SSTORE POP DUP3 PUSH20 0xFFFFFFFFFFFFFFFFFFFFFFFFFFFFFFFFFFFFFFFF AND PUSH32 0x88567665D11BB1CA04896B9D3C620779F90A9F00F12488F6050A74EB11C2BE5 DUP4 DUP4 PUSH1 0x40 MLOAD PUSH2 0x1D77 SWAP3 SWAP2 SWAP1 PUSH2 0x4BE5 JUMP JUMPDEST PUSH1 0x40 MLOAD DUP1 SWAP2 SUB SWAP1 LOG2 POP POP POP JUMP JUMPDEST PUSH1 0x2 PUSH0 CALLER PUSH20 0xFFFFFFFFFFFFFFFFFFFFFFFFFFFFFFFFFFFFFFFF AND PUSH20 0xFFFFFFFFFFFFFFFFFFFFFFFFFFFFFFFFFFFFFFFF AND DUP2 MSTORE PUSH1 0x20 ADD SWAP1 DUP2 MSTORE PUSH1 0x20 ADD PUSH0 KECCAK256 PUSH1 0x40 MLOAD PUSH2 0x1DCD SWAP1 PUSH2 0x46A2 JUMP JUMPDEST SWAP1 DUP2 MSTORE PUSH1 0x20 ADD PUSH1 0x40 MLOAD DUP1 SWAP2 SUB SWAP1 KECCAK256 PUSH0 SWAP1 SLOAD SWAP1 PUSH2 0x100 EXP SWAP1 DIV PUSH1 0xFF AND ISZERO PUSH2 0x1E28 JUMPI PUSH1 0x40 MLOAD PUSH32 0x8C379A000000000000000000000000000000000000000000000000000000000 DUP2 MSTORE PUSH1 0x4 ADD PUSH2 0x1E1F SWAP1 PUSH2 0x4C77 JUMP JUMPDEST PUSH1 0x40 MLOAD DUP1 SWAP2 SUB SWAP1 REVERT JUMPDEST PUSH0 PUSH0 SWAP1 SLOAD SWAP1 PUSH2 0x100 EXP SWAP1 DIV PUSH20 0xFFFFFFFFFFFFFFFFFFFFFFFFFFFFFFFFFFFFFFFF AND PUSH20 0xFFFFFFFFFFFFFFFFFFFFFFFFFFFFFFFFFFFFFFFF AND CALLER PUSH20 0xFFFFFFFFFFFFFFFFFFFFFFFFFFFFFFFFFFFFFFFF AND SUB PUSH2 0x1EB6 JUMPI PUSH1 0x40 MLOAD PUSH32 0x8C379A000000000000000000000000000000000000000000000000000000000 DUP2 MSTORE PUSH1 0x4 ADD PUSH2 0x1EAD SWAP1 PUSH2 0x4D05 JUMP JUMPDEST PUSH1 0x40 MLOAD DUP1 SWAP2 SUB SWAP1 REVERT JUMPDEST PUSH2 0x1EBF CALLER PUSH2 0x3195 JUMP JUMPDEST PUSH1 0x8 PUSH0 CALLER PUSH20 0xFFFFFFFFFFFFFFFFFFFFFFFFFFFFFFFFFFFFFFFF AND PUSH20 0xFFFFFFFFFFFFFFFFFFFFFFFFFFFFFFFFFFFFFFFF AND DUP2 MSTORE PUSH1 0x20 ADD SWAP1 DUP2 MSTORE PUSH1 0x20 ADD PUSH0 KECCAK256 PUSH0 SWAP1 SLOAD SWAP1 PUSH2 0x100 EXP SWAP1 DIV PUSH1 0xFF AND ISZERO PUSH2 0x1F49 JUMPI PUSH1 0x40 MLOAD PUSH32 0x8C379A000000000000000000000000000000000000000000000000000000000 DUP2 MSTORE PUSH1 0x4 ADD PUSH2 0x1F40 SWAP1 PUSH2 0x5348 JUMP JUMPDEST PUSH1 0x40 MLOAD DUP1 SWAP2 SUB SWAP1 REVERT JUMPDEST PUSH0 DUP3 GT PUSH2 0x1F8B JUMPI PUSH1 0x40 MLOAD PUSH32 0x8C379A000000000000000000000000000000000000000000000000000000000 DUP2 MSTORE PUSH1 0x4 ADD PUSH2 0x1F82 SWAP1 PUSH2 0x53B0 JUMP JUMPDEST PUSH1 0x40 MLOAD DUP1 SWAP2 SUB SWAP1 REVERT JUMPDEST PUSH1 0x1 DUP2 LT ISZERO PUSH2 0x1FCF JUMPI PUSH1 0x40 MLOAD PUSH32 0x8C379A000000000000000000000000000000000000000000000000000000000 DUP2 MSTORE PUSH1 0x4 ADD PUSH2 0x1FC6 SWAP1 PUSH2 0x5418 JUMP JUMPDEST PUSH1 0x40 MLOAD DUP1 SWAP2 SUB SWAP1 REVERT JUMPDEST PUSH2 0x1FD7 PUSH2 0x406D JUMP JUMPDEST PUSH2 0x2016 JUMPI PUSH1 0x40 MLOAD PUSH32 0x8C379A000000000000000000000000000000000000000000000000000000000 DUP2 MSTORE PUSH1 0x4 ADD PUSH2 0x200D SWAP1 PUSH2 0x5480 JUMP JUMPDEST PUSH1 0x40 MLOAD DUP1 SWAP2 SUB SWAP1 REVERT JUMPDEST PUSH0 PUSH8 0xDE0B6B3A7640000 DUP4 PUSH2 0x202B SWAP2 SWAP1 PUSH2 0x549E JUMP JUMPDEST SWAP1 POP PUSH0 PUSH1 0x64 PUSH1 0x5 PUSH1 0x4 SWAP1 SLOAD SWAP1 PUSH2 0x100 EXP SWAP1 DIV PUSH2 0xFFFF AND PUSH2 0xFFFF AND DUP4 PUSH2 0x2050 SWAP2 SWAP1 PUSH2 0x549E JUMP JUMPDEST PUSH2 0x205A SWAP2 SWAP1 PUSH2 0x550C JUMP JUMPDEST SWAP1 POP DUP1 CALLVALUE LT ISZERO PUSH2 0x209F JUMPI PUSH1 0x40 MLOAD PUSH32 0x8C379A000000000000000000000000000000000000000000000000000000000 DUP2 MSTORE PUSH1 0x4 ADD PUSH2 0x2096 SWAP1 PUSH2 0x5586 JUMP JUMPDEST PUSH1 0x40 MLOAD DUP1 SWAP2 SUB SWAP1 REVERT JUMPDEST PUSH0 PUSH1 0x40 MLOAD DUP1 PUSH2 0x140 ADD PUSH1 0x40 MSTORE DUP1 CALLER PUSH20 0xFFFFFFFFFFFFFFFFFFFFFFFFFFFFFFFFFFFFFFFF AND DUP2 MSTORE PUSH1 0x20 ADD DUP5 DUP2 MSTORE PUSH1 0x20 ADD DUP6 DUP2 MSTORE PUSH1 0x20 ADD PUSH0 DUP2 MSTORE PUSH1 0x20 ADD PUSH0 DUP2 MSTORE PUSH1 0x20 ADD PUSH0 DUP2 MSTORE PUSH1 0x20 ADD DUP5 DUP2 MSTORE PUSH1 0x20 ADD CALLVALUE DUP2 MSTORE PUSH1 0x20 ADD PUSH0 ISZERO ISZERO DUP2 MSTORE PUSH1 0x20 ADD PUSH0 ISZERO ISZERO DUP2 MSTORE POP SWAP1 POP PUSH1 0x4 DUP2 SWAP1 DUP1 PUSH1 0x1 DUP2 SLOAD ADD DUP1 DUP3 SSTORE DUP1 SWAP2 POP POP PUSH1 0x1 SWAP1 SUB SWAP1 PUSH0 MSTORE PUSH1 0x20 PUSH0 KECCAK256 SWAP1 PUSH1 0x9 MUL ADD PUSH0 SWAP1 SWAP2 SWAP1 SWAP2 SWAP1 SWAP2 POP PUSH0 DUP3 ADD MLOAD DUP2 PUSH0 ADD PUSH0 PUSH2 0x100 EXP DUP2 SLOAD DUP2 PUSH20 0xFFFFFFFFFFFFFFFFFFFFFFFFFFFFFFFFFFFFFFFF MUL NOT AND SWAP1 DUP4 PUSH20 0xFFFFFFFFFFFFFFFFFFFFFFFFFFFFFFFFFFFFFFFF AND MUL OR SWAP1 SSTORE POP PUSH1 0x20 DUP3 ADD MLOAD DUP2 PUSH1 0x1 ADD SSTORE PUSH1 0x40 DUP3 ADD MLOAD DUP2 PUSH1 0x2 ADD SSTORE PUSH1 0x60 DUP3 ADD MLOAD DUP2 PUSH1 0x3 ADD SSTORE PUSH1 0x80 DUP3 ADD MLOAD DUP2 PUSH1 0x4 ADD SSTORE PUSH1 0xA0 DUP3 ADD MLOAD DUP2 PUSH1 0x5 ADD SSTORE PUSH1 0xC0 DUP3 ADD MLOAD DUP2 PUSH1 0x6 ADD SSTORE PUSH1 0xE0 DUP3 ADD MLOAD DUP2 PUSH1 0x7 ADD SSTORE PUSH2 0x100 DUP3 ADD MLOAD DUP2 PUSH1 0x8 ADD PUSH0 PUSH2 0x100 EXP DUP2 SLOAD DUP2 PUSH1 0xFF MUL NOT AND SWAP1 DUP4 ISZERO ISZERO MUL OR SWAP1 SSTORE POP PUSH2 0x120 DUP3 ADD MLOAD DUP2 PUSH1 0x8 ADD PUSH1 0x1 PUSH2 0x100 EXP DUP2 SLOAD DUP2 PUSH1 0xFF MUL NOT AND SWAP1 DUP4 ISZERO ISZERO MUL OR SWAP1 SSTORE POP POP POP PUSH0 PUSH1 0x1 PUSH1 0x4 DUP1 SLOAD SWAP1 POP PUSH2 0x220B SWAP2 SWAP1 PUSH2 0x4D50 JUMP JUMPDEST SWAP1 POP CALLER PUSH20 0xFFFFFFFFFFFFFFFFFFFFFFFFFFFFFFFFFFFFFFFF AND DUP2 PUSH32 0xF6CC19E46A340AB5888D736BFC79AEF72AE92D12D7B76319D72B0ABC170868E6 DUP7 DUP9 CALLVALUE PUSH1 0x40 MLOAD PUSH2 0x2258 SWAP4 SWAP3 SWAP2 SWAP1 PUSH2 0x55A4 JUMP JUMPDEST PUSH1 0x40 MLOAD DUP1 SWAP2 SUB SWAP1 LOG3 POP POP POP POP POP POP JUMP JUMPDEST PUSH1 0x2 PUSH0 CALLER PUSH20 0xFFFFFFFFFFFFFFFFFFFFFFFFFFFFFFFFFFFFFFFF AND PUSH20 0xFFFFFFFFFFFFFFFFFFFFFFFFFFFFFFFFFFFFFFFF AND DUP2 MSTORE PUSH1 0x20 ADD SWAP1 DUP2 MSTORE PUSH1 0x20 ADD PUSH0 KECCAK256 PUSH1 0x40 MLOAD PUSH2 0x22B1 SWAP1 PUSH2 0x46A2 JUMP JUMPDEST SWAP1 DUP2 MSTORE PUSH1 0x20 ADD PUSH1 0x40 MLOAD DUP1 SWAP2 SUB SWAP1 KECCAK256 PUSH0 SWAP1 SLOAD SWAP1 PUSH2 0x100 EXP SWAP1 DIV PUSH1 0xFF AND PUSH2 0x230B JUMPI PUSH1 0x40 MLOAD PUSH32 0x8C379A000000000000000000000000000000000000000000000000000000000 DUP2 MSTORE PUSH1 0x4 ADD PUSH2 0x2302 SWAP1 PUSH2 0x4736 JUMP JUMPDEST PUSH1 0x40 MLOAD DUP1 SWAP2 SUB SWAP1 REVERT JUMPDEST PUSH2 0x2313 PUSH2 0x3146 JUMP JUMPDEST PUSH2 0x231C CALLER PUSH2 0x3195 JUMP JUMPDEST PUSH2 0x2325 DUP2 PUSH2 0x3210 JUMP JUMPDEST PUSH0 PUSH1 0x4 DUP3 DUP2 SLOAD DUP2 LT PUSH2 0x233A JUMPI PUSH2 0x2339 PUSH2 0x4D23 JUMP JUMPDEST JUMPDEST SWAP1 PUSH0 MSTORE PUSH1 0x20 PUSH0 KECCAK256 SWAP1 PUSH1 0x9 MUL ADD SWAP1 POP DUP1 PUSH1 0x8 ADD PUSH0 SWAP1 SLOAD SWAP1 PUSH2 0x100 EXP SWAP1 DIV PUSH1 0xFF AND ISZERO PUSH2 0x2399 JUMPI PUSH1 0x40 MLOAD PUSH32 0x8C379A000000000000000000000000000000000000000000000000000000000 DUP2 MSTORE PUSH1 0x4 ADD PUSH2 0x2390 SWAP1 PUSH2 0x5623 JUMP JUMPDEST PUSH1 0x40 MLOAD DUP1 SWAP2 SUB SWAP1 REVERT JUMPDEST DUP1 PUSH1 0x8 ADD PUSH1 0x1 SWAP1 SLOAD SWAP1 PUSH2 0x100 EXP SWAP1 DIV PUSH1 0xFF AND ISZERO PUSH2 0x23EB JUMPI PUSH1 0x40 MLOAD PUSH32 0x8C379A000000000000000000000000000000000000000000000000000000000 DUP2 MSTORE PUSH1 0x4 ADD PUSH2 0x23E2 SWAP1 PUSH2 0x568B JUMP JUMPDEST PUSH1 0x40 MLOAD DUP1 SWAP2 SUB SWAP1 REVERT JUMPDEST DUP1 PUSH1 0x1 ADD SLOAD SELFBALANCE LT ISZERO PUSH2 0x2432 JUMPI PUSH1 0x40 MLOAD PUSH32 0x8C379A000000000000000000000000000000000000000000000000000000000 DUP2 MSTORE PUSH1 0x4 ADD PUSH2 0x2429 SWAP1 PUSH2 0x56F3 JUMP JUMPDEST PUSH1 0x40 MLOAD DUP1 SWAP2 SUB SWAP1 REVERT JUMPDEST PUSH2 0x243A PUSH2 0x325A JUMP JUMPDEST DUP2 PUSH1 0x3 ADD DUP2 SWAP1 SSTORE POP PUSH1 0x1 DUP2 PUSH1 0x8 ADD PUSH1 0x1 PUSH2 0x100 EXP DUP2 SLOAD DUP2 PUSH1 0xFF MUL NOT AND SWAP1 DUP4 ISZERO ISZERO MUL OR SWAP1 SSTORE POP PUSH0 DUP2 PUSH0 ADD PUSH0 SWAP1 SLOAD SWAP1 PUSH2 0x100 EXP SWAP1 DIV PUSH20 0xFFFFFFFFFFFFFFFFFFFFFFFFFFFFFFFFFFFFFFFF AND PUSH20 0xFFFFFFFFFFFFFFFFFFFFFFFFFFFFFFFFFFFFFFFF AND DUP3 PUSH1 0x1 ADD SLOAD PUSH1 0x40 MLOAD PUSH2 0x24AA SWAP1 PUSH2 0x47E9 JUMP JUMPDEST PUSH0 PUSH1 0x40 MLOAD DUP1 DUP4 SUB DUP2 DUP6 DUP8 GAS CALL SWAP3 POP POP POP RETURNDATASIZE DUP1 PUSH0 DUP2 EQ PUSH2 0x24E4 JUMPI PUSH1 0x40 MLOAD SWAP2 POP PUSH1 0x1F NOT PUSH1 0x3F RETURNDATASIZE ADD AND DUP3 ADD PUSH1 0x40 MSTORE RETURNDATASIZE DUP3 MSTORE RETURNDATASIZE PUSH0 PUSH1 0x20 DUP5 ADD RETURNDATACOPY PUSH2 0x24E9 JUMP JUMPDEST PUSH1 0x60 SWAP2 POP JUMPDEST POP POP SWAP1 POP DUP1 PUSH2 0x252D JUMPI PUSH1 0x40 MLOAD PUSH32 0x8C379A000000000000000000000000000000000000000000000000000000000 DUP2 MSTORE PUSH1 0x4 ADD PUSH2 0x2524 SWAP1 PUSH2 0x575B JUMP JUMPDEST PUSH1 0x40 MLOAD DUP1 SWAP2 SUB SWAP1 REVERT JUMPDEST DUP2 PUSH0 ADD PUSH0 SWAP1 SLOAD SWAP1 PUSH2 0x100 EXP SWAP1 DIV PUSH20 0xFFFFFFFFFFFFFFFFFFFFFFFFFFFFFFFFFFFFFFFF AND PUSH20 0xFFFFFFFFFFFFFFFFFFFFFFFFFFFFFFFFFFFFFFFF AND DUP4 PUSH32 0x2B993938BAA27C88E77A207903D275C96FA30AE5949A3EA5CD56E466E4F5C891 DUP5 PUSH1 0x3 ADD SLOAD PUSH1 0x40 MLOAD PUSH2 0x259A SWAP2 SWAP1 PUSH2 0x441E JUMP JUMPDEST PUSH1 0x40 MLOAD DUP1 SWAP2 SUB SWAP1 LOG3 DUP2 PUSH0 ADD PUSH0 SWAP1 SLOAD SWAP1 PUSH2 0x100 EXP SWAP1 DIV PUSH20 0xFFFFFFFFFFFFFFFFFFFFFFFFFFFFFFFFFFFFFFFF AND PUSH20 0xFFFFFFFFFFFFFFFFFFFFFFFFFFFFFFFFFFFFFFFF AND DUP4 PUSH32 0xCEEB4503A2FE0B51298A0AF21358F3D89E7EAB3F65AE2A7835859C3E2C51604 DUP5 PUSH1 0x1 ADD SLOAD PUSH1 0x40 MLOAD PUSH2 0x260F SWAP2 SWAP1 PUSH2 0x441E JUMP JUMPDEST PUSH1 0x40 MLOAD DUP1 SWAP2 SUB SWAP1 LOG3 POP POP PUSH2 0x2621 PUSH2 0x3206 JUMP JUMPDEST POP JUMP JUMPDEST PUSH1 0x6 SLOAD DUP2 JUMP JUMPDEST PUSH1 0x5 PUSH1 0x4 SWAP1 SLOAD SWAP1 PUSH2 0x100 EXP SWAP1 DIV PUSH2 0xFFFF AND DUP2 JUMP JUMPDEST PUSH1 0x5 PUSH1 0x6 SWAP1 SLOAD SWAP1 PUSH2 0x100 EXP SWAP1 DIV PUSH2 0xFFFF AND DUP2 JUMP JUMPDEST PUSH1 0x4 DUP2 DUP2 SLOAD DUP2 LT PUSH2 0x2661 JUMPI PUSH0 DUP1 REVERT JUMPDEST SWAP1 PUSH0 MSTORE PUSH1 0x20 PUSH0 KECCAK256 SWAP1 PUSH1 0x9 MUL ADD PUSH0 SWAP2 POP SWAP1 POP DUP1 PUSH0 ADD PUSH0 SWAP1 SLOAD SWAP1 PUSH2 0x100 EXP SWAP1 DIV PUSH20 0xFFFFFFFFFFFFFFFFFFFFFFFFFFFFFFFFFFFFFFFF AND SWAP1 DUP1 PUSH1 0x1 ADD SLOAD SWAP1 DUP1 PUSH1 0x2 ADD SLOAD SWAP1 DUP1 PUSH1 0x3 ADD SLOAD SWAP1 DUP1 PUSH1 0x4 ADD SLOAD SWAP1 DUP1 PUSH1 0x5 ADD SLOAD SWAP1 DUP1 PUSH1 0x6 ADD SLOAD SWAP1 DUP1 PUSH1 0x7 ADD SLOAD SWAP1 DUP1 PUSH1 0x8 ADD PUSH0 SWAP1 SLOAD SWAP1 PUSH2 0x100 EXP SWAP1 DIV PUSH1 0xFF AND SWAP1 DUP1 PUSH1 0x8 ADD PUSH1 0x1 SWAP1 SLOAD SWAP1 PUSH2 0x100 EXP SWAP1 DIV PUSH1 0xFF AND SWAP1 POP DUP11 JUMP JUMPDEST PUSH1 0x2 PUSH0 CALLER PUSH20 0xFFFFFFFFFFFFFFFFFFFFFFFFFFFFFFFFFFFFFFFF AND PUSH20 0xFFFFFFFFFFFFFFFFFFFFFFFFFFFFFFFFFFFFFFFF AND DUP2 MSTORE PUSH1 0x20 ADD SWAP1 DUP2 MSTORE PUSH1 0x20 ADD PUSH0 KECCAK256 PUSH1 0x40 MLOAD PUSH2 0x2732 SWAP1 PUSH2 0x46A2 JUMP JUMPDEST SWAP1 DUP2 MSTORE PUSH1 0x20 ADD PUSH1 0x40 MLOAD DUP1 SWAP2 SUB SWAP1 KECCAK256 PUSH0 SWAP1 SLOAD SWAP1 PUSH2 0x100 EXP SWAP1 DIV PUSH1 0xFF AND ISZERO PUSH2 0x278D JUMPI PUSH1 0x40 MLOAD PUSH32 0x8C379A000000000000000000000000000000000000000000000000000000000 DUP2 MSTORE PUSH1 0x4 ADD PUSH2 0x2784 SWAP1 PUSH2 0x4C77 JUMP JUMPDEST PUSH1 0x40 MLOAD DUP1 SWAP2 SUB SWAP1 REVERT JUMPDEST PUSH0 PUSH0 SWAP1 SLOAD SWAP1 PUSH2 0x100 EXP SWAP1 DIV PUSH20 0xFFFFFFFFFFFFFFFFFFFFFFFFFFFFFFFFFFFFFFFF AND PUSH20 0xFFFFFFFFFFFFFFFFFFFFFFFFFFFFFFFFFFFFFFFF AND CALLER PUSH20 0xFFFFFFFFFFFFFFFFFFFFFFFFFFFFFFFFFFFFFFFF AND SUB PUSH2 0x281B JUMPI PUSH1 0x40 MLOAD PUSH32 0x8C379A000000000000000000000000000000000000000000000000000000000 DUP2 MSTORE PUSH1 0x4 ADD PUSH2 0x2812 SWAP1 PUSH2 0x4D05 JUMP JUMPDEST PUSH1 0x40 MLOAD DUP1 SWAP2 SUB SWAP1 REVERT JUMPDEST PUSH2 0x2823 PUSH2 0x3146 JUMP JUMPDEST PUSH2 0x282C CALLER PUSH2 0x3195 JUMP JUMPDEST PUSH2 0x2835 DUP3 PUSH2 0x3210 JUMP JUMPDEST PUSH0 PUSH1 0x4 DUP4 DUP2 SLOAD DUP2 LT PUSH2 0x284A JUMPI PUSH2 0x2849 PUSH2 0x4D23 JUMP JUMPDEST JUMPDEST SWAP1 PUSH0 MSTORE PUSH1 0x20 PUSH0 KECCAK256 SWAP1 PUSH1 0x9 MUL ADD SWAP1 POP DUP1 PUSH1 0x8 ADD PUSH1 0x1 SWAP1 SLOAD SWAP1 PUSH2 0x100 EXP SWAP1 DIV PUSH1 0xFF AND DUP1 ISZERO PUSH2 0x2884 JUMPI POP DUP1 PUSH1 0x8 ADD PUSH0 SWAP1 SLOAD SWAP1 PUSH2 0x100 EXP SWAP1 DIV PUSH1 0xFF AND ISZERO JUMPDEST PUSH2 0x28C3 JUMPI PUSH1 0x40 MLOAD PUSH32 0x8C379A000000000000000000000000000000000000000000000000000000000 DUP2 MSTORE PUSH1 0x4 ADD PUSH2 0x28BA SWAP1 PUSH2 0x57C3 JUMP JUMPDEST PUSH1 0x40 MLOAD DUP1 SWAP2 SUB SWAP1 REVERT JUMPDEST DUP1 PUSH0 ADD PUSH0 SWAP1 SLOAD SWAP1 PUSH2 0x100 EXP SWAP1 DIV PUSH20 0xFFFFFFFFFFFFFFFFFFFFFFFFFFFFFFFFFFFFFFFF AND PUSH20 0xFFFFFFFFFFFFFFFFFFFFFFFFFFFFFFFFFFFFFFFF AND CALLER PUSH20 0xFFFFFFFFFFFFFFFFFFFFFFFFFFFFFFFFFFFFFFFF AND EQ PUSH2 0x2953 JUMPI PUSH1 0x40 MLOAD PUSH32 0x8C379A000000000000000000000000000000000000000000000000000000000 DUP2 MSTORE PUSH1 0x4 ADD PUSH2 0x294A SWAP1 PUSH2 0x582B JUMP JUMPDEST PUSH1 0x40 MLOAD DUP1 SWAP2 SUB SWAP1 REVERT JUMPDEST PUSH0 DUP3 GT PUSH2 0x2995 JUMPI PUSH1 0x40 MLOAD PUSH32 0x8C379A000000000000000000000000000000000000000000000000000000000 DUP2 MSTORE PUSH1 0x4 ADD PUSH2 0x298C SWAP1 PUSH2 0x5893 JUMP JUMPDEST PUSH1 0x40 MLOAD DUP1 SWAP2 SUB SWAP1 REVERT JUMPDEST DUP1 PUSH1 0x2 ADD SLOAD DUP3 DUP3 PUSH1 0x4 ADD SLOAD PUSH2 0x29AA SWAP2 SWAP1 PUSH2 0x4D83 JUMP JUMPDEST GT ISZERO PUSH2 0x29EB JUMPI PUSH1 0x40 MLOAD PUSH32 0x8C379A000000000000000000000000000000000000000000000000000000000 DUP2 MSTORE PUSH1 0x4 ADD PUSH2 0x29E2 SWAP1 PUSH2 0x58FB JUMP JUMPDEST PUSH1 0x40 MLOAD DUP1 SWAP2 SUB SWAP1 REVERT JUMPDEST PUSH0 PUSH2 0x2A01 DUP3 PUSH1 0x3 ADD SLOAD PUSH2 0x29FC PUSH2 0x325A JUMP JUMPDEST PUSH2 0x3261 JUMP JUMPDEST SWAP1 POP DUP2 PUSH1 0x2 ADD SLOAD DUP3 PUSH1 0x4 ADD SLOAD LT PUSH2 0x2A4D JUMPI PUSH1 0x40 MLOAD PUSH32 0x8C379A000000000000000000000000000000000000000000000000000000000 DUP2 MSTORE PUSH1 0x4 ADD PUSH2 0x2A44 SWAP1 PUSH2 0x5963 JUMP JUMPDEST PUSH1 0x40 MLOAD DUP1 SWAP2 SUB SWAP1 REVERT JUMPDEST PUSH0 PUSH2 0x2A57 DUP6 PUSH2 0x40B6 JUMP JUMPDEST SWAP1 POP PUSH0 DUP4 PUSH1 0x4 ADD SLOAD SWAP1 POP PUSH0 DUP4 SWAP1 POP PUSH0 PUSH0 SWAP1 POP DUP3 DUP3 GT ISZERO PUSH2 0x2ABB JUMPI PUSH0 DUP4 DUP4 PUSH2 0x2A7E SWAP2 SWAP1 PUSH2 0x4D50 JUMP JUMPDEST SWAP1 POP DUP1 PUSH1 0x64 PUSH1 0x5 PUSH1 0x2 SWAP1 SLOAD SWAP1 PUSH2 0x100 EXP SWAP1 DIV PUSH2 0xFFFF AND PUSH2 0xFFFF AND DUP8 PUSH2 0x2AA3 SWAP2 SWAP1 PUSH2 0x549E JUMP JUMPDEST PUSH2 0x2AAD SWAP2 SWAP1 PUSH2 0x550C JUMP JUMPDEST PUSH2 0x2AB7 SWAP2 SWAP1 PUSH2 0x549E JUMP JUMPDEST SWAP2 POP POP JUMPDEST PUSH0 DUP2 DUP6 PUSH2 0x2AC8 SWAP2 SWAP1 PUSH2 0x4D83 JUMP JUMPDEST SWAP1 POP PUSH1 0x1 DUP9 GT ISZERO PUSH2 0x2AF9 JUMPI PUSH1 0x1 DUP9 PUSH2 0x2AE0 SWAP2 SWAP1 PUSH2 0x4D50 JUMP JUMPDEST DUP6 PUSH2 0x2AEB SWAP2 SWAP1 PUSH2 0x549E JUMP JUMPDEST DUP2 PUSH2 0x2AF6 SWAP2 SWAP1 PUSH2 0x4D83 JUMP JUMPDEST SWAP1 POP JUMPDEST DUP1 CALLVALUE EQ PUSH2 0x2B3B JUMPI PUSH1 0x40 MLOAD PUSH32 0x8C379A000000000000000000000000000000000000000000000000000000000 DUP2 MSTORE PUSH1 0x4 ADD PUSH2 0x2B32 SWAP1 PUSH2 0x59F1 JUMP JUMPDEST PUSH1 0x40 MLOAD DUP1 SWAP2 SUB SWAP1 REVERT JUMPDEST PUSH0 PUSH0 SWAP1 POP JUMPDEST DUP9 DUP2 LT ISZERO PUSH2 0x2C6E JUMPI PUSH0 PUSH0 DUP3 EQ PUSH2 0x2B56 JUMPI DUP7 PUSH2 0x2B63 JUMP JUMPDEST DUP4 DUP8 PUSH2 0x2B62 SWAP2 SWAP1 PUSH2 0x4D83 JUMP JUMPDEST JUMPDEST SWAP1 POP PUSH0 PUSH1 0x64 PUSH1 0x5 PUSH0 SWAP1 SLOAD SWAP1 PUSH2 0x100 EXP SWAP1 DIV PUSH2 0xFFFF AND PUSH2 0xFFFF AND DUP12 PUSH1 0x1 ADD SLOAD PUSH2 0x2B8B SWAP2 SWAP1 PUSH2 0x549E JUMP JUMPDEST PUSH2 0x2B95 SWAP2 SWAP1 PUSH2 0x550C JUMP JUMPDEST SWAP1 POP PUSH0 DUP2 DUP10 PUSH2 0x2BA4 SWAP2 SWAP1 PUSH2 0x4D50 JUMP JUMPDEST SWAP1 POP PUSH0 DUP5 SUB PUSH2 0x2BD5 JUMPI DUP6 DUP3 PUSH2 0x2BB9 SWAP2 SWAP1 PUSH2 0x4D83 JUMP JUMPDEST PUSH1 0x6 PUSH0 DUP3 DUP3 SLOAD PUSH2 0x2BC9 SWAP2 SWAP1 PUSH2 0x4D83 JUMP JUMPDEST SWAP3 POP POP DUP2 SWAP1 SSTORE POP PUSH2 0x2BEE JUMP JUMPDEST DUP2 PUSH1 0x6 PUSH0 DUP3 DUP3 SLOAD PUSH2 0x2BE6 SWAP2 SWAP1 PUSH2 0x4D83 JUMP JUMPDEST SWAP3 POP POP DUP2 SWAP1 SSTORE POP JUMPDEST DUP11 PUSH1 0x6 ADD SLOAD DUP2 GT ISZERO PUSH2 0x2C02 JUMPI DUP11 PUSH1 0x6 ADD SLOAD SWAP1 POP JUMPDEST DUP1 DUP12 PUSH1 0x6 ADD PUSH0 DUP3 DUP3 SLOAD PUSH2 0x2C15 SWAP2 SWAP1 PUSH2 0x4D50 JUMP JUMPDEST SWAP3 POP POP DUP2 SWAP1 SSTORE POP PUSH1 0x1 DUP12 PUSH1 0x4 ADD PUSH0 DUP3 DUP3 SLOAD PUSH2 0x2C30 SWAP2 SWAP1 PUSH2 0x4D83 JUMP JUMPDEST SWAP3 POP POP DUP2 SWAP1 SSTORE POP DUP11 PUSH1 0x2 ADD SLOAD DUP12 PUSH1 0x4 ADD SLOAD LT ISZERO DUP1 PUSH2 0x2C51 JUMPI POP PUSH0 DUP12 PUSH1 0x6 ADD SLOAD EQ JUMPDEST ISZERO PUSH2 0x2C5E JUMPI POP POP POP PUSH2 0x2C6E JUMP JUMPDEST POP POP POP DUP1 DUP1 PUSH1 0x1 ADD SWAP2 POP POP PUSH2 0x2B40 JUMP JUMPDEST POP PUSH0 DUP8 PUSH1 0x5 ADD DUP2 SWAP1 SSTORE POP CALLER PUSH20 0xFFFFFFFFFFFFFFFFFFFFFFFFFFFFFFFFFFFFFFFF AND DUP10 PUSH32 0x41E038704BF70CE2E97DCDDC75986A8DEC282D710422669D04A1D908FF94B34 CALLVALUE DUP11 PUSH1 0x4 ADD SLOAD PUSH1 0x40 MLOAD PUSH2 0x2CC5 SWAP3 SWAP2 SWAP1 PUSH2 0x5A0F JUMP JUMPDEST PUSH1 0x40 MLOAD DUP1 SWAP2 SUB SWAP1 LOG3 DUP7 PUSH1 0x2 ADD SLOAD DUP8 PUSH1 0x4 ADD SLOAD LT ISZERO DUP1 PUSH2 0x2CE7 JUMPI POP PUSH0 DUP8 PUSH1 0x6 ADD SLOAD EQ JUMPDEST ISZERO PUSH2 0x2DEF JUMPI PUSH0 DUP8 PUSH1 0x8 ADD PUSH1 0x1 PUSH2 0x100 EXP DUP2 SLOAD DUP2 PUSH1 0xFF MUL NOT AND SWAP1 DUP4 ISZERO ISZERO MUL OR SWAP1 SSTORE POP PUSH0 DUP8 PUSH1 0x7 ADD SLOAD SWAP1 POP PUSH0 DUP9 PUSH1 0x7 ADD DUP2 SWAP1 SSTORE POP PUSH0 DUP2 GT ISZERO PUSH2 0x2DED JUMPI PUSH0 DUP9 PUSH0 ADD PUSH0 SWAP1 SLOAD SWAP1 PUSH2 0x100 EXP SWAP1 DIV PUSH20 0xFFFFFFFFFFFFFFFFFFFFFFFFFFFFFFFFFFFFFFFF AND PUSH20 0xFFFFFFFFFFFFFFFFFFFFFFFFFFFFFFFFFFFFFFFF AND DUP3 PUSH1 0x40 MLOAD PUSH2 0x2D68 SWAP1 PUSH2 0x47E9 JUMP JUMPDEST PUSH0 PUSH1 0x40 MLOAD DUP1 DUP4 SUB DUP2 DUP6 DUP8 GAS CALL SWAP3 POP POP POP RETURNDATASIZE DUP1 PUSH0 DUP2 EQ PUSH2 0x2DA2 JUMPI PUSH1 0x40 MLOAD SWAP2 POP PUSH1 0x1F NOT PUSH1 0x3F RETURNDATASIZE ADD AND DUP3 ADD PUSH1 0x40 MSTORE RETURNDATASIZE DUP3 MSTORE RETURNDATASIZE PUSH0 PUSH1 0x20 DUP5 ADD RETURNDATACOPY PUSH2 0x2DA7 JUMP JUMPDEST PUSH1 0x60 SWAP2 POP JUMPDEST POP POP SWAP1 POP DUP1 PUSH2 0x2DEB JUMPI PUSH1 0x40 MLOAD PUSH32 0x8C379A000000000000000000000000000000000000000000000000000000000 DUP2 MSTORE PUSH1 0x4 ADD PUSH2 0x2DE2 SWAP1 PUSH2 0x5A80 JUMP JUMPDEST PUSH1 0x40 MLOAD DUP1 SWAP2 SUB SWAP1 REVERT JUMPDEST POP JUMPDEST POP JUMPDEST POP POP POP POP POP POP POP PUSH2 0x2DFE PUSH2 0x3206 JUMP JUMPDEST POP POP JUMP JUMPDEST PUSH1 0x2 PUSH0 CALLER PUSH20 0xFFFFFFFFFFFFFFFFFFFFFFFFFFFFFFFFFFFFFFFF AND PUSH20 0xFFFFFFFFFFFFFFFFFFFFFFFFFFFFFFFFFFFFFFFF AND DUP2 MSTORE PUSH1 0x20 ADD SWAP1 DUP2 MSTORE PUSH1 0x20 ADD PUSH0 KECCAK256 PUSH1 0x40 MLOAD PUSH2 0x2E4B SWAP1 PUSH2 0x46A2 JUMP JUMPDEST SWAP1 DUP2 MSTORE PUSH1 0x20 ADD PUSH1 0x40 MLOAD DUP1 SWAP2 SUB SWAP1 KECCAK256 PUSH0 SWAP1 SLOAD SWAP1 PUSH2 0x100 EXP SWAP1 DIV PUSH1 0xFF AND PUSH2 0x2EA5 JUMPI PUSH1 0x40 MLOAD PUSH32 0x8C379A000000000000000000000000000000000000000000000000000000000 DUP2 MSTORE PUSH1 0x4 ADD PUSH2 0x2E9C SWAP1 PUSH2 0x4736 JUMP JUMPDEST PUSH1 0x40 MLOAD DUP1 SWAP2 SUB SWAP1 REVERT JUMPDEST PUSH2 0x2EAE CALLER PUSH2 0x3195 JUMP JUMPDEST PUSH2 0x1388 DUP2 PUSH2 0xFFFF AND GT ISZERO PUSH2 0x2EF7 JUMPI PUSH1 0x40 MLOAD PUSH32 0x8C379A000000000000000000000000000000000000000000000000000000000 DUP2 MSTORE PUSH1 0x4 ADD PUSH2 0x2EEE SWAP1 PUSH2 0x5AE8 JUMP JUMPDEST PUSH1 0x40 MLOAD DUP1 SWAP2 SUB SWAP1 REVERT JUMPDEST PUSH0 DUP2 PUSH2 0xFFFF AND GT PUSH2 0x2F3D JUMPI PUSH1 0x40 MLOAD PUSH32 0x8C379A000000000000000000000000000000000000000000000000000000000 DUP2 MSTORE PUSH1 0x4 ADD PUSH2 0x2F34 SWAP1 PUSH2 0x5B50 JUMP JUMPDEST PUSH1 0x40 MLOAD DUP1 SWAP2 SUB SWAP1 REVERT JUMPDEST PUSH0 PUSH1 0x5 PUSH1 0x2 SWAP1 SLOAD SWAP1 PUSH2 0x100 EXP SWAP1 DIV PUSH2 0xFFFF AND PUSH2 0xFFFF AND SWAP1 POP DUP2 PUSH1 0x5 PUSH1 0x2 PUSH2 0x100 EXP DUP2 SLOAD DUP2 PUSH2 0xFFFF MUL NOT AND SWAP1 DUP4 PUSH2 0xFFFF AND MUL OR SWAP1 SSTORE POP PUSH32 0x5B56293D2C832157AC8F4CE694BC788152793B86457D54956F1722633C580139 DUP2 DUP4 PUSH1 0x40 MLOAD PUSH2 0x2FA3 SWAP3 SWAP2 SWAP1 PUSH2 0x496E JUMP JUMPDEST PUSH1 0x40 MLOAD DUP1 SWAP2 SUB SWAP1 LOG1 POP POP JUMP JUMPDEST PUSH1 0x5 PUSH0 SWAP1 SLOAD SWAP1 PUSH2 0x100 EXP SWAP1 DIV PUSH2 0xFFFF AND DUP2 JUMP JUMPDEST PUSH1 0x2 PUSH0 CALLER PUSH20 0xFFFFFFFFFFFFFFFFFFFFFFFFFFFFFFFFFFFFFFFF AND PUSH20 0xFFFFFFFFFFFFFFFFFFFFFFFFFFFFFFFFFFFFFFFF AND DUP2 MSTORE PUSH1 0x20 ADD SWAP1 DUP2 MSTORE PUSH1 0x20 ADD PUSH0 KECCAK256 PUSH1 0x40 MLOAD PUSH2 0x300B SWAP1 PUSH2 0x46A2 JUMP JUMPDEST SWAP1 DUP2 MSTORE PUSH1 0x20 ADD PUSH1 0x40 MLOAD DUP1 SWAP2 SUB SWAP1 KECCAK256 PUSH0 SWAP1 SLOAD SWAP1 PUSH2 0x100 EXP SWAP1 DIV PUSH1 0xFF AND PUSH2 0x3065 JUMPI PUSH1 0x40 MLOAD PUSH32 0x8C379A000000000000000000000000000000000000000000000000000000000 DUP2 MSTORE PUSH1 0x4 ADD PUSH2 0x305C SWAP1 PUSH2 0x4736 JUMP JUMPDEST PUSH1 0x40 MLOAD DUP1 SWAP2 SUB SWAP1 REVERT JUMPDEST PUSH2 0x306E CALLER PUSH2 0x3195 JUMP JUMPDEST PUSH2 0x1388 DUP2 PUSH2 0xFFFF AND GT ISZERO PUSH2 0x30B7 JUMPI PUSH1 0x40 MLOAD PUSH32 0x8C379A000000000000000000000000000000000000000000000000000000000 DUP2 MSTORE PUSH1 0x4 ADD PUSH2 0x30AE SWAP1 PUSH2 0x5BB8 JUMP JUMPDEST PUSH1 0x40 MLOAD DUP1 SWAP2 SUB SWAP1 REVERT JUMPDEST PUSH0 PUSH1 0x5 PUSH1 0x6 SWAP1 SLOAD SWAP1 PUSH2 0x100 EXP SWAP1 DIV PUSH2 0xFFFF AND PUSH2 0xFFFF AND SWAP1 POP DUP2 PUSH1 0x5 PUSH1 0x6 PUSH2 0x100 EXP DUP2 SLOAD DUP2 PUSH2 0xFFFF MUL NOT AND SWAP1 DUP4 PUSH2 0xFFFF AND MUL OR SWAP1 SSTORE POP PUSH32 0x38FC5525C7AB9850422E6F2CD4B086B0B50F1235A0D8DDEB7B43F61B9A5BFB05 DUP2 DUP4 PUSH1 0x40 MLOAD PUSH2 0x311D SWAP3 SWAP2 SWAP1 PUSH2 0x496E JUMP JUMPDEST PUSH1 0x40 MLOAD DUP1 SWAP2 SUB SWAP1 LOG1 POP POP JUMP JUMPDEST PUSH1 0x8 PUSH1 0x20 MSTORE DUP1 PUSH0 MSTORE PUSH1 0x40 PUSH0 KECCAK256 PUSH0 SWAP2 POP SLOAD SWAP1 PUSH2 0x100 EXP SWAP1 DIV PUSH1 0xFF AND DUP2 JUMP JUMPDEST PUSH1 0x2 PUSH1 0x3 SLOAD SUB PUSH2 0x318B JUMPI PUSH1 0x40 MLOAD PUSH32 0x8C379A000000000000000000000000000000000000000000000000000000000 DUP2 MSTORE PUSH1 0x4 ADD PUSH2 0x3182 SWAP1 PUSH2 0x5C20 JUMP JUMPDEST PUSH1 0x40 MLOAD DUP1 SWAP2 SUB SWAP1 REVERT JUMPDEST PUSH1 0x2 PUSH1 0x3 DUP2 SWAP1 SSTORE POP JUMP JUMPDEST PUSH0 PUSH20 0xFFFFFFFFFFFFFFFFFFFFFFFFFFFFFFFFFFFFFFFF AND DUP2 PUSH20 0xFFFFFFFFFFFFFFFFFFFFFFFFFFFFFFFFFFFFFFFF AND SUB PUSH2 0x3203 JUMPI PUSH1 0x40 MLOAD PUSH32 0x8C379A000000000000000000000000000000000000000000000000000000000 DUP2 MSTORE PUSH1 0x4 ADD PUSH2 0x31FA SWAP1 PUSH2 0x5CAE JUMP JUMPDEST PUSH1 0x40 MLOAD DUP1 SWAP2 SUB SWAP1 REVERT JUMPDEST POP JUMP JUMPDEST PUSH1 0x1 PUSH1 0x3 DUP2 SWAP1 SSTORE POP JUMP JUMPDEST PUSH1 0x4 DUP1 SLOAD SWAP1 POP DUP2 LT PUSH2 0x3257 JUMPI PUSH1 0x40 MLOAD PUSH32 0x8C379A000000000000000000000000000000000000000000000000000000000 DUP2 MSTORE PUSH1 0x4 ADD PUSH2 0x324E SWAP1 PUSH2 0x5D16 JUMP JUMPDEST PUSH1 0x40 MLOAD DUP1 SWAP2 SUB SWAP1 REVERT JUMPDEST POP JUMP JUMPDEST PUSH0 TIMESTAMP SWAP1 POP SWAP1 JUMP JUMPDEST PUSH0 DUP3 DUP3 GT PUSH2 0x3271 JUMPI PUSH0 SWAP1 POP PUSH2 0x3293 JUMP JUMPDEST PUSH0 PUSH3 0x278D00 SWAP1 POP DUP1 DUP5 DUP5 PUSH2 0x3285 SWAP2 SWAP1 PUSH2 0x4D50 JUMP JUMPDEST PUSH2 0x328F SWAP2 SWAP1 PUSH2 0x550C JUMP JUMPDEST SWAP2 POP POP JUMPDEST SWAP3 SWAP2 POP POP JUMP JUMPDEST PUSH2 0x32A2 DUP3 PUSH2 0x3210 JUMP JUMPDEST PUSH0 PUSH1 0x4 DUP4 DUP2 SLOAD DUP2 LT PUSH2 0x32B7 JUMPI PUSH2 0x32B6 PUSH2 0x4D23 JUMP JUMPDEST JUMPDEST SWAP1 PUSH0 MSTORE PUSH1 0x20 PUSH0 KECCAK256 SWAP1 PUSH1 0x9 MUL ADD SWAP1 POP DUP1 PUSH1 0x8 ADD PUSH0 SWAP1 SLOAD SWAP1 PUSH2 0x100 EXP SWAP1 DIV PUSH1 0xFF AND DUP1 PUSH2 0x32F0 JUMPI POP DUP1 PUSH1 0x8 ADD PUSH1 0x1 SWAP1 SLOAD SWAP1 PUSH2 0x100 EXP SWAP1 DIV PUSH1 0xFF AND ISZERO JUMPDEST ISZERO PUSH2 0x32FB JUMPI POP PUSH2 0x3A06 JUMP JUMPDEST PUSH0 DUP3 SWAP1 POP DUP2 PUSH1 0x2 ADD SLOAD DUP2 DUP4 PUSH1 0x4 ADD SLOAD PUSH2 0x3314 SWAP2 SWAP1 PUSH2 0x4D83 JUMP JUMPDEST GT ISZERO PUSH2 0x3331 JUMPI DUP2 PUSH1 0x4 ADD SLOAD DUP3 PUSH1 0x2 ADD SLOAD PUSH2 0x332E SWAP2 SWAP1 PUSH2 0x4D50 JUMP JUMPDEST SWAP1 POP JUMPDEST PUSH0 DUP2 SUB PUSH2 0x333F JUMPI POP POP PUSH2 0x3A06 JUMP JUMPDEST PUSH0 PUSH2 0x3349 DUP6 PUSH2 0x40B6 JUMP JUMPDEST SWAP1 POP PUSH0 DUP3 DUP3 PUSH2 0x3358 SWAP2 SWAP1 PUSH2 0x549E JUMP JUMPDEST SWAP1 POP PUSH0 PUSH1 0x64 PUSH1 0x5 PUSH1 0x2 SWAP1 SLOAD SWAP1 PUSH2 0x100 EXP SWAP1 DIV PUSH2 0xFFFF AND PUSH2 0xFFFF AND DUP4 PUSH2 0x337D SWAP2 SWAP1 PUSH2 0x549E JUMP JUMPDEST PUSH2 0x3387 SWAP2 SWAP1 PUSH2 0x550C JUMP JUMPDEST SWAP1 POP PUSH0 DUP2 DUP4 PUSH2 0x3396 SWAP2 SWAP1 PUSH2 0x4D83 JUMP JUMPDEST SWAP1 POP PUSH0 PUSH0 SWAP1 POP PUSH0 PUSH0 SWAP1 POP PUSH0 PUSH0 SWAP1 POP DUP4 DUP10 PUSH1 0x7 ADD SLOAD LT PUSH2 0x3486 JUMPI DUP4 SWAP3 POP PUSH0 PUSH1 0x64 PUSH1 0x5 PUSH0 SWAP1 SLOAD SWAP1 PUSH2 0x100 EXP SWAP1 DIV PUSH2 0xFFFF AND PUSH2 0xFFFF AND DUP12 PUSH1 0x1 ADD SLOAD PUSH2 0x33D8 SWAP2 SWAP1 PUSH2 0x549E JUMP JUMPDEST PUSH2 0x33E2 SWAP2 SWAP1 PUSH2 0x550C JUMP JUMPDEST SWAP1 POP PUSH0 DUP10 DUP3 PUSH2 0x33F1 SWAP2 SWAP1 PUSH2 0x549E JUMP JUMPDEST SWAP1 POP DUP7 DUP2 PUSH2 0x33FF SWAP2 SWAP1 PUSH2 0x4D83 JUMP JUMPDEST PUSH1 0x6 PUSH0 DUP3 DUP3 SLOAD PUSH2 0x340F SWAP2 SWAP1 PUSH2 0x4D83 JUMP JUMPDEST SWAP3 POP POP DUP2 SWAP1 SSTORE POP PUSH0 DUP11 DUP4 PUSH2 0x3423 SWAP2 SWAP1 PUSH2 0x549E JUMP JUMPDEST DUP10 PUSH2 0x342E SWAP2 SWAP1 PUSH2 0x4D50 JUMP JUMPDEST SWAP1 POP DUP12 PUSH1 0x6 ADD SLOAD DUP2 GT ISZERO PUSH2 0x3444 JUMPI DUP12 PUSH1 0x6 ADD SLOAD SWAP1 POP JUMPDEST DUP1 DUP13 PUSH1 0x6 ADD PUSH0 DUP3 DUP3 SLOAD PUSH2 0x3457 SWAP2 SWAP1 PUSH2 0x4D50 JUMP JUMPDEST SWAP3 POP POP DUP2 SWAP1 SSTORE POP DUP6 DUP13 PUSH1 0x7 ADD PUSH0 DUP3 DUP3 SLOAD PUSH2 0x3471 SWAP2 SWAP1 PUSH2 0x4D50 JUMP JUMPDEST SWAP3 POP POP DUP2 SWAP1 SSTORE POP PUSH0 SWAP5 POP PUSH0 SWAP4 POP POP POP POP PUSH2 0x3665 JUMP JUMPDEST DUP9 PUSH1 0x7 ADD SLOAD SWAP3 POP PUSH0 DUP4 SWAP1 POP PUSH0 DUP11 PUSH1 0x6 ADD SLOAD SWAP1 POP PUSH0 DUP2 SWAP1 POP DUP3 DUP2 GT ISZERO PUSH2 0x34CC JUMPI PUSH0 DUP4 SWAP1 POP DUP1 DUP14 PUSH1 0x6 ADD PUSH0 DUP3 DUP3 SLOAD PUSH2 0x34BC SWAP2 SWAP1 PUSH2 0x4D50 JUMP JUMPDEST SWAP3 POP POP DUP2 SWAP1 SSTORE POP PUSH0 SWAP4 POP POP PUSH2 0x3557 JUMP JUMPDEST PUSH0 DUP12 DUP14 PUSH1 0x2 ADD SLOAD DUP15 PUSH1 0x1 ADD SLOAD PUSH2 0x34E2 SWAP2 SWAP1 PUSH2 0x550C JUMP JUMPDEST PUSH2 0x34EC SWAP2 SWAP1 PUSH2 0x549E JUMP JUMPDEST SWAP1 POP DUP13 PUSH1 0x6 ADD SLOAD DUP2 GT ISZERO PUSH2 0x3502 JUMPI DUP13 PUSH1 0x6 ADD SLOAD SWAP1 POP JUMPDEST DUP4 DUP2 GT ISZERO PUSH2 0x352C JUMPI DUP4 DUP14 PUSH1 0x6 ADD PUSH0 DUP3 DUP3 SLOAD PUSH2 0x351D SWAP2 SWAP1 PUSH2 0x4D50 JUMP JUMPDEST SWAP3 POP POP DUP2 SWAP1 SSTORE POP PUSH0 SWAP4 POP PUSH2 0x3555 JUMP JUMPDEST DUP1 DUP14 PUSH1 0x6 ADD PUSH0 DUP3 DUP3 SLOAD PUSH2 0x353F SWAP2 SWAP1 PUSH2 0x4D50 JUMP JUMPDEST SWAP3 POP POP DUP2 SWAP1 SSTORE POP DUP1 DUP5 PUSH2 0x3552 SWAP2 SWAP1 PUSH2 0x4D50 JUMP JUMPDEST SWAP4 POP JUMPDEST POP JUMPDEST PUSH0 PUSH1 0x64 PUSH1 0x5 PUSH0 SWAP1 SLOAD SWAP1 PUSH2 0x100 EXP SWAP1 DIV PUSH2 0xFFFF AND PUSH2 0xFFFF AND DUP15 PUSH1 0x1 ADD SLOAD PUSH2 0x357D SWAP2 SWAP1 PUSH2 0x549E JUMP JUMPDEST PUSH2 0x3587 SWAP2 SWAP1 PUSH2 0x550C JUMP JUMPDEST SWAP1 POP PUSH0 DUP13 DUP3 PUSH2 0x3596 SWAP2 SWAP1 PUSH2 0x549E JUMP JUMPDEST SWAP1 POP PUSH0 PUSH1 0x64 PUSH1 0x5 PUSH1 0x2 SWAP1 SLOAD SWAP1 PUSH2 0x100 EXP SWAP1 DIV PUSH2 0xFFFF AND PUSH2 0xFFFF AND DUP16 DUP16 PUSH2 0x35BC SWAP2 SWAP1 PUSH2 0x549E JUMP JUMPDEST PUSH2 0x35C6 SWAP2 SWAP1 PUSH2 0x549E JUMP JUMPDEST PUSH2 0x35D0 SWAP2 SWAP1 PUSH2 0x550C JUMP JUMPDEST DUP3 PUSH2 0x35DB SWAP2 SWAP1 PUSH2 0x4D83 JUMP JUMPDEST SWAP1 POP DUP1 DUP7 LT PUSH2 0x361D JUMPI DUP1 PUSH1 0x6 PUSH0 DUP3 DUP3 SLOAD PUSH2 0x35F5 SWAP2 SWAP1 PUSH2 0x4D83 JUMP JUMPDEST SWAP3 POP POP DUP2 SWAP1 SSTORE POP DUP1 DUP7 PUSH2 0x3608 SWAP2 SWAP1 PUSH2 0x4D50 JUMP JUMPDEST SWAP6 POP DUP6 DUP9 PUSH2 0x3616 SWAP2 SWAP1 PUSH2 0x4D83 JUMP JUMPDEST SWAP8 POP PUSH2 0x3639 JUMP JUMPDEST DUP6 PUSH1 0x6 PUSH0 DUP3 DUP3 SLOAD PUSH2 0x362E SWAP2 SWAP1 PUSH2 0x4D83 JUMP JUMPDEST SWAP3 POP POP DUP2 SWAP1 SSTORE POP PUSH0 SWAP6 POP JUMPDEST PUSH0 DUP16 PUSH1 0x7 ADD DUP2 SWAP1 SSTORE POP DUP9 DUP11 GT PUSH2 0x364F JUMPI PUSH0 PUSH2 0x365C JUMP JUMPDEST DUP9 DUP11 PUSH2 0x365B SWAP2 SWAP1 PUSH2 0x4D50 JUMP JUMPDEST JUMPDEST SWAP7 POP POP POP POP POP POP POP JUMPDEST DUP8 DUP10 PUSH1 0x4 ADD PUSH0 DUP3 DUP3 SLOAD PUSH2 0x3678 SWAP2 SWAP1 PUSH2 0x4D83 JUMP JUMPDEST SWAP3 POP POP DUP2 SWAP1 SSTORE POP DUP9 PUSH1 0x2 ADD SLOAD DUP10 PUSH1 0x4 ADD SLOAD GT ISZERO PUSH2 0x369D JUMPI DUP9 PUSH1 0x2 ADD SLOAD DUP10 PUSH1 0x4 ADD DUP2 SWAP1 SSTORE POP JUMPDEST PUSH0 DUP10 PUSH1 0x5 ADD DUP2 SWAP1 SSTORE POP PUSH1 0x1 PUSH1 0x9 PUSH0 DUP12 PUSH0 ADD PUSH0 SWAP1 SLOAD SWAP1 PUSH2 0x100 EXP SWAP1 DIV PUSH20 0xFFFFFFFFFFFFFFFFFFFFFFFFFFFFFFFFFFFFFFFF AND PUSH20 0xFFFFFFFFFFFFFFFFFFFFFFFFFFFFFFFFFFFFFFFF AND PUSH20 0xFFFFFFFFFFFFFFFFFFFFFFFFFFFFFFFFFFFFFFFF AND DUP2 MSTORE PUSH1 0x20 ADD SWAP1 DUP2 MSTORE PUSH1 0x20 ADD PUSH0 KECCAK256 PUSH0 DUP3 DUP3 SLOAD PUSH2 0x3715 SWAP2 SWAP1 PUSH2 0x4D83 JUMP JUMPDEST SWAP3 POP POP DUP2 SWAP1 SSTORE POP DUP9 PUSH0 ADD PUSH0 SWAP1 SLOAD SWAP1 PUSH2 0x100 EXP SWAP1 DIV PUSH20 0xFFFFFFFFFFFFFFFFFFFFFFFFFFFFFFFFFFFFFFFF AND PUSH20 0xFFFFFFFFFFFFFFFFFFFFFFFFFFFFFFFFFFFFFFFF AND PUSH32 0x73DC1DABFE81E4B13A65BBC538E7BFC06BAFCCA30510B59584F1043E4C04851 PUSH1 0x9 PUSH0 DUP13 PUSH0 ADD PUSH0 SWAP1 SLOAD SWAP1 PUSH2 0x100 EXP SWAP1 DIV PUSH20 0xFFFFFFFFFFFFFFFFFFFFFFFFFFFFFFFFFFFFFFFF AND PUSH20 0xFFFFFFFFFFFFFFFFFFFFFFFFFFFFFFFFFFFFFFFF AND PUSH20 0xFFFFFFFFFFFFFFFFFFFFFFFFFFFFFFFFFFFFFFFF AND DUP2 MSTORE PUSH1 0x20 ADD SWAP1 DUP2 MSTORE PUSH1 0x20 ADD PUSH0 KECCAK256 SLOAD PUSH1 0x40 MLOAD PUSH2 0x37E3 SWAP2 SWAP1 PUSH2 0x441E JUMP JUMPDEST PUSH1 0x40 MLOAD DUP1 SWAP2 SUB SWAP1 LOG2 PUSH1 0x3 PUSH1 0x9 PUSH0 DUP12 PUSH0 ADD PUSH0 SWAP1 SLOAD SWAP1 PUSH2 0x100 EXP SWAP1 DIV PUSH20 0xFFFFFFFFFFFFFFFFFFFFFFFFFFFFFFFFFFFFFFFF AND PUSH20 0xFFFFFFFFFFFFFFFFFFFFFFFFFFFFFFFFFFFFFFFF AND PUSH20 0xFFFFFFFFFFFFFFFFFFFFFFFFFFFFFFFFFFFFFFFF AND DUP2 MSTORE PUSH1 0x20 ADD SWAP1 DUP2 MSTORE PUSH1 0x20 ADD PUSH0 KECCAK256 SLOAD LT PUSH2 0x392F JUMPI PUSH1 0x1 PUSH1 0x8 PUSH0 DUP12 PUSH0 ADD PUSH0 SWAP1 SLOAD SWAP1 PUSH2 0x100 EXP SWAP1 DIV PUSH20 0xFFFFFFFFFFFFFFFFFFFFFFFFFFFFFFFFFFFFFFFF AND PUSH20 0xFFFFFFFFFFFFFFFFFFFFFFFFFFFFFFFFFFFFFFFF AND PUSH20 0xFFFFFFFFFFFFFFFFFFFFFFFFFFFFFFFFFFFFFFFF AND DUP2 MSTORE PUSH1 0x20 ADD SWAP1 DUP2 MSTORE PUSH1 0x20 ADD PUSH0 KECCAK256 PUSH0 PUSH2 0x100 EXP DUP2 SLOAD DUP2 PUSH1 0xFF MUL NOT AND SWAP1 DUP4 ISZERO ISZERO MUL OR SWAP1 SSTORE POP DUP9 PUSH0 ADD PUSH0 SWAP1 SLOAD SWAP1 PUSH2 0x100 EXP SWAP1 DIV PUSH20 0xFFFFFFFFFFFFFFFFFFFFFFFFFFFFFFFFFFFFFFFF AND PUSH20 0xFFFFFFFFFFFFFFFFFFFFFFFFFFFFFFFFFFFFFFFF AND PUSH32 0xFFA4E6181777692565CF28528FC88FD1516EA86B56DA075235FA575AF6A4B855 PUSH1 0x40 MLOAD PUSH1 0x40 MLOAD DUP1 SWAP2 SUB SWAP1 LOG2 JUMPDEST DUP9 PUSH1 0x2 ADD SLOAD DUP10 PUSH1 0x4 ADD SLOAD LT ISZERO DUP1 PUSH2 0x3949 JUMPI POP PUSH0 DUP10 PUSH1 0x6 ADD SLOAD EQ JUMPDEST ISZERO PUSH2 0x3987 JUMPI PUSH0 DUP10 PUSH1 0x8 ADD PUSH1 0x1 PUSH2 0x100 EXP DUP2 SLOAD DUP2 PUSH1 0xFF MUL NOT AND SWAP1 DUP4 ISZERO ISZERO MUL OR SWAP1 SSTORE POP PUSH1 0x1 DUP10 PUSH1 0x8 ADD PUSH0 PUSH2 0x100 EXP DUP2 SLOAD DUP2 PUSH1 0xFF MUL NOT AND SWAP1 DUP4 ISZERO ISZERO MUL OR SWAP1 SSTORE POP JUMPDEST DUP9 PUSH0 ADD PUSH0 SWAP1 SLOAD SWAP1 PUSH2 0x100 EXP SWAP1 DIV PUSH20 0xFFFFFFFFFFFFFFFFFFFFFFFFFFFFFFFFFFFFFFFF AND PUSH20 0xFFFFFFFFFFFFFFFFFFFFFFFFFFFFFFFFFFFFFFFF AND DUP12 PUSH32 0x4A14ED616CE90B51A0A9222C0E231E9CE03B6885730AFF30C76A5CCB7C5B8106 DUP6 DUP5 DUP7 PUSH1 0x40 MLOAD PUSH2 0x39F4 SWAP4 SWAP3 SWAP2 SWAP1 PUSH2 0x55A4 JUMP JUMPDEST PUSH1 0x40 MLOAD DUP1 SWAP2 SUB SWAP1 LOG3 POP POP POP POP POP POP POP POP POP JUMPDEST POP POP JUMP JUMPDEST PUSH2 0x3A13 DUP2 PUSH2 0x3210 JUMP JUMPDEST PUSH0 PUSH1 0x4 DUP3 DUP2 SLOAD DUP2 LT PUSH2 0x3A28 JUMPI PUSH2 0x3A27 PUSH2 0x4D23 JUMP JUMPDEST JUMPDEST SWAP1 PUSH0 MSTORE PUSH1 0x20 PUSH0 KECCAK256 SWAP1 PUSH1 0x9 MUL ADD SWAP1 POP DUP1 PUSH1 0x8 ADD PUSH0 SWAP1 SLOAD SWAP1 PUSH2 0x100 EXP SWAP1 DIV PUSH1 0xFF AND ISZERO PUSH2 0x3A52 JUMPI POP PUSH2 0x406A JUMP JUMPDEST PUSH0 DUP2 PUSH1 0x4 ADD SLOAD DUP3 PUSH1 0x2 ADD SLOAD GT PUSH2 0x3A68 JUMPI PUSH0 PUSH2 0x3A7D JUMP JUMPDEST DUP2 PUSH1 0x4 ADD SLOAD DUP3 PUSH1 0x2 ADD SLOAD PUSH2 0x3A7C SWAP2 SWAP1 PUSH2 0x4D50 JUMP JUMPDEST JUMPDEST SWAP1 POP PUSH0 PUSH2 0x3A89 DUP5 PUSH2 0x40B6 JUMP JUMPDEST SWAP1 POP PUSH0 DUP3 DUP3 PUSH2 0x3A98 SWAP2 SWAP1 PUSH2 0x549E JUMP JUMPDEST SWAP1 POP PUSH0 PUSH1 0x64 PUSH1 0x5 PUSH1 0x2 SWAP1 SLOAD SWAP1 PUSH2 0x100 EXP SWAP1 DIV PUSH2 0xFFFF AND PUSH2 0xFFFF AND DUP4 PUSH2 0x3ABD SWAP2 SWAP1 PUSH2 0x549E JUMP JUMPDEST PUSH2 0x3AC7 SWAP2 SWAP1 PUSH2 0x550C JUMP JUMPDEST SWAP1 POP PUSH0 DUP2 DUP4 PUSH2 0x3AD6 SWAP2 SWAP1 PUSH2 0x4D83 JUMP JUMPDEST SWAP1 POP PUSH0 PUSH0 SWAP1 POP PUSH0 PUSH0 SWAP1 POP PUSH0 PUSH0 SWAP1 POP DUP4 DUP10 PUSH1 0x7 ADD SLOAD LT PUSH2 0x3BC0 JUMPI DUP4 SWAP3 POP PUSH0 PUSH1 0x64 PUSH1 0x5 PUSH0 SWAP1 SLOAD SWAP1 PUSH2 0x100 EXP SWAP1 DIV PUSH2 0xFFFF AND PUSH2 0xFFFF AND DUP12 PUSH1 0x1 ADD SLOAD PUSH2 0x3B18 SWAP2 SWAP1 PUSH2 0x549E JUMP JUMPDEST PUSH2 0x3B22 SWAP2 SWAP1 PUSH2 0x550C JUMP JUMPDEST SWAP1 POP PUSH0 DUP10 DUP3 PUSH2 0x3B31 SWAP2 SWAP1 PUSH2 0x549E JUMP JUMPDEST SWAP1 POP DUP7 DUP2 PUSH2 0x3B3F SWAP2 SWAP1 PUSH2 0x4D83 JUMP JUMPDEST PUSH1 0x6 PUSH0 DUP3 DUP3 SLOAD PUSH2 0x3B4F SWAP2 SWAP1 PUSH2 0x4D83 JUMP JUMPDEST SWAP3 POP POP DUP2 SWAP1 SSTORE POP PUSH0 DUP11 DUP4 PUSH2 0x3B63 SWAP2 SWAP1 PUSH2 0x549E JUMP JUMPDEST DUP10 PUSH2 0x3B6E SWAP2 SWAP1 PUSH2 0x4D50 JUMP JUMPDEST SWAP1 POP DUP12 PUSH1 0x6 ADD SLOAD DUP2 GT ISZERO PUSH2 0x3B84 JUMPI DUP12 PUSH1 0x6 ADD SLOAD SWAP1 POP JUMPDEST DUP1 DUP13 PUSH1 0x6 ADD PUSH0 DUP3 DUP3 SLOAD PUSH2 0x3B97 SWAP2 SWAP1 PUSH2 0x4D50 JUMP JUMPDEST SWAP3 POP POP DUP2 SWAP1 SSTORE POP DUP6 DUP13 PUSH1 0x7 ADD PUSH0 DUP3 DUP3 SLOAD PUSH2 0x3BB1 SWAP2 SWAP1 PUSH2 0x4D50 JUMP JUMPDEST SWAP3 POP POP DUP2 SWAP1 SSTORE POP POP POP POP PUSH2 0x3D2A JUMP JUMPDEST DUP9 PUSH1 0x7 ADD SLOAD SWAP3 POP PUSH0 DUP4 SWAP1 POP PUSH0 DUP10 DUP12 PUSH1 0x2 ADD SLOAD DUP13 PUSH1 0x1 ADD SLOAD PUSH2 0x3BE1 SWAP2 SWAP1 PUSH2 0x550C JUMP JUMPDEST PUSH2 0x3BEB SWAP2 SWAP1 PUSH2 0x549E JUMP JUMPDEST SWAP1 POP DUP11 PUSH1 0x6 ADD SLOAD DUP2 GT ISZERO PUSH2 0x3C01 JUMPI DUP11 PUSH1 0x6 ADD SLOAD SWAP1 POP JUMPDEST DUP1 DUP3 LT PUSH2 0x3C35 JUMPI DUP1 DUP3 PUSH2 0x3C14 SWAP2 SWAP1 PUSH2 0x4D50 JUMP JUMPDEST SWAP2 POP DUP1 DUP12 PUSH1 0x6 ADD PUSH0 DUP3 DUP3 SLOAD PUSH2 0x3C29 SWAP2 SWAP1 PUSH2 0x4D50 JUMP JUMPDEST SWAP3 POP POP DUP2 SWAP1 SSTORE POP PUSH2 0x3C53 JUMP JUMPDEST DUP2 DUP12 PUSH1 0x6 ADD PUSH0 DUP3 DUP3 SLOAD PUSH2 0x3C48 SWAP2 SWAP1 PUSH2 0x4D50 JUMP JUMPDEST SWAP3 POP POP DUP2 SWAP1 SSTORE POP PUSH0 SWAP2 POP JUMPDEST PUSH0 PUSH1 0x64 PUSH1 0x5 PUSH0 SWAP1 SLOAD SWAP1 PUSH2 0x100 EXP SWAP1 DIV PUSH2 0xFFFF AND PUSH2 0xFFFF AND DUP14 PUSH1 0x1 ADD SLOAD PUSH2 0x3C79 SWAP2 SWAP1 PUSH2 0x549E JUMP JUMPDEST PUSH2 0x3C83 SWAP2 SWAP1 PUSH2 0x550C JUMP JUMPDEST SWAP1 POP PUSH0 DUP12 DUP3 PUSH2 0x3C92 SWAP2 SWAP1 PUSH2 0x549E JUMP JUMPDEST SWAP1 POP PUSH0 DUP10 DUP3 PUSH2 0x3CA1 SWAP2 SWAP1 PUSH2 0x4D83 JUMP JUMPDEST SWAP1 POP DUP1 DUP6 LT PUSH2 0x3CE3 JUMPI DUP1 PUSH1 0x6 PUSH0 DUP3 DUP3 SLOAD PUSH2 0x3CBB SWAP2 SWAP1 PUSH2 0x4D83 JUMP JUMPDEST SWAP3 POP POP DUP2 SWAP1 SSTORE POP DUP1 DUP6 PUSH2 0x3CCE SWAP2 SWAP1 PUSH2 0x4D50 JUMP JUMPDEST SWAP5 POP DUP5 DUP7 PUSH2 0x3CDC SWAP2 SWAP1 PUSH2 0x4D83 JUMP JUMPDEST SWAP6 POP PUSH2 0x3CFF JUMP JUMPDEST DUP5 PUSH1 0x6 PUSH0 DUP3 DUP3 SLOAD PUSH2 0x3CF4 SWAP2 SWAP1 PUSH2 0x4D83 JUMP JUMPDEST SWAP3 POP POP DUP2 SWAP1 SSTORE POP PUSH0 SWAP5 POP JUMPDEST PUSH0 DUP15 PUSH1 0x7 ADD DUP2 SWAP1 SSTORE POP DUP8 DUP10 GT PUSH2 0x3D15 JUMPI PUSH0 PUSH2 0x3D22 JUMP JUMPDEST DUP8 DUP10 PUSH2 0x3D21 SWAP2 SWAP1 PUSH2 0x4D50 JUMP JUMPDEST JUMPDEST SWAP7 POP POP POP POP POP POP JUMPDEST PUSH1 0x1 DUP10 PUSH1 0x8 ADD PUSH0 PUSH2 0x100 EXP DUP2 SLOAD DUP2 PUSH1 0xFF MUL NOT AND SWAP1 DUP4 ISZERO ISZERO MUL OR SWAP1 SSTORE POP PUSH0 DUP10 PUSH1 0x8 ADD PUSH1 0x1 PUSH2 0x100 EXP DUP2 SLOAD DUP2 PUSH1 0xFF MUL NOT AND SWAP1 DUP4 ISZERO ISZERO MUL OR SWAP1 SSTORE POP PUSH1 0x1 PUSH1 0x9 PUSH0 DUP12 PUSH0 ADD PUSH0 SWAP1 SLOAD SWAP1 PUSH2 0x100 EXP SWAP1 DIV PUSH20 0xFFFFFFFFFFFFFFFFFFFFFFFFFFFFFFFFFFFFFFFF AND PUSH20 0xFFFFFFFFFFFFFFFFFFFFFFFFFFFFFFFFFFFFFFFF AND PUSH20 0xFFFFFFFFFFFFFFFFFFFFFFFFFFFFFFFFFFFFFFFF AND DUP2 MSTORE PUSH1 0x20 ADD SWAP1 DUP2 MSTORE PUSH1 0x20 ADD PUSH0 KECCAK256 PUSH0 DUP3 DUP3 SLOAD PUSH2 0x3DD1 SWAP2 SWAP1 PUSH2 0x4D83 JUMP JUMPDEST SWAP3 POP POP DUP2 SWAP1 SSTORE POP DUP9 PUSH0 ADD PUSH0 SWAP1 SLOAD SWAP1 PUSH2 0x100 EXP SWAP1 DIV PUSH20 0xFFFFFFFFFFFFFFFFFFFFFFFFFFFFFFFFFFFFFFFF AND PUSH20 0xFFFFFFFFFFFFFFFFFFFFFFFFFFFFFFFFFFFFFFFF AND PUSH32 0x73DC1DABFE81E4B13A65BBC538E7BFC06BAFCCA30510B59584F1043E4C04851 PUSH1 0x9 PUSH0 DUP13 PUSH0 ADD PUSH0 SWAP1 SLOAD SWAP1 PUSH2 0x100 EXP SWAP1 DIV PUSH20 0xFFFFFFFFFFFFFFFFFFFFFFFFFFFFFFFFFFFFFFFF AND PUSH20 0xFFFFFFFFFFFFFFFFFFFFFFFFFFFFFFFFFFFFFFFF AND PUSH20 0xFFFFFFFFFFFFFFFFFFFFFFFFFFFFFFFFFFFFFFFF AND DUP2 MSTORE PUSH1 0x20 ADD SWAP1 DUP2 MSTORE PUSH1 0x20 ADD PUSH0 KECCAK256 SLOAD PUSH1 0x40 MLOAD PUSH2 0x3E9F SWAP2 SWAP1 PUSH2 0x441E JUMP JUMPDEST PUSH1 0x40 MLOAD DUP1 SWAP2 SUB SWAP1 LOG2 PUSH1 0x3 PUSH1 0x9 PUSH0 DUP12 PUSH0 ADD PUSH0 SWAP1 SLOAD SWAP1 PUSH2 0x100 EXP SWAP1 DIV PUSH20 0xFFFFFFFFFFFFFFFFFFFFFFFFFFFFFFFFFFFFFFFF AND PUSH20 0xFFFFFFFFFFFFFFFFFFFFFFFFFFFFFFFFFFFFFFFF AND PUSH20 0xFFFFFFFFFFFFFFFFFFFFFFFFFFFFFFFFFFFFFFFF AND DUP2 MSTORE PUSH1 0x20 ADD SWAP1 DUP2 MSTORE PUSH1 0x20 ADD PUSH0 KECCAK256 SLOAD LT PUSH2 0x3FEB JUMPI PUSH1 0x1 PUSH1 0x8 PUSH0 DUP12 PUSH0 ADD PUSH0 SWAP1 SLOAD SWAP1 PUSH2 0x100 EXP SWAP1 DIV PUSH20 0xFFFFFFFFFFFFFFFFFFFFFFFFFFFFFFFFFFFFFFFF AND PUSH20 0xFFFFFFFFFFFFFFFFFFFFFFFFFFFFFFFFFFFFFFFF AND PUSH20 0xFFFFFFFFFFFFFFFFFFFFFFFFFFFFFFFFFFFFFFFF AND DUP2 MSTORE PUSH1 0x20 ADD SWAP1 DUP2 MSTORE PUSH1 0x20 ADD PUSH0 KECCAK256 PUSH0 PUSH2 0x100 EXP DUP2 SLOAD DUP2 PUSH1 0xFF MUL NOT AND SWAP1 DUP4 ISZERO ISZERO MUL OR SWAP1 SSTORE POP DUP9 PUSH0 ADD PUSH0 SWAP1 SLOAD SWAP1 PUSH2 0x100 EXP SWAP1 DIV PUSH20 0xFFFFFFFFFFFFFFFFFFFFFFFFFFFFFFFFFFFFFFFF AND PUSH20 0xFFFFFFFFFFFFFFFFFFFFFFFFFFFFFFFFFFFFFFFF AND PUSH32 0xFFA4E6181777692565CF28528FC88FD1516EA86B56DA075235FA575AF6A4B855 PUSH1 0x40 MLOAD PUSH1 0x40 MLOAD DUP1 SWAP2 SUB SWAP1 LOG2 JUMPDEST DUP9 PUSH0 ADD PUSH0 SWAP1 SLOAD SWAP1 PUSH2 0x100 EXP SWAP1 DIV PUSH20 0xFFFFFFFFFFFFFFFFFFFFFFFFFFFFFFFFFFFFFFFF AND PUSH20 0xFFFFFFFFFFFFFFFFFFFFFFFFFFFFFFFFFFFFFFFF AND DUP11 PUSH32 0x4A14ED616CE90B51A0A9222C0E231E9CE03B6885730AFF30C76A5CCB7C5B8106 DUP6 DUP6 DUP6 PUSH1 0x40 MLOAD PUSH2 0x4058 SWAP4 SWAP3 SWAP2 SWAP1 PUSH2 0x55A4 JUMP JUMPDEST PUSH1 0x40 MLOAD DUP1 SWAP2 SUB SWAP1 LOG3 POP POP POP POP POP POP POP POP POP JUMPDEST POP JUMP JUMPDEST PUSH0 PUSH0 PUSH1 0x5 PUSH1 0x6 SWAP1 SLOAD SWAP1 PUSH2 0x100 EXP SWAP1 DIV PUSH2 0xFFFF AND PUSH2 0xFFFF AND SUB PUSH2 0x4092 JUMPI PUSH1 0x1 SWAP1 POP PUSH2 0x40B3 JUMP JUMPDEST PUSH1 0x5 PUSH1 0x6 SWAP1 SLOAD SWAP1 PUSH2 0x100 EXP SWAP1 DIV PUSH2 0xFFFF AND PUSH2 0xFFFF AND PUSH2 0x40AF PUSH2 0x4188 JUMP JUMPDEST LT SWAP1 POP JUMPDEST SWAP1 JUMP JUMPDEST PUSH0 PUSH2 0x40C0 DUP3 PUSH2 0x3210 JUMP JUMPDEST PUSH0 PUSH1 0x4 DUP4 DUP2 SLOAD DUP2 LT PUSH2 0x40D5 JUMPI PUSH2 0x40D4 PUSH2 0x4D23 JUMP JUMPDEST JUMPDEST SWAP1 PUSH0 MSTORE PUSH1 0x20 PUSH0 KECCAK256 SWAP1 PUSH1 0x9 MUL ADD SWAP1 POP PUSH0 DUP2 PUSH1 0x2 ADD SLOAD GT PUSH2 0x4129 JUMPI PUSH1 0x40 MLOAD PUSH32 0x8C379A000000000000000000000000000000000000000000000000000000000 DUP2 MSTORE PUSH1 0x4 ADD PUSH2 0x4120 SWAP1 PUSH2 0x5D7E JUMP JUMPDEST PUSH1 0x40 MLOAD DUP1 SWAP2 SUB SWAP1 REVERT JUMPDEST PUSH0 DUP2 PUSH1 0x2 ADD SLOAD DUP3 PUSH1 0x1 ADD SLOAD PUSH2 0x413E SWAP2 SWAP1 PUSH2 0x550C JUMP JUMPDEST SWAP1 POP PUSH0 PUSH1 0x64 PUSH1 0x5 PUSH0 SWAP1 SLOAD SWAP1 PUSH2 0x100 EXP SWAP1 DIV PUSH2 0xFFFF AND PUSH2 0xFFFF AND DUP5 PUSH1 0x1 ADD SLOAD PUSH2 0x4166 SWAP2 SWAP1 PUSH2 0x549E JUMP JUMPDEST PUSH2 0x4170 SWAP2 SWAP1 PUSH2 0x550C JUMP JUMPDEST SWAP1 POP DUP1 DUP3 PUSH2 0x417E SWAP2 SWAP1 PUSH2 0x4D83 JUMP JUMPDEST SWAP4 POP POP POP POP SWAP2 SWAP1 POP JUMP JUMPDEST PUSH0 PUSH0 PUSH1 0x4 DUP1 SLOAD SWAP1 POP SUB PUSH2 0x419D JUMPI PUSH0 SWAP1 POP PUSH2 0x4226 JUMP JUMPDEST PUSH0 PUSH0 SWAP1 POP PUSH0 PUSH0 SWAP1 POP JUMPDEST PUSH1 0x4 DUP1 SLOAD SWAP1 POP DUP2 LT ISZERO PUSH2 0x4204 JUMPI PUSH1 0x4 DUP2 DUP2 SLOAD DUP2 LT PUSH2 0x41C7 JUMPI PUSH2 0x41C6 PUSH2 0x4D23 JUMP JUMPDEST JUMPDEST SWAP1 PUSH0 MSTORE PUSH1 0x20 PUSH0 KECCAK256 SWAP1 PUSH1 0x9 MUL ADD PUSH1 0x8 ADD PUSH0 SWAP1 SLOAD SWAP1 PUSH2 0x100 EXP SWAP1 DIV PUSH1 0xFF AND ISZERO PUSH2 0x41F7 JUMPI DUP2 DUP1 PUSH2 0x41F3 SWAP1 PUSH2 0x52B7 JUMP JUMPDEST SWAP3 POP POP JUMPDEST DUP1 DUP1 PUSH1 0x1 ADD SWAP2 POP POP PUSH2 0x41A6 JUMP JUMPDEST POP PUSH1 0x4 DUP1 SLOAD SWAP1 POP PUSH1 0x64 DUP3 PUSH2 0x4218 SWAP2 SWAP1 PUSH2 0x549E JUMP JUMPDEST PUSH2 0x4222 SWAP2 SWAP1 PUSH2 0x550C JUMP JUMPDEST SWAP2 POP POP JUMPDEST SWAP1 JUMP JUMPDEST PUSH0 PUSH2 0xFFFF DUP3 AND SWAP1 POP SWAP2 SWAP1 POP JUMP JUMPDEST PUSH2 0x423F DUP2 PUSH2 0x4229 JUMP JUMPDEST DUP3 MSTORE POP POP JUMP JUMPDEST PUSH0 PUSH1 0x20 DUP3 ADD SWAP1 POP PUSH2 0x4258 PUSH0 DUP4 ADD DUP5 PUSH2 0x4236 JUMP JUMPDEST SWAP3 SWAP2 POP POP JUMP JUMPDEST PUSH0 PUSH0 REVERT JUMPDEST PUSH0 PUSH0 REVERT JUMPDEST PUSH0 PUSH20 0xFFFFFFFFFFFFFFFFFFFFFFFFFFFFFFFFFFFFFFFF DUP3 AND SWAP1 POP SWAP2 SWAP1 POP JUMP JUMPDEST PUSH0 PUSH2 0x428F DUP3 PUSH2 0x4266 JUMP JUMPDEST SWAP1 POP SWAP2 SWAP1 POP JUMP JUMPDEST PUSH2 0x429F DUP2 PUSH2 0x4285 JUMP JUMPDEST DUP2 EQ PUSH2 0x42A9 JUMPI PUSH0 PUSH0 REVERT JUMPDEST POP JUMP JUMPDEST PUSH0 DUP2 CALLDATALOAD SWAP1 POP PUSH2 0x42BA DUP2 PUSH2 0x4296 JUMP JUMPDEST SWAP3 SWAP2 POP POP JUMP JUMPDEST PUSH0 PUSH0 REVERT JUMPDEST PUSH0 PUSH0 REVERT JUMPDEST PUSH0 PUSH0 REVERT JUMPDEST PUSH0 PUSH0 DUP4 PUSH1 0x1F DUP5 ADD SLT PUSH2 0x42E1 JUMPI PUSH2 0x42E0 PUSH2 0x42C0 JUMP JUMPDEST JUMPDEST DUP3 CALLDATALOAD SWAP1 POP PUSH8 0xFFFFFFFFFFFFFFFF DUP2 GT ISZERO PUSH2 0x42FE JUMPI PUSH2 0x42FD PUSH2 0x42C4 JUMP JUMPDEST JUMPDEST PUSH1 0x20 DUP4 ADD SWAP2 POP DUP4 PUSH1 0x1 DUP3 MUL DUP4 ADD GT ISZERO PUSH2 0x431A JUMPI PUSH2 0x4319 PUSH2 0x42C8 JUMP JUMPDEST JUMPDEST SWAP3 POP SWAP3 SWAP1 POP JUMP JUMPDEST PUSH0 PUSH0 PUSH0 PUSH1 0x40 DUP5 DUP7 SUB SLT ISZERO PUSH2 0x4338 JUMPI PUSH2 0x4337 PUSH2 0x425E JUMP JUMPDEST JUMPDEST PUSH0 PUSH2 0x4345 DUP7 DUP3 DUP8 ADD PUSH2 0x42AC JUMP JUMPDEST SWAP4 POP POP PUSH1 0x20 DUP5 ADD CALLDATALOAD PUSH8 0xFFFFFFFFFFFFFFFF DUP2 GT ISZERO PUSH2 0x4366 JUMPI PUSH2 0x4365 PUSH2 0x4262 JUMP JUMPDEST JUMPDEST PUSH2 0x4372 DUP7 DUP3 DUP8 ADD PUSH2 0x42CC JUMP JUMPDEST SWAP3 POP SWAP3 POP POP SWAP3 POP SWAP3 POP SWAP3 JUMP JUMPDEST PUSH0 DUP2 ISZERO ISZERO SWAP1 POP SWAP2 SWAP1 POP JUMP JUMPDEST PUSH2 0x4392 DUP2 PUSH2 0x437E JUMP JUMPDEST DUP3 MSTORE POP POP JUMP JUMPDEST PUSH0 PUSH1 0x20 DUP3 ADD SWAP1 POP PUSH2 0x43AB PUSH0 DUP4 ADD DUP5 PUSH2 0x4389 JUMP JUMPDEST SWAP3 SWAP2 POP POP JUMP JUMPDEST PUSH2 0x43BA DUP2 PUSH2 0x4229 JUMP JUMPDEST DUP2 EQ PUSH2 0x43C4 JUMPI PUSH0 PUSH0 REVERT JUMPDEST POP JUMP JUMPDEST PUSH0 DUP2 CALLDATALOAD SWAP1 POP PUSH2 0x43D5 DUP2 PUSH2 0x43B1 JUMP JUMPDEST SWAP3 SWAP2 POP POP JUMP JUMPDEST PUSH0 PUSH1 0x20 DUP3 DUP5 SUB SLT ISZERO PUSH2 0x43F0 JUMPI PUSH2 0x43EF PUSH2 0x425E JUMP JUMPDEST JUMPDEST PUSH0 PUSH2 0x43FD DUP5 DUP3 DUP6 ADD PUSH2 0x43C7 JUMP JUMPDEST SWAP2 POP POP SWAP3 SWAP2 POP POP JUMP JUMPDEST PUSH0 DUP2 SWAP1 POP SWAP2 SWAP1 POP JUMP JUMPDEST PUSH2 0x4418 DUP2 PUSH2 0x4406 JUMP JUMPDEST DUP3 MSTORE POP POP JUMP JUMPDEST PUSH0 PUSH1 0x20 DUP3 ADD SWAP1 POP PUSH2 0x4431 PUSH0 DUP4 ADD DUP5 PUSH2 0x440F JUMP JUMPDEST SWAP3 SWAP2 POP POP JUMP JUMPDEST PUSH2 0x4440 DUP2 PUSH2 0x4406 JUMP JUMPDEST DUP2 EQ PUSH2 0x444A JUMPI PUSH0 PUSH0 REVERT JUMPDEST POP JUMP JUMPDEST PUSH0 DUP2 CALLDATALOAD SWAP1 POP PUSH2 0x445B DUP2 PUSH2 0x4437 JUMP JUMPDEST SWAP3 SWAP2 POP POP JUMP JUMPDEST PUSH0 PUSH1 0x20 DUP3 DUP5 SUB SLT ISZERO PUSH2 0x4476 JUMPI PUSH2 0x4475 PUSH2 0x425E JUMP JUMPDEST JUMPDEST PUSH0 PUSH2 0x4483 DUP5 DUP3 DUP6 ADD PUSH2 0x444D JUMP JUMPDEST SWAP2 POP POP SWAP3 SWAP2 POP POP JUMP JUMPDEST PUSH0 PUSH1 0x20 DUP3 DUP5 SUB SLT ISZERO PUSH2 0x44A1 JUMPI PUSH2 0x44A0 PUSH2 0x425E JUMP JUMPDEST JUMPDEST PUSH0 PUSH2 0x44AE DUP5 DUP3 DUP6 ADD PUSH2 0x42AC JUMP JUMPDEST SWAP2 POP POP SWAP3 SWAP2 POP POP JUMP JUMPDEST PUSH0 PUSH2 0x44C1 DUP3 PUSH2 0x4266 JUMP JUMPDEST SWAP1 POP SWAP2 SWAP1 POP JUMP JUMPDEST PUSH2 0x44D1 DUP2 PUSH2 0x44B7 JUMP JUMPDEST DUP2 EQ PUSH2 0x44DB JUMPI PUSH0 PUSH0 REVERT JUMPDEST POP JUMP JUMPDEST PUSH0 DUP2 CALLDATALOAD SWAP1 POP PUSH2 0x44EC DUP2 PUSH2 0x44C8 JUMP JUMPDEST SWAP3 SWAP2 POP POP JUMP JUMPDEST PUSH0 PUSH1 0x20 DUP3 DUP5 SUB SLT ISZERO PUSH2 0x4507 JUMPI PUSH2 0x4506 PUSH2 0x425E JUMP JUMPDEST JUMPDEST PUSH0 PUSH2 0x4514 DUP5 DUP3 DUP6 ADD PUSH2 0x44DE JUMP JUMPDEST SWAP2 POP POP SWAP3 SWAP2 POP POP JUMP JUMPDEST PUSH2 0x4526 DUP2 PUSH2 0x4285 JUMP JUMPDEST DUP3 MSTORE POP POP JUMP JUMPDEST PUSH0 PUSH2 0x140 DUP3 ADD SWAP1 POP PUSH2 0x4540 PUSH0 DUP4 ADD DUP14 PUSH2 0x451D JUMP JUMPDEST PUSH2 0x454D PUSH1 0x20 DUP4 ADD DUP13 PUSH2 0x440F JUMP JUMPDEST PUSH2 0x455A PUSH1 0x40 DUP4 ADD DUP12 PUSH2 0x440F JUMP JUMPDEST PUSH2 0x4567 PUSH1 0x60 DUP4 ADD DUP11 PUSH2 0x440F JUMP JUMPDEST PUSH2 0x4574 PUSH1 0x80 DUP4 ADD DUP10 PUSH2 0x440F JUMP JUMPDEST PUSH2 0x4581 PUSH1 0xA0 DUP4 ADD DUP9 PUSH2 0x440F JUMP JUMPDEST PUSH2 0x458E PUSH1 0xC0 DUP4 ADD DUP8 PUSH2 0x440F JUMP JUMPDEST PUSH2 0x459B PUSH1 0xE0 DUP4 ADD DUP7 PUSH2 0x440F JUMP JUMPDEST PUSH2 0x45A9 PUSH2 0x100 DUP4 ADD DUP6 PUSH2 0x4389 JUMP JUMPDEST PUSH2 0x45B7 PUSH2 0x120 DUP4 ADD DUP5 PUSH2 0x4389 JUMP JUMPDEST SWAP12 SWAP11 POP POP POP POP POP POP POP POP POP POP POP JUMP JUMPDEST PUSH0 PUSH0 PUSH1 0x40 DUP4 DUP6 SUB SLT ISZERO PUSH2 0x45DC JUMPI PUSH2 0x45DB PUSH2 0x425E JUMP JUMPDEST JUMPDEST PUSH0 PUSH2 0x45E9 DUP6 DUP3 DUP7 ADD PUSH2 0x444D JUMP JUMPDEST SWAP3 POP POP PUSH1 0x20 PUSH2 0x45FA DUP6 DUP3 DUP7 ADD PUSH2 0x444D JUMP JUMPDEST SWAP2 POP POP SWAP3 POP SWAP3 SWAP1 POP JUMP JUMPDEST PUSH0 DUP2 SWAP1 POP SWAP3 SWAP2 POP POP JUMP JUMPDEST DUP3 DUP2 DUP4 CALLDATACOPY PUSH0 DUP4 DUP4 ADD MSTORE POP POP POP JUMP JUMPDEST PUSH0 PUSH2 0x4627 DUP4 DUP6 PUSH2 0x4604 JUMP JUMPDEST SWAP4 POP PUSH2 0x4634 DUP4 DUP6 DUP5 PUSH2 0x460E JUMP JUMPDEST DUP3 DUP5 ADD SWAP1 POP SWAP4 SWAP3 POP POP POP JUMP JUMPDEST PUSH0 PUSH2 0x464C DUP3 DUP5 DUP7 PUSH2 0x461C JUMP JUMPDEST SWAP2 POP DUP2 SWAP1 POP SWAP4 SWAP3 POP POP POP JUMP JUMPDEST PUSH32 0x41646D696E000000000000000000000000000000000000000000000000000000 PUSH0 DUP3 ADD MSTORE POP JUMP JUMPDEST PUSH0 PUSH2 0x468C PUSH1 0x5 DUP4 PUSH2 0x4604 JUMP JUMPDEST SWAP2 POP PUSH2 0x4697 DUP3 PUSH2 0x4658 JUMP JUMPDEST PUSH1 0x5 DUP3 ADD SWAP1 POP SWAP2 SWAP1 POP JUMP JUMPDEST PUSH0 PUSH2 0x46AC DUP3 PUSH2 0x4680 JUMP JUMPDEST SWAP2 POP DUP2 SWAP1 POP SWAP2 SWAP1 POP JUMP JUMPDEST PUSH0 DUP3 DUP3 MSTORE PUSH1 0x20 DUP3 ADD SWAP1 POP SWAP3 SWAP2 POP POP JUMP JUMPDEST PUSH32 0x456D706C6F79656541737369676E6D656E743A2063616C6C6572206973206E6F PUSH0 DUP3 ADD MSTORE PUSH32 0x7420616E2061646D696E00000000000000000000000000000000000000000000 PUSH1 0x20 DUP3 ADD MSTORE POP JUMP JUMPDEST PUSH0 PUSH2 0x4720 PUSH1 0x2A DUP4 PUSH2 0x46B6 JUMP JUMPDEST SWAP2 POP PUSH2 0x472B DUP3 PUSH2 0x46C6 JUMP JUMPDEST PUSH1 0x40 DUP3 ADD SWAP1 POP SWAP2 SWAP1 POP JUMP JUMPDEST PUSH0 PUSH1 0x20 DUP3 ADD SWAP1 POP DUP2 DUP2 SUB PUSH0 DUP4 ADD MSTORE PUSH2 0x474D DUP2 PUSH2 0x4714 JUMP JUMPDEST SWAP1 POP SWAP2 SWAP1 POP JUMP JUMPDEST PUSH32 0x6E6F2070726F6669747300000000000000000000000000000000000000000000 PUSH0 DUP3 ADD MSTORE POP JUMP JUMPDEST PUSH0 PUSH2 0x4788 PUSH1 0xA DUP4 PUSH2 0x46B6 JUMP JUMPDEST SWAP2 POP PUSH2 0x4793 DUP3 PUSH2 0x4754 JUMP JUMPDEST PUSH1 0x20 DUP3 ADD SWAP1 POP SWAP2 SWAP1 POP JUMP JUMPDEST PUSH0 PUSH1 0x20 DUP3 ADD SWAP1 POP DUP2 DUP2 SUB PUSH0 DUP4 ADD MSTORE PUSH2 0x47B5 DUP2 PUSH2 0x477C JUMP JUMPDEST SWAP1 POP SWAP2 SWAP1 POP JUMP JUMPDEST PUSH0 DUP2 SWAP1 POP SWAP3 SWAP2 POP POP JUMP JUMPDEST POP JUMP JUMPDEST PUSH0 PUSH2 0x47D4 PUSH0 DUP4 PUSH2 0x47BC JUMP JUMPDEST SWAP2 POP PUSH2 0x47DF DUP3 PUSH2 0x47C6 JUMP JUMPDEST PUSH0 DUP3 ADD SWAP1 POP SWAP2 SWAP1 POP JUMP JUMPDEST PUSH0 PUSH2 0x47F3 DUP3 PUSH2 0x47C9 JUMP JUMPDEST SWAP2 POP DUP2 SWAP1 POP SWAP2 SWAP1 POP JUMP JUMPDEST PUSH32 0x7472616E73666572206661696C65640000000000000000000000000000000000 PUSH0 DUP3 ADD MSTORE POP JUMP JUMPDEST PUSH0 PUSH2 0x4831 PUSH1 0xF DUP4 PUSH2 0x46B6 JUMP JUMPDEST SWAP2 POP PUSH2 0x483C DUP3 PUSH2 0x47FD JUMP JUMPDEST PUSH1 0x20 DUP3 ADD SWAP1 POP SWAP2 SWAP1 POP JUMP JUMPDEST PUSH0 PUSH1 0x20 DUP3 ADD SWAP1 POP DUP2 DUP2 SUB PUSH0 DUP4 ADD MSTORE PUSH2 0x485E DUP2 PUSH2 0x4825 JUMP JUMPDEST SWAP1 POP SWAP2 SWAP1 POP JUMP JUMPDEST PUSH32 0x496E74657265737420746F6F20686967683A206D617820323025000000000000 PUSH0 DUP3 ADD MSTORE POP JUMP JUMPDEST PUSH0 PUSH2 0x4899 PUSH1 0x1A DUP4 PUSH2 0x46B6 JUMP JUMPDEST SWAP2 POP PUSH2 0x48A4 DUP3 PUSH2 0x4865 JUMP JUMPDEST PUSH1 0x20 DUP3 ADD SWAP1 POP SWAP2 SWAP1 POP JUMP JUMPDEST PUSH0 PUSH1 0x20 DUP3 ADD SWAP1 POP DUP2 DUP2 SUB PUSH0 DUP4 ADD MSTORE PUSH2 0x48C6 DUP2 PUSH2 0x488D JUMP JUMPDEST SWAP1 POP SWAP2 SWAP1 POP JUMP JUMPDEST PUSH32 0x496E7465726573742063616E6E6F74206265207A65726F000000000000000000 PUSH0 DUP3 ADD MSTORE POP JUMP JUMPDEST PUSH0 PUSH2 0x4901 PUSH1 0x17 DUP4 PUSH2 0x46B6 JUMP JUMPDEST SWAP2 POP PUSH2 0x490C DUP3 PUSH2 0x48CD JUMP JUMPDEST PUSH1 0x20 DUP3 ADD SWAP1 POP SWAP2 SWAP1 POP JUMP JUMPDEST PUSH0 PUSH1 0x20 DUP3 ADD SWAP1 POP DUP2 DUP2 SUB PUSH0 DUP4 ADD MSTORE PUSH2 0x492E DUP2 PUSH2 0x48F5 JUMP JUMPDEST SWAP1 POP SWAP2 SWAP1 POP JUMP JUMPDEST PUSH0 DUP2 SWAP1 POP SWAP2 SWAP1 POP JUMP JUMPDEST PUSH0 PUSH2 0x4958 PUSH2 0x4953 PUSH2 0x494E DUP5 PUSH2 0x4229 JUMP JUMPDEST PUSH2 0x4935 JUMP JUMPDEST PUSH2 0x4406 JUMP JUMPDEST SWAP1 POP SWAP2 SWAP1 POP JUMP JUMPDEST PUSH2 0x4968 DUP2 PUSH2 0x493E JUMP JUMPDEST DUP3 MSTORE POP POP JUMP JUMPDEST PUSH0 PUSH1 0x40 DUP3 ADD SWAP1 POP PUSH2 0x4981 PUSH0 DUP4 ADD DUP6 PUSH2 0x440F JUMP JUMPDEST PUSH2 0x498E PUSH1 0x20 DUP4 ADD DUP5 PUSH2 0x495F JUMP JUMPDEST SWAP4 SWAP3 POP POP POP JUMP JUMPDEST PUSH32 0x456D706C6F79656541737369676E6D656E743A2063616C6C6572206973206E6F PUSH0 DUP3 ADD MSTORE PUSH32 0x7420746865206F776E6572000000000000000000000000000000000000000000 PUSH1 0x20 DUP3 ADD MSTORE POP JUMP JUMPDEST PUSH0 PUSH2 0x49EF PUSH1 0x2B DUP4 PUSH2 0x46B6 JUMP JUMPDEST SWAP2 POP PUSH2 0x49FA DUP3 PUSH2 0x4995 JUMP JUMPDEST PUSH1 0x40 DUP3 ADD SWAP1 POP SWAP2 SWAP1 POP JUMP JUMPDEST PUSH0 PUSH1 0x20 DUP3 ADD SWAP1 POP DUP2 DUP2 SUB PUSH0 DUP4 ADD MSTORE PUSH2 0x4A1C DUP2 PUSH2 0x49E3 JUMP JUMPDEST SWAP1 POP SWAP2 SWAP1 POP JUMP JUMPDEST PUSH0 PUSH2 0x4A2E DUP4 DUP6 PUSH2 0x47BC JUMP JUMPDEST SWAP4 POP PUSH2 0x4A3B DUP4 DUP6 DUP5 PUSH2 0x460E JUMP JUMPDEST DUP3 DUP5 ADD SWAP1 POP SWAP4 SWAP3 POP POP POP JUMP JUMPDEST PUSH0 PUSH2 0x4A53 DUP3 DUP5 DUP7 PUSH2 0x4A23 JUMP JUMPDEST SWAP2 POP DUP2 SWAP1 POP SWAP4 SWAP3 POP POP POP JUMP JUMPDEST PUSH32 0x456D706C6F79656541737369676E6D656E743A20696E76616C696420726F6C65 PUSH0 DUP3 ADD MSTORE POP JUMP JUMPDEST PUSH0 PUSH2 0x4A93 PUSH1 0x20 DUP4 PUSH2 0x46B6 JUMP JUMPDEST SWAP2 POP PUSH2 0x4A9E DUP3 PUSH2 0x4A5F JUMP JUMPDEST PUSH1 0x20 DUP3 ADD SWAP1 POP SWAP2 SWAP1 POP JUMP JUMPDEST PUSH0 PUSH1 0x20 DUP3 ADD SWAP1 POP DUP2 DUP2 SUB PUSH0 DUP4 ADD MSTORE PUSH2 0x4AC0 DUP2 PUSH2 0x4A87 JUMP JUMPDEST SWAP1 POP SWAP2 SWAP1 POP JUMP JUMPDEST PUSH32 0x456D706C6F79656541737369676E6D656E743A20656D706C6F79656520646F65 PUSH0 DUP3 ADD MSTORE PUSH32 0x73206E6F742068617665207468697320726F6C65000000000000000000000000 PUSH1 0x20 DUP3 ADD MSTORE POP JUMP JUMPDEST PUSH0 PUSH2 0x4B21 PUSH1 0x34 DUP4 PUSH2 0x46B6 JUMP JUMPDEST SWAP2 POP PUSH2 0x4B2C DUP3 PUSH2 0x4AC7 JUMP JUMPDEST PUSH1 0x40 DUP3 ADD SWAP1 POP SWAP2 SWAP1 POP JUMP JUMPDEST PUSH0 PUSH1 0x20 DUP3 ADD SWAP1 POP DUP2 DUP2 SUB PUSH0 DUP4 ADD MSTORE PUSH2 0x4B4E DUP2 PUSH2 0x4B15 JUMP JUMPDEST SWAP1 POP SWAP2 SWAP1 POP JUMP JUMPDEST PUSH32 0x4E487B7100000000000000000000000000000000000000000000000000000000 PUSH0 MSTORE PUSH1 0x11 PUSH1 0x4 MSTORE PUSH1 0x24 PUSH0 REVERT JUMPDEST PUSH0 PUSH2 0x4B8C DUP3 PUSH2 0x4406 JUMP JUMPDEST SWAP2 POP PUSH0 DUP3 SUB PUSH2 0x4B9E JUMPI PUSH2 0x4B9D PUSH2 0x4B55 JUMP JUMPDEST JUMPDEST PUSH1 0x1 DUP3 SUB SWAP1 POP SWAP2 SWAP1 POP JUMP JUMPDEST PUSH0 PUSH1 0x1F NOT PUSH1 0x1F DUP4 ADD AND SWAP1 POP SWAP2 SWAP1 POP JUMP JUMPDEST PUSH0 PUSH2 0x4BC4 DUP4 DUP6 PUSH2 0x46B6 JUMP JUMPDEST SWAP4 POP PUSH2 0x4BD1 DUP4 DUP6 DUP5 PUSH2 0x460E JUMP JUMPDEST PUSH2 0x4BDA DUP4 PUSH2 0x4BA9 JUMP JUMPDEST DUP5 ADD SWAP1 POP SWAP4 SWAP3 POP POP POP JUMP JUMPDEST PUSH0 PUSH1 0x20 DUP3 ADD SWAP1 POP DUP2 DUP2 SUB PUSH0 DUP4 ADD MSTORE PUSH2 0x4BFE DUP2 DUP5 DUP7 PUSH2 0x4BB9 JUMP JUMPDEST SWAP1 POP SWAP4 SWAP3 POP POP POP JUMP JUMPDEST PUSH32 0x456D706C6F79656541737369676E6D656E743A2063616C6C657220697320616E PUSH0 DUP3 ADD MSTORE PUSH32 0x2061646D696E0000000000000000000000000000000000000000000000000000 PUSH1 0x20 DUP3 ADD MSTORE POP JUMP JUMPDEST PUSH0 PUSH2 0x4C61 PUSH1 0x26 DUP4 PUSH2 0x46B6 JUMP JUMPDEST SWAP2 POP PUSH2 0x4C6C DUP3 PUSH2 0x4C07 JUMP JUMPDEST PUSH1 0x40 DUP3 ADD SWAP1 POP SWAP2 SWAP1 POP JUMP JUMPDEST PUSH0 PUSH1 0x20 DUP3 ADD SWAP1 POP DUP2 DUP2 SUB PUSH0 DUP4 ADD MSTORE PUSH2 0x4C8E DUP2 PUSH2 0x4C55 JUMP JUMPDEST SWAP1 POP SWAP2 SWAP1 POP JUMP JUMPDEST PUSH32 0x456D706C6F79656541737369676E6D656E743A2063616C6C6572206973207468 PUSH0 DUP3 ADD MSTORE PUSH32 0x65206F776E657200000000000000000000000000000000000000000000000000 PUSH1 0x20 DUP3 ADD MSTORE POP JUMP JUMPDEST PUSH0 PUSH2 0x4CEF PUSH1 0x27 DUP4 PUSH2 0x46B6 JUMP JUMPDEST SWAP2 POP PUSH2 0x4CFA DUP3 PUSH2 0x4C95 JUMP JUMPDEST PUSH1 0x40 DUP3 ADD SWAP1 POP SWAP2 SWAP1 POP JUMP JUMPDEST PUSH0 PUSH1 0x20 DUP3 ADD SWAP1 POP DUP2 DUP2 SUB PUSH0 DUP4 ADD MSTORE PUSH2 0x4D1C DUP2 PUSH2 0x4CE3 JUMP JUMPDEST SWAP1 POP SWAP2 SWAP1 POP JUMP JUMPDEST PUSH32 0x4E487B7100000000000000000000000000000000000000000000000000000000 PUSH0 MSTORE PUSH1 0x32 PUSH1 0x4 MSTORE PUSH1 0x24 PUSH0 REVERT JUMPDEST PUSH0 PUSH2 0x4D5A DUP3 PUSH2 0x4406 JUMP JUMPDEST SWAP2 POP PUSH2 0x4D65 DUP4 PUSH2 0x4406 JUMP JUMPDEST SWAP3 POP DUP3 DUP3 SUB SWAP1 POP DUP2 DUP2 GT ISZERO PUSH2 0x4D7D JUMPI PUSH2 0x4D7C PUSH2 0x4B55 JUMP JUMPDEST JUMPDEST SWAP3 SWAP2 POP POP JUMP JUMPDEST PUSH0 PUSH2 0x4D8D DUP3 PUSH2 0x4406 JUMP JUMPDEST SWAP2 POP PUSH2 0x4D98 DUP4 PUSH2 0x4406 JUMP JUMPDEST SWAP3 POP DUP3 DUP3 ADD SWAP1 POP DUP1 DUP3 GT ISZERO PUSH2 0x4DB0 JUMPI PUSH2 0x4DAF PUSH2 0x4B55 JUMP JUMPDEST JUMPDEST SWAP3 SWAP2 POP POP JUMP JUMPDEST PUSH32 0x63616E6E6F742072656A656374206163746976652F6C69717569646174656400 PUSH0 DUP3 ADD MSTORE POP JUMP JUMPDEST PUSH0 PUSH2 0x4DEA PUSH1 0x1F DUP4 PUSH2 0x46B6 JUMP JUMPDEST SWAP2 POP PUSH2 0x4DF5 DUP3 PUSH2 0x4DB6 JUMP JUMPDEST PUSH1 0x20 DUP3 ADD SWAP1 POP SWAP2 SWAP1 POP JUMP JUMPDEST PUSH0 PUSH1 0x20 DUP3 ADD SWAP1 POP DUP2 DUP2 SUB PUSH0 DUP4 ADD MSTORE PUSH2 0x4E17 DUP2 PUSH2 0x4DDE JUMP JUMPDEST SWAP1 POP SWAP2 SWAP1 POP JUMP JUMPDEST PUSH32 0x726566756E64206661696C656400000000000000000000000000000000000000 PUSH0 DUP3 ADD MSTORE POP JUMP JUMPDEST PUSH0 PUSH2 0x4E52 PUSH1 0xD DUP4 PUSH2 0x46B6 JUMP JUMPDEST SWAP2 POP PUSH2 0x4E5D DUP3 PUSH2 0x4E1E JUMP JUMPDEST PUSH1 0x20 DUP3 ADD SWAP1 POP SWAP2 SWAP1 POP JUMP JUMPDEST PUSH0 PUSH1 0x20 DUP3 ADD SWAP1 POP DUP2 DUP2 SUB PUSH0 DUP4 ADD MSTORE PUSH2 0x4E7F DUP2 PUSH2 0x4E46 JUMP JUMPDEST SWAP1 POP SWAP2 SWAP1 POP JUMP JUMPDEST PUSH0 DUP2 SWAP1 POP SWAP2 SWAP1 POP JUMP JUMPDEST PUSH0 PUSH2 0x4EA9 PUSH2 0x4EA4 PUSH2 0x4E9F DUP5 PUSH2 0x4E86 JUMP JUMPDEST PUSH2 0x4935 JUMP JUMPDEST PUSH2 0x4406 JUMP JUMPDEST SWAP1 POP SWAP2 SWAP1 POP JUMP JUMPDEST PUSH2 0x4EB9 DUP2 PUSH2 0x4E8F JUMP JUMPDEST DUP3 MSTORE POP POP JUMP JUMPDEST PUSH0 PUSH1 0x60 DUP3 ADD SWAP1 POP PUSH2 0x4ED2 PUSH0 DUP4 ADD DUP7 PUSH2 0x440F JUMP JUMPDEST PUSH2 0x4EDF PUSH1 0x20 DUP4 ADD DUP6 PUSH2 0x4EB0 JUMP JUMPDEST PUSH2 0x4EEC PUSH1 0x40 DUP4 ADD DUP5 PUSH2 0x4EB0 JUMP JUMPDEST SWAP5 SWAP4 POP POP POP POP JUMP JUMPDEST PUSH32 0x41646472657373206973206E6F7420626C61636B6C6973746564000000000000 PUSH0 DUP3 ADD MSTORE POP JUMP JUMPDEST PUSH0 PUSH2 0x4F28 PUSH1 0x1A DUP4 PUSH2 0x46B6 JUMP JUMPDEST SWAP2 POP PUSH2 0x4F33 DUP3 PUSH2 0x4EF4 JUMP JUMPDEST PUSH1 0x20 DUP3 ADD SWAP1 POP SWAP2 SWAP1 POP JUMP JUMPDEST PUSH0 PUSH1 0x20 DUP3 ADD SWAP1 POP DUP2 DUP2 SUB PUSH0 DUP4 ADD MSTORE PUSH2 0x4F55 DUP2 PUSH2 0x4F1C JUMP JUMPDEST SWAP1 POP SWAP2 SWAP1 POP JUMP JUMPDEST PUSH32 0x43616E6E6F7420736574207A65726F2061646472657373000000000000000000 PUSH0 DUP3 ADD MSTORE POP JUMP JUMPDEST PUSH0 PUSH2 0x4F90 PUSH1 0x17 DUP4 PUSH2 0x46B6 JUMP JUMPDEST SWAP2 POP PUSH2 0x4F9B DUP3 PUSH2 0x4F5C JUMP JUMPDEST PUSH1 0x20 DUP3 ADD SWAP1 POP SWAP2 SWAP1 POP JUMP JUMPDEST PUSH0 PUSH1 0x20 DUP3 ADD SWAP1 POP DUP2 DUP2 SUB PUSH0 DUP4 ADD MSTORE PUSH2 0x4FBD DUP2 PUSH2 0x4F84 JUMP JUMPDEST SWAP1 POP SWAP2 SWAP1 POP JUMP JUMPDEST PUSH32 0x43616E6E6F742073657420636F6E747261637420697473656C66000000000000 PUSH0 DUP3 ADD MSTORE POP JUMP JUMPDEST PUSH0 PUSH2 0x4FF8 PUSH1 0x1A DUP4 PUSH2 0x46B6 JUMP JUMPDEST SWAP2 POP PUSH2 0x5003 DUP3 PUSH2 0x4FC4 JUMP JUMPDEST PUSH1 0x20 DUP3 ADD SWAP1 POP SWAP2 SWAP1 POP JUMP JUMPDEST PUSH0 PUSH1 0x20 DUP3 ADD SWAP1 POP DUP2 DUP2 SUB PUSH0 DUP4 ADD MSTORE PUSH2 0x5025 DUP2 PUSH2 0x4FEC JUMP JUMPDEST SWAP1 POP SWAP2 SWAP1 POP JUMP JUMPDEST PUSH0 PUSH2 0x5046 PUSH2 0x5041 PUSH2 0x503C DUP5 PUSH2 0x4266 JUMP JUMPDEST PUSH2 0x4935 JUMP JUMPDEST PUSH2 0x4266 JUMP JUMPDEST SWAP1 POP SWAP2 SWAP1 POP JUMP JUMPDEST PUSH0 PUSH2 0x5057 DUP3 PUSH2 0x502C JUMP JUMPDEST SWAP1 POP SWAP2 SWAP1 POP JUMP JUMPDEST PUSH0 PUSH2 0x5068 DUP3 PUSH2 0x504D JUMP JUMPDEST SWAP1 POP SWAP2 SWAP1 POP JUMP JUMPDEST PUSH2 0x5078 DUP2 PUSH2 0x505E JUMP JUMPDEST DUP3 MSTORE POP POP JUMP JUMPDEST PUSH0 PUSH1 0x40 DUP3 ADD SWAP1 POP PUSH2 0x5091 PUSH0 DUP4 ADD DUP6 PUSH2 0x451D JUMP JUMPDEST PUSH2 0x509E PUSH1 0x20 DUP4 ADD DUP5 PUSH2 0x506F JUMP JUMPDEST SWAP4 SWAP3 POP POP POP JUMP JUMPDEST PUSH32 0x436F6C6C61746572616C20726174696F20746F6F206C6F770000000000000000 PUSH0 DUP3 ADD MSTORE POP JUMP JUMPDEST PUSH0 PUSH2 0x50D9 PUSH1 0x18 DUP4 PUSH2 0x46B6 JUMP JUMPDEST SWAP2 POP PUSH2 0x50E4 DUP3 PUSH2 0x50A5 JUMP JUMPDEST PUSH1 0x20 DUP3 ADD SWAP1 POP SWAP2 SWAP1 POP JUMP JUMPDEST PUSH0 PUSH1 0x20 DUP3 ADD SWAP1 POP DUP2 DUP2 SUB PUSH0 DUP4 ADD MSTORE PUSH2 0x5106 DUP2 PUSH2 0x50CD JUMP JUMPDEST SWAP1 POP SWAP2 SWAP1 POP JUMP JUMPDEST PUSH32 0x436F6C6C61746572616C20726174696F20746F6F20686967683A206D61782033 PUSH0 DUP3 ADD MSTORE PUSH32 0x3030250000000000000000000000000000000000000000000000000000000000 PUSH1 0x20 DUP3 ADD MSTORE POP JUMP JUMPDEST PUSH0 PUSH2 0x5167 PUSH1 0x23 DUP4 PUSH2 0x46B6 JUMP JUMPDEST SWAP2 POP PUSH2 0x5172 DUP3 PUSH2 0x510D JUMP JUMPDEST PUSH1 0x40 DUP3 ADD SWAP1 POP SWAP2 SWAP1 POP JUMP JUMPDEST PUSH0 PUSH1 0x20 DUP3 ADD SWAP1 POP DUP2 DUP2 SUB PUSH0 DUP4 ADD MSTORE PUSH2 0x5194 DUP2 PUSH2 0x515B JUMP JUMPDEST SWAP1 POP SWAP2 SWAP1 POP JUMP JUMPDEST PUSH32 0x456D706C6F79656541737369676E6D656E743A20656D706C6F7965652063616E PUSH0 DUP3 ADD MSTORE PUSH32 0x6E6F74206265207A65726F206164647265737300000000000000000000000000 PUSH1 0x20 DUP3 ADD MSTORE POP JUMP JUMPDEST PUSH0 PUSH2 0x51F5 PUSH1 0x33 DUP4 PUSH2 0x46B6 JUMP JUMPDEST SWAP2 POP PUSH2 0x5200 DUP3 PUSH2 0x519B JUMP JUMPDEST PUSH1 0x40 DUP3 ADD SWAP1 POP SWAP2 SWAP1 POP JUMP JUMPDEST PUSH0 PUSH1 0x20 DUP3 ADD SWAP1 POP DUP2 DUP2 SUB PUSH0 DUP4 ADD MSTORE PUSH2 0x5222 DUP2 PUSH2 0x51E9 JUMP JUMPDEST SWAP1 POP SWAP2 SWAP1 POP JUMP JUMPDEST PUSH32 0x456D706C6F79656541737369676E6D656E743A20656D706C6F79656520616C72 PUSH0 DUP3 ADD MSTORE PUSH32 0x6561647920686173207468697320726F6C650000000000000000000000000000 PUSH1 0x20 DUP3 ADD MSTORE POP JUMP JUMPDEST PUSH0 PUSH2 0x5283 PUSH1 0x32 DUP4 PUSH2 0x46B6 JUMP JUMPDEST SWAP2 POP PUSH2 0x528E DUP3 PUSH2 0x5229 JUMP JUMPDEST PUSH1 0x40 DUP3 ADD SWAP1 POP SWAP2 SWAP1 POP JUMP JUMPDEST PUSH0 PUSH1 0x20 DUP3 ADD SWAP1 POP DUP2 DUP2 SUB PUSH0 DUP4 ADD MSTORE PUSH2 0x52B0 DUP2 PUSH2 0x5277 JUMP JUMPDEST SWAP1 POP SWAP2 SWAP1 POP JUMP JUMPDEST PUSH0 PUSH2 0x52C1 DUP3 PUSH2 0x4406 JUMP JUMPDEST SWAP2 POP PUSH32 0xFFFFFFFFFFFFFFFFFFFFFFFFFFFFFFFFFFFFFFFFFFFFFFFFFFFFFFFFFFFFFFFF DUP3 SUB PUSH2 0x52F3 JUMPI PUSH2 0x52F2 PUSH2 0x4B55 JUMP JUMPDEST JUMPDEST PUSH1 0x1 DUP3 ADD SWAP1 POP SWAP2 SWAP1 POP JUMP JUMPDEST PUSH32 0x626C61636B6C6973746564000000000000000000000000000000000000000000 PUSH0 DUP3 ADD MSTORE POP JUMP JUMPDEST PUSH0 PUSH2 0x5332 PUSH1 0xB DUP4 PUSH2 0x46B6 JUMP JUMPDEST SWAP2 POP PUSH2 0x533D DUP3 PUSH2 0x52FE JUMP JUMPDEST PUSH1 0x20 DUP3 ADD SWAP1 POP SWAP2 SWAP1 POP JUMP JUMPDEST PUSH0 PUSH1 0x20 DUP3 ADD SWAP1 POP DUP2 DUP2 SUB PUSH0 DUP4 ADD MSTORE PUSH2 0x535F DUP2 PUSH2 0x5326 JUMP JUMPDEST SWAP1 POP SWAP2 SWAP1 POP JUMP JUMPDEST PUSH32 0x696E76616C6964207072696E636970616C000000000000000000000000000000 PUSH0 DUP3 ADD MSTORE POP JUMP JUMPDEST PUSH0 PUSH2 0x539A PUSH1 0x11 DUP4 PUSH2 0x46B6 JUMP JUMPDEST SWAP2 POP PUSH2 0x53A5 DUP3 PUSH2 0x5366 JUMP JUMPDEST PUSH1 0x20 DUP3 ADD SWAP1 POP SWAP2 SWAP1 POP JUMP JUMPDEST PUSH0 PUSH1 0x20 DUP3 ADD SWAP1 POP DUP2 DUP2 SUB PUSH0 DUP4 ADD MSTORE PUSH2 0x53C7 DUP2 PUSH2 0x538E JUMP JUMPDEST SWAP1 POP SWAP2 SWAP1 POP JUMP JUMPDEST PUSH32 0x6475726174696F6E206D757374206265203E3D2031206D6F6E74680000000000 PUSH0 DUP3 ADD MSTORE POP JUMP JUMPDEST PUSH0 PUSH2 0x5402 PUSH1 0x1B DUP4 PUSH2 0x46B6 JUMP JUMPDEST SWAP2 POP PUSH2 0x540D DUP3 PUSH2 0x53CE JUMP JUMPDEST PUSH1 0x20 DUP3 ADD SWAP1 POP SWAP2 SWAP1 POP JUMP JUMPDEST PUSH0 PUSH1 0x20 DUP3 ADD SWAP1 POP DUP2 DUP2 SUB PUSH0 DUP4 ADD MSTORE PUSH2 0x542F DUP2 PUSH2 0x53F6 JUMP JUMPDEST SWAP1 POP SWAP2 SWAP1 POP JUMP JUMPDEST PUSH32 0x6E6577206C6F616E7320626C6F636B6564000000000000000000000000000000 PUSH0 DUP3 ADD MSTORE POP JUMP JUMPDEST PUSH0 PUSH2 0x546A PUSH1 0x11 DUP4 PUSH2 0x46B6 JUMP JUMPDEST SWAP2 POP PUSH2 0x5475 DUP3 PUSH2 0x5436 JUMP JUMPDEST PUSH1 0x20 DUP3 ADD SWAP1 POP SWAP2 SWAP1 POP JUMP JUMPDEST PUSH0 PUSH1 0x20 DUP3 ADD SWAP1 POP DUP2 DUP2 SUB PUSH0 DUP4 ADD MSTORE PUSH2 0x5497 DUP2 PUSH2 0x545E JUMP JUMPDEST SWAP1 POP SWAP2 SWAP1 POP JUMP JUMPDEST PUSH0 PUSH2 0x54A8 DUP3 PUSH2 0x4406 JUMP JUMPDEST SWAP2 POP PUSH2 0x54B3 DUP4 PUSH2 0x4406 JUMP JUMPDEST SWAP3 POP DUP3 DUP3 MUL PUSH2 0x54C1 DUP2 PUSH2 0x4406 JUMP JUMPDEST SWAP2 POP DUP3 DUP3 DIV DUP5 EQ DUP4 ISZERO OR PUSH2 0x54D8 JUMPI PUSH2 0x54D7 PUSH2 0x4B55 JUMP JUMPDEST JUMPDEST POP SWAP3 SWAP2 POP POP JUMP JUMPDEST PUSH32 0x4E487B7100000000000000000000000000000000000000000000000000000000 PUSH0 MSTORE PUSH1 0x12 PUSH1 0x4 MSTORE PUSH1 0x24 PUSH0 REVERT JUMPDEST PUSH0 PUSH2 0x5516 DUP3 PUSH2 0x4406 JUMP JUMPDEST SWAP2 POP PUSH2 0x5521 DUP4 PUSH2 0x4406 JUMP JUMPDEST SWAP3 POP DUP3 PUSH2 0x5531 JUMPI PUSH2 0x5530 PUSH2 0x54DF JUMP JUMPDEST JUMPDEST DUP3 DUP3 DIV SWAP1 POP SWAP3 SWAP2 POP POP JUMP JUMPDEST PUSH32 0x696E73756666696369656E7420636F6C6C61746572616C000000000000000000 PUSH0 DUP3 ADD MSTORE POP JUMP JUMPDEST PUSH0 PUSH2 0x5570 PUSH1 0x17 DUP4 PUSH2 0x46B6 JUMP JUMPDEST SWAP2 POP PUSH2 0x557B DUP3 PUSH2 0x553C JUMP JUMPDEST PUSH1 0x20 DUP3 ADD SWAP1 POP SWAP2 SWAP1 POP JUMP JUMPDEST PUSH0 PUSH1 0x20 DUP3 ADD SWAP1 POP DUP2 DUP2 SUB PUSH0 DUP4 ADD MSTORE PUSH2 0x559D DUP2 PUSH2 0x5564 JUMP JUMPDEST SWAP1 POP SWAP2 SWAP1 POP JUMP JUMPDEST PUSH0 PUSH1 0x60 DUP3 ADD SWAP1 POP PUSH2 0x55B7 PUSH0 DUP4 ADD DUP7 PUSH2 0x440F JUMP JUMPDEST PUSH2 0x55C4 PUSH1 0x20 DUP4 ADD DUP6 PUSH2 0x440F JUMP JUMPDEST PUSH2 0x55D1 PUSH1 0x40 DUP4 ADD DUP5 PUSH2 0x440F JUMP JUMPDEST SWAP5 SWAP4 POP POP POP POP JUMP JUMPDEST PUSH32 0x616C7265616479206C6971756964617465640000000000000000000000000000 PUSH0 DUP3 ADD MSTORE POP JUMP JUMPDEST PUSH0 PUSH2 0x560D PUSH1 0x12 DUP4 PUSH2 0x46B6 JUMP JUMPDEST SWAP2 POP PUSH2 0x5618 DUP3 PUSH2 0x55D9 JUMP JUMPDEST PUSH1 0x20 DUP3 ADD SWAP1 POP SWAP2 SWAP1 POP JUMP JUMPDEST PUSH0 PUSH1 0x20 DUP3 ADD SWAP1 POP DUP2 DUP2 SUB PUSH0 DUP4 ADD MSTORE PUSH2 0x563A DUP2 PUSH2 0x5601 JUMP JUMPDEST SWAP1 POP SWAP2 SWAP1 POP JUMP JUMPDEST PUSH32 0x616C726561647920616374697665000000000000000000000000000000000000 PUSH0 DUP3 ADD MSTORE POP JUMP JUMPDEST PUSH0 PUSH2 0x5675 PUSH1 0xE DUP4 PUSH2 0x46B6 JUMP JUMPDEST SWAP2 POP PUSH2 0x5680 DUP3 PUSH2 0x5641 JUMP JUMPDEST PUSH1 0x20 DUP3 ADD SWAP1 POP SWAP2 SWAP1 POP JUMP JUMPDEST PUSH0 PUSH1 0x20 DUP3 ADD SWAP1 POP DUP2 DUP2 SUB PUSH0 DUP4 ADD MSTORE PUSH2 0x56A2 DUP2 PUSH2 0x5669 JUMP JUMPDEST SWAP1 POP SWAP2 SWAP1 POP JUMP JUMPDEST PUSH32 0x636F6E7472616374206C61636B73206C69717569646974790000000000000000 PUSH0 DUP3 ADD MSTORE POP JUMP JUMPDEST PUSH0 PUSH2 0x56DD PUSH1 0x18 DUP4 PUSH2 0x46B6 JUMP JUMPDEST SWAP2 POP PUSH2 0x56E8 DUP3 PUSH2 0x56A9 JUMP JUMPDEST PUSH1 0x20 DUP3 ADD SWAP1 POP SWAP2 SWAP1 POP JUMP JUMPDEST PUSH0 PUSH1 0x20 DUP3 ADD SWAP1 POP DUP2 DUP2 SUB PUSH0 DUP4 ADD MSTORE PUSH2 0x570A DUP2 PUSH2 0x56D1 JUMP JUMPDEST SWAP1 POP SWAP2 SWAP1 POP JUMP JUMPDEST PUSH32 0x6469736275727365206661696C65640000000000000000000000000000000000 PUSH0 DUP3 ADD MSTORE POP JUMP JUMPDEST PUSH0 PUSH2 0x5745 PUSH1 0xF DUP4 PUSH2 0x46B6 JUMP JUMPDEST SWAP2 POP PUSH2 0x5750 DUP3 PUSH2 0x5711 JUMP JUMPDEST PUSH1 0x20 DUP3 ADD SWAP1 POP SWAP2 SWAP1 POP JUMP JUMPDEST PUSH0 PUSH1 0x20 DUP3 ADD SWAP1 POP DUP2 DUP2 SUB PUSH0 DUP4 ADD MSTORE PUSH2 0x5772 DUP2 PUSH2 0x5739 JUMP JUMPDEST SWAP1 POP SWAP2 SWAP1 POP JUMP JUMPDEST PUSH32 0x6C6F616E206E6F7420616374697665206F72206C697175696461746564000000 PUSH0 DUP3 ADD MSTORE POP JUMP JUMPDEST PUSH0 PUSH2 0x57AD PUSH1 0x1D DUP4 PUSH2 0x46B6 JUMP JUMPDEST SWAP2 POP PUSH2 0x57B8 DUP3 PUSH2 0x5779 JUMP JUMPDEST PUSH1 0x20 DUP3 ADD SWAP1 POP SWAP2 SWAP1 POP JUMP JUMPDEST PUSH0 PUSH1 0x20 DUP3 ADD SWAP1 POP DUP2 DUP2 SUB PUSH0 DUP4 ADD MSTORE PUSH2 0x57DA DUP2 PUSH2 0x57A1 JUMP JUMPDEST SWAP1 POP SWAP2 SWAP1 POP JUMP JUMPDEST PUSH32 0x6F6E6C7920626F72726F77657200000000000000000000000000000000000000 PUSH0 DUP3 ADD MSTORE POP JUMP JUMPDEST PUSH0 PUSH2 0x5815 PUSH1 0xD DUP4 PUSH2 0x46B6 JUMP JUMPDEST SWAP2 POP PUSH2 0x5820 DUP3 PUSH2 0x57E1 JUMP JUMPDEST PUSH1 0x20 DUP3 ADD SWAP1 POP SWAP2 SWAP1 POP JUMP JUMPDEST PUSH0 PUSH1 0x20 DUP3 ADD SWAP1 POP DUP2 DUP2 SUB PUSH0 DUP4 ADD MSTORE PUSH2 0x5842 DUP2 PUSH2 0x5809 JUMP JUMPDEST SWAP1 POP SWAP2 SWAP1 POP JUMP JUMPDEST PUSH32 0x6D75737420706179206174206C65617374206F6E65206D6F6E74680000000000 PUSH0 DUP3 ADD MSTORE POP JUMP JUMPDEST PUSH0 PUSH2 0x587D PUSH1 0x1B DUP4 PUSH2 0x46B6 JUMP JUMPDEST SWAP2 POP PUSH2 0x5888 DUP3 PUSH2 0x5849 JUMP JUMPDEST PUSH1 0x20 DUP3 ADD SWAP1 POP SWAP2 SWAP1 POP JUMP JUMPDEST PUSH0 PUSH1 0x20 DUP3 ADD SWAP1 POP DUP2 DUP2 SUB PUSH0 DUP4 ADD MSTORE PUSH2 0x58AA DUP2 PUSH2 0x5871 JUMP JUMPDEST SWAP1 POP SWAP2 SWAP1 POP JUMP JUMPDEST PUSH32 0x657863656564732072656D61696E696E67206D6F6E7468730000000000000000 PUSH0 DUP3 ADD MSTORE POP JUMP JUMPDEST PUSH0 PUSH2 0x58E5 PUSH1 0x18 DUP4 PUSH2 0x46B6 JUMP JUMPDEST SWAP2 POP PUSH2 0x58F0 DUP3 PUSH2 0x58B1 JUMP JUMPDEST PUSH1 0x20 DUP3 ADD SWAP1 POP SWAP2 SWAP1 POP JUMP JUMPDEST PUSH0 PUSH1 0x20 DUP3 ADD SWAP1 POP DUP2 DUP2 SUB PUSH0 DUP4 ADD MSTORE PUSH2 0x5912 DUP2 PUSH2 0x58D9 JUMP JUMPDEST SWAP1 POP SWAP2 SWAP1 POP JUMP JUMPDEST PUSH32 0x6C6F616E20616C72656164792066756C6C792070616964000000000000000000 PUSH0 DUP3 ADD MSTORE POP JUMP JUMPDEST PUSH0 PUSH2 0x594D PUSH1 0x17 DUP4 PUSH2 0x46B6 JUMP JUMPDEST SWAP2 POP PUSH2 0x5958 DUP3 PUSH2 0x5919 JUMP JUMPDEST PUSH1 0x20 DUP3 ADD SWAP1 POP SWAP2 SWAP1 POP JUMP JUMPDEST PUSH0 PUSH1 0x20 DUP3 ADD SWAP1 POP DUP2 DUP2 SUB PUSH0 DUP4 ADD MSTORE PUSH2 0x597A DUP2 PUSH2 0x5941 JUMP JUMPDEST SWAP1 POP SWAP2 SWAP1 POP JUMP JUMPDEST PUSH32 0x6D73672E76616C7565206D69736D6174636820746F74616C207061796D656E74 PUSH0 DUP3 ADD MSTORE PUSH32 0x206E656564656400000000000000000000000000000000000000000000000000 PUSH1 0x20 DUP3 ADD MSTORE POP JUMP JUMPDEST PUSH0 PUSH2 0x59DB PUSH1 0x27 DUP4 PUSH2 0x46B6 JUMP JUMPDEST SWAP2 POP PUSH2 0x59E6 DUP3 PUSH2 0x5981 JUMP JUMPDEST PUSH1 0x40 DUP3 ADD SWAP1 POP SWAP2 SWAP1 POP JUMP JUMPDEST PUSH0 PUSH1 0x20 DUP3 ADD SWAP1 POP DUP2 DUP2 SUB PUSH0 DUP4 ADD MSTORE PUSH2 0x5A08 DUP2 PUSH2 0x59CF JUMP JUMPDEST SWAP1 POP SWAP2 SWAP1 POP JUMP JUMPDEST PUSH0 PUSH1 0x40 DUP3 ADD SWAP1 POP PUSH2 0x5A22 PUSH0 DUP4 ADD DUP6 PUSH2 0x440F JUMP JUMPDEST PUSH2 0x5A2F PUSH1 0x20 DUP4 ADD DUP5 PUSH2 0x440F JUMP JUMPDEST SWAP4 SWAP3 POP POP POP JUMP JUMPDEST PUSH32 0x436F6C61746572616C206661696C656420746F2073656E642021000000000000 PUSH0 DUP3 ADD MSTORE POP JUMP JUMPDEST PUSH0 PUSH2 0x5A6A PUSH1 0x1A DUP4 PUSH2 0x46B6 JUMP JUMPDEST SWAP2 POP PUSH2 0x5A75 DUP3 PUSH2 0x5A36 JUMP JUMPDEST PUSH1 0x20 DUP3 ADD SWAP1 POP SWAP2 SWAP1 POP JUMP JUMPDEST PUSH0 PUSH1 0x20 DUP3 ADD SWAP1 POP DUP2 DUP2 SUB PUSH0 DUP4 ADD MSTORE PUSH2 0x5A97 DUP2 PUSH2 0x5A5E JUMP JUMPDEST SWAP1 POP SWAP2 SWAP1 POP JUMP JUMPDEST PUSH32 0x50656E616C747920746F6F20686967683A206D61782035302500000000000000 PUSH0 DUP3 ADD MSTORE POP JUMP JUMPDEST PUSH0 PUSH2 0x5AD2 PUSH1 0x19 DUP4 PUSH2 0x46B6 JUMP JUMPDEST SWAP2 POP PUSH2 0x5ADD DUP3 PUSH2 0x5A9E JUMP JUMPDEST PUSH1 0x20 DUP3 ADD SWAP1 POP SWAP2 SWAP1 POP JUMP JUMPDEST PUSH0 PUSH1 0x20 DUP3 ADD SWAP1 POP DUP2 DUP2 SUB PUSH0 DUP4 ADD MSTORE PUSH2 0x5AFF DUP2 PUSH2 0x5AC6 JUMP JUMPDEST SWAP1 POP SWAP2 SWAP1 POP JUMP JUMPDEST PUSH32 0x50656E616C747920746F6F206C6F770000000000000000000000000000000000 PUSH0 DUP3 ADD MSTORE POP JUMP JUMPDEST PUSH0 PUSH2 0x5B3A PUSH1 0xF DUP4 PUSH2 0x46B6 JUMP JUMPDEST SWAP2 POP PUSH2 0x5B45 DUP3 PUSH2 0x5B06 JUMP JUMPDEST PUSH1 0x20 DUP3 ADD SWAP1 POP SWAP2 SWAP1 POP JUMP JUMPDEST PUSH0 PUSH1 0x20 DUP3 ADD SWAP1 POP DUP2 DUP2 SUB PUSH0 DUP4 ADD MSTORE PUSH2 0x5B67 DUP2 PUSH2 0x5B2E JUMP JUMPDEST SWAP1 POP SWAP2 SWAP1 POP JUMP JUMPDEST PUSH32 0x4E504C206C696D697420746F6F20686967683A206D6178203530250000000000 PUSH0 DUP3 ADD MSTORE POP JUMP JUMPDEST PUSH0 PUSH2 0x5BA2 PUSH1 0x1B DUP4 PUSH2 0x46B6 JUMP JUMPDEST SWAP2 POP PUSH2 0x5BAD DUP3 PUSH2 0x5B6E JUMP JUMPDEST PUSH1 0x20 DUP3 ADD SWAP1 POP SWAP2 SWAP1 POP JUMP JUMPDEST PUSH0 PUSH1 0x20 DUP3 ADD SWAP1 POP DUP2 DUP2 SUB PUSH0 DUP4 ADD MSTORE PUSH2 0x5BCF DUP2 PUSH2 0x5B96 JUMP JUMPDEST SWAP1 POP SWAP2 SWAP1 POP JUMP JUMPDEST PUSH32 0x5265656E7472616E637947756172643A207265656E7472616E742063616C6C00 PUSH0 DUP3 ADD MSTORE POP JUMP JUMPDEST PUSH0 PUSH2 0x5C0A PUSH1 0x1F DUP4 PUSH2 0x46B6 JUMP JUMPDEST SWAP2 POP PUSH2 0x5C15 DUP3 PUSH2 0x5BD6 JUMP JUMPDEST PUSH1 0x20 DUP3 ADD SWAP1 POP SWAP2 SWAP1 POP JUMP JUMPDEST PUSH0 PUSH1 0x20 DUP3 ADD SWAP1 POP DUP2 DUP2 SUB PUSH0 DUP4 ADD MSTORE PUSH2 0x5C37 DUP2 PUSH2 0x5BFE JUMP JUMPDEST SWAP1 POP SWAP2 SWAP1 POP JUMP JUMPDEST PUSH32 0x456D706C6F79656541737369676E6D656E743A207A65726F2061646472657373 PUSH0 DUP3 ADD MSTORE PUSH32 0x206E6F7420616C6C6F7765640000000000000000000000000000000000000000 PUSH1 0x20 DUP3 ADD MSTORE POP JUMP JUMPDEST PUSH0 PUSH2 0x5C98 PUSH1 0x2C DUP4 PUSH2 0x46B6 JUMP JUMPDEST SWAP2 POP PUSH2 0x5CA3 DUP3 PUSH2 0x5C3E JUMP JUMPDEST PUSH1 0x40 DUP3 ADD SWAP1 POP SWAP2 SWAP1 POP JUMP JUMPDEST PUSH0 PUSH1 0x20 DUP3 ADD SWAP1 POP DUP2 DUP2 SUB PUSH0 DUP4 ADD MSTORE PUSH2 0x5CC5 DUP2 PUSH2 0x5C8C JUMP JUMPDEST SWAP1 POP SWAP2 SWAP1 POP JUMP JUMPDEST PUSH32 0x696E76616C696420496400000000000000000000000000000000000000000000 PUSH0 DUP3 ADD MSTORE POP JUMP JUMPDEST PUSH0 PUSH2 0x5D00 PUSH1 0xA DUP4 PUSH2 0x46B6 JUMP JUMPDEST SWAP2 POP PUSH2 0x5D0B DUP3 PUSH2 0x5CCC JUMP JUMPDEST PUSH1 0x20 DUP3 ADD SWAP1 POP SWAP2 SWAP1 POP JUMP JUMPDEST PUSH0 PUSH1 0x20 DUP3 ADD SWAP1 POP DUP2 DUP2 SUB PUSH0 DUP4 ADD MSTORE PUSH2 0x5D2D DUP2 PUSH2 0x5CF4 JUMP JUMPDEST SWAP1 POP SWAP2 SWAP1 POP JUMP JUMPDEST PUSH32 0x696E76616C6964206C6F616E0000000000000000000000000000000000000000 PUSH0 DUP3 ADD MSTORE POP JUMP JUMPDEST PUSH0 PUSH2 0x5D68 PUSH1 0xC DUP4 PUSH2 0x46B6 JUMP JUMPDEST SWAP2 POP PUSH2 0x5D73 DUP3 PUSH2 0x5D34 JUMP JUMPDEST PUSH1 0x20 DUP3 ADD SWAP1 POP SWAP2 SWAP1 POP JUMP JUMPDEST PUSH0 PUSH1 0x20 DUP3 ADD SWAP1 POP DUP2 DUP2 SUB PUSH0 DUP4 ADD MSTORE PUSH2 0x5D95 DUP2 PUSH2 0x5D5C JUMP JUMPDEST SWAP1 POP SWAP2 SWAP1 POP JUMP INVALID LOG2 PUSH5 0x6970667358 0x22 SLT KECCAK256 0xC7 SMOD PUSH13 0xC6E677E0932984B0D1022F4E63 PUSH29 0x4D8A259C5744442BDE6CD956590D1C64736F6C634300081E0033000000 "
		},
		"gasEstimates": {
			"creation": {
				"codeDepositCost": "4803600",
				"executionCost": "infinite",
				"totalCost": "infinite"
			},
			"external": {
				"TotalLoan()": "5136",
				"approveLoan(uint256)": "infinite",
				"assignNewEmployee(address,string)": "infinite",
				"blacklist(address)": "2943",
				"checkAndProcessLoan(uint256)": "infinite",
				"collateralRatioPercent()": "2650",
				"employeeCount()": "2536",
				"hasRole(address,string)": "infinite",
				"loanInfo(uint256)": "infinite",
				"loans(uint256)": "infinite",
				"maxNPLPercent()": "2562",
				"monthlyInterestPercent()": "2532",
				"payMonthly(uint256,uint256)": "infinite",
				"penaltyPercent()": "2541",
				"rejectLoan(uint256)": "infinite",
				"removeEmployee(address,string)": "infinite",
				"requestLoan(uint256,uint256)": "infinite",
				"setCollateralRatioPercent(uint16)": "infinite",
				"setManagementWallet(address)": "infinite",
				"setMaxNPLPercent(uint16)": "infinite",
				"setMonthlyInterestPercent(uint16)": "infinite",
				"setPenaltyPercent(uint16)": "infinite",
				"strikes(address)": "2847",
				"takeProfits()": "infinite",
				"totalProfits()": "2536",
				"unblacklist(address)": "infinite"
			},
			"internal": {
				"_finalLiquidation(uint256)": "infinite",
				"_invalidId(uint256)": "infinite",
				"_liquidateForConsecutiveMisses(uint256,uint256)": "infinite",
				"_monthsSince(uint256,uint256)": "infinite",
				"currentNPL()": "infinite",
				"loansAllowed()": "infinite",
				"monthlyDue(uint256)": "infinite"
			}
		},
		"methodIdentifiers": {
			"TotalLoan()": "4492b5c9",
			"approveLoan(uint256)": "aadc1ac1",
			"assignNewEmployee(address,string)": "a5623ffc",
			"blacklist(address)": "f9f92be4",
			"checkAndProcessLoan(uint256)": "5b4d76f1",
			"collateralRatioPercent()": "d682dab5",
			"employeeCount()": "9047bf58",
			"hasRole(address,string)": "217fe6c6",
			"loanInfo(uint256)": "8349d6be",
			"loans(uint256)": "e1ec3c68",
			"maxNPLPercent()": "de2cf972",
			"monthlyInterestPercent()": "f013e4b5",
			"payMonthly(uint256,uint256)": "e7774868",
			"penaltyPercent()": "161ba46a",
			"rejectLoan(uint256)": "5d29cb98",
			"removeEmployee(address,string)": "559b9b4c",
			"requestLoan(uint256,uint256)": "aa452fa6",
			"setCollateralRatioPercent(uint16)": "92af38d9",
			"setManagementWallet(address)": "7be9878b",
			"setMaxNPLPercent(uint16)": "f0d3361b",
			"setMonthlyInterestPercent(uint16)": "26c8d0ae",
			"setPenaltyPercent(uint16)": "e7fad70a",
			"strikes(address)": "7794e3fd",
			"takeProfits()": "23e77db3",
			"totalProfits()": "bd998cb3",
			"unblacklist(address)": "75e3661e"
		}
	},
	"abi": [
		{
			"inputs": [
				{
					"internalType": "address payable",
					"name": "_managementWallet",
					"type": "address"
				}
			],
			"stateMutability": "nonpayable",
			"type": "constructor"
		},
		{
			"anonymous": false,
			"inputs": [
				{
					"indexed": true,
					"internalType": "address",
					"name": "borrower",
					"type": "address"
				}
			],
			"name": "Blacklisted",
			"type": "event"
		},
		{
			"anonymous": false,
			"inputs": [
				{
					"indexed": false,
					"internalType": "uint256",
					"name": "oldValue",
					"type": "uint256"
				},
				{
					"indexed": false,
					"internalType": "uint256",
					"name": "newValue",
					"type": "uint256"
				}
			],
			"name": "CollateralRatioChanged",
			"type": "event"
		},
		{
			"anonymous": false,
			"inputs": [
				{
					"indexed": true,
					"internalType": "address",
					"name": "employee",
					"type": "address"
				},
				{
					"indexed": false,
					"internalType": "string",
					"name": "role",
					"type": "string"
				}
			],
			"name": "EmployeeAssigned",
			"type": "event"
		},
		{
			"anonymous": false,
			"inputs": [
				{
					"indexed": true,
					"internalType": "address",
					"name": "employee",
					"type": "address"
				},
				{
					"indexed": false,
					"internalType": "string",
					"name": "role",
					"type": "string"
				}
			],
			"name": "EmployeeRemoved",
			"type": "event"
		},
		{
			"anonymous": false,
			"inputs": [
				{
					"indexed": false,
					"internalType": "uint256",
					"name": "oldValue",
					"type": "uint256"
				},
				{
					"indexed": false,
					"internalType": "uint256",
					"name": "newValue",
					"type": "uint256"
				}
			],
			"name": "InterestRateChanged",
			"type": "event"
		},
		{
			"anonymous": false,
			"inputs": [
				{
					"indexed": true,
					"internalType": "uint256",
					"name": "loanId",
					"type": "uint256"
				},
				{
					"indexed": true,
					"internalType": "address",
					"name": "borrower",
					"type": "address"
				},
				{
					"indexed": false,
					"internalType": "uint256",
					"name": "startTimestamp",
					"type": "uint256"
				}
			],
			"name": "LoanApproved",
			"type": "event"
		},
		{
			"anonymous": false,
			"inputs": [
				{
					"indexed": true,
					"internalType": "uint256",
					"name": "loanId",
					"type": "uint256"
				},
				{
					"indexed": true,
					"internalType": "address",
					"name": "borrower",
					"type": "address"
				},
				{
					"indexed": false,
					"internalType": "uint256",
					"name": "amount",
					"type": "uint256"
				}
			],
			"name": "LoanDisbursed",
			"type": "event"
		},
		{
			"anonymous": false,
			"inputs": [
				{
					"indexed": true,
					"internalType": "uint256",
					"name": "loanId",
					"type": "uint256"
				},
				{
					"indexed": true,
					"internalType": "address",
					"name": "borrower",
					"type": "address"
				},
				{
					"indexed": false,
					"internalType": "uint256",
					"name": "collateralUsed",
					"type": "uint256"
				},
				{
					"indexed": false,
					"internalType": "uint256",
					"name": "deficitCovered",
					"type": "uint256"
				},
				{
					"indexed": false,
					"internalType": "uint256",
					"name": "profitFromCollateral",
					"type": "uint256"
				}
			],
			"name": "LoanLiquidated",
			"type": "event"
		},
		{
			"anonymous": false,
			"inputs": [
				{
					"indexed": true,
					"internalType": "uint256",
					"name": "loanId",
					"type": "uint256"
				},
				{
					"indexed": true,
					"internalType": "address",
					"name": "borrower",
					"type": "address"
				},
				{
					"indexed": false,
					"internalType": "uint256",
					"name": "principal",
					"type": "uint256"
				},
				{
					"indexed": false,
					"internalType": "uint256",
					"name": "durationMonths",
					"type": "uint256"
				},
				{
					"indexed": false,
					"internalType": "uint256",
					"name": "collateral",
					"type": "uint256"
				}
			],
			"name": "LoanRequested",
			"type": "event"
		},
		{
			"anonymous": false,
			"inputs": [
				{
					"indexed": false,
					"internalType": "address",
					"name": "oldWallet",
					"type": "address"
				},
				{
					"indexed": false,
					"internalType": "address",
					"name": "newWallet",
					"type": "address"
				}
			],
			"name": "ManagementWalletChanged",
			"type": "event"
		},
		{
			"anonymous": false,
			"inputs": [
				{
					"indexed": false,
					"internalType": "uint256",
					"name": "oldValue",
					"type": "uint256"
				},
				{
					"indexed": false,
					"internalType": "uint256",
					"name": "newValue",
					"type": "uint256"
				}
			],
			"name": "MaxNPLChanged",
			"type": "event"
		},
		{
			"anonymous": false,
			"inputs": [
				{
					"indexed": true,
					"internalType": "uint256",
					"name": "loanId",
					"type": "uint256"
				},
				{
					"indexed": false,
					"internalType": "uint256",
					"name": "missedCount",
					"type": "uint256"
				}
			],
			"name": "MonthMissed",
			"type": "event"
		},
		{
			"anonymous": false,
			"inputs": [
				{
					"indexed": true,
					"internalType": "uint256",
					"name": "loanId",
					"type": "uint256"
				},
				{
					"indexed": true,
					"internalType": "address",
					"name": "payer",
					"type": "address"
				},
				{
					"indexed": false,
					"internalType": "uint256",
					"name": "amount",
					"type": "uint256"
				},
				{
					"indexed": false,
					"internalType": "uint256",
					"name": "monthIndex",
					"type": "uint256"
				}
			],
			"name": "MonthlyPaymentMade",
			"type": "event"
		},
		{
			"anonymous": false,
			"inputs": [
				{
					"indexed": false,
					"internalType": "uint256",
					"name": "oldValue",
					"type": "uint256"
				},
				{
					"indexed": false,
					"internalType": "uint256",
					"name": "newValue",
					"type": "uint256"
				}
			],
			"name": "PenaltyPercentChanged",
			"type": "event"
		},
		{
			"anonymous": false,
			"inputs": [
				{
					"indexed": true,
					"internalType": "address",
					"name": "to",
					"type": "address"
				},
				{
					"indexed": false,
					"internalType": "uint256",
					"name": "amount",
					"type": "uint256"
				}
			],
			"name": "ProfitTaken",
			"type": "event"
		},
		{
			"anonymous": false,
			"inputs": [
				{
					"indexed": true,
					"internalType": "address",
					"name": "borrower",
					"type": "address"
				},
				{
					"indexed": false,
					"internalType": "uint256",
					"name": "strikes",
					"type": "uint256"
				}
			],
			"name": "StrikeAdded",
			"type": "event"
		},
		{
			"anonymous": false,
			"inputs": [
				{
					"indexed": true,
					"internalType": "address",
					"name": "borrower",
					"type": "address"
				}
			],
			"name": "UnBlacklisted",
			"type": "event"
		},
		{
			"anonymous": false,
			"inputs": [
				{
					"indexed": true,
					"internalType": "address",
					"name": "managementWallet",
					"type": "address"
				}
			],
			"name": "managementWallet_address",
			"type": "event"
		},
		{
			"inputs": [],
			"name": "TotalLoan",
			"outputs": [
				{
					"internalType": "uint256",
					"name": "",
					"type": "uint256"
				}
			],
			"stateMutability": "view",
			"type": "function"
		},
		{
			"inputs": [
				{
					"internalType": "uint256",
					"name": "loanId",
					"type": "uint256"
				}
			],
			"name": "approveLoan",
			"outputs": [],
			"stateMutability": "nonpayable",
			"type": "function"
		},
		{
			"inputs": [
				{
					"internalType": "address",
					"name": "newEmployee",
					"type": "address"
				},
				{
					"internalType": "string",
					"name": "role",
					"type": "string"
				}
			],
			"name": "assignNewEmployee",
			"outputs": [],
			"stateMutability": "nonpayable",
			"type": "function"
		},
		{
			"inputs": [
				{
					"internalType": "address",
					"name": "",
					"type": "address"
				}
			],
			"name": "blacklist",
			"outputs": [
				{
					"internalType": "bool",
					"name": "",
					"type": "bool"
				}
			],
			"stateMutability": "view",
			"type": "function"
		},
		{
			"inputs": [
				{
					"internalType": "uint256",
					"name": "loanId",
					"type": "uint256"
				}
			],
			"name": "checkAndProcessLoan",
			"outputs": [],
			"stateMutability": "nonpayable",
			"type": "function"
		},
		{
			"inputs": [],
			"name": "collateralRatioPercent",
			"outputs": [
				{
					"internalType": "uint16",
					"name": "",
					"type": "uint16"
				}
			],
			"stateMutability": "view",
			"type": "function"
		},
		{
			"inputs": [],
			"name": "employeeCount",
			"outputs": [
				{
					"internalType": "uint256",
					"name": "",
					"type": "uint256"
				}
			],
			"stateMutability": "view",
			"type": "function"
		},
		{
			"inputs": [
				{
					"internalType": "address",
					"name": "account",
					"type": "address"
				},
				{
					"internalType": "string",
					"name": "role",
					"type": "string"
				}
			],
			"name": "hasRole",
			"outputs": [
				{
					"internalType": "bool",
					"name": "",
					"type": "bool"
				}
			],
			"stateMutability": "view",
			"type": "function"
		},
		{
			"inputs": [
				{
					"internalType": "uint256",
					"name": "loanId",
					"type": "uint256"
				}
			],
			"name": "loanInfo",
			"outputs": [
				{
					"internalType": "address",
					"name": "borrower",
					"type": "address"
				},
				{
					"internalType": "uint256",
					"name": "principal",
					"type": "uint256"
				},
				{
					"internalType": "uint256",
					"name": "durationMonths",
					"type": "uint256"
				},
				{
					"internalType": "uint256",
					"name": "startTimestamp",
					"type": "uint256"
				},
				{
					"internalType": "uint256",
					"name": "paidMonths",
					"type": "uint256"
				},
				{
					"internalType": "uint256",
					"name": "consecutiveMissed",
					"type": "uint256"
				},
				{
					"internalType": "uint256",
					"name": "remainingPrincipal",
					"type": "uint256"
				},
				{
					"internalType": "uint256",
					"name": "collateral",
					"type": "uint256"
				},
				{
					"internalType": "bool",
					"name": "liquidated",
					"type": "bool"
				},
				{
					"internalType": "bool",
					"name": "active",
					"type": "bool"
				}
			],
			"stateMutability": "view",
			"type": "function"
		},
		{
			"inputs": [
				{
					"internalType": "uint256",
					"name": "",
					"type": "uint256"
				}
			],
			"name": "loans",
			"outputs": [
				{
					"internalType": "address",
					"name": "borrower",
					"type": "address"
				},
				{
					"internalType": "uint256",
					"name": "principal",
					"type": "uint256"
				},
				{
					"internalType": "uint256",
					"name": "durationMonths",
					"type": "uint256"
				},
				{
					"internalType": "uint256",
					"name": "startTimestamp",
					"type": "uint256"
				},
				{
					"internalType": "uint256",
					"name": "paidMonths",
					"type": "uint256"
				},
				{
					"internalType": "uint256",
					"name": "consecutiveMissed",
					"type": "uint256"
				},
				{
					"internalType": "uint256",
					"name": "remainingPrincipal",
					"type": "uint256"
				},
				{
					"internalType": "uint256",
					"name": "collateral",
					"type": "uint256"
				},
				{
					"internalType": "bool",
					"name": "liquidated",
					"type": "bool"
				},
				{
					"internalType": "bool",
					"name": "active",
					"type": "bool"
				}
			],
			"stateMutability": "view",
			"type": "function"
		},
		{
			"inputs": [],
			"name": "maxNPLPercent",
			"outputs": [
				{
					"internalType": "uint16",
					"name": "",
					"type": "uint16"
				}
			],
			"stateMutability": "view",
			"type": "function"
		},
		{
			"inputs": [],
			"name": "monthlyInterestPercent",
			"outputs": [
				{
					"internalType": "uint16",
					"name": "",
					"type": "uint16"
				}
			],
			"stateMutability": "view",
			"type": "function"
		},
		{
			"inputs": [
				{
					"internalType": "uint256",
					"name": "loanId",
					"type": "uint256"
				},
				{
					"internalType": "uint256",
					"name": "monthsToPay",
					"type": "uint256"
				}
			],
			"name": "payMonthly",
			"outputs": [],
			"stateMutability": "payable",
			"type": "function"
		},
		{
			"inputs": [],
			"name": "penaltyPercent",
			"outputs": [
				{
					"internalType": "uint16",
					"name": "",
					"type": "uint16"
				}
			],
			"stateMutability": "view",
			"type": "function"
		},
		{
			"inputs": [
				{
					"internalType": "uint256",
					"name": "loanId",
					"type": "uint256"
				}
			],
			"name": "rejectLoan",
			"outputs": [],
			"stateMutability": "nonpayable",
			"type": "function"
		},
		{
			"inputs": [
				{
					"internalType": "address",
					"name": "employee",
					"type": "address"
				},
				{
					"internalType": "string",
					"name": "role",
					"type": "string"
				}
			],
			"name": "removeEmployee",
			"outputs": [],
			"stateMutability": "nonpayable",
			"type": "function"
		},
		{
			"inputs": [
				{
					"internalType": "uint256",
					"name": "principalInETH",
					"type": "uint256"
				},
				{
					"internalType": "uint256",
					"name": "durationMonths",
					"type": "uint256"
				}
			],
			"name": "requestLoan",
			"outputs": [],
			"stateMutability": "payable",
			"type": "function"
		},
		{
			"inputs": [
				{
					"internalType": "uint16",
					"name": "p",
					"type": "uint16"
				}
			],
			"name": "setCollateralRatioPercent",
			"outputs": [],
			"stateMutability": "nonpayable",
			"type": "function"
		},
		{
			"inputs": [
				{
					"internalType": "address payable",
					"name": "w",
					"type": "address"
				}
			],
			"name": "setManagementWallet",
			"outputs": [],
			"stateMutability": "nonpayable",
			"type": "function"
		},
		{
			"inputs": [
				{
					"internalType": "uint16",
					"name": "p",
					"type": "uint16"
				}
			],
			"name": "setMaxNPLPercent",
			"outputs": [],
			"stateMutability": "nonpayable",
			"type": "function"
		},
		{
			"inputs": [
				{
					"internalType": "uint16",
					"name": "p",
					"type": "uint16"
				}
			],
			"name": "setMonthlyInterestPercent",
			"outputs": [],
			"stateMutability": "nonpayable",
			"type": "function"
		},
		{
			"inputs": [
				{
					"internalType": "uint16",
					"name": "p",
					"type": "uint16"
				}
			],
			"name": "setPenaltyPercent",
			"outputs": [],
			"stateMutability": "nonpayable",
			"type": "function"
		},
		{
			"inputs": [
				{
					"internalType": "address",
					"name": "",
					"type": "address"
				}
			],
			"name": "strikes",
			"outputs": [
				{
					"internalType": "uint256",
					"name": "",
					"type": "uint256"
				}
			],
			"stateMutability": "view",
			"type": "function"
		},
		{
			"inputs": [],
			"name": "takeProfits",
			"outputs": [],
			"stateMutability": "nonpayable",
			"type": "function"
		},
		{
			"inputs": [],
			"name": "totalProfits",
			"outputs": [
				{
					"internalType": "uint256",
					"name": "",
					"type": "uint256"
				}
			],
			"stateMutability": "view",
			"type": "function"
		},
		{
			"inputs": [
				{
					"internalType": "address",
					"name": "user",
					"type": "address"
				}
			],
			"name": "unblacklist",
			"outputs": [],
			"stateMutability": "nonpayable",
			"type": "function"
		},
		{
			"stateMutability": "payable",
			"type": "receive"
		}
	]
}