{
	"Data/Management_Wallet.sol": {
		"manajement_wallet": {
			"abi": [
				{
					"inputs": [
						{
							"internalType": "address payable",
							"name": "_loan_contract",
							"type": "address"
						}
					],
					"stateMutability": "nonpayable",
					"type": "constructor"
				},
				{
					"anonymous": false,
					"inputs": [
						{
							"indexed": true,
							"internalType": "address",
							"name": "employee",
							"type": "address"
						},
						{
							"indexed": false,
							"internalType": "string",
							"name": "role",
							"type": "string"
						}
					],
					"name": "EmployeeAssigned",
					"type": "event"
				},
				{
					"anonymous": false,
					"inputs": [
						{
							"indexed": true,
							"internalType": "address",
							"name": "employee",
							"type": "address"
						},
						{
							"indexed": false,
							"internalType": "string",
							"name": "role",
							"type": "string"
						}
					],
					"name": "EmployeeRemoved",
					"type": "event"
				},
				{
					"anonymous": false,
					"inputs": [
						{
							"indexed": true,
							"internalType": "address",
							"name": "oldOwner",
							"type": "address"
						},
						{
							"indexed": true,
							"internalType": "address",
							"name": "newOwner",
							"type": "address"
						}
					],
					"name": "OwnerChanged",
					"type": "event"
				},
				{
					"stateMutability": "payable",
					"type": "fallback"
				},
				{
					"inputs": [
						{
							"internalType": "address",
							"name": "newEmployee",
							"type": "address"
						},
						{
							"internalType": "string",
							"name": "role",
							"type": "string"
						}
					],
					"name": "assignNewEmployee",
					"outputs": [],
					"stateMutability": "nonpayable",
					"type": "function"
				},
				{
					"inputs": [
						{
							"internalType": "address",
							"name": "newOwner",
							"type": "address"
						}
					],
					"name": "changeOwner",
					"outputs": [],
					"stateMutability": "nonpayable",
					"type": "function"
				},
				{
					"inputs": [
						{
							"internalType": "address payable",
							"name": "new_loan_contract",
							"type": "address"
						}
					],
					"name": "change_loan_contract",
					"outputs": [],
					"stateMutability": "nonpayable",
					"type": "function"
				},
				{
					"inputs": [],
					"name": "employeeCount",
					"outputs": [
						{
							"internalType": "uint256",
							"name": "",
							"type": "uint256"
						}
					],
					"stateMutability": "view",
					"type": "function"
				},
				{
					"inputs": [
						{
							"internalType": "address",
							"name": "account",
							"type": "address"
						},
						{
							"internalType": "string",
							"name": "role",
							"type": "string"
						}
					],
					"name": "hasRole",
					"outputs": [
						{
							"internalType": "bool",
							"name": "",
							"type": "bool"
						}
					],
					"stateMutability": "view",
					"type": "function"
				},
				{
					"inputs": [
						{
							"internalType": "address",
							"name": "employee",
							"type": "address"
						},
						{
							"internalType": "string",
							"name": "role",
							"type": "string"
						}
					],
					"name": "removeEmployee",
					"outputs": [],
					"stateMutability": "nonpayable",
					"type": "function"
				},
				{
					"inputs": [],
					"name": "see_contract_balances",
					"outputs": [
						{
							"internalType": "uint256",
							"name": "balances",
							"type": "uint256"
						}
					],
					"stateMutability": "view",
					"type": "function"
				},
				{
					"inputs": [
						{
							"internalType": "uint256",
							"name": "amount",
							"type": "uint256"
						}
					],
					"name": "transfer_to_loan_contract",
					"outputs": [],
					"stateMutability": "nonpayable",
					"type": "function"
				},
				{
					"stateMutability": "payable",
					"type": "receive"
				}
			],
			"devdoc": {
				"details": "Inherits ownership & employee access control from `employe_assignment`",
				"events": {
					"EmployeeAssigned(address,string)": {
						"params": {
							"employee": "The address of the newly assigned employee",
							"role": "The role assigned to the employee"
						}
					},
					"EmployeeRemoved(address,string)": {
						"params": {
							"employee": "The address of the removed employee",
							"role": "The role that was removed"
						}
					},
					"OwnerChanged(address,address)": {
						"params": {
							"newOwner": "The address of the new owner",
							"oldOwner": "The address of the previous owner"
						}
					}
				},
				"kind": "dev",
				"methods": {
					"assignNewEmployee(address,string)": {
						"details": "Only the owner can assign new employees. Validates role and address.",
						"params": {
							"newEmployee": "Address of the employee to be assigned",
							"role": "Role to assign to the employee"
						}
					},
					"changeOwner(address)": {
						"details": "Only the current owner can call this function. Validates the new owner address.",
						"params": {
							"newOwner": "Address of the new owner"
						}
					},
					"change_loan_contract(address)": {
						"params": {
							"new_loan_contract": "New loan contract address"
						}
					},
					"constructor": {
						"params": {
							"_loan_contract": "Address of the loan contract"
						}
					},
					"hasRole(address,string)": {
						"params": {
							"account": "Address to check",
							"role": "Role to check for"
						},
						"returns": {
							"_0": "bool True if the account has the specified role"
						}
					},
					"removeEmployee(address,string)": {
						"details": "Only the owner can remove employee roles. Validates role and current assignment.",
						"params": {
							"employee": "Address of the employee to remove the role from",
							"role": "Role to remove from the employee"
						}
					},
					"see_contract_balances()": {
						"details": "Access restricted to employees",
						"returns": {
							"balances": "Current balance expressed in whole ETH"
						}
					},
					"transfer_to_loan_contract(uint256)": {
						"details": "Only callable by employees. Validates amount > 0 and sufficient balance before sending.",
						"params": {
							"amount": "Amount in wei to transfer"
						}
					}
				},
				"title": "Management Wallet",
				"version": 1
			},
			"evm": {
				"assembly": "    /* \"Data/Management_Wallet.sol\":462:2970  contract manajement_wallet is EmployeeAssignment {... */\n  mstore(0x40, 0x80)\n    /* \"Owner/employe_assignment.sol\":588:598  msg.sender */\n  caller\n    /* \"Owner/employe_assignment.sol\":563:598  address internal owner = msg.sender */\n  0x00\n  exp(0x0100, 0x00)\n  dup2\n  sload\n  dup2\n  0xffffffffffffffffffffffffffffffffffffffff\n  mul\n  not\n  and\n  swap1\n  dup4\n  0xffffffffffffffffffffffffffffffffffffffff\n  and\n  mul\n  or\n  swap1\n  sstore\n  pop\n    /* \"Data/Management_Wallet.sol\":784:877  constructor(address payable _loan_contract) {... */\n  callvalue\n  dup1\n  iszero\n  tag_1\n  jumpi\n  revert(0x00, 0x00)\ntag_1:\n  pop\n  mload(0x40)\n  sub(codesize, bytecodeSize)\n  dup1\n  bytecodeSize\n  dup4\n  codecopy\n  dup2\n  dup2\n  add\n  0x40\n  mstore\n  dup2\n  add\n  swap1\n  tag_2\n  swap2\n  swap1\n  tag_3\n  jump\t// in\ntag_2:\n    /* \"Data/Management_Wallet.sol\":855:869  _loan_contract */\n  dup1\n    /* \"Data/Management_Wallet.sol\":839:852  loan_contract */\n  0x03\n  0x00\n    /* \"Data/Management_Wallet.sol\":839:869  loan_contract = _loan_contract */\n  0x0100\n  exp\n  dup2\n  sload\n  dup2\n  0xffffffffffffffffffffffffffffffffffffffff\n  mul\n  not\n  and\n  swap1\n  dup4\n  0xffffffffffffffffffffffffffffffffffffffff\n  and\n  mul\n  or\n  swap1\n  sstore\n  pop\n    /* \"Data/Management_Wallet.sol\":784:877  constructor(address payable _loan_contract) {... */\n  pop\n    /* \"Data/Management_Wallet.sol\":462:2970  contract manajement_wallet is EmployeeAssignment {... */\n  jump(tag_6)\n    /* \"#utility.yul\":88:205   */\ntag_8:\n    /* \"#utility.yul\":197:198   */\n  0x00\n    /* \"#utility.yul\":194:195   */\n  0x00\n    /* \"#utility.yul\":187:199   */\n  revert\n    /* \"#utility.yul\":334:460   */\ntag_10:\n    /* \"#utility.yul\":371:378   */\n  0x00\n    /* \"#utility.yul\":411:453   */\n  0xffffffffffffffffffffffffffffffffffffffff\n    /* \"#utility.yul\":404:409   */\n  dup3\n    /* \"#utility.yul\":400:454   */\n  and\n    /* \"#utility.yul\":389:454   */\n  swap1\n  pop\n    /* \"#utility.yul\":334:460   */\n  swap2\n  swap1\n  pop\n  jump\t// out\n    /* \"#utility.yul\":466:570   */\ntag_11:\n    /* \"#utility.yul\":511:518   */\n  0x00\n    /* \"#utility.yul\":540:564   */\n  tag_20\n    /* \"#utility.yul\":558:563   */\n  dup3\n    /* \"#utility.yul\":540:564   */\n  tag_10\n  jump\t// in\ntag_20:\n    /* \"#utility.yul\":529:564   */\n  swap1\n  pop\n    /* \"#utility.yul\":466:570   */\n  swap2\n  swap1\n  pop\n  jump\t// out\n    /* \"#utility.yul\":576:714   */\ntag_12:\n    /* \"#utility.yul\":657:689   */\n  tag_22\n    /* \"#utility.yul\":683:688   */\n  dup2\n    /* \"#utility.yul\":657:689   */\n  tag_11\n  jump\t// in\ntag_22:\n    /* \"#utility.yul\":650:655   */\n  dup2\n    /* \"#utility.yul\":647:690   */\n  eq\n    /* \"#utility.yul\":637:708   */\n  tag_23\n  jumpi\n    /* \"#utility.yul\":704:705   */\n  0x00\n    /* \"#utility.yul\":701:702   */\n  0x00\n    /* \"#utility.yul\":694:706   */\n  revert\n    /* \"#utility.yul\":637:708   */\ntag_23:\n    /* \"#utility.yul\":576:714   */\n  pop\n  jump\t// out\n    /* \"#utility.yul\":720:879   */\ntag_13:\n    /* \"#utility.yul\":785:790   */\n  0x00\n    /* \"#utility.yul\":816:822   */\n  dup2\n    /* \"#utility.yul\":810:823   */\n  mload\n    /* \"#utility.yul\":801:823   */\n  swap1\n  pop\n    /* \"#utility.yul\":832:873   */\n  tag_25\n    /* \"#utility.yul\":867:872   */\n  dup2\n    /* \"#utility.yul\":832:873   */\n  tag_12\n  jump\t// in\ntag_25:\n    /* \"#utility.yul\":720:879   */\n  swap3\n  swap2\n  pop\n  pop\n  jump\t// out\n    /* \"#utility.yul\":885:1252   */\ntag_3:\n    /* \"#utility.yul\":963:969   */\n  0x00\n    /* \"#utility.yul\":1012:1014   */\n  0x20\n    /* \"#utility.yul\":1000:1009   */\n  dup3\n    /* \"#utility.yul\":991:998   */\n  dup5\n    /* \"#utility.yul\":987:1010   */\n  sub\n    /* \"#utility.yul\":983:1015   */\n  slt\n    /* \"#utility.yul\":980:1099   */\n  iszero\n  tag_27\n  jumpi\n    /* \"#utility.yul\":1018:1097   */\n  tag_28\n  tag_8\n  jump\t// in\ntag_28:\n    /* \"#utility.yul\":980:1099   */\ntag_27:\n    /* \"#utility.yul\":1138:1139   */\n  0x00\n    /* \"#utility.yul\":1163:1235   */\n  tag_29\n    /* \"#utility.yul\":1227:1234   */\n  dup5\n    /* \"#utility.yul\":1218:1224   */\n  dup3\n    /* \"#utility.yul\":1207:1216   */\n  dup6\n    /* \"#utility.yul\":1203:1225   */\n  add\n    /* \"#utility.yul\":1163:1235   */\n  tag_13\n  jump\t// in\ntag_29:\n    /* \"#utility.yul\":1153:1235   */\n  swap2\n  pop\n    /* \"#utility.yul\":1109:1245   */\n  pop\n    /* \"#utility.yul\":885:1252   */\n  swap3\n  swap2\n  pop\n  pop\n  jump\t// out\n    /* \"Data/Management_Wallet.sol\":462:2970  contract manajement_wallet is EmployeeAssignment {... */\ntag_6:\n  dataSize(sub_0)\n  dup1\n  dataOffset(sub_0)\n  0x00\n  codecopy\n  0x00\n  return\nstop\n\nsub_0: assembly {\n        /* \"Data/Management_Wallet.sol\":462:2970  contract manajement_wallet is EmployeeAssignment {... */\n      mstore(0x40, 0x80)\n      jumpi(tag_1, lt(calldatasize, 0x04))\n      shr(0xe0, calldataload(0x00))\n      dup1\n      0xa5623ffc\n      gt\n      tag_11\n      jumpi\n      dup1\n      0xa5623ffc\n      eq\n      tag_7\n      jumpi\n      dup1\n      0xa6f9dae1\n      eq\n      tag_8\n      jumpi\n      dup1\n      0xc55a040c\n      eq\n      tag_9\n      jumpi\n      dup1\n      0xde6ce565\n      eq\n      tag_10\n      jumpi\n      jump(tag_2)\n    tag_11:\n      dup1\n      0x217fe6c6\n      eq\n      tag_3\n      jumpi\n      dup1\n      0x45e8fc8b\n      eq\n      tag_4\n      jumpi\n      dup1\n      0x559b9b4c\n      eq\n      tag_5\n      jumpi\n      dup1\n      0x9047bf58\n      eq\n      tag_6\n      jumpi\n      jump(tag_2)\n    tag_1:\n    tag_2:\n      stop\n        /* \"Owner/employe_assignment.sol\":5494:5629  function hasRole(address account, string calldata role) external view returns (bool) {... */\n    tag_3:\n      callvalue\n      dup1\n      iszero\n      tag_16\n      jumpi\n      revert(0x00, 0x00)\n    tag_16:\n      pop\n      tag_17\n      0x04\n      dup1\n      calldatasize\n      sub\n      dup2\n      add\n      swap1\n      tag_18\n      swap2\n      swap1\n      tag_19\n      jump\t// in\n    tag_18:\n      tag_20\n      jump\t// in\n    tag_17:\n      mload(0x40)\n      tag_21\n      swap2\n      swap1\n      tag_22\n      jump\t// in\n    tag_21:\n      mload(0x40)\n      dup1\n      swap2\n      sub\n      swap1\n      return\n        /* \"Data/Management_Wallet.sol\":1815:2076  function change_loan_contract(address payable new_loan_contract) ... */\n    tag_4:\n      callvalue\n      dup1\n      iszero\n      tag_23\n      jumpi\n      revert(0x00, 0x00)\n    tag_23:\n      pop\n      tag_24\n      0x04\n      dup1\n      calldatasize\n      sub\n      dup2\n      add\n      swap1\n      tag_25\n      swap2\n      swap1\n      tag_26\n      jump\t// in\n    tag_25:\n      tag_27\n      jump\t// in\n    tag_24:\n      stop\n        /* \"Owner/employe_assignment.sol\":4633:5265  function removeEmployee(address employee, string calldata role) external onlyOwner {... */\n    tag_5:\n      callvalue\n      dup1\n      iszero\n      tag_28\n      jumpi\n      revert(0x00, 0x00)\n    tag_28:\n      pop\n      tag_29\n      0x04\n      dup1\n      calldatasize\n      sub\n      dup2\n      add\n      swap1\n      tag_30\n      swap2\n      swap1\n      tag_19\n      jump\t// in\n    tag_30:\n      tag_31\n      jump\t// in\n    tag_29:\n      stop\n        /* \"Owner/employe_assignment.sol\":673:698  uint public employeeCount */\n    tag_6:\n      callvalue\n      dup1\n      iszero\n      tag_32\n      jumpi\n      revert(0x00, 0x00)\n    tag_32:\n      pop\n      tag_33\n      tag_34\n      jump\t// in\n    tag_33:\n      mload(0x40)\n      tag_35\n      swap2\n      swap1\n      tag_36\n      jump\t// in\n    tag_35:\n      mload(0x40)\n      dup1\n      swap2\n      sub\n      swap1\n      return\n        /* \"Owner/employe_assignment.sol\":3522:4341  function assignNewEmployee(address newEmployee, string calldata role) external onlyOwner {... */\n    tag_7:\n      callvalue\n      dup1\n      iszero\n      tag_37\n      jumpi\n      revert(0x00, 0x00)\n    tag_37:\n      pop\n      tag_38\n      0x04\n      dup1\n      calldatasize\n      sub\n      dup2\n      add\n      swap1\n      tag_39\n      swap2\n      swap1\n      tag_19\n      jump\t// in\n    tag_39:\n      tag_40\n      jump\t// in\n    tag_38:\n      stop\n        /* \"Owner/employe_assignment.sol\":5854:6377  function changeOwner(address newOwner) external onlyOwner {... */\n    tag_8:\n      callvalue\n      dup1\n      iszero\n      tag_41\n      jumpi\n      revert(0x00, 0x00)\n    tag_41:\n      pop\n      tag_42\n      0x04\n      dup1\n      calldatasize\n      sub\n      dup2\n      add\n      swap1\n      tag_43\n      swap2\n      swap1\n      tag_44\n      jump\t// in\n    tag_43:\n      tag_45\n      jump\t// in\n    tag_42:\n      stop\n        /* \"Data/Management_Wallet.sol\":1308:1690  function transfer_to_loan_contract(uint amount) ... */\n    tag_9:\n      callvalue\n      dup1\n      iszero\n      tag_46\n      jumpi\n      revert(0x00, 0x00)\n    tag_46:\n      pop\n      tag_47\n      0x04\n      dup1\n      calldatasize\n      sub\n      dup2\n      add\n      swap1\n      tag_48\n      swap2\n      swap1\n      tag_49\n      jump\t// in\n    tag_48:\n      tag_50\n      jump\t// in\n    tag_47:\n      stop\n        /* \"Data/Management_Wallet.sol\":2390:2611  function see_contract_balances() ... */\n    tag_10:\n      callvalue\n      dup1\n      iszero\n      tag_51\n      jumpi\n      revert(0x00, 0x00)\n    tag_51:\n      pop\n      tag_52\n      tag_53\n      jump\t// in\n    tag_52:\n      mload(0x40)\n      tag_54\n      swap2\n      swap1\n      tag_36\n      jump\t// in\n    tag_54:\n      mload(0x40)\n      dup1\n      swap2\n      sub\n      swap1\n      return\n        /* \"Owner/employe_assignment.sol\":5494:5629  function hasRole(address account, string calldata role) external view returns (bool) {... */\n    tag_20:\n        /* \"Owner/employe_assignment.sol\":5573:5577  bool */\n      0x00\n        /* \"Owner/employe_assignment.sol\":5597:5606  employees */\n      0x02\n        /* \"Owner/employe_assignment.sol\":5597:5615  employees[account] */\n      0x00\n        /* \"Owner/employe_assignment.sol\":5607:5614  account */\n      dup6\n        /* \"Owner/employe_assignment.sol\":5597:5615  employees[account] */\n      0xffffffffffffffffffffffffffffffffffffffff\n      and\n      0xffffffffffffffffffffffffffffffffffffffff\n      and\n      dup2\n      mstore\n      0x20\n      add\n      swap1\n      dup2\n      mstore\n      0x20\n      add\n      0x00\n      keccak256\n        /* \"Owner/employe_assignment.sol\":5616:5620  role */\n      dup4\n      dup4\n        /* \"Owner/employe_assignment.sol\":5597:5621  employees[account][role] */\n      mload(0x40)\n      tag_56\n      swap3\n      swap2\n      swap1\n      tag_57\n      jump\t// in\n    tag_56:\n      swap1\n      dup2\n      mstore\n      0x20\n      add\n      mload(0x40)\n      dup1\n      swap2\n      sub\n      swap1\n      keccak256\n      0x00\n      swap1\n      sload\n      swap1\n      0x0100\n      exp\n      swap1\n      div\n      0xff\n      and\n        /* \"Owner/employe_assignment.sol\":5590:5621  return employees[account][role] */\n      swap1\n      pop\n        /* \"Owner/employe_assignment.sol\":5494:5629  function hasRole(address account, string calldata role) external view returns (bool) {... */\n      swap4\n      swap3\n      pop\n      pop\n      pop\n      jump\t// out\n        /* \"Data/Management_Wallet.sol\":1815:2076  function change_loan_contract(address payable new_loan_contract) ... */\n    tag_27:\n        /* \"Owner/employe_assignment.sol\":2350:2359  employees */\n      0x02\n        /* \"Owner/employe_assignment.sol\":2350:2371  employees[msg.sender] */\n      0x00\n        /* \"Owner/employe_assignment.sol\":2360:2370  msg.sender */\n      caller\n        /* \"Owner/employe_assignment.sol\":2350:2371  employees[msg.sender] */\n      0xffffffffffffffffffffffffffffffffffffffff\n      and\n      0xffffffffffffffffffffffffffffffffffffffff\n      and\n      dup2\n      mstore\n      0x20\n      add\n      swap1\n      dup2\n      mstore\n      0x20\n      add\n      0x00\n      keccak256\n        /* \"Owner/employe_assignment.sol\":2350:2380  employees[msg.sender][\"Admin\"] */\n      mload(0x40)\n      tag_59\n      swap1\n      tag_60\n      jump\t// in\n    tag_59:\n      swap1\n      dup2\n      mstore\n      0x20\n      add\n      mload(0x40)\n      dup1\n      swap2\n      sub\n      swap1\n      keccak256\n      0x00\n      swap1\n      sload\n      swap1\n      0x0100\n      exp\n      swap1\n      div\n      0xff\n      and\n        /* \"Owner/employe_assignment.sol\":2342:2427  require(employees[msg.sender][\"Admin\"], \"EmployeeAssignment: caller is not an admin\") */\n      tag_61\n      jumpi\n      mload(0x40)\n      0x08c379a000000000000000000000000000000000000000000000000000000000\n      dup2\n      mstore\n      0x04\n      add\n      tag_62\n      swap1\n      tag_63\n      jump\t// in\n    tag_62:\n      mload(0x40)\n      dup1\n      swap2\n      sub\n      swap1\n      revert\n    tag_61:\n        /* \"Data/Management_Wallet.sol\":917:941  zero_Address(msg.sender) */\n      tag_65\n        /* \"Data/Management_Wallet.sol\":930:940  msg.sender */\n      caller\n        /* \"Data/Management_Wallet.sol\":917:929  zero_Address */\n      tag_66\n        /* \"Data/Management_Wallet.sol\":917:941  zero_Address(msg.sender) */\n      jump\t// in\n    tag_65:\n        /* \"Data/Management_Wallet.sol\":1970:2024  AddressUtils.protectFromZeroAddress(new_loan_contract) */\n      tag_68\n        /* \"Data/Management_Wallet.sol\":2006:2023  new_loan_contract */\n      dup2\n        /* \"Data/Management_Wallet.sol\":1970:2005  AddressUtils.protectFromZeroAddress */\n      tag_69\n        /* \"Data/Management_Wallet.sol\":1970:2024  AddressUtils.protectFromZeroAddress(new_loan_contract) */\n      jump\t// in\n    tag_68:\n        /* \"Data/Management_Wallet.sol\":2051:2068  new_loan_contract */\n      dup1\n        /* \"Data/Management_Wallet.sol\":2035:2048  loan_contract */\n      0x03\n      0x00\n        /* \"Data/Management_Wallet.sol\":2035:2068  loan_contract = new_loan_contract */\n      0x0100\n      exp\n      dup2\n      sload\n      dup2\n      0xffffffffffffffffffffffffffffffffffffffff\n      mul\n      not\n      and\n      swap1\n      dup4\n      0xffffffffffffffffffffffffffffffffffffffff\n      and\n      mul\n      or\n      swap1\n      sstore\n      pop\n        /* \"Data/Management_Wallet.sol\":1815:2076  function change_loan_contract(address payable new_loan_contract) ... */\n      pop\n      jump\t// out\n        /* \"Owner/employe_assignment.sol\":4633:5265  function removeEmployee(address employee, string calldata role) external onlyOwner {... */\n    tag_31:\n        /* \"Owner/employe_assignment.sol\":1947:1952  owner */\n      0x00\n      0x00\n      swap1\n      sload\n      swap1\n      0x0100\n      exp\n      swap1\n      div\n      0xffffffffffffffffffffffffffffffffffffffff\n      and\n        /* \"Owner/employe_assignment.sol\":1933:1952  msg.sender == owner */\n      0xffffffffffffffffffffffffffffffffffffffff\n      and\n        /* \"Owner/employe_assignment.sol\":1933:1943  msg.sender */\n      caller\n        /* \"Owner/employe_assignment.sol\":1933:1952  msg.sender == owner */\n      0xffffffffffffffffffffffffffffffffffffffff\n      and\n      eq\n        /* \"Owner/employe_assignment.sol\":1925:2000  require(msg.sender == owner, \"EmployeeAssignment: caller is not the owner\") */\n      tag_71\n      jumpi\n      mload(0x40)\n      0x08c379a000000000000000000000000000000000000000000000000000000000\n      dup2\n      mstore\n      0x04\n      add\n      tag_72\n      swap1\n      tag_73\n      jump\t// in\n    tag_72:\n      mload(0x40)\n      dup1\n      swap2\n      sub\n      swap1\n      revert\n    tag_71:\n        /* \"Owner/employe_assignment.sol\":4819:4835  bytes(\"Employe\") */\n      mload(0x40)\n      dup1\n      0x40\n      add\n      0x40\n      mstore\n      dup1\n      0x07\n      dup2\n      mstore\n      0x20\n      add\n      0x456d706c6f796500000000000000000000000000000000000000000000000000\n      dup2\n      mstore\n      pop\n        /* \"Owner/employe_assignment.sol\":4809:4836  keccak256(bytes(\"Employe\")) */\n      dup1\n      mload\n      swap1\n      0x20\n      add\n      keccak256\n        /* \"Owner/employe_assignment.sol\":4799:4803  role */\n      dup3\n      dup3\n        /* \"Owner/employe_assignment.sol\":4783:4805  keccak256(bytes(role)) */\n      mload(0x40)\n      tag_75\n      swap3\n      swap2\n      swap1\n      tag_76\n      jump\t// in\n    tag_75:\n      mload(0x40)\n      dup1\n      swap2\n      sub\n      swap1\n      keccak256\n        /* \"Owner/employe_assignment.sol\":4783:4836  keccak256(bytes(role)) == keccak256(bytes(\"Employe\")) */\n      eq\n        /* \"Owner/employe_assignment.sol\":4775:4873  require(keccak256(bytes(role)) == keccak256(bytes(\"Employe\")), \"EmployeeAssignment: invalid role\") */\n      tag_77\n      jumpi\n      mload(0x40)\n      0x08c379a000000000000000000000000000000000000000000000000000000000\n      dup2\n      mstore\n      0x04\n      add\n      tag_78\n      swap1\n      tag_79\n      jump\t// in\n    tag_78:\n      mload(0x40)\n      dup1\n      swap2\n      sub\n      swap1\n      revert\n    tag_77:\n        /* \"Owner/employe_assignment.sol\":4961:4970  employees */\n      0x02\n        /* \"Owner/employe_assignment.sol\":4961:4980  employees[employee] */\n      0x00\n        /* \"Owner/employe_assignment.sol\":4971:4979  employee */\n      dup5\n        /* \"Owner/employe_assignment.sol\":4961:4980  employees[employee] */\n      0xffffffffffffffffffffffffffffffffffffffff\n      and\n      0xffffffffffffffffffffffffffffffffffffffff\n      and\n      dup2\n      mstore\n      0x20\n      add\n      swap1\n      dup2\n      mstore\n      0x20\n      add\n      0x00\n      keccak256\n        /* \"Owner/employe_assignment.sol\":4981:4985  role */\n      dup3\n      dup3\n        /* \"Owner/employe_assignment.sol\":4961:4986  employees[employee][role] */\n      mload(0x40)\n      tag_80\n      swap3\n      swap2\n      swap1\n      tag_57\n      jump\t// in\n    tag_80:\n      swap1\n      dup2\n      mstore\n      0x20\n      add\n      mload(0x40)\n      dup1\n      swap2\n      sub\n      swap1\n      keccak256\n      0x00\n      swap1\n      sload\n      swap1\n      0x0100\n      exp\n      swap1\n      div\n      0xff\n      and\n        /* \"Owner/employe_assignment.sol\":4953:5043  require(employees[employee][role], \"EmployeeAssignment: employee does not have this role\") */\n      tag_81\n      jumpi\n      mload(0x40)\n      0x08c379a000000000000000000000000000000000000000000000000000000000\n      dup2\n      mstore\n      0x04\n      add\n      tag_82\n      swap1\n      tag_83\n      jump\t// in\n    tag_82:\n      mload(0x40)\n      dup1\n      swap2\n      sub\n      swap1\n      revert\n    tag_81:\n        /* \"Owner/employe_assignment.sol\":5138:5143  false */\n      0x00\n        /* \"Owner/employe_assignment.sol\":5110:5119  employees */\n      0x02\n        /* \"Owner/employe_assignment.sol\":5110:5129  employees[employee] */\n      0x00\n        /* \"Owner/employe_assignment.sol\":5120:5128  employee */\n      dup6\n        /* \"Owner/employe_assignment.sol\":5110:5129  employees[employee] */\n      0xffffffffffffffffffffffffffffffffffffffff\n      and\n      0xffffffffffffffffffffffffffffffffffffffff\n      and\n      dup2\n      mstore\n      0x20\n      add\n      swap1\n      dup2\n      mstore\n      0x20\n      add\n      0x00\n      keccak256\n        /* \"Owner/employe_assignment.sol\":5130:5134  role */\n      dup4\n      dup4\n        /* \"Owner/employe_assignment.sol\":5110:5135  employees[employee][role] */\n      mload(0x40)\n      tag_84\n      swap3\n      swap2\n      swap1\n      tag_57\n      jump\t// in\n    tag_84:\n      swap1\n      dup2\n      mstore\n      0x20\n      add\n      mload(0x40)\n      dup1\n      swap2\n      sub\n      swap1\n      keccak256\n      0x00\n        /* \"Owner/employe_assignment.sol\":5110:5143  employees[employee][role] = false */\n      0x0100\n      exp\n      dup2\n      sload\n      dup2\n      0xff\n      mul\n      not\n      and\n      swap1\n      dup4\n      iszero\n      iszero\n      mul\n      or\n      swap1\n      sstore\n      pop\n        /* \"Owner/employe_assignment.sol\":5154:5167  employeeCount */\n      0x01\n      0x00\n        /* \"Owner/employe_assignment.sol\":5154:5169  employeeCount-- */\n      dup2\n      sload\n      dup1\n      swap3\n      swap2\n      swap1\n      tag_85\n      swap1\n      tag_86\n      jump\t// in\n    tag_85:\n      swap2\n      swap1\n      pop\n      sstore\n      pop\n        /* \"Owner/employe_assignment.sol\":5242:5250  employee */\n      dup3\n        /* \"Owner/employe_assignment.sol\":5226:5257  EmployeeRemoved(employee, role) */\n      0xffffffffffffffffffffffffffffffffffffffff\n      and\n      0xcf3bbb93629b62834974659efc838721fa2bd3b41cafd38b516ac86b661491e1\n        /* \"Owner/employe_assignment.sol\":5252:5256  role */\n      dup4\n      dup4\n        /* \"Owner/employe_assignment.sol\":5226:5257  EmployeeRemoved(employee, role) */\n      mload(0x40)\n      tag_87\n      swap3\n      swap2\n      swap1\n      tag_88\n      jump\t// in\n    tag_87:\n      mload(0x40)\n      dup1\n      swap2\n      sub\n      swap1\n      log2\n        /* \"Owner/employe_assignment.sol\":4633:5265  function removeEmployee(address employee, string calldata role) external onlyOwner {... */\n      pop\n      pop\n      pop\n      jump\t// out\n        /* \"Owner/employe_assignment.sol\":673:698  uint public employeeCount */\n    tag_34:\n      sload(0x01)\n      dup2\n      jump\t// out\n        /* \"Owner/employe_assignment.sol\":3522:4341  function assignNewEmployee(address newEmployee, string calldata role) external onlyOwner {... */\n    tag_40:\n        /* \"Owner/employe_assignment.sol\":1947:1952  owner */\n      0x00\n      0x00\n      swap1\n      sload\n      swap1\n      0x0100\n      exp\n      swap1\n      div\n      0xffffffffffffffffffffffffffffffffffffffff\n      and\n        /* \"Owner/employe_assignment.sol\":1933:1952  msg.sender == owner */\n      0xffffffffffffffffffffffffffffffffffffffff\n      and\n        /* \"Owner/employe_assignment.sol\":1933:1943  msg.sender */\n      caller\n        /* \"Owner/employe_assignment.sol\":1933:1952  msg.sender == owner */\n      0xffffffffffffffffffffffffffffffffffffffff\n      and\n      eq\n        /* \"Owner/employe_assignment.sol\":1925:2000  require(msg.sender == owner, \"EmployeeAssignment: caller is not the owner\") */\n      tag_90\n      jumpi\n      mload(0x40)\n      0x08c379a000000000000000000000000000000000000000000000000000000000\n      dup2\n      mstore\n      0x04\n      add\n      tag_91\n      swap1\n      tag_73\n      jump\t// in\n    tag_91:\n      mload(0x40)\n      dup1\n      swap2\n      sub\n      swap1\n      revert\n    tag_90:\n        /* \"Owner/employe_assignment.sol\":3714:3730  bytes(\"Employe\") */\n      mload(0x40)\n      dup1\n      0x40\n      add\n      0x40\n      mstore\n      dup1\n      0x07\n      dup2\n      mstore\n      0x20\n      add\n      0x456d706c6f796500000000000000000000000000000000000000000000000000\n      dup2\n      mstore\n      pop\n        /* \"Owner/employe_assignment.sol\":3704:3731  keccak256(bytes(\"Employe\")) */\n      dup1\n      mload\n      swap1\n      0x20\n      add\n      keccak256\n        /* \"Owner/employe_assignment.sol\":3694:3698  role */\n      dup3\n      dup3\n        /* \"Owner/employe_assignment.sol\":3678:3700  keccak256(bytes(role)) */\n      mload(0x40)\n      tag_93\n      swap3\n      swap2\n      swap1\n      tag_76\n      jump\t// in\n    tag_93:\n      mload(0x40)\n      dup1\n      swap2\n      sub\n      swap1\n      keccak256\n        /* \"Owner/employe_assignment.sol\":3678:3731  keccak256(bytes(role)) == keccak256(bytes(\"Employe\")) */\n      eq\n        /* \"Owner/employe_assignment.sol\":3670:3768  require(keccak256(bytes(role)) == keccak256(bytes(\"Employe\")), \"EmployeeAssignment: invalid role\") */\n      tag_94\n      jumpi\n      mload(0x40)\n      0x08c379a000000000000000000000000000000000000000000000000000000000\n      dup2\n      mstore\n      0x04\n      add\n      tag_95\n      swap1\n      tag_79\n      jump\t// in\n    tag_95:\n      mload(0x40)\n      dup1\n      swap2\n      sub\n      swap1\n      revert\n    tag_94:\n        /* \"Owner/employe_assignment.sol\":3875:3876  0 */\n      0x00\n        /* \"Owner/employe_assignment.sol\":3852:3877  newEmployee != address(0) */\n      0xffffffffffffffffffffffffffffffffffffffff\n      and\n        /* \"Owner/employe_assignment.sol\":3852:3863  newEmployee */\n      dup4\n        /* \"Owner/employe_assignment.sol\":3852:3877  newEmployee != address(0) */\n      0xffffffffffffffffffffffffffffffffffffffff\n      and\n      sub\n        /* \"Owner/employe_assignment.sol\":3844:3933  require(newEmployee != address(0), \"EmployeeAssignment: employee cannot be zero address\") */\n      tag_96\n      jumpi\n      mload(0x40)\n      0x08c379a000000000000000000000000000000000000000000000000000000000\n      dup2\n      mstore\n      0x04\n      add\n      tag_97\n      swap1\n      tag_98\n      jump\t// in\n    tag_97:\n      mload(0x40)\n      dup1\n      swap2\n      sub\n      swap1\n      revert\n    tag_96:\n        /* \"Owner/employe_assignment.sol\":4029:4038  employees */\n      0x02\n        /* \"Owner/employe_assignment.sol\":4029:4051  employees[newEmployee] */\n      0x00\n        /* \"Owner/employe_assignment.sol\":4039:4050  newEmployee */\n      dup5\n        /* \"Owner/employe_assignment.sol\":4029:4051  employees[newEmployee] */\n      0xffffffffffffffffffffffffffffffffffffffff\n      and\n      0xffffffffffffffffffffffffffffffffffffffff\n      and\n      dup2\n      mstore\n      0x20\n      add\n      swap1\n      dup2\n      mstore\n      0x20\n      add\n      0x00\n      keccak256\n        /* \"Owner/employe_assignment.sol\":4052:4056  role */\n      dup3\n      dup3\n        /* \"Owner/employe_assignment.sol\":4029:4057  employees[newEmployee][role] */\n      mload(0x40)\n      tag_99\n      swap3\n      swap2\n      swap1\n      tag_57\n      jump\t// in\n    tag_99:\n      swap1\n      dup2\n      mstore\n      0x20\n      add\n      mload(0x40)\n      dup1\n      swap2\n      sub\n      swap1\n      keccak256\n      0x00\n      swap1\n      sload\n      swap1\n      0x0100\n      exp\n      swap1\n      div\n      0xff\n      and\n        /* \"Owner/employe_assignment.sol\":4028:4057  !employees[newEmployee][role] */\n      iszero\n        /* \"Owner/employe_assignment.sol\":4020:4112  require(!employees[newEmployee][role], \"EmployeeAssignment: employee already has this role\") */\n      tag_100\n      jumpi\n      mload(0x40)\n      0x08c379a000000000000000000000000000000000000000000000000000000000\n      dup2\n      mstore\n      0x04\n      add\n      tag_101\n      swap1\n      tag_102\n      jump\t// in\n    tag_101:\n      mload(0x40)\n      dup1\n      swap2\n      sub\n      swap1\n      revert\n    tag_100:\n        /* \"Owner/employe_assignment.sol\":4208:4212  true */\n      0x01\n        /* \"Owner/employe_assignment.sol\":4177:4186  employees */\n      0x02\n        /* \"Owner/employe_assignment.sol\":4177:4199  employees[newEmployee] */\n      0x00\n        /* \"Owner/employe_assignment.sol\":4187:4198  newEmployee */\n      dup6\n        /* \"Owner/employe_assignment.sol\":4177:4199  employees[newEmployee] */\n      0xffffffffffffffffffffffffffffffffffffffff\n      and\n      0xffffffffffffffffffffffffffffffffffffffff\n      and\n      dup2\n      mstore\n      0x20\n      add\n      swap1\n      dup2\n      mstore\n      0x20\n      add\n      0x00\n      keccak256\n        /* \"Owner/employe_assignment.sol\":4200:4204  role */\n      dup4\n      dup4\n        /* \"Owner/employe_assignment.sol\":4177:4205  employees[newEmployee][role] */\n      mload(0x40)\n      tag_103\n      swap3\n      swap2\n      swap1\n      tag_57\n      jump\t// in\n    tag_103:\n      swap1\n      dup2\n      mstore\n      0x20\n      add\n      mload(0x40)\n      dup1\n      swap2\n      sub\n      swap1\n      keccak256\n      0x00\n        /* \"Owner/employe_assignment.sol\":4177:4212  employees[newEmployee][role] = true */\n      0x0100\n      exp\n      dup2\n      sload\n      dup2\n      0xff\n      mul\n      not\n      and\n      swap1\n      dup4\n      iszero\n      iszero\n      mul\n      or\n      swap1\n      sstore\n      pop\n        /* \"Owner/employe_assignment.sol\":4223:4236  employeeCount */\n      0x01\n      0x00\n        /* \"Owner/employe_assignment.sol\":4223:4238  employeeCount++ */\n      dup2\n      sload\n      dup1\n      swap3\n      swap2\n      swap1\n      tag_104\n      swap1\n      tag_105\n      jump\t// in\n    tag_104:\n      swap2\n      swap1\n      pop\n      sstore\n      pop\n        /* \"Owner/employe_assignment.sol\":4315:4326  newEmployee */\n      dup3\n        /* \"Owner/employe_assignment.sol\":4298:4333  EmployeeAssigned(newEmployee, role) */\n      0xffffffffffffffffffffffffffffffffffffffff\n      and\n      0x088567665d11bb1ca04896b9d3c620779f90a9f00f12488f6050a74eb11c2be5\n        /* \"Owner/employe_assignment.sol\":4328:4332  role */\n      dup4\n      dup4\n        /* \"Owner/employe_assignment.sol\":4298:4333  EmployeeAssigned(newEmployee, role) */\n      mload(0x40)\n      tag_106\n      swap3\n      swap2\n      swap1\n      tag_88\n      jump\t// in\n    tag_106:\n      mload(0x40)\n      dup1\n      swap2\n      sub\n      swap1\n      log2\n        /* \"Owner/employe_assignment.sol\":3522:4341  function assignNewEmployee(address newEmployee, string calldata role) external onlyOwner {... */\n      pop\n      pop\n      pop\n      jump\t// out\n        /* \"Owner/employe_assignment.sol\":5854:6377  function changeOwner(address newOwner) external onlyOwner {... */\n    tag_45:\n        /* \"Owner/employe_assignment.sol\":1947:1952  owner */\n      0x00\n      0x00\n      swap1\n      sload\n      swap1\n      0x0100\n      exp\n      swap1\n      div\n      0xffffffffffffffffffffffffffffffffffffffff\n      and\n        /* \"Owner/employe_assignment.sol\":1933:1952  msg.sender == owner */\n      0xffffffffffffffffffffffffffffffffffffffff\n      and\n        /* \"Owner/employe_assignment.sol\":1933:1943  msg.sender */\n      caller\n        /* \"Owner/employe_assignment.sol\":1933:1952  msg.sender == owner */\n      0xffffffffffffffffffffffffffffffffffffffff\n      and\n      eq\n        /* \"Owner/employe_assignment.sol\":1925:2000  require(msg.sender == owner, \"EmployeeAssignment: caller is not the owner\") */\n      tag_108\n      jumpi\n      mload(0x40)\n      0x08c379a000000000000000000000000000000000000000000000000000000000\n      dup2\n      mstore\n      0x04\n      add\n      tag_109\n      swap1\n      tag_73\n      jump\t// in\n    tag_109:\n      mload(0x40)\n      dup1\n      swap2\n      sub\n      swap1\n      revert\n    tag_108:\n        /* \"Owner/employe_assignment.sol\":5979:6001  zero_Address(newOwner) */\n      tag_111\n        /* \"Owner/employe_assignment.sol\":5992:6000  newOwner */\n      dup2\n        /* \"Owner/employe_assignment.sol\":5979:5991  zero_Address */\n      tag_66\n        /* \"Owner/employe_assignment.sol\":5979:6001  zero_Address(newOwner) */\n      jump\t// in\n    tag_111:\n        /* \"Owner/employe_assignment.sol\":6083:6107  zero_Address(msg.sender) */\n      tag_112\n        /* \"Owner/employe_assignment.sol\":6096:6106  msg.sender */\n      caller\n        /* \"Owner/employe_assignment.sol\":6083:6095  zero_Address */\n      tag_66\n        /* \"Owner/employe_assignment.sol\":6083:6107  zero_Address(msg.sender) */\n      jump\t// in\n    tag_112:\n        /* \"Owner/employe_assignment.sol\":6179:6195  address oldOwner */\n      0x00\n        /* \"Owner/employe_assignment.sol\":6198:6203  owner */\n      0x00\n      0x00\n      swap1\n      sload\n      swap1\n      0x0100\n      exp\n      swap1\n      div\n      0xffffffffffffffffffffffffffffffffffffffff\n      and\n        /* \"Owner/employe_assignment.sol\":6179:6203  address oldOwner = owner */\n      swap1\n      pop\n        /* \"Owner/employe_assignment.sol\":6263:6271  newOwner */\n      dup2\n        /* \"Owner/employe_assignment.sol\":6255:6260  owner */\n      0x00\n      0x00\n        /* \"Owner/employe_assignment.sol\":6255:6271  owner = newOwner */\n      0x0100\n      exp\n      dup2\n      sload\n      dup2\n      0xffffffffffffffffffffffffffffffffffffffff\n      mul\n      not\n      and\n      swap1\n      dup4\n      0xffffffffffffffffffffffffffffffffffffffff\n      and\n      mul\n      or\n      swap1\n      sstore\n      pop\n        /* \"Owner/employe_assignment.sol\":6360:6368  newOwner */\n      dup2\n        /* \"Owner/employe_assignment.sol\":6337:6369  OwnerChanged(oldOwner, newOwner) */\n      0xffffffffffffffffffffffffffffffffffffffff\n      and\n        /* \"Owner/employe_assignment.sol\":6350:6358  oldOwner */\n      dup2\n        /* \"Owner/employe_assignment.sol\":6337:6369  OwnerChanged(oldOwner, newOwner) */\n      0xffffffffffffffffffffffffffffffffffffffff\n      and\n      0xb532073b38c83145e3e5135377a08bf9aab55bc0fd7c1179cd4fb995d2a5159c\n      mload(0x40)\n      mload(0x40)\n      dup1\n      swap2\n      sub\n      swap1\n      log3\n        /* \"Owner/employe_assignment.sol\":5912:6377  {... */\n      pop\n        /* \"Owner/employe_assignment.sol\":5854:6377  function changeOwner(address newOwner) external onlyOwner {... */\n      pop\n      jump\t// out\n        /* \"Data/Management_Wallet.sol\":1308:1690  function transfer_to_loan_contract(uint amount) ... */\n    tag_50:\n        /* \"Owner/employe_assignment.sol\":2350:2359  employees */\n      0x02\n        /* \"Owner/employe_assignment.sol\":2350:2371  employees[msg.sender] */\n      0x00\n        /* \"Owner/employe_assignment.sol\":2360:2370  msg.sender */\n      caller\n        /* \"Owner/employe_assignment.sol\":2350:2371  employees[msg.sender] */\n      0xffffffffffffffffffffffffffffffffffffffff\n      and\n      0xffffffffffffffffffffffffffffffffffffffff\n      and\n      dup2\n      mstore\n      0x20\n      add\n      swap1\n      dup2\n      mstore\n      0x20\n      add\n      0x00\n      keccak256\n        /* \"Owner/employe_assignment.sol\":2350:2380  employees[msg.sender][\"Admin\"] */\n      mload(0x40)\n      tag_114\n      swap1\n      tag_60\n      jump\t// in\n    tag_114:\n      swap1\n      dup2\n      mstore\n      0x20\n      add\n      mload(0x40)\n      dup1\n      swap2\n      sub\n      swap1\n      keccak256\n      0x00\n      swap1\n      sload\n      swap1\n      0x0100\n      exp\n      swap1\n      div\n      0xff\n      and\n        /* \"Owner/employe_assignment.sol\":2342:2427  require(employees[msg.sender][\"Admin\"], \"EmployeeAssignment: caller is not an admin\") */\n      tag_115\n      jumpi\n      mload(0x40)\n      0x08c379a000000000000000000000000000000000000000000000000000000000\n      dup2\n      mstore\n      0x04\n      add\n      tag_116\n      swap1\n      tag_63\n      jump\t// in\n    tag_116:\n      mload(0x40)\n      dup1\n      swap2\n      sub\n      swap1\n      revert\n    tag_115:\n        /* \"Data/Management_Wallet.sol\":917:941  zero_Address(msg.sender) */\n      tag_118\n        /* \"Data/Management_Wallet.sol\":930:940  msg.sender */\n      caller\n        /* \"Data/Management_Wallet.sol\":917:929  zero_Address */\n      tag_66\n        /* \"Data/Management_Wallet.sol\":917:941  zero_Address(msg.sender) */\n      jump\t// in\n    tag_118:\n        /* \"Data/Management_Wallet.sol\":1445:1475  regular.greater_than_0(amount) */\n      tag_120\n        /* \"Data/Management_Wallet.sol\":1468:1474  amount */\n      dup2\n        /* \"Data/Management_Wallet.sol\":1445:1467  regular.greater_than_0 */\n      tag_121\n        /* \"Data/Management_Wallet.sol\":1445:1475  regular.greater_than_0(amount) */\n      jump\t// in\n    tag_120:\n        /* \"Data/Management_Wallet.sol\":1519:1525  amount */\n      dup1\n        /* \"Data/Management_Wallet.sol\":1494:1515  address(this).balance */\n      selfbalance\n        /* \"Data/Management_Wallet.sol\":1494:1525  address(this).balance >= amount */\n      lt\n      iszero\n        /* \"Data/Management_Wallet.sol\":1486:1550  require(address(this).balance >= amount, \"insufficient balance\") */\n      tag_122\n      jumpi\n      mload(0x40)\n      0x08c379a000000000000000000000000000000000000000000000000000000000\n      dup2\n      mstore\n      0x04\n      add\n      tag_123\n      swap1\n      tag_124\n      jump\t// in\n    tag_123:\n      mload(0x40)\n      dup1\n      swap2\n      sub\n      swap1\n      revert\n    tag_122:\n        /* \"Data/Management_Wallet.sol\":1564:1576  bool success */\n      0x00\n        /* \"Data/Management_Wallet.sol\":1582:1595  loan_contract */\n      0x03\n      0x00\n      swap1\n      sload\n      swap1\n      0x0100\n      exp\n      swap1\n      div\n      0xffffffffffffffffffffffffffffffffffffffff\n      and\n        /* \"Data/Management_Wallet.sol\":1582:1600  loan_contract.call */\n      0xffffffffffffffffffffffffffffffffffffffff\n      and\n        /* \"Data/Management_Wallet.sol\":1608:1614  amount */\n      dup3\n        /* \"Data/Management_Wallet.sol\":1582:1619  loan_contract.call{value: amount}(\"\") */\n      mload(0x40)\n      tag_125\n      swap1\n      tag_126\n      jump\t// in\n    tag_125:\n      0x00\n      mload(0x40)\n      dup1\n      dup4\n      sub\n      dup2\n      dup6\n      dup8\n      gas\n      call\n      swap3\n      pop\n      pop\n      pop\n      returndatasize\n      dup1\n      0x00\n      dup2\n      eq\n      tag_129\n      jumpi\n      mload(0x40)\n      swap2\n      pop\n      and(add(returndatasize, 0x3f), not(0x1f))\n      dup3\n      add\n      0x40\n      mstore\n      returndatasize\n      dup3\n      mstore\n      returndatasize\n      0x00\n      0x20\n      dup5\n      add\n      returndatacopy\n      jump(tag_128)\n    tag_129:\n      0x60\n      swap2\n      pop\n    tag_128:\n      pop\n        /* \"Data/Management_Wallet.sol\":1563:1619  (bool success, ) = loan_contract.call{value: amount}(\"\") */\n      pop\n      swap1\n      pop\n        /* \"Data/Management_Wallet.sol\":1638:1645  success */\n      dup1\n        /* \"Data/Management_Wallet.sol\":1630:1682  require(success, \"transfer to loan contract failed\") */\n      tag_130\n      jumpi\n      mload(0x40)\n      0x08c379a000000000000000000000000000000000000000000000000000000000\n      dup2\n      mstore\n      0x04\n      add\n      tag_131\n      swap1\n      tag_132\n      jump\t// in\n    tag_131:\n      mload(0x40)\n      dup1\n      swap2\n      sub\n      swap1\n      revert\n    tag_130:\n        /* \"Data/Management_Wallet.sol\":1434:1690  {... */\n      pop\n        /* \"Data/Management_Wallet.sol\":1308:1690  function transfer_to_loan_contract(uint amount) ... */\n      pop\n      jump\t// out\n        /* \"Data/Management_Wallet.sol\":2390:2611  function see_contract_balances() ... */\n    tag_53:\n        /* \"Data/Management_Wallet.sol\":2529:2542  uint balances */\n      0x00\n        /* \"Owner/employe_assignment.sol\":2350:2359  employees */\n      0x02\n        /* \"Owner/employe_assignment.sol\":2350:2371  employees[msg.sender] */\n      0x00\n        /* \"Owner/employe_assignment.sol\":2360:2370  msg.sender */\n      caller\n        /* \"Owner/employe_assignment.sol\":2350:2371  employees[msg.sender] */\n      0xffffffffffffffffffffffffffffffffffffffff\n      and\n      0xffffffffffffffffffffffffffffffffffffffff\n      and\n      dup2\n      mstore\n      0x20\n      add\n      swap1\n      dup2\n      mstore\n      0x20\n      add\n      0x00\n      keccak256\n        /* \"Owner/employe_assignment.sol\":2350:2380  employees[msg.sender][\"Admin\"] */\n      mload(0x40)\n      tag_134\n      swap1\n      tag_60\n      jump\t// in\n    tag_134:\n      swap1\n      dup2\n      mstore\n      0x20\n      add\n      mload(0x40)\n      dup1\n      swap2\n      sub\n      swap1\n      keccak256\n      0x00\n      swap1\n      sload\n      swap1\n      0x0100\n      exp\n      swap1\n      div\n      0xff\n      and\n        /* \"Owner/employe_assignment.sol\":2342:2427  require(employees[msg.sender][\"Admin\"], \"EmployeeAssignment: caller is not an admin\") */\n      tag_135\n      jumpi\n      mload(0x40)\n      0x08c379a000000000000000000000000000000000000000000000000000000000\n      dup2\n      mstore\n      0x04\n      add\n      tag_136\n      swap1\n      tag_63\n      jump\t// in\n    tag_136:\n      mload(0x40)\n      dup1\n      swap2\n      sub\n      swap1\n      revert\n    tag_135:\n        /* \"Data/Management_Wallet.sol\":917:941  zero_Address(msg.sender) */\n      tag_138\n        /* \"Data/Management_Wallet.sol\":930:940  msg.sender */\n      caller\n        /* \"Data/Management_Wallet.sol\":917:929  zero_Address */\n      tag_66\n        /* \"Data/Management_Wallet.sol\":917:941  zero_Address(msg.sender) */\n      jump\t// in\n    tag_138:\n        /* \"Data/Management_Wallet.sol\":2596:2603  1 ether */\n      0x0de0b6b3a7640000\n        /* \"Data/Management_Wallet.sol\":2572:2593  address(this).balance */\n      selfbalance\n        /* \"Data/Management_Wallet.sol\":2572:2603  address(this).balance / 1 ether */\n      tag_140\n      swap2\n      swap1\n      tag_141\n      jump\t// in\n    tag_140:\n        /* \"Data/Management_Wallet.sol\":2561:2603  balances = address(this).balance / 1 ether */\n      swap1\n      pop\n        /* \"Data/Management_Wallet.sol\":2390:2611  function see_contract_balances() ... */\n      swap1\n      jump\t// out\n        /* \"Owner/employe_assignment.sol\":2980:3118  function zero_Address(address x) internal pure {... */\n    tag_66:\n        /* \"Owner/employe_assignment.sol\":3059:3060  0 */\n      0x00\n        /* \"Owner/employe_assignment.sol\":3046:3061  x != address(0) */\n      0xffffffffffffffffffffffffffffffffffffffff\n      and\n        /* \"Owner/employe_assignment.sol\":3046:3047  x */\n      dup2\n        /* \"Owner/employe_assignment.sol\":3046:3061  x != address(0) */\n      0xffffffffffffffffffffffffffffffffffffffff\n      and\n      sub\n        /* \"Owner/employe_assignment.sol\":3038:3110  require(x != address(0), \"EmployeeAssignment: zero address not allowed\") */\n      tag_143\n      jumpi\n      mload(0x40)\n      0x08c379a000000000000000000000000000000000000000000000000000000000\n      dup2\n      mstore\n      0x04\n      add\n      tag_144\n      swap1\n      tag_145\n      jump\t// in\n    tag_144:\n      mload(0x40)\n      dup1\n      swap2\n      sub\n      swap1\n      revert\n    tag_143:\n        /* \"Owner/employe_assignment.sol\":2980:3118  function zero_Address(address x) internal pure {... */\n      pop\n      jump\t// out\n        /* \"lib/addresUtils.sol\":289:418  function   protectFromZeroAddress(address self) internal pure {... */\n    tag_69:\n        /* \"lib/addresUtils.sol\":386:387  0 */\n      0x00\n        /* \"lib/addresUtils.sol\":370:388  self != address(0) */\n      0xffffffffffffffffffffffffffffffffffffffff\n      and\n        /* \"lib/addresUtils.sol\":370:374  self */\n      dup2\n        /* \"lib/addresUtils.sol\":370:388  self != address(0) */\n      0xffffffffffffffffffffffffffffffffffffffff\n      and\n      sub\n        /* \"lib/addresUtils.sol\":362:410  require(self != address(0), \"ERR: zero address\") */\n      tag_147\n      jumpi\n      mload(0x40)\n      0x08c379a000000000000000000000000000000000000000000000000000000000\n      dup2\n      mstore\n      0x04\n      add\n      tag_148\n      swap1\n      tag_149\n      jump\t// in\n    tag_148:\n      mload(0x40)\n      dup1\n      swap2\n      sub\n      swap1\n      revert\n    tag_147:\n        /* \"lib/addresUtils.sol\":289:418  function   protectFromZeroAddress(address self) internal pure {... */\n      pop\n      jump\t// out\n        /* \"lib/regular.sol\":84:195  function greater_than_0(uint num) internal pure {... */\n    tag_121:\n        /* \"lib/regular.sol\":157:158  0 */\n      0x00\n        /* \"lib/regular.sol\":151:154  num */\n      dup2\n        /* \"lib/regular.sol\":151:158  num > 0 */\n      gt\n        /* \"lib/regular.sol\":143:187  require(num > 0, \"Must be greater than 0 !\") */\n      tag_151\n      jumpi\n      mload(0x40)\n      0x08c379a000000000000000000000000000000000000000000000000000000000\n      dup2\n      mstore\n      0x04\n      add\n      tag_152\n      swap1\n      tag_153\n      jump\t// in\n    tag_152:\n      mload(0x40)\n      dup1\n      swap2\n      sub\n      swap1\n      revert\n    tag_151:\n        /* \"lib/regular.sol\":84:195  function greater_than_0(uint num) internal pure {... */\n      pop\n      jump\t// out\n        /* \"#utility.yul\":88:205   */\n    tag_155:\n        /* \"#utility.yul\":197:198   */\n      0x00\n        /* \"#utility.yul\":194:195   */\n      0x00\n        /* \"#utility.yul\":187:199   */\n      revert\n        /* \"#utility.yul\":211:328   */\n    tag_156:\n        /* \"#utility.yul\":320:321   */\n      0x00\n        /* \"#utility.yul\":317:318   */\n      0x00\n        /* \"#utility.yul\":310:322   */\n      revert\n        /* \"#utility.yul\":334:460   */\n    tag_157:\n        /* \"#utility.yul\":371:378   */\n      0x00\n        /* \"#utility.yul\":411:453   */\n      0xffffffffffffffffffffffffffffffffffffffff\n        /* \"#utility.yul\":404:409   */\n      dup3\n        /* \"#utility.yul\":400:454   */\n      and\n        /* \"#utility.yul\":389:454   */\n      swap1\n      pop\n        /* \"#utility.yul\":334:460   */\n      swap2\n      swap1\n      pop\n      jump\t// out\n        /* \"#utility.yul\":466:562   */\n    tag_158:\n        /* \"#utility.yul\":503:510   */\n      0x00\n        /* \"#utility.yul\":532:556   */\n      tag_216\n        /* \"#utility.yul\":550:555   */\n      dup3\n        /* \"#utility.yul\":532:556   */\n      tag_157\n      jump\t// in\n    tag_216:\n        /* \"#utility.yul\":521:556   */\n      swap1\n      pop\n        /* \"#utility.yul\":466:562   */\n      swap2\n      swap1\n      pop\n      jump\t// out\n        /* \"#utility.yul\":568:690   */\n    tag_159:\n        /* \"#utility.yul\":641:665   */\n      tag_218\n        /* \"#utility.yul\":659:664   */\n      dup2\n        /* \"#utility.yul\":641:665   */\n      tag_158\n      jump\t// in\n    tag_218:\n        /* \"#utility.yul\":634:639   */\n      dup2\n        /* \"#utility.yul\":631:666   */\n      eq\n        /* \"#utility.yul\":621:684   */\n      tag_219\n      jumpi\n        /* \"#utility.yul\":680:681   */\n      0x00\n        /* \"#utility.yul\":677:678   */\n      0x00\n        /* \"#utility.yul\":670:682   */\n      revert\n        /* \"#utility.yul\":621:684   */\n    tag_219:\n        /* \"#utility.yul\":568:690   */\n      pop\n      jump\t// out\n        /* \"#utility.yul\":696:835   */\n    tag_160:\n        /* \"#utility.yul\":742:747   */\n      0x00\n        /* \"#utility.yul\":780:786   */\n      dup2\n        /* \"#utility.yul\":767:787   */\n      calldataload\n        /* \"#utility.yul\":758:787   */\n      swap1\n      pop\n        /* \"#utility.yul\":796:829   */\n      tag_221\n        /* \"#utility.yul\":823:828   */\n      dup2\n        /* \"#utility.yul\":796:829   */\n      tag_159\n      jump\t// in\n    tag_221:\n        /* \"#utility.yul\":696:835   */\n      swap3\n      swap2\n      pop\n      pop\n      jump\t// out\n        /* \"#utility.yul\":841:958   */\n    tag_161:\n        /* \"#utility.yul\":950:951   */\n      0x00\n        /* \"#utility.yul\":947:948   */\n      0x00\n        /* \"#utility.yul\":940:952   */\n      revert\n        /* \"#utility.yul\":964:1081   */\n    tag_162:\n        /* \"#utility.yul\":1073:1074   */\n      0x00\n        /* \"#utility.yul\":1070:1071   */\n      0x00\n        /* \"#utility.yul\":1063:1075   */\n      revert\n        /* \"#utility.yul\":1087:1204   */\n    tag_163:\n        /* \"#utility.yul\":1196:1197   */\n      0x00\n        /* \"#utility.yul\":1193:1194   */\n      0x00\n        /* \"#utility.yul\":1186:1198   */\n      revert\n        /* \"#utility.yul\":1224:1777   */\n    tag_164:\n        /* \"#utility.yul\":1282:1290   */\n      0x00\n        /* \"#utility.yul\":1292:1298   */\n      0x00\n        /* \"#utility.yul\":1342:1345   */\n      dup4\n        /* \"#utility.yul\":1335:1339   */\n      0x1f\n        /* \"#utility.yul\":1327:1333   */\n      dup5\n        /* \"#utility.yul\":1323:1340   */\n      add\n        /* \"#utility.yul\":1319:1346   */\n      slt\n        /* \"#utility.yul\":1309:1431   */\n      tag_226\n      jumpi\n        /* \"#utility.yul\":1350:1429   */\n      tag_227\n      tag_161\n      jump\t// in\n    tag_227:\n        /* \"#utility.yul\":1309:1431   */\n    tag_226:\n        /* \"#utility.yul\":1463:1469   */\n      dup3\n        /* \"#utility.yul\":1450:1470   */\n      calldataload\n        /* \"#utility.yul\":1440:1470   */\n      swap1\n      pop\n        /* \"#utility.yul\":1493:1511   */\n      0xffffffffffffffff\n        /* \"#utility.yul\":1485:1491   */\n      dup2\n        /* \"#utility.yul\":1482:1512   */\n      gt\n        /* \"#utility.yul\":1479:1596   */\n      iszero\n      tag_228\n      jumpi\n        /* \"#utility.yul\":1515:1594   */\n      tag_229\n      tag_162\n      jump\t// in\n    tag_229:\n        /* \"#utility.yul\":1479:1596   */\n    tag_228:\n        /* \"#utility.yul\":1629:1633   */\n      0x20\n        /* \"#utility.yul\":1621:1627   */\n      dup4\n        /* \"#utility.yul\":1617:1634   */\n      add\n        /* \"#utility.yul\":1605:1634   */\n      swap2\n      pop\n        /* \"#utility.yul\":1683:1686   */\n      dup4\n        /* \"#utility.yul\":1675:1679   */\n      0x01\n        /* \"#utility.yul\":1667:1673   */\n      dup3\n        /* \"#utility.yul\":1663:1680   */\n      mul\n        /* \"#utility.yul\":1653:1661   */\n      dup4\n        /* \"#utility.yul\":1649:1681   */\n      add\n        /* \"#utility.yul\":1646:1687   */\n      gt\n        /* \"#utility.yul\":1643:1771   */\n      iszero\n      tag_230\n      jumpi\n        /* \"#utility.yul\":1690:1769   */\n      tag_231\n      tag_163\n      jump\t// in\n    tag_231:\n        /* \"#utility.yul\":1643:1771   */\n    tag_230:\n        /* \"#utility.yul\":1224:1777   */\n      swap3\n      pop\n      swap3\n      swap1\n      pop\n      jump\t// out\n        /* \"#utility.yul\":1783:2457   */\n    tag_19:\n        /* \"#utility.yul\":1863:1869   */\n      0x00\n        /* \"#utility.yul\":1871:1877   */\n      0x00\n        /* \"#utility.yul\":1879:1885   */\n      0x00\n        /* \"#utility.yul\":1928:1930   */\n      0x40\n        /* \"#utility.yul\":1916:1925   */\n      dup5\n        /* \"#utility.yul\":1907:1914   */\n      dup7\n        /* \"#utility.yul\":1903:1926   */\n      sub\n        /* \"#utility.yul\":1899:1931   */\n      slt\n        /* \"#utility.yul\":1896:2015   */\n      iszero\n      tag_233\n      jumpi\n        /* \"#utility.yul\":1934:2013   */\n      tag_234\n      tag_155\n      jump\t// in\n    tag_234:\n        /* \"#utility.yul\":1896:2015   */\n    tag_233:\n        /* \"#utility.yul\":2054:2055   */\n      0x00\n        /* \"#utility.yul\":2079:2132   */\n      tag_235\n        /* \"#utility.yul\":2124:2131   */\n      dup7\n        /* \"#utility.yul\":2115:2121   */\n      dup3\n        /* \"#utility.yul\":2104:2113   */\n      dup8\n        /* \"#utility.yul\":2100:2122   */\n      add\n        /* \"#utility.yul\":2079:2132   */\n      tag_160\n      jump\t// in\n    tag_235:\n        /* \"#utility.yul\":2069:2132   */\n      swap4\n      pop\n        /* \"#utility.yul\":2025:2142   */\n      pop\n        /* \"#utility.yul\":2209:2211   */\n      0x20\n        /* \"#utility.yul\":2198:2207   */\n      dup5\n        /* \"#utility.yul\":2194:2212   */\n      add\n        /* \"#utility.yul\":2181:2213   */\n      calldataload\n        /* \"#utility.yul\":2240:2258   */\n      0xffffffffffffffff\n        /* \"#utility.yul\":2232:2238   */\n      dup2\n        /* \"#utility.yul\":2229:2259   */\n      gt\n        /* \"#utility.yul\":2226:2343   */\n      iszero\n      tag_236\n      jumpi\n        /* \"#utility.yul\":2262:2341   */\n      tag_237\n      tag_156\n      jump\t// in\n    tag_237:\n        /* \"#utility.yul\":2226:2343   */\n    tag_236:\n        /* \"#utility.yul\":2375:2440   */\n      tag_238\n        /* \"#utility.yul\":2432:2439   */\n      dup7\n        /* \"#utility.yul\":2423:2429   */\n      dup3\n        /* \"#utility.yul\":2412:2421   */\n      dup8\n        /* \"#utility.yul\":2408:2430   */\n      add\n        /* \"#utility.yul\":2375:2440   */\n      tag_164\n      jump\t// in\n    tag_238:\n        /* \"#utility.yul\":2357:2440   */\n      swap3\n      pop\n      swap3\n      pop\n        /* \"#utility.yul\":2152:2450   */\n      pop\n        /* \"#utility.yul\":1783:2457   */\n      swap3\n      pop\n      swap3\n      pop\n      swap3\n      jump\t// out\n        /* \"#utility.yul\":2463:2553   */\n    tag_165:\n        /* \"#utility.yul\":2497:2504   */\n      0x00\n        /* \"#utility.yul\":2540:2545   */\n      dup2\n        /* \"#utility.yul\":2533:2546   */\n      iszero\n        /* \"#utility.yul\":2526:2547   */\n      iszero\n        /* \"#utility.yul\":2515:2547   */\n      swap1\n      pop\n        /* \"#utility.yul\":2463:2553   */\n      swap2\n      swap1\n      pop\n      jump\t// out\n        /* \"#utility.yul\":2559:2668   */\n    tag_166:\n        /* \"#utility.yul\":2640:2661   */\n      tag_241\n        /* \"#utility.yul\":2655:2660   */\n      dup2\n        /* \"#utility.yul\":2640:2661   */\n      tag_165\n      jump\t// in\n    tag_241:\n        /* \"#utility.yul\":2635:2638   */\n      dup3\n        /* \"#utility.yul\":2628:2662   */\n      mstore\n        /* \"#utility.yul\":2559:2668   */\n      pop\n      pop\n      jump\t// out\n        /* \"#utility.yul\":2674:2884   */\n    tag_22:\n        /* \"#utility.yul\":2761:2765   */\n      0x00\n        /* \"#utility.yul\":2799:2801   */\n      0x20\n        /* \"#utility.yul\":2788:2797   */\n      dup3\n        /* \"#utility.yul\":2784:2802   */\n      add\n        /* \"#utility.yul\":2776:2802   */\n      swap1\n      pop\n        /* \"#utility.yul\":2812:2877   */\n      tag_243\n        /* \"#utility.yul\":2874:2875   */\n      0x00\n        /* \"#utility.yul\":2863:2872   */\n      dup4\n        /* \"#utility.yul\":2859:2876   */\n      add\n        /* \"#utility.yul\":2850:2856   */\n      dup5\n        /* \"#utility.yul\":2812:2877   */\n      tag_166\n      jump\t// in\n    tag_243:\n        /* \"#utility.yul\":2674:2884   */\n      swap3\n      swap2\n      pop\n      pop\n      jump\t// out\n        /* \"#utility.yul\":2890:2994   */\n    tag_167:\n        /* \"#utility.yul\":2935:2942   */\n      0x00\n        /* \"#utility.yul\":2964:2988   */\n      tag_245\n        /* \"#utility.yul\":2982:2987   */\n      dup3\n        /* \"#utility.yul\":2964:2988   */\n      tag_157\n      jump\t// in\n    tag_245:\n        /* \"#utility.yul\":2953:2988   */\n      swap1\n      pop\n        /* \"#utility.yul\":2890:2994   */\n      swap2\n      swap1\n      pop\n      jump\t// out\n        /* \"#utility.yul\":3000:3138   */\n    tag_168:\n        /* \"#utility.yul\":3081:3113   */\n      tag_247\n        /* \"#utility.yul\":3107:3112   */\n      dup2\n        /* \"#utility.yul\":3081:3113   */\n      tag_167\n      jump\t// in\n    tag_247:\n        /* \"#utility.yul\":3074:3079   */\n      dup2\n        /* \"#utility.yul\":3071:3114   */\n      eq\n        /* \"#utility.yul\":3061:3132   */\n      tag_248\n      jumpi\n        /* \"#utility.yul\":3128:3129   */\n      0x00\n        /* \"#utility.yul\":3125:3126   */\n      0x00\n        /* \"#utility.yul\":3118:3130   */\n      revert\n        /* \"#utility.yul\":3061:3132   */\n    tag_248:\n        /* \"#utility.yul\":3000:3138   */\n      pop\n      jump\t// out\n        /* \"#utility.yul\":3144:3299   */\n    tag_169:\n        /* \"#utility.yul\":3198:3203   */\n      0x00\n        /* \"#utility.yul\":3236:3242   */\n      dup2\n        /* \"#utility.yul\":3223:3243   */\n      calldataload\n        /* \"#utility.yul\":3214:3243   */\n      swap1\n      pop\n        /* \"#utility.yul\":3252:3293   */\n      tag_250\n        /* \"#utility.yul\":3287:3292   */\n      dup2\n        /* \"#utility.yul\":3252:3293   */\n      tag_168\n      jump\t// in\n    tag_250:\n        /* \"#utility.yul\":3144:3299   */\n      swap3\n      swap2\n      pop\n      pop\n      jump\t// out\n        /* \"#utility.yul\":3305:3650   */\n    tag_26:\n        /* \"#utility.yul\":3372:3378   */\n      0x00\n        /* \"#utility.yul\":3421:3423   */\n      0x20\n        /* \"#utility.yul\":3409:3418   */\n      dup3\n        /* \"#utility.yul\":3400:3407   */\n      dup5\n        /* \"#utility.yul\":3396:3419   */\n      sub\n        /* \"#utility.yul\":3392:3424   */\n      slt\n        /* \"#utility.yul\":3389:3508   */\n      iszero\n      tag_252\n      jumpi\n        /* \"#utility.yul\":3427:3506   */\n      tag_253\n      tag_155\n      jump\t// in\n    tag_253:\n        /* \"#utility.yul\":3389:3508   */\n    tag_252:\n        /* \"#utility.yul\":3547:3548   */\n      0x00\n        /* \"#utility.yul\":3572:3633   */\n      tag_254\n        /* \"#utility.yul\":3625:3632   */\n      dup5\n        /* \"#utility.yul\":3616:3622   */\n      dup3\n        /* \"#utility.yul\":3605:3614   */\n      dup6\n        /* \"#utility.yul\":3601:3623   */\n      add\n        /* \"#utility.yul\":3572:3633   */\n      tag_169\n      jump\t// in\n    tag_254:\n        /* \"#utility.yul\":3562:3633   */\n      swap2\n      pop\n        /* \"#utility.yul\":3518:3643   */\n      pop\n        /* \"#utility.yul\":3305:3650   */\n      swap3\n      swap2\n      pop\n      pop\n      jump\t// out\n        /* \"#utility.yul\":3656:3733   */\n    tag_170:\n        /* \"#utility.yul\":3693:3700   */\n      0x00\n        /* \"#utility.yul\":3722:3727   */\n      dup2\n        /* \"#utility.yul\":3711:3727   */\n      swap1\n      pop\n        /* \"#utility.yul\":3656:3733   */\n      swap2\n      swap1\n      pop\n      jump\t// out\n        /* \"#utility.yul\":3739:3857   */\n    tag_171:\n        /* \"#utility.yul\":3826:3850   */\n      tag_257\n        /* \"#utility.yul\":3844:3849   */\n      dup2\n        /* \"#utility.yul\":3826:3850   */\n      tag_170\n      jump\t// in\n    tag_257:\n        /* \"#utility.yul\":3821:3824   */\n      dup3\n        /* \"#utility.yul\":3814:3851   */\n      mstore\n        /* \"#utility.yul\":3739:3857   */\n      pop\n      pop\n      jump\t// out\n        /* \"#utility.yul\":3863:4085   */\n    tag_36:\n        /* \"#utility.yul\":3956:3960   */\n      0x00\n        /* \"#utility.yul\":3994:3996   */\n      0x20\n        /* \"#utility.yul\":3983:3992   */\n      dup3\n        /* \"#utility.yul\":3979:3997   */\n      add\n        /* \"#utility.yul\":3971:3997   */\n      swap1\n      pop\n        /* \"#utility.yul\":4007:4078   */\n      tag_259\n        /* \"#utility.yul\":4075:4076   */\n      0x00\n        /* \"#utility.yul\":4064:4073   */\n      dup4\n        /* \"#utility.yul\":4060:4077   */\n      add\n        /* \"#utility.yul\":4051:4057   */\n      dup5\n        /* \"#utility.yul\":4007:4078   */\n      tag_171\n      jump\t// in\n    tag_259:\n        /* \"#utility.yul\":3863:4085   */\n      swap3\n      swap2\n      pop\n      pop\n      jump\t// out\n        /* \"#utility.yul\":4091:4420   */\n    tag_44:\n        /* \"#utility.yul\":4150:4156   */\n      0x00\n        /* \"#utility.yul\":4199:4201   */\n      0x20\n        /* \"#utility.yul\":4187:4196   */\n      dup3\n        /* \"#utility.yul\":4178:4185   */\n      dup5\n        /* \"#utility.yul\":4174:4197   */\n      sub\n        /* \"#utility.yul\":4170:4202   */\n      slt\n        /* \"#utility.yul\":4167:4286   */\n      iszero\n      tag_261\n      jumpi\n        /* \"#utility.yul\":4205:4284   */\n      tag_262\n      tag_155\n      jump\t// in\n    tag_262:\n        /* \"#utility.yul\":4167:4286   */\n    tag_261:\n        /* \"#utility.yul\":4325:4326   */\n      0x00\n        /* \"#utility.yul\":4350:4403   */\n      tag_263\n        /* \"#utility.yul\":4395:4402   */\n      dup5\n        /* \"#utility.yul\":4386:4392   */\n      dup3\n        /* \"#utility.yul\":4375:4384   */\n      dup6\n        /* \"#utility.yul\":4371:4393   */\n      add\n        /* \"#utility.yul\":4350:4403   */\n      tag_160\n      jump\t// in\n    tag_263:\n        /* \"#utility.yul\":4340:4403   */\n      swap2\n      pop\n        /* \"#utility.yul\":4296:4413   */\n      pop\n        /* \"#utility.yul\":4091:4420   */\n      swap3\n      swap2\n      pop\n      pop\n      jump\t// out\n        /* \"#utility.yul\":4426:4548   */\n    tag_172:\n        /* \"#utility.yul\":4499:4523   */\n      tag_265\n        /* \"#utility.yul\":4517:4522   */\n      dup2\n        /* \"#utility.yul\":4499:4523   */\n      tag_170\n      jump\t// in\n    tag_265:\n        /* \"#utility.yul\":4492:4497   */\n      dup2\n        /* \"#utility.yul\":4489:4524   */\n      eq\n        /* \"#utility.yul\":4479:4542   */\n      tag_266\n      jumpi\n        /* \"#utility.yul\":4538:4539   */\n      0x00\n        /* \"#utility.yul\":4535:4536   */\n      0x00\n        /* \"#utility.yul\":4528:4540   */\n      revert\n        /* \"#utility.yul\":4479:4542   */\n    tag_266:\n        /* \"#utility.yul\":4426:4548   */\n      pop\n      jump\t// out\n        /* \"#utility.yul\":4554:4693   */\n    tag_173:\n        /* \"#utility.yul\":4600:4605   */\n      0x00\n        /* \"#utility.yul\":4638:4644   */\n      dup2\n        /* \"#utility.yul\":4625:4645   */\n      calldataload\n        /* \"#utility.yul\":4616:4645   */\n      swap1\n      pop\n        /* \"#utility.yul\":4654:4687   */\n      tag_268\n        /* \"#utility.yul\":4681:4686   */\n      dup2\n        /* \"#utility.yul\":4654:4687   */\n      tag_172\n      jump\t// in\n    tag_268:\n        /* \"#utility.yul\":4554:4693   */\n      swap3\n      swap2\n      pop\n      pop\n      jump\t// out\n        /* \"#utility.yul\":4699:5028   */\n    tag_49:\n        /* \"#utility.yul\":4758:4764   */\n      0x00\n        /* \"#utility.yul\":4807:4809   */\n      0x20\n        /* \"#utility.yul\":4795:4804   */\n      dup3\n        /* \"#utility.yul\":4786:4793   */\n      dup5\n        /* \"#utility.yul\":4782:4805   */\n      sub\n        /* \"#utility.yul\":4778:4810   */\n      slt\n        /* \"#utility.yul\":4775:4894   */\n      iszero\n      tag_270\n      jumpi\n        /* \"#utility.yul\":4813:4892   */\n      tag_271\n      tag_155\n      jump\t// in\n    tag_271:\n        /* \"#utility.yul\":4775:4894   */\n    tag_270:\n        /* \"#utility.yul\":4933:4934   */\n      0x00\n        /* \"#utility.yul\":4958:5011   */\n      tag_272\n        /* \"#utility.yul\":5003:5010   */\n      dup5\n        /* \"#utility.yul\":4994:5000   */\n      dup3\n        /* \"#utility.yul\":4983:4992   */\n      dup6\n        /* \"#utility.yul\":4979:5001   */\n      add\n        /* \"#utility.yul\":4958:5011   */\n      tag_173\n      jump\t// in\n    tag_272:\n        /* \"#utility.yul\":4948:5011   */\n      swap2\n      pop\n        /* \"#utility.yul\":4904:5021   */\n      pop\n        /* \"#utility.yul\":4699:5028   */\n      swap3\n      swap2\n      pop\n      pop\n      jump\t// out\n        /* \"#utility.yul\":5034:5182   */\n    tag_174:\n        /* \"#utility.yul\":5136:5147   */\n      0x00\n        /* \"#utility.yul\":5173:5176   */\n      dup2\n        /* \"#utility.yul\":5158:5176   */\n      swap1\n      pop\n        /* \"#utility.yul\":5034:5182   */\n      swap3\n      swap2\n      pop\n      pop\n      jump\t// out\n        /* \"#utility.yul\":5188:5336   */\n    tag_175:\n        /* \"#utility.yul\":5286:5292   */\n      dup3\n        /* \"#utility.yul\":5281:5284   */\n      dup2\n        /* \"#utility.yul\":5276:5279   */\n      dup4\n        /* \"#utility.yul\":5263:5293   */\n      calldatacopy\n        /* \"#utility.yul\":5327:5328   */\n      0x00\n        /* \"#utility.yul\":5318:5324   */\n      dup4\n        /* \"#utility.yul\":5313:5316   */\n      dup4\n        /* \"#utility.yul\":5309:5325   */\n      add\n        /* \"#utility.yul\":5302:5329   */\n      mstore\n        /* \"#utility.yul\":5188:5336   */\n      pop\n      pop\n      pop\n      jump\t// out\n        /* \"#utility.yul\":5366:5696   */\n    tag_176:\n        /* \"#utility.yul\":5482:5485   */\n      0x00\n        /* \"#utility.yul\":5503:5592   */\n      tag_276\n        /* \"#utility.yul\":5585:5591   */\n      dup4\n        /* \"#utility.yul\":5580:5583   */\n      dup6\n        /* \"#utility.yul\":5503:5592   */\n      tag_174\n      jump\t// in\n    tag_276:\n        /* \"#utility.yul\":5496:5592   */\n      swap4\n      pop\n        /* \"#utility.yul\":5602:5658   */\n      tag_277\n        /* \"#utility.yul\":5651:5657   */\n      dup4\n        /* \"#utility.yul\":5646:5649   */\n      dup6\n        /* \"#utility.yul\":5639:5644   */\n      dup5\n        /* \"#utility.yul\":5602:5658   */\n      tag_175\n      jump\t// in\n    tag_277:\n        /* \"#utility.yul\":5683:5689   */\n      dup3\n        /* \"#utility.yul\":5678:5681   */\n      dup5\n        /* \"#utility.yul\":5674:5690   */\n      add\n        /* \"#utility.yul\":5667:5690   */\n      swap1\n      pop\n        /* \"#utility.yul\":5366:5696   */\n      swap4\n      swap3\n      pop\n      pop\n      pop\n      jump\t// out\n        /* \"#utility.yul\":5702:5997   */\n    tag_57:\n        /* \"#utility.yul\":5844:5847   */\n      0x00\n        /* \"#utility.yul\":5866:5971   */\n      tag_279\n        /* \"#utility.yul\":5967:5970   */\n      dup3\n        /* \"#utility.yul\":5958:5964   */\n      dup5\n        /* \"#utility.yul\":5950:5956   */\n      dup7\n        /* \"#utility.yul\":5866:5971   */\n      tag_176\n      jump\t// in\n    tag_279:\n        /* \"#utility.yul\":5859:5971   */\n      swap2\n      pop\n        /* \"#utility.yul\":5988:5991   */\n      dup2\n        /* \"#utility.yul\":5981:5991   */\n      swap1\n      pop\n        /* \"#utility.yul\":5702:5997   */\n      swap4\n      swap3\n      pop\n      pop\n      pop\n      jump\t// out\n        /* \"#utility.yul\":6003:6158   */\n    tag_177:\n        /* \"#utility.yul\":6143:6150   */\n      0x41646d696e000000000000000000000000000000000000000000000000000000\n        /* \"#utility.yul\":6139:6140   */\n      0x00\n        /* \"#utility.yul\":6131:6137   */\n      dup3\n        /* \"#utility.yul\":6127:6141   */\n      add\n        /* \"#utility.yul\":6120:6151   */\n      mstore\n        /* \"#utility.yul\":6003:6158   */\n      pop\n      jump\t// out\n        /* \"#utility.yul\":6164:6564   */\n    tag_178:\n        /* \"#utility.yul\":6324:6327   */\n      0x00\n        /* \"#utility.yul\":6345:6429   */\n      tag_282\n        /* \"#utility.yul\":6427:6428   */\n      0x05\n        /* \"#utility.yul\":6422:6425   */\n      dup4\n        /* \"#utility.yul\":6345:6429   */\n      tag_174\n      jump\t// in\n    tag_282:\n        /* \"#utility.yul\":6338:6429   */\n      swap2\n      pop\n        /* \"#utility.yul\":6438:6531   */\n      tag_283\n        /* \"#utility.yul\":6527:6530   */\n      dup3\n        /* \"#utility.yul\":6438:6531   */\n      tag_177\n      jump\t// in\n    tag_283:\n        /* \"#utility.yul\":6556:6557   */\n      0x05\n        /* \"#utility.yul\":6551:6554   */\n      dup3\n        /* \"#utility.yul\":6547:6558   */\n      add\n        /* \"#utility.yul\":6540:6558   */\n      swap1\n      pop\n        /* \"#utility.yul\":6164:6564   */\n      swap2\n      swap1\n      pop\n      jump\t// out\n        /* \"#utility.yul\":6570:6951   */\n    tag_60:\n        /* \"#utility.yul\":6755:6758   */\n      0x00\n        /* \"#utility.yul\":6777:6925   */\n      tag_285\n        /* \"#utility.yul\":6921:6924   */\n      dup3\n        /* \"#utility.yul\":6777:6925   */\n      tag_178\n      jump\t// in\n    tag_285:\n        /* \"#utility.yul\":6770:6925   */\n      swap2\n      pop\n        /* \"#utility.yul\":6942:6945   */\n      dup2\n        /* \"#utility.yul\":6935:6945   */\n      swap1\n      pop\n        /* \"#utility.yul\":6570:6951   */\n      swap2\n      swap1\n      pop\n      jump\t// out\n        /* \"#utility.yul\":6957:7126   */\n    tag_179:\n        /* \"#utility.yul\":7041:7052   */\n      0x00\n        /* \"#utility.yul\":7075:7081   */\n      dup3\n        /* \"#utility.yul\":7070:7073   */\n      dup3\n        /* \"#utility.yul\":7063:7082   */\n      mstore\n        /* \"#utility.yul\":7115:7119   */\n      0x20\n        /* \"#utility.yul\":7110:7113   */\n      dup3\n        /* \"#utility.yul\":7106:7120   */\n      add\n        /* \"#utility.yul\":7091:7120   */\n      swap1\n      pop\n        /* \"#utility.yul\":6957:7126   */\n      swap3\n      swap2\n      pop\n      pop\n      jump\t// out\n        /* \"#utility.yul\":7132:7361   */\n    tag_180:\n        /* \"#utility.yul\":7272:7306   */\n      0x456d706c6f79656541737369676e6d656e743a2063616c6c6572206973206e6f\n        /* \"#utility.yul\":7268:7269   */\n      0x00\n        /* \"#utility.yul\":7260:7266   */\n      dup3\n        /* \"#utility.yul\":7256:7270   */\n      add\n        /* \"#utility.yul\":7249:7307   */\n      mstore\n        /* \"#utility.yul\":7341:7353   */\n      0x7420616e2061646d696e00000000000000000000000000000000000000000000\n        /* \"#utility.yul\":7336:7338   */\n      0x20\n        /* \"#utility.yul\":7328:7334   */\n      dup3\n        /* \"#utility.yul\":7324:7339   */\n      add\n        /* \"#utility.yul\":7317:7354   */\n      mstore\n        /* \"#utility.yul\":7132:7361   */\n      pop\n      jump\t// out\n        /* \"#utility.yul\":7367:7733   */\n    tag_181:\n        /* \"#utility.yul\":7509:7512   */\n      0x00\n        /* \"#utility.yul\":7530:7597   */\n      tag_289\n        /* \"#utility.yul\":7594:7596   */\n      0x2a\n        /* \"#utility.yul\":7589:7592   */\n      dup4\n        /* \"#utility.yul\":7530:7597   */\n      tag_179\n      jump\t// in\n    tag_289:\n        /* \"#utility.yul\":7523:7597   */\n      swap2\n      pop\n        /* \"#utility.yul\":7606:7699   */\n      tag_290\n        /* \"#utility.yul\":7695:7698   */\n      dup3\n        /* \"#utility.yul\":7606:7699   */\n      tag_180\n      jump\t// in\n    tag_290:\n        /* \"#utility.yul\":7724:7726   */\n      0x40\n        /* \"#utility.yul\":7719:7722   */\n      dup3\n        /* \"#utility.yul\":7715:7727   */\n      add\n        /* \"#utility.yul\":7708:7727   */\n      swap1\n      pop\n        /* \"#utility.yul\":7367:7733   */\n      swap2\n      swap1\n      pop\n      jump\t// out\n        /* \"#utility.yul\":7739:8158   */\n    tag_63:\n        /* \"#utility.yul\":7905:7909   */\n      0x00\n        /* \"#utility.yul\":7943:7945   */\n      0x20\n        /* \"#utility.yul\":7932:7941   */\n      dup3\n        /* \"#utility.yul\":7928:7946   */\n      add\n        /* \"#utility.yul\":7920:7946   */\n      swap1\n      pop\n        /* \"#utility.yul\":7992:8001   */\n      dup2\n        /* \"#utility.yul\":7986:7990   */\n      dup2\n        /* \"#utility.yul\":7982:8002   */\n      sub\n        /* \"#utility.yul\":7978:7979   */\n      0x00\n        /* \"#utility.yul\":7967:7976   */\n      dup4\n        /* \"#utility.yul\":7963:7980   */\n      add\n        /* \"#utility.yul\":7956:8003   */\n      mstore\n        /* \"#utility.yul\":8020:8151   */\n      tag_292\n        /* \"#utility.yul\":8146:8150   */\n      dup2\n        /* \"#utility.yul\":8020:8151   */\n      tag_181\n      jump\t// in\n    tag_292:\n        /* \"#utility.yul\":8012:8151   */\n      swap1\n      pop\n        /* \"#utility.yul\":7739:8158   */\n      swap2\n      swap1\n      pop\n      jump\t// out\n        /* \"#utility.yul\":8164:8394   */\n    tag_182:\n        /* \"#utility.yul\":8304:8338   */\n      0x456d706c6f79656541737369676e6d656e743a2063616c6c6572206973206e6f\n        /* \"#utility.yul\":8300:8301   */\n      0x00\n        /* \"#utility.yul\":8292:8298   */\n      dup3\n        /* \"#utility.yul\":8288:8302   */\n      add\n        /* \"#utility.yul\":8281:8339   */\n      mstore\n        /* \"#utility.yul\":8373:8386   */\n      0x7420746865206f776e6572000000000000000000000000000000000000000000\n        /* \"#utility.yul\":8368:8370   */\n      0x20\n        /* \"#utility.yul\":8360:8366   */\n      dup3\n        /* \"#utility.yul\":8356:8371   */\n      add\n        /* \"#utility.yul\":8349:8387   */\n      mstore\n        /* \"#utility.yul\":8164:8394   */\n      pop\n      jump\t// out\n        /* \"#utility.yul\":8400:8766   */\n    tag_183:\n        /* \"#utility.yul\":8542:8545   */\n      0x00\n        /* \"#utility.yul\":8563:8630   */\n      tag_295\n        /* \"#utility.yul\":8627:8629   */\n      0x2b\n        /* \"#utility.yul\":8622:8625   */\n      dup4\n        /* \"#utility.yul\":8563:8630   */\n      tag_179\n      jump\t// in\n    tag_295:\n        /* \"#utility.yul\":8556:8630   */\n      swap2\n      pop\n        /* \"#utility.yul\":8639:8732   */\n      tag_296\n        /* \"#utility.yul\":8728:8731   */\n      dup3\n        /* \"#utility.yul\":8639:8732   */\n      tag_182\n      jump\t// in\n    tag_296:\n        /* \"#utility.yul\":8757:8759   */\n      0x40\n        /* \"#utility.yul\":8752:8755   */\n      dup3\n        /* \"#utility.yul\":8748:8760   */\n      add\n        /* \"#utility.yul\":8741:8760   */\n      swap1\n      pop\n        /* \"#utility.yul\":8400:8766   */\n      swap2\n      swap1\n      pop\n      jump\t// out\n        /* \"#utility.yul\":8772:9191   */\n    tag_73:\n        /* \"#utility.yul\":8938:8942   */\n      0x00\n        /* \"#utility.yul\":8976:8978   */\n      0x20\n        /* \"#utility.yul\":8965:8974   */\n      dup3\n        /* \"#utility.yul\":8961:8979   */\n      add\n        /* \"#utility.yul\":8953:8979   */\n      swap1\n      pop\n        /* \"#utility.yul\":9025:9034   */\n      dup2\n        /* \"#utility.yul\":9019:9023   */\n      dup2\n        /* \"#utility.yul\":9015:9035   */\n      sub\n        /* \"#utility.yul\":9011:9012   */\n      0x00\n        /* \"#utility.yul\":9000:9009   */\n      dup4\n        /* \"#utility.yul\":8996:9013   */\n      add\n        /* \"#utility.yul\":8989:9036   */\n      mstore\n        /* \"#utility.yul\":9053:9184   */\n      tag_298\n        /* \"#utility.yul\":9179:9183   */\n      dup2\n        /* \"#utility.yul\":9053:9184   */\n      tag_183\n      jump\t// in\n    tag_298:\n        /* \"#utility.yul\":9045:9184   */\n      swap1\n      pop\n        /* \"#utility.yul\":8772:9191   */\n      swap2\n      swap1\n      pop\n      jump\t// out\n        /* \"#utility.yul\":9197:9344   */\n    tag_184:\n        /* \"#utility.yul\":9298:9309   */\n      0x00\n        /* \"#utility.yul\":9335:9338   */\n      dup2\n        /* \"#utility.yul\":9320:9338   */\n      swap1\n      pop\n        /* \"#utility.yul\":9197:9344   */\n      swap3\n      swap2\n      pop\n      pop\n      jump\t// out\n        /* \"#utility.yul\":9372:9699   */\n    tag_185:\n        /* \"#utility.yul\":9486:9489   */\n      0x00\n        /* \"#utility.yul\":9507:9595   */\n      tag_301\n        /* \"#utility.yul\":9588:9594   */\n      dup4\n        /* \"#utility.yul\":9583:9586   */\n      dup6\n        /* \"#utility.yul\":9507:9595   */\n      tag_184\n      jump\t// in\n    tag_301:\n        /* \"#utility.yul\":9500:9595   */\n      swap4\n      pop\n        /* \"#utility.yul\":9605:9661   */\n      tag_302\n        /* \"#utility.yul\":9654:9660   */\n      dup4\n        /* \"#utility.yul\":9649:9652   */\n      dup6\n        /* \"#utility.yul\":9642:9647   */\n      dup5\n        /* \"#utility.yul\":9605:9661   */\n      tag_175\n      jump\t// in\n    tag_302:\n        /* \"#utility.yul\":9686:9692   */\n      dup3\n        /* \"#utility.yul\":9681:9684   */\n      dup5\n        /* \"#utility.yul\":9677:9693   */\n      add\n        /* \"#utility.yul\":9670:9693   */\n      swap1\n      pop\n        /* \"#utility.yul\":9372:9699   */\n      swap4\n      swap3\n      pop\n      pop\n      pop\n      jump\t// out\n        /* \"#utility.yul\":9705:9996   */\n    tag_76:\n        /* \"#utility.yul\":9845:9848   */\n      0x00\n        /* \"#utility.yul\":9867:9970   */\n      tag_304\n        /* \"#utility.yul\":9966:9969   */\n      dup3\n        /* \"#utility.yul\":9957:9963   */\n      dup5\n        /* \"#utility.yul\":9949:9955   */\n      dup7\n        /* \"#utility.yul\":9867:9970   */\n      tag_185\n      jump\t// in\n    tag_304:\n        /* \"#utility.yul\":9860:9970   */\n      swap2\n      pop\n        /* \"#utility.yul\":9987:9990   */\n      dup2\n        /* \"#utility.yul\":9980:9990   */\n      swap1\n      pop\n        /* \"#utility.yul\":9705:9996   */\n      swap4\n      swap3\n      pop\n      pop\n      pop\n      jump\t// out\n        /* \"#utility.yul\":10002:10184   */\n    tag_186:\n        /* \"#utility.yul\":10142:10176   */\n      0x456d706c6f79656541737369676e6d656e743a20696e76616c696420726f6c65\n        /* \"#utility.yul\":10138:10139   */\n      0x00\n        /* \"#utility.yul\":10130:10136   */\n      dup3\n        /* \"#utility.yul\":10126:10140   */\n      add\n        /* \"#utility.yul\":10119:10177   */\n      mstore\n        /* \"#utility.yul\":10002:10184   */\n      pop\n      jump\t// out\n        /* \"#utility.yul\":10190:10556   */\n    tag_187:\n        /* \"#utility.yul\":10332:10335   */\n      0x00\n        /* \"#utility.yul\":10353:10420   */\n      tag_307\n        /* \"#utility.yul\":10417:10419   */\n      0x20\n        /* \"#utility.yul\":10412:10415   */\n      dup4\n        /* \"#utility.yul\":10353:10420   */\n      tag_179\n      jump\t// in\n    tag_307:\n        /* \"#utility.yul\":10346:10420   */\n      swap2\n      pop\n        /* \"#utility.yul\":10429:10522   */\n      tag_308\n        /* \"#utility.yul\":10518:10521   */\n      dup3\n        /* \"#utility.yul\":10429:10522   */\n      tag_186\n      jump\t// in\n    tag_308:\n        /* \"#utility.yul\":10547:10549   */\n      0x20\n        /* \"#utility.yul\":10542:10545   */\n      dup3\n        /* \"#utility.yul\":10538:10550   */\n      add\n        /* \"#utility.yul\":10531:10550   */\n      swap1\n      pop\n        /* \"#utility.yul\":10190:10556   */\n      swap2\n      swap1\n      pop\n      jump\t// out\n        /* \"#utility.yul\":10562:10981   */\n    tag_79:\n        /* \"#utility.yul\":10728:10732   */\n      0x00\n        /* \"#utility.yul\":10766:10768   */\n      0x20\n        /* \"#utility.yul\":10755:10764   */\n      dup3\n        /* \"#utility.yul\":10751:10769   */\n      add\n        /* \"#utility.yul\":10743:10769   */\n      swap1\n      pop\n        /* \"#utility.yul\":10815:10824   */\n      dup2\n        /* \"#utility.yul\":10809:10813   */\n      dup2\n        /* \"#utility.yul\":10805:10825   */\n      sub\n        /* \"#utility.yul\":10801:10802   */\n      0x00\n        /* \"#utility.yul\":10790:10799   */\n      dup4\n        /* \"#utility.yul\":10786:10803   */\n      add\n        /* \"#utility.yul\":10779:10826   */\n      mstore\n        /* \"#utility.yul\":10843:10974   */\n      tag_310\n        /* \"#utility.yul\":10969:10973   */\n      dup2\n        /* \"#utility.yul\":10843:10974   */\n      tag_187\n      jump\t// in\n    tag_310:\n        /* \"#utility.yul\":10835:10974   */\n      swap1\n      pop\n        /* \"#utility.yul\":10562:10981   */\n      swap2\n      swap1\n      pop\n      jump\t// out\n        /* \"#utility.yul\":10987:11226   */\n    tag_188:\n        /* \"#utility.yul\":11127:11161   */\n      0x456d706c6f79656541737369676e6d656e743a20656d706c6f79656520646f65\n        /* \"#utility.yul\":11123:11124   */\n      0x00\n        /* \"#utility.yul\":11115:11121   */\n      dup3\n        /* \"#utility.yul\":11111:11125   */\n      add\n        /* \"#utility.yul\":11104:11162   */\n      mstore\n        /* \"#utility.yul\":11196:11218   */\n      0x73206e6f742068617665207468697320726f6c65000000000000000000000000\n        /* \"#utility.yul\":11191:11193   */\n      0x20\n        /* \"#utility.yul\":11183:11189   */\n      dup3\n        /* \"#utility.yul\":11179:11194   */\n      add\n        /* \"#utility.yul\":11172:11219   */\n      mstore\n        /* \"#utility.yul\":10987:11226   */\n      pop\n      jump\t// out\n        /* \"#utility.yul\":11232:11598   */\n    tag_189:\n        /* \"#utility.yul\":11374:11377   */\n      0x00\n        /* \"#utility.yul\":11395:11462   */\n      tag_313\n        /* \"#utility.yul\":11459:11461   */\n      0x34\n        /* \"#utility.yul\":11454:11457   */\n      dup4\n        /* \"#utility.yul\":11395:11462   */\n      tag_179\n      jump\t// in\n    tag_313:\n        /* \"#utility.yul\":11388:11462   */\n      swap2\n      pop\n        /* \"#utility.yul\":11471:11564   */\n      tag_314\n        /* \"#utility.yul\":11560:11563   */\n      dup3\n        /* \"#utility.yul\":11471:11564   */\n      tag_188\n      jump\t// in\n    tag_314:\n        /* \"#utility.yul\":11589:11591   */\n      0x40\n        /* \"#utility.yul\":11584:11587   */\n      dup3\n        /* \"#utility.yul\":11580:11592   */\n      add\n        /* \"#utility.yul\":11573:11592   */\n      swap1\n      pop\n        /* \"#utility.yul\":11232:11598   */\n      swap2\n      swap1\n      pop\n      jump\t// out\n        /* \"#utility.yul\":11604:12023   */\n    tag_83:\n        /* \"#utility.yul\":11770:11774   */\n      0x00\n        /* \"#utility.yul\":11808:11810   */\n      0x20\n        /* \"#utility.yul\":11797:11806   */\n      dup3\n        /* \"#utility.yul\":11793:11811   */\n      add\n        /* \"#utility.yul\":11785:11811   */\n      swap1\n      pop\n        /* \"#utility.yul\":11857:11866   */\n      dup2\n        /* \"#utility.yul\":11851:11855   */\n      dup2\n        /* \"#utility.yul\":11847:11867   */\n      sub\n        /* \"#utility.yul\":11843:11844   */\n      0x00\n        /* \"#utility.yul\":11832:11841   */\n      dup4\n        /* \"#utility.yul\":11828:11845   */\n      add\n        /* \"#utility.yul\":11821:11868   */\n      mstore\n        /* \"#utility.yul\":11885:12016   */\n      tag_316\n        /* \"#utility.yul\":12011:12015   */\n      dup2\n        /* \"#utility.yul\":11885:12016   */\n      tag_189\n      jump\t// in\n    tag_316:\n        /* \"#utility.yul\":11877:12016   */\n      swap1\n      pop\n        /* \"#utility.yul\":11604:12023   */\n      swap2\n      swap1\n      pop\n      jump\t// out\n        /* \"#utility.yul\":12029:12209   */\n    tag_190:\n        /* \"#utility.yul\":12077:12154   */\n      0x4e487b7100000000000000000000000000000000000000000000000000000000\n        /* \"#utility.yul\":12074:12075   */\n      0x00\n        /* \"#utility.yul\":12067:12155   */\n      mstore\n        /* \"#utility.yul\":12174:12178   */\n      0x11\n        /* \"#utility.yul\":12171:12172   */\n      0x04\n        /* \"#utility.yul\":12164:12179   */\n      mstore\n        /* \"#utility.yul\":12198:12202   */\n      0x24\n        /* \"#utility.yul\":12195:12196   */\n      0x00\n        /* \"#utility.yul\":12188:12203   */\n      revert\n        /* \"#utility.yul\":12215:12386   */\n    tag_86:\n        /* \"#utility.yul\":12254:12257   */\n      0x00\n        /* \"#utility.yul\":12277:12301   */\n      tag_319\n        /* \"#utility.yul\":12295:12300   */\n      dup3\n        /* \"#utility.yul\":12277:12301   */\n      tag_170\n      jump\t// in\n    tag_319:\n        /* \"#utility.yul\":12268:12301   */\n      swap2\n      pop\n        /* \"#utility.yul\":12323:12327   */\n      0x00\n        /* \"#utility.yul\":12316:12321   */\n      dup3\n        /* \"#utility.yul\":12313:12328   */\n      sub\n        /* \"#utility.yul\":12310:12351   */\n      tag_320\n      jumpi\n        /* \"#utility.yul\":12331:12349   */\n      tag_321\n      tag_190\n      jump\t// in\n    tag_321:\n        /* \"#utility.yul\":12310:12351   */\n    tag_320:\n        /* \"#utility.yul\":12378:12379   */\n      0x01\n        /* \"#utility.yul\":12371:12376   */\n      dup3\n        /* \"#utility.yul\":12367:12380   */\n      sub\n        /* \"#utility.yul\":12360:12380   */\n      swap1\n      pop\n        /* \"#utility.yul\":12215:12386   */\n      swap2\n      swap1\n      pop\n      jump\t// out\n        /* \"#utility.yul\":12392:12494   */\n    tag_191:\n        /* \"#utility.yul\":12433:12439   */\n      0x00\n        /* \"#utility.yul\":12484:12486   */\n      0x1f\n        /* \"#utility.yul\":12480:12487   */\n      not\n        /* \"#utility.yul\":12475:12477   */\n      0x1f\n        /* \"#utility.yul\":12468:12473   */\n      dup4\n        /* \"#utility.yul\":12464:12478   */\n      add\n        /* \"#utility.yul\":12460:12488   */\n      and\n        /* \"#utility.yul\":12450:12488   */\n      swap1\n      pop\n        /* \"#utility.yul\":12392:12494   */\n      swap2\n      swap1\n      pop\n      jump\t// out\n        /* \"#utility.yul\":12524:12841   */\n    tag_192:\n        /* \"#utility.yul\":12622:12625   */\n      0x00\n        /* \"#utility.yul\":12643:12714   */\n      tag_324\n        /* \"#utility.yul\":12707:12713   */\n      dup4\n        /* \"#utility.yul\":12702:12705   */\n      dup6\n        /* \"#utility.yul\":12643:12714   */\n      tag_179\n      jump\t// in\n    tag_324:\n        /* \"#utility.yul\":12636:12714   */\n      swap4\n      pop\n        /* \"#utility.yul\":12724:12780   */\n      tag_325\n        /* \"#utility.yul\":12773:12779   */\n      dup4\n        /* \"#utility.yul\":12768:12771   */\n      dup6\n        /* \"#utility.yul\":12761:12766   */\n      dup5\n        /* \"#utility.yul\":12724:12780   */\n      tag_175\n      jump\t// in\n    tag_325:\n        /* \"#utility.yul\":12805:12834   */\n      tag_326\n        /* \"#utility.yul\":12827:12833   */\n      dup4\n        /* \"#utility.yul\":12805:12834   */\n      tag_191\n      jump\t// in\n    tag_326:\n        /* \"#utility.yul\":12800:12803   */\n      dup5\n        /* \"#utility.yul\":12796:12835   */\n      add\n        /* \"#utility.yul\":12789:12835   */\n      swap1\n      pop\n        /* \"#utility.yul\":12524:12841   */\n      swap4\n      swap3\n      pop\n      pop\n      pop\n      jump\t// out\n        /* \"#utility.yul\":12847:13180   */\n    tag_88:\n        /* \"#utility.yul\":12970:12974   */\n      0x00\n        /* \"#utility.yul\":13008:13010   */\n      0x20\n        /* \"#utility.yul\":12997:13006   */\n      dup3\n        /* \"#utility.yul\":12993:13011   */\n      add\n        /* \"#utility.yul\":12985:13011   */\n      swap1\n      pop\n        /* \"#utility.yul\":13057:13066   */\n      dup2\n        /* \"#utility.yul\":13051:13055   */\n      dup2\n        /* \"#utility.yul\":13047:13067   */\n      sub\n        /* \"#utility.yul\":13043:13044   */\n      0x00\n        /* \"#utility.yul\":13032:13041   */\n      dup4\n        /* \"#utility.yul\":13028:13045   */\n      add\n        /* \"#utility.yul\":13021:13068   */\n      mstore\n        /* \"#utility.yul\":13085:13173   */\n      tag_328\n        /* \"#utility.yul\":13168:13172   */\n      dup2\n        /* \"#utility.yul\":13159:13165   */\n      dup5\n        /* \"#utility.yul\":13151:13157   */\n      dup7\n        /* \"#utility.yul\":13085:13173   */\n      tag_192\n      jump\t// in\n    tag_328:\n        /* \"#utility.yul\":13077:13173   */\n      swap1\n      pop\n        /* \"#utility.yul\":12847:13180   */\n      swap4\n      swap3\n      pop\n      pop\n      pop\n      jump\t// out\n        /* \"#utility.yul\":13186:13424   */\n    tag_193:\n        /* \"#utility.yul\":13326:13360   */\n      0x456d706c6f79656541737369676e6d656e743a20656d706c6f7965652063616e\n        /* \"#utility.yul\":13322:13323   */\n      0x00\n        /* \"#utility.yul\":13314:13320   */\n      dup3\n        /* \"#utility.yul\":13310:13324   */\n      add\n        /* \"#utility.yul\":13303:13361   */\n      mstore\n        /* \"#utility.yul\":13395:13416   */\n      0x6e6f74206265207a65726f206164647265737300000000000000000000000000\n        /* \"#utility.yul\":13390:13392   */\n      0x20\n        /* \"#utility.yul\":13382:13388   */\n      dup3\n        /* \"#utility.yul\":13378:13393   */\n      add\n        /* \"#utility.yul\":13371:13417   */\n      mstore\n        /* \"#utility.yul\":13186:13424   */\n      pop\n      jump\t// out\n        /* \"#utility.yul\":13430:13796   */\n    tag_194:\n        /* \"#utility.yul\":13572:13575   */\n      0x00\n        /* \"#utility.yul\":13593:13660   */\n      tag_331\n        /* \"#utility.yul\":13657:13659   */\n      0x33\n        /* \"#utility.yul\":13652:13655   */\n      dup4\n        /* \"#utility.yul\":13593:13660   */\n      tag_179\n      jump\t// in\n    tag_331:\n        /* \"#utility.yul\":13586:13660   */\n      swap2\n      pop\n        /* \"#utility.yul\":13669:13762   */\n      tag_332\n        /* \"#utility.yul\":13758:13761   */\n      dup3\n        /* \"#utility.yul\":13669:13762   */\n      tag_193\n      jump\t// in\n    tag_332:\n        /* \"#utility.yul\":13787:13789   */\n      0x40\n        /* \"#utility.yul\":13782:13785   */\n      dup3\n        /* \"#utility.yul\":13778:13790   */\n      add\n        /* \"#utility.yul\":13771:13790   */\n      swap1\n      pop\n        /* \"#utility.yul\":13430:13796   */\n      swap2\n      swap1\n      pop\n      jump\t// out\n        /* \"#utility.yul\":13802:14221   */\n    tag_98:\n        /* \"#utility.yul\":13968:13972   */\n      0x00\n        /* \"#utility.yul\":14006:14008   */\n      0x20\n        /* \"#utility.yul\":13995:14004   */\n      dup3\n        /* \"#utility.yul\":13991:14009   */\n      add\n        /* \"#utility.yul\":13983:14009   */\n      swap1\n      pop\n        /* \"#utility.yul\":14055:14064   */\n      dup2\n        /* \"#utility.yul\":14049:14053   */\n      dup2\n        /* \"#utility.yul\":14045:14065   */\n      sub\n        /* \"#utility.yul\":14041:14042   */\n      0x00\n        /* \"#utility.yul\":14030:14039   */\n      dup4\n        /* \"#utility.yul\":14026:14043   */\n      add\n        /* \"#utility.yul\":14019:14066   */\n      mstore\n        /* \"#utility.yul\":14083:14214   */\n      tag_334\n        /* \"#utility.yul\":14209:14213   */\n      dup2\n        /* \"#utility.yul\":14083:14214   */\n      tag_194\n      jump\t// in\n    tag_334:\n        /* \"#utility.yul\":14075:14214   */\n      swap1\n      pop\n        /* \"#utility.yul\":13802:14221   */\n      swap2\n      swap1\n      pop\n      jump\t// out\n        /* \"#utility.yul\":14227:14464   */\n    tag_195:\n        /* \"#utility.yul\":14367:14401   */\n      0x456d706c6f79656541737369676e6d656e743a20656d706c6f79656520616c72\n        /* \"#utility.yul\":14363:14364   */\n      0x00\n        /* \"#utility.yul\":14355:14361   */\n      dup3\n        /* \"#utility.yul\":14351:14365   */\n      add\n        /* \"#utility.yul\":14344:14402   */\n      mstore\n        /* \"#utility.yul\":14436:14456   */\n      0x6561647920686173207468697320726f6c650000000000000000000000000000\n        /* \"#utility.yul\":14431:14433   */\n      0x20\n        /* \"#utility.yul\":14423:14429   */\n      dup3\n        /* \"#utility.yul\":14419:14434   */\n      add\n        /* \"#utility.yul\":14412:14457   */\n      mstore\n        /* \"#utility.yul\":14227:14464   */\n      pop\n      jump\t// out\n        /* \"#utility.yul\":14470:14836   */\n    tag_196:\n        /* \"#utility.yul\":14612:14615   */\n      0x00\n        /* \"#utility.yul\":14633:14700   */\n      tag_337\n        /* \"#utility.yul\":14697:14699   */\n      0x32\n        /* \"#utility.yul\":14692:14695   */\n      dup4\n        /* \"#utility.yul\":14633:14700   */\n      tag_179\n      jump\t// in\n    tag_337:\n        /* \"#utility.yul\":14626:14700   */\n      swap2\n      pop\n        /* \"#utility.yul\":14709:14802   */\n      tag_338\n        /* \"#utility.yul\":14798:14801   */\n      dup3\n        /* \"#utility.yul\":14709:14802   */\n      tag_195\n      jump\t// in\n    tag_338:\n        /* \"#utility.yul\":14827:14829   */\n      0x40\n        /* \"#utility.yul\":14822:14825   */\n      dup3\n        /* \"#utility.yul\":14818:14830   */\n      add\n        /* \"#utility.yul\":14811:14830   */\n      swap1\n      pop\n        /* \"#utility.yul\":14470:14836   */\n      swap2\n      swap1\n      pop\n      jump\t// out\n        /* \"#utility.yul\":14842:15261   */\n    tag_102:\n        /* \"#utility.yul\":15008:15012   */\n      0x00\n        /* \"#utility.yul\":15046:15048   */\n      0x20\n        /* \"#utility.yul\":15035:15044   */\n      dup3\n        /* \"#utility.yul\":15031:15049   */\n      add\n        /* \"#utility.yul\":15023:15049   */\n      swap1\n      pop\n        /* \"#utility.yul\":15095:15104   */\n      dup2\n        /* \"#utility.yul\":15089:15093   */\n      dup2\n        /* \"#utility.yul\":15085:15105   */\n      sub\n        /* \"#utility.yul\":15081:15082   */\n      0x00\n        /* \"#utility.yul\":15070:15079   */\n      dup4\n        /* \"#utility.yul\":15066:15083   */\n      add\n        /* \"#utility.yul\":15059:15106   */\n      mstore\n        /* \"#utility.yul\":15123:15254   */\n      tag_340\n        /* \"#utility.yul\":15249:15253   */\n      dup2\n        /* \"#utility.yul\":15123:15254   */\n      tag_196\n      jump\t// in\n    tag_340:\n        /* \"#utility.yul\":15115:15254   */\n      swap1\n      pop\n        /* \"#utility.yul\":14842:15261   */\n      swap2\n      swap1\n      pop\n      jump\t// out\n        /* \"#utility.yul\":15267:15500   */\n    tag_105:\n        /* \"#utility.yul\":15306:15309   */\n      0x00\n        /* \"#utility.yul\":15329:15353   */\n      tag_342\n        /* \"#utility.yul\":15347:15352   */\n      dup3\n        /* \"#utility.yul\":15329:15353   */\n      tag_170\n      jump\t// in\n    tag_342:\n        /* \"#utility.yul\":15320:15353   */\n      swap2\n      pop\n        /* \"#utility.yul\":15375:15441   */\n      0xffffffffffffffffffffffffffffffffffffffffffffffffffffffffffffffff\n        /* \"#utility.yul\":15368:15373   */\n      dup3\n        /* \"#utility.yul\":15365:15442   */\n      sub\n        /* \"#utility.yul\":15362:15465   */\n      tag_343\n      jumpi\n        /* \"#utility.yul\":15445:15463   */\n      tag_344\n      tag_190\n      jump\t// in\n    tag_344:\n        /* \"#utility.yul\":15362:15465   */\n    tag_343:\n        /* \"#utility.yul\":15492:15493   */\n      0x01\n        /* \"#utility.yul\":15485:15490   */\n      dup3\n        /* \"#utility.yul\":15481:15494   */\n      add\n        /* \"#utility.yul\":15474:15494   */\n      swap1\n      pop\n        /* \"#utility.yul\":15267:15500   */\n      swap2\n      swap1\n      pop\n      jump\t// out\n        /* \"#utility.yul\":15506:15676   */\n    tag_197:\n        /* \"#utility.yul\":15646:15668   */\n      0x696e73756666696369656e742062616c616e6365000000000000000000000000\n        /* \"#utility.yul\":15642:15643   */\n      0x00\n        /* \"#utility.yul\":15634:15640   */\n      dup3\n        /* \"#utility.yul\":15630:15644   */\n      add\n        /* \"#utility.yul\":15623:15669   */\n      mstore\n        /* \"#utility.yul\":15506:15676   */\n      pop\n      jump\t// out\n        /* \"#utility.yul\":15682:16048   */\n    tag_198:\n        /* \"#utility.yul\":15824:15827   */\n      0x00\n        /* \"#utility.yul\":15845:15912   */\n      tag_347\n        /* \"#utility.yul\":15909:15911   */\n      0x14\n        /* \"#utility.yul\":15904:15907   */\n      dup4\n        /* \"#utility.yul\":15845:15912   */\n      tag_179\n      jump\t// in\n    tag_347:\n        /* \"#utility.yul\":15838:15912   */\n      swap2\n      pop\n        /* \"#utility.yul\":15921:16014   */\n      tag_348\n        /* \"#utility.yul\":16010:16013   */\n      dup3\n        /* \"#utility.yul\":15921:16014   */\n      tag_197\n      jump\t// in\n    tag_348:\n        /* \"#utility.yul\":16039:16041   */\n      0x20\n        /* \"#utility.yul\":16034:16037   */\n      dup3\n        /* \"#utility.yul\":16030:16042   */\n      add\n        /* \"#utility.yul\":16023:16042   */\n      swap1\n      pop\n        /* \"#utility.yul\":15682:16048   */\n      swap2\n      swap1\n      pop\n      jump\t// out\n        /* \"#utility.yul\":16054:16473   */\n    tag_124:\n        /* \"#utility.yul\":16220:16224   */\n      0x00\n        /* \"#utility.yul\":16258:16260   */\n      0x20\n        /* \"#utility.yul\":16247:16256   */\n      dup3\n        /* \"#utility.yul\":16243:16261   */\n      add\n        /* \"#utility.yul\":16235:16261   */\n      swap1\n      pop\n        /* \"#utility.yul\":16307:16316   */\n      dup2\n        /* \"#utility.yul\":16301:16305   */\n      dup2\n        /* \"#utility.yul\":16297:16317   */\n      sub\n        /* \"#utility.yul\":16293:16294   */\n      0x00\n        /* \"#utility.yul\":16282:16291   */\n      dup4\n        /* \"#utility.yul\":16278:16295   */\n      add\n        /* \"#utility.yul\":16271:16318   */\n      mstore\n        /* \"#utility.yul\":16335:16466   */\n      tag_350\n        /* \"#utility.yul\":16461:16465   */\n      dup2\n        /* \"#utility.yul\":16335:16466   */\n      tag_198\n      jump\t// in\n    tag_350:\n        /* \"#utility.yul\":16327:16466   */\n      swap1\n      pop\n        /* \"#utility.yul\":16054:16473   */\n      swap2\n      swap1\n      pop\n      jump\t// out\n        /* \"#utility.yul\":16479:16593   */\n    tag_199:\n      pop\n      jump\t// out\n        /* \"#utility.yul\":16599:16997   */\n    tag_200:\n        /* \"#utility.yul\":16758:16761   */\n      0x00\n        /* \"#utility.yul\":16779:16862   */\n      tag_353\n        /* \"#utility.yul\":16860:16861   */\n      0x00\n        /* \"#utility.yul\":16855:16858   */\n      dup4\n        /* \"#utility.yul\":16779:16862   */\n      tag_184\n      jump\t// in\n    tag_353:\n        /* \"#utility.yul\":16772:16862   */\n      swap2\n      pop\n        /* \"#utility.yul\":16871:16964   */\n      tag_354\n        /* \"#utility.yul\":16960:16963   */\n      dup3\n        /* \"#utility.yul\":16871:16964   */\n      tag_199\n      jump\t// in\n    tag_354:\n        /* \"#utility.yul\":16989:16990   */\n      0x00\n        /* \"#utility.yul\":16984:16987   */\n      dup3\n        /* \"#utility.yul\":16980:16991   */\n      add\n        /* \"#utility.yul\":16973:16991   */\n      swap1\n      pop\n        /* \"#utility.yul\":16599:16997   */\n      swap2\n      swap1\n      pop\n      jump\t// out\n        /* \"#utility.yul\":17003:17382   */\n    tag_126:\n        /* \"#utility.yul\":17187:17190   */\n      0x00\n        /* \"#utility.yul\":17209:17356   */\n      tag_356\n        /* \"#utility.yul\":17352:17355   */\n      dup3\n        /* \"#utility.yul\":17209:17356   */\n      tag_200\n      jump\t// in\n    tag_356:\n        /* \"#utility.yul\":17202:17356   */\n      swap2\n      pop\n        /* \"#utility.yul\":17373:17376   */\n      dup2\n        /* \"#utility.yul\":17366:17376   */\n      swap1\n      pop\n        /* \"#utility.yul\":17003:17382   */\n      swap2\n      swap1\n      pop\n      jump\t// out\n        /* \"#utility.yul\":17388:17570   */\n    tag_201:\n        /* \"#utility.yul\":17528:17562   */\n      0x7472616e7366657220746f206c6f616e20636f6e7472616374206661696c6564\n        /* \"#utility.yul\":17524:17525   */\n      0x00\n        /* \"#utility.yul\":17516:17522   */\n      dup3\n        /* \"#utility.yul\":17512:17526   */\n      add\n        /* \"#utility.yul\":17505:17563   */\n      mstore\n        /* \"#utility.yul\":17388:17570   */\n      pop\n      jump\t// out\n        /* \"#utility.yul\":17576:17942   */\n    tag_202:\n        /* \"#utility.yul\":17718:17721   */\n      0x00\n        /* \"#utility.yul\":17739:17806   */\n      tag_359\n        /* \"#utility.yul\":17803:17805   */\n      0x20\n        /* \"#utility.yul\":17798:17801   */\n      dup4\n        /* \"#utility.yul\":17739:17806   */\n      tag_179\n      jump\t// in\n    tag_359:\n        /* \"#utility.yul\":17732:17806   */\n      swap2\n      pop\n        /* \"#utility.yul\":17815:17908   */\n      tag_360\n        /* \"#utility.yul\":17904:17907   */\n      dup3\n        /* \"#utility.yul\":17815:17908   */\n      tag_201\n      jump\t// in\n    tag_360:\n        /* \"#utility.yul\":17933:17935   */\n      0x20\n        /* \"#utility.yul\":17928:17931   */\n      dup3\n        /* \"#utility.yul\":17924:17936   */\n      add\n        /* \"#utility.yul\":17917:17936   */\n      swap1\n      pop\n        /* \"#utility.yul\":17576:17942   */\n      swap2\n      swap1\n      pop\n      jump\t// out\n        /* \"#utility.yul\":17948:18367   */\n    tag_132:\n        /* \"#utility.yul\":18114:18118   */\n      0x00\n        /* \"#utility.yul\":18152:18154   */\n      0x20\n        /* \"#utility.yul\":18141:18150   */\n      dup3\n        /* \"#utility.yul\":18137:18155   */\n      add\n        /* \"#utility.yul\":18129:18155   */\n      swap1\n      pop\n        /* \"#utility.yul\":18201:18210   */\n      dup2\n        /* \"#utility.yul\":18195:18199   */\n      dup2\n        /* \"#utility.yul\":18191:18211   */\n      sub\n        /* \"#utility.yul\":18187:18188   */\n      0x00\n        /* \"#utility.yul\":18176:18185   */\n      dup4\n        /* \"#utility.yul\":18172:18189   */\n      add\n        /* \"#utility.yul\":18165:18212   */\n      mstore\n        /* \"#utility.yul\":18229:18360   */\n      tag_362\n        /* \"#utility.yul\":18355:18359   */\n      dup2\n        /* \"#utility.yul\":18229:18360   */\n      tag_202\n      jump\t// in\n    tag_362:\n        /* \"#utility.yul\":18221:18360   */\n      swap1\n      pop\n        /* \"#utility.yul\":17948:18367   */\n      swap2\n      swap1\n      pop\n      jump\t// out\n        /* \"#utility.yul\":18373:18553   */\n    tag_203:\n        /* \"#utility.yul\":18421:18498   */\n      0x4e487b7100000000000000000000000000000000000000000000000000000000\n        /* \"#utility.yul\":18418:18419   */\n      0x00\n        /* \"#utility.yul\":18411:18499   */\n      mstore\n        /* \"#utility.yul\":18518:18522   */\n      0x12\n        /* \"#utility.yul\":18515:18516   */\n      0x04\n        /* \"#utility.yul\":18508:18523   */\n      mstore\n        /* \"#utility.yul\":18542:18546   */\n      0x24\n        /* \"#utility.yul\":18539:18540   */\n      0x00\n        /* \"#utility.yul\":18532:18547   */\n      revert\n        /* \"#utility.yul\":18559:18744   */\n    tag_141:\n        /* \"#utility.yul\":18599:18600   */\n      0x00\n        /* \"#utility.yul\":18616:18636   */\n      tag_365\n        /* \"#utility.yul\":18634:18635   */\n      dup3\n        /* \"#utility.yul\":18616:18636   */\n      tag_170\n      jump\t// in\n    tag_365:\n        /* \"#utility.yul\":18611:18636   */\n      swap2\n      pop\n        /* \"#utility.yul\":18650:18670   */\n      tag_366\n        /* \"#utility.yul\":18668:18669   */\n      dup4\n        /* \"#utility.yul\":18650:18670   */\n      tag_170\n      jump\t// in\n    tag_366:\n        /* \"#utility.yul\":18645:18670   */\n      swap3\n      pop\n        /* \"#utility.yul\":18689:18690   */\n      dup3\n        /* \"#utility.yul\":18679:18714   */\n      tag_367\n      jumpi\n        /* \"#utility.yul\":18694:18712   */\n      tag_368\n      tag_203\n      jump\t// in\n    tag_368:\n        /* \"#utility.yul\":18679:18714   */\n    tag_367:\n        /* \"#utility.yul\":18736:18737   */\n      dup3\n        /* \"#utility.yul\":18733:18734   */\n      dup3\n        /* \"#utility.yul\":18729:18738   */\n      div\n        /* \"#utility.yul\":18724:18738   */\n      swap1\n      pop\n        /* \"#utility.yul\":18559:18744   */\n      swap3\n      swap2\n      pop\n      pop\n      jump\t// out\n        /* \"#utility.yul\":18750:18981   */\n    tag_204:\n        /* \"#utility.yul\":18890:18924   */\n      0x456d706c6f79656541737369676e6d656e743a207a65726f2061646472657373\n        /* \"#utility.yul\":18886:18887   */\n      0x00\n        /* \"#utility.yul\":18878:18884   */\n      dup3\n        /* \"#utility.yul\":18874:18888   */\n      add\n        /* \"#utility.yul\":18867:18925   */\n      mstore\n        /* \"#utility.yul\":18959:18973   */\n      0x206e6f7420616c6c6f7765640000000000000000000000000000000000000000\n        /* \"#utility.yul\":18954:18956   */\n      0x20\n        /* \"#utility.yul\":18946:18952   */\n      dup3\n        /* \"#utility.yul\":18942:18957   */\n      add\n        /* \"#utility.yul\":18935:18974   */\n      mstore\n        /* \"#utility.yul\":18750:18981   */\n      pop\n      jump\t// out\n        /* \"#utility.yul\":18987:19353   */\n    tag_205:\n        /* \"#utility.yul\":19129:19132   */\n      0x00\n        /* \"#utility.yul\":19150:19217   */\n      tag_371\n        /* \"#utility.yul\":19214:19216   */\n      0x2c\n        /* \"#utility.yul\":19209:19212   */\n      dup4\n        /* \"#utility.yul\":19150:19217   */\n      tag_179\n      jump\t// in\n    tag_371:\n        /* \"#utility.yul\":19143:19217   */\n      swap2\n      pop\n        /* \"#utility.yul\":19226:19319   */\n      tag_372\n        /* \"#utility.yul\":19315:19318   */\n      dup3\n        /* \"#utility.yul\":19226:19319   */\n      tag_204\n      jump\t// in\n    tag_372:\n        /* \"#utility.yul\":19344:19346   */\n      0x40\n        /* \"#utility.yul\":19339:19342   */\n      dup3\n        /* \"#utility.yul\":19335:19347   */\n      add\n        /* \"#utility.yul\":19328:19347   */\n      swap1\n      pop\n        /* \"#utility.yul\":18987:19353   */\n      swap2\n      swap1\n      pop\n      jump\t// out\n        /* \"#utility.yul\":19359:19778   */\n    tag_145:\n        /* \"#utility.yul\":19525:19529   */\n      0x00\n        /* \"#utility.yul\":19563:19565   */\n      0x20\n        /* \"#utility.yul\":19552:19561   */\n      dup3\n        /* \"#utility.yul\":19548:19566   */\n      add\n        /* \"#utility.yul\":19540:19566   */\n      swap1\n      pop\n        /* \"#utility.yul\":19612:19621   */\n      dup2\n        /* \"#utility.yul\":19606:19610   */\n      dup2\n        /* \"#utility.yul\":19602:19622   */\n      sub\n        /* \"#utility.yul\":19598:19599   */\n      0x00\n        /* \"#utility.yul\":19587:19596   */\n      dup4\n        /* \"#utility.yul\":19583:19600   */\n      add\n        /* \"#utility.yul\":19576:19623   */\n      mstore\n        /* \"#utility.yul\":19640:19771   */\n      tag_374\n        /* \"#utility.yul\":19766:19770   */\n      dup2\n        /* \"#utility.yul\":19640:19771   */\n      tag_205\n      jump\t// in\n    tag_374:\n        /* \"#utility.yul\":19632:19771   */\n      swap1\n      pop\n        /* \"#utility.yul\":19359:19778   */\n      swap2\n      swap1\n      pop\n      jump\t// out\n        /* \"#utility.yul\":19784:19951   */\n    tag_206:\n        /* \"#utility.yul\":19924:19943   */\n      0x4552523a207a65726f2061646472657373000000000000000000000000000000\n        /* \"#utility.yul\":19920:19921   */\n      0x00\n        /* \"#utility.yul\":19912:19918   */\n      dup3\n        /* \"#utility.yul\":19908:19922   */\n      add\n        /* \"#utility.yul\":19901:19944   */\n      mstore\n        /* \"#utility.yul\":19784:19951   */\n      pop\n      jump\t// out\n        /* \"#utility.yul\":19957:20323   */\n    tag_207:\n        /* \"#utility.yul\":20099:20102   */\n      0x00\n        /* \"#utility.yul\":20120:20187   */\n      tag_377\n        /* \"#utility.yul\":20184:20186   */\n      0x11\n        /* \"#utility.yul\":20179:20182   */\n      dup4\n        /* \"#utility.yul\":20120:20187   */\n      tag_179\n      jump\t// in\n    tag_377:\n        /* \"#utility.yul\":20113:20187   */\n      swap2\n      pop\n        /* \"#utility.yul\":20196:20289   */\n      tag_378\n        /* \"#utility.yul\":20285:20288   */\n      dup3\n        /* \"#utility.yul\":20196:20289   */\n      tag_206\n      jump\t// in\n    tag_378:\n        /* \"#utility.yul\":20314:20316   */\n      0x20\n        /* \"#utility.yul\":20309:20312   */\n      dup3\n        /* \"#utility.yul\":20305:20317   */\n      add\n        /* \"#utility.yul\":20298:20317   */\n      swap1\n      pop\n        /* \"#utility.yul\":19957:20323   */\n      swap2\n      swap1\n      pop\n      jump\t// out\n        /* \"#utility.yul\":20329:20748   */\n    tag_149:\n        /* \"#utility.yul\":20495:20499   */\n      0x00\n        /* \"#utility.yul\":20533:20535   */\n      0x20\n        /* \"#utility.yul\":20522:20531   */\n      dup3\n        /* \"#utility.yul\":20518:20536   */\n      add\n        /* \"#utility.yul\":20510:20536   */\n      swap1\n      pop\n        /* \"#utility.yul\":20582:20591   */\n      dup2\n        /* \"#utility.yul\":20576:20580   */\n      dup2\n        /* \"#utility.yul\":20572:20592   */\n      sub\n        /* \"#utility.yul\":20568:20569   */\n      0x00\n        /* \"#utility.yul\":20557:20566   */\n      dup4\n        /* \"#utility.yul\":20553:20570   */\n      add\n        /* \"#utility.yul\":20546:20593   */\n      mstore\n        /* \"#utility.yul\":20610:20741   */\n      tag_380\n        /* \"#utility.yul\":20736:20740   */\n      dup2\n        /* \"#utility.yul\":20610:20741   */\n      tag_207\n      jump\t// in\n    tag_380:\n        /* \"#utility.yul\":20602:20741   */\n      swap1\n      pop\n        /* \"#utility.yul\":20329:20748   */\n      swap2\n      swap1\n      pop\n      jump\t// out\n        /* \"#utility.yul\":20754:20928   */\n    tag_208:\n        /* \"#utility.yul\":20894:20920   */\n      0x4d7573742062652067726561746572207468616e203020210000000000000000\n        /* \"#utility.yul\":20890:20891   */\n      0x00\n        /* \"#utility.yul\":20882:20888   */\n      dup3\n        /* \"#utility.yul\":20878:20892   */\n      add\n        /* \"#utility.yul\":20871:20921   */\n      mstore\n        /* \"#utility.yul\":20754:20928   */\n      pop\n      jump\t// out\n        /* \"#utility.yul\":20934:21300   */\n    tag_209:\n        /* \"#utility.yul\":21076:21079   */\n      0x00\n        /* \"#utility.yul\":21097:21164   */\n      tag_383\n        /* \"#utility.yul\":21161:21163   */\n      0x18\n        /* \"#utility.yul\":21156:21159   */\n      dup4\n        /* \"#utility.yul\":21097:21164   */\n      tag_179\n      jump\t// in\n    tag_383:\n        /* \"#utility.yul\":21090:21164   */\n      swap2\n      pop\n        /* \"#utility.yul\":21173:21266   */\n      tag_384\n        /* \"#utility.yul\":21262:21265   */\n      dup3\n        /* \"#utility.yul\":21173:21266   */\n      tag_208\n      jump\t// in\n    tag_384:\n        /* \"#utility.yul\":21291:21293   */\n      0x20\n        /* \"#utility.yul\":21286:21289   */\n      dup3\n        /* \"#utility.yul\":21282:21294   */\n      add\n        /* \"#utility.yul\":21275:21294   */\n      swap1\n      pop\n        /* \"#utility.yul\":20934:21300   */\n      swap2\n      swap1\n      pop\n      jump\t// out\n        /* \"#utility.yul\":21306:21725   */\n    tag_153:\n        /* \"#utility.yul\":21472:21476   */\n      0x00\n        /* \"#utility.yul\":21510:21512   */\n      0x20\n        /* \"#utility.yul\":21499:21508   */\n      dup3\n        /* \"#utility.yul\":21495:21513   */\n      add\n        /* \"#utility.yul\":21487:21513   */\n      swap1\n      pop\n        /* \"#utility.yul\":21559:21568   */\n      dup2\n        /* \"#utility.yul\":21553:21557   */\n      dup2\n        /* \"#utility.yul\":21549:21569   */\n      sub\n        /* \"#utility.yul\":21545:21546   */\n      0x00\n        /* \"#utility.yul\":21534:21543   */\n      dup4\n        /* \"#utility.yul\":21530:21547   */\n      add\n        /* \"#utility.yul\":21523:21570   */\n      mstore\n        /* \"#utility.yul\":21587:21718   */\n      tag_386\n        /* \"#utility.yul\":21713:21717   */\n      dup2\n        /* \"#utility.yul\":21587:21718   */\n      tag_209\n      jump\t// in\n    tag_386:\n        /* \"#utility.yul\":21579:21718   */\n      swap1\n      pop\n        /* \"#utility.yul\":21306:21725   */\n      swap2\n      swap1\n      pop\n      jump\t// out\n\n    auxdata: 0xa2646970667358221220450bb68bbe4709d26bc2127e70e3282440885b50b695d71b8cb245482fafb56764736f6c634300081e0033\n}\n",
				"bytecode": {
					"linkReferences": {},
					"object": "6080604052335f5f6101000a81548173ffffffffffffffffffffffffffffffffffffffff021916908373ffffffffffffffffffffffffffffffffffffffff16021790555034801561004e575f5ffd5b506040516119f93803806119f983398181016040528101906100709190610114565b8060035f6101000a81548173ffffffffffffffffffffffffffffffffffffffff021916908373ffffffffffffffffffffffffffffffffffffffff1602179055505061013f565b5f5ffd5b5f73ffffffffffffffffffffffffffffffffffffffff82169050919050565b5f6100e3826100ba565b9050919050565b6100f3816100d9565b81146100fd575f5ffd5b50565b5f8151905061010e816100ea565b92915050565b5f60208284031215610129576101286100b6565b5b5f61013684828501610100565b91505092915050565b6118ad8061014c5f395ff3fe60806040526004361061007e575f3560e01c8063a5623ffc1161004d578063a5623ffc14610137578063a6f9dae11461015f578063c55a040c14610187578063de6ce565146101af5761007f565b8063217fe6c61461008157806345e8fc8b146100bd578063559b9b4c146100e55780639047bf581461010d5761007f565b5b005b34801561008c575f5ffd5b506100a760048036038101906100a29190610edf565b6101d9565b6040516100b49190610f56565b60405180910390f35b3480156100c8575f5ffd5b506100e360048036038101906100de9190610faa565b61024b565b005b3480156100f0575f5ffd5b5061010b60048036038101906101069190610edf565b610343565b005b348015610118575f5ffd5b506101216105eb565b60405161012e9190610fed565b60405180910390f35b348015610142575f5ffd5b5061015d60048036038101906101589190610edf565b6105f1565b005b34801561016a575f5ffd5b5061018560048036038101906101809190611006565b610909565b005b348015610192575f5ffd5b506101ad60048036038101906101a8919061105b565b610a6a565b005b3480156101ba575f5ffd5b506101c3610c2f565b6040516101d09190610fed565b60405180910390f35b5f60025f8573ffffffffffffffffffffffffffffffffffffffff1673ffffffffffffffffffffffffffffffffffffffff1681526020019081526020015f2083836040516102279291906110c2565b90815260200160405180910390205f9054906101000a900460ff1690509392505050565b60025f3373ffffffffffffffffffffffffffffffffffffffff1673ffffffffffffffffffffffffffffffffffffffff1681526020019081526020015f2060405161029490611124565b90815260200160405180910390205f9054906101000a900460ff166102ee576040517f08c379a00000000000000000000000000000000000000000000000000000000081526004016102e5906111b8565b60405180910390fd5b6102f733610cf5565b61030081610d66565b8060035f6101000a81548173ffffffffffffffffffffffffffffffffffffffff021916908373ffffffffffffffffffffffffffffffffffffffff16021790555050565b5f5f9054906101000a900473ffffffffffffffffffffffffffffffffffffffff1673ffffffffffffffffffffffffffffffffffffffff163373ffffffffffffffffffffffffffffffffffffffff16146103d1576040517f08c379a00000000000000000000000000000000000000000000000000000000081526004016103c890611246565b60405180910390fd5b6040518060400160405280600781526020017f456d706c6f79650000000000000000000000000000000000000000000000000081525080519060200120828260405161041e929190611292565b604051809103902014610466576040517f08c379a000000000000000000000000000000000000000000000000000000000815260040161045d906112f4565b60405180910390fd5b60025f8473ffffffffffffffffffffffffffffffffffffffff1673ffffffffffffffffffffffffffffffffffffffff1681526020019081526020015f2082826040516104b39291906110c2565b90815260200160405180910390205f9054906101000a900460ff1661050d576040517f08c379a000000000000000000000000000000000000000000000000000000000815260040161050490611382565b60405180910390fd5b5f60025f8573ffffffffffffffffffffffffffffffffffffffff1673ffffffffffffffffffffffffffffffffffffffff1681526020019081526020015f20838360405161055b9291906110c2565b90815260200160405180910390205f6101000a81548160ff02191690831515021790555060015f815480929190610591906113cd565b91905055508273ffffffffffffffffffffffffffffffffffffffff167fcf3bbb93629b62834974659efc838721fa2bd3b41cafd38b516ac86b661491e183836040516105de929190611430565b60405180910390a2505050565b60015481565b5f5f9054906101000a900473ffffffffffffffffffffffffffffffffffffffff1673ffffffffffffffffffffffffffffffffffffffff163373ffffffffffffffffffffffffffffffffffffffff161461067f576040517f08c379a000000000000000000000000000000000000000000000000000000000815260040161067690611246565b60405180910390fd5b6040518060400160405280600781526020017f456d706c6f7965000000000000000000000000000000000000000000000000008152508051906020012082826040516106cc929190611292565b604051809103902014610714576040517f08c379a000000000000000000000000000000000000000000000000000000000815260040161070b906112f4565b60405180910390fd5b5f73ffffffffffffffffffffffffffffffffffffffff168373ffffffffffffffffffffffffffffffffffffffff1603610782576040517f08c379a0000000000000000000000000000000000000000000000000000000008152600401610779906114c2565b60405180910390fd5b60025f8473ffffffffffffffffffffffffffffffffffffffff1673ffffffffffffffffffffffffffffffffffffffff1681526020019081526020015f2082826040516107cf9291906110c2565b90815260200160405180910390205f9054906101000a900460ff161561082a576040517f08c379a000000000000000000000000000000000000000000000000000000000815260040161082190611550565b60405180910390fd5b600160025f8573ffffffffffffffffffffffffffffffffffffffff1673ffffffffffffffffffffffffffffffffffffffff1681526020019081526020015f2083836040516108799291906110c2565b90815260200160405180910390205f6101000a81548160ff02191690831515021790555060015f8154809291906108af9061156e565b91905055508273ffffffffffffffffffffffffffffffffffffffff167f088567665d11bb1ca04896b9d3c620779f90a9f00f12488f6050a74eb11c2be583836040516108fc929190611430565b60405180910390a2505050565b5f5f9054906101000a900473ffffffffffffffffffffffffffffffffffffffff1673ffffffffffffffffffffffffffffffffffffffff163373ffffffffffffffffffffffffffffffffffffffff1614610997576040517f08c379a000000000000000000000000000000000000000000000000000000000815260040161098e90611246565b60405180910390fd5b6109a081610cf5565b6109a933610cf5565b5f5f5f9054906101000a900473ffffffffffffffffffffffffffffffffffffffff169050815f5f6101000a81548173ffffffffffffffffffffffffffffffffffffffff021916908373ffffffffffffffffffffffffffffffffffffffff1602179055508173ffffffffffffffffffffffffffffffffffffffff168173ffffffffffffffffffffffffffffffffffffffff167fb532073b38c83145e3e5135377a08bf9aab55bc0fd7c1179cd4fb995d2a5159c60405160405180910390a35050565b60025f3373ffffffffffffffffffffffffffffffffffffffff1673ffffffffffffffffffffffffffffffffffffffff1681526020019081526020015f20604051610ab390611124565b90815260200160405180910390205f9054906101000a900460ff16610b0d576040517f08c379a0000000000000000000000000000000000000000000000000000000008152600401610b04906111b8565b60405180910390fd5b610b1633610cf5565b610b1f81610dd7565b80471015610b62576040517f08c379a0000000000000000000000000000000000000000000000000000000008152600401610b59906115ff565b60405180910390fd5b5f60035f9054906101000a900473ffffffffffffffffffffffffffffffffffffffff1673ffffffffffffffffffffffffffffffffffffffff1682604051610ba890611640565b5f6040518083038185875af1925050503d805f8114610be2576040519150601f19603f3d011682016040523d82523d5f602084013e610be7565b606091505b5050905080610c2b576040517f08c379a0000000000000000000000000000000000000000000000000000000008152600401610c229061169e565b60405180910390fd5b5050565b5f60025f3373ffffffffffffffffffffffffffffffffffffffff1673ffffffffffffffffffffffffffffffffffffffff1681526020019081526020015f20604051610c7990611124565b90815260200160405180910390205f9054906101000a900460ff16610cd3576040517f08c379a0000000000000000000000000000000000000000000000000000000008152600401610cca906111b8565b60405180910390fd5b610cdc33610cf5565b670de0b6b3a764000047610cf091906116e9565b905090565b5f73ffffffffffffffffffffffffffffffffffffffff168173ffffffffffffffffffffffffffffffffffffffff1603610d63576040517f08c379a0000000000000000000000000000000000000000000000000000000008152600401610d5a90611789565b60405180910390fd5b50565b5f73ffffffffffffffffffffffffffffffffffffffff168173ffffffffffffffffffffffffffffffffffffffff1603610dd4576040517f08c379a0000000000000000000000000000000000000000000000000000000008152600401610dcb906117f1565b60405180910390fd5b50565b5f8111610e19576040517f08c379a0000000000000000000000000000000000000000000000000000000008152600401610e1090611859565b60405180910390fd5b50565b5f5ffd5b5f5ffd5b5f73ffffffffffffffffffffffffffffffffffffffff82169050919050565b5f610e4d82610e24565b9050919050565b610e5d81610e43565b8114610e67575f5ffd5b50565b5f81359050610e7881610e54565b92915050565b5f5ffd5b5f5ffd5b5f5ffd5b5f5f83601f840112610e9f57610e9e610e7e565b5b8235905067ffffffffffffffff811115610ebc57610ebb610e82565b5b602083019150836001820283011115610ed857610ed7610e86565b5b9250929050565b5f5f5f60408486031215610ef657610ef5610e1c565b5b5f610f0386828701610e6a565b935050602084013567ffffffffffffffff811115610f2457610f23610e20565b5b610f3086828701610e8a565b92509250509250925092565b5f8115159050919050565b610f5081610f3c565b82525050565b5f602082019050610f695f830184610f47565b92915050565b5f610f7982610e24565b9050919050565b610f8981610f6f565b8114610f93575f5ffd5b50565b5f81359050610fa481610f80565b92915050565b5f60208284031215610fbf57610fbe610e1c565b5b5f610fcc84828501610f96565b91505092915050565b5f819050919050565b610fe781610fd5565b82525050565b5f6020820190506110005f830184610fde565b92915050565b5f6020828403121561101b5761101a610e1c565b5b5f61102884828501610e6a565b91505092915050565b61103a81610fd5565b8114611044575f5ffd5b50565b5f8135905061105581611031565b92915050565b5f602082840312156110705761106f610e1c565b5b5f61107d84828501611047565b91505092915050565b5f81905092915050565b828183375f83830152505050565b5f6110a98385611086565b93506110b6838584611090565b82840190509392505050565b5f6110ce82848661109e565b91508190509392505050565b7f41646d696e0000000000000000000000000000000000000000000000000000005f82015250565b5f61110e600583611086565b9150611119826110da565b600582019050919050565b5f61112e82611102565b9150819050919050565b5f82825260208201905092915050565b7f456d706c6f79656541737369676e6d656e743a2063616c6c6572206973206e6f5f8201527f7420616e2061646d696e00000000000000000000000000000000000000000000602082015250565b5f6111a2602a83611138565b91506111ad82611148565b604082019050919050565b5f6020820190508181035f8301526111cf81611196565b9050919050565b7f456d706c6f79656541737369676e6d656e743a2063616c6c6572206973206e6f5f8201527f7420746865206f776e6572000000000000000000000000000000000000000000602082015250565b5f611230602b83611138565b915061123b826111d6565b604082019050919050565b5f6020820190508181035f83015261125d81611224565b9050919050565b5f81905092915050565b5f6112798385611264565b9350611286838584611090565b82840190509392505050565b5f61129e82848661126e565b91508190509392505050565b7f456d706c6f79656541737369676e6d656e743a20696e76616c696420726f6c655f82015250565b5f6112de602083611138565b91506112e9826112aa565b602082019050919050565b5f6020820190508181035f83015261130b816112d2565b9050919050565b7f456d706c6f79656541737369676e6d656e743a20656d706c6f79656520646f655f8201527f73206e6f742068617665207468697320726f6c65000000000000000000000000602082015250565b5f61136c603483611138565b915061137782611312565b604082019050919050565b5f6020820190508181035f83015261139981611360565b9050919050565b7f4e487b71000000000000000000000000000000000000000000000000000000005f52601160045260245ffd5b5f6113d782610fd5565b91505f82036113e9576113e86113a0565b5b600182039050919050565b5f601f19601f8301169050919050565b5f61140f8385611138565b935061141c838584611090565b611425836113f4565b840190509392505050565b5f6020820190508181035f830152611449818486611404565b90509392505050565b7f456d706c6f79656541737369676e6d656e743a20656d706c6f7965652063616e5f8201527f6e6f74206265207a65726f206164647265737300000000000000000000000000602082015250565b5f6114ac603383611138565b91506114b782611452565b604082019050919050565b5f6020820190508181035f8301526114d9816114a0565b9050919050565b7f456d706c6f79656541737369676e6d656e743a20656d706c6f79656520616c725f8201527f6561647920686173207468697320726f6c650000000000000000000000000000602082015250565b5f61153a603283611138565b9150611545826114e0565b604082019050919050565b5f6020820190508181035f8301526115678161152e565b9050919050565b5f61157882610fd5565b91507fffffffffffffffffffffffffffffffffffffffffffffffffffffffffffffffff82036115aa576115a96113a0565b5b600182019050919050565b7f696e73756666696369656e742062616c616e63650000000000000000000000005f82015250565b5f6115e9601483611138565b91506115f4826115b5565b602082019050919050565b5f6020820190508181035f830152611616816115dd565b9050919050565b50565b5f61162b5f83611264565b91506116368261161d565b5f82019050919050565b5f61164a82611620565b9150819050919050565b7f7472616e7366657220746f206c6f616e20636f6e7472616374206661696c65645f82015250565b5f611688602083611138565b915061169382611654565b602082019050919050565b5f6020820190508181035f8301526116b58161167c565b9050919050565b7f4e487b71000000000000000000000000000000000000000000000000000000005f52601260045260245ffd5b5f6116f382610fd5565b91506116fe83610fd5565b92508261170e5761170d6116bc565b5b828204905092915050565b7f456d706c6f79656541737369676e6d656e743a207a65726f20616464726573735f8201527f206e6f7420616c6c6f7765640000000000000000000000000000000000000000602082015250565b5f611773602c83611138565b915061177e82611719565b604082019050919050565b5f6020820190508181035f8301526117a081611767565b9050919050565b7f4552523a207a65726f20616464726573730000000000000000000000000000005f82015250565b5f6117db601183611138565b91506117e6826117a7565b602082019050919050565b5f6020820190508181035f830152611808816117cf565b9050919050565b7f4d7573742062652067726561746572207468616e2030202100000000000000005f82015250565b5f611843601883611138565b915061184e8261180f565b602082019050919050565b5f6020820190508181035f83015261187081611837565b905091905056fea2646970667358221220450bb68bbe4709d26bc2127e70e3282440885b50b695d71b8cb245482fafb56764736f6c634300081e0033",
					"opcodes": "PUSH1 0x80 PUSH1 0x40 MSTORE CALLER PUSH0 PUSH0 PUSH2 0x100 EXP DUP2 SLOAD DUP2 PUSH20 0xFFFFFFFFFFFFFFFFFFFFFFFFFFFFFFFFFFFFFFFF MUL NOT AND SWAP1 DUP4 PUSH20 0xFFFFFFFFFFFFFFFFFFFFFFFFFFFFFFFFFFFFFFFF AND MUL OR SWAP1 SSTORE POP CALLVALUE DUP1 ISZERO PUSH2 0x4E JUMPI PUSH0 PUSH0 REVERT JUMPDEST POP PUSH1 0x40 MLOAD PUSH2 0x19F9 CODESIZE SUB DUP1 PUSH2 0x19F9 DUP4 CODECOPY DUP2 DUP2 ADD PUSH1 0x40 MSTORE DUP2 ADD SWAP1 PUSH2 0x70 SWAP2 SWAP1 PUSH2 0x114 JUMP JUMPDEST DUP1 PUSH1 0x3 PUSH0 PUSH2 0x100 EXP DUP2 SLOAD DUP2 PUSH20 0xFFFFFFFFFFFFFFFFFFFFFFFFFFFFFFFFFFFFFFFF MUL NOT AND SWAP1 DUP4 PUSH20 0xFFFFFFFFFFFFFFFFFFFFFFFFFFFFFFFFFFFFFFFF AND MUL OR SWAP1 SSTORE POP POP PUSH2 0x13F JUMP JUMPDEST PUSH0 PUSH0 REVERT JUMPDEST PUSH0 PUSH20 0xFFFFFFFFFFFFFFFFFFFFFFFFFFFFFFFFFFFFFFFF DUP3 AND SWAP1 POP SWAP2 SWAP1 POP JUMP JUMPDEST PUSH0 PUSH2 0xE3 DUP3 PUSH2 0xBA JUMP JUMPDEST SWAP1 POP SWAP2 SWAP1 POP JUMP JUMPDEST PUSH2 0xF3 DUP2 PUSH2 0xD9 JUMP JUMPDEST DUP2 EQ PUSH2 0xFD JUMPI PUSH0 PUSH0 REVERT JUMPDEST POP JUMP JUMPDEST PUSH0 DUP2 MLOAD SWAP1 POP PUSH2 0x10E DUP2 PUSH2 0xEA JUMP JUMPDEST SWAP3 SWAP2 POP POP JUMP JUMPDEST PUSH0 PUSH1 0x20 DUP3 DUP5 SUB SLT ISZERO PUSH2 0x129 JUMPI PUSH2 0x128 PUSH2 0xB6 JUMP JUMPDEST JUMPDEST PUSH0 PUSH2 0x136 DUP5 DUP3 DUP6 ADD PUSH2 0x100 JUMP JUMPDEST SWAP2 POP POP SWAP3 SWAP2 POP POP JUMP JUMPDEST PUSH2 0x18AD DUP1 PUSH2 0x14C PUSH0 CODECOPY PUSH0 RETURN INVALID PUSH1 0x80 PUSH1 0x40 MSTORE PUSH1 0x4 CALLDATASIZE LT PUSH2 0x7E JUMPI PUSH0 CALLDATALOAD PUSH1 0xE0 SHR DUP1 PUSH4 0xA5623FFC GT PUSH2 0x4D JUMPI DUP1 PUSH4 0xA5623FFC EQ PUSH2 0x137 JUMPI DUP1 PUSH4 0xA6F9DAE1 EQ PUSH2 0x15F JUMPI DUP1 PUSH4 0xC55A040C EQ PUSH2 0x187 JUMPI DUP1 PUSH4 0xDE6CE565 EQ PUSH2 0x1AF JUMPI PUSH2 0x7F JUMP JUMPDEST DUP1 PUSH4 0x217FE6C6 EQ PUSH2 0x81 JUMPI DUP1 PUSH4 0x45E8FC8B EQ PUSH2 0xBD JUMPI DUP1 PUSH4 0x559B9B4C EQ PUSH2 0xE5 JUMPI DUP1 PUSH4 0x9047BF58 EQ PUSH2 0x10D JUMPI PUSH2 0x7F JUMP JUMPDEST JUMPDEST STOP JUMPDEST CALLVALUE DUP1 ISZERO PUSH2 0x8C JUMPI PUSH0 PUSH0 REVERT JUMPDEST POP PUSH2 0xA7 PUSH1 0x4 DUP1 CALLDATASIZE SUB DUP2 ADD SWAP1 PUSH2 0xA2 SWAP2 SWAP1 PUSH2 0xEDF JUMP JUMPDEST PUSH2 0x1D9 JUMP JUMPDEST PUSH1 0x40 MLOAD PUSH2 0xB4 SWAP2 SWAP1 PUSH2 0xF56 JUMP JUMPDEST PUSH1 0x40 MLOAD DUP1 SWAP2 SUB SWAP1 RETURN JUMPDEST CALLVALUE DUP1 ISZERO PUSH2 0xC8 JUMPI PUSH0 PUSH0 REVERT JUMPDEST POP PUSH2 0xE3 PUSH1 0x4 DUP1 CALLDATASIZE SUB DUP2 ADD SWAP1 PUSH2 0xDE SWAP2 SWAP1 PUSH2 0xFAA JUMP JUMPDEST PUSH2 0x24B JUMP JUMPDEST STOP JUMPDEST CALLVALUE DUP1 ISZERO PUSH2 0xF0 JUMPI PUSH0 PUSH0 REVERT JUMPDEST POP PUSH2 0x10B PUSH1 0x4 DUP1 CALLDATASIZE SUB DUP2 ADD SWAP1 PUSH2 0x106 SWAP2 SWAP1 PUSH2 0xEDF JUMP JUMPDEST PUSH2 0x343 JUMP JUMPDEST STOP JUMPDEST CALLVALUE DUP1 ISZERO PUSH2 0x118 JUMPI PUSH0 PUSH0 REVERT JUMPDEST POP PUSH2 0x121 PUSH2 0x5EB JUMP JUMPDEST PUSH1 0x40 MLOAD PUSH2 0x12E SWAP2 SWAP1 PUSH2 0xFED JUMP JUMPDEST PUSH1 0x40 MLOAD DUP1 SWAP2 SUB SWAP1 RETURN JUMPDEST CALLVALUE DUP1 ISZERO PUSH2 0x142 JUMPI PUSH0 PUSH0 REVERT JUMPDEST POP PUSH2 0x15D PUSH1 0x4 DUP1 CALLDATASIZE SUB DUP2 ADD SWAP1 PUSH2 0x158 SWAP2 SWAP1 PUSH2 0xEDF JUMP JUMPDEST PUSH2 0x5F1 JUMP JUMPDEST STOP JUMPDEST CALLVALUE DUP1 ISZERO PUSH2 0x16A JUMPI PUSH0 PUSH0 REVERT JUMPDEST POP PUSH2 0x185 PUSH1 0x4 DUP1 CALLDATASIZE SUB DUP2 ADD SWAP1 PUSH2 0x180 SWAP2 SWAP1 PUSH2 0x1006 JUMP JUMPDEST PUSH2 0x909 JUMP JUMPDEST STOP JUMPDEST CALLVALUE DUP1 ISZERO PUSH2 0x192 JUMPI PUSH0 PUSH0 REVERT JUMPDEST POP PUSH2 0x1AD PUSH1 0x4 DUP1 CALLDATASIZE SUB DUP2 ADD SWAP1 PUSH2 0x1A8 SWAP2 SWAP1 PUSH2 0x105B JUMP JUMPDEST PUSH2 0xA6A JUMP JUMPDEST STOP JUMPDEST CALLVALUE DUP1 ISZERO PUSH2 0x1BA JUMPI PUSH0 PUSH0 REVERT JUMPDEST POP PUSH2 0x1C3 PUSH2 0xC2F JUMP JUMPDEST PUSH1 0x40 MLOAD PUSH2 0x1D0 SWAP2 SWAP1 PUSH2 0xFED JUMP JUMPDEST PUSH1 0x40 MLOAD DUP1 SWAP2 SUB SWAP1 RETURN JUMPDEST PUSH0 PUSH1 0x2 PUSH0 DUP6 PUSH20 0xFFFFFFFFFFFFFFFFFFFFFFFFFFFFFFFFFFFFFFFF AND PUSH20 0xFFFFFFFFFFFFFFFFFFFFFFFFFFFFFFFFFFFFFFFF AND DUP2 MSTORE PUSH1 0x20 ADD SWAP1 DUP2 MSTORE PUSH1 0x20 ADD PUSH0 KECCAK256 DUP4 DUP4 PUSH1 0x40 MLOAD PUSH2 0x227 SWAP3 SWAP2 SWAP1 PUSH2 0x10C2 JUMP JUMPDEST SWAP1 DUP2 MSTORE PUSH1 0x20 ADD PUSH1 0x40 MLOAD DUP1 SWAP2 SUB SWAP1 KECCAK256 PUSH0 SWAP1 SLOAD SWAP1 PUSH2 0x100 EXP SWAP1 DIV PUSH1 0xFF AND SWAP1 POP SWAP4 SWAP3 POP POP POP JUMP JUMPDEST PUSH1 0x2 PUSH0 CALLER PUSH20 0xFFFFFFFFFFFFFFFFFFFFFFFFFFFFFFFFFFFFFFFF AND PUSH20 0xFFFFFFFFFFFFFFFFFFFFFFFFFFFFFFFFFFFFFFFF AND DUP2 MSTORE PUSH1 0x20 ADD SWAP1 DUP2 MSTORE PUSH1 0x20 ADD PUSH0 KECCAK256 PUSH1 0x40 MLOAD PUSH2 0x294 SWAP1 PUSH2 0x1124 JUMP JUMPDEST SWAP1 DUP2 MSTORE PUSH1 0x20 ADD PUSH1 0x40 MLOAD DUP1 SWAP2 SUB SWAP1 KECCAK256 PUSH0 SWAP1 SLOAD SWAP1 PUSH2 0x100 EXP SWAP1 DIV PUSH1 0xFF AND PUSH2 0x2EE JUMPI PUSH1 0x40 MLOAD PUSH32 0x8C379A000000000000000000000000000000000000000000000000000000000 DUP2 MSTORE PUSH1 0x4 ADD PUSH2 0x2E5 SWAP1 PUSH2 0x11B8 JUMP JUMPDEST PUSH1 0x40 MLOAD DUP1 SWAP2 SUB SWAP1 REVERT JUMPDEST PUSH2 0x2F7 CALLER PUSH2 0xCF5 JUMP JUMPDEST PUSH2 0x300 DUP2 PUSH2 0xD66 JUMP JUMPDEST DUP1 PUSH1 0x3 PUSH0 PUSH2 0x100 EXP DUP2 SLOAD DUP2 PUSH20 0xFFFFFFFFFFFFFFFFFFFFFFFFFFFFFFFFFFFFFFFF MUL NOT AND SWAP1 DUP4 PUSH20 0xFFFFFFFFFFFFFFFFFFFFFFFFFFFFFFFFFFFFFFFF AND MUL OR SWAP1 SSTORE POP POP JUMP JUMPDEST PUSH0 PUSH0 SWAP1 SLOAD SWAP1 PUSH2 0x100 EXP SWAP1 DIV PUSH20 0xFFFFFFFFFFFFFFFFFFFFFFFFFFFFFFFFFFFFFFFF AND PUSH20 0xFFFFFFFFFFFFFFFFFFFFFFFFFFFFFFFFFFFFFFFF AND CALLER PUSH20 0xFFFFFFFFFFFFFFFFFFFFFFFFFFFFFFFFFFFFFFFF AND EQ PUSH2 0x3D1 JUMPI PUSH1 0x40 MLOAD PUSH32 0x8C379A000000000000000000000000000000000000000000000000000000000 DUP2 MSTORE PUSH1 0x4 ADD PUSH2 0x3C8 SWAP1 PUSH2 0x1246 JUMP JUMPDEST PUSH1 0x40 MLOAD DUP1 SWAP2 SUB SWAP1 REVERT JUMPDEST PUSH1 0x40 MLOAD DUP1 PUSH1 0x40 ADD PUSH1 0x40 MSTORE DUP1 PUSH1 0x7 DUP2 MSTORE PUSH1 0x20 ADD PUSH32 0x456D706C6F796500000000000000000000000000000000000000000000000000 DUP2 MSTORE POP DUP1 MLOAD SWAP1 PUSH1 0x20 ADD KECCAK256 DUP3 DUP3 PUSH1 0x40 MLOAD PUSH2 0x41E SWAP3 SWAP2 SWAP1 PUSH2 0x1292 JUMP JUMPDEST PUSH1 0x40 MLOAD DUP1 SWAP2 SUB SWAP1 KECCAK256 EQ PUSH2 0x466 JUMPI PUSH1 0x40 MLOAD PUSH32 0x8C379A000000000000000000000000000000000000000000000000000000000 DUP2 MSTORE PUSH1 0x4 ADD PUSH2 0x45D SWAP1 PUSH2 0x12F4 JUMP JUMPDEST PUSH1 0x40 MLOAD DUP1 SWAP2 SUB SWAP1 REVERT JUMPDEST PUSH1 0x2 PUSH0 DUP5 PUSH20 0xFFFFFFFFFFFFFFFFFFFFFFFFFFFFFFFFFFFFFFFF AND PUSH20 0xFFFFFFFFFFFFFFFFFFFFFFFFFFFFFFFFFFFFFFFF AND DUP2 MSTORE PUSH1 0x20 ADD SWAP1 DUP2 MSTORE PUSH1 0x20 ADD PUSH0 KECCAK256 DUP3 DUP3 PUSH1 0x40 MLOAD PUSH2 0x4B3 SWAP3 SWAP2 SWAP1 PUSH2 0x10C2 JUMP JUMPDEST SWAP1 DUP2 MSTORE PUSH1 0x20 ADD PUSH1 0x40 MLOAD DUP1 SWAP2 SUB SWAP1 KECCAK256 PUSH0 SWAP1 SLOAD SWAP1 PUSH2 0x100 EXP SWAP1 DIV PUSH1 0xFF AND PUSH2 0x50D JUMPI PUSH1 0x40 MLOAD PUSH32 0x8C379A000000000000000000000000000000000000000000000000000000000 DUP2 MSTORE PUSH1 0x4 ADD PUSH2 0x504 SWAP1 PUSH2 0x1382 JUMP JUMPDEST PUSH1 0x40 MLOAD DUP1 SWAP2 SUB SWAP1 REVERT JUMPDEST PUSH0 PUSH1 0x2 PUSH0 DUP6 PUSH20 0xFFFFFFFFFFFFFFFFFFFFFFFFFFFFFFFFFFFFFFFF AND PUSH20 0xFFFFFFFFFFFFFFFFFFFFFFFFFFFFFFFFFFFFFFFF AND DUP2 MSTORE PUSH1 0x20 ADD SWAP1 DUP2 MSTORE PUSH1 0x20 ADD PUSH0 KECCAK256 DUP4 DUP4 PUSH1 0x40 MLOAD PUSH2 0x55B SWAP3 SWAP2 SWAP1 PUSH2 0x10C2 JUMP JUMPDEST SWAP1 DUP2 MSTORE PUSH1 0x20 ADD PUSH1 0x40 MLOAD DUP1 SWAP2 SUB SWAP1 KECCAK256 PUSH0 PUSH2 0x100 EXP DUP2 SLOAD DUP2 PUSH1 0xFF MUL NOT AND SWAP1 DUP4 ISZERO ISZERO MUL OR SWAP1 SSTORE POP PUSH1 0x1 PUSH0 DUP2 SLOAD DUP1 SWAP3 SWAP2 SWAP1 PUSH2 0x591 SWAP1 PUSH2 0x13CD JUMP JUMPDEST SWAP2 SWAP1 POP SSTORE POP DUP3 PUSH20 0xFFFFFFFFFFFFFFFFFFFFFFFFFFFFFFFFFFFFFFFF AND PUSH32 0xCF3BBB93629B62834974659EFC838721FA2BD3B41CAFD38B516AC86B661491E1 DUP4 DUP4 PUSH1 0x40 MLOAD PUSH2 0x5DE SWAP3 SWAP2 SWAP1 PUSH2 0x1430 JUMP JUMPDEST PUSH1 0x40 MLOAD DUP1 SWAP2 SUB SWAP1 LOG2 POP POP POP JUMP JUMPDEST PUSH1 0x1 SLOAD DUP2 JUMP JUMPDEST PUSH0 PUSH0 SWAP1 SLOAD SWAP1 PUSH2 0x100 EXP SWAP1 DIV PUSH20 0xFFFFFFFFFFFFFFFFFFFFFFFFFFFFFFFFFFFFFFFF AND PUSH20 0xFFFFFFFFFFFFFFFFFFFFFFFFFFFFFFFFFFFFFFFF AND CALLER PUSH20 0xFFFFFFFFFFFFFFFFFFFFFFFFFFFFFFFFFFFFFFFF AND EQ PUSH2 0x67F JUMPI PUSH1 0x40 MLOAD PUSH32 0x8C379A000000000000000000000000000000000000000000000000000000000 DUP2 MSTORE PUSH1 0x4 ADD PUSH2 0x676 SWAP1 PUSH2 0x1246 JUMP JUMPDEST PUSH1 0x40 MLOAD DUP1 SWAP2 SUB SWAP1 REVERT JUMPDEST PUSH1 0x40 MLOAD DUP1 PUSH1 0x40 ADD PUSH1 0x40 MSTORE DUP1 PUSH1 0x7 DUP2 MSTORE PUSH1 0x20 ADD PUSH32 0x456D706C6F796500000000000000000000000000000000000000000000000000 DUP2 MSTORE POP DUP1 MLOAD SWAP1 PUSH1 0x20 ADD KECCAK256 DUP3 DUP3 PUSH1 0x40 MLOAD PUSH2 0x6CC SWAP3 SWAP2 SWAP1 PUSH2 0x1292 JUMP JUMPDEST PUSH1 0x40 MLOAD DUP1 SWAP2 SUB SWAP1 KECCAK256 EQ PUSH2 0x714 JUMPI PUSH1 0x40 MLOAD PUSH32 0x8C379A000000000000000000000000000000000000000000000000000000000 DUP2 MSTORE PUSH1 0x4 ADD PUSH2 0x70B SWAP1 PUSH2 0x12F4 JUMP JUMPDEST PUSH1 0x40 MLOAD DUP1 SWAP2 SUB SWAP1 REVERT JUMPDEST PUSH0 PUSH20 0xFFFFFFFFFFFFFFFFFFFFFFFFFFFFFFFFFFFFFFFF AND DUP4 PUSH20 0xFFFFFFFFFFFFFFFFFFFFFFFFFFFFFFFFFFFFFFFF AND SUB PUSH2 0x782 JUMPI PUSH1 0x40 MLOAD PUSH32 0x8C379A000000000000000000000000000000000000000000000000000000000 DUP2 MSTORE PUSH1 0x4 ADD PUSH2 0x779 SWAP1 PUSH2 0x14C2 JUMP JUMPDEST PUSH1 0x40 MLOAD DUP1 SWAP2 SUB SWAP1 REVERT JUMPDEST PUSH1 0x2 PUSH0 DUP5 PUSH20 0xFFFFFFFFFFFFFFFFFFFFFFFFFFFFFFFFFFFFFFFF AND PUSH20 0xFFFFFFFFFFFFFFFFFFFFFFFFFFFFFFFFFFFFFFFF AND DUP2 MSTORE PUSH1 0x20 ADD SWAP1 DUP2 MSTORE PUSH1 0x20 ADD PUSH0 KECCAK256 DUP3 DUP3 PUSH1 0x40 MLOAD PUSH2 0x7CF SWAP3 SWAP2 SWAP1 PUSH2 0x10C2 JUMP JUMPDEST SWAP1 DUP2 MSTORE PUSH1 0x20 ADD PUSH1 0x40 MLOAD DUP1 SWAP2 SUB SWAP1 KECCAK256 PUSH0 SWAP1 SLOAD SWAP1 PUSH2 0x100 EXP SWAP1 DIV PUSH1 0xFF AND ISZERO PUSH2 0x82A JUMPI PUSH1 0x40 MLOAD PUSH32 0x8C379A000000000000000000000000000000000000000000000000000000000 DUP2 MSTORE PUSH1 0x4 ADD PUSH2 0x821 SWAP1 PUSH2 0x1550 JUMP JUMPDEST PUSH1 0x40 MLOAD DUP1 SWAP2 SUB SWAP1 REVERT JUMPDEST PUSH1 0x1 PUSH1 0x2 PUSH0 DUP6 PUSH20 0xFFFFFFFFFFFFFFFFFFFFFFFFFFFFFFFFFFFFFFFF AND PUSH20 0xFFFFFFFFFFFFFFFFFFFFFFFFFFFFFFFFFFFFFFFF AND DUP2 MSTORE PUSH1 0x20 ADD SWAP1 DUP2 MSTORE PUSH1 0x20 ADD PUSH0 KECCAK256 DUP4 DUP4 PUSH1 0x40 MLOAD PUSH2 0x879 SWAP3 SWAP2 SWAP1 PUSH2 0x10C2 JUMP JUMPDEST SWAP1 DUP2 MSTORE PUSH1 0x20 ADD PUSH1 0x40 MLOAD DUP1 SWAP2 SUB SWAP1 KECCAK256 PUSH0 PUSH2 0x100 EXP DUP2 SLOAD DUP2 PUSH1 0xFF MUL NOT AND SWAP1 DUP4 ISZERO ISZERO MUL OR SWAP1 SSTORE POP PUSH1 0x1 PUSH0 DUP2 SLOAD DUP1 SWAP3 SWAP2 SWAP1 PUSH2 0x8AF SWAP1 PUSH2 0x156E JUMP JUMPDEST SWAP2 SWAP1 POP SSTORE POP DUP3 PUSH20 0xFFFFFFFFFFFFFFFFFFFFFFFFFFFFFFFFFFFFFFFF AND PUSH32 0x88567665D11BB1CA04896B9D3C620779F90A9F00F12488F6050A74EB11C2BE5 DUP4 DUP4 PUSH1 0x40 MLOAD PUSH2 0x8FC SWAP3 SWAP2 SWAP1 PUSH2 0x1430 JUMP JUMPDEST PUSH1 0x40 MLOAD DUP1 SWAP2 SUB SWAP1 LOG2 POP POP POP JUMP JUMPDEST PUSH0 PUSH0 SWAP1 SLOAD SWAP1 PUSH2 0x100 EXP SWAP1 DIV PUSH20 0xFFFFFFFFFFFFFFFFFFFFFFFFFFFFFFFFFFFFFFFF AND PUSH20 0xFFFFFFFFFFFFFFFFFFFFFFFFFFFFFFFFFFFFFFFF AND CALLER PUSH20 0xFFFFFFFFFFFFFFFFFFFFFFFFFFFFFFFFFFFFFFFF AND EQ PUSH2 0x997 JUMPI PUSH1 0x40 MLOAD PUSH32 0x8C379A000000000000000000000000000000000000000000000000000000000 DUP2 MSTORE PUSH1 0x4 ADD PUSH2 0x98E SWAP1 PUSH2 0x1246 JUMP JUMPDEST PUSH1 0x40 MLOAD DUP1 SWAP2 SUB SWAP1 REVERT JUMPDEST PUSH2 0x9A0 DUP2 PUSH2 0xCF5 JUMP JUMPDEST PUSH2 0x9A9 CALLER PUSH2 0xCF5 JUMP JUMPDEST PUSH0 PUSH0 PUSH0 SWAP1 SLOAD SWAP1 PUSH2 0x100 EXP SWAP1 DIV PUSH20 0xFFFFFFFFFFFFFFFFFFFFFFFFFFFFFFFFFFFFFFFF AND SWAP1 POP DUP2 PUSH0 PUSH0 PUSH2 0x100 EXP DUP2 SLOAD DUP2 PUSH20 0xFFFFFFFFFFFFFFFFFFFFFFFFFFFFFFFFFFFFFFFF MUL NOT AND SWAP1 DUP4 PUSH20 0xFFFFFFFFFFFFFFFFFFFFFFFFFFFFFFFFFFFFFFFF AND MUL OR SWAP1 SSTORE POP DUP2 PUSH20 0xFFFFFFFFFFFFFFFFFFFFFFFFFFFFFFFFFFFFFFFF AND DUP2 PUSH20 0xFFFFFFFFFFFFFFFFFFFFFFFFFFFFFFFFFFFFFFFF AND PUSH32 0xB532073B38C83145E3E5135377A08BF9AAB55BC0FD7C1179CD4FB995D2A5159C PUSH1 0x40 MLOAD PUSH1 0x40 MLOAD DUP1 SWAP2 SUB SWAP1 LOG3 POP POP JUMP JUMPDEST PUSH1 0x2 PUSH0 CALLER PUSH20 0xFFFFFFFFFFFFFFFFFFFFFFFFFFFFFFFFFFFFFFFF AND PUSH20 0xFFFFFFFFFFFFFFFFFFFFFFFFFFFFFFFFFFFFFFFF AND DUP2 MSTORE PUSH1 0x20 ADD SWAP1 DUP2 MSTORE PUSH1 0x20 ADD PUSH0 KECCAK256 PUSH1 0x40 MLOAD PUSH2 0xAB3 SWAP1 PUSH2 0x1124 JUMP JUMPDEST SWAP1 DUP2 MSTORE PUSH1 0x20 ADD PUSH1 0x40 MLOAD DUP1 SWAP2 SUB SWAP1 KECCAK256 PUSH0 SWAP1 SLOAD SWAP1 PUSH2 0x100 EXP SWAP1 DIV PUSH1 0xFF AND PUSH2 0xB0D JUMPI PUSH1 0x40 MLOAD PUSH32 0x8C379A000000000000000000000000000000000000000000000000000000000 DUP2 MSTORE PUSH1 0x4 ADD PUSH2 0xB04 SWAP1 PUSH2 0x11B8 JUMP JUMPDEST PUSH1 0x40 MLOAD DUP1 SWAP2 SUB SWAP1 REVERT JUMPDEST PUSH2 0xB16 CALLER PUSH2 0xCF5 JUMP JUMPDEST PUSH2 0xB1F DUP2 PUSH2 0xDD7 JUMP JUMPDEST DUP1 SELFBALANCE LT ISZERO PUSH2 0xB62 JUMPI PUSH1 0x40 MLOAD PUSH32 0x8C379A000000000000000000000000000000000000000000000000000000000 DUP2 MSTORE PUSH1 0x4 ADD PUSH2 0xB59 SWAP1 PUSH2 0x15FF JUMP JUMPDEST PUSH1 0x40 MLOAD DUP1 SWAP2 SUB SWAP1 REVERT JUMPDEST PUSH0 PUSH1 0x3 PUSH0 SWAP1 SLOAD SWAP1 PUSH2 0x100 EXP SWAP1 DIV PUSH20 0xFFFFFFFFFFFFFFFFFFFFFFFFFFFFFFFFFFFFFFFF AND PUSH20 0xFFFFFFFFFFFFFFFFFFFFFFFFFFFFFFFFFFFFFFFF AND DUP3 PUSH1 0x40 MLOAD PUSH2 0xBA8 SWAP1 PUSH2 0x1640 JUMP JUMPDEST PUSH0 PUSH1 0x40 MLOAD DUP1 DUP4 SUB DUP2 DUP6 DUP8 GAS CALL SWAP3 POP POP POP RETURNDATASIZE DUP1 PUSH0 DUP2 EQ PUSH2 0xBE2 JUMPI PUSH1 0x40 MLOAD SWAP2 POP PUSH1 0x1F NOT PUSH1 0x3F RETURNDATASIZE ADD AND DUP3 ADD PUSH1 0x40 MSTORE RETURNDATASIZE DUP3 MSTORE RETURNDATASIZE PUSH0 PUSH1 0x20 DUP5 ADD RETURNDATACOPY PUSH2 0xBE7 JUMP JUMPDEST PUSH1 0x60 SWAP2 POP JUMPDEST POP POP SWAP1 POP DUP1 PUSH2 0xC2B JUMPI PUSH1 0x40 MLOAD PUSH32 0x8C379A000000000000000000000000000000000000000000000000000000000 DUP2 MSTORE PUSH1 0x4 ADD PUSH2 0xC22 SWAP1 PUSH2 0x169E JUMP JUMPDEST PUSH1 0x40 MLOAD DUP1 SWAP2 SUB SWAP1 REVERT JUMPDEST POP POP JUMP JUMPDEST PUSH0 PUSH1 0x2 PUSH0 CALLER PUSH20 0xFFFFFFFFFFFFFFFFFFFFFFFFFFFFFFFFFFFFFFFF AND PUSH20 0xFFFFFFFFFFFFFFFFFFFFFFFFFFFFFFFFFFFFFFFF AND DUP2 MSTORE PUSH1 0x20 ADD SWAP1 DUP2 MSTORE PUSH1 0x20 ADD PUSH0 KECCAK256 PUSH1 0x40 MLOAD PUSH2 0xC79 SWAP1 PUSH2 0x1124 JUMP JUMPDEST SWAP1 DUP2 MSTORE PUSH1 0x20 ADD PUSH1 0x40 MLOAD DUP1 SWAP2 SUB SWAP1 KECCAK256 PUSH0 SWAP1 SLOAD SWAP1 PUSH2 0x100 EXP SWAP1 DIV PUSH1 0xFF AND PUSH2 0xCD3 JUMPI PUSH1 0x40 MLOAD PUSH32 0x8C379A000000000000000000000000000000000000000000000000000000000 DUP2 MSTORE PUSH1 0x4 ADD PUSH2 0xCCA SWAP1 PUSH2 0x11B8 JUMP JUMPDEST PUSH1 0x40 MLOAD DUP1 SWAP2 SUB SWAP1 REVERT JUMPDEST PUSH2 0xCDC CALLER PUSH2 0xCF5 JUMP JUMPDEST PUSH8 0xDE0B6B3A7640000 SELFBALANCE PUSH2 0xCF0 SWAP2 SWAP1 PUSH2 0x16E9 JUMP JUMPDEST SWAP1 POP SWAP1 JUMP JUMPDEST PUSH0 PUSH20 0xFFFFFFFFFFFFFFFFFFFFFFFFFFFFFFFFFFFFFFFF AND DUP2 PUSH20 0xFFFFFFFFFFFFFFFFFFFFFFFFFFFFFFFFFFFFFFFF AND SUB PUSH2 0xD63 JUMPI PUSH1 0x40 MLOAD PUSH32 0x8C379A000000000000000000000000000000000000000000000000000000000 DUP2 MSTORE PUSH1 0x4 ADD PUSH2 0xD5A SWAP1 PUSH2 0x1789 JUMP JUMPDEST PUSH1 0x40 MLOAD DUP1 SWAP2 SUB SWAP1 REVERT JUMPDEST POP JUMP JUMPDEST PUSH0 PUSH20 0xFFFFFFFFFFFFFFFFFFFFFFFFFFFFFFFFFFFFFFFF AND DUP2 PUSH20 0xFFFFFFFFFFFFFFFFFFFFFFFFFFFFFFFFFFFFFFFF AND SUB PUSH2 0xDD4 JUMPI PUSH1 0x40 MLOAD PUSH32 0x8C379A000000000000000000000000000000000000000000000000000000000 DUP2 MSTORE PUSH1 0x4 ADD PUSH2 0xDCB SWAP1 PUSH2 0x17F1 JUMP JUMPDEST PUSH1 0x40 MLOAD DUP1 SWAP2 SUB SWAP1 REVERT JUMPDEST POP JUMP JUMPDEST PUSH0 DUP2 GT PUSH2 0xE19 JUMPI PUSH1 0x40 MLOAD PUSH32 0x8C379A000000000000000000000000000000000000000000000000000000000 DUP2 MSTORE PUSH1 0x4 ADD PUSH2 0xE10 SWAP1 PUSH2 0x1859 JUMP JUMPDEST PUSH1 0x40 MLOAD DUP1 SWAP2 SUB SWAP1 REVERT JUMPDEST POP JUMP JUMPDEST PUSH0 PUSH0 REVERT JUMPDEST PUSH0 PUSH0 REVERT JUMPDEST PUSH0 PUSH20 0xFFFFFFFFFFFFFFFFFFFFFFFFFFFFFFFFFFFFFFFF DUP3 AND SWAP1 POP SWAP2 SWAP1 POP JUMP JUMPDEST PUSH0 PUSH2 0xE4D DUP3 PUSH2 0xE24 JUMP JUMPDEST SWAP1 POP SWAP2 SWAP1 POP JUMP JUMPDEST PUSH2 0xE5D DUP2 PUSH2 0xE43 JUMP JUMPDEST DUP2 EQ PUSH2 0xE67 JUMPI PUSH0 PUSH0 REVERT JUMPDEST POP JUMP JUMPDEST PUSH0 DUP2 CALLDATALOAD SWAP1 POP PUSH2 0xE78 DUP2 PUSH2 0xE54 JUMP JUMPDEST SWAP3 SWAP2 POP POP JUMP JUMPDEST PUSH0 PUSH0 REVERT JUMPDEST PUSH0 PUSH0 REVERT JUMPDEST PUSH0 PUSH0 REVERT JUMPDEST PUSH0 PUSH0 DUP4 PUSH1 0x1F DUP5 ADD SLT PUSH2 0xE9F JUMPI PUSH2 0xE9E PUSH2 0xE7E JUMP JUMPDEST JUMPDEST DUP3 CALLDATALOAD SWAP1 POP PUSH8 0xFFFFFFFFFFFFFFFF DUP2 GT ISZERO PUSH2 0xEBC JUMPI PUSH2 0xEBB PUSH2 0xE82 JUMP JUMPDEST JUMPDEST PUSH1 0x20 DUP4 ADD SWAP2 POP DUP4 PUSH1 0x1 DUP3 MUL DUP4 ADD GT ISZERO PUSH2 0xED8 JUMPI PUSH2 0xED7 PUSH2 0xE86 JUMP JUMPDEST JUMPDEST SWAP3 POP SWAP3 SWAP1 POP JUMP JUMPDEST PUSH0 PUSH0 PUSH0 PUSH1 0x40 DUP5 DUP7 SUB SLT ISZERO PUSH2 0xEF6 JUMPI PUSH2 0xEF5 PUSH2 0xE1C JUMP JUMPDEST JUMPDEST PUSH0 PUSH2 0xF03 DUP7 DUP3 DUP8 ADD PUSH2 0xE6A JUMP JUMPDEST SWAP4 POP POP PUSH1 0x20 DUP5 ADD CALLDATALOAD PUSH8 0xFFFFFFFFFFFFFFFF DUP2 GT ISZERO PUSH2 0xF24 JUMPI PUSH2 0xF23 PUSH2 0xE20 JUMP JUMPDEST JUMPDEST PUSH2 0xF30 DUP7 DUP3 DUP8 ADD PUSH2 0xE8A JUMP JUMPDEST SWAP3 POP SWAP3 POP POP SWAP3 POP SWAP3 POP SWAP3 JUMP JUMPDEST PUSH0 DUP2 ISZERO ISZERO SWAP1 POP SWAP2 SWAP1 POP JUMP JUMPDEST PUSH2 0xF50 DUP2 PUSH2 0xF3C JUMP JUMPDEST DUP3 MSTORE POP POP JUMP JUMPDEST PUSH0 PUSH1 0x20 DUP3 ADD SWAP1 POP PUSH2 0xF69 PUSH0 DUP4 ADD DUP5 PUSH2 0xF47 JUMP JUMPDEST SWAP3 SWAP2 POP POP JUMP JUMPDEST PUSH0 PUSH2 0xF79 DUP3 PUSH2 0xE24 JUMP JUMPDEST SWAP1 POP SWAP2 SWAP1 POP JUMP JUMPDEST PUSH2 0xF89 DUP2 PUSH2 0xF6F JUMP JUMPDEST DUP2 EQ PUSH2 0xF93 JUMPI PUSH0 PUSH0 REVERT JUMPDEST POP JUMP JUMPDEST PUSH0 DUP2 CALLDATALOAD SWAP1 POP PUSH2 0xFA4 DUP2 PUSH2 0xF80 JUMP JUMPDEST SWAP3 SWAP2 POP POP JUMP JUMPDEST PUSH0 PUSH1 0x20 DUP3 DUP5 SUB SLT ISZERO PUSH2 0xFBF JUMPI PUSH2 0xFBE PUSH2 0xE1C JUMP JUMPDEST JUMPDEST PUSH0 PUSH2 0xFCC DUP5 DUP3 DUP6 ADD PUSH2 0xF96 JUMP JUMPDEST SWAP2 POP POP SWAP3 SWAP2 POP POP JUMP JUMPDEST PUSH0 DUP2 SWAP1 POP SWAP2 SWAP1 POP JUMP JUMPDEST PUSH2 0xFE7 DUP2 PUSH2 0xFD5 JUMP JUMPDEST DUP3 MSTORE POP POP JUMP JUMPDEST PUSH0 PUSH1 0x20 DUP3 ADD SWAP1 POP PUSH2 0x1000 PUSH0 DUP4 ADD DUP5 PUSH2 0xFDE JUMP JUMPDEST SWAP3 SWAP2 POP POP JUMP JUMPDEST PUSH0 PUSH1 0x20 DUP3 DUP5 SUB SLT ISZERO PUSH2 0x101B JUMPI PUSH2 0x101A PUSH2 0xE1C JUMP JUMPDEST JUMPDEST PUSH0 PUSH2 0x1028 DUP5 DUP3 DUP6 ADD PUSH2 0xE6A JUMP JUMPDEST SWAP2 POP POP SWAP3 SWAP2 POP POP JUMP JUMPDEST PUSH2 0x103A DUP2 PUSH2 0xFD5 JUMP JUMPDEST DUP2 EQ PUSH2 0x1044 JUMPI PUSH0 PUSH0 REVERT JUMPDEST POP JUMP JUMPDEST PUSH0 DUP2 CALLDATALOAD SWAP1 POP PUSH2 0x1055 DUP2 PUSH2 0x1031 JUMP JUMPDEST SWAP3 SWAP2 POP POP JUMP JUMPDEST PUSH0 PUSH1 0x20 DUP3 DUP5 SUB SLT ISZERO PUSH2 0x1070 JUMPI PUSH2 0x106F PUSH2 0xE1C JUMP JUMPDEST JUMPDEST PUSH0 PUSH2 0x107D DUP5 DUP3 DUP6 ADD PUSH2 0x1047 JUMP JUMPDEST SWAP2 POP POP SWAP3 SWAP2 POP POP JUMP JUMPDEST PUSH0 DUP2 SWAP1 POP SWAP3 SWAP2 POP POP JUMP JUMPDEST DUP3 DUP2 DUP4 CALLDATACOPY PUSH0 DUP4 DUP4 ADD MSTORE POP POP POP JUMP JUMPDEST PUSH0 PUSH2 0x10A9 DUP4 DUP6 PUSH2 0x1086 JUMP JUMPDEST SWAP4 POP PUSH2 0x10B6 DUP4 DUP6 DUP5 PUSH2 0x1090 JUMP JUMPDEST DUP3 DUP5 ADD SWAP1 POP SWAP4 SWAP3 POP POP POP JUMP JUMPDEST PUSH0 PUSH2 0x10CE DUP3 DUP5 DUP7 PUSH2 0x109E JUMP JUMPDEST SWAP2 POP DUP2 SWAP1 POP SWAP4 SWAP3 POP POP POP JUMP JUMPDEST PUSH32 0x41646D696E000000000000000000000000000000000000000000000000000000 PUSH0 DUP3 ADD MSTORE POP JUMP JUMPDEST PUSH0 PUSH2 0x110E PUSH1 0x5 DUP4 PUSH2 0x1086 JUMP JUMPDEST SWAP2 POP PUSH2 0x1119 DUP3 PUSH2 0x10DA JUMP JUMPDEST PUSH1 0x5 DUP3 ADD SWAP1 POP SWAP2 SWAP1 POP JUMP JUMPDEST PUSH0 PUSH2 0x112E DUP3 PUSH2 0x1102 JUMP JUMPDEST SWAP2 POP DUP2 SWAP1 POP SWAP2 SWAP1 POP JUMP JUMPDEST PUSH0 DUP3 DUP3 MSTORE PUSH1 0x20 DUP3 ADD SWAP1 POP SWAP3 SWAP2 POP POP JUMP JUMPDEST PUSH32 0x456D706C6F79656541737369676E6D656E743A2063616C6C6572206973206E6F PUSH0 DUP3 ADD MSTORE PUSH32 0x7420616E2061646D696E00000000000000000000000000000000000000000000 PUSH1 0x20 DUP3 ADD MSTORE POP JUMP JUMPDEST PUSH0 PUSH2 0x11A2 PUSH1 0x2A DUP4 PUSH2 0x1138 JUMP JUMPDEST SWAP2 POP PUSH2 0x11AD DUP3 PUSH2 0x1148 JUMP JUMPDEST PUSH1 0x40 DUP3 ADD SWAP1 POP SWAP2 SWAP1 POP JUMP JUMPDEST PUSH0 PUSH1 0x20 DUP3 ADD SWAP1 POP DUP2 DUP2 SUB PUSH0 DUP4 ADD MSTORE PUSH2 0x11CF DUP2 PUSH2 0x1196 JUMP JUMPDEST SWAP1 POP SWAP2 SWAP1 POP JUMP JUMPDEST PUSH32 0x456D706C6F79656541737369676E6D656E743A2063616C6C6572206973206E6F PUSH0 DUP3 ADD MSTORE PUSH32 0x7420746865206F776E6572000000000000000000000000000000000000000000 PUSH1 0x20 DUP3 ADD MSTORE POP JUMP JUMPDEST PUSH0 PUSH2 0x1230 PUSH1 0x2B DUP4 PUSH2 0x1138 JUMP JUMPDEST SWAP2 POP PUSH2 0x123B DUP3 PUSH2 0x11D6 JUMP JUMPDEST PUSH1 0x40 DUP3 ADD SWAP1 POP SWAP2 SWAP1 POP JUMP JUMPDEST PUSH0 PUSH1 0x20 DUP3 ADD SWAP1 POP DUP2 DUP2 SUB PUSH0 DUP4 ADD MSTORE PUSH2 0x125D DUP2 PUSH2 0x1224 JUMP JUMPDEST SWAP1 POP SWAP2 SWAP1 POP JUMP JUMPDEST PUSH0 DUP2 SWAP1 POP SWAP3 SWAP2 POP POP JUMP JUMPDEST PUSH0 PUSH2 0x1279 DUP4 DUP6 PUSH2 0x1264 JUMP JUMPDEST SWAP4 POP PUSH2 0x1286 DUP4 DUP6 DUP5 PUSH2 0x1090 JUMP JUMPDEST DUP3 DUP5 ADD SWAP1 POP SWAP4 SWAP3 POP POP POP JUMP JUMPDEST PUSH0 PUSH2 0x129E DUP3 DUP5 DUP7 PUSH2 0x126E JUMP JUMPDEST SWAP2 POP DUP2 SWAP1 POP SWAP4 SWAP3 POP POP POP JUMP JUMPDEST PUSH32 0x456D706C6F79656541737369676E6D656E743A20696E76616C696420726F6C65 PUSH0 DUP3 ADD MSTORE POP JUMP JUMPDEST PUSH0 PUSH2 0x12DE PUSH1 0x20 DUP4 PUSH2 0x1138 JUMP JUMPDEST SWAP2 POP PUSH2 0x12E9 DUP3 PUSH2 0x12AA JUMP JUMPDEST PUSH1 0x20 DUP3 ADD SWAP1 POP SWAP2 SWAP1 POP JUMP JUMPDEST PUSH0 PUSH1 0x20 DUP3 ADD SWAP1 POP DUP2 DUP2 SUB PUSH0 DUP4 ADD MSTORE PUSH2 0x130B DUP2 PUSH2 0x12D2 JUMP JUMPDEST SWAP1 POP SWAP2 SWAP1 POP JUMP JUMPDEST PUSH32 0x456D706C6F79656541737369676E6D656E743A20656D706C6F79656520646F65 PUSH0 DUP3 ADD MSTORE PUSH32 0x73206E6F742068617665207468697320726F6C65000000000000000000000000 PUSH1 0x20 DUP3 ADD MSTORE POP JUMP JUMPDEST PUSH0 PUSH2 0x136C PUSH1 0x34 DUP4 PUSH2 0x1138 JUMP JUMPDEST SWAP2 POP PUSH2 0x1377 DUP3 PUSH2 0x1312 JUMP JUMPDEST PUSH1 0x40 DUP3 ADD SWAP1 POP SWAP2 SWAP1 POP JUMP JUMPDEST PUSH0 PUSH1 0x20 DUP3 ADD SWAP1 POP DUP2 DUP2 SUB PUSH0 DUP4 ADD MSTORE PUSH2 0x1399 DUP2 PUSH2 0x1360 JUMP JUMPDEST SWAP1 POP SWAP2 SWAP1 POP JUMP JUMPDEST PUSH32 0x4E487B7100000000000000000000000000000000000000000000000000000000 PUSH0 MSTORE PUSH1 0x11 PUSH1 0x4 MSTORE PUSH1 0x24 PUSH0 REVERT JUMPDEST PUSH0 PUSH2 0x13D7 DUP3 PUSH2 0xFD5 JUMP JUMPDEST SWAP2 POP PUSH0 DUP3 SUB PUSH2 0x13E9 JUMPI PUSH2 0x13E8 PUSH2 0x13A0 JUMP JUMPDEST JUMPDEST PUSH1 0x1 DUP3 SUB SWAP1 POP SWAP2 SWAP1 POP JUMP JUMPDEST PUSH0 PUSH1 0x1F NOT PUSH1 0x1F DUP4 ADD AND SWAP1 POP SWAP2 SWAP1 POP JUMP JUMPDEST PUSH0 PUSH2 0x140F DUP4 DUP6 PUSH2 0x1138 JUMP JUMPDEST SWAP4 POP PUSH2 0x141C DUP4 DUP6 DUP5 PUSH2 0x1090 JUMP JUMPDEST PUSH2 0x1425 DUP4 PUSH2 0x13F4 JUMP JUMPDEST DUP5 ADD SWAP1 POP SWAP4 SWAP3 POP POP POP JUMP JUMPDEST PUSH0 PUSH1 0x20 DUP3 ADD SWAP1 POP DUP2 DUP2 SUB PUSH0 DUP4 ADD MSTORE PUSH2 0x1449 DUP2 DUP5 DUP7 PUSH2 0x1404 JUMP JUMPDEST SWAP1 POP SWAP4 SWAP3 POP POP POP JUMP JUMPDEST PUSH32 0x456D706C6F79656541737369676E6D656E743A20656D706C6F7965652063616E PUSH0 DUP3 ADD MSTORE PUSH32 0x6E6F74206265207A65726F206164647265737300000000000000000000000000 PUSH1 0x20 DUP3 ADD MSTORE POP JUMP JUMPDEST PUSH0 PUSH2 0x14AC PUSH1 0x33 DUP4 PUSH2 0x1138 JUMP JUMPDEST SWAP2 POP PUSH2 0x14B7 DUP3 PUSH2 0x1452 JUMP JUMPDEST PUSH1 0x40 DUP3 ADD SWAP1 POP SWAP2 SWAP1 POP JUMP JUMPDEST PUSH0 PUSH1 0x20 DUP3 ADD SWAP1 POP DUP2 DUP2 SUB PUSH0 DUP4 ADD MSTORE PUSH2 0x14D9 DUP2 PUSH2 0x14A0 JUMP JUMPDEST SWAP1 POP SWAP2 SWAP1 POP JUMP JUMPDEST PUSH32 0x456D706C6F79656541737369676E6D656E743A20656D706C6F79656520616C72 PUSH0 DUP3 ADD MSTORE PUSH32 0x6561647920686173207468697320726F6C650000000000000000000000000000 PUSH1 0x20 DUP3 ADD MSTORE POP JUMP JUMPDEST PUSH0 PUSH2 0x153A PUSH1 0x32 DUP4 PUSH2 0x1138 JUMP JUMPDEST SWAP2 POP PUSH2 0x1545 DUP3 PUSH2 0x14E0 JUMP JUMPDEST PUSH1 0x40 DUP3 ADD SWAP1 POP SWAP2 SWAP1 POP JUMP JUMPDEST PUSH0 PUSH1 0x20 DUP3 ADD SWAP1 POP DUP2 DUP2 SUB PUSH0 DUP4 ADD MSTORE PUSH2 0x1567 DUP2 PUSH2 0x152E JUMP JUMPDEST SWAP1 POP SWAP2 SWAP1 POP JUMP JUMPDEST PUSH0 PUSH2 0x1578 DUP3 PUSH2 0xFD5 JUMP JUMPDEST SWAP2 POP PUSH32 0xFFFFFFFFFFFFFFFFFFFFFFFFFFFFFFFFFFFFFFFFFFFFFFFFFFFFFFFFFFFFFFFF DUP3 SUB PUSH2 0x15AA JUMPI PUSH2 0x15A9 PUSH2 0x13A0 JUMP JUMPDEST JUMPDEST PUSH1 0x1 DUP3 ADD SWAP1 POP SWAP2 SWAP1 POP JUMP JUMPDEST PUSH32 0x696E73756666696369656E742062616C616E6365000000000000000000000000 PUSH0 DUP3 ADD MSTORE POP JUMP JUMPDEST PUSH0 PUSH2 0x15E9 PUSH1 0x14 DUP4 PUSH2 0x1138 JUMP JUMPDEST SWAP2 POP PUSH2 0x15F4 DUP3 PUSH2 0x15B5 JUMP JUMPDEST PUSH1 0x20 DUP3 ADD SWAP1 POP SWAP2 SWAP1 POP JUMP JUMPDEST PUSH0 PUSH1 0x20 DUP3 ADD SWAP1 POP DUP2 DUP2 SUB PUSH0 DUP4 ADD MSTORE PUSH2 0x1616 DUP2 PUSH2 0x15DD JUMP JUMPDEST SWAP1 POP SWAP2 SWAP1 POP JUMP JUMPDEST POP JUMP JUMPDEST PUSH0 PUSH2 0x162B PUSH0 DUP4 PUSH2 0x1264 JUMP JUMPDEST SWAP2 POP PUSH2 0x1636 DUP3 PUSH2 0x161D JUMP JUMPDEST PUSH0 DUP3 ADD SWAP1 POP SWAP2 SWAP1 POP JUMP JUMPDEST PUSH0 PUSH2 0x164A DUP3 PUSH2 0x1620 JUMP JUMPDEST SWAP2 POP DUP2 SWAP1 POP SWAP2 SWAP1 POP JUMP JUMPDEST PUSH32 0x7472616E7366657220746F206C6F616E20636F6E7472616374206661696C6564 PUSH0 DUP3 ADD MSTORE POP JUMP JUMPDEST PUSH0 PUSH2 0x1688 PUSH1 0x20 DUP4 PUSH2 0x1138 JUMP JUMPDEST SWAP2 POP PUSH2 0x1693 DUP3 PUSH2 0x1654 JUMP JUMPDEST PUSH1 0x20 DUP3 ADD SWAP1 POP SWAP2 SWAP1 POP JUMP JUMPDEST PUSH0 PUSH1 0x20 DUP3 ADD SWAP1 POP DUP2 DUP2 SUB PUSH0 DUP4 ADD MSTORE PUSH2 0x16B5 DUP2 PUSH2 0x167C JUMP JUMPDEST SWAP1 POP SWAP2 SWAP1 POP JUMP JUMPDEST PUSH32 0x4E487B7100000000000000000000000000000000000000000000000000000000 PUSH0 MSTORE PUSH1 0x12 PUSH1 0x4 MSTORE PUSH1 0x24 PUSH0 REVERT JUMPDEST PUSH0 PUSH2 0x16F3 DUP3 PUSH2 0xFD5 JUMP JUMPDEST SWAP2 POP PUSH2 0x16FE DUP4 PUSH2 0xFD5 JUMP JUMPDEST SWAP3 POP DUP3 PUSH2 0x170E JUMPI PUSH2 0x170D PUSH2 0x16BC JUMP JUMPDEST JUMPDEST DUP3 DUP3 DIV SWAP1 POP SWAP3 SWAP2 POP POP JUMP JUMPDEST PUSH32 0x456D706C6F79656541737369676E6D656E743A207A65726F2061646472657373 PUSH0 DUP3 ADD MSTORE PUSH32 0x206E6F7420616C6C6F7765640000000000000000000000000000000000000000 PUSH1 0x20 DUP3 ADD MSTORE POP JUMP JUMPDEST PUSH0 PUSH2 0x1773 PUSH1 0x2C DUP4 PUSH2 0x1138 JUMP JUMPDEST SWAP2 POP PUSH2 0x177E DUP3 PUSH2 0x1719 JUMP JUMPDEST PUSH1 0x40 DUP3 ADD SWAP1 POP SWAP2 SWAP1 POP JUMP JUMPDEST PUSH0 PUSH1 0x20 DUP3 ADD SWAP1 POP DUP2 DUP2 SUB PUSH0 DUP4 ADD MSTORE PUSH2 0x17A0 DUP2 PUSH2 0x1767 JUMP JUMPDEST SWAP1 POP SWAP2 SWAP1 POP JUMP JUMPDEST PUSH32 0x4552523A207A65726F2061646472657373000000000000000000000000000000 PUSH0 DUP3 ADD MSTORE POP JUMP JUMPDEST PUSH0 PUSH2 0x17DB PUSH1 0x11 DUP4 PUSH2 0x1138 JUMP JUMPDEST SWAP2 POP PUSH2 0x17E6 DUP3 PUSH2 0x17A7 JUMP JUMPDEST PUSH1 0x20 DUP3 ADD SWAP1 POP SWAP2 SWAP1 POP JUMP JUMPDEST PUSH0 PUSH1 0x20 DUP3 ADD SWAP1 POP DUP2 DUP2 SUB PUSH0 DUP4 ADD MSTORE PUSH2 0x1808 DUP2 PUSH2 0x17CF JUMP JUMPDEST SWAP1 POP SWAP2 SWAP1 POP JUMP JUMPDEST PUSH32 0x4D7573742062652067726561746572207468616E203020210000000000000000 PUSH0 DUP3 ADD MSTORE POP JUMP JUMPDEST PUSH0 PUSH2 0x1843 PUSH1 0x18 DUP4 PUSH2 0x1138 JUMP JUMPDEST SWAP2 POP PUSH2 0x184E DUP3 PUSH2 0x180F JUMP JUMPDEST PUSH1 0x20 DUP3 ADD SWAP1 POP SWAP2 SWAP1 POP JUMP JUMPDEST PUSH0 PUSH1 0x20 DUP3 ADD SWAP1 POP DUP2 DUP2 SUB PUSH0 DUP4 ADD MSTORE PUSH2 0x1870 DUP2 PUSH2 0x1837 JUMP JUMPDEST SWAP1 POP SWAP2 SWAP1 POP JUMP INVALID LOG2 PUSH5 0x6970667358 0x22 SLT KECCAK256 GASLIMIT SIGNEXTEND 0xB6 DUP12 0xBE SELFBALANCE MULMOD 0xD2 PUSH12 0xC2127E70E3282440885B50B6 SWAP6 0xD7 SHL DUP13 0xB2 GASLIMIT BASEFEE 0x2F 0xAF 0xB5 PUSH8 0x64736F6C63430008 0x1E STOP CALLER "
				},
				"gasEstimates": {
					"creation": {
						"codeDepositCost": "1263400",
						"executionCost": "infinite",
						"totalCost": "infinite"
					},
					"external": {
						"": "173",
						"assignNewEmployee(address,string)": "infinite",
						"changeOwner(address)": "infinite",
						"change_loan_contract(address)": "27391",
						"employeeCount()": "2492",
						"hasRole(address,string)": "infinite",
						"removeEmployee(address,string)": "infinite",
						"see_contract_balances()": "infinite",
						"transfer_to_loan_contract(uint256)": "infinite"
					}
				},
				"methodIdentifiers": {
					"assignNewEmployee(address,string)": "a5623ffc",
					"changeOwner(address)": "a6f9dae1",
					"change_loan_contract(address)": "45e8fc8b",
					"employeeCount()": "9047bf58",
					"hasRole(address,string)": "217fe6c6",
					"removeEmployee(address,string)": "559b9b4c",
					"see_contract_balances()": "de6ce565",
					"transfer_to_loan_contract(uint256)": "c55a040c"
				}
			},
			"storageLayout": {
				"storage": [
					{
						"astId": 197,
						"contract": "Data/Management_Wallet.sol:manajement_wallet",
						"label": "owner",
						"offset": 0,
						"slot": "0",
						"type": "t_address"
					},
					{
						"astId": 200,
						"contract": "Data/Management_Wallet.sol:manajement_wallet",
						"label": "employeeCount",
						"offset": 0,
						"slot": "1",
						"type": "t_uint256"
					},
					{
						"astId": 207,
						"contract": "Data/Management_Wallet.sol:manajement_wallet",
						"label": "employees",
						"offset": 0,
						"slot": "2",
						"type": "t_mapping(t_address,t_mapping(t_string_memory_ptr,t_bool))"
					},
					{
						"astId": 10,
						"contract": "Data/Management_Wallet.sol:manajement_wallet",
						"label": "loan_contract",
						"offset": 0,
						"slot": "3",
						"type": "t_address_payable"
					}
				],
				"types": {
					"t_address": {
						"encoding": "inplace",
						"label": "address",
						"numberOfBytes": "20"
					},
					"t_address_payable": {
						"encoding": "inplace",
						"label": "address payable",
						"numberOfBytes": "20"
					},
					"t_bool": {
						"encoding": "inplace",
						"label": "bool",
						"numberOfBytes": "1"
					},
					"t_mapping(t_address,t_mapping(t_string_memory_ptr,t_bool))": {
						"encoding": "mapping",
						"key": "t_address",
						"label": "mapping(address => mapping(string => bool))",
						"numberOfBytes": "32",
						"value": "t_mapping(t_string_memory_ptr,t_bool)"
					},
					"t_mapping(t_string_memory_ptr,t_bool)": {
						"encoding": "mapping",
						"key": "t_string_memory_ptr",
						"label": "mapping(string => bool)",
						"numberOfBytes": "32",
						"value": "t_bool"
					},
					"t_string_memory_ptr": {
						"encoding": "bytes",
						"label": "string",
						"numberOfBytes": "32"
					},
					"t_uint256": {
						"encoding": "inplace",
						"label": "uint256",
						"numberOfBytes": "32"
					}
				}
			},
			"userdoc": {
				"events": {
					"EmployeeAssigned(address,string)": {
						"notice": "Emitted when a new employee is assigned"
					},
					"EmployeeRemoved(address,string)": {
						"notice": "Emitted when an employee is removed"
					},
					"OwnerChanged(address,address)": {
						"notice": "Emitted when the contract owner is changed"
					}
				},
				"kind": "user",
				"methods": {
					"assignNewEmployee(address,string)": {
						"notice": "Assigns a new employee with a specific role"
					},
					"changeOwner(address)": {
						"notice": "Transfers ownership to a new address"
					},
					"change_loan_contract(address)": {
						"notice": "Change the linked loan contract address"
					},
					"constructor": {
						"notice": "Initializes the management wallet with the linked loan contract"
					},
					"employeeCount()": {
						"notice": "Total number of employees currently assigned"
					},
					"hasRole(address,string)": {
						"notice": "Checks if an address has a specific role"
					},
					"removeEmployee(address,string)": {
						"notice": "Removes an employee's role"
					},
					"see_contract_balances()": {
						"notice": "Returns the current contract balance in ETH"
					},
					"transfer_to_loan_contract(uint256)": {
						"notice": "Transfer ETH from this wallet to the loan contract"
					}
				},
				"notice": "Handles fund storage and controlled transfers between the loan contract and the owner walletthis is deployed contract for admind and not data storage only",
				"version": 1
			}
		}
	}
}