{
	"lib/AdminLogic.sol": {
		"AdminLogic": {
			"abi": [
				{
					"inputs": [
						{
							"internalType": "uint16",
							"name": "provided",
							"type": "uint16"
						}
					],
					"name": "CollateralRatioTooHigh",
					"type": "error"
				},
				{
					"inputs": [],
					"name": "CollateralRatioTooLow",
					"type": "error"
				},
				{
					"inputs": [
						{
							"internalType": "uint16",
							"name": "provided",
							"type": "uint16"
						}
					],
					"name": "InterestTooHigh",
					"type": "error"
				},
				{
					"inputs": [],
					"name": "InterestZero",
					"type": "error"
				},
				{
					"inputs": [
						{
							"internalType": "uint16",
							"name": "provided",
							"type": "uint16"
						}
					],
					"name": "NPLTooHigh",
					"type": "error"
				},
				{
					"inputs": [],
					"name": "NoProfitToWithdraw",
					"type": "error"
				},
				{
					"inputs": [
						{
							"internalType": "uint16",
							"name": "provided",
							"type": "uint16"
						}
					],
					"name": "PenaltyTooHigh",
					"type": "error"
				},
				{
					"inputs": [],
					"name": "PenaltyZero",
					"type": "error"
				},
				{
					"inputs": [],
					"name": "ZeroAddress",
					"type": "error"
				},
				{
					"anonymous": false,
					"inputs": [
						{
							"indexed": false,
							"internalType": "uint256",
							"name": "oldValue",
							"type": "uint256"
						},
						{
							"indexed": false,
							"internalType": "uint256",
							"name": "newValue",
							"type": "uint256"
						}
					],
					"name": "CollateralRatioChanged",
					"type": "event"
				},
				{
					"anonymous": false,
					"inputs": [
						{
							"indexed": false,
							"internalType": "uint256",
							"name": "oldValue",
							"type": "uint256"
						},
						{
							"indexed": false,
							"internalType": "uint256",
							"name": "newValue",
							"type": "uint256"
						}
					],
					"name": "InterestRateChanged",
					"type": "event"
				},
				{
					"anonymous": false,
					"inputs": [
						{
							"indexed": false,
							"internalType": "address",
							"name": "oldWallet",
							"type": "address"
						},
						{
							"indexed": false,
							"internalType": "address",
							"name": "newWallet",
							"type": "address"
						}
					],
					"name": "ManagementWalletChanged",
					"type": "event"
				},
				{
					"anonymous": false,
					"inputs": [
						{
							"indexed": false,
							"internalType": "uint256",
							"name": "oldValue",
							"type": "uint256"
						},
						{
							"indexed": false,
							"internalType": "uint256",
							"name": "newValue",
							"type": "uint256"
						}
					],
					"name": "MaxNPLChanged",
					"type": "event"
				},
				{
					"anonymous": false,
					"inputs": [
						{
							"indexed": false,
							"internalType": "uint256",
							"name": "oldValue",
							"type": "uint256"
						},
						{
							"indexed": false,
							"internalType": "uint256",
							"name": "newValue",
							"type": "uint256"
						}
					],
					"name": "PenaltyPercentChanged",
					"type": "event"
				},
				{
					"anonymous": false,
					"inputs": [
						{
							"indexed": true,
							"internalType": "address",
							"name": "to",
							"type": "address"
						},
						{
							"indexed": false,
							"internalType": "uint256",
							"name": "amount",
							"type": "uint256"
						}
					],
					"name": "ProfitTaken",
					"type": "event"
				},
				{
					"inputs": [
						{
							"internalType": "uint16",
							"name": "p",
							"type": "uint16"
						}
					],
					"name": "CollateralRatioPercent",
					"outputs": [],
					"stateMutability": "nonpayable",
					"type": "function"
				},
				{
					"inputs": [
						{
							"internalType": "address payable",
							"name": "w",
							"type": "address"
						}
					],
					"name": "ManagementWallet",
					"outputs": [],
					"stateMutability": "nonpayable",
					"type": "function"
				},
				{
					"inputs": [
						{
							"internalType": "uint16",
							"name": "p",
							"type": "uint16"
						}
					],
					"name": "MaxNPLPercent",
					"outputs": [],
					"stateMutability": "nonpayable",
					"type": "function"
				},
				{
					"inputs": [
						{
							"internalType": "uint16",
							"name": "p",
							"type": "uint16"
						}
					],
					"name": "MonthlyInterestPercent",
					"outputs": [],
					"stateMutability": "nonpayable",
					"type": "function"
				},
				{
					"inputs": [
						{
							"internalType": "uint16",
							"name": "p",
							"type": "uint16"
						}
					],
					"name": "PenaltyPercent",
					"outputs": [],
					"stateMutability": "nonpayable",
					"type": "function"
				},
				{
					"inputs": [],
					"name": "TP",
					"outputs": [],
					"stateMutability": "nonpayable",
					"type": "function"
				},
				{
					"inputs": [],
					"name": "collateralRatioPercent",
					"outputs": [
						{
							"internalType": "uint16",
							"name": "",
							"type": "uint16"
						}
					],
					"stateMutability": "view",
					"type": "function"
				},
				{
					"inputs": [
						{
							"internalType": "uint256",
							"name": "",
							"type": "uint256"
						}
					],
					"name": "loans",
					"outputs": [
						{
							"internalType": "address",
							"name": "borrower",
							"type": "address"
						},
						{
							"internalType": "uint256",
							"name": "principal",
							"type": "uint256"
						},
						{
							"internalType": "uint256",
							"name": "durationMonths",
							"type": "uint256"
						},
						{
							"internalType": "uint256",
							"name": "startTimestamp",
							"type": "uint256"
						},
						{
							"internalType": "uint256",
							"name": "paidMonths",
							"type": "uint256"
						},
						{
							"internalType": "uint256",
							"name": "consecutiveMissed",
							"type": "uint256"
						},
						{
							"internalType": "uint256",
							"name": "remainingPrincipal",
							"type": "uint256"
						},
						{
							"internalType": "uint256",
							"name": "collateral",
							"type": "uint256"
						},
						{
							"internalType": "bool",
							"name": "liquidated",
							"type": "bool"
						},
						{
							"internalType": "bool",
							"name": "active",
							"type": "bool"
						}
					],
					"stateMutability": "view",
					"type": "function"
				},
				{
					"inputs": [],
					"name": "maxNPLPercent",
					"outputs": [
						{
							"internalType": "uint16",
							"name": "",
							"type": "uint16"
						}
					],
					"stateMutability": "view",
					"type": "function"
				},
				{
					"inputs": [],
					"name": "monthlyInterestPercent",
					"outputs": [
						{
							"internalType": "uint16",
							"name": "",
							"type": "uint16"
						}
					],
					"stateMutability": "view",
					"type": "function"
				},
				{
					"inputs": [],
					"name": "penaltyPercent",
					"outputs": [
						{
							"internalType": "uint16",
							"name": "",
							"type": "uint16"
						}
					],
					"stateMutability": "view",
					"type": "function"
				},
				{
					"inputs": [],
					"name": "totalProfits",
					"outputs": [
						{
							"internalType": "uint256",
							"name": "",
							"type": "uint256"
						}
					],
					"stateMutability": "view",
					"type": "function"
				}
			],
			"devdoc": {
				"details": "This contract is designed to be called via delegatecall from a main loan contract,      so it does not maintain its own storage context for loans or parameters.",
				"kind": "dev",
				"methods": {
					"CollateralRatioPercent(uint16)": {
						"details": "Reverts if p == 0 or above 30.00% (3000 bps).",
						"params": {
							"p": "New collateral ratio in basis points."
						}
					},
					"ManagementWallet(address)": {
						"details": "Reverts if w is the zero address or this contract's own address.",
						"params": {
							"w": "The new management wallet address."
						}
					},
					"MaxNPLPercent(uint16)": {
						"details": "Reverts if p is above 50.00% (5000 bps).",
						"params": {
							"p": "New maximum NPL ratio in basis points."
						}
					},
					"MonthlyInterestPercent(uint16)": {
						"details": "Reverts if the interest is zero or above 20.00% (2000 bps).",
						"params": {
							"p": "New interest rate in basis points (e.g., 1000 = 10.00%)."
						}
					},
					"PenaltyPercent(uint16)": {
						"details": "Reverts if the penalty is zero or above 50.00% (5000 bps).",
						"params": {
							"p": "New penalty percentage in basis points."
						}
					},
					"TP()": {
						"details": "Reverts if no profit is available or transfer fails."
					}
				},
				"title": "AdminLogic",
				"version": 1
			},
			"evm": {
				"assembly": "    /* \"lib/AdminLogic.sol\":464:5832  contract AdminLogic {... */\n  mstore(0x40, 0x80)\n  callvalue\n  dup1\n  iszero\n  tag_1\n  jumpi\n  revert(0x00, 0x00)\ntag_1:\n  pop\n  dataSize(sub_0)\n  dup1\n  dataOffset(sub_0)\n  0x00\n  codecopy\n  0x00\n  return\nstop\n\nsub_0: assembly {\n        /* \"lib/AdminLogic.sol\":464:5832  contract AdminLogic {... */\n      mstore(0x40, 0x80)\n      callvalue\n      dup1\n      iszero\n      tag_1\n      jumpi\n      revert(0x00, 0x00)\n    tag_1:\n      pop\n      jumpi(tag_2, lt(calldatasize, 0x04))\n      shr(0xe0, calldataload(0x00))\n      dup1\n      0x9608bbd5\n      gt\n      tag_15\n      jumpi\n      dup1\n      0x9608bbd5\n      eq\n      tag_9\n      jumpi\n      dup1\n      0xbd998cb3\n      eq\n      tag_10\n      jumpi\n      dup1\n      0xd682dab5\n      eq\n      tag_11\n      jumpi\n      dup1\n      0xde2cf972\n      eq\n      tag_12\n      jumpi\n      dup1\n      0xe1ec3c68\n      eq\n      tag_13\n      jumpi\n      dup1\n      0xf013e4b5\n      eq\n      tag_14\n      jumpi\n      jump(tag_2)\n    tag_15:\n      dup1\n      0x0b94bed0\n      eq\n      tag_3\n      jumpi\n      dup1\n      0x161ba46a\n      eq\n      tag_4\n      jumpi\n      dup1\n      0x1b745bff\n      eq\n      tag_5\n      jumpi\n      dup1\n      0x55a19dac\n      eq\n      tag_6\n      jumpi\n      dup1\n      0x639807d0\n      eq\n      tag_7\n      jumpi\n      dup1\n      0x6ec4d2d1\n      eq\n      tag_8\n      jumpi\n    tag_2:\n      revert(0x00, 0x00)\n        /* \"lib/AdminLogic.sol\":5037:5339  function ManagementWallet(address payable w) external {... */\n    tag_3:\n      tag_16\n      0x04\n      dup1\n      calldatasize\n      sub\n      dup2\n      add\n      swap1\n      tag_17\n      swap2\n      swap1\n      tag_18\n      jump\t// in\n    tag_17:\n      tag_19\n      jump\t// in\n    tag_16:\n      stop\n        /* \"lib/AdminLogic.sol\":1257:1285  uint16 public penaltyPercent */\n    tag_4:\n      tag_20\n      tag_21\n      jump\t// in\n    tag_20:\n      mload(0x40)\n      tag_22\n      swap2\n      swap1\n      tag_23\n      jump\t// in\n    tag_22:\n      mload(0x40)\n      dup1\n      swap2\n      sub\n      swap1\n      return\n        /* \"lib/AdminLogic.sol\":2992:3281  function MonthlyInterestPercent(uint16 p) external {... */\n    tag_5:\n      tag_24\n      0x04\n      dup1\n      calldatasize\n      sub\n      dup2\n      add\n      swap1\n      tag_25\n      swap2\n      swap1\n      tag_26\n      jump\t// in\n    tag_25:\n      tag_27\n      jump\t// in\n    tag_24:\n      stop\n        /* \"lib/AdminLogic.sol\":3958:4266  function CollateralRatioPercent(uint16 p) external {... */\n    tag_6:\n      tag_28\n      0x04\n      dup1\n      calldatasize\n      sub\n      dup2\n      add\n      swap1\n      tag_29\n      swap2\n      swap1\n      tag_26\n      jump\t// in\n    tag_29:\n      tag_30\n      jump\t// in\n    tag_28:\n      stop\n        /* \"lib/AdminLogic.sol\":5516:5829  function TP() external {... */\n    tag_7:\n      tag_31\n      tag_32\n      jump\t// in\n    tag_31:\n      stop\n        /* \"lib/AdminLogic.sol\":3501:3766  function PenaltyPercent(uint16 p) external {... */\n    tag_8:\n      tag_33\n      0x04\n      dup1\n      calldatasize\n      sub\n      dup2\n      add\n      swap1\n      tag_34\n      swap2\n      swap1\n      tag_26\n      jump\t// in\n    tag_34:\n      tag_35\n      jump\t// in\n    tag_33:\n      stop\n        /* \"lib/AdminLogic.sol\":4468:4675  function MaxNPLPercent(uint16 p) external {... */\n    tag_9:\n      tag_36\n      0x04\n      dup1\n      calldatasize\n      sub\n      dup2\n      add\n      swap1\n      tag_37\n      swap2\n      swap1\n      tag_26\n      jump\t// in\n    tag_37:\n      tag_38\n      jump\t// in\n    tag_36:\n      stop\n        /* \"lib/AdminLogic.sol\":1584:1608  uint public totalProfits */\n    tag_10:\n      tag_39\n      tag_40\n      jump\t// in\n    tag_39:\n      mload(0x40)\n      tag_41\n      swap2\n      swap1\n      tag_42\n      jump\t// in\n    tag_41:\n      mload(0x40)\n      dup1\n      swap2\n      sub\n      swap1\n      return\n        /* \"lib/AdminLogic.sol\":1342:1378  uint16 public collateralRatioPercent */\n    tag_11:\n      tag_43\n      tag_44\n      jump\t// in\n    tag_43:\n      mload(0x40)\n      tag_45\n      swap2\n      swap1\n      tag_23\n      jump\t// in\n    tag_45:\n      mload(0x40)\n      dup1\n      swap2\n      sub\n      swap1\n      return\n        /* \"lib/AdminLogic.sol\":1426:1453  uint16 public maxNPLPercent */\n    tag_12:\n      tag_46\n      tag_47\n      jump\t// in\n    tag_46:\n      mload(0x40)\n      tag_48\n      swap2\n      swap1\n      tag_23\n      jump\t// in\n    tag_48:\n      mload(0x40)\n      dup1\n      swap2\n      sub\n      swap1\n      return\n        /* \"lib/AdminLogic.sol\":1107:1126  Loan[] public loans */\n    tag_13:\n      tag_49\n      0x04\n      dup1\n      calldatasize\n      sub\n      dup2\n      add\n      swap1\n      tag_50\n      swap2\n      swap1\n      tag_51\n      jump\t// in\n    tag_50:\n      tag_52\n      jump\t// in\n    tag_49:\n      mload(0x40)\n      tag_53\n      swap11\n      swap10\n      swap9\n      swap8\n      swap7\n      swap6\n      swap5\n      swap4\n      swap3\n      swap2\n      swap1\n      tag_54\n      jump\t// in\n    tag_53:\n      mload(0x40)\n      dup1\n      swap2\n      sub\n      swap1\n      return\n        /* \"lib/AdminLogic.sol\":1187:1223  uint16 public monthlyInterestPercent */\n    tag_14:\n      tag_55\n      tag_56\n      jump\t// in\n    tag_55:\n      mload(0x40)\n      tag_57\n      swap2\n      swap1\n      tag_23\n      jump\t// in\n    tag_57:\n      mload(0x40)\n      dup1\n      swap2\n      sub\n      swap1\n      return\n        /* \"lib/AdminLogic.sol\":5037:5339  function ManagementWallet(address payable w) external {... */\n    tag_19:\n        /* \"lib/AdminLogic.sol\":5119:5120  0 */\n      0x00\n        /* \"lib/AdminLogic.sol\":5106:5121  w == address(0) */\n      0xffffffffffffffffffffffffffffffffffffffff\n      and\n        /* \"lib/AdminLogic.sol\":5106:5107  w */\n      dup2\n        /* \"lib/AdminLogic.sol\":5106:5121  w == address(0) */\n      0xffffffffffffffffffffffffffffffffffffffff\n      and\n      sub\n        /* \"lib/AdminLogic.sol\":5102:5143  if (w == address(0)) revert ZeroAddress() */\n      tag_59\n      jumpi\n        /* \"lib/AdminLogic.sol\":5130:5143  ZeroAddress() */\n      mload(0x40)\n      0xd92e233d00000000000000000000000000000000000000000000000000000000\n      dup2\n      mstore\n      0x04\n      add\n      mload(0x40)\n      dup1\n      swap2\n      sub\n      swap1\n      revert\n        /* \"lib/AdminLogic.sol\":5102:5143  if (w == address(0)) revert ZeroAddress() */\n    tag_59:\n        /* \"lib/AdminLogic.sol\":5171:5175  this */\n      address\n        /* \"lib/AdminLogic.sol\":5158:5176  w == address(this) */\n      0xffffffffffffffffffffffffffffffffffffffff\n      and\n        /* \"lib/AdminLogic.sol\":5158:5159  w */\n      dup2\n        /* \"lib/AdminLogic.sol\":5158:5176  w == address(this) */\n      0xffffffffffffffffffffffffffffffffffffffff\n      and\n      sub\n        /* \"lib/AdminLogic.sol\":5154:5198  if (w == address(this)) revert ZeroAddress() */\n      tag_60\n      jumpi\n        /* \"lib/AdminLogic.sol\":5185:5198  ZeroAddress() */\n      mload(0x40)\n      0xd92e233d00000000000000000000000000000000000000000000000000000000\n      dup2\n      mstore\n      0x04\n      add\n      mload(0x40)\n      dup1\n      swap2\n      sub\n      swap1\n      revert\n        /* \"lib/AdminLogic.sol\":5154:5198  if (w == address(this)) revert ZeroAddress() */\n    tag_60:\n        /* \"lib/AdminLogic.sol\":5211:5228  address oldWallet */\n      0x00\n        /* \"lib/AdminLogic.sol\":5231:5247  managementWallet */\n      0x03\n      0x00\n      swap1\n      sload\n      swap1\n      0x0100\n      exp\n      swap1\n      div\n      0xffffffffffffffffffffffffffffffffffffffff\n      and\n        /* \"lib/AdminLogic.sol\":5211:5247  address oldWallet = managementWallet */\n      swap1\n      pop\n        /* \"lib/AdminLogic.sol\":5277:5278  w */\n      dup2\n        /* \"lib/AdminLogic.sol\":5258:5274  managementWallet */\n      0x03\n      0x00\n        /* \"lib/AdminLogic.sol\":5258:5278  managementWallet = w */\n      0x0100\n      exp\n      dup2\n      sload\n      dup2\n      0xffffffffffffffffffffffffffffffffffffffff\n      mul\n      not\n      and\n      swap1\n      dup4\n      0xffffffffffffffffffffffffffffffffffffffff\n      and\n      mul\n      or\n      swap1\n      sstore\n      pop\n        /* \"lib/AdminLogic.sol\":5294:5331  ManagementWalletChanged(oldWallet, w) */\n      0x97001b29d9d8207193fc2e3b05f37bc0387d72ffd176a0a2f69bf57241a7fcdb\n        /* \"lib/AdminLogic.sol\":5318:5327  oldWallet */\n      dup2\n        /* \"lib/AdminLogic.sol\":5329:5330  w */\n      dup4\n        /* \"lib/AdminLogic.sol\":5294:5331  ManagementWalletChanged(oldWallet, w) */\n      mload(0x40)\n      tag_61\n      swap3\n      swap2\n      swap1\n      tag_62\n      jump\t// in\n    tag_61:\n      mload(0x40)\n      dup1\n      swap2\n      sub\n      swap1\n      log1\n        /* \"lib/AdminLogic.sol\":5091:5339  {... */\n      pop\n        /* \"lib/AdminLogic.sol\":5037:5339  function ManagementWallet(address payable w) external {... */\n      pop\n      jump\t// out\n        /* \"lib/AdminLogic.sol\":1257:1285  uint16 public penaltyPercent */\n    tag_21:\n      0x01\n      0x02\n      swap1\n      sload\n      swap1\n      0x0100\n      exp\n      swap1\n      div\n      0xffff\n      and\n      dup2\n      jump\t// out\n        /* \"lib/AdminLogic.sol\":2992:3281  function MonthlyInterestPercent(uint16 p) external {... */\n    tag_27:\n        /* \"lib/AdminLogic.sol\":3062:3066  2000 */\n      0x07d0\n        /* \"lib/AdminLogic.sol\":3058:3059  p */\n      dup2\n        /* \"lib/AdminLogic.sol\":3058:3066  p > 2000 */\n      0xffff\n      and\n      gt\n        /* \"lib/AdminLogic.sol\":3054:3093  if (p > 2000) revert InterestTooHigh(p) */\n      iszero\n      tag_64\n      jumpi\n        /* \"lib/AdminLogic.sol\":3091:3092  p */\n      dup1\n        /* \"lib/AdminLogic.sol\":3075:3093  InterestTooHigh(p) */\n      mload(0x40)\n      0x33befe3700000000000000000000000000000000000000000000000000000000\n      dup2\n      mstore\n      0x04\n      add\n      tag_65\n      swap2\n      swap1\n      tag_23\n      jump\t// in\n    tag_65:\n      mload(0x40)\n      dup1\n      swap2\n      sub\n      swap1\n      revert\n        /* \"lib/AdminLogic.sol\":3054:3093  if (p > 2000) revert InterestTooHigh(p) */\n    tag_64:\n        /* \"lib/AdminLogic.sol\":3113:3114  0 */\n      0x00\n        /* \"lib/AdminLogic.sol\":3108:3109  p */\n      dup2\n        /* \"lib/AdminLogic.sol\":3108:3114  p == 0 */\n      0xffff\n      and\n      sub\n        /* \"lib/AdminLogic.sol\":3104:3137  if (p == 0) revert InterestZero() */\n      tag_66\n      jumpi\n        /* \"lib/AdminLogic.sol\":3123:3137  InterestZero() */\n      mload(0x40)\n      0xcedf9c9b00000000000000000000000000000000000000000000000000000000\n      dup2\n      mstore\n      0x04\n      add\n      mload(0x40)\n      dup1\n      swap2\n      sub\n      swap1\n      revert\n        /* \"lib/AdminLogic.sol\":3104:3137  if (p == 0) revert InterestZero() */\n    tag_66:\n        /* \"lib/AdminLogic.sol\":3150:3163  uint oldValue */\n      0x00\n        /* \"lib/AdminLogic.sol\":3166:3188  monthlyInterestPercent */\n      0x01\n      0x00\n      swap1\n      sload\n      swap1\n      0x0100\n      exp\n      swap1\n      div\n      0xffff\n      and\n        /* \"lib/AdminLogic.sol\":3150:3188  uint oldValue = monthlyInterestPercent */\n      0xffff\n      and\n      swap1\n      pop\n        /* \"lib/AdminLogic.sol\":3224:3225  p */\n      dup2\n        /* \"lib/AdminLogic.sol\":3199:3221  monthlyInterestPercent */\n      0x01\n      0x00\n        /* \"lib/AdminLogic.sol\":3199:3225  monthlyInterestPercent = p */\n      0x0100\n      exp\n      dup2\n      sload\n      dup2\n      0xffff\n      mul\n      not\n      and\n      swap1\n      dup4\n      0xffff\n      and\n      mul\n      or\n      swap1\n      sstore\n      pop\n        /* \"lib/AdminLogic.sol\":3241:3273  InterestRateChanged(oldValue, p) */\n      0xf93ce1b2e2cb74b524760dff1842e28b944e9c40627c07348a36c404be739c02\n        /* \"lib/AdminLogic.sol\":3261:3269  oldValue */\n      dup2\n        /* \"lib/AdminLogic.sol\":3271:3272  p */\n      dup4\n        /* \"lib/AdminLogic.sol\":3241:3273  InterestRateChanged(oldValue, p) */\n      mload(0x40)\n      tag_67\n      swap3\n      swap2\n      swap1\n      tag_68\n      jump\t// in\n    tag_67:\n      mload(0x40)\n      dup1\n      swap2\n      sub\n      swap1\n      log1\n        /* \"lib/AdminLogic.sol\":3043:3281  {... */\n      pop\n        /* \"lib/AdminLogic.sol\":2992:3281  function MonthlyInterestPercent(uint16 p) external {... */\n      pop\n      jump\t// out\n        /* \"lib/AdminLogic.sol\":3958:4266  function CollateralRatioPercent(uint16 p) external {... */\n    tag_30:\n        /* \"lib/AdminLogic.sol\":4029:4030  0 */\n      0x00\n        /* \"lib/AdminLogic.sol\":4024:4025  p */\n      dup2\n        /* \"lib/AdminLogic.sol\":4024:4030  p == 0 */\n      0xffff\n      and\n      sub\n        /* \"lib/AdminLogic.sol\":4020:4062  if (p == 0) revert CollateralRatioTooLow() */\n      tag_70\n      jumpi\n        /* \"lib/AdminLogic.sol\":4039:4062  CollateralRatioTooLow() */\n      mload(0x40)\n      0xbc63270600000000000000000000000000000000000000000000000000000000\n      dup2\n      mstore\n      0x04\n      add\n      mload(0x40)\n      dup1\n      swap2\n      sub\n      swap1\n      revert\n        /* \"lib/AdminLogic.sol\":4020:4062  if (p == 0) revert CollateralRatioTooLow() */\n    tag_70:\n        /* \"lib/AdminLogic.sol\":4081:4085  3000 */\n      0x0bb8\n        /* \"lib/AdminLogic.sol\":4077:4078  p */\n      dup2\n        /* \"lib/AdminLogic.sol\":4077:4085  p > 3000 */\n      0xffff\n      and\n      gt\n        /* \"lib/AdminLogic.sol\":4073:4119  if (p > 3000) revert CollateralRatioTooHigh(p) */\n      iszero\n      tag_71\n      jumpi\n        /* \"lib/AdminLogic.sol\":4117:4118  p */\n      dup1\n        /* \"lib/AdminLogic.sol\":4094:4119  CollateralRatioTooHigh(p) */\n      mload(0x40)\n      0x8dd2147700000000000000000000000000000000000000000000000000000000\n      dup2\n      mstore\n      0x04\n      add\n      tag_72\n      swap2\n      swap1\n      tag_23\n      jump\t// in\n    tag_72:\n      mload(0x40)\n      dup1\n      swap2\n      sub\n      swap1\n      revert\n        /* \"lib/AdminLogic.sol\":4073:4119  if (p > 3000) revert CollateralRatioTooHigh(p) */\n    tag_71:\n        /* \"lib/AdminLogic.sol\":4132:4145  uint oldValue */\n      0x00\n        /* \"lib/AdminLogic.sol\":4148:4170  collateralRatioPercent */\n      0x01\n      0x04\n      swap1\n      sload\n      swap1\n      0x0100\n      exp\n      swap1\n      div\n      0xffff\n      and\n        /* \"lib/AdminLogic.sol\":4132:4170  uint oldValue = collateralRatioPercent */\n      0xffff\n      and\n      swap1\n      pop\n        /* \"lib/AdminLogic.sol\":4206:4207  p */\n      dup2\n        /* \"lib/AdminLogic.sol\":4181:4203  collateralRatioPercent */\n      0x01\n      0x04\n        /* \"lib/AdminLogic.sol\":4181:4207  collateralRatioPercent = p */\n      0x0100\n      exp\n      dup2\n      sload\n      dup2\n      0xffff\n      mul\n      not\n      and\n      swap1\n      dup4\n      0xffff\n      and\n      mul\n      or\n      swap1\n      sstore\n      pop\n        /* \"lib/AdminLogic.sol\":4223:4258  CollateralRatioChanged(oldValue, p) */\n      0xeb19de72c23bc706d6e8d5f52adc31581e6c81cef627df8fe75398e901b9bfbd\n        /* \"lib/AdminLogic.sol\":4246:4254  oldValue */\n      dup2\n        /* \"lib/AdminLogic.sol\":4256:4257  p */\n      dup4\n        /* \"lib/AdminLogic.sol\":4223:4258  CollateralRatioChanged(oldValue, p) */\n      mload(0x40)\n      tag_73\n      swap3\n      swap2\n      swap1\n      tag_68\n      jump\t// in\n    tag_73:\n      mload(0x40)\n      dup1\n      swap2\n      sub\n      swap1\n      log1\n        /* \"lib/AdminLogic.sol\":4009:4266  {... */\n      pop\n        /* \"lib/AdminLogic.sol\":3958:4266  function CollateralRatioPercent(uint16 p) external {... */\n      pop\n      jump\t// out\n        /* \"lib/AdminLogic.sol\":5516:5829  function TP() external {... */\n    tag_32:\n        /* \"lib/AdminLogic.sol\":5550:5561  uint amount */\n      0x00\n        /* \"lib/AdminLogic.sol\":5564:5576  totalProfits */\n      sload(0x02)\n        /* \"lib/AdminLogic.sol\":5550:5576  uint amount = totalProfits */\n      swap1\n      pop\n        /* \"lib/AdminLogic.sol\":5601:5602  0 */\n      0x00\n        /* \"lib/AdminLogic.sol\":5591:5597  amount */\n      dup2\n        /* \"lib/AdminLogic.sol\":5591:5602  amount == 0 */\n      sub\n        /* \"lib/AdminLogic.sol\":5587:5631  if (amount == 0) revert NoProfitToWithdraw() */\n      tag_75\n      jumpi\n        /* \"lib/AdminLogic.sol\":5611:5631  NoProfitToWithdraw() */\n      mload(0x40)\n      0x7b5d5d4800000000000000000000000000000000000000000000000000000000\n      dup2\n      mstore\n      0x04\n      add\n      mload(0x40)\n      dup1\n      swap2\n      sub\n      swap1\n      revert\n        /* \"lib/AdminLogic.sol\":5587:5631  if (amount == 0) revert NoProfitToWithdraw() */\n    tag_75:\n        /* \"lib/AdminLogic.sol\":5659:5660  0 */\n      0x00\n        /* \"lib/AdminLogic.sol\":5644:5656  totalProfits */\n      0x02\n        /* \"lib/AdminLogic.sol\":5644:5660  totalProfits = 0 */\n      dup2\n      swap1\n      sstore\n      pop\n        /* \"lib/AdminLogic.sol\":5672:5679  bool ok */\n      0x00\n        /* \"lib/AdminLogic.sol\":5685:5701  managementWallet */\n      0x03\n      0x00\n      swap1\n      sload\n      swap1\n      0x0100\n      exp\n      swap1\n      div\n      0xffffffffffffffffffffffffffffffffffffffff\n      and\n        /* \"lib/AdminLogic.sol\":5685:5706  managementWallet.call */\n      0xffffffffffffffffffffffffffffffffffffffff\n      and\n        /* \"lib/AdminLogic.sol\":5714:5720  amount */\n      dup3\n        /* \"lib/AdminLogic.sol\":5685:5725  managementWallet.call{value: amount}(\"\") */\n      mload(0x40)\n      tag_76\n      swap1\n      tag_77\n      jump\t// in\n    tag_76:\n      0x00\n      mload(0x40)\n      dup1\n      dup4\n      sub\n      dup2\n      dup6\n      dup8\n      gas\n      call\n      swap3\n      pop\n      pop\n      pop\n      returndatasize\n      dup1\n      0x00\n      dup2\n      eq\n      tag_80\n      jumpi\n      mload(0x40)\n      swap2\n      pop\n      and(add(returndatasize, 0x3f), not(0x1f))\n      dup3\n      add\n      0x40\n      mstore\n      returndatasize\n      dup3\n      mstore\n      returndatasize\n      0x00\n      0x20\n      dup5\n      add\n      returndatacopy\n      jump(tag_79)\n    tag_80:\n      0x60\n      swap2\n      pop\n    tag_79:\n      pop\n        /* \"lib/AdminLogic.sol\":5671:5725  (bool ok, ) = managementWallet.call{value: amount}(\"\") */\n      pop\n      swap1\n      pop\n        /* \"lib/AdminLogic.sol\":5744:5746  ok */\n      dup1\n        /* \"lib/AdminLogic.sol\":5736:5766  require(ok, \"transfer failed\") */\n      tag_81\n      jumpi\n      mload(0x40)\n      0x08c379a000000000000000000000000000000000000000000000000000000000\n      dup2\n      mstore\n      0x04\n      add\n      tag_82\n      swap1\n      tag_83\n      jump\t// in\n    tag_82:\n      mload(0x40)\n      dup1\n      swap2\n      sub\n      swap1\n      revert\n    tag_81:\n        /* \"lib/AdminLogic.sol\":5796:5812  managementWallet */\n      0x03\n      0x00\n      swap1\n      sload\n      swap1\n      0x0100\n      exp\n      swap1\n      div\n      0xffffffffffffffffffffffffffffffffffffffff\n      and\n        /* \"lib/AdminLogic.sol\":5784:5821  ProfitTaken(managementWallet, amount) */\n      0xffffffffffffffffffffffffffffffffffffffff\n      and\n      0xf43e8d333b9ddb8704eb40c14e57021e6d22a57b7e9bf2111af5f1ffea6ada58\n        /* \"lib/AdminLogic.sol\":5814:5820  amount */\n      dup4\n        /* \"lib/AdminLogic.sol\":5784:5821  ProfitTaken(managementWallet, amount) */\n      mload(0x40)\n      tag_84\n      swap2\n      swap1\n      tag_42\n      jump\t// in\n    tag_84:\n      mload(0x40)\n      dup1\n      swap2\n      sub\n      swap1\n      log2\n        /* \"lib/AdminLogic.sol\":5539:5829  {... */\n      pop\n      pop\n        /* \"lib/AdminLogic.sol\":5516:5829  function TP() external {... */\n      jump\t// out\n        /* \"lib/AdminLogic.sol\":3501:3766  function PenaltyPercent(uint16 p) external {... */\n    tag_35:\n        /* \"lib/AdminLogic.sol\":3563:3567  5000 */\n      0x1388\n        /* \"lib/AdminLogic.sol\":3559:3560  p */\n      dup2\n        /* \"lib/AdminLogic.sol\":3559:3567  p > 5000 */\n      0xffff\n      and\n      gt\n        /* \"lib/AdminLogic.sol\":3555:3593  if (p > 5000) revert PenaltyTooHigh(p) */\n      iszero\n      tag_86\n      jumpi\n        /* \"lib/AdminLogic.sol\":3591:3592  p */\n      dup1\n        /* \"lib/AdminLogic.sol\":3576:3593  PenaltyTooHigh(p) */\n      mload(0x40)\n      0x798ed56800000000000000000000000000000000000000000000000000000000\n      dup2\n      mstore\n      0x04\n      add\n      tag_87\n      swap2\n      swap1\n      tag_23\n      jump\t// in\n    tag_87:\n      mload(0x40)\n      dup1\n      swap2\n      sub\n      swap1\n      revert\n        /* \"lib/AdminLogic.sol\":3555:3593  if (p > 5000) revert PenaltyTooHigh(p) */\n    tag_86:\n        /* \"lib/AdminLogic.sol\":3613:3614  0 */\n      0x00\n        /* \"lib/AdminLogic.sol\":3608:3609  p */\n      dup2\n        /* \"lib/AdminLogic.sol\":3608:3614  p == 0 */\n      0xffff\n      and\n      sub\n        /* \"lib/AdminLogic.sol\":3604:3636  if (p == 0) revert PenaltyZero() */\n      tag_88\n      jumpi\n        /* \"lib/AdminLogic.sol\":3623:3636  PenaltyZero() */\n      mload(0x40)\n      0xba2d850c00000000000000000000000000000000000000000000000000000000\n      dup2\n      mstore\n      0x04\n      add\n      mload(0x40)\n      dup1\n      swap2\n      sub\n      swap1\n      revert\n        /* \"lib/AdminLogic.sol\":3604:3636  if (p == 0) revert PenaltyZero() */\n    tag_88:\n        /* \"lib/AdminLogic.sol\":3649:3662  uint oldValue */\n      0x00\n        /* \"lib/AdminLogic.sol\":3665:3679  penaltyPercent */\n      0x01\n      0x02\n      swap1\n      sload\n      swap1\n      0x0100\n      exp\n      swap1\n      div\n      0xffff\n      and\n        /* \"lib/AdminLogic.sol\":3649:3679  uint oldValue = penaltyPercent */\n      0xffff\n      and\n      swap1\n      pop\n        /* \"lib/AdminLogic.sol\":3707:3708  p */\n      dup2\n        /* \"lib/AdminLogic.sol\":3690:3704  penaltyPercent */\n      0x01\n      0x02\n        /* \"lib/AdminLogic.sol\":3690:3708  penaltyPercent = p */\n      0x0100\n      exp\n      dup2\n      sload\n      dup2\n      0xffff\n      mul\n      not\n      and\n      swap1\n      dup4\n      0xffff\n      and\n      mul\n      or\n      swap1\n      sstore\n      pop\n        /* \"lib/AdminLogic.sol\":3724:3758  PenaltyPercentChanged(oldValue, p) */\n      0x5b56293d2c832157ac8f4ce694bc788152793b86457d54956f1722633c580139\n        /* \"lib/AdminLogic.sol\":3746:3754  oldValue */\n      dup2\n        /* \"lib/AdminLogic.sol\":3756:3757  p */\n      dup4\n        /* \"lib/AdminLogic.sol\":3724:3758  PenaltyPercentChanged(oldValue, p) */\n      mload(0x40)\n      tag_89\n      swap3\n      swap2\n      swap1\n      tag_68\n      jump\t// in\n    tag_89:\n      mload(0x40)\n      dup1\n      swap2\n      sub\n      swap1\n      log1\n        /* \"lib/AdminLogic.sol\":3544:3766  {... */\n      pop\n        /* \"lib/AdminLogic.sol\":3501:3766  function PenaltyPercent(uint16 p) external {... */\n      pop\n      jump\t// out\n        /* \"lib/AdminLogic.sol\":4468:4675  function MaxNPLPercent(uint16 p) external {... */\n    tag_38:\n        /* \"lib/AdminLogic.sol\":4529:4533  5000 */\n      0x1388\n        /* \"lib/AdminLogic.sol\":4525:4526  p */\n      dup2\n        /* \"lib/AdminLogic.sol\":4525:4533  p > 5000 */\n      0xffff\n      and\n      gt\n        /* \"lib/AdminLogic.sol\":4521:4555  if (p > 5000) revert NPLTooHigh(p) */\n      iszero\n      tag_91\n      jumpi\n        /* \"lib/AdminLogic.sol\":4553:4554  p */\n      dup1\n        /* \"lib/AdminLogic.sol\":4542:4555  NPLTooHigh(p) */\n      mload(0x40)\n      0x7cbf176300000000000000000000000000000000000000000000000000000000\n      dup2\n      mstore\n      0x04\n      add\n      tag_92\n      swap2\n      swap1\n      tag_23\n      jump\t// in\n    tag_92:\n      mload(0x40)\n      dup1\n      swap2\n      sub\n      swap1\n      revert\n        /* \"lib/AdminLogic.sol\":4521:4555  if (p > 5000) revert NPLTooHigh(p) */\n    tag_91:\n        /* \"lib/AdminLogic.sol\":4568:4581  uint oldValue */\n      0x00\n        /* \"lib/AdminLogic.sol\":4584:4597  maxNPLPercent */\n      0x01\n      0x06\n      swap1\n      sload\n      swap1\n      0x0100\n      exp\n      swap1\n      div\n      0xffff\n      and\n        /* \"lib/AdminLogic.sol\":4568:4597  uint oldValue = maxNPLPercent */\n      0xffff\n      and\n      swap1\n      pop\n        /* \"lib/AdminLogic.sol\":4624:4625  p */\n      dup2\n        /* \"lib/AdminLogic.sol\":4608:4621  maxNPLPercent */\n      0x01\n      0x06\n        /* \"lib/AdminLogic.sol\":4608:4625  maxNPLPercent = p */\n      0x0100\n      exp\n      dup2\n      sload\n      dup2\n      0xffff\n      mul\n      not\n      and\n      swap1\n      dup4\n      0xffff\n      and\n      mul\n      or\n      swap1\n      sstore\n      pop\n        /* \"lib/AdminLogic.sol\":4641:4667  MaxNPLChanged(oldValue, p) */\n      0x38fc5525c7ab9850422e6f2cd4b086b0b50f1235a0d8ddeb7b43f61b9a5bfb05\n        /* \"lib/AdminLogic.sol\":4655:4663  oldValue */\n      dup2\n        /* \"lib/AdminLogic.sol\":4665:4666  p */\n      dup4\n        /* \"lib/AdminLogic.sol\":4641:4667  MaxNPLChanged(oldValue, p) */\n      mload(0x40)\n      tag_93\n      swap3\n      swap2\n      swap1\n      tag_68\n      jump\t// in\n    tag_93:\n      mload(0x40)\n      dup1\n      swap2\n      sub\n      swap1\n      log1\n        /* \"lib/AdminLogic.sol\":4510:4675  {... */\n      pop\n        /* \"lib/AdminLogic.sol\":4468:4675  function MaxNPLPercent(uint16 p) external {... */\n      pop\n      jump\t// out\n        /* \"lib/AdminLogic.sol\":1584:1608  uint public totalProfits */\n    tag_40:\n      sload(0x02)\n      dup2\n      jump\t// out\n        /* \"lib/AdminLogic.sol\":1342:1378  uint16 public collateralRatioPercent */\n    tag_44:\n      0x01\n      0x04\n      swap1\n      sload\n      swap1\n      0x0100\n      exp\n      swap1\n      div\n      0xffff\n      and\n      dup2\n      jump\t// out\n        /* \"lib/AdminLogic.sol\":1426:1453  uint16 public maxNPLPercent */\n    tag_47:\n      0x01\n      0x06\n      swap1\n      sload\n      swap1\n      0x0100\n      exp\n      swap1\n      div\n      0xffff\n      and\n      dup2\n      jump\t// out\n        /* \"lib/AdminLogic.sol\":1107:1126  Loan[] public loans */\n    tag_52:\n      0x00\n      dup2\n      dup2\n      sload\n      dup2\n      lt\n      tag_94\n      jumpi\n      0x00\n      dup1\n      revert\n    tag_94:\n      swap1\n      0x00\n      mstore\n      keccak256(0x00, 0x20)\n      swap1\n      0x09\n      mul\n      add\n      0x00\n      swap2\n      pop\n      swap1\n      pop\n      dup1\n      0x00\n      add\n      0x00\n      swap1\n      sload\n      swap1\n      0x0100\n      exp\n      swap1\n      div\n      0xffffffffffffffffffffffffffffffffffffffff\n      and\n      swap1\n      dup1\n      0x01\n      add\n      sload\n      swap1\n      dup1\n      0x02\n      add\n      sload\n      swap1\n      dup1\n      0x03\n      add\n      sload\n      swap1\n      dup1\n      0x04\n      add\n      sload\n      swap1\n      dup1\n      0x05\n      add\n      sload\n      swap1\n      dup1\n      0x06\n      add\n      sload\n      swap1\n      dup1\n      0x07\n      add\n      sload\n      swap1\n      dup1\n      0x08\n      add\n      0x00\n      swap1\n      sload\n      swap1\n      0x0100\n      exp\n      swap1\n      div\n      0xff\n      and\n      swap1\n      dup1\n      0x08\n      add\n      0x01\n      swap1\n      sload\n      swap1\n      0x0100\n      exp\n      swap1\n      div\n      0xff\n      and\n      swap1\n      pop\n      dup11\n      jump\t// out\n        /* \"lib/AdminLogic.sol\":1187:1223  uint16 public monthlyInterestPercent */\n    tag_56:\n      0x01\n      0x00\n      swap1\n      sload\n      swap1\n      0x0100\n      exp\n      swap1\n      div\n      0xffff\n      and\n      dup2\n      jump\t// out\n        /* \"#utility.yul\":88:205   */\n    tag_97:\n        /* \"#utility.yul\":197:198   */\n      0x00\n        /* \"#utility.yul\":194:195   */\n      0x00\n        /* \"#utility.yul\":187:199   */\n      revert\n        /* \"#utility.yul\":334:460   */\n    tag_99:\n        /* \"#utility.yul\":371:378   */\n      0x00\n        /* \"#utility.yul\":411:453   */\n      0xffffffffffffffffffffffffffffffffffffffff\n        /* \"#utility.yul\":404:409   */\n      dup3\n        /* \"#utility.yul\":400:454   */\n      and\n        /* \"#utility.yul\":389:454   */\n      swap1\n      pop\n        /* \"#utility.yul\":334:460   */\n      swap2\n      swap1\n      pop\n      jump\t// out\n        /* \"#utility.yul\":466:570   */\n    tag_100:\n        /* \"#utility.yul\":511:518   */\n      0x00\n        /* \"#utility.yul\":540:564   */\n      tag_134\n        /* \"#utility.yul\":558:563   */\n      dup3\n        /* \"#utility.yul\":540:564   */\n      tag_99\n      jump\t// in\n    tag_134:\n        /* \"#utility.yul\":529:564   */\n      swap1\n      pop\n        /* \"#utility.yul\":466:570   */\n      swap2\n      swap1\n      pop\n      jump\t// out\n        /* \"#utility.yul\":576:714   */\n    tag_101:\n        /* \"#utility.yul\":657:689   */\n      tag_136\n        /* \"#utility.yul\":683:688   */\n      dup2\n        /* \"#utility.yul\":657:689   */\n      tag_100\n      jump\t// in\n    tag_136:\n        /* \"#utility.yul\":650:655   */\n      dup2\n        /* \"#utility.yul\":647:690   */\n      eq\n        /* \"#utility.yul\":637:708   */\n      tag_137\n      jumpi\n        /* \"#utility.yul\":704:705   */\n      0x00\n        /* \"#utility.yul\":701:702   */\n      0x00\n        /* \"#utility.yul\":694:706   */\n      revert\n        /* \"#utility.yul\":637:708   */\n    tag_137:\n        /* \"#utility.yul\":576:714   */\n      pop\n      jump\t// out\n        /* \"#utility.yul\":720:875   */\n    tag_102:\n        /* \"#utility.yul\":774:779   */\n      0x00\n        /* \"#utility.yul\":812:818   */\n      dup2\n        /* \"#utility.yul\":799:819   */\n      calldataload\n        /* \"#utility.yul\":790:819   */\n      swap1\n      pop\n        /* \"#utility.yul\":828:869   */\n      tag_139\n        /* \"#utility.yul\":863:868   */\n      dup2\n        /* \"#utility.yul\":828:869   */\n      tag_101\n      jump\t// in\n    tag_139:\n        /* \"#utility.yul\":720:875   */\n      swap3\n      swap2\n      pop\n      pop\n      jump\t// out\n        /* \"#utility.yul\":881:1226   */\n    tag_18:\n        /* \"#utility.yul\":948:954   */\n      0x00\n        /* \"#utility.yul\":997:999   */\n      0x20\n        /* \"#utility.yul\":985:994   */\n      dup3\n        /* \"#utility.yul\":976:983   */\n      dup5\n        /* \"#utility.yul\":972:995   */\n      sub\n        /* \"#utility.yul\":968:1000   */\n      slt\n        /* \"#utility.yul\":965:1084   */\n      iszero\n      tag_141\n      jumpi\n        /* \"#utility.yul\":1003:1082   */\n      tag_142\n      tag_97\n      jump\t// in\n    tag_142:\n        /* \"#utility.yul\":965:1084   */\n    tag_141:\n        /* \"#utility.yul\":1123:1124   */\n      0x00\n        /* \"#utility.yul\":1148:1209   */\n      tag_143\n        /* \"#utility.yul\":1201:1208   */\n      dup5\n        /* \"#utility.yul\":1192:1198   */\n      dup3\n        /* \"#utility.yul\":1181:1190   */\n      dup6\n        /* \"#utility.yul\":1177:1199   */\n      add\n        /* \"#utility.yul\":1148:1209   */\n      tag_102\n      jump\t// in\n    tag_143:\n        /* \"#utility.yul\":1138:1209   */\n      swap2\n      pop\n        /* \"#utility.yul\":1094:1219   */\n      pop\n        /* \"#utility.yul\":881:1226   */\n      swap3\n      swap2\n      pop\n      pop\n      jump\t// out\n        /* \"#utility.yul\":1232:1321   */\n    tag_103:\n        /* \"#utility.yul\":1268:1275   */\n      0x00\n        /* \"#utility.yul\":1308:1314   */\n      0xffff\n        /* \"#utility.yul\":1301:1306   */\n      dup3\n        /* \"#utility.yul\":1297:1315   */\n      and\n        /* \"#utility.yul\":1286:1315   */\n      swap1\n      pop\n        /* \"#utility.yul\":1232:1321   */\n      swap2\n      swap1\n      pop\n      jump\t// out\n        /* \"#utility.yul\":1327:1442   */\n    tag_104:\n        /* \"#utility.yul\":1412:1435   */\n      tag_146\n        /* \"#utility.yul\":1429:1434   */\n      dup2\n        /* \"#utility.yul\":1412:1435   */\n      tag_103\n      jump\t// in\n    tag_146:\n        /* \"#utility.yul\":1407:1410   */\n      dup3\n        /* \"#utility.yul\":1400:1436   */\n      mstore\n        /* \"#utility.yul\":1327:1442   */\n      pop\n      pop\n      jump\t// out\n        /* \"#utility.yul\":1448:1666   */\n    tag_23:\n        /* \"#utility.yul\":1539:1543   */\n      0x00\n        /* \"#utility.yul\":1577:1579   */\n      0x20\n        /* \"#utility.yul\":1566:1575   */\n      dup3\n        /* \"#utility.yul\":1562:1580   */\n      add\n        /* \"#utility.yul\":1554:1580   */\n      swap1\n      pop\n        /* \"#utility.yul\":1590:1659   */\n      tag_148\n        /* \"#utility.yul\":1656:1657   */\n      0x00\n        /* \"#utility.yul\":1645:1654   */\n      dup4\n        /* \"#utility.yul\":1641:1658   */\n      add\n        /* \"#utility.yul\":1632:1638   */\n      dup5\n        /* \"#utility.yul\":1590:1659   */\n      tag_104\n      jump\t// in\n    tag_148:\n        /* \"#utility.yul\":1448:1666   */\n      swap3\n      swap2\n      pop\n      pop\n      jump\t// out\n        /* \"#utility.yul\":1672:1792   */\n    tag_105:\n        /* \"#utility.yul\":1744:1767   */\n      tag_150\n        /* \"#utility.yul\":1761:1766   */\n      dup2\n        /* \"#utility.yul\":1744:1767   */\n      tag_103\n      jump\t// in\n    tag_150:\n        /* \"#utility.yul\":1737:1742   */\n      dup2\n        /* \"#utility.yul\":1734:1768   */\n      eq\n        /* \"#utility.yul\":1724:1786   */\n      tag_151\n      jumpi\n        /* \"#utility.yul\":1782:1783   */\n      0x00\n        /* \"#utility.yul\":1779:1780   */\n      0x00\n        /* \"#utility.yul\":1772:1784   */\n      revert\n        /* \"#utility.yul\":1724:1786   */\n    tag_151:\n        /* \"#utility.yul\":1672:1792   */\n      pop\n      jump\t// out\n        /* \"#utility.yul\":1798:1935   */\n    tag_106:\n        /* \"#utility.yul\":1843:1848   */\n      0x00\n        /* \"#utility.yul\":1881:1887   */\n      dup2\n        /* \"#utility.yul\":1868:1888   */\n      calldataload\n        /* \"#utility.yul\":1859:1888   */\n      swap1\n      pop\n        /* \"#utility.yul\":1897:1929   */\n      tag_153\n        /* \"#utility.yul\":1923:1928   */\n      dup2\n        /* \"#utility.yul\":1897:1929   */\n      tag_105\n      jump\t// in\n    tag_153:\n        /* \"#utility.yul\":1798:1935   */\n      swap3\n      swap2\n      pop\n      pop\n      jump\t// out\n        /* \"#utility.yul\":1941:2268   */\n    tag_26:\n        /* \"#utility.yul\":1999:2005   */\n      0x00\n        /* \"#utility.yul\":2048:2050   */\n      0x20\n        /* \"#utility.yul\":2036:2045   */\n      dup3\n        /* \"#utility.yul\":2027:2034   */\n      dup5\n        /* \"#utility.yul\":2023:2046   */\n      sub\n        /* \"#utility.yul\":2019:2051   */\n      slt\n        /* \"#utility.yul\":2016:2135   */\n      iszero\n      tag_155\n      jumpi\n        /* \"#utility.yul\":2054:2133   */\n      tag_156\n      tag_97\n      jump\t// in\n    tag_156:\n        /* \"#utility.yul\":2016:2135   */\n    tag_155:\n        /* \"#utility.yul\":2174:2175   */\n      0x00\n        /* \"#utility.yul\":2199:2251   */\n      tag_157\n        /* \"#utility.yul\":2243:2250   */\n      dup5\n        /* \"#utility.yul\":2234:2240   */\n      dup3\n        /* \"#utility.yul\":2223:2232   */\n      dup6\n        /* \"#utility.yul\":2219:2241   */\n      add\n        /* \"#utility.yul\":2199:2251   */\n      tag_106\n      jump\t// in\n    tag_157:\n        /* \"#utility.yul\":2189:2251   */\n      swap2\n      pop\n        /* \"#utility.yul\":2145:2261   */\n      pop\n        /* \"#utility.yul\":1941:2268   */\n      swap3\n      swap2\n      pop\n      pop\n      jump\t// out\n        /* \"#utility.yul\":2274:2351   */\n    tag_107:\n        /* \"#utility.yul\":2311:2318   */\n      0x00\n        /* \"#utility.yul\":2340:2345   */\n      dup2\n        /* \"#utility.yul\":2329:2345   */\n      swap1\n      pop\n        /* \"#utility.yul\":2274:2351   */\n      swap2\n      swap1\n      pop\n      jump\t// out\n        /* \"#utility.yul\":2357:2475   */\n    tag_108:\n        /* \"#utility.yul\":2444:2468   */\n      tag_160\n        /* \"#utility.yul\":2462:2467   */\n      dup2\n        /* \"#utility.yul\":2444:2468   */\n      tag_107\n      jump\t// in\n    tag_160:\n        /* \"#utility.yul\":2439:2442   */\n      dup3\n        /* \"#utility.yul\":2432:2469   */\n      mstore\n        /* \"#utility.yul\":2357:2475   */\n      pop\n      pop\n      jump\t// out\n        /* \"#utility.yul\":2481:2703   */\n    tag_42:\n        /* \"#utility.yul\":2574:2578   */\n      0x00\n        /* \"#utility.yul\":2612:2614   */\n      0x20\n        /* \"#utility.yul\":2601:2610   */\n      dup3\n        /* \"#utility.yul\":2597:2615   */\n      add\n        /* \"#utility.yul\":2589:2615   */\n      swap1\n      pop\n        /* \"#utility.yul\":2625:2696   */\n      tag_162\n        /* \"#utility.yul\":2693:2694   */\n      0x00\n        /* \"#utility.yul\":2682:2691   */\n      dup4\n        /* \"#utility.yul\":2678:2695   */\n      add\n        /* \"#utility.yul\":2669:2675   */\n      dup5\n        /* \"#utility.yul\":2625:2696   */\n      tag_108\n      jump\t// in\n    tag_162:\n        /* \"#utility.yul\":2481:2703   */\n      swap3\n      swap2\n      pop\n      pop\n      jump\t// out\n        /* \"#utility.yul\":2709:2831   */\n    tag_109:\n        /* \"#utility.yul\":2782:2806   */\n      tag_164\n        /* \"#utility.yul\":2800:2805   */\n      dup2\n        /* \"#utility.yul\":2782:2806   */\n      tag_107\n      jump\t// in\n    tag_164:\n        /* \"#utility.yul\":2775:2780   */\n      dup2\n        /* \"#utility.yul\":2772:2807   */\n      eq\n        /* \"#utility.yul\":2762:2825   */\n      tag_165\n      jumpi\n        /* \"#utility.yul\":2821:2822   */\n      0x00\n        /* \"#utility.yul\":2818:2819   */\n      0x00\n        /* \"#utility.yul\":2811:2823   */\n      revert\n        /* \"#utility.yul\":2762:2825   */\n    tag_165:\n        /* \"#utility.yul\":2709:2831   */\n      pop\n      jump\t// out\n        /* \"#utility.yul\":2837:2976   */\n    tag_110:\n        /* \"#utility.yul\":2883:2888   */\n      0x00\n        /* \"#utility.yul\":2921:2927   */\n      dup2\n        /* \"#utility.yul\":2908:2928   */\n      calldataload\n        /* \"#utility.yul\":2899:2928   */\n      swap1\n      pop\n        /* \"#utility.yul\":2937:2970   */\n      tag_167\n        /* \"#utility.yul\":2964:2969   */\n      dup2\n        /* \"#utility.yul\":2937:2970   */\n      tag_109\n      jump\t// in\n    tag_167:\n        /* \"#utility.yul\":2837:2976   */\n      swap3\n      swap2\n      pop\n      pop\n      jump\t// out\n        /* \"#utility.yul\":2982:3311   */\n    tag_51:\n        /* \"#utility.yul\":3041:3047   */\n      0x00\n        /* \"#utility.yul\":3090:3092   */\n      0x20\n        /* \"#utility.yul\":3078:3087   */\n      dup3\n        /* \"#utility.yul\":3069:3076   */\n      dup5\n        /* \"#utility.yul\":3065:3088   */\n      sub\n        /* \"#utility.yul\":3061:3093   */\n      slt\n        /* \"#utility.yul\":3058:3177   */\n      iszero\n      tag_169\n      jumpi\n        /* \"#utility.yul\":3096:3175   */\n      tag_170\n      tag_97\n      jump\t// in\n    tag_170:\n        /* \"#utility.yul\":3058:3177   */\n    tag_169:\n        /* \"#utility.yul\":3216:3217   */\n      0x00\n        /* \"#utility.yul\":3241:3294   */\n      tag_171\n        /* \"#utility.yul\":3286:3293   */\n      dup5\n        /* \"#utility.yul\":3277:3283   */\n      dup3\n        /* \"#utility.yul\":3266:3275   */\n      dup6\n        /* \"#utility.yul\":3262:3284   */\n      add\n        /* \"#utility.yul\":3241:3294   */\n      tag_110\n      jump\t// in\n    tag_171:\n        /* \"#utility.yul\":3231:3294   */\n      swap2\n      pop\n        /* \"#utility.yul\":3187:3304   */\n      pop\n        /* \"#utility.yul\":2982:3311   */\n      swap3\n      swap2\n      pop\n      pop\n      jump\t// out\n        /* \"#utility.yul\":3317:3413   */\n    tag_111:\n        /* \"#utility.yul\":3354:3361   */\n      0x00\n        /* \"#utility.yul\":3383:3407   */\n      tag_173\n        /* \"#utility.yul\":3401:3406   */\n      dup3\n        /* \"#utility.yul\":3383:3407   */\n      tag_99\n      jump\t// in\n    tag_173:\n        /* \"#utility.yul\":3372:3407   */\n      swap1\n      pop\n        /* \"#utility.yul\":3317:3413   */\n      swap2\n      swap1\n      pop\n      jump\t// out\n        /* \"#utility.yul\":3419:3537   */\n    tag_112:\n        /* \"#utility.yul\":3506:3530   */\n      tag_175\n        /* \"#utility.yul\":3524:3529   */\n      dup2\n        /* \"#utility.yul\":3506:3530   */\n      tag_111\n      jump\t// in\n    tag_175:\n        /* \"#utility.yul\":3501:3504   */\n      dup3\n        /* \"#utility.yul\":3494:3531   */\n      mstore\n        /* \"#utility.yul\":3419:3537   */\n      pop\n      pop\n      jump\t// out\n        /* \"#utility.yul\":3543:3633   */\n    tag_113:\n        /* \"#utility.yul\":3577:3584   */\n      0x00\n        /* \"#utility.yul\":3620:3625   */\n      dup2\n        /* \"#utility.yul\":3613:3626   */\n      iszero\n        /* \"#utility.yul\":3606:3627   */\n      iszero\n        /* \"#utility.yul\":3595:3627   */\n      swap1\n      pop\n        /* \"#utility.yul\":3543:3633   */\n      swap2\n      swap1\n      pop\n      jump\t// out\n        /* \"#utility.yul\":3639:3748   */\n    tag_114:\n        /* \"#utility.yul\":3720:3741   */\n      tag_178\n        /* \"#utility.yul\":3735:3740   */\n      dup2\n        /* \"#utility.yul\":3720:3741   */\n      tag_113\n      jump\t// in\n    tag_178:\n        /* \"#utility.yul\":3715:3718   */\n      dup3\n        /* \"#utility.yul\":3708:3742   */\n      mstore\n        /* \"#utility.yul\":3639:3748   */\n      pop\n      pop\n      jump\t// out\n        /* \"#utility.yul\":3754:4949   */\n    tag_54:\n        /* \"#utility.yul\":4087:4091   */\n      0x00\n        /* \"#utility.yul\":4125:4128   */\n      0x0140\n        /* \"#utility.yul\":4114:4123   */\n      dup3\n        /* \"#utility.yul\":4110:4129   */\n      add\n        /* \"#utility.yul\":4102:4129   */\n      swap1\n      pop\n        /* \"#utility.yul\":4139:4210   */\n      tag_180\n        /* \"#utility.yul\":4207:4208   */\n      0x00\n        /* \"#utility.yul\":4196:4205   */\n      dup4\n        /* \"#utility.yul\":4192:4209   */\n      add\n        /* \"#utility.yul\":4183:4189   */\n      dup14\n        /* \"#utility.yul\":4139:4210   */\n      tag_112\n      jump\t// in\n    tag_180:\n        /* \"#utility.yul\":4220:4292   */\n      tag_181\n        /* \"#utility.yul\":4288:4290   */\n      0x20\n        /* \"#utility.yul\":4277:4286   */\n      dup4\n        /* \"#utility.yul\":4273:4291   */\n      add\n        /* \"#utility.yul\":4264:4270   */\n      dup13\n        /* \"#utility.yul\":4220:4292   */\n      tag_108\n      jump\t// in\n    tag_181:\n        /* \"#utility.yul\":4302:4374   */\n      tag_182\n        /* \"#utility.yul\":4370:4372   */\n      0x40\n        /* \"#utility.yul\":4359:4368   */\n      dup4\n        /* \"#utility.yul\":4355:4373   */\n      add\n        /* \"#utility.yul\":4346:4352   */\n      dup12\n        /* \"#utility.yul\":4302:4374   */\n      tag_108\n      jump\t// in\n    tag_182:\n        /* \"#utility.yul\":4384:4456   */\n      tag_183\n        /* \"#utility.yul\":4452:4454   */\n      0x60\n        /* \"#utility.yul\":4441:4450   */\n      dup4\n        /* \"#utility.yul\":4437:4455   */\n      add\n        /* \"#utility.yul\":4428:4434   */\n      dup11\n        /* \"#utility.yul\":4384:4456   */\n      tag_108\n      jump\t// in\n    tag_183:\n        /* \"#utility.yul\":4466:4539   */\n      tag_184\n        /* \"#utility.yul\":4534:4537   */\n      0x80\n        /* \"#utility.yul\":4523:4532   */\n      dup4\n        /* \"#utility.yul\":4519:4538   */\n      add\n        /* \"#utility.yul\":4510:4516   */\n      dup10\n        /* \"#utility.yul\":4466:4539   */\n      tag_108\n      jump\t// in\n    tag_184:\n        /* \"#utility.yul\":4549:4622   */\n      tag_185\n        /* \"#utility.yul\":4617:4620   */\n      0xa0\n        /* \"#utility.yul\":4606:4615   */\n      dup4\n        /* \"#utility.yul\":4602:4621   */\n      add\n        /* \"#utility.yul\":4593:4599   */\n      dup9\n        /* \"#utility.yul\":4549:4622   */\n      tag_108\n      jump\t// in\n    tag_185:\n        /* \"#utility.yul\":4632:4705   */\n      tag_186\n        /* \"#utility.yul\":4700:4703   */\n      0xc0\n        /* \"#utility.yul\":4689:4698   */\n      dup4\n        /* \"#utility.yul\":4685:4704   */\n      add\n        /* \"#utility.yul\":4676:4682   */\n      dup8\n        /* \"#utility.yul\":4632:4705   */\n      tag_108\n      jump\t// in\n    tag_186:\n        /* \"#utility.yul\":4715:4788   */\n      tag_187\n        /* \"#utility.yul\":4783:4786   */\n      0xe0\n        /* \"#utility.yul\":4772:4781   */\n      dup4\n        /* \"#utility.yul\":4768:4787   */\n      add\n        /* \"#utility.yul\":4759:4765   */\n      dup7\n        /* \"#utility.yul\":4715:4788   */\n      tag_108\n      jump\t// in\n    tag_187:\n        /* \"#utility.yul\":4798:4865   */\n      tag_188\n        /* \"#utility.yul\":4860:4863   */\n      0x0100\n        /* \"#utility.yul\":4849:4858   */\n      dup4\n        /* \"#utility.yul\":4845:4864   */\n      add\n        /* \"#utility.yul\":4836:4842   */\n      dup6\n        /* \"#utility.yul\":4798:4865   */\n      tag_114\n      jump\t// in\n    tag_188:\n        /* \"#utility.yul\":4875:4942   */\n      tag_189\n        /* \"#utility.yul\":4937:4940   */\n      0x0120\n        /* \"#utility.yul\":4926:4935   */\n      dup4\n        /* \"#utility.yul\":4922:4941   */\n      add\n        /* \"#utility.yul\":4913:4919   */\n      dup5\n        /* \"#utility.yul\":4875:4942   */\n      tag_114\n      jump\t// in\n    tag_189:\n        /* \"#utility.yul\":3754:4949   */\n      swap12\n      swap11\n      pop\n      pop\n      pop\n      pop\n      pop\n      pop\n      pop\n      pop\n      pop\n      pop\n      pop\n      jump\t// out\n        /* \"#utility.yul\":4955:5015   */\n    tag_115:\n        /* \"#utility.yul\":4983:4986   */\n      0x00\n        /* \"#utility.yul\":5004:5009   */\n      dup2\n        /* \"#utility.yul\":4997:5009   */\n      swap1\n      pop\n        /* \"#utility.yul\":4955:5015   */\n      swap2\n      swap1\n      pop\n      jump\t// out\n        /* \"#utility.yul\":5021:5163   */\n    tag_116:\n        /* \"#utility.yul\":5071:5080   */\n      0x00\n        /* \"#utility.yul\":5104:5157   */\n      tag_192\n        /* \"#utility.yul\":5122:5156   */\n      tag_193\n        /* \"#utility.yul\":5131:5155   */\n      tag_194\n        /* \"#utility.yul\":5149:5154   */\n      dup5\n        /* \"#utility.yul\":5131:5155   */\n      tag_99\n      jump\t// in\n    tag_194:\n        /* \"#utility.yul\":5122:5156   */\n      tag_115\n      jump\t// in\n    tag_193:\n        /* \"#utility.yul\":5104:5157   */\n      tag_99\n      jump\t// in\n    tag_192:\n        /* \"#utility.yul\":5091:5157   */\n      swap1\n      pop\n        /* \"#utility.yul\":5021:5163   */\n      swap2\n      swap1\n      pop\n      jump\t// out\n        /* \"#utility.yul\":5169:5295   */\n    tag_117:\n        /* \"#utility.yul\":5219:5228   */\n      0x00\n        /* \"#utility.yul\":5252:5289   */\n      tag_196\n        /* \"#utility.yul\":5283:5288   */\n      dup3\n        /* \"#utility.yul\":5252:5289   */\n      tag_116\n      jump\t// in\n    tag_196:\n        /* \"#utility.yul\":5239:5289   */\n      swap1\n      pop\n        /* \"#utility.yul\":5169:5295   */\n      swap2\n      swap1\n      pop\n      jump\t// out\n        /* \"#utility.yul\":5301:5435   */\n    tag_118:\n        /* \"#utility.yul\":5359:5368   */\n      0x00\n        /* \"#utility.yul\":5392:5429   */\n      tag_198\n        /* \"#utility.yul\":5423:5428   */\n      dup3\n        /* \"#utility.yul\":5392:5429   */\n      tag_117\n      jump\t// in\n    tag_198:\n        /* \"#utility.yul\":5379:5429   */\n      swap1\n      pop\n        /* \"#utility.yul\":5301:5435   */\n      swap2\n      swap1\n      pop\n      jump\t// out\n        /* \"#utility.yul\":5441:5588   */\n    tag_119:\n        /* \"#utility.yul\":5536:5581   */\n      tag_200\n        /* \"#utility.yul\":5575:5580   */\n      dup2\n        /* \"#utility.yul\":5536:5581   */\n      tag_118\n      jump\t// in\n    tag_200:\n        /* \"#utility.yul\":5531:5534   */\n      dup3\n        /* \"#utility.yul\":5524:5582   */\n      mstore\n        /* \"#utility.yul\":5441:5588   */\n      pop\n      pop\n      jump\t// out\n        /* \"#utility.yul\":5594:5942   */\n    tag_62:\n        /* \"#utility.yul\":5723:5727   */\n      0x00\n        /* \"#utility.yul\":5761:5763   */\n      0x40\n        /* \"#utility.yul\":5750:5759   */\n      dup3\n        /* \"#utility.yul\":5746:5764   */\n      add\n        /* \"#utility.yul\":5738:5764   */\n      swap1\n      pop\n        /* \"#utility.yul\":5774:5845   */\n      tag_202\n        /* \"#utility.yul\":5842:5843   */\n      0x00\n        /* \"#utility.yul\":5831:5840   */\n      dup4\n        /* \"#utility.yul\":5827:5844   */\n      add\n        /* \"#utility.yul\":5818:5824   */\n      dup6\n        /* \"#utility.yul\":5774:5845   */\n      tag_112\n      jump\t// in\n    tag_202:\n        /* \"#utility.yul\":5855:5935   */\n      tag_203\n        /* \"#utility.yul\":5931:5933   */\n      0x20\n        /* \"#utility.yul\":5920:5929   */\n      dup4\n        /* \"#utility.yul\":5916:5934   */\n      add\n        /* \"#utility.yul\":5907:5913   */\n      dup5\n        /* \"#utility.yul\":5855:5935   */\n      tag_119\n      jump\t// in\n    tag_203:\n        /* \"#utility.yul\":5594:5942   */\n      swap4\n      swap3\n      pop\n      pop\n      pop\n      jump\t// out\n        /* \"#utility.yul\":5948:6088   */\n    tag_120:\n        /* \"#utility.yul\":5997:6006   */\n      0x00\n        /* \"#utility.yul\":6030:6082   */\n      tag_205\n        /* \"#utility.yul\":6048:6081   */\n      tag_206\n        /* \"#utility.yul\":6057:6080   */\n      tag_207\n        /* \"#utility.yul\":6074:6079   */\n      dup5\n        /* \"#utility.yul\":6057:6080   */\n      tag_103\n      jump\t// in\n    tag_207:\n        /* \"#utility.yul\":6048:6081   */\n      tag_115\n      jump\t// in\n    tag_206:\n        /* \"#utility.yul\":6030:6082   */\n      tag_107\n      jump\t// in\n    tag_205:\n        /* \"#utility.yul\":6017:6082   */\n      swap1\n      pop\n        /* \"#utility.yul\":5948:6088   */\n      swap2\n      swap1\n      pop\n      jump\t// out\n        /* \"#utility.yul\":6094:6223   */\n    tag_121:\n        /* \"#utility.yul\":6180:6216   */\n      tag_209\n        /* \"#utility.yul\":6210:6215   */\n      dup2\n        /* \"#utility.yul\":6180:6216   */\n      tag_120\n      jump\t// in\n    tag_209:\n        /* \"#utility.yul\":6175:6178   */\n      dup3\n        /* \"#utility.yul\":6168:6217   */\n      mstore\n        /* \"#utility.yul\":6094:6223   */\n      pop\n      pop\n      jump\t// out\n        /* \"#utility.yul\":6229:6559   */\n    tag_68:\n        /* \"#utility.yul\":6349:6353   */\n      0x00\n        /* \"#utility.yul\":6387:6389   */\n      0x40\n        /* \"#utility.yul\":6376:6385   */\n      dup3\n        /* \"#utility.yul\":6372:6390   */\n      add\n        /* \"#utility.yul\":6364:6390   */\n      swap1\n      pop\n        /* \"#utility.yul\":6400:6471   */\n      tag_211\n        /* \"#utility.yul\":6468:6469   */\n      0x00\n        /* \"#utility.yul\":6457:6466   */\n      dup4\n        /* \"#utility.yul\":6453:6470   */\n      add\n        /* \"#utility.yul\":6444:6450   */\n      dup6\n        /* \"#utility.yul\":6400:6471   */\n      tag_108\n      jump\t// in\n    tag_211:\n        /* \"#utility.yul\":6481:6552   */\n      tag_212\n        /* \"#utility.yul\":6548:6550   */\n      0x20\n        /* \"#utility.yul\":6537:6546   */\n      dup4\n        /* \"#utility.yul\":6533:6551   */\n      add\n        /* \"#utility.yul\":6524:6530   */\n      dup5\n        /* \"#utility.yul\":6481:6552   */\n      tag_121\n      jump\t// in\n    tag_212:\n        /* \"#utility.yul\":6229:6559   */\n      swap4\n      swap3\n      pop\n      pop\n      pop\n      jump\t// out\n        /* \"#utility.yul\":6565:6712   */\n    tag_122:\n        /* \"#utility.yul\":6666:6677   */\n      0x00\n        /* \"#utility.yul\":6703:6706   */\n      dup2\n        /* \"#utility.yul\":6688:6706   */\n      swap1\n      pop\n        /* \"#utility.yul\":6565:6712   */\n      swap3\n      swap2\n      pop\n      pop\n      jump\t// out\n        /* \"#utility.yul\":6718:6832   */\n    tag_123:\n      pop\n      jump\t// out\n        /* \"#utility.yul\":6838:7236   */\n    tag_124:\n        /* \"#utility.yul\":6997:7000   */\n      0x00\n        /* \"#utility.yul\":7018:7101   */\n      tag_216\n        /* \"#utility.yul\":7099:7100   */\n      0x00\n        /* \"#utility.yul\":7094:7097   */\n      dup4\n        /* \"#utility.yul\":7018:7101   */\n      tag_122\n      jump\t// in\n    tag_216:\n        /* \"#utility.yul\":7011:7101   */\n      swap2\n      pop\n        /* \"#utility.yul\":7110:7203   */\n      tag_217\n        /* \"#utility.yul\":7199:7202   */\n      dup3\n        /* \"#utility.yul\":7110:7203   */\n      tag_123\n      jump\t// in\n    tag_217:\n        /* \"#utility.yul\":7228:7229   */\n      0x00\n        /* \"#utility.yul\":7223:7226   */\n      dup3\n        /* \"#utility.yul\":7219:7230   */\n      add\n        /* \"#utility.yul\":7212:7230   */\n      swap1\n      pop\n        /* \"#utility.yul\":6838:7236   */\n      swap2\n      swap1\n      pop\n      jump\t// out\n        /* \"#utility.yul\":7242:7621   */\n    tag_77:\n        /* \"#utility.yul\":7426:7429   */\n      0x00\n        /* \"#utility.yul\":7448:7595   */\n      tag_219\n        /* \"#utility.yul\":7591:7594   */\n      dup3\n        /* \"#utility.yul\":7448:7595   */\n      tag_124\n      jump\t// in\n    tag_219:\n        /* \"#utility.yul\":7441:7595   */\n      swap2\n      pop\n        /* \"#utility.yul\":7612:7615   */\n      dup2\n        /* \"#utility.yul\":7605:7615   */\n      swap1\n      pop\n        /* \"#utility.yul\":7242:7621   */\n      swap2\n      swap1\n      pop\n      jump\t// out\n        /* \"#utility.yul\":7627:7796   */\n    tag_125:\n        /* \"#utility.yul\":7711:7722   */\n      0x00\n        /* \"#utility.yul\":7745:7751   */\n      dup3\n        /* \"#utility.yul\":7740:7743   */\n      dup3\n        /* \"#utility.yul\":7733:7752   */\n      mstore\n        /* \"#utility.yul\":7785:7789   */\n      0x20\n        /* \"#utility.yul\":7780:7783   */\n      dup3\n        /* \"#utility.yul\":7776:7790   */\n      add\n        /* \"#utility.yul\":7761:7790   */\n      swap1\n      pop\n        /* \"#utility.yul\":7627:7796   */\n      swap3\n      swap2\n      pop\n      pop\n      jump\t// out\n        /* \"#utility.yul\":7802:7967   */\n    tag_126:\n        /* \"#utility.yul\":7942:7959   */\n      0x7472616e73666572206661696c65640000000000000000000000000000000000\n        /* \"#utility.yul\":7938:7939   */\n      0x00\n        /* \"#utility.yul\":7930:7936   */\n      dup3\n        /* \"#utility.yul\":7926:7940   */\n      add\n        /* \"#utility.yul\":7919:7960   */\n      mstore\n        /* \"#utility.yul\":7802:7967   */\n      pop\n      jump\t// out\n        /* \"#utility.yul\":7973:8339   */\n    tag_127:\n        /* \"#utility.yul\":8115:8118   */\n      0x00\n        /* \"#utility.yul\":8136:8203   */\n      tag_223\n        /* \"#utility.yul\":8200:8202   */\n      0x0f\n        /* \"#utility.yul\":8195:8198   */\n      dup4\n        /* \"#utility.yul\":8136:8203   */\n      tag_125\n      jump\t// in\n    tag_223:\n        /* \"#utility.yul\":8129:8203   */\n      swap2\n      pop\n        /* \"#utility.yul\":8212:8305   */\n      tag_224\n        /* \"#utility.yul\":8301:8304   */\n      dup3\n        /* \"#utility.yul\":8212:8305   */\n      tag_126\n      jump\t// in\n    tag_224:\n        /* \"#utility.yul\":8330:8332   */\n      0x20\n        /* \"#utility.yul\":8325:8328   */\n      dup3\n        /* \"#utility.yul\":8321:8333   */\n      add\n        /* \"#utility.yul\":8314:8333   */\n      swap1\n      pop\n        /* \"#utility.yul\":7973:8339   */\n      swap2\n      swap1\n      pop\n      jump\t// out\n        /* \"#utility.yul\":8345:8764   */\n    tag_83:\n        /* \"#utility.yul\":8511:8515   */\n      0x00\n        /* \"#utility.yul\":8549:8551   */\n      0x20\n        /* \"#utility.yul\":8538:8547   */\n      dup3\n        /* \"#utility.yul\":8534:8552   */\n      add\n        /* \"#utility.yul\":8526:8552   */\n      swap1\n      pop\n        /* \"#utility.yul\":8598:8607   */\n      dup2\n        /* \"#utility.yul\":8592:8596   */\n      dup2\n        /* \"#utility.yul\":8588:8608   */\n      sub\n        /* \"#utility.yul\":8584:8585   */\n      0x00\n        /* \"#utility.yul\":8573:8582   */\n      dup4\n        /* \"#utility.yul\":8569:8586   */\n      add\n        /* \"#utility.yul\":8562:8609   */\n      mstore\n        /* \"#utility.yul\":8626:8757   */\n      tag_226\n        /* \"#utility.yul\":8752:8756   */\n      dup2\n        /* \"#utility.yul\":8626:8757   */\n      tag_127\n      jump\t// in\n    tag_226:\n        /* \"#utility.yul\":8618:8757   */\n      swap1\n      pop\n        /* \"#utility.yul\":8345:8764   */\n      swap2\n      swap1\n      pop\n      jump\t// out\n\n    auxdata: 0xa26469706673582212200c5cb9187420d9a121c8cedbafe65e45a3ef6e580fe39caa6c67c7f69dff077764736f6c634300081e0033\n}\n",
				"bytecode": {
					"linkReferences": {},
					"object": "6080604052348015600e575f5ffd5b50610dd28061001c5f395ff3fe608060405234801561000f575f5ffd5b50600436106100b2575f3560e01c80639608bbd51161006f5780639608bbd51461014e578063bd998cb31461016a578063d682dab514610188578063de2cf972146101a6578063e1ec3c68146101c4578063f013e4b5146101fd576100b2565b80630b94bed0146100b6578063161ba46a146100d25780631b745bff146100f057806355a19dac1461010c578063639807d0146101285780636ec4d2d114610132575b5f5ffd5b6100d060048036038101906100cb91906109fb565b61021b565b005b6100da610387565b6040516100e79190610a42565b60405180910390f35b61010a60048036038101906101059190610a85565b61039b565b005b61012660048036038101906101219190610a85565b610493565b005b61013061058d565b005b61014c60048036038101906101479190610a85565b61070f565b005b61016860048036038101906101639190610a85565b610809565b005b6101726108c6565b60405161017f9190610ac8565b60405180910390f35b6101906108cc565b60405161019d9190610a42565b60405180910390f35b6101ae6108e0565b6040516101bb9190610a42565b60405180910390f35b6101de60048036038101906101d99190610b0b565b6108f4565b6040516101f49a99989796959493929190610b70565b60405180910390f35b61020561098a565b6040516102129190610a42565b60405180910390f35b5f73ffffffffffffffffffffffffffffffffffffffff168173ffffffffffffffffffffffffffffffffffffffff1603610280576040517fd92e233d00000000000000000000000000000000000000000000000000000000815260040160405180910390fd5b3073ffffffffffffffffffffffffffffffffffffffff168173ffffffffffffffffffffffffffffffffffffffff16036102e5576040517fd92e233d00000000000000000000000000000000000000000000000000000000815260040160405180910390fd5b5f60035f9054906101000a900473ffffffffffffffffffffffffffffffffffffffff1690508160035f6101000a81548173ffffffffffffffffffffffffffffffffffffffff021916908373ffffffffffffffffffffffffffffffffffffffff1602179055507f97001b29d9d8207193fc2e3b05f37bc0387d72ffd176a0a2f69bf57241a7fcdb818360405161037b929190610c65565b60405180910390a15050565b600160029054906101000a900461ffff1681565b6107d08161ffff1611156103e657806040517f33befe370000000000000000000000000000000000000000000000000000000081526004016103dd9190610a42565b60405180910390fd5b5f8161ffff1603610423576040517fcedf9c9b00000000000000000000000000000000000000000000000000000000815260040160405180910390fd5b5f60015f9054906101000a900461ffff1661ffff1690508160015f6101000a81548161ffff021916908361ffff1602179055507ff93ce1b2e2cb74b524760dff1842e28b944e9c40627c07348a36c404be739c028183604051610487929190610cbc565b60405180910390a15050565b5f8161ffff16036104d0576040517fbc63270600000000000000000000000000000000000000000000000000000000815260040160405180910390fd5b610bb88161ffff16111561051b57806040517f8dd214770000000000000000000000000000000000000000000000000000000081526004016105129190610a42565b60405180910390fd5b5f600160049054906101000a900461ffff1661ffff16905081600160046101000a81548161ffff021916908361ffff1602179055507feb19de72c23bc706d6e8d5f52adc31581e6c81cef627df8fe75398e901b9bfbd8183604051610581929190610cbc565b60405180910390a15050565b5f60025490505f81036105cc576040517f7b5d5d4800000000000000000000000000000000000000000000000000000000815260040160405180910390fd5b5f6002819055505f60035f9054906101000a900473ffffffffffffffffffffffffffffffffffffffff1673ffffffffffffffffffffffffffffffffffffffff168260405161061990610d10565b5f6040518083038185875af1925050503d805f8114610653576040519150601f19603f3d011682016040523d82523d5f602084013e610658565b606091505b505090508061069c576040517f08c379a000000000000000000000000000000000000000000000000000000000815260040161069390610d7e565b60405180910390fd5b60035f9054906101000a900473ffffffffffffffffffffffffffffffffffffffff1673ffffffffffffffffffffffffffffffffffffffff167ff43e8d333b9ddb8704eb40c14e57021e6d22a57b7e9bf2111af5f1ffea6ada58836040516107039190610ac8565b60405180910390a25050565b6113888161ffff16111561075a57806040517f798ed5680000000000000000000000000000000000000000000000000000000081526004016107519190610a42565b60405180910390fd5b5f8161ffff1603610797576040517fba2d850c00000000000000000000000000000000000000000000000000000000815260040160405180910390fd5b5f600160029054906101000a900461ffff1661ffff16905081600160026101000a81548161ffff021916908361ffff1602179055507f5b56293d2c832157ac8f4ce694bc788152793b86457d54956f1722633c58013981836040516107fd929190610cbc565b60405180910390a15050565b6113888161ffff16111561085457806040517f7cbf176300000000000000000000000000000000000000000000000000000000815260040161084b9190610a42565b60405180910390fd5b5f600160069054906101000a900461ffff1661ffff16905081600160066101000a81548161ffff021916908361ffff1602179055507f38fc5525c7ab9850422e6f2cd4b086b0b50f1235a0d8ddeb7b43f61b9a5bfb0581836040516108ba929190610cbc565b60405180910390a15050565b60025481565b600160049054906101000a900461ffff1681565b600160069054906101000a900461ffff1681565b5f8181548110610902575f80fd5b905f5260205f2090600902015f91509050805f015f9054906101000a900473ffffffffffffffffffffffffffffffffffffffff1690806001015490806002015490806003015490806004015490806005015490806006015490806007015490806008015f9054906101000a900460ff16908060080160019054906101000a900460ff1690508a565b60015f9054906101000a900461ffff1681565b5f5ffd5b5f73ffffffffffffffffffffffffffffffffffffffff82169050919050565b5f6109ca826109a1565b9050919050565b6109da816109c0565b81146109e4575f5ffd5b50565b5f813590506109f5816109d1565b92915050565b5f60208284031215610a1057610a0f61099d565b5b5f610a1d848285016109e7565b91505092915050565b5f61ffff82169050919050565b610a3c81610a26565b82525050565b5f602082019050610a555f830184610a33565b92915050565b610a6481610a26565b8114610a6e575f5ffd5b50565b5f81359050610a7f81610a5b565b92915050565b5f60208284031215610a9a57610a9961099d565b5b5f610aa784828501610a71565b91505092915050565b5f819050919050565b610ac281610ab0565b82525050565b5f602082019050610adb5f830184610ab9565b92915050565b610aea81610ab0565b8114610af4575f5ffd5b50565b5f81359050610b0581610ae1565b92915050565b5f60208284031215610b2057610b1f61099d565b5b5f610b2d84828501610af7565b91505092915050565b5f610b40826109a1565b9050919050565b610b5081610b36565b82525050565b5f8115159050919050565b610b6a81610b56565b82525050565b5f61014082019050610b845f83018d610b47565b610b91602083018c610ab9565b610b9e604083018b610ab9565b610bab606083018a610ab9565b610bb86080830189610ab9565b610bc560a0830188610ab9565b610bd260c0830187610ab9565b610bdf60e0830186610ab9565b610bed610100830185610b61565b610bfb610120830184610b61565b9b9a5050505050505050505050565b5f819050919050565b5f610c2d610c28610c23846109a1565b610c0a565b6109a1565b9050919050565b5f610c3e82610c13565b9050919050565b5f610c4f82610c34565b9050919050565b610c5f81610c45565b82525050565b5f604082019050610c785f830185610b47565b610c856020830184610c56565b9392505050565b5f610ca6610ca1610c9c84610a26565b610c0a565b610ab0565b9050919050565b610cb681610c8c565b82525050565b5f604082019050610ccf5f830185610ab9565b610cdc6020830184610cad565b9392505050565b5f81905092915050565b50565b5f610cfb5f83610ce3565b9150610d0682610ced565b5f82019050919050565b5f610d1a82610cf0565b9150819050919050565b5f82825260208201905092915050565b7f7472616e73666572206661696c656400000000000000000000000000000000005f82015250565b5f610d68600f83610d24565b9150610d7382610d34565b602082019050919050565b5f6020820190508181035f830152610d9581610d5c565b905091905056fea26469706673582212200c5cb9187420d9a121c8cedbafe65e45a3ef6e580fe39caa6c67c7f69dff077764736f6c634300081e0033",
					"opcodes": "PUSH1 0x80 PUSH1 0x40 MSTORE CALLVALUE DUP1 ISZERO PUSH1 0xE JUMPI PUSH0 PUSH0 REVERT JUMPDEST POP PUSH2 0xDD2 DUP1 PUSH2 0x1C PUSH0 CODECOPY PUSH0 RETURN INVALID PUSH1 0x80 PUSH1 0x40 MSTORE CALLVALUE DUP1 ISZERO PUSH2 0xF JUMPI PUSH0 PUSH0 REVERT JUMPDEST POP PUSH1 0x4 CALLDATASIZE LT PUSH2 0xB2 JUMPI PUSH0 CALLDATALOAD PUSH1 0xE0 SHR DUP1 PUSH4 0x9608BBD5 GT PUSH2 0x6F JUMPI DUP1 PUSH4 0x9608BBD5 EQ PUSH2 0x14E JUMPI DUP1 PUSH4 0xBD998CB3 EQ PUSH2 0x16A JUMPI DUP1 PUSH4 0xD682DAB5 EQ PUSH2 0x188 JUMPI DUP1 PUSH4 0xDE2CF972 EQ PUSH2 0x1A6 JUMPI DUP1 PUSH4 0xE1EC3C68 EQ PUSH2 0x1C4 JUMPI DUP1 PUSH4 0xF013E4B5 EQ PUSH2 0x1FD JUMPI PUSH2 0xB2 JUMP JUMPDEST DUP1 PUSH4 0xB94BED0 EQ PUSH2 0xB6 JUMPI DUP1 PUSH4 0x161BA46A EQ PUSH2 0xD2 JUMPI DUP1 PUSH4 0x1B745BFF EQ PUSH2 0xF0 JUMPI DUP1 PUSH4 0x55A19DAC EQ PUSH2 0x10C JUMPI DUP1 PUSH4 0x639807D0 EQ PUSH2 0x128 JUMPI DUP1 PUSH4 0x6EC4D2D1 EQ PUSH2 0x132 JUMPI JUMPDEST PUSH0 PUSH0 REVERT JUMPDEST PUSH2 0xD0 PUSH1 0x4 DUP1 CALLDATASIZE SUB DUP2 ADD SWAP1 PUSH2 0xCB SWAP2 SWAP1 PUSH2 0x9FB JUMP JUMPDEST PUSH2 0x21B JUMP JUMPDEST STOP JUMPDEST PUSH2 0xDA PUSH2 0x387 JUMP JUMPDEST PUSH1 0x40 MLOAD PUSH2 0xE7 SWAP2 SWAP1 PUSH2 0xA42 JUMP JUMPDEST PUSH1 0x40 MLOAD DUP1 SWAP2 SUB SWAP1 RETURN JUMPDEST PUSH2 0x10A PUSH1 0x4 DUP1 CALLDATASIZE SUB DUP2 ADD SWAP1 PUSH2 0x105 SWAP2 SWAP1 PUSH2 0xA85 JUMP JUMPDEST PUSH2 0x39B JUMP JUMPDEST STOP JUMPDEST PUSH2 0x126 PUSH1 0x4 DUP1 CALLDATASIZE SUB DUP2 ADD SWAP1 PUSH2 0x121 SWAP2 SWAP1 PUSH2 0xA85 JUMP JUMPDEST PUSH2 0x493 JUMP JUMPDEST STOP JUMPDEST PUSH2 0x130 PUSH2 0x58D JUMP JUMPDEST STOP JUMPDEST PUSH2 0x14C PUSH1 0x4 DUP1 CALLDATASIZE SUB DUP2 ADD SWAP1 PUSH2 0x147 SWAP2 SWAP1 PUSH2 0xA85 JUMP JUMPDEST PUSH2 0x70F JUMP JUMPDEST STOP JUMPDEST PUSH2 0x168 PUSH1 0x4 DUP1 CALLDATASIZE SUB DUP2 ADD SWAP1 PUSH2 0x163 SWAP2 SWAP1 PUSH2 0xA85 JUMP JUMPDEST PUSH2 0x809 JUMP JUMPDEST STOP JUMPDEST PUSH2 0x172 PUSH2 0x8C6 JUMP JUMPDEST PUSH1 0x40 MLOAD PUSH2 0x17F SWAP2 SWAP1 PUSH2 0xAC8 JUMP JUMPDEST PUSH1 0x40 MLOAD DUP1 SWAP2 SUB SWAP1 RETURN JUMPDEST PUSH2 0x190 PUSH2 0x8CC JUMP JUMPDEST PUSH1 0x40 MLOAD PUSH2 0x19D SWAP2 SWAP1 PUSH2 0xA42 JUMP JUMPDEST PUSH1 0x40 MLOAD DUP1 SWAP2 SUB SWAP1 RETURN JUMPDEST PUSH2 0x1AE PUSH2 0x8E0 JUMP JUMPDEST PUSH1 0x40 MLOAD PUSH2 0x1BB SWAP2 SWAP1 PUSH2 0xA42 JUMP JUMPDEST PUSH1 0x40 MLOAD DUP1 SWAP2 SUB SWAP1 RETURN JUMPDEST PUSH2 0x1DE PUSH1 0x4 DUP1 CALLDATASIZE SUB DUP2 ADD SWAP1 PUSH2 0x1D9 SWAP2 SWAP1 PUSH2 0xB0B JUMP JUMPDEST PUSH2 0x8F4 JUMP JUMPDEST PUSH1 0x40 MLOAD PUSH2 0x1F4 SWAP11 SWAP10 SWAP9 SWAP8 SWAP7 SWAP6 SWAP5 SWAP4 SWAP3 SWAP2 SWAP1 PUSH2 0xB70 JUMP JUMPDEST PUSH1 0x40 MLOAD DUP1 SWAP2 SUB SWAP1 RETURN JUMPDEST PUSH2 0x205 PUSH2 0x98A JUMP JUMPDEST PUSH1 0x40 MLOAD PUSH2 0x212 SWAP2 SWAP1 PUSH2 0xA42 JUMP JUMPDEST PUSH1 0x40 MLOAD DUP1 SWAP2 SUB SWAP1 RETURN JUMPDEST PUSH0 PUSH20 0xFFFFFFFFFFFFFFFFFFFFFFFFFFFFFFFFFFFFFFFF AND DUP2 PUSH20 0xFFFFFFFFFFFFFFFFFFFFFFFFFFFFFFFFFFFFFFFF AND SUB PUSH2 0x280 JUMPI PUSH1 0x40 MLOAD PUSH32 0xD92E233D00000000000000000000000000000000000000000000000000000000 DUP2 MSTORE PUSH1 0x4 ADD PUSH1 0x40 MLOAD DUP1 SWAP2 SUB SWAP1 REVERT JUMPDEST ADDRESS PUSH20 0xFFFFFFFFFFFFFFFFFFFFFFFFFFFFFFFFFFFFFFFF AND DUP2 PUSH20 0xFFFFFFFFFFFFFFFFFFFFFFFFFFFFFFFFFFFFFFFF AND SUB PUSH2 0x2E5 JUMPI PUSH1 0x40 MLOAD PUSH32 0xD92E233D00000000000000000000000000000000000000000000000000000000 DUP2 MSTORE PUSH1 0x4 ADD PUSH1 0x40 MLOAD DUP1 SWAP2 SUB SWAP1 REVERT JUMPDEST PUSH0 PUSH1 0x3 PUSH0 SWAP1 SLOAD SWAP1 PUSH2 0x100 EXP SWAP1 DIV PUSH20 0xFFFFFFFFFFFFFFFFFFFFFFFFFFFFFFFFFFFFFFFF AND SWAP1 POP DUP2 PUSH1 0x3 PUSH0 PUSH2 0x100 EXP DUP2 SLOAD DUP2 PUSH20 0xFFFFFFFFFFFFFFFFFFFFFFFFFFFFFFFFFFFFFFFF MUL NOT AND SWAP1 DUP4 PUSH20 0xFFFFFFFFFFFFFFFFFFFFFFFFFFFFFFFFFFFFFFFF AND MUL OR SWAP1 SSTORE POP PUSH32 0x97001B29D9D8207193FC2E3B05F37BC0387D72FFD176A0A2F69BF57241A7FCDB DUP2 DUP4 PUSH1 0x40 MLOAD PUSH2 0x37B SWAP3 SWAP2 SWAP1 PUSH2 0xC65 JUMP JUMPDEST PUSH1 0x40 MLOAD DUP1 SWAP2 SUB SWAP1 LOG1 POP POP JUMP JUMPDEST PUSH1 0x1 PUSH1 0x2 SWAP1 SLOAD SWAP1 PUSH2 0x100 EXP SWAP1 DIV PUSH2 0xFFFF AND DUP2 JUMP JUMPDEST PUSH2 0x7D0 DUP2 PUSH2 0xFFFF AND GT ISZERO PUSH2 0x3E6 JUMPI DUP1 PUSH1 0x40 MLOAD PUSH32 0x33BEFE3700000000000000000000000000000000000000000000000000000000 DUP2 MSTORE PUSH1 0x4 ADD PUSH2 0x3DD SWAP2 SWAP1 PUSH2 0xA42 JUMP JUMPDEST PUSH1 0x40 MLOAD DUP1 SWAP2 SUB SWAP1 REVERT JUMPDEST PUSH0 DUP2 PUSH2 0xFFFF AND SUB PUSH2 0x423 JUMPI PUSH1 0x40 MLOAD PUSH32 0xCEDF9C9B00000000000000000000000000000000000000000000000000000000 DUP2 MSTORE PUSH1 0x4 ADD PUSH1 0x40 MLOAD DUP1 SWAP2 SUB SWAP1 REVERT JUMPDEST PUSH0 PUSH1 0x1 PUSH0 SWAP1 SLOAD SWAP1 PUSH2 0x100 EXP SWAP1 DIV PUSH2 0xFFFF AND PUSH2 0xFFFF AND SWAP1 POP DUP2 PUSH1 0x1 PUSH0 PUSH2 0x100 EXP DUP2 SLOAD DUP2 PUSH2 0xFFFF MUL NOT AND SWAP1 DUP4 PUSH2 0xFFFF AND MUL OR SWAP1 SSTORE POP PUSH32 0xF93CE1B2E2CB74B524760DFF1842E28B944E9C40627C07348A36C404BE739C02 DUP2 DUP4 PUSH1 0x40 MLOAD PUSH2 0x487 SWAP3 SWAP2 SWAP1 PUSH2 0xCBC JUMP JUMPDEST PUSH1 0x40 MLOAD DUP1 SWAP2 SUB SWAP1 LOG1 POP POP JUMP JUMPDEST PUSH0 DUP2 PUSH2 0xFFFF AND SUB PUSH2 0x4D0 JUMPI PUSH1 0x40 MLOAD PUSH32 0xBC63270600000000000000000000000000000000000000000000000000000000 DUP2 MSTORE PUSH1 0x4 ADD PUSH1 0x40 MLOAD DUP1 SWAP2 SUB SWAP1 REVERT JUMPDEST PUSH2 0xBB8 DUP2 PUSH2 0xFFFF AND GT ISZERO PUSH2 0x51B JUMPI DUP1 PUSH1 0x40 MLOAD PUSH32 0x8DD2147700000000000000000000000000000000000000000000000000000000 DUP2 MSTORE PUSH1 0x4 ADD PUSH2 0x512 SWAP2 SWAP1 PUSH2 0xA42 JUMP JUMPDEST PUSH1 0x40 MLOAD DUP1 SWAP2 SUB SWAP1 REVERT JUMPDEST PUSH0 PUSH1 0x1 PUSH1 0x4 SWAP1 SLOAD SWAP1 PUSH2 0x100 EXP SWAP1 DIV PUSH2 0xFFFF AND PUSH2 0xFFFF AND SWAP1 POP DUP2 PUSH1 0x1 PUSH1 0x4 PUSH2 0x100 EXP DUP2 SLOAD DUP2 PUSH2 0xFFFF MUL NOT AND SWAP1 DUP4 PUSH2 0xFFFF AND MUL OR SWAP1 SSTORE POP PUSH32 0xEB19DE72C23BC706D6E8D5F52ADC31581E6C81CEF627DF8FE75398E901B9BFBD DUP2 DUP4 PUSH1 0x40 MLOAD PUSH2 0x581 SWAP3 SWAP2 SWAP1 PUSH2 0xCBC JUMP JUMPDEST PUSH1 0x40 MLOAD DUP1 SWAP2 SUB SWAP1 LOG1 POP POP JUMP JUMPDEST PUSH0 PUSH1 0x2 SLOAD SWAP1 POP PUSH0 DUP2 SUB PUSH2 0x5CC JUMPI PUSH1 0x40 MLOAD PUSH32 0x7B5D5D4800000000000000000000000000000000000000000000000000000000 DUP2 MSTORE PUSH1 0x4 ADD PUSH1 0x40 MLOAD DUP1 SWAP2 SUB SWAP1 REVERT JUMPDEST PUSH0 PUSH1 0x2 DUP2 SWAP1 SSTORE POP PUSH0 PUSH1 0x3 PUSH0 SWAP1 SLOAD SWAP1 PUSH2 0x100 EXP SWAP1 DIV PUSH20 0xFFFFFFFFFFFFFFFFFFFFFFFFFFFFFFFFFFFFFFFF AND PUSH20 0xFFFFFFFFFFFFFFFFFFFFFFFFFFFFFFFFFFFFFFFF AND DUP3 PUSH1 0x40 MLOAD PUSH2 0x619 SWAP1 PUSH2 0xD10 JUMP JUMPDEST PUSH0 PUSH1 0x40 MLOAD DUP1 DUP4 SUB DUP2 DUP6 DUP8 GAS CALL SWAP3 POP POP POP RETURNDATASIZE DUP1 PUSH0 DUP2 EQ PUSH2 0x653 JUMPI PUSH1 0x40 MLOAD SWAP2 POP PUSH1 0x1F NOT PUSH1 0x3F RETURNDATASIZE ADD AND DUP3 ADD PUSH1 0x40 MSTORE RETURNDATASIZE DUP3 MSTORE RETURNDATASIZE PUSH0 PUSH1 0x20 DUP5 ADD RETURNDATACOPY PUSH2 0x658 JUMP JUMPDEST PUSH1 0x60 SWAP2 POP JUMPDEST POP POP SWAP1 POP DUP1 PUSH2 0x69C JUMPI PUSH1 0x40 MLOAD PUSH32 0x8C379A000000000000000000000000000000000000000000000000000000000 DUP2 MSTORE PUSH1 0x4 ADD PUSH2 0x693 SWAP1 PUSH2 0xD7E JUMP JUMPDEST PUSH1 0x40 MLOAD DUP1 SWAP2 SUB SWAP1 REVERT JUMPDEST PUSH1 0x3 PUSH0 SWAP1 SLOAD SWAP1 PUSH2 0x100 EXP SWAP1 DIV PUSH20 0xFFFFFFFFFFFFFFFFFFFFFFFFFFFFFFFFFFFFFFFF AND PUSH20 0xFFFFFFFFFFFFFFFFFFFFFFFFFFFFFFFFFFFFFFFF AND PUSH32 0xF43E8D333B9DDB8704EB40C14E57021E6D22A57B7E9BF2111AF5F1FFEA6ADA58 DUP4 PUSH1 0x40 MLOAD PUSH2 0x703 SWAP2 SWAP1 PUSH2 0xAC8 JUMP JUMPDEST PUSH1 0x40 MLOAD DUP1 SWAP2 SUB SWAP1 LOG2 POP POP JUMP JUMPDEST PUSH2 0x1388 DUP2 PUSH2 0xFFFF AND GT ISZERO PUSH2 0x75A JUMPI DUP1 PUSH1 0x40 MLOAD PUSH32 0x798ED56800000000000000000000000000000000000000000000000000000000 DUP2 MSTORE PUSH1 0x4 ADD PUSH2 0x751 SWAP2 SWAP1 PUSH2 0xA42 JUMP JUMPDEST PUSH1 0x40 MLOAD DUP1 SWAP2 SUB SWAP1 REVERT JUMPDEST PUSH0 DUP2 PUSH2 0xFFFF AND SUB PUSH2 0x797 JUMPI PUSH1 0x40 MLOAD PUSH32 0xBA2D850C00000000000000000000000000000000000000000000000000000000 DUP2 MSTORE PUSH1 0x4 ADD PUSH1 0x40 MLOAD DUP1 SWAP2 SUB SWAP1 REVERT JUMPDEST PUSH0 PUSH1 0x1 PUSH1 0x2 SWAP1 SLOAD SWAP1 PUSH2 0x100 EXP SWAP1 DIV PUSH2 0xFFFF AND PUSH2 0xFFFF AND SWAP1 POP DUP2 PUSH1 0x1 PUSH1 0x2 PUSH2 0x100 EXP DUP2 SLOAD DUP2 PUSH2 0xFFFF MUL NOT AND SWAP1 DUP4 PUSH2 0xFFFF AND MUL OR SWAP1 SSTORE POP PUSH32 0x5B56293D2C832157AC8F4CE694BC788152793B86457D54956F1722633C580139 DUP2 DUP4 PUSH1 0x40 MLOAD PUSH2 0x7FD SWAP3 SWAP2 SWAP1 PUSH2 0xCBC JUMP JUMPDEST PUSH1 0x40 MLOAD DUP1 SWAP2 SUB SWAP1 LOG1 POP POP JUMP JUMPDEST PUSH2 0x1388 DUP2 PUSH2 0xFFFF AND GT ISZERO PUSH2 0x854 JUMPI DUP1 PUSH1 0x40 MLOAD PUSH32 0x7CBF176300000000000000000000000000000000000000000000000000000000 DUP2 MSTORE PUSH1 0x4 ADD PUSH2 0x84B SWAP2 SWAP1 PUSH2 0xA42 JUMP JUMPDEST PUSH1 0x40 MLOAD DUP1 SWAP2 SUB SWAP1 REVERT JUMPDEST PUSH0 PUSH1 0x1 PUSH1 0x6 SWAP1 SLOAD SWAP1 PUSH2 0x100 EXP SWAP1 DIV PUSH2 0xFFFF AND PUSH2 0xFFFF AND SWAP1 POP DUP2 PUSH1 0x1 PUSH1 0x6 PUSH2 0x100 EXP DUP2 SLOAD DUP2 PUSH2 0xFFFF MUL NOT AND SWAP1 DUP4 PUSH2 0xFFFF AND MUL OR SWAP1 SSTORE POP PUSH32 0x38FC5525C7AB9850422E6F2CD4B086B0B50F1235A0D8DDEB7B43F61B9A5BFB05 DUP2 DUP4 PUSH1 0x40 MLOAD PUSH2 0x8BA SWAP3 SWAP2 SWAP1 PUSH2 0xCBC JUMP JUMPDEST PUSH1 0x40 MLOAD DUP1 SWAP2 SUB SWAP1 LOG1 POP POP JUMP JUMPDEST PUSH1 0x2 SLOAD DUP2 JUMP JUMPDEST PUSH1 0x1 PUSH1 0x4 SWAP1 SLOAD SWAP1 PUSH2 0x100 EXP SWAP1 DIV PUSH2 0xFFFF AND DUP2 JUMP JUMPDEST PUSH1 0x1 PUSH1 0x6 SWAP1 SLOAD SWAP1 PUSH2 0x100 EXP SWAP1 DIV PUSH2 0xFFFF AND DUP2 JUMP JUMPDEST PUSH0 DUP2 DUP2 SLOAD DUP2 LT PUSH2 0x902 JUMPI PUSH0 DUP1 REVERT JUMPDEST SWAP1 PUSH0 MSTORE PUSH1 0x20 PUSH0 KECCAK256 SWAP1 PUSH1 0x9 MUL ADD PUSH0 SWAP2 POP SWAP1 POP DUP1 PUSH0 ADD PUSH0 SWAP1 SLOAD SWAP1 PUSH2 0x100 EXP SWAP1 DIV PUSH20 0xFFFFFFFFFFFFFFFFFFFFFFFFFFFFFFFFFFFFFFFF AND SWAP1 DUP1 PUSH1 0x1 ADD SLOAD SWAP1 DUP1 PUSH1 0x2 ADD SLOAD SWAP1 DUP1 PUSH1 0x3 ADD SLOAD SWAP1 DUP1 PUSH1 0x4 ADD SLOAD SWAP1 DUP1 PUSH1 0x5 ADD SLOAD SWAP1 DUP1 PUSH1 0x6 ADD SLOAD SWAP1 DUP1 PUSH1 0x7 ADD SLOAD SWAP1 DUP1 PUSH1 0x8 ADD PUSH0 SWAP1 SLOAD SWAP1 PUSH2 0x100 EXP SWAP1 DIV PUSH1 0xFF AND SWAP1 DUP1 PUSH1 0x8 ADD PUSH1 0x1 SWAP1 SLOAD SWAP1 PUSH2 0x100 EXP SWAP1 DIV PUSH1 0xFF AND SWAP1 POP DUP11 JUMP JUMPDEST PUSH1 0x1 PUSH0 SWAP1 SLOAD SWAP1 PUSH2 0x100 EXP SWAP1 DIV PUSH2 0xFFFF AND DUP2 JUMP JUMPDEST PUSH0 PUSH0 REVERT JUMPDEST PUSH0 PUSH20 0xFFFFFFFFFFFFFFFFFFFFFFFFFFFFFFFFFFFFFFFF DUP3 AND SWAP1 POP SWAP2 SWAP1 POP JUMP JUMPDEST PUSH0 PUSH2 0x9CA DUP3 PUSH2 0x9A1 JUMP JUMPDEST SWAP1 POP SWAP2 SWAP1 POP JUMP JUMPDEST PUSH2 0x9DA DUP2 PUSH2 0x9C0 JUMP JUMPDEST DUP2 EQ PUSH2 0x9E4 JUMPI PUSH0 PUSH0 REVERT JUMPDEST POP JUMP JUMPDEST PUSH0 DUP2 CALLDATALOAD SWAP1 POP PUSH2 0x9F5 DUP2 PUSH2 0x9D1 JUMP JUMPDEST SWAP3 SWAP2 POP POP JUMP JUMPDEST PUSH0 PUSH1 0x20 DUP3 DUP5 SUB SLT ISZERO PUSH2 0xA10 JUMPI PUSH2 0xA0F PUSH2 0x99D JUMP JUMPDEST JUMPDEST PUSH0 PUSH2 0xA1D DUP5 DUP3 DUP6 ADD PUSH2 0x9E7 JUMP JUMPDEST SWAP2 POP POP SWAP3 SWAP2 POP POP JUMP JUMPDEST PUSH0 PUSH2 0xFFFF DUP3 AND SWAP1 POP SWAP2 SWAP1 POP JUMP JUMPDEST PUSH2 0xA3C DUP2 PUSH2 0xA26 JUMP JUMPDEST DUP3 MSTORE POP POP JUMP JUMPDEST PUSH0 PUSH1 0x20 DUP3 ADD SWAP1 POP PUSH2 0xA55 PUSH0 DUP4 ADD DUP5 PUSH2 0xA33 JUMP JUMPDEST SWAP3 SWAP2 POP POP JUMP JUMPDEST PUSH2 0xA64 DUP2 PUSH2 0xA26 JUMP JUMPDEST DUP2 EQ PUSH2 0xA6E JUMPI PUSH0 PUSH0 REVERT JUMPDEST POP JUMP JUMPDEST PUSH0 DUP2 CALLDATALOAD SWAP1 POP PUSH2 0xA7F DUP2 PUSH2 0xA5B JUMP JUMPDEST SWAP3 SWAP2 POP POP JUMP JUMPDEST PUSH0 PUSH1 0x20 DUP3 DUP5 SUB SLT ISZERO PUSH2 0xA9A JUMPI PUSH2 0xA99 PUSH2 0x99D JUMP JUMPDEST JUMPDEST PUSH0 PUSH2 0xAA7 DUP5 DUP3 DUP6 ADD PUSH2 0xA71 JUMP JUMPDEST SWAP2 POP POP SWAP3 SWAP2 POP POP JUMP JUMPDEST PUSH0 DUP2 SWAP1 POP SWAP2 SWAP1 POP JUMP JUMPDEST PUSH2 0xAC2 DUP2 PUSH2 0xAB0 JUMP JUMPDEST DUP3 MSTORE POP POP JUMP JUMPDEST PUSH0 PUSH1 0x20 DUP3 ADD SWAP1 POP PUSH2 0xADB PUSH0 DUP4 ADD DUP5 PUSH2 0xAB9 JUMP JUMPDEST SWAP3 SWAP2 POP POP JUMP JUMPDEST PUSH2 0xAEA DUP2 PUSH2 0xAB0 JUMP JUMPDEST DUP2 EQ PUSH2 0xAF4 JUMPI PUSH0 PUSH0 REVERT JUMPDEST POP JUMP JUMPDEST PUSH0 DUP2 CALLDATALOAD SWAP1 POP PUSH2 0xB05 DUP2 PUSH2 0xAE1 JUMP JUMPDEST SWAP3 SWAP2 POP POP JUMP JUMPDEST PUSH0 PUSH1 0x20 DUP3 DUP5 SUB SLT ISZERO PUSH2 0xB20 JUMPI PUSH2 0xB1F PUSH2 0x99D JUMP JUMPDEST JUMPDEST PUSH0 PUSH2 0xB2D DUP5 DUP3 DUP6 ADD PUSH2 0xAF7 JUMP JUMPDEST SWAP2 POP POP SWAP3 SWAP2 POP POP JUMP JUMPDEST PUSH0 PUSH2 0xB40 DUP3 PUSH2 0x9A1 JUMP JUMPDEST SWAP1 POP SWAP2 SWAP1 POP JUMP JUMPDEST PUSH2 0xB50 DUP2 PUSH2 0xB36 JUMP JUMPDEST DUP3 MSTORE POP POP JUMP JUMPDEST PUSH0 DUP2 ISZERO ISZERO SWAP1 POP SWAP2 SWAP1 POP JUMP JUMPDEST PUSH2 0xB6A DUP2 PUSH2 0xB56 JUMP JUMPDEST DUP3 MSTORE POP POP JUMP JUMPDEST PUSH0 PUSH2 0x140 DUP3 ADD SWAP1 POP PUSH2 0xB84 PUSH0 DUP4 ADD DUP14 PUSH2 0xB47 JUMP JUMPDEST PUSH2 0xB91 PUSH1 0x20 DUP4 ADD DUP13 PUSH2 0xAB9 JUMP JUMPDEST PUSH2 0xB9E PUSH1 0x40 DUP4 ADD DUP12 PUSH2 0xAB9 JUMP JUMPDEST PUSH2 0xBAB PUSH1 0x60 DUP4 ADD DUP11 PUSH2 0xAB9 JUMP JUMPDEST PUSH2 0xBB8 PUSH1 0x80 DUP4 ADD DUP10 PUSH2 0xAB9 JUMP JUMPDEST PUSH2 0xBC5 PUSH1 0xA0 DUP4 ADD DUP9 PUSH2 0xAB9 JUMP JUMPDEST PUSH2 0xBD2 PUSH1 0xC0 DUP4 ADD DUP8 PUSH2 0xAB9 JUMP JUMPDEST PUSH2 0xBDF PUSH1 0xE0 DUP4 ADD DUP7 PUSH2 0xAB9 JUMP JUMPDEST PUSH2 0xBED PUSH2 0x100 DUP4 ADD DUP6 PUSH2 0xB61 JUMP JUMPDEST PUSH2 0xBFB PUSH2 0x120 DUP4 ADD DUP5 PUSH2 0xB61 JUMP JUMPDEST SWAP12 SWAP11 POP POP POP POP POP POP POP POP POP POP POP JUMP JUMPDEST PUSH0 DUP2 SWAP1 POP SWAP2 SWAP1 POP JUMP JUMPDEST PUSH0 PUSH2 0xC2D PUSH2 0xC28 PUSH2 0xC23 DUP5 PUSH2 0x9A1 JUMP JUMPDEST PUSH2 0xC0A JUMP JUMPDEST PUSH2 0x9A1 JUMP JUMPDEST SWAP1 POP SWAP2 SWAP1 POP JUMP JUMPDEST PUSH0 PUSH2 0xC3E DUP3 PUSH2 0xC13 JUMP JUMPDEST SWAP1 POP SWAP2 SWAP1 POP JUMP JUMPDEST PUSH0 PUSH2 0xC4F DUP3 PUSH2 0xC34 JUMP JUMPDEST SWAP1 POP SWAP2 SWAP1 POP JUMP JUMPDEST PUSH2 0xC5F DUP2 PUSH2 0xC45 JUMP JUMPDEST DUP3 MSTORE POP POP JUMP JUMPDEST PUSH0 PUSH1 0x40 DUP3 ADD SWAP1 POP PUSH2 0xC78 PUSH0 DUP4 ADD DUP6 PUSH2 0xB47 JUMP JUMPDEST PUSH2 0xC85 PUSH1 0x20 DUP4 ADD DUP5 PUSH2 0xC56 JUMP JUMPDEST SWAP4 SWAP3 POP POP POP JUMP JUMPDEST PUSH0 PUSH2 0xCA6 PUSH2 0xCA1 PUSH2 0xC9C DUP5 PUSH2 0xA26 JUMP JUMPDEST PUSH2 0xC0A JUMP JUMPDEST PUSH2 0xAB0 JUMP JUMPDEST SWAP1 POP SWAP2 SWAP1 POP JUMP JUMPDEST PUSH2 0xCB6 DUP2 PUSH2 0xC8C JUMP JUMPDEST DUP3 MSTORE POP POP JUMP JUMPDEST PUSH0 PUSH1 0x40 DUP3 ADD SWAP1 POP PUSH2 0xCCF PUSH0 DUP4 ADD DUP6 PUSH2 0xAB9 JUMP JUMPDEST PUSH2 0xCDC PUSH1 0x20 DUP4 ADD DUP5 PUSH2 0xCAD JUMP JUMPDEST SWAP4 SWAP3 POP POP POP JUMP JUMPDEST PUSH0 DUP2 SWAP1 POP SWAP3 SWAP2 POP POP JUMP JUMPDEST POP JUMP JUMPDEST PUSH0 PUSH2 0xCFB PUSH0 DUP4 PUSH2 0xCE3 JUMP JUMPDEST SWAP2 POP PUSH2 0xD06 DUP3 PUSH2 0xCED JUMP JUMPDEST PUSH0 DUP3 ADD SWAP1 POP SWAP2 SWAP1 POP JUMP JUMPDEST PUSH0 PUSH2 0xD1A DUP3 PUSH2 0xCF0 JUMP JUMPDEST SWAP2 POP DUP2 SWAP1 POP SWAP2 SWAP1 POP JUMP JUMPDEST PUSH0 DUP3 DUP3 MSTORE PUSH1 0x20 DUP3 ADD SWAP1 POP SWAP3 SWAP2 POP POP JUMP JUMPDEST PUSH32 0x7472616E73666572206661696C65640000000000000000000000000000000000 PUSH0 DUP3 ADD MSTORE POP JUMP JUMPDEST PUSH0 PUSH2 0xD68 PUSH1 0xF DUP4 PUSH2 0xD24 JUMP JUMPDEST SWAP2 POP PUSH2 0xD73 DUP3 PUSH2 0xD34 JUMP JUMPDEST PUSH1 0x20 DUP3 ADD SWAP1 POP SWAP2 SWAP1 POP JUMP JUMPDEST PUSH0 PUSH1 0x20 DUP3 ADD SWAP1 POP DUP2 DUP2 SUB PUSH0 DUP4 ADD MSTORE PUSH2 0xD95 DUP2 PUSH2 0xD5C JUMP JUMPDEST SWAP1 POP SWAP2 SWAP1 POP JUMP INVALID LOG2 PUSH5 0x6970667358 0x22 SLT KECCAK256 0xC TLOAD 0xB9 XOR PUSH21 0x20D9A121C8CEDBAFE65E45A3EF6E580FE39CAA6C67 0xC7 0xF6 SWAP14 SELFDESTRUCT SMOD PUSH24 0x64736F6C634300081E003300000000000000000000000000 "
				},
				"gasEstimates": {
					"creation": {
						"codeDepositCost": "707600",
						"executionCost": "739",
						"totalCost": "708339"
					},
					"external": {
						"CollateralRatioPercent(uint16)": "infinite",
						"ManagementWallet(address)": "infinite",
						"MaxNPLPercent(uint16)": "infinite",
						"MonthlyInterestPercent(uint16)": "infinite",
						"PenaltyPercent(uint16)": "infinite",
						"TP()": "infinite",
						"collateralRatioPercent()": "2561",
						"loans(uint256)": "infinite",
						"maxNPLPercent()": "2583",
						"monthlyInterestPercent()": "2576",
						"penaltyPercent()": "2540",
						"totalProfits()": "2447"
					}
				},
				"methodIdentifiers": {
					"CollateralRatioPercent(uint16)": "55a19dac",
					"ManagementWallet(address)": "0b94bed0",
					"MaxNPLPercent(uint16)": "9608bbd5",
					"MonthlyInterestPercent(uint16)": "1b745bff",
					"PenaltyPercent(uint16)": "6ec4d2d1",
					"TP()": "639807d0",
					"collateralRatioPercent()": "d682dab5",
					"loans(uint256)": "e1ec3c68",
					"maxNPLPercent()": "de2cf972",
					"monthlyInterestPercent()": "f013e4b5",
					"penaltyPercent()": "161ba46a",
					"totalProfits()": "bd998cb3"
				}
			},
			"storageLayout": {
				"storage": [
					{
						"astId": 29,
						"contract": "lib/AdminLogic.sol:AdminLogic",
						"label": "loans",
						"offset": 0,
						"slot": "0",
						"type": "t_array(t_struct(Loan)24_storage)dyn_storage"
					},
					{
						"astId": 32,
						"contract": "lib/AdminLogic.sol:AdminLogic",
						"label": "monthlyInterestPercent",
						"offset": 0,
						"slot": "1",
						"type": "t_uint16"
					},
					{
						"astId": 34,
						"contract": "lib/AdminLogic.sol:AdminLogic",
						"label": "penaltyPercent",
						"offset": 2,
						"slot": "1",
						"type": "t_uint16"
					},
					{
						"astId": 36,
						"contract": "lib/AdminLogic.sol:AdminLogic",
						"label": "collateralRatioPercent",
						"offset": 4,
						"slot": "1",
						"type": "t_uint16"
					},
					{
						"astId": 38,
						"contract": "lib/AdminLogic.sol:AdminLogic",
						"label": "maxNPLPercent",
						"offset": 6,
						"slot": "1",
						"type": "t_uint16"
					},
					{
						"astId": 41,
						"contract": "lib/AdminLogic.sol:AdminLogic",
						"label": "totalProfits",
						"offset": 0,
						"slot": "2",
						"type": "t_uint256"
					},
					{
						"astId": 44,
						"contract": "lib/AdminLogic.sol:AdminLogic",
						"label": "managementWallet",
						"offset": 0,
						"slot": "3",
						"type": "t_address_payable"
					}
				],
				"types": {
					"t_address": {
						"encoding": "inplace",
						"label": "address",
						"numberOfBytes": "20"
					},
					"t_address_payable": {
						"encoding": "inplace",
						"label": "address payable",
						"numberOfBytes": "20"
					},
					"t_array(t_struct(Loan)24_storage)dyn_storage": {
						"base": "t_struct(Loan)24_storage",
						"encoding": "dynamic_array",
						"label": "struct AdminLogic.Loan[]",
						"numberOfBytes": "32"
					},
					"t_bool": {
						"encoding": "inplace",
						"label": "bool",
						"numberOfBytes": "1"
					},
					"t_struct(Loan)24_storage": {
						"encoding": "inplace",
						"label": "struct AdminLogic.Loan",
						"members": [
							{
								"astId": 5,
								"contract": "lib/AdminLogic.sol:AdminLogic",
								"label": "borrower",
								"offset": 0,
								"slot": "0",
								"type": "t_address"
							},
							{
								"astId": 7,
								"contract": "lib/AdminLogic.sol:AdminLogic",
								"label": "principal",
								"offset": 0,
								"slot": "1",
								"type": "t_uint256"
							},
							{
								"astId": 9,
								"contract": "lib/AdminLogic.sol:AdminLogic",
								"label": "durationMonths",
								"offset": 0,
								"slot": "2",
								"type": "t_uint256"
							},
							{
								"astId": 11,
								"contract": "lib/AdminLogic.sol:AdminLogic",
								"label": "startTimestamp",
								"offset": 0,
								"slot": "3",
								"type": "t_uint256"
							},
							{
								"astId": 13,
								"contract": "lib/AdminLogic.sol:AdminLogic",
								"label": "paidMonths",
								"offset": 0,
								"slot": "4",
								"type": "t_uint256"
							},
							{
								"astId": 15,
								"contract": "lib/AdminLogic.sol:AdminLogic",
								"label": "consecutiveMissed",
								"offset": 0,
								"slot": "5",
								"type": "t_uint256"
							},
							{
								"astId": 17,
								"contract": "lib/AdminLogic.sol:AdminLogic",
								"label": "remainingPrincipal",
								"offset": 0,
								"slot": "6",
								"type": "t_uint256"
							},
							{
								"astId": 19,
								"contract": "lib/AdminLogic.sol:AdminLogic",
								"label": "collateral",
								"offset": 0,
								"slot": "7",
								"type": "t_uint256"
							},
							{
								"astId": 21,
								"contract": "lib/AdminLogic.sol:AdminLogic",
								"label": "liquidated",
								"offset": 0,
								"slot": "8",
								"type": "t_bool"
							},
							{
								"astId": 23,
								"contract": "lib/AdminLogic.sol:AdminLogic",
								"label": "active",
								"offset": 1,
								"slot": "8",
								"type": "t_bool"
							}
						],
						"numberOfBytes": "288"
					},
					"t_uint16": {
						"encoding": "inplace",
						"label": "uint16",
						"numberOfBytes": "2"
					},
					"t_uint256": {
						"encoding": "inplace",
						"label": "uint256",
						"numberOfBytes": "32"
					}
				}
			},
			"userdoc": {
				"kind": "user",
				"methods": {
					"CollateralRatioPercent(uint16)": {
						"notice": "Sets the required collateral ratio."
					},
					"ManagementWallet(address)": {
						"notice": "Sets the management wallet where protocol profits will be transferred."
					},
					"MaxNPLPercent(uint16)": {
						"notice": "Sets the maximum Non-Performing Loan (NPL) ratio."
					},
					"MonthlyInterestPercent(uint16)": {
						"notice": "Sets the monthly interest rate percentage."
					},
					"PenaltyPercent(uint16)": {
						"notice": "Sets the penalty percentage for missed payments."
					},
					"TP()": {
						"notice": "Transfers all accumulated protocol profits to the management wallet."
					},
					"loans(uint256)": {
						"notice": "Array storing all loans."
					},
					"monthlyInterestPercent()": {
						"notice": "Protocol configuration parameters."
					},
					"totalProfits()": {
						"notice": "Total accumulated profits within the protocol."
					}
				},
				"notice": "Contains administrative functions and configuration for loan protocol parameters,         including interest rates, penalties, collateral ratios, profit management, and wallet settings.",
				"version": 1
			}
		}
	}
}