{
	"data": {
		"bytecode": {
			"linkReferences": {},
			"object": "608060405234801561000f575f5ffd5b50604051615e39380380615e39833981810160405281019061003191906101ed565b335f5f6101000a81548173ffffffffffffffffffffffffffffffffffffffff021916908373ffffffffffffffffffffffffffffffffffffffff16021790555060016003819055505f73ffffffffffffffffffffffffffffffffffffffff168173ffffffffffffffffffffffffffffffffffffffff16036100e6576040517f08c379a00000000000000000000000000000000000000000000000000000000081526004016100dd90610272565b60405180910390fd5b80600a5f6101000a81548173ffffffffffffffffffffffffffffffffffffffff021916908373ffffffffffffffffffffffffffffffffffffffff16021790555060026005819055506001600681905550603260078190555060146008819055508073ffffffffffffffffffffffffffffffffffffffff167f6a92b2b1dac24378528816100cbbcd6428939c33c47425a39e3c9c506557ae3560405160405180910390a250610290565b5f5ffd5b5f73ffffffffffffffffffffffffffffffffffffffff82169050919050565b5f6101bc82610193565b9050919050565b6101cc816101b2565b81146101d6575f5ffd5b50565b5f815190506101e7816101c3565b92915050565b5f602082840312156102025761020161018f565b5b5f61020f848285016101d9565b91505092915050565b5f82825260208201905092915050565b7f4572723a207a65726f20616464722100000000000000000000000000000000005f82015250565b5f61025c600f83610218565b915061026782610228565b602082019050919050565b5f6020820190508181035f83015261028981610250565b9050919050565b615b9c8061029d5f395ff3fe608060405260043610610184575f3560e01c80639047bf58116100d0578063d071b98011610089578063e1ec3c6811610063578063e1ec3c6814610532578063e777486814610577578063f013e4b514610593578063f9f92be4146105bd5761018b565b8063d071b980146104b6578063d682dab5146104de578063de2cf972146105085761018b565b80639047bf58146103ce57806398b7049e146103f8578063a5623ffc14610420578063aa452fa614610448578063aadc1ac114610464578063bd998cb31461048c5761018b565b80635b4d76f11161013d57806375e3661e1161011757806375e3661e146102fd5780637794e3fd146103255780637be9878b146103615780638349d6be146103895761018b565b80635b4d76f1146102855780635d29cb98146102ad57806371c263b2146102d55761018b565b8063161ba46a1461018f57806320a87d80146101b9578063217fe6c6146101e157806323e77db31461021d5780634492b5c914610233578063559b9b4c1461025d5761018b565b3661018b57005b5f5ffd5b34801561019a575f5ffd5b506101a36105f9565b6040516101b091906140ae565b60405180910390f35b3480156101c4575f5ffd5b506101df60048036038101906101da91906140f9565b6105ff565b005b3480156101ec575f5ffd5b50610207600480360381019061020291906141df565b61077c565b6040516102149190614256565b60405180910390f35b348015610228575f5ffd5b506102316107ee565b005b34801561023e575f5ffd5b50610247610a35565b60405161025491906140ae565b60405180910390f35b348015610268575f5ffd5b50610283600480360381019061027e91906141df565b610aed565b005b348015610290575f5ffd5b506102ab60048036038101906102a691906140f9565b610d95565b005b3480156102b8575f5ffd5b506102d360048036038101906102ce91906140f9565b61103c565b005b3480156102e0575f5ffd5b506102fb60048036038101906102f691906140f9565b611302565b005b348015610308575f5ffd5b50610323600480360381019061031e919061426f565b61147f565b005b348015610330575f5ffd5b5061034b6004803603810190610346919061426f565b611657565b60405161035891906140ae565b60405180910390f35b34801561036c575f5ffd5b50610387600480360381019061038291906142d5565b61166c565b005b348015610394575f5ffd5b506103af60048036038101906103aa91906140f9565b611896565b6040516103c59a9998979695949392919061430f565b60405180910390f35b3480156103d9575f5ffd5b506103e26119fa565b6040516103ef91906140ae565b60405180910390f35b348015610403575f5ffd5b5061041e600480360381019061041991906140f9565b611a00565b005b34801561042b575f5ffd5b50610446600480360381019061044191906141df565b611b7d565b005b610462600480360381019061045d91906143a9565b611e95565b005b34801561046f575f5ffd5b5061048a600480360381019061048591906140f9565b612367565b005b348015610497575f5ffd5b506104a0612723565b6040516104ad91906140ae565b60405180910390f35b3480156104c1575f5ffd5b506104dc60048036038101906104d791906140f9565b612729565b005b3480156104e9575f5ffd5b506104f2612864565b6040516104ff91906140ae565b60405180910390f35b348015610513575f5ffd5b5061051c61286a565b60405161052991906140ae565b60405180910390f35b34801561053d575f5ffd5b50610558600480360381019061055391906140f9565b612870565b60405161056e9a9998979695949392919061430f565b60405180910390f35b610591600480360381019061058c91906143a9565b612907565b005b34801561059e575f5ffd5b506105a761303f565b6040516105b491906140ae565b60405180910390f35b3480156105c8575f5ffd5b506105e360048036038101906105de919061426f565b613045565b6040516105f09190614256565b60405180910390f35b60065481565b60025f3373ffffffffffffffffffffffffffffffffffffffff1673ffffffffffffffffffffffffffffffffffffffff1681526020019081526020015f206040516106489061443b565b90815260200160405180910390205f9054906101000a900460ff166106a2576040517f08c379a0000000000000000000000000000000000000000000000000000000008152600401610699906144cf565b60405180910390fd5b6106ab33613062565b5f81116106ed576040517f08c379a00000000000000000000000000000000000000000000000000000000081526004016106e490614537565b60405180910390fd5b610bb8811115610732576040517f08c379a0000000000000000000000000000000000000000000000000000000008152600401610729906145c5565b60405180910390fd5b5f6007549050816007819055507feb19de72c23bc706d6e8d5f52adc31581e6c81cef627df8fe75398e901b9bfbd81836040516107709291906145e3565b60405180910390a15050565b5f60025f8573ffffffffffffffffffffffffffffffffffffffff1673ffffffffffffffffffffffffffffffffffffffff1681526020019081526020015f2083836040516107ca92919061463c565b90815260200160405180910390205f9054906101000a900460ff1690509392505050565b60025f3373ffffffffffffffffffffffffffffffffffffffff1673ffffffffffffffffffffffffffffffffffffffff1681526020019081526020015f206040516108379061443b565b90815260200160405180910390205f9054906101000a900460ff16610891576040517f08c379a0000000000000000000000000000000000000000000000000000000008152600401610888906144cf565b60405180910390fd5b6108996130d3565b6108a233613062565b5f60095490505f81116108ea576040517f08c379a00000000000000000000000000000000000000000000000000000000081526004016108e19061469e565b60405180910390fd5b5f6009819055505f600a5f9054906101000a900473ffffffffffffffffffffffffffffffffffffffff1673ffffffffffffffffffffffffffffffffffffffff1682604051610937906146e9565b5f6040518083038185875af1925050503d805f8114610971576040519150601f19603f3d011682016040523d82523d5f602084013e610976565b606091505b50509050806109ba576040517f08c379a00000000000000000000000000000000000000000000000000000000081526004016109b190614747565b60405180910390fd5b600a5f9054906101000a900473ffffffffffffffffffffffffffffffffffffffff1673ffffffffffffffffffffffffffffffffffffffff167ff43e8d333b9ddb8704eb40c14e57021e6d22a57b7e9bf2111af5f1ffea6ada5883604051610a2191906140ae565b60405180910390a25050610a33613122565b565b5f60025f3373ffffffffffffffffffffffffffffffffffffffff1673ffffffffffffffffffffffffffffffffffffffff1681526020019081526020015f20604051610a7f9061443b565b90815260200160405180910390205f9054906101000a900460ff16610ad9576040517f08c379a0000000000000000000000000000000000000000000000000000000008152600401610ad0906144cf565b60405180910390fd5b610ae233613062565b600480549050905090565b5f5f9054906101000a900473ffffffffffffffffffffffffffffffffffffffff1673ffffffffffffffffffffffffffffffffffffffff163373ffffffffffffffffffffffffffffffffffffffff1614610b7b576040517f08c379a0000000000000000000000000000000000000000000000000000000008152600401610b72906147d5565b60405180910390fd5b6040518060400160405280600781526020017f456d706c6f796500000000000000000000000000000000000000000000000000815250805190602001208282604051610bc8929190614817565b604051809103902014610c10576040517f08c379a0000000000000000000000000000000000000000000000000000000008152600401610c0790614879565b60405180910390fd5b60025f8473ffffffffffffffffffffffffffffffffffffffff1673ffffffffffffffffffffffffffffffffffffffff1681526020019081526020015f208282604051610c5d92919061463c565b90815260200160405180910390205f9054906101000a900460ff16610cb7576040517f08c379a0000000000000000000000000000000000000000000000000000000008152600401610cae90614907565b60405180910390fd5b5f60025f8573ffffffffffffffffffffffffffffffffffffffff1673ffffffffffffffffffffffffffffffffffffffff1681526020019081526020015f208383604051610d0592919061463c565b90815260200160405180910390205f6101000a81548160ff02191690831515021790555060015f815480929190610d3b90614952565b91905055508273ffffffffffffffffffffffffffffffffffffffff167fcf3bbb93629b62834974659efc838721fa2bd3b41cafd38b516ac86b661491e18383604051610d889291906149b5565b60405180910390a2505050565b60025f3373ffffffffffffffffffffffffffffffffffffffff1673ffffffffffffffffffffffffffffffffffffffff1681526020019081526020015f20604051610dde9061443b565b90815260200160405180910390205f9054906101000a900460ff1615610e39576040517f08c379a0000000000000000000000000000000000000000000000000000000008152600401610e3090614a47565b60405180910390fd5b5f5f9054906101000a900473ffffffffffffffffffffffffffffffffffffffff1673ffffffffffffffffffffffffffffffffffffffff163373ffffffffffffffffffffffffffffffffffffffff1603610ec7576040517f08c379a0000000000000000000000000000000000000000000000000000000008152600401610ebe90614ad5565b60405180910390fd5b610ed033613062565b610ed98161312c565b5f60048281548110610eee57610eed614af3565b5b905f5260205f20906009020190508060080160019054906101000a900460ff161580610f275750806008015f9054906101000a900460ff165b15610f325750611039565b5f610f488260030154610f43613176565b61317d565b90505f8190508260020154811115610f6257826002015490505b8260040154811115610fd9575f836004015482610f7f9190614b20565b905080846005015f828254610f949190614b53565b92505081905550847fa9bd81b5e2fa2470f02961f37fa6590c16a995e9bbf73088778e72ea4237c4bb8560050154604051610fcf91906140ae565b60405180910390a2505b6003836005015410610ff157610ff08460036131b5565b5b8260020154821015801561100c575082600201548360040154105b80156110265750826008015f9054906101000a900460ff16155b1561103557611034846138e0565b5b5050505b50565b60025f3373ffffffffffffffffffffffffffffffffffffffff1673ffffffffffffffffffffffffffffffffffffffff1681526020019081526020015f206040516110859061443b565b90815260200160405180910390205f9054906101000a900460ff166110df576040517f08c379a00000000000000000000000000000000000000000000000000000000081526004016110d6906144cf565b60405180910390fd5b6110e76130d3565b6110f033613062565b6110f98161312c565b5f6004828154811061110e5761110d614af3565b5b905f5260205f20906009020190508060080160019054906101000a900460ff161580156111495750806008015f9054906101000a900460ff16155b611188576040517f08c379a000000000000000000000000000000000000000000000000000000000815260040161117f90614bd0565b60405180910390fd5b5f816007015490505f82600701819055505f825f015f9054906101000a900473ffffffffffffffffffffffffffffffffffffffff1673ffffffffffffffffffffffffffffffffffffffff16826040516111e0906146e9565b5f6040518083038185875af1925050503d805f811461121a576040519150601f19603f3d011682016040523d82523d5f602084013e61121f565b606091505b5050905080611263576040517f08c379a000000000000000000000000000000000000000000000000000000000815260040161125a90614c38565b60405180910390fd5b6001836008015f6101000a81548160ff021916908315150217905550825f015f9054906101000a900473ffffffffffffffffffffffffffffffffffffffff1673ffffffffffffffffffffffffffffffffffffffff16847f4a14ed616ce90b51a0a9222c0e231e9ce03b6885730aff30c76a5ccb7c5b8106845f5f6040516112ec93929190614c98565b60405180910390a35050506112ff613122565b50565b60025f3373ffffffffffffffffffffffffffffffffffffffff1673ffffffffffffffffffffffffffffffffffffffff1681526020019081526020015f2060405161134b9061443b565b90815260200160405180910390205f9054906101000a900460ff166113a5576040517f08c379a000000000000000000000000000000000000000000000000000000000815260040161139c906144cf565b60405180910390fd5b6113ae33613062565b6113888111156113f3576040517f08c379a00000000000000000000000000000000000000000000000000000000081526004016113ea90614d17565b60405180910390fd5b5f8111611435576040517f08c379a000000000000000000000000000000000000000000000000000000000815260040161142c90614d7f565b60405180910390fd5b5f6006549050816006819055507f5b56293d2c832157ac8f4ce694bc788152793b86457d54956f1722633c58013981836040516114739291906145e3565b60405180910390a15050565b60025f3373ffffffffffffffffffffffffffffffffffffffff1673ffffffffffffffffffffffffffffffffffffffff1681526020019081526020015f206040516114c89061443b565b90815260200160405180910390205f9054906101000a900460ff16611522576040517f08c379a0000000000000000000000000000000000000000000000000000000008152600401611519906144cf565b60405180910390fd5b61152b33613062565b61153481613062565b600b5f8273ffffffffffffffffffffffffffffffffffffffff1673ffffffffffffffffffffffffffffffffffffffff1681526020019081526020015f205f9054906101000a900460ff166115bd576040517f08c379a00000000000000000000000000000000000000000000000000000000081526004016115b490614de7565b60405180910390fd5b5f600b5f8373ffffffffffffffffffffffffffffffffffffffff1673ffffffffffffffffffffffffffffffffffffffff1681526020019081526020015f205f6101000a81548160ff0219169083151502179055508073ffffffffffffffffffffffffffffffffffffffff167f117e3210bb9aa7d9baff172026820255c6f6c30ba8999d1c2fd88e2848137c4e60405160405180910390a250565b600c602052805f5260405f205f915090505481565b60025f3373ffffffffffffffffffffffffffffffffffffffff1673ffffffffffffffffffffffffffffffffffffffff1681526020019081526020015f206040516116b59061443b565b90815260200160405180910390205f9054906101000a900460ff1661170f576040517f08c379a0000000000000000000000000000000000000000000000000000000008152600401611706906144cf565b60405180910390fd5b61171833613062565b5f73ffffffffffffffffffffffffffffffffffffffff168173ffffffffffffffffffffffffffffffffffffffff1603611786576040517f08c379a000000000000000000000000000000000000000000000000000000000815260040161177d90614e4f565b60405180910390fd5b3073ffffffffffffffffffffffffffffffffffffffff168173ffffffffffffffffffffffffffffffffffffffff16036117f4576040517f08c379a00000000000000000000000000000000000000000000000000000000081526004016117eb90614eb7565b60405180910390fd5b5f600a5f9054906101000a900473ffffffffffffffffffffffffffffffffffffffff16905081600a5f6101000a81548173ffffffffffffffffffffffffffffffffffffffff021916908373ffffffffffffffffffffffffffffffffffffffff1602179055507f97001b29d9d8207193fc2e3b05f37bc0387d72ffd176a0a2f69bf57241a7fcdb818360405161188a929190614f27565b60405180910390a15050565b5f5f5f5f5f5f5f5f5f5f60025f3373ffffffffffffffffffffffffffffffffffffffff1673ffffffffffffffffffffffffffffffffffffffff1681526020019081526020015f206040516118e99061443b565b90815260200160405180910390205f9054906101000a900460ff16611943576040517f08c379a000000000000000000000000000000000000000000000000000000000815260040161193a906144cf565b60405180910390fd5b61194c33613062565b5f60048c8154811061196157611960614af3565b5b905f5260205f2090600902019050805f015f9054906101000a900473ffffffffffffffffffffffffffffffffffffffff168160010154826002015483600301548460040154856005015486600601548760070154886008015f9054906101000a900460ff168960080160019054906101000a900460ff169a509a509a509a509a509a509a509a509a509a50509193959799509193959799565b60015481565b60025f3373ffffffffffffffffffffffffffffffffffffffff1673ffffffffffffffffffffffffffffffffffffffff1681526020019081526020015f20604051611a499061443b565b90815260200160405180910390205f9054906101000a900460ff16611aa3576040517f08c379a0000000000000000000000000000000000000000000000000000000008152600401611a9a906144cf565b60405180910390fd5b611aac33613062565b6107d0811115611af1576040517f08c379a0000000000000000000000000000000000000000000000000000000008152600401611ae890614f98565b60405180910390fd5b5f8111611b33576040517f08c379a0000000000000000000000000000000000000000000000000000000008152600401611b2a90615000565b60405180910390fd5b5f6005549050816005819055507ff93ce1b2e2cb74b524760dff1842e28b944e9c40627c07348a36c404be739c028183604051611b719291906145e3565b60405180910390a15050565b5f5f9054906101000a900473ffffffffffffffffffffffffffffffffffffffff1673ffffffffffffffffffffffffffffffffffffffff163373ffffffffffffffffffffffffffffffffffffffff1614611c0b576040517f08c379a0000000000000000000000000000000000000000000000000000000008152600401611c02906147d5565b60405180910390fd5b6040518060400160405280600781526020017f456d706c6f796500000000000000000000000000000000000000000000000000815250805190602001208282604051611c58929190614817565b604051809103902014611ca0576040517f08c379a0000000000000000000000000000000000000000000000000000000008152600401611c9790614879565b60405180910390fd5b5f73ffffffffffffffffffffffffffffffffffffffff168373ffffffffffffffffffffffffffffffffffffffff1603611d0e576040517f08c379a0000000000000000000000000000000000000000000000000000000008152600401611d059061508e565b60405180910390fd5b60025f8473ffffffffffffffffffffffffffffffffffffffff1673ffffffffffffffffffffffffffffffffffffffff1681526020019081526020015f208282604051611d5b92919061463c565b90815260200160405180910390205f9054906101000a900460ff1615611db6576040517f08c379a0000000000000000000000000000000000000000000000000000000008152600401611dad9061511c565b60405180910390fd5b600160025f8573ffffffffffffffffffffffffffffffffffffffff1673ffffffffffffffffffffffffffffffffffffffff1681526020019081526020015f208383604051611e0592919061463c565b90815260200160405180910390205f6101000a81548160ff02191690831515021790555060015f815480929190611e3b9061513a565b91905055508273ffffffffffffffffffffffffffffffffffffffff167f088567665d11bb1ca04896b9d3c620779f90a9f00f12488f6050a74eb11c2be58383604051611e889291906149b5565b60405180910390a2505050565b60025f3373ffffffffffffffffffffffffffffffffffffffff1673ffffffffffffffffffffffffffffffffffffffff1681526020019081526020015f20604051611ede9061443b565b90815260200160405180910390205f9054906101000a900460ff1615611f39576040517f08c379a0000000000000000000000000000000000000000000000000000000008152600401611f3090614a47565b60405180910390fd5b5f5f9054906101000a900473ffffffffffffffffffffffffffffffffffffffff1673ffffffffffffffffffffffffffffffffffffffff163373ffffffffffffffffffffffffffffffffffffffff1603611fc7576040517f08c379a0000000000000000000000000000000000000000000000000000000008152600401611fbe90614ad5565b60405180910390fd5b611fd033613062565b600b5f3373ffffffffffffffffffffffffffffffffffffffff1673ffffffffffffffffffffffffffffffffffffffff1681526020019081526020015f205f9054906101000a900460ff161561205a576040517f08c379a0000000000000000000000000000000000000000000000000000000008152600401612051906151cb565b60405180910390fd5b5f821161209c576040517f08c379a000000000000000000000000000000000000000000000000000000000815260040161209390615233565b60405180910390fd5b60018110156120e0576040517f08c379a00000000000000000000000000000000000000000000000000000000081526004016120d79061529b565b60405180910390fd5b6120e8613f0f565b612127576040517f08c379a000000000000000000000000000000000000000000000000000000000815260040161211e90615303565b60405180910390fd5b5f670de0b6b3a76400008361213c9190615321565b90505f60646007548361214f9190615321565b612159919061538f565b90508034101561219e576040517f08c379a000000000000000000000000000000000000000000000000000000000815260040161219590615409565b60405180910390fd5b5f6040518061014001604052803373ffffffffffffffffffffffffffffffffffffffff1681526020018481526020018581526020015f81526020015f81526020015f81526020018481526020013481526020015f151581526020015f15158152509050600481908060018154018082558091505060019003905f5260205f2090600902015f909190919091505f820151815f015f6101000a81548173ffffffffffffffffffffffffffffffffffffffff021916908373ffffffffffffffffffffffffffffffffffffffff1602179055506020820151816001015560408201518160020155606082015181600301556080820151816004015560a0820151816005015560c0820151816006015560e08201518160070155610100820151816008015f6101000a81548160ff0219169083151502179055506101208201518160080160016101000a81548160ff02191690831515021790555050505f600160048054905061230a9190614b20565b90503373ffffffffffffffffffffffffffffffffffffffff16817ff6cc19e46a340ab5888d736bfc79aef72ae92d12d7b76319d72b0abc170868e686883460405161235793929190615427565b60405180910390a3505050505050565b60025f3373ffffffffffffffffffffffffffffffffffffffff1673ffffffffffffffffffffffffffffffffffffffff1681526020019081526020015f206040516123b09061443b565b90815260200160405180910390205f9054906101000a900460ff1661240a576040517f08c379a0000000000000000000000000000000000000000000000000000000008152600401612401906144cf565b60405180910390fd5b6124126130d3565b61241b33613062565b6124248161312c565b5f6004828154811061243957612438614af3565b5b905f5260205f2090600902019050806008015f9054906101000a900460ff1615612498576040517f08c379a000000000000000000000000000000000000000000000000000000000815260040161248f906154a6565b60405180910390fd5b8060080160019054906101000a900460ff16156124ea576040517f08c379a00000000000000000000000000000000000000000000000000000000081526004016124e19061550e565b60405180910390fd5b8060010154471015612531576040517f08c379a000000000000000000000000000000000000000000000000000000000815260040161252890615576565b60405180910390fd5b612539613176565b816003018190555060018160080160016101000a81548160ff0219169083151502179055505f815f015f9054906101000a900473ffffffffffffffffffffffffffffffffffffffff1673ffffffffffffffffffffffffffffffffffffffff1682600101546040516125a9906146e9565b5f6040518083038185875af1925050503d805f81146125e3576040519150601f19603f3d011682016040523d82523d5f602084013e6125e8565b606091505b505090508061262c576040517f08c379a0000000000000000000000000000000000000000000000000000000008152600401612623906155de565b60405180910390fd5b815f015f9054906101000a900473ffffffffffffffffffffffffffffffffffffffff1673ffffffffffffffffffffffffffffffffffffffff16837f2b993938baa27c88e77a207903d275c96fa30ae5949a3ea5cd56e466e4f5c891846003015460405161269991906140ae565b60405180910390a3815f015f9054906101000a900473ffffffffffffffffffffffffffffffffffffffff1673ffffffffffffffffffffffffffffffffffffffff16837f0ceeb4503a2fe0b51298a0af21358f3d89e7eab3f65ae2a7835859c3e2c51604846001015460405161270e91906140ae565b60405180910390a35050612720613122565b50565b60095481565b60025f3373ffffffffffffffffffffffffffffffffffffffff1673ffffffffffffffffffffffffffffffffffffffff1681526020019081526020015f206040516127729061443b565b90815260200160405180910390205f9054906101000a900460ff166127cc576040517f08c379a00000000000000000000000000000000000000000000000000000000081526004016127c3906144cf565b60405180910390fd5b6127d533613062565b61138881111561281a576040517f08c379a000000000000000000000000000000000000000000000000000000000815260040161281190615646565b60405180910390fd5b5f6008549050816008819055507f38fc5525c7ab9850422e6f2cd4b086b0b50f1235a0d8ddeb7b43f61b9a5bfb0581836040516128589291906145e3565b60405180910390a15050565b60075481565b60085481565b6004818154811061287f575f80fd5b905f5260205f2090600902015f91509050805f015f9054906101000a900473ffffffffffffffffffffffffffffffffffffffff1690806001015490806002015490806003015490806004015490806005015490806006015490806007015490806008015f9054906101000a900460ff16908060080160019054906101000a900460ff1690508a565b60025f3373ffffffffffffffffffffffffffffffffffffffff1673ffffffffffffffffffffffffffffffffffffffff1681526020019081526020015f206040516129509061443b565b90815260200160405180910390205f9054906101000a900460ff16156129ab576040517f08c379a00000000000000000000000000000000000000000000000000000000081526004016129a290614a47565b60405180910390fd5b5f5f9054906101000a900473ffffffffffffffffffffffffffffffffffffffff1673ffffffffffffffffffffffffffffffffffffffff163373ffffffffffffffffffffffffffffffffffffffff1603612a39576040517f08c379a0000000000000000000000000000000000000000000000000000000008152600401612a3090614ad5565b60405180910390fd5b612a416130d3565b612a4a33613062565b612a538261312c565b5f60048381548110612a6857612a67614af3565b5b905f5260205f20906009020190508060080160019054906101000a900460ff168015612aa25750806008015f9054906101000a900460ff16155b612ae1576040517f08c379a0000000000000000000000000000000000000000000000000000000008152600401612ad8906156ae565b60405180910390fd5b805f015f9054906101000a900473ffffffffffffffffffffffffffffffffffffffff1673ffffffffffffffffffffffffffffffffffffffff163373ffffffffffffffffffffffffffffffffffffffff1614612b71576040517f08c379a0000000000000000000000000000000000000000000000000000000008152600401612b6890615716565b60405180910390fd5b5f8211612bb3576040517f08c379a0000000000000000000000000000000000000000000000000000000008152600401612baa9061577e565b60405180910390fd5b8060020154828260040154612bc89190614b53565b1115612c09576040517f08c379a0000000000000000000000000000000000000000000000000000000008152600401612c00906157e6565b60405180910390fd5b5f612c1f8260030154612c1a613176565b61317d565b90508160020154826004015410612c6b576040517f08c379a0000000000000000000000000000000000000000000000000000000008152600401612c629061584e565b60405180910390fd5b5f612c7585613f34565b90505f836004015490505f8390505f5f905082821115612cc7575f8383612c9c9190614b20565b905080606460065487612caf9190615321565b612cb9919061538f565b612cc39190615321565b9150505b5f8185612cd49190614b53565b90506001881115612d0557600188612cec9190614b20565b85612cf79190615321565b81612d029190614b53565b90505b803414612d47576040517f08c379a0000000000000000000000000000000000000000000000000000000008152600401612d3e906158dc565b60405180910390fd5b5f5f90505b88811015612eab575f5f8214612d625786612d6f565b8387612d6e9190614b53565b5b90505f60646005548b60010154612d869190615321565b612d90919061538f565b90505f8189612d9f9190614b20565b90505f8403612dd0578582612db49190614b53565b60095f828254612dc49190614b53565b92505081905550612de9565b8160095f828254612de19190614b53565b925050819055505b8a60060154811115612dfd578a6006015490505b808b6006015f828254612e109190614b20565b9250508190555060018b6004015f828254612e2b9190614b53565b925050819055508a600201548b60040154101580612e4c57505f8b60060154145b15612e5957505050612eab565b5f8314612e9b576040517f08c379a0000000000000000000000000000000000000000000000000000000008152600401612e929061591a565b60405180910390fd5b5050508080600101915050612d4c565b505f87600501819055503373ffffffffffffffffffffffffffffffffffffffff16897f041e038704bf70ce2e97dcddc75986a8dec282d710422669d04a1d908ff94b34348a60040154604051612f029291906145e3565b60405180910390a386600201548760040154101580612f2457505f8760060154145b1561302c575f8760080160016101000a81548160ff0219169083151502179055505f876007015490505f88600701819055505f81111561302a575f885f015f9054906101000a900473ffffffffffffffffffffffffffffffffffffffff1673ffffffffffffffffffffffffffffffffffffffff1682604051612fa5906146e9565b5f6040518083038185875af1925050503d805f8114612fdf576040519150601f19603f3d011682016040523d82523d5f602084013e612fe4565b606091505b5050905080613028576040517f08c379a000000000000000000000000000000000000000000000000000000000815260040161301f90615982565b60405180910390fd5b505b505b5050505050505061303b613122565b5050565b60055481565b600b602052805f5260405f205f915054906101000a900460ff1681565b5f73ffffffffffffffffffffffffffffffffffffffff168173ffffffffffffffffffffffffffffffffffffffff16036130d0576040517f08c379a00000000000000000000000000000000000000000000000000000000081526004016130c790615a10565b60405180910390fd5b50565b600260035403613118576040517f08c379a000000000000000000000000000000000000000000000000000000000815260040161310f90615a78565b60405180910390fd5b6002600381905550565b6001600381905550565b6004805490508110613173576040517f08c379a000000000000000000000000000000000000000000000000000000000815260040161316a90615ae0565b60405180910390fd5b50565b5f42905090565b5f82821161318d575f90506131af565b5f62278d0090508084846131a19190614b20565b6131ab919061538f565b9150505b92915050565b6131be8261312c565b5f600483815481106131d3576131d2614af3565b5b905f5260205f2090600902019050806008015f9054906101000a900460ff168061320c57508060080160019054906101000a900460ff16155b1561321757506138dc565b5f82905081600201548183600401546132309190614b53565b111561324d578160040154826002015461324a9190614b20565b90505b5f810361325b5750506138dc565b5f61326585613f34565b90505f82826132749190615321565b90505f6064600654836132879190615321565b613291919061538f565b90505f81836132a09190614b53565b90505f5f90505f5f90505f5f90508389600701541061337f578392505f60646005548b600101546132d19190615321565b6132db919061538f565b90505f89826132ea9190615321565b905086816132f89190614b53565b60095f8282546133089190614b53565b925050819055505f8a8361331c9190615321565b896133279190614b20565b90508b6006015481111561333d578b6006015490505b808c6006015f8282546133509190614b20565b92505081905550858c6007015f82825461336a9190614b20565b925050819055505f94505f935050505061353b565b886007015492505f8390505f8a6006015490505f819050828111156133c5575f839050808d6006015f8282546133b59190614b20565b925050819055505f935050613450565b5f8b8d600201548e600101546133db919061538f565b6133e59190615321565b90508c600601548111156133fb578c6006015490505b8381111561342557838d6006015f8282546134169190614b20565b925050819055505f935061344e565b808d6006015f8282546134389190614b20565b92505081905550808461344b9190614b20565b93505b505b5f60646005548e600101546134659190615321565b61346f919061538f565b90505f8c8261347e9190615321565b90505f60646006548f8f6134929190615321565b61349c9190615321565b6134a6919061538f565b826134b19190614b53565b90508086106134f3578060095f8282546134cb9190614b53565b9250508190555080866134de9190614b20565b955085886134ec9190614b53565b975061350f565b8560095f8282546135049190614b53565b925050819055505f95505b5f8f60070181905550888a11613525575f613532565b888a6135319190614b20565b5b96505050505050505b87896004015f82825461354e9190614b53565b9250508190555088600201548960040154111561357357886002015489600401819055505b5f89600501819055506001600c5f8b5f015f9054906101000a900473ffffffffffffffffffffffffffffffffffffffff1673ffffffffffffffffffffffffffffffffffffffff1673ffffffffffffffffffffffffffffffffffffffff1681526020019081526020015f205f8282546135eb9190614b53565b92505081905550885f015f9054906101000a900473ffffffffffffffffffffffffffffffffffffffff1673ffffffffffffffffffffffffffffffffffffffff167f073dc1dabfe81e4b13a65bbc538e7bfc06bafcca30510b59584f1043e4c04851600c5f8c5f015f9054906101000a900473ffffffffffffffffffffffffffffffffffffffff1673ffffffffffffffffffffffffffffffffffffffff1673ffffffffffffffffffffffffffffffffffffffff1681526020019081526020015f20546040516136b991906140ae565b60405180910390a26003600c5f8b5f015f9054906101000a900473ffffffffffffffffffffffffffffffffffffffff1673ffffffffffffffffffffffffffffffffffffffff1673ffffffffffffffffffffffffffffffffffffffff1681526020019081526020015f205410613805576001600b5f8b5f015f9054906101000a900473ffffffffffffffffffffffffffffffffffffffff1673ffffffffffffffffffffffffffffffffffffffff1673ffffffffffffffffffffffffffffffffffffffff1681526020019081526020015f205f6101000a81548160ff021916908315150217905550885f015f9054906101000a900473ffffffffffffffffffffffffffffffffffffffff1673ffffffffffffffffffffffffffffffffffffffff167fffa4e6181777692565cf28528fc88fd1516ea86b56da075235fa575af6a4b85560405160405180910390a25b8860020154896004015410158061381f57505f8960060154145b1561385d575f8960080160016101000a81548160ff0219169083151502179055506001896008015f6101000a81548160ff0219169083151502179055505b885f015f9054906101000a900473ffffffffffffffffffffffffffffffffffffffff1673ffffffffffffffffffffffffffffffffffffffff168b7f4a14ed616ce90b51a0a9222c0e231e9ce03b6885730aff30c76a5ccb7c5b81068584866040516138ca93929190615427565b60405180910390a35050505050505050505b5050565b6138e98161312c565b5f600482815481106138fe576138fd614af3565b5b905f5260205f2090600902019050806008015f9054906101000a900460ff16156139285750613f0c565b5f816004015482600201541161393e575f613953565b816004015482600201546139529190614b20565b5b90505f61395f84613f34565b90505f828261396e9190615321565b90505f6064600654836139819190615321565b61398b919061538f565b90505f818361399a9190614b53565b90505f5f90505f5f90505f5f905083896007015410613a73578392505f60646005548b600101546139cb9190615321565b6139d5919061538f565b90505f89826139e49190615321565b905086816139f29190614b53565b60095f828254613a029190614b53565b925050819055505f8a83613a169190615321565b89613a219190614b20565b90508b60060154811115613a37578b6006015490505b808c6006015f828254613a4a9190614b20565b92505081905550858c6007015f828254613a649190614b20565b92505081905550505050613bcc565b886007015492505f8390505f898b600201548c60010154613a94919061538f565b613a9e9190615321565b90508a60060154811115613ab4578a6006015490505b808210613ae8578082613ac79190614b20565b9150808b6006015f828254613adc9190614b20565b92505081905550613b06565b818b6006015f828254613afb9190614b20565b925050819055505f91505b5f60646005548d60010154613b1b9190615321565b613b25919061538f565b90505f8b82613b349190615321565b90505f8982613b439190614b53565b9050808510613b85578060095f828254613b5d9190614b53565b925050819055508085613b709190614b20565b94508486613b7e9190614b53565b9550613ba1565b8460095f828254613b969190614b53565b925050819055505f94505b5f8e60070181905550878911613bb7575f613bc4565b8789613bc39190614b20565b5b965050505050505b6001896008015f6101000a81548160ff0219169083151502179055505f8960080160016101000a81548160ff0219169083151502179055506001600c5f8b5f015f9054906101000a900473ffffffffffffffffffffffffffffffffffffffff1673ffffffffffffffffffffffffffffffffffffffff1673ffffffffffffffffffffffffffffffffffffffff1681526020019081526020015f205f828254613c739190614b53565b92505081905550885f015f9054906101000a900473ffffffffffffffffffffffffffffffffffffffff1673ffffffffffffffffffffffffffffffffffffffff167f073dc1dabfe81e4b13a65bbc538e7bfc06bafcca30510b59584f1043e4c04851600c5f8c5f015f9054906101000a900473ffffffffffffffffffffffffffffffffffffffff1673ffffffffffffffffffffffffffffffffffffffff1673ffffffffffffffffffffffffffffffffffffffff1681526020019081526020015f2054604051613d4191906140ae565b60405180910390a26003600c5f8b5f015f9054906101000a900473ffffffffffffffffffffffffffffffffffffffff1673ffffffffffffffffffffffffffffffffffffffff1673ffffffffffffffffffffffffffffffffffffffff1681526020019081526020015f205410613e8d576001600b5f8b5f015f9054906101000a900473ffffffffffffffffffffffffffffffffffffffff1673ffffffffffffffffffffffffffffffffffffffff1673ffffffffffffffffffffffffffffffffffffffff1681526020019081526020015f205f6101000a81548160ff021916908315150217905550885f015f9054906101000a900473ffffffffffffffffffffffffffffffffffffffff1673ffffffffffffffffffffffffffffffffffffffff167fffa4e6181777692565cf28528fc88fd1516ea86b56da075235fa575af6a4b85560405160405180910390a25b885f015f9054906101000a900473ffffffffffffffffffffffffffffffffffffffff1673ffffffffffffffffffffffffffffffffffffffff168a7f4a14ed616ce90b51a0a9222c0e231e9ce03b6885730aff30c76a5ccb7c5b8106858585604051613efa93929190615427565b60405180910390a35050505050505050505b50565b5f5f60085403613f225760019050613f31565b600854613f2d613ff5565b1090505b90565b5f613f3e8261312c565b5f60048381548110613f5357613f52614af3565b5b905f5260205f20906009020190505f816002015411613fa7576040517f08c379a0000000000000000000000000000000000000000000000000000000008152600401613f9e90615b48565b60405180910390fd5b5f81600201548260010154613fbc919061538f565b90505f60646005548460010154613fd39190615321565b613fdd919061538f565b90508082613feb9190614b53565b9350505050919050565b5f5f6004805490500361400a575f9050614093565b5f5f90505f5f90505b600480549050811015614071576004818154811061403457614033614af3565b5b905f5260205f2090600902016008015f9054906101000a900460ff16156140645781806140609061513a565b9250505b8080600101915050614013565b506004805490506064826140859190615321565b61408f919061538f565b9150505b90565b5f819050919050565b6140a881614096565b82525050565b5f6020820190506140c15f83018461409f565b92915050565b5f5ffd5b5f5ffd5b6140d881614096565b81146140e2575f5ffd5b50565b5f813590506140f3816140cf565b92915050565b5f6020828403121561410e5761410d6140c7565b5b5f61411b848285016140e5565b91505092915050565b5f73ffffffffffffffffffffffffffffffffffffffff82169050919050565b5f61414d82614124565b9050919050565b61415d81614143565b8114614167575f5ffd5b50565b5f8135905061417881614154565b92915050565b5f5ffd5b5f5ffd5b5f5ffd5b5f5f83601f84011261419f5761419e61417e565b5b8235905067ffffffffffffffff8111156141bc576141bb614182565b5b6020830191508360018202830111156141d8576141d7614186565b5b9250929050565b5f5f5f604084860312156141f6576141f56140c7565b5b5f6142038682870161416a565b935050602084013567ffffffffffffffff811115614224576142236140cb565b5b6142308682870161418a565b92509250509250925092565b5f8115159050919050565b6142508161423c565b82525050565b5f6020820190506142695f830184614247565b92915050565b5f60208284031215614284576142836140c7565b5b5f6142918482850161416a565b91505092915050565b5f6142a482614124565b9050919050565b6142b48161429a565b81146142be575f5ffd5b50565b5f813590506142cf816142ab565b92915050565b5f602082840312156142ea576142e96140c7565b5b5f6142f7848285016142c1565b91505092915050565b61430981614143565b82525050565b5f610140820190506143235f83018d614300565b614330602083018c61409f565b61433d604083018b61409f565b61434a606083018a61409f565b614357608083018961409f565b61436460a083018861409f565b61437160c083018761409f565b61437e60e083018661409f565b61438c610100830185614247565b61439a610120830184614247565b9b9a5050505050505050505050565b5f5f604083850312156143bf576143be6140c7565b5b5f6143cc858286016140e5565b92505060206143dd858286016140e5565b9150509250929050565b5f81905092915050565b7f41646d696e0000000000000000000000000000000000000000000000000000005f82015250565b5f6144256005836143e7565b9150614430826143f1565b600582019050919050565b5f61444582614419565b9150819050919050565b5f82825260208201905092915050565b7f456d706c6f79656541737369676e6d656e743a2063616c6c6572206973206e6f5f8201527f7420616e2061646d696e00000000000000000000000000000000000000000000602082015250565b5f6144b9602a8361444f565b91506144c48261445f565b604082019050919050565b5f6020820190508181035f8301526144e6816144ad565b9050919050565b7f436f6c6c61746572616c20726174696f20746f6f206c6f7700000000000000005f82015250565b5f61452160188361444f565b915061452c826144ed565b602082019050919050565b5f6020820190508181035f83015261454e81614515565b9050919050565b7f436f6c6c61746572616c20726174696f20746f6f20686967683a206d617820335f8201527f3030250000000000000000000000000000000000000000000000000000000000602082015250565b5f6145af60238361444f565b91506145ba82614555565b604082019050919050565b5f6020820190508181035f8301526145dc816145a3565b9050919050565b5f6040820190506145f65f83018561409f565b614603602083018461409f565b9392505050565b828183375f83830152505050565b5f61462383856143e7565b935061463083858461460a565b82840190509392505050565b5f614648828486614618565b91508190509392505050565b7f6e6f2070726f66697473000000000000000000000000000000000000000000005f82015250565b5f614688600a8361444f565b915061469382614654565b602082019050919050565b5f6020820190508181035f8301526146b58161467c565b9050919050565b5f81905092915050565b50565b5f6146d45f836146bc565b91506146df826146c6565b5f82019050919050565b5f6146f3826146c9565b9150819050919050565b7f7472616e73666572206661696c656400000000000000000000000000000000005f82015250565b5f614731600f8361444f565b915061473c826146fd565b602082019050919050565b5f6020820190508181035f83015261475e81614725565b9050919050565b7f456d706c6f79656541737369676e6d656e743a2063616c6c6572206973206e6f5f8201527f7420746865206f776e6572000000000000000000000000000000000000000000602082015250565b5f6147bf602b8361444f565b91506147ca82614765565b604082019050919050565b5f6020820190508181035f8301526147ec816147b3565b9050919050565b5f6147fe83856146bc565b935061480b83858461460a565b82840190509392505050565b5f6148238284866147f3565b91508190509392505050565b7f456d706c6f79656541737369676e6d656e743a20696e76616c696420726f6c655f82015250565b5f61486360208361444f565b915061486e8261482f565b602082019050919050565b5f6020820190508181035f83015261489081614857565b9050919050565b7f456d706c6f79656541737369676e6d656e743a20656d706c6f79656520646f655f8201527f73206e6f742068617665207468697320726f6c65000000000000000000000000602082015250565b5f6148f160348361444f565b91506148fc82614897565b604082019050919050565b5f6020820190508181035f83015261491e816148e5565b9050919050565b7f4e487b71000000000000000000000000000000000000000000000000000000005f52601160045260245ffd5b5f61495c82614096565b91505f820361496e5761496d614925565b5b600182039050919050565b5f601f19601f8301169050919050565b5f614994838561444f565b93506149a183858461460a565b6149aa83614979565b840190509392505050565b5f6020820190508181035f8301526149ce818486614989565b90509392505050565b7f456d706c6f79656541737369676e6d656e743a2063616c6c657220697320616e5f8201527f2061646d696e0000000000000000000000000000000000000000000000000000602082015250565b5f614a3160268361444f565b9150614a3c826149d7565b604082019050919050565b5f6020820190508181035f830152614a5e81614a25565b9050919050565b7f456d706c6f79656541737369676e6d656e743a2063616c6c65722069732074685f8201527f65206f776e657200000000000000000000000000000000000000000000000000602082015250565b5f614abf60278361444f565b9150614aca82614a65565b604082019050919050565b5f6020820190508181035f830152614aec81614ab3565b9050919050565b7f4e487b71000000000000000000000000000000000000000000000000000000005f52603260045260245ffd5b5f614b2a82614096565b9150614b3583614096565b9250828203905081811115614b4d57614b4c614925565b5b92915050565b5f614b5d82614096565b9150614b6883614096565b9250828201905080821115614b8057614b7f614925565b5b92915050565b7f63616e6e6f742072656a656374206163746976652f6c697175696461746564005f82015250565b5f614bba601f8361444f565b9150614bc582614b86565b602082019050919050565b5f6020820190508181035f830152614be781614bae565b9050919050565b7f726566756e64206661696c6564000000000000000000000000000000000000005f82015250565b5f614c22600d8361444f565b9150614c2d82614bee565b602082019050919050565b5f6020820190508181035f830152614c4f81614c16565b9050919050565b5f819050919050565b5f819050919050565b5f614c82614c7d614c7884614c56565b614c5f565b614096565b9050919050565b614c9281614c68565b82525050565b5f606082019050614cab5f83018661409f565b614cb86020830185614c89565b614cc56040830184614c89565b949350505050565b7f50656e616c747920746f6f20686967683a206d617820353025000000000000005f82015250565b5f614d0160198361444f565b9150614d0c82614ccd565b602082019050919050565b5f6020820190508181035f830152614d2e81614cf5565b9050919050565b7f50656e616c747920746f6f206c6f7700000000000000000000000000000000005f82015250565b5f614d69600f8361444f565b9150614d7482614d35565b602082019050919050565b5f6020820190508181035f830152614d9681614d5d565b9050919050565b7f41646472657373206973206e6f7420626c61636b6c69737465640000000000005f82015250565b5f614dd1601a8361444f565b9150614ddc82614d9d565b602082019050919050565b5f6020820190508181035f830152614dfe81614dc5565b9050919050565b7f43616e6e6f7420736574207a65726f20616464726573730000000000000000005f82015250565b5f614e3960178361444f565b9150614e4482614e05565b602082019050919050565b5f6020820190508181035f830152614e6681614e2d565b9050919050565b7f43616e6e6f742073657420636f6e747261637420697473656c660000000000005f82015250565b5f614ea1601a8361444f565b9150614eac82614e6d565b602082019050919050565b5f6020820190508181035f830152614ece81614e95565b9050919050565b5f614eef614eea614ee584614124565b614c5f565b614124565b9050919050565b5f614f0082614ed5565b9050919050565b5f614f1182614ef6565b9050919050565b614f2181614f07565b82525050565b5f604082019050614f3a5f830185614300565b614f476020830184614f18565b9392505050565b7f496e74657265737420746f6f20686967683a206d6178203230250000000000005f82015250565b5f614f82601a8361444f565b9150614f8d82614f4e565b602082019050919050565b5f6020820190508181035f830152614faf81614f76565b9050919050565b7f496e7465726573742063616e6e6f74206265207a65726f0000000000000000005f82015250565b5f614fea60178361444f565b9150614ff582614fb6565b602082019050919050565b5f6020820190508181035f83015261501781614fde565b9050919050565b7f456d706c6f79656541737369676e6d656e743a20656d706c6f7965652063616e5f8201527f6e6f74206265207a65726f206164647265737300000000000000000000000000602082015250565b5f61507860338361444f565b91506150838261501e565b604082019050919050565b5f6020820190508181035f8301526150a58161506c565b9050919050565b7f456d706c6f79656541737369676e6d656e743a20656d706c6f79656520616c725f8201527f6561647920686173207468697320726f6c650000000000000000000000000000602082015250565b5f61510660328361444f565b9150615111826150ac565b604082019050919050565b5f6020820190508181035f830152615133816150fa565b9050919050565b5f61514482614096565b91507fffffffffffffffffffffffffffffffffffffffffffffffffffffffffffffffff820361517657615175614925565b5b600182019050919050565b7f626c61636b6c69737465640000000000000000000000000000000000000000005f82015250565b5f6151b5600b8361444f565b91506151c082615181565b602082019050919050565b5f6020820190508181035f8301526151e2816151a9565b9050919050565b7f696e76616c6964207072696e636970616c0000000000000000000000000000005f82015250565b5f61521d60118361444f565b9150615228826151e9565b602082019050919050565b5f6020820190508181035f83015261524a81615211565b9050919050565b7f6475726174696f6e206d757374206265203e3d2031206d6f6e746800000000005f82015250565b5f615285601b8361444f565b915061529082615251565b602082019050919050565b5f6020820190508181035f8301526152b281615279565b9050919050565b7f6e6577206c6f616e7320626c6f636b65640000000000000000000000000000005f82015250565b5f6152ed60118361444f565b91506152f8826152b9565b602082019050919050565b5f6020820190508181035f83015261531a816152e1565b9050919050565b5f61532b82614096565b915061533683614096565b925082820261534481614096565b9150828204841483151761535b5761535a614925565b5b5092915050565b7f4e487b71000000000000000000000000000000000000000000000000000000005f52601260045260245ffd5b5f61539982614096565b91506153a483614096565b9250826153b4576153b3615362565b5b828204905092915050565b7f696e73756666696369656e7420636f6c6c61746572616c0000000000000000005f82015250565b5f6153f360178361444f565b91506153fe826153bf565b602082019050919050565b5f6020820190508181035f830152615420816153e7565b9050919050565b5f60608201905061543a5f83018661409f565b615447602083018561409f565b615454604083018461409f565b949350505050565b7f616c7265616479206c69717569646174656400000000000000000000000000005f82015250565b5f61549060128361444f565b915061549b8261545c565b602082019050919050565b5f6020820190508181035f8301526154bd81615484565b9050919050565b7f616c7265616479206163746976650000000000000000000000000000000000005f82015250565b5f6154f8600e8361444f565b9150615503826154c4565b602082019050919050565b5f6020820190508181035f830152615525816154ec565b9050919050565b7f636f6e7472616374206c61636b73206c697175696469747900000000000000005f82015250565b5f61556060188361444f565b915061556b8261552c565b602082019050919050565b5f6020820190508181035f83015261558d81615554565b9050919050565b7f6469736275727365206661696c656400000000000000000000000000000000005f82015250565b5f6155c8600f8361444f565b91506155d382615594565b602082019050919050565b5f6020820190508181035f8301526155f5816155bc565b9050919050565b7f4e504c206c696d697420746f6f20686967683a206d61782035302500000000005f82015250565b5f615630601b8361444f565b915061563b826155fc565b602082019050919050565b5f6020820190508181035f83015261565d81615624565b9050919050565b7f6c6f616e206e6f7420616374697665206f72206c6971756964617465640000005f82015250565b5f615698601d8361444f565b91506156a382615664565b602082019050919050565b5f6020820190508181035f8301526156c58161568c565b9050919050565b7f6f6e6c7920626f72726f776572000000000000000000000000000000000000005f82015250565b5f615700600d8361444f565b915061570b826156cc565b602082019050919050565b5f6020820190508181035f83015261572d816156f4565b9050919050565b7f6d75737420706179206174206c65617374206f6e65206d6f6e746800000000005f82015250565b5f615768601b8361444f565b915061577382615734565b602082019050919050565b5f6020820190508181035f8301526157958161575c565b9050919050565b7f657863656564732072656d61696e696e67206d6f6e74687300000000000000005f82015250565b5f6157d060188361444f565b91506157db8261579c565b602082019050919050565b5f6020820190508181035f8301526157fd816157c4565b9050919050565b7f6c6f616e20616c72656164792066756c6c7920706169640000000000000000005f82015250565b5f61583860178361444f565b915061584382615804565b602082019050919050565b5f6020820190508181035f8301526158658161582c565b9050919050565b7f6d73672e76616c7565206d69736d6174636820746f74616c207061796d656e745f8201527f206e656564656400000000000000000000000000000000000000000000000000602082015250565b5f6158c660278361444f565b91506158d18261586c565b604082019050919050565b5f6020820190508181035f8301526158f3816158ba565b9050919050565b5f6159055f8361444f565b9150615910826146c6565b5f82019050919050565b5f6020820190508181035f830152615931816158fa565b9050919050565b7f436f6c61746572616c206661696c656420746f2073656e6420210000000000005f82015250565b5f61596c601a8361444f565b915061597782615938565b602082019050919050565b5f6020820190508181035f83015261599981615960565b9050919050565b7f456d706c6f79656541737369676e6d656e743a207a65726f20616464726573735f8201527f206e6f7420616c6c6f7765640000000000000000000000000000000000000000602082015250565b5f6159fa602c8361444f565b9150615a05826159a0565b604082019050919050565b5f6020820190508181035f830152615a27816159ee565b9050919050565b7f5265656e7472616e637947756172643a207265656e7472616e742063616c6c005f82015250565b5f615a62601f8361444f565b9150615a6d82615a2e565b602082019050919050565b5f6020820190508181035f830152615a8f81615a56565b9050919050565b7f696e76616c6964204964000000000000000000000000000000000000000000005f82015250565b5f615aca600a8361444f565b9150615ad582615a96565b602082019050919050565b5f6020820190508181035f830152615af781615abe565b9050919050565b7f696e76616c6964206c6f616e00000000000000000000000000000000000000005f82015250565b5f615b32600c8361444f565b9150615b3d82615afe565b602082019050919050565b5f6020820190508181035f830152615b5f81615b26565b905091905056fea26469706673582212203de7a251afddaa43d237aa60b4a3f0fa4095be89a55b916b84c41199a2fbec0064736f6c634300081e0033",
			"opcodes": "PUSH1 0x80 PUSH1 0x40 MSTORE CALLVALUE DUP1 ISZERO PUSH2 0xF JUMPI PUSH0 PUSH0 REVERT JUMPDEST POP PUSH1 0x40 MLOAD PUSH2 0x5E39 CODESIZE SUB DUP1 PUSH2 0x5E39 DUP4 CODECOPY DUP2 DUP2 ADD PUSH1 0x40 MSTORE DUP2 ADD SWAP1 PUSH2 0x31 SWAP2 SWAP1 PUSH2 0x1ED JUMP JUMPDEST CALLER PUSH0 PUSH0 PUSH2 0x100 EXP DUP2 SLOAD DUP2 PUSH20 0xFFFFFFFFFFFFFFFFFFFFFFFFFFFFFFFFFFFFFFFF MUL NOT AND SWAP1 DUP4 PUSH20 0xFFFFFFFFFFFFFFFFFFFFFFFFFFFFFFFFFFFFFFFF AND MUL OR SWAP1 SSTORE POP PUSH1 0x1 PUSH1 0x3 DUP2 SWAP1 SSTORE POP PUSH0 PUSH20 0xFFFFFFFFFFFFFFFFFFFFFFFFFFFFFFFFFFFFFFFF AND DUP2 PUSH20 0xFFFFFFFFFFFFFFFFFFFFFFFFFFFFFFFFFFFFFFFF AND SUB PUSH2 0xE6 JUMPI PUSH1 0x40 MLOAD PUSH32 0x8C379A000000000000000000000000000000000000000000000000000000000 DUP2 MSTORE PUSH1 0x4 ADD PUSH2 0xDD SWAP1 PUSH2 0x272 JUMP JUMPDEST PUSH1 0x40 MLOAD DUP1 SWAP2 SUB SWAP1 REVERT JUMPDEST DUP1 PUSH1 0xA PUSH0 PUSH2 0x100 EXP DUP2 SLOAD DUP2 PUSH20 0xFFFFFFFFFFFFFFFFFFFFFFFFFFFFFFFFFFFFFFFF MUL NOT AND SWAP1 DUP4 PUSH20 0xFFFFFFFFFFFFFFFFFFFFFFFFFFFFFFFFFFFFFFFF AND MUL OR SWAP1 SSTORE POP PUSH1 0x2 PUSH1 0x5 DUP2 SWAP1 SSTORE POP PUSH1 0x1 PUSH1 0x6 DUP2 SWAP1 SSTORE POP PUSH1 0x32 PUSH1 0x7 DUP2 SWAP1 SSTORE POP PUSH1 0x14 PUSH1 0x8 DUP2 SWAP1 SSTORE POP DUP1 PUSH20 0xFFFFFFFFFFFFFFFFFFFFFFFFFFFFFFFFFFFFFFFF AND PUSH32 0x6A92B2B1DAC24378528816100CBBCD6428939C33C47425A39E3C9C506557AE35 PUSH1 0x40 MLOAD PUSH1 0x40 MLOAD DUP1 SWAP2 SUB SWAP1 LOG2 POP PUSH2 0x290 JUMP JUMPDEST PUSH0 PUSH0 REVERT JUMPDEST PUSH0 PUSH20 0xFFFFFFFFFFFFFFFFFFFFFFFFFFFFFFFFFFFFFFFF DUP3 AND SWAP1 POP SWAP2 SWAP1 POP JUMP JUMPDEST PUSH0 PUSH2 0x1BC DUP3 PUSH2 0x193 JUMP JUMPDEST SWAP1 POP SWAP2 SWAP1 POP JUMP JUMPDEST PUSH2 0x1CC DUP2 PUSH2 0x1B2 JUMP JUMPDEST DUP2 EQ PUSH2 0x1D6 JUMPI PUSH0 PUSH0 REVERT JUMPDEST POP JUMP JUMPDEST PUSH0 DUP2 MLOAD SWAP1 POP PUSH2 0x1E7 DUP2 PUSH2 0x1C3 JUMP JUMPDEST SWAP3 SWAP2 POP POP JUMP JUMPDEST PUSH0 PUSH1 0x20 DUP3 DUP5 SUB SLT ISZERO PUSH2 0x202 JUMPI PUSH2 0x201 PUSH2 0x18F JUMP JUMPDEST JUMPDEST PUSH0 PUSH2 0x20F DUP5 DUP3 DUP6 ADD PUSH2 0x1D9 JUMP JUMPDEST SWAP2 POP POP SWAP3 SWAP2 POP POP JUMP JUMPDEST PUSH0 DUP3 DUP3 MSTORE PUSH1 0x20 DUP3 ADD SWAP1 POP SWAP3 SWAP2 POP POP JUMP JUMPDEST PUSH32 0x4572723A207A65726F2061646472210000000000000000000000000000000000 PUSH0 DUP3 ADD MSTORE POP JUMP JUMPDEST PUSH0 PUSH2 0x25C PUSH1 0xF DUP4 PUSH2 0x218 JUMP JUMPDEST SWAP2 POP PUSH2 0x267 DUP3 PUSH2 0x228 JUMP JUMPDEST PUSH1 0x20 DUP3 ADD SWAP1 POP SWAP2 SWAP1 POP JUMP JUMPDEST PUSH0 PUSH1 0x20 DUP3 ADD SWAP1 POP DUP2 DUP2 SUB PUSH0 DUP4 ADD MSTORE PUSH2 0x289 DUP2 PUSH2 0x250 JUMP JUMPDEST SWAP1 POP SWAP2 SWAP1 POP JUMP JUMPDEST PUSH2 0x5B9C DUP1 PUSH2 0x29D PUSH0 CODECOPY PUSH0 RETURN INVALID PUSH1 0x80 PUSH1 0x40 MSTORE PUSH1 0x4 CALLDATASIZE LT PUSH2 0x184 JUMPI PUSH0 CALLDATALOAD PUSH1 0xE0 SHR DUP1 PUSH4 0x9047BF58 GT PUSH2 0xD0 JUMPI DUP1 PUSH4 0xD071B980 GT PUSH2 0x89 JUMPI DUP1 PUSH4 0xE1EC3C68 GT PUSH2 0x63 JUMPI DUP1 PUSH4 0xE1EC3C68 EQ PUSH2 0x532 JUMPI DUP1 PUSH4 0xE7774868 EQ PUSH2 0x577 JUMPI DUP1 PUSH4 0xF013E4B5 EQ PUSH2 0x593 JUMPI DUP1 PUSH4 0xF9F92BE4 EQ PUSH2 0x5BD JUMPI PUSH2 0x18B JUMP JUMPDEST DUP1 PUSH4 0xD071B980 EQ PUSH2 0x4B6 JUMPI DUP1 PUSH4 0xD682DAB5 EQ PUSH2 0x4DE JUMPI DUP1 PUSH4 0xDE2CF972 EQ PUSH2 0x508 JUMPI PUSH2 0x18B JUMP JUMPDEST DUP1 PUSH4 0x9047BF58 EQ PUSH2 0x3CE JUMPI DUP1 PUSH4 0x98B7049E EQ PUSH2 0x3F8 JUMPI DUP1 PUSH4 0xA5623FFC EQ PUSH2 0x420 JUMPI DUP1 PUSH4 0xAA452FA6 EQ PUSH2 0x448 JUMPI DUP1 PUSH4 0xAADC1AC1 EQ PUSH2 0x464 JUMPI DUP1 PUSH4 0xBD998CB3 EQ PUSH2 0x48C JUMPI PUSH2 0x18B JUMP JUMPDEST DUP1 PUSH4 0x5B4D76F1 GT PUSH2 0x13D JUMPI DUP1 PUSH4 0x75E3661E GT PUSH2 0x117 JUMPI DUP1 PUSH4 0x75E3661E EQ PUSH2 0x2FD JUMPI DUP1 PUSH4 0x7794E3FD EQ PUSH2 0x325 JUMPI DUP1 PUSH4 0x7BE9878B EQ PUSH2 0x361 JUMPI DUP1 PUSH4 0x8349D6BE EQ PUSH2 0x389 JUMPI PUSH2 0x18B JUMP JUMPDEST DUP1 PUSH4 0x5B4D76F1 EQ PUSH2 0x285 JUMPI DUP1 PUSH4 0x5D29CB98 EQ PUSH2 0x2AD JUMPI DUP1 PUSH4 0x71C263B2 EQ PUSH2 0x2D5 JUMPI PUSH2 0x18B JUMP JUMPDEST DUP1 PUSH4 0x161BA46A EQ PUSH2 0x18F JUMPI DUP1 PUSH4 0x20A87D80 EQ PUSH2 0x1B9 JUMPI DUP1 PUSH4 0x217FE6C6 EQ PUSH2 0x1E1 JUMPI DUP1 PUSH4 0x23E77DB3 EQ PUSH2 0x21D JUMPI DUP1 PUSH4 0x4492B5C9 EQ PUSH2 0x233 JUMPI DUP1 PUSH4 0x559B9B4C EQ PUSH2 0x25D JUMPI PUSH2 0x18B JUMP JUMPDEST CALLDATASIZE PUSH2 0x18B JUMPI STOP JUMPDEST PUSH0 PUSH0 REVERT JUMPDEST CALLVALUE DUP1 ISZERO PUSH2 0x19A JUMPI PUSH0 PUSH0 REVERT JUMPDEST POP PUSH2 0x1A3 PUSH2 0x5F9 JUMP JUMPDEST PUSH1 0x40 MLOAD PUSH2 0x1B0 SWAP2 SWAP1 PUSH2 0x40AE JUMP JUMPDEST PUSH1 0x40 MLOAD DUP1 SWAP2 SUB SWAP1 RETURN JUMPDEST CALLVALUE DUP1 ISZERO PUSH2 0x1C4 JUMPI PUSH0 PUSH0 REVERT JUMPDEST POP PUSH2 0x1DF PUSH1 0x4 DUP1 CALLDATASIZE SUB DUP2 ADD SWAP1 PUSH2 0x1DA SWAP2 SWAP1 PUSH2 0x40F9 JUMP JUMPDEST PUSH2 0x5FF JUMP JUMPDEST STOP JUMPDEST CALLVALUE DUP1 ISZERO PUSH2 0x1EC JUMPI PUSH0 PUSH0 REVERT JUMPDEST POP PUSH2 0x207 PUSH1 0x4 DUP1 CALLDATASIZE SUB DUP2 ADD SWAP1 PUSH2 0x202 SWAP2 SWAP1 PUSH2 0x41DF JUMP JUMPDEST PUSH2 0x77C JUMP JUMPDEST PUSH1 0x40 MLOAD PUSH2 0x214 SWAP2 SWAP1 PUSH2 0x4256 JUMP JUMPDEST PUSH1 0x40 MLOAD DUP1 SWAP2 SUB SWAP1 RETURN JUMPDEST CALLVALUE DUP1 ISZERO PUSH2 0x228 JUMPI PUSH0 PUSH0 REVERT JUMPDEST POP PUSH2 0x231 PUSH2 0x7EE JUMP JUMPDEST STOP JUMPDEST CALLVALUE DUP1 ISZERO PUSH2 0x23E JUMPI PUSH0 PUSH0 REVERT JUMPDEST POP PUSH2 0x247 PUSH2 0xA35 JUMP JUMPDEST PUSH1 0x40 MLOAD PUSH2 0x254 SWAP2 SWAP1 PUSH2 0x40AE JUMP JUMPDEST PUSH1 0x40 MLOAD DUP1 SWAP2 SUB SWAP1 RETURN JUMPDEST CALLVALUE DUP1 ISZERO PUSH2 0x268 JUMPI PUSH0 PUSH0 REVERT JUMPDEST POP PUSH2 0x283 PUSH1 0x4 DUP1 CALLDATASIZE SUB DUP2 ADD SWAP1 PUSH2 0x27E SWAP2 SWAP1 PUSH2 0x41DF JUMP JUMPDEST PUSH2 0xAED JUMP JUMPDEST STOP JUMPDEST CALLVALUE DUP1 ISZERO PUSH2 0x290 JUMPI PUSH0 PUSH0 REVERT JUMPDEST POP PUSH2 0x2AB PUSH1 0x4 DUP1 CALLDATASIZE SUB DUP2 ADD SWAP1 PUSH2 0x2A6 SWAP2 SWAP1 PUSH2 0x40F9 JUMP JUMPDEST PUSH2 0xD95 JUMP JUMPDEST STOP JUMPDEST CALLVALUE DUP1 ISZERO PUSH2 0x2B8 JUMPI PUSH0 PUSH0 REVERT JUMPDEST POP PUSH2 0x2D3 PUSH1 0x4 DUP1 CALLDATASIZE SUB DUP2 ADD SWAP1 PUSH2 0x2CE SWAP2 SWAP1 PUSH2 0x40F9 JUMP JUMPDEST PUSH2 0x103C JUMP JUMPDEST STOP JUMPDEST CALLVALUE DUP1 ISZERO PUSH2 0x2E0 JUMPI PUSH0 PUSH0 REVERT JUMPDEST POP PUSH2 0x2FB PUSH1 0x4 DUP1 CALLDATASIZE SUB DUP2 ADD SWAP1 PUSH2 0x2F6 SWAP2 SWAP1 PUSH2 0x40F9 JUMP JUMPDEST PUSH2 0x1302 JUMP JUMPDEST STOP JUMPDEST CALLVALUE DUP1 ISZERO PUSH2 0x308 JUMPI PUSH0 PUSH0 REVERT JUMPDEST POP PUSH2 0x323 PUSH1 0x4 DUP1 CALLDATASIZE SUB DUP2 ADD SWAP1 PUSH2 0x31E SWAP2 SWAP1 PUSH2 0x426F JUMP JUMPDEST PUSH2 0x147F JUMP JUMPDEST STOP JUMPDEST CALLVALUE DUP1 ISZERO PUSH2 0x330 JUMPI PUSH0 PUSH0 REVERT JUMPDEST POP PUSH2 0x34B PUSH1 0x4 DUP1 CALLDATASIZE SUB DUP2 ADD SWAP1 PUSH2 0x346 SWAP2 SWAP1 PUSH2 0x426F JUMP JUMPDEST PUSH2 0x1657 JUMP JUMPDEST PUSH1 0x40 MLOAD PUSH2 0x358 SWAP2 SWAP1 PUSH2 0x40AE JUMP JUMPDEST PUSH1 0x40 MLOAD DUP1 SWAP2 SUB SWAP1 RETURN JUMPDEST CALLVALUE DUP1 ISZERO PUSH2 0x36C JUMPI PUSH0 PUSH0 REVERT JUMPDEST POP PUSH2 0x387 PUSH1 0x4 DUP1 CALLDATASIZE SUB DUP2 ADD SWAP1 PUSH2 0x382 SWAP2 SWAP1 PUSH2 0x42D5 JUMP JUMPDEST PUSH2 0x166C JUMP JUMPDEST STOP JUMPDEST CALLVALUE DUP1 ISZERO PUSH2 0x394 JUMPI PUSH0 PUSH0 REVERT JUMPDEST POP PUSH2 0x3AF PUSH1 0x4 DUP1 CALLDATASIZE SUB DUP2 ADD SWAP1 PUSH2 0x3AA SWAP2 SWAP1 PUSH2 0x40F9 JUMP JUMPDEST PUSH2 0x1896 JUMP JUMPDEST PUSH1 0x40 MLOAD PUSH2 0x3C5 SWAP11 SWAP10 SWAP9 SWAP8 SWAP7 SWAP6 SWAP5 SWAP4 SWAP3 SWAP2 SWAP1 PUSH2 0x430F JUMP JUMPDEST PUSH1 0x40 MLOAD DUP1 SWAP2 SUB SWAP1 RETURN JUMPDEST CALLVALUE DUP1 ISZERO PUSH2 0x3D9 JUMPI PUSH0 PUSH0 REVERT JUMPDEST POP PUSH2 0x3E2 PUSH2 0x19FA JUMP JUMPDEST PUSH1 0x40 MLOAD PUSH2 0x3EF SWAP2 SWAP1 PUSH2 0x40AE JUMP JUMPDEST PUSH1 0x40 MLOAD DUP1 SWAP2 SUB SWAP1 RETURN JUMPDEST CALLVALUE DUP1 ISZERO PUSH2 0x403 JUMPI PUSH0 PUSH0 REVERT JUMPDEST POP PUSH2 0x41E PUSH1 0x4 DUP1 CALLDATASIZE SUB DUP2 ADD SWAP1 PUSH2 0x419 SWAP2 SWAP1 PUSH2 0x40F9 JUMP JUMPDEST PUSH2 0x1A00 JUMP JUMPDEST STOP JUMPDEST CALLVALUE DUP1 ISZERO PUSH2 0x42B JUMPI PUSH0 PUSH0 REVERT JUMPDEST POP PUSH2 0x446 PUSH1 0x4 DUP1 CALLDATASIZE SUB DUP2 ADD SWAP1 PUSH2 0x441 SWAP2 SWAP1 PUSH2 0x41DF JUMP JUMPDEST PUSH2 0x1B7D JUMP JUMPDEST STOP JUMPDEST PUSH2 0x462 PUSH1 0x4 DUP1 CALLDATASIZE SUB DUP2 ADD SWAP1 PUSH2 0x45D SWAP2 SWAP1 PUSH2 0x43A9 JUMP JUMPDEST PUSH2 0x1E95 JUMP JUMPDEST STOP JUMPDEST CALLVALUE DUP1 ISZERO PUSH2 0x46F JUMPI PUSH0 PUSH0 REVERT JUMPDEST POP PUSH2 0x48A PUSH1 0x4 DUP1 CALLDATASIZE SUB DUP2 ADD SWAP1 PUSH2 0x485 SWAP2 SWAP1 PUSH2 0x40F9 JUMP JUMPDEST PUSH2 0x2367 JUMP JUMPDEST STOP JUMPDEST CALLVALUE DUP1 ISZERO PUSH2 0x497 JUMPI PUSH0 PUSH0 REVERT JUMPDEST POP PUSH2 0x4A0 PUSH2 0x2723 JUMP JUMPDEST PUSH1 0x40 MLOAD PUSH2 0x4AD SWAP2 SWAP1 PUSH2 0x40AE JUMP JUMPDEST PUSH1 0x40 MLOAD DUP1 SWAP2 SUB SWAP1 RETURN JUMPDEST CALLVALUE DUP1 ISZERO PUSH2 0x4C1 JUMPI PUSH0 PUSH0 REVERT JUMPDEST POP PUSH2 0x4DC PUSH1 0x4 DUP1 CALLDATASIZE SUB DUP2 ADD SWAP1 PUSH2 0x4D7 SWAP2 SWAP1 PUSH2 0x40F9 JUMP JUMPDEST PUSH2 0x2729 JUMP JUMPDEST STOP JUMPDEST CALLVALUE DUP1 ISZERO PUSH2 0x4E9 JUMPI PUSH0 PUSH0 REVERT JUMPDEST POP PUSH2 0x4F2 PUSH2 0x2864 JUMP JUMPDEST PUSH1 0x40 MLOAD PUSH2 0x4FF SWAP2 SWAP1 PUSH2 0x40AE JUMP JUMPDEST PUSH1 0x40 MLOAD DUP1 SWAP2 SUB SWAP1 RETURN JUMPDEST CALLVALUE DUP1 ISZERO PUSH2 0x513 JUMPI PUSH0 PUSH0 REVERT JUMPDEST POP PUSH2 0x51C PUSH2 0x286A JUMP JUMPDEST PUSH1 0x40 MLOAD PUSH2 0x529 SWAP2 SWAP1 PUSH2 0x40AE JUMP JUMPDEST PUSH1 0x40 MLOAD DUP1 SWAP2 SUB SWAP1 RETURN JUMPDEST CALLVALUE DUP1 ISZERO PUSH2 0x53D JUMPI PUSH0 PUSH0 REVERT JUMPDEST POP PUSH2 0x558 PUSH1 0x4 DUP1 CALLDATASIZE SUB DUP2 ADD SWAP1 PUSH2 0x553 SWAP2 SWAP1 PUSH2 0x40F9 JUMP JUMPDEST PUSH2 0x2870 JUMP JUMPDEST PUSH1 0x40 MLOAD PUSH2 0x56E SWAP11 SWAP10 SWAP9 SWAP8 SWAP7 SWAP6 SWAP5 SWAP4 SWAP3 SWAP2 SWAP1 PUSH2 0x430F JUMP JUMPDEST PUSH1 0x40 MLOAD DUP1 SWAP2 SUB SWAP1 RETURN JUMPDEST PUSH2 0x591 PUSH1 0x4 DUP1 CALLDATASIZE SUB DUP2 ADD SWAP1 PUSH2 0x58C SWAP2 SWAP1 PUSH2 0x43A9 JUMP JUMPDEST PUSH2 0x2907 JUMP JUMPDEST STOP JUMPDEST CALLVALUE DUP1 ISZERO PUSH2 0x59E JUMPI PUSH0 PUSH0 REVERT JUMPDEST POP PUSH2 0x5A7 PUSH2 0x303F JUMP JUMPDEST PUSH1 0x40 MLOAD PUSH2 0x5B4 SWAP2 SWAP1 PUSH2 0x40AE JUMP JUMPDEST PUSH1 0x40 MLOAD DUP1 SWAP2 SUB SWAP1 RETURN JUMPDEST CALLVALUE DUP1 ISZERO PUSH2 0x5C8 JUMPI PUSH0 PUSH0 REVERT JUMPDEST POP PUSH2 0x5E3 PUSH1 0x4 DUP1 CALLDATASIZE SUB DUP2 ADD SWAP1 PUSH2 0x5DE SWAP2 SWAP1 PUSH2 0x426F JUMP JUMPDEST PUSH2 0x3045 JUMP JUMPDEST PUSH1 0x40 MLOAD PUSH2 0x5F0 SWAP2 SWAP1 PUSH2 0x4256 JUMP JUMPDEST PUSH1 0x40 MLOAD DUP1 SWAP2 SUB SWAP1 RETURN JUMPDEST PUSH1 0x6 SLOAD DUP2 JUMP JUMPDEST PUSH1 0x2 PUSH0 CALLER PUSH20 0xFFFFFFFFFFFFFFFFFFFFFFFFFFFFFFFFFFFFFFFF AND PUSH20 0xFFFFFFFFFFFFFFFFFFFFFFFFFFFFFFFFFFFFFFFF AND DUP2 MSTORE PUSH1 0x20 ADD SWAP1 DUP2 MSTORE PUSH1 0x20 ADD PUSH0 KECCAK256 PUSH1 0x40 MLOAD PUSH2 0x648 SWAP1 PUSH2 0x443B JUMP JUMPDEST SWAP1 DUP2 MSTORE PUSH1 0x20 ADD PUSH1 0x40 MLOAD DUP1 SWAP2 SUB SWAP1 KECCAK256 PUSH0 SWAP1 SLOAD SWAP1 PUSH2 0x100 EXP SWAP1 DIV PUSH1 0xFF AND PUSH2 0x6A2 JUMPI PUSH1 0x40 MLOAD PUSH32 0x8C379A000000000000000000000000000000000000000000000000000000000 DUP2 MSTORE PUSH1 0x4 ADD PUSH2 0x699 SWAP1 PUSH2 0x44CF JUMP JUMPDEST PUSH1 0x40 MLOAD DUP1 SWAP2 SUB SWAP1 REVERT JUMPDEST PUSH2 0x6AB CALLER PUSH2 0x3062 JUMP JUMPDEST PUSH0 DUP2 GT PUSH2 0x6ED JUMPI PUSH1 0x40 MLOAD PUSH32 0x8C379A000000000000000000000000000000000000000000000000000000000 DUP2 MSTORE PUSH1 0x4 ADD PUSH2 0x6E4 SWAP1 PUSH2 0x4537 JUMP JUMPDEST PUSH1 0x40 MLOAD DUP1 SWAP2 SUB SWAP1 REVERT JUMPDEST PUSH2 0xBB8 DUP2 GT ISZERO PUSH2 0x732 JUMPI PUSH1 0x40 MLOAD PUSH32 0x8C379A000000000000000000000000000000000000000000000000000000000 DUP2 MSTORE PUSH1 0x4 ADD PUSH2 0x729 SWAP1 PUSH2 0x45C5 JUMP JUMPDEST PUSH1 0x40 MLOAD DUP1 SWAP2 SUB SWAP1 REVERT JUMPDEST PUSH0 PUSH1 0x7 SLOAD SWAP1 POP DUP2 PUSH1 0x7 DUP2 SWAP1 SSTORE POP PUSH32 0xEB19DE72C23BC706D6E8D5F52ADC31581E6C81CEF627DF8FE75398E901B9BFBD DUP2 DUP4 PUSH1 0x40 MLOAD PUSH2 0x770 SWAP3 SWAP2 SWAP1 PUSH2 0x45E3 JUMP JUMPDEST PUSH1 0x40 MLOAD DUP1 SWAP2 SUB SWAP1 LOG1 POP POP JUMP JUMPDEST PUSH0 PUSH1 0x2 PUSH0 DUP6 PUSH20 0xFFFFFFFFFFFFFFFFFFFFFFFFFFFFFFFFFFFFFFFF AND PUSH20 0xFFFFFFFFFFFFFFFFFFFFFFFFFFFFFFFFFFFFFFFF AND DUP2 MSTORE PUSH1 0x20 ADD SWAP1 DUP2 MSTORE PUSH1 0x20 ADD PUSH0 KECCAK256 DUP4 DUP4 PUSH1 0x40 MLOAD PUSH2 0x7CA SWAP3 SWAP2 SWAP1 PUSH2 0x463C JUMP JUMPDEST SWAP1 DUP2 MSTORE PUSH1 0x20 ADD PUSH1 0x40 MLOAD DUP1 SWAP2 SUB SWAP1 KECCAK256 PUSH0 SWAP1 SLOAD SWAP1 PUSH2 0x100 EXP SWAP1 DIV PUSH1 0xFF AND SWAP1 POP SWAP4 SWAP3 POP POP POP JUMP JUMPDEST PUSH1 0x2 PUSH0 CALLER PUSH20 0xFFFFFFFFFFFFFFFFFFFFFFFFFFFFFFFFFFFFFFFF AND PUSH20 0xFFFFFFFFFFFFFFFFFFFFFFFFFFFFFFFFFFFFFFFF AND DUP2 MSTORE PUSH1 0x20 ADD SWAP1 DUP2 MSTORE PUSH1 0x20 ADD PUSH0 KECCAK256 PUSH1 0x40 MLOAD PUSH2 0x837 SWAP1 PUSH2 0x443B JUMP JUMPDEST SWAP1 DUP2 MSTORE PUSH1 0x20 ADD PUSH1 0x40 MLOAD DUP1 SWAP2 SUB SWAP1 KECCAK256 PUSH0 SWAP1 SLOAD SWAP1 PUSH2 0x100 EXP SWAP1 DIV PUSH1 0xFF AND PUSH2 0x891 JUMPI PUSH1 0x40 MLOAD PUSH32 0x8C379A000000000000000000000000000000000000000000000000000000000 DUP2 MSTORE PUSH1 0x4 ADD PUSH2 0x888 SWAP1 PUSH2 0x44CF JUMP JUMPDEST PUSH1 0x40 MLOAD DUP1 SWAP2 SUB SWAP1 REVERT JUMPDEST PUSH2 0x899 PUSH2 0x30D3 JUMP JUMPDEST PUSH2 0x8A2 CALLER PUSH2 0x3062 JUMP JUMPDEST PUSH0 PUSH1 0x9 SLOAD SWAP1 POP PUSH0 DUP2 GT PUSH2 0x8EA JUMPI PUSH1 0x40 MLOAD PUSH32 0x8C379A000000000000000000000000000000000000000000000000000000000 DUP2 MSTORE PUSH1 0x4 ADD PUSH2 0x8E1 SWAP1 PUSH2 0x469E JUMP JUMPDEST PUSH1 0x40 MLOAD DUP1 SWAP2 SUB SWAP1 REVERT JUMPDEST PUSH0 PUSH1 0x9 DUP2 SWAP1 SSTORE POP PUSH0 PUSH1 0xA PUSH0 SWAP1 SLOAD SWAP1 PUSH2 0x100 EXP SWAP1 DIV PUSH20 0xFFFFFFFFFFFFFFFFFFFFFFFFFFFFFFFFFFFFFFFF AND PUSH20 0xFFFFFFFFFFFFFFFFFFFFFFFFFFFFFFFFFFFFFFFF AND DUP3 PUSH1 0x40 MLOAD PUSH2 0x937 SWAP1 PUSH2 0x46E9 JUMP JUMPDEST PUSH0 PUSH1 0x40 MLOAD DUP1 DUP4 SUB DUP2 DUP6 DUP8 GAS CALL SWAP3 POP POP POP RETURNDATASIZE DUP1 PUSH0 DUP2 EQ PUSH2 0x971 JUMPI PUSH1 0x40 MLOAD SWAP2 POP PUSH1 0x1F NOT PUSH1 0x3F RETURNDATASIZE ADD AND DUP3 ADD PUSH1 0x40 MSTORE RETURNDATASIZE DUP3 MSTORE RETURNDATASIZE PUSH0 PUSH1 0x20 DUP5 ADD RETURNDATACOPY PUSH2 0x976 JUMP JUMPDEST PUSH1 0x60 SWAP2 POP JUMPDEST POP POP SWAP1 POP DUP1 PUSH2 0x9BA JUMPI PUSH1 0x40 MLOAD PUSH32 0x8C379A000000000000000000000000000000000000000000000000000000000 DUP2 MSTORE PUSH1 0x4 ADD PUSH2 0x9B1 SWAP1 PUSH2 0x4747 JUMP JUMPDEST PUSH1 0x40 MLOAD DUP1 SWAP2 SUB SWAP1 REVERT JUMPDEST PUSH1 0xA PUSH0 SWAP1 SLOAD SWAP1 PUSH2 0x100 EXP SWAP1 DIV PUSH20 0xFFFFFFFFFFFFFFFFFFFFFFFFFFFFFFFFFFFFFFFF AND PUSH20 0xFFFFFFFFFFFFFFFFFFFFFFFFFFFFFFFFFFFFFFFF AND PUSH32 0xF43E8D333B9DDB8704EB40C14E57021E6D22A57B7E9BF2111AF5F1FFEA6ADA58 DUP4 PUSH1 0x40 MLOAD PUSH2 0xA21 SWAP2 SWAP1 PUSH2 0x40AE JUMP JUMPDEST PUSH1 0x40 MLOAD DUP1 SWAP2 SUB SWAP1 LOG2 POP POP PUSH2 0xA33 PUSH2 0x3122 JUMP JUMPDEST JUMP JUMPDEST PUSH0 PUSH1 0x2 PUSH0 CALLER PUSH20 0xFFFFFFFFFFFFFFFFFFFFFFFFFFFFFFFFFFFFFFFF AND PUSH20 0xFFFFFFFFFFFFFFFFFFFFFFFFFFFFFFFFFFFFFFFF AND DUP2 MSTORE PUSH1 0x20 ADD SWAP1 DUP2 MSTORE PUSH1 0x20 ADD PUSH0 KECCAK256 PUSH1 0x40 MLOAD PUSH2 0xA7F SWAP1 PUSH2 0x443B JUMP JUMPDEST SWAP1 DUP2 MSTORE PUSH1 0x20 ADD PUSH1 0x40 MLOAD DUP1 SWAP2 SUB SWAP1 KECCAK256 PUSH0 SWAP1 SLOAD SWAP1 PUSH2 0x100 EXP SWAP1 DIV PUSH1 0xFF AND PUSH2 0xAD9 JUMPI PUSH1 0x40 MLOAD PUSH32 0x8C379A000000000000000000000000000000000000000000000000000000000 DUP2 MSTORE PUSH1 0x4 ADD PUSH2 0xAD0 SWAP1 PUSH2 0x44CF JUMP JUMPDEST PUSH1 0x40 MLOAD DUP1 SWAP2 SUB SWAP1 REVERT JUMPDEST PUSH2 0xAE2 CALLER PUSH2 0x3062 JUMP JUMPDEST PUSH1 0x4 DUP1 SLOAD SWAP1 POP SWAP1 POP SWAP1 JUMP JUMPDEST PUSH0 PUSH0 SWAP1 SLOAD SWAP1 PUSH2 0x100 EXP SWAP1 DIV PUSH20 0xFFFFFFFFFFFFFFFFFFFFFFFFFFFFFFFFFFFFFFFF AND PUSH20 0xFFFFFFFFFFFFFFFFFFFFFFFFFFFFFFFFFFFFFFFF AND CALLER PUSH20 0xFFFFFFFFFFFFFFFFFFFFFFFFFFFFFFFFFFFFFFFF AND EQ PUSH2 0xB7B JUMPI PUSH1 0x40 MLOAD PUSH32 0x8C379A000000000000000000000000000000000000000000000000000000000 DUP2 MSTORE PUSH1 0x4 ADD PUSH2 0xB72 SWAP1 PUSH2 0x47D5 JUMP JUMPDEST PUSH1 0x40 MLOAD DUP1 SWAP2 SUB SWAP1 REVERT JUMPDEST PUSH1 0x40 MLOAD DUP1 PUSH1 0x40 ADD PUSH1 0x40 MSTORE DUP1 PUSH1 0x7 DUP2 MSTORE PUSH1 0x20 ADD PUSH32 0x456D706C6F796500000000000000000000000000000000000000000000000000 DUP2 MSTORE POP DUP1 MLOAD SWAP1 PUSH1 0x20 ADD KECCAK256 DUP3 DUP3 PUSH1 0x40 MLOAD PUSH2 0xBC8 SWAP3 SWAP2 SWAP1 PUSH2 0x4817 JUMP JUMPDEST PUSH1 0x40 MLOAD DUP1 SWAP2 SUB SWAP1 KECCAK256 EQ PUSH2 0xC10 JUMPI PUSH1 0x40 MLOAD PUSH32 0x8C379A000000000000000000000000000000000000000000000000000000000 DUP2 MSTORE PUSH1 0x4 ADD PUSH2 0xC07 SWAP1 PUSH2 0x4879 JUMP JUMPDEST PUSH1 0x40 MLOAD DUP1 SWAP2 SUB SWAP1 REVERT JUMPDEST PUSH1 0x2 PUSH0 DUP5 PUSH20 0xFFFFFFFFFFFFFFFFFFFFFFFFFFFFFFFFFFFFFFFF AND PUSH20 0xFFFFFFFFFFFFFFFFFFFFFFFFFFFFFFFFFFFFFFFF AND DUP2 MSTORE PUSH1 0x20 ADD SWAP1 DUP2 MSTORE PUSH1 0x20 ADD PUSH0 KECCAK256 DUP3 DUP3 PUSH1 0x40 MLOAD PUSH2 0xC5D SWAP3 SWAP2 SWAP1 PUSH2 0x463C JUMP JUMPDEST SWAP1 DUP2 MSTORE PUSH1 0x20 ADD PUSH1 0x40 MLOAD DUP1 SWAP2 SUB SWAP1 KECCAK256 PUSH0 SWAP1 SLOAD SWAP1 PUSH2 0x100 EXP SWAP1 DIV PUSH1 0xFF AND PUSH2 0xCB7 JUMPI PUSH1 0x40 MLOAD PUSH32 0x8C379A000000000000000000000000000000000000000000000000000000000 DUP2 MSTORE PUSH1 0x4 ADD PUSH2 0xCAE SWAP1 PUSH2 0x4907 JUMP JUMPDEST PUSH1 0x40 MLOAD DUP1 SWAP2 SUB SWAP1 REVERT JUMPDEST PUSH0 PUSH1 0x2 PUSH0 DUP6 PUSH20 0xFFFFFFFFFFFFFFFFFFFFFFFFFFFFFFFFFFFFFFFF AND PUSH20 0xFFFFFFFFFFFFFFFFFFFFFFFFFFFFFFFFFFFFFFFF AND DUP2 MSTORE PUSH1 0x20 ADD SWAP1 DUP2 MSTORE PUSH1 0x20 ADD PUSH0 KECCAK256 DUP4 DUP4 PUSH1 0x40 MLOAD PUSH2 0xD05 SWAP3 SWAP2 SWAP1 PUSH2 0x463C JUMP JUMPDEST SWAP1 DUP2 MSTORE PUSH1 0x20 ADD PUSH1 0x40 MLOAD DUP1 SWAP2 SUB SWAP1 KECCAK256 PUSH0 PUSH2 0x100 EXP DUP2 SLOAD DUP2 PUSH1 0xFF MUL NOT AND SWAP1 DUP4 ISZERO ISZERO MUL OR SWAP1 SSTORE POP PUSH1 0x1 PUSH0 DUP2 SLOAD DUP1 SWAP3 SWAP2 SWAP1 PUSH2 0xD3B SWAP1 PUSH2 0x4952 JUMP JUMPDEST SWAP2 SWAP1 POP SSTORE POP DUP3 PUSH20 0xFFFFFFFFFFFFFFFFFFFFFFFFFFFFFFFFFFFFFFFF AND PUSH32 0xCF3BBB93629B62834974659EFC838721FA2BD3B41CAFD38B516AC86B661491E1 DUP4 DUP4 PUSH1 0x40 MLOAD PUSH2 0xD88 SWAP3 SWAP2 SWAP1 PUSH2 0x49B5 JUMP JUMPDEST PUSH1 0x40 MLOAD DUP1 SWAP2 SUB SWAP1 LOG2 POP POP POP JUMP JUMPDEST PUSH1 0x2 PUSH0 CALLER PUSH20 0xFFFFFFFFFFFFFFFFFFFFFFFFFFFFFFFFFFFFFFFF AND PUSH20 0xFFFFFFFFFFFFFFFFFFFFFFFFFFFFFFFFFFFFFFFF AND DUP2 MSTORE PUSH1 0x20 ADD SWAP1 DUP2 MSTORE PUSH1 0x20 ADD PUSH0 KECCAK256 PUSH1 0x40 MLOAD PUSH2 0xDDE SWAP1 PUSH2 0x443B JUMP JUMPDEST SWAP1 DUP2 MSTORE PUSH1 0x20 ADD PUSH1 0x40 MLOAD DUP1 SWAP2 SUB SWAP1 KECCAK256 PUSH0 SWAP1 SLOAD SWAP1 PUSH2 0x100 EXP SWAP1 DIV PUSH1 0xFF AND ISZERO PUSH2 0xE39 JUMPI PUSH1 0x40 MLOAD PUSH32 0x8C379A000000000000000000000000000000000000000000000000000000000 DUP2 MSTORE PUSH1 0x4 ADD PUSH2 0xE30 SWAP1 PUSH2 0x4A47 JUMP JUMPDEST PUSH1 0x40 MLOAD DUP1 SWAP2 SUB SWAP1 REVERT JUMPDEST PUSH0 PUSH0 SWAP1 SLOAD SWAP1 PUSH2 0x100 EXP SWAP1 DIV PUSH20 0xFFFFFFFFFFFFFFFFFFFFFFFFFFFFFFFFFFFFFFFF AND PUSH20 0xFFFFFFFFFFFFFFFFFFFFFFFFFFFFFFFFFFFFFFFF AND CALLER PUSH20 0xFFFFFFFFFFFFFFFFFFFFFFFFFFFFFFFFFFFFFFFF AND SUB PUSH2 0xEC7 JUMPI PUSH1 0x40 MLOAD PUSH32 0x8C379A000000000000000000000000000000000000000000000000000000000 DUP2 MSTORE PUSH1 0x4 ADD PUSH2 0xEBE SWAP1 PUSH2 0x4AD5 JUMP JUMPDEST PUSH1 0x40 MLOAD DUP1 SWAP2 SUB SWAP1 REVERT JUMPDEST PUSH2 0xED0 CALLER PUSH2 0x3062 JUMP JUMPDEST PUSH2 0xED9 DUP2 PUSH2 0x312C JUMP JUMPDEST PUSH0 PUSH1 0x4 DUP3 DUP2 SLOAD DUP2 LT PUSH2 0xEEE JUMPI PUSH2 0xEED PUSH2 0x4AF3 JUMP JUMPDEST JUMPDEST SWAP1 PUSH0 MSTORE PUSH1 0x20 PUSH0 KECCAK256 SWAP1 PUSH1 0x9 MUL ADD SWAP1 POP DUP1 PUSH1 0x8 ADD PUSH1 0x1 SWAP1 SLOAD SWAP1 PUSH2 0x100 EXP SWAP1 DIV PUSH1 0xFF AND ISZERO DUP1 PUSH2 0xF27 JUMPI POP DUP1 PUSH1 0x8 ADD PUSH0 SWAP1 SLOAD SWAP1 PUSH2 0x100 EXP SWAP1 DIV PUSH1 0xFF AND JUMPDEST ISZERO PUSH2 0xF32 JUMPI POP PUSH2 0x1039 JUMP JUMPDEST PUSH0 PUSH2 0xF48 DUP3 PUSH1 0x3 ADD SLOAD PUSH2 0xF43 PUSH2 0x3176 JUMP JUMPDEST PUSH2 0x317D JUMP JUMPDEST SWAP1 POP PUSH0 DUP2 SWAP1 POP DUP3 PUSH1 0x2 ADD SLOAD DUP2 GT ISZERO PUSH2 0xF62 JUMPI DUP3 PUSH1 0x2 ADD SLOAD SWAP1 POP JUMPDEST DUP3 PUSH1 0x4 ADD SLOAD DUP2 GT ISZERO PUSH2 0xFD9 JUMPI PUSH0 DUP4 PUSH1 0x4 ADD SLOAD DUP3 PUSH2 0xF7F SWAP2 SWAP1 PUSH2 0x4B20 JUMP JUMPDEST SWAP1 POP DUP1 DUP5 PUSH1 0x5 ADD PUSH0 DUP3 DUP3 SLOAD PUSH2 0xF94 SWAP2 SWAP1 PUSH2 0x4B53 JUMP JUMPDEST SWAP3 POP POP DUP2 SWAP1 SSTORE POP DUP5 PUSH32 0xA9BD81B5E2FA2470F02961F37FA6590C16A995E9BBF73088778E72EA4237C4BB DUP6 PUSH1 0x5 ADD SLOAD PUSH1 0x40 MLOAD PUSH2 0xFCF SWAP2 SWAP1 PUSH2 0x40AE JUMP JUMPDEST PUSH1 0x40 MLOAD DUP1 SWAP2 SUB SWAP1 LOG2 POP JUMPDEST PUSH1 0x3 DUP4 PUSH1 0x5 ADD SLOAD LT PUSH2 0xFF1 JUMPI PUSH2 0xFF0 DUP5 PUSH1 0x3 PUSH2 0x31B5 JUMP JUMPDEST JUMPDEST DUP3 PUSH1 0x2 ADD SLOAD DUP3 LT ISZERO DUP1 ISZERO PUSH2 0x100C JUMPI POP DUP3 PUSH1 0x2 ADD SLOAD DUP4 PUSH1 0x4 ADD SLOAD LT JUMPDEST DUP1 ISZERO PUSH2 0x1026 JUMPI POP DUP3 PUSH1 0x8 ADD PUSH0 SWAP1 SLOAD SWAP1 PUSH2 0x100 EXP SWAP1 DIV PUSH1 0xFF AND ISZERO JUMPDEST ISZERO PUSH2 0x1035 JUMPI PUSH2 0x1034 DUP5 PUSH2 0x38E0 JUMP JUMPDEST JUMPDEST POP POP POP JUMPDEST POP JUMP JUMPDEST PUSH1 0x2 PUSH0 CALLER PUSH20 0xFFFFFFFFFFFFFFFFFFFFFFFFFFFFFFFFFFFFFFFF AND PUSH20 0xFFFFFFFFFFFFFFFFFFFFFFFFFFFFFFFFFFFFFFFF AND DUP2 MSTORE PUSH1 0x20 ADD SWAP1 DUP2 MSTORE PUSH1 0x20 ADD PUSH0 KECCAK256 PUSH1 0x40 MLOAD PUSH2 0x1085 SWAP1 PUSH2 0x443B JUMP JUMPDEST SWAP1 DUP2 MSTORE PUSH1 0x20 ADD PUSH1 0x40 MLOAD DUP1 SWAP2 SUB SWAP1 KECCAK256 PUSH0 SWAP1 SLOAD SWAP1 PUSH2 0x100 EXP SWAP1 DIV PUSH1 0xFF AND PUSH2 0x10DF JUMPI PUSH1 0x40 MLOAD PUSH32 0x8C379A000000000000000000000000000000000000000000000000000000000 DUP2 MSTORE PUSH1 0x4 ADD PUSH2 0x10D6 SWAP1 PUSH2 0x44CF JUMP JUMPDEST PUSH1 0x40 MLOAD DUP1 SWAP2 SUB SWAP1 REVERT JUMPDEST PUSH2 0x10E7 PUSH2 0x30D3 JUMP JUMPDEST PUSH2 0x10F0 CALLER PUSH2 0x3062 JUMP JUMPDEST PUSH2 0x10F9 DUP2 PUSH2 0x312C JUMP JUMPDEST PUSH0 PUSH1 0x4 DUP3 DUP2 SLOAD DUP2 LT PUSH2 0x110E JUMPI PUSH2 0x110D PUSH2 0x4AF3 JUMP JUMPDEST JUMPDEST SWAP1 PUSH0 MSTORE PUSH1 0x20 PUSH0 KECCAK256 SWAP1 PUSH1 0x9 MUL ADD SWAP1 POP DUP1 PUSH1 0x8 ADD PUSH1 0x1 SWAP1 SLOAD SWAP1 PUSH2 0x100 EXP SWAP1 DIV PUSH1 0xFF AND ISZERO DUP1 ISZERO PUSH2 0x1149 JUMPI POP DUP1 PUSH1 0x8 ADD PUSH0 SWAP1 SLOAD SWAP1 PUSH2 0x100 EXP SWAP1 DIV PUSH1 0xFF AND ISZERO JUMPDEST PUSH2 0x1188 JUMPI PUSH1 0x40 MLOAD PUSH32 0x8C379A000000000000000000000000000000000000000000000000000000000 DUP2 MSTORE PUSH1 0x4 ADD PUSH2 0x117F SWAP1 PUSH2 0x4BD0 JUMP JUMPDEST PUSH1 0x40 MLOAD DUP1 SWAP2 SUB SWAP1 REVERT JUMPDEST PUSH0 DUP2 PUSH1 0x7 ADD SLOAD SWAP1 POP PUSH0 DUP3 PUSH1 0x7 ADD DUP2 SWAP1 SSTORE POP PUSH0 DUP3 PUSH0 ADD PUSH0 SWAP1 SLOAD SWAP1 PUSH2 0x100 EXP SWAP1 DIV PUSH20 0xFFFFFFFFFFFFFFFFFFFFFFFFFFFFFFFFFFFFFFFF AND PUSH20 0xFFFFFFFFFFFFFFFFFFFFFFFFFFFFFFFFFFFFFFFF AND DUP3 PUSH1 0x40 MLOAD PUSH2 0x11E0 SWAP1 PUSH2 0x46E9 JUMP JUMPDEST PUSH0 PUSH1 0x40 MLOAD DUP1 DUP4 SUB DUP2 DUP6 DUP8 GAS CALL SWAP3 POP POP POP RETURNDATASIZE DUP1 PUSH0 DUP2 EQ PUSH2 0x121A JUMPI PUSH1 0x40 MLOAD SWAP2 POP PUSH1 0x1F NOT PUSH1 0x3F RETURNDATASIZE ADD AND DUP3 ADD PUSH1 0x40 MSTORE RETURNDATASIZE DUP3 MSTORE RETURNDATASIZE PUSH0 PUSH1 0x20 DUP5 ADD RETURNDATACOPY PUSH2 0x121F JUMP JUMPDEST PUSH1 0x60 SWAP2 POP JUMPDEST POP POP SWAP1 POP DUP1 PUSH2 0x1263 JUMPI PUSH1 0x40 MLOAD PUSH32 0x8C379A000000000000000000000000000000000000000000000000000000000 DUP2 MSTORE PUSH1 0x4 ADD PUSH2 0x125A SWAP1 PUSH2 0x4C38 JUMP JUMPDEST PUSH1 0x40 MLOAD DUP1 SWAP2 SUB SWAP1 REVERT JUMPDEST PUSH1 0x1 DUP4 PUSH1 0x8 ADD PUSH0 PUSH2 0x100 EXP DUP2 SLOAD DUP2 PUSH1 0xFF MUL NOT AND SWAP1 DUP4 ISZERO ISZERO MUL OR SWAP1 SSTORE POP DUP3 PUSH0 ADD PUSH0 SWAP1 SLOAD SWAP1 PUSH2 0x100 EXP SWAP1 DIV PUSH20 0xFFFFFFFFFFFFFFFFFFFFFFFFFFFFFFFFFFFFFFFF AND PUSH20 0xFFFFFFFFFFFFFFFFFFFFFFFFFFFFFFFFFFFFFFFF AND DUP5 PUSH32 0x4A14ED616CE90B51A0A9222C0E231E9CE03B6885730AFF30C76A5CCB7C5B8106 DUP5 PUSH0 PUSH0 PUSH1 0x40 MLOAD PUSH2 0x12EC SWAP4 SWAP3 SWAP2 SWAP1 PUSH2 0x4C98 JUMP JUMPDEST PUSH1 0x40 MLOAD DUP1 SWAP2 SUB SWAP1 LOG3 POP POP POP PUSH2 0x12FF PUSH2 0x3122 JUMP JUMPDEST POP JUMP JUMPDEST PUSH1 0x2 PUSH0 CALLER PUSH20 0xFFFFFFFFFFFFFFFFFFFFFFFFFFFFFFFFFFFFFFFF AND PUSH20 0xFFFFFFFFFFFFFFFFFFFFFFFFFFFFFFFFFFFFFFFF AND DUP2 MSTORE PUSH1 0x20 ADD SWAP1 DUP2 MSTORE PUSH1 0x20 ADD PUSH0 KECCAK256 PUSH1 0x40 MLOAD PUSH2 0x134B SWAP1 PUSH2 0x443B JUMP JUMPDEST SWAP1 DUP2 MSTORE PUSH1 0x20 ADD PUSH1 0x40 MLOAD DUP1 SWAP2 SUB SWAP1 KECCAK256 PUSH0 SWAP1 SLOAD SWAP1 PUSH2 0x100 EXP SWAP1 DIV PUSH1 0xFF AND PUSH2 0x13A5 JUMPI PUSH1 0x40 MLOAD PUSH32 0x8C379A000000000000000000000000000000000000000000000000000000000 DUP2 MSTORE PUSH1 0x4 ADD PUSH2 0x139C SWAP1 PUSH2 0x44CF JUMP JUMPDEST PUSH1 0x40 MLOAD DUP1 SWAP2 SUB SWAP1 REVERT JUMPDEST PUSH2 0x13AE CALLER PUSH2 0x3062 JUMP JUMPDEST PUSH2 0x1388 DUP2 GT ISZERO PUSH2 0x13F3 JUMPI PUSH1 0x40 MLOAD PUSH32 0x8C379A000000000000000000000000000000000000000000000000000000000 DUP2 MSTORE PUSH1 0x4 ADD PUSH2 0x13EA SWAP1 PUSH2 0x4D17 JUMP JUMPDEST PUSH1 0x40 MLOAD DUP1 SWAP2 SUB SWAP1 REVERT JUMPDEST PUSH0 DUP2 GT PUSH2 0x1435 JUMPI PUSH1 0x40 MLOAD PUSH32 0x8C379A000000000000000000000000000000000000000000000000000000000 DUP2 MSTORE PUSH1 0x4 ADD PUSH2 0x142C SWAP1 PUSH2 0x4D7F JUMP JUMPDEST PUSH1 0x40 MLOAD DUP1 SWAP2 SUB SWAP1 REVERT JUMPDEST PUSH0 PUSH1 0x6 SLOAD SWAP1 POP DUP2 PUSH1 0x6 DUP2 SWAP1 SSTORE POP PUSH32 0x5B56293D2C832157AC8F4CE694BC788152793B86457D54956F1722633C580139 DUP2 DUP4 PUSH1 0x40 MLOAD PUSH2 0x1473 SWAP3 SWAP2 SWAP1 PUSH2 0x45E3 JUMP JUMPDEST PUSH1 0x40 MLOAD DUP1 SWAP2 SUB SWAP1 LOG1 POP POP JUMP JUMPDEST PUSH1 0x2 PUSH0 CALLER PUSH20 0xFFFFFFFFFFFFFFFFFFFFFFFFFFFFFFFFFFFFFFFF AND PUSH20 0xFFFFFFFFFFFFFFFFFFFFFFFFFFFFFFFFFFFFFFFF AND DUP2 MSTORE PUSH1 0x20 ADD SWAP1 DUP2 MSTORE PUSH1 0x20 ADD PUSH0 KECCAK256 PUSH1 0x40 MLOAD PUSH2 0x14C8 SWAP1 PUSH2 0x443B JUMP JUMPDEST SWAP1 DUP2 MSTORE PUSH1 0x20 ADD PUSH1 0x40 MLOAD DUP1 SWAP2 SUB SWAP1 KECCAK256 PUSH0 SWAP1 SLOAD SWAP1 PUSH2 0x100 EXP SWAP1 DIV PUSH1 0xFF AND PUSH2 0x1522 JUMPI PUSH1 0x40 MLOAD PUSH32 0x8C379A000000000000000000000000000000000000000000000000000000000 DUP2 MSTORE PUSH1 0x4 ADD PUSH2 0x1519 SWAP1 PUSH2 0x44CF JUMP JUMPDEST PUSH1 0x40 MLOAD DUP1 SWAP2 SUB SWAP1 REVERT JUMPDEST PUSH2 0x152B CALLER PUSH2 0x3062 JUMP JUMPDEST PUSH2 0x1534 DUP2 PUSH2 0x3062 JUMP JUMPDEST PUSH1 0xB PUSH0 DUP3 PUSH20 0xFFFFFFFFFFFFFFFFFFFFFFFFFFFFFFFFFFFFFFFF AND PUSH20 0xFFFFFFFFFFFFFFFFFFFFFFFFFFFFFFFFFFFFFFFF AND DUP2 MSTORE PUSH1 0x20 ADD SWAP1 DUP2 MSTORE PUSH1 0x20 ADD PUSH0 KECCAK256 PUSH0 SWAP1 SLOAD SWAP1 PUSH2 0x100 EXP SWAP1 DIV PUSH1 0xFF AND PUSH2 0x15BD JUMPI PUSH1 0x40 MLOAD PUSH32 0x8C379A000000000000000000000000000000000000000000000000000000000 DUP2 MSTORE PUSH1 0x4 ADD PUSH2 0x15B4 SWAP1 PUSH2 0x4DE7 JUMP JUMPDEST PUSH1 0x40 MLOAD DUP1 SWAP2 SUB SWAP1 REVERT JUMPDEST PUSH0 PUSH1 0xB PUSH0 DUP4 PUSH20 0xFFFFFFFFFFFFFFFFFFFFFFFFFFFFFFFFFFFFFFFF AND PUSH20 0xFFFFFFFFFFFFFFFFFFFFFFFFFFFFFFFFFFFFFFFF AND DUP2 MSTORE PUSH1 0x20 ADD SWAP1 DUP2 MSTORE PUSH1 0x20 ADD PUSH0 KECCAK256 PUSH0 PUSH2 0x100 EXP DUP2 SLOAD DUP2 PUSH1 0xFF MUL NOT AND SWAP1 DUP4 ISZERO ISZERO MUL OR SWAP1 SSTORE POP DUP1 PUSH20 0xFFFFFFFFFFFFFFFFFFFFFFFFFFFFFFFFFFFFFFFF AND PUSH32 0x117E3210BB9AA7D9BAFF172026820255C6F6C30BA8999D1C2FD88E2848137C4E PUSH1 0x40 MLOAD PUSH1 0x40 MLOAD DUP1 SWAP2 SUB SWAP1 LOG2 POP JUMP JUMPDEST PUSH1 0xC PUSH1 0x20 MSTORE DUP1 PUSH0 MSTORE PUSH1 0x40 PUSH0 KECCAK256 PUSH0 SWAP2 POP SWAP1 POP SLOAD DUP2 JUMP JUMPDEST PUSH1 0x2 PUSH0 CALLER PUSH20 0xFFFFFFFFFFFFFFFFFFFFFFFFFFFFFFFFFFFFFFFF AND PUSH20 0xFFFFFFFFFFFFFFFFFFFFFFFFFFFFFFFFFFFFFFFF AND DUP2 MSTORE PUSH1 0x20 ADD SWAP1 DUP2 MSTORE PUSH1 0x20 ADD PUSH0 KECCAK256 PUSH1 0x40 MLOAD PUSH2 0x16B5 SWAP1 PUSH2 0x443B JUMP JUMPDEST SWAP1 DUP2 MSTORE PUSH1 0x20 ADD PUSH1 0x40 MLOAD DUP1 SWAP2 SUB SWAP1 KECCAK256 PUSH0 SWAP1 SLOAD SWAP1 PUSH2 0x100 EXP SWAP1 DIV PUSH1 0xFF AND PUSH2 0x170F JUMPI PUSH1 0x40 MLOAD PUSH32 0x8C379A000000000000000000000000000000000000000000000000000000000 DUP2 MSTORE PUSH1 0x4 ADD PUSH2 0x1706 SWAP1 PUSH2 0x44CF JUMP JUMPDEST PUSH1 0x40 MLOAD DUP1 SWAP2 SUB SWAP1 REVERT JUMPDEST PUSH2 0x1718 CALLER PUSH2 0x3062 JUMP JUMPDEST PUSH0 PUSH20 0xFFFFFFFFFFFFFFFFFFFFFFFFFFFFFFFFFFFFFFFF AND DUP2 PUSH20 0xFFFFFFFFFFFFFFFFFFFFFFFFFFFFFFFFFFFFFFFF AND SUB PUSH2 0x1786 JUMPI PUSH1 0x40 MLOAD PUSH32 0x8C379A000000000000000000000000000000000000000000000000000000000 DUP2 MSTORE PUSH1 0x4 ADD PUSH2 0x177D SWAP1 PUSH2 0x4E4F JUMP JUMPDEST PUSH1 0x40 MLOAD DUP1 SWAP2 SUB SWAP1 REVERT JUMPDEST ADDRESS PUSH20 0xFFFFFFFFFFFFFFFFFFFFFFFFFFFFFFFFFFFFFFFF AND DUP2 PUSH20 0xFFFFFFFFFFFFFFFFFFFFFFFFFFFFFFFFFFFFFFFF AND SUB PUSH2 0x17F4 JUMPI PUSH1 0x40 MLOAD PUSH32 0x8C379A000000000000000000000000000000000000000000000000000000000 DUP2 MSTORE PUSH1 0x4 ADD PUSH2 0x17EB SWAP1 PUSH2 0x4EB7 JUMP JUMPDEST PUSH1 0x40 MLOAD DUP1 SWAP2 SUB SWAP1 REVERT JUMPDEST PUSH0 PUSH1 0xA PUSH0 SWAP1 SLOAD SWAP1 PUSH2 0x100 EXP SWAP1 DIV PUSH20 0xFFFFFFFFFFFFFFFFFFFFFFFFFFFFFFFFFFFFFFFF AND SWAP1 POP DUP2 PUSH1 0xA PUSH0 PUSH2 0x100 EXP DUP2 SLOAD DUP2 PUSH20 0xFFFFFFFFFFFFFFFFFFFFFFFFFFFFFFFFFFFFFFFF MUL NOT AND SWAP1 DUP4 PUSH20 0xFFFFFFFFFFFFFFFFFFFFFFFFFFFFFFFFFFFFFFFF AND MUL OR SWAP1 SSTORE POP PUSH32 0x97001B29D9D8207193FC2E3B05F37BC0387D72FFD176A0A2F69BF57241A7FCDB DUP2 DUP4 PUSH1 0x40 MLOAD PUSH2 0x188A SWAP3 SWAP2 SWAP1 PUSH2 0x4F27 JUMP JUMPDEST PUSH1 0x40 MLOAD DUP1 SWAP2 SUB SWAP1 LOG1 POP POP JUMP JUMPDEST PUSH0 PUSH0 PUSH0 PUSH0 PUSH0 PUSH0 PUSH0 PUSH0 PUSH0 PUSH0 PUSH1 0x2 PUSH0 CALLER PUSH20 0xFFFFFFFFFFFFFFFFFFFFFFFFFFFFFFFFFFFFFFFF AND PUSH20 0xFFFFFFFFFFFFFFFFFFFFFFFFFFFFFFFFFFFFFFFF AND DUP2 MSTORE PUSH1 0x20 ADD SWAP1 DUP2 MSTORE PUSH1 0x20 ADD PUSH0 KECCAK256 PUSH1 0x40 MLOAD PUSH2 0x18E9 SWAP1 PUSH2 0x443B JUMP JUMPDEST SWAP1 DUP2 MSTORE PUSH1 0x20 ADD PUSH1 0x40 MLOAD DUP1 SWAP2 SUB SWAP1 KECCAK256 PUSH0 SWAP1 SLOAD SWAP1 PUSH2 0x100 EXP SWAP1 DIV PUSH1 0xFF AND PUSH2 0x1943 JUMPI PUSH1 0x40 MLOAD PUSH32 0x8C379A000000000000000000000000000000000000000000000000000000000 DUP2 MSTORE PUSH1 0x4 ADD PUSH2 0x193A SWAP1 PUSH2 0x44CF JUMP JUMPDEST PUSH1 0x40 MLOAD DUP1 SWAP2 SUB SWAP1 REVERT JUMPDEST PUSH2 0x194C CALLER PUSH2 0x3062 JUMP JUMPDEST PUSH0 PUSH1 0x4 DUP13 DUP2 SLOAD DUP2 LT PUSH2 0x1961 JUMPI PUSH2 0x1960 PUSH2 0x4AF3 JUMP JUMPDEST JUMPDEST SWAP1 PUSH0 MSTORE PUSH1 0x20 PUSH0 KECCAK256 SWAP1 PUSH1 0x9 MUL ADD SWAP1 POP DUP1 PUSH0 ADD PUSH0 SWAP1 SLOAD SWAP1 PUSH2 0x100 EXP SWAP1 DIV PUSH20 0xFFFFFFFFFFFFFFFFFFFFFFFFFFFFFFFFFFFFFFFF AND DUP2 PUSH1 0x1 ADD SLOAD DUP3 PUSH1 0x2 ADD SLOAD DUP4 PUSH1 0x3 ADD SLOAD DUP5 PUSH1 0x4 ADD SLOAD DUP6 PUSH1 0x5 ADD SLOAD DUP7 PUSH1 0x6 ADD SLOAD DUP8 PUSH1 0x7 ADD SLOAD DUP9 PUSH1 0x8 ADD PUSH0 SWAP1 SLOAD SWAP1 PUSH2 0x100 EXP SWAP1 DIV PUSH1 0xFF AND DUP10 PUSH1 0x8 ADD PUSH1 0x1 SWAP1 SLOAD SWAP1 PUSH2 0x100 EXP SWAP1 DIV PUSH1 0xFF AND SWAP11 POP SWAP11 POP SWAP11 POP SWAP11 POP SWAP11 POP SWAP11 POP SWAP11 POP SWAP11 POP SWAP11 POP SWAP11 POP POP SWAP2 SWAP4 SWAP6 SWAP8 SWAP10 POP SWAP2 SWAP4 SWAP6 SWAP8 SWAP10 JUMP JUMPDEST PUSH1 0x1 SLOAD DUP2 JUMP JUMPDEST PUSH1 0x2 PUSH0 CALLER PUSH20 0xFFFFFFFFFFFFFFFFFFFFFFFFFFFFFFFFFFFFFFFF AND PUSH20 0xFFFFFFFFFFFFFFFFFFFFFFFFFFFFFFFFFFFFFFFF AND DUP2 MSTORE PUSH1 0x20 ADD SWAP1 DUP2 MSTORE PUSH1 0x20 ADD PUSH0 KECCAK256 PUSH1 0x40 MLOAD PUSH2 0x1A49 SWAP1 PUSH2 0x443B JUMP JUMPDEST SWAP1 DUP2 MSTORE PUSH1 0x20 ADD PUSH1 0x40 MLOAD DUP1 SWAP2 SUB SWAP1 KECCAK256 PUSH0 SWAP1 SLOAD SWAP1 PUSH2 0x100 EXP SWAP1 DIV PUSH1 0xFF AND PUSH2 0x1AA3 JUMPI PUSH1 0x40 MLOAD PUSH32 0x8C379A000000000000000000000000000000000000000000000000000000000 DUP2 MSTORE PUSH1 0x4 ADD PUSH2 0x1A9A SWAP1 PUSH2 0x44CF JUMP JUMPDEST PUSH1 0x40 MLOAD DUP1 SWAP2 SUB SWAP1 REVERT JUMPDEST PUSH2 0x1AAC CALLER PUSH2 0x3062 JUMP JUMPDEST PUSH2 0x7D0 DUP2 GT ISZERO PUSH2 0x1AF1 JUMPI PUSH1 0x40 MLOAD PUSH32 0x8C379A000000000000000000000000000000000000000000000000000000000 DUP2 MSTORE PUSH1 0x4 ADD PUSH2 0x1AE8 SWAP1 PUSH2 0x4F98 JUMP JUMPDEST PUSH1 0x40 MLOAD DUP1 SWAP2 SUB SWAP1 REVERT JUMPDEST PUSH0 DUP2 GT PUSH2 0x1B33 JUMPI PUSH1 0x40 MLOAD PUSH32 0x8C379A000000000000000000000000000000000000000000000000000000000 DUP2 MSTORE PUSH1 0x4 ADD PUSH2 0x1B2A SWAP1 PUSH2 0x5000 JUMP JUMPDEST PUSH1 0x40 MLOAD DUP1 SWAP2 SUB SWAP1 REVERT JUMPDEST PUSH0 PUSH1 0x5 SLOAD SWAP1 POP DUP2 PUSH1 0x5 DUP2 SWAP1 SSTORE POP PUSH32 0xF93CE1B2E2CB74B524760DFF1842E28B944E9C40627C07348A36C404BE739C02 DUP2 DUP4 PUSH1 0x40 MLOAD PUSH2 0x1B71 SWAP3 SWAP2 SWAP1 PUSH2 0x45E3 JUMP JUMPDEST PUSH1 0x40 MLOAD DUP1 SWAP2 SUB SWAP1 LOG1 POP POP JUMP JUMPDEST PUSH0 PUSH0 SWAP1 SLOAD SWAP1 PUSH2 0x100 EXP SWAP1 DIV PUSH20 0xFFFFFFFFFFFFFFFFFFFFFFFFFFFFFFFFFFFFFFFF AND PUSH20 0xFFFFFFFFFFFFFFFFFFFFFFFFFFFFFFFFFFFFFFFF AND CALLER PUSH20 0xFFFFFFFFFFFFFFFFFFFFFFFFFFFFFFFFFFFFFFFF AND EQ PUSH2 0x1C0B JUMPI PUSH1 0x40 MLOAD PUSH32 0x8C379A000000000000000000000000000000000000000000000000000000000 DUP2 MSTORE PUSH1 0x4 ADD PUSH2 0x1C02 SWAP1 PUSH2 0x47D5 JUMP JUMPDEST PUSH1 0x40 MLOAD DUP1 SWAP2 SUB SWAP1 REVERT JUMPDEST PUSH1 0x40 MLOAD DUP1 PUSH1 0x40 ADD PUSH1 0x40 MSTORE DUP1 PUSH1 0x7 DUP2 MSTORE PUSH1 0x20 ADD PUSH32 0x456D706C6F796500000000000000000000000000000000000000000000000000 DUP2 MSTORE POP DUP1 MLOAD SWAP1 PUSH1 0x20 ADD KECCAK256 DUP3 DUP3 PUSH1 0x40 MLOAD PUSH2 0x1C58 SWAP3 SWAP2 SWAP1 PUSH2 0x4817 JUMP JUMPDEST PUSH1 0x40 MLOAD DUP1 SWAP2 SUB SWAP1 KECCAK256 EQ PUSH2 0x1CA0 JUMPI PUSH1 0x40 MLOAD PUSH32 0x8C379A000000000000000000000000000000000000000000000000000000000 DUP2 MSTORE PUSH1 0x4 ADD PUSH2 0x1C97 SWAP1 PUSH2 0x4879 JUMP JUMPDEST PUSH1 0x40 MLOAD DUP1 SWAP2 SUB SWAP1 REVERT JUMPDEST PUSH0 PUSH20 0xFFFFFFFFFFFFFFFFFFFFFFFFFFFFFFFFFFFFFFFF AND DUP4 PUSH20 0xFFFFFFFFFFFFFFFFFFFFFFFFFFFFFFFFFFFFFFFF AND SUB PUSH2 0x1D0E JUMPI PUSH1 0x40 MLOAD PUSH32 0x8C379A000000000000000000000000000000000000000000000000000000000 DUP2 MSTORE PUSH1 0x4 ADD PUSH2 0x1D05 SWAP1 PUSH2 0x508E JUMP JUMPDEST PUSH1 0x40 MLOAD DUP1 SWAP2 SUB SWAP1 REVERT JUMPDEST PUSH1 0x2 PUSH0 DUP5 PUSH20 0xFFFFFFFFFFFFFFFFFFFFFFFFFFFFFFFFFFFFFFFF AND PUSH20 0xFFFFFFFFFFFFFFFFFFFFFFFFFFFFFFFFFFFFFFFF AND DUP2 MSTORE PUSH1 0x20 ADD SWAP1 DUP2 MSTORE PUSH1 0x20 ADD PUSH0 KECCAK256 DUP3 DUP3 PUSH1 0x40 MLOAD PUSH2 0x1D5B SWAP3 SWAP2 SWAP1 PUSH2 0x463C JUMP JUMPDEST SWAP1 DUP2 MSTORE PUSH1 0x20 ADD PUSH1 0x40 MLOAD DUP1 SWAP2 SUB SWAP1 KECCAK256 PUSH0 SWAP1 SLOAD SWAP1 PUSH2 0x100 EXP SWAP1 DIV PUSH1 0xFF AND ISZERO PUSH2 0x1DB6 JUMPI PUSH1 0x40 MLOAD PUSH32 0x8C379A000000000000000000000000000000000000000000000000000000000 DUP2 MSTORE PUSH1 0x4 ADD PUSH2 0x1DAD SWAP1 PUSH2 0x511C JUMP JUMPDEST PUSH1 0x40 MLOAD DUP1 SWAP2 SUB SWAP1 REVERT JUMPDEST PUSH1 0x1 PUSH1 0x2 PUSH0 DUP6 PUSH20 0xFFFFFFFFFFFFFFFFFFFFFFFFFFFFFFFFFFFFFFFF AND PUSH20 0xFFFFFFFFFFFFFFFFFFFFFFFFFFFFFFFFFFFFFFFF AND DUP2 MSTORE PUSH1 0x20 ADD SWAP1 DUP2 MSTORE PUSH1 0x20 ADD PUSH0 KECCAK256 DUP4 DUP4 PUSH1 0x40 MLOAD PUSH2 0x1E05 SWAP3 SWAP2 SWAP1 PUSH2 0x463C JUMP JUMPDEST SWAP1 DUP2 MSTORE PUSH1 0x20 ADD PUSH1 0x40 MLOAD DUP1 SWAP2 SUB SWAP1 KECCAK256 PUSH0 PUSH2 0x100 EXP DUP2 SLOAD DUP2 PUSH1 0xFF MUL NOT AND SWAP1 DUP4 ISZERO ISZERO MUL OR SWAP1 SSTORE POP PUSH1 0x1 PUSH0 DUP2 SLOAD DUP1 SWAP3 SWAP2 SWAP1 PUSH2 0x1E3B SWAP1 PUSH2 0x513A JUMP JUMPDEST SWAP2 SWAP1 POP SSTORE POP DUP3 PUSH20 0xFFFFFFFFFFFFFFFFFFFFFFFFFFFFFFFFFFFFFFFF AND PUSH32 0x88567665D11BB1CA04896B9D3C620779F90A9F00F12488F6050A74EB11C2BE5 DUP4 DUP4 PUSH1 0x40 MLOAD PUSH2 0x1E88 SWAP3 SWAP2 SWAP1 PUSH2 0x49B5 JUMP JUMPDEST PUSH1 0x40 MLOAD DUP1 SWAP2 SUB SWAP1 LOG2 POP POP POP JUMP JUMPDEST PUSH1 0x2 PUSH0 CALLER PUSH20 0xFFFFFFFFFFFFFFFFFFFFFFFFFFFFFFFFFFFFFFFF AND PUSH20 0xFFFFFFFFFFFFFFFFFFFFFFFFFFFFFFFFFFFFFFFF AND DUP2 MSTORE PUSH1 0x20 ADD SWAP1 DUP2 MSTORE PUSH1 0x20 ADD PUSH0 KECCAK256 PUSH1 0x40 MLOAD PUSH2 0x1EDE SWAP1 PUSH2 0x443B JUMP JUMPDEST SWAP1 DUP2 MSTORE PUSH1 0x20 ADD PUSH1 0x40 MLOAD DUP1 SWAP2 SUB SWAP1 KECCAK256 PUSH0 SWAP1 SLOAD SWAP1 PUSH2 0x100 EXP SWAP1 DIV PUSH1 0xFF AND ISZERO PUSH2 0x1F39 JUMPI PUSH1 0x40 MLOAD PUSH32 0x8C379A000000000000000000000000000000000000000000000000000000000 DUP2 MSTORE PUSH1 0x4 ADD PUSH2 0x1F30 SWAP1 PUSH2 0x4A47 JUMP JUMPDEST PUSH1 0x40 MLOAD DUP1 SWAP2 SUB SWAP1 REVERT JUMPDEST PUSH0 PUSH0 SWAP1 SLOAD SWAP1 PUSH2 0x100 EXP SWAP1 DIV PUSH20 0xFFFFFFFFFFFFFFFFFFFFFFFFFFFFFFFFFFFFFFFF AND PUSH20 0xFFFFFFFFFFFFFFFFFFFFFFFFFFFFFFFFFFFFFFFF AND CALLER PUSH20 0xFFFFFFFFFFFFFFFFFFFFFFFFFFFFFFFFFFFFFFFF AND SUB PUSH2 0x1FC7 JUMPI PUSH1 0x40 MLOAD PUSH32 0x8C379A000000000000000000000000000000000000000000000000000000000 DUP2 MSTORE PUSH1 0x4 ADD PUSH2 0x1FBE SWAP1 PUSH2 0x4AD5 JUMP JUMPDEST PUSH1 0x40 MLOAD DUP1 SWAP2 SUB SWAP1 REVERT JUMPDEST PUSH2 0x1FD0 CALLER PUSH2 0x3062 JUMP JUMPDEST PUSH1 0xB PUSH0 CALLER PUSH20 0xFFFFFFFFFFFFFFFFFFFFFFFFFFFFFFFFFFFFFFFF AND PUSH20 0xFFFFFFFFFFFFFFFFFFFFFFFFFFFFFFFFFFFFFFFF AND DUP2 MSTORE PUSH1 0x20 ADD SWAP1 DUP2 MSTORE PUSH1 0x20 ADD PUSH0 KECCAK256 PUSH0 SWAP1 SLOAD SWAP1 PUSH2 0x100 EXP SWAP1 DIV PUSH1 0xFF AND ISZERO PUSH2 0x205A JUMPI PUSH1 0x40 MLOAD PUSH32 0x8C379A000000000000000000000000000000000000000000000000000000000 DUP2 MSTORE PUSH1 0x4 ADD PUSH2 0x2051 SWAP1 PUSH2 0x51CB JUMP JUMPDEST PUSH1 0x40 MLOAD DUP1 SWAP2 SUB SWAP1 REVERT JUMPDEST PUSH0 DUP3 GT PUSH2 0x209C JUMPI PUSH1 0x40 MLOAD PUSH32 0x8C379A000000000000000000000000000000000000000000000000000000000 DUP2 MSTORE PUSH1 0x4 ADD PUSH2 0x2093 SWAP1 PUSH2 0x5233 JUMP JUMPDEST PUSH1 0x40 MLOAD DUP1 SWAP2 SUB SWAP1 REVERT JUMPDEST PUSH1 0x1 DUP2 LT ISZERO PUSH2 0x20E0 JUMPI PUSH1 0x40 MLOAD PUSH32 0x8C379A000000000000000000000000000000000000000000000000000000000 DUP2 MSTORE PUSH1 0x4 ADD PUSH2 0x20D7 SWAP1 PUSH2 0x529B JUMP JUMPDEST PUSH1 0x40 MLOAD DUP1 SWAP2 SUB SWAP1 REVERT JUMPDEST PUSH2 0x20E8 PUSH2 0x3F0F JUMP JUMPDEST PUSH2 0x2127 JUMPI PUSH1 0x40 MLOAD PUSH32 0x8C379A000000000000000000000000000000000000000000000000000000000 DUP2 MSTORE PUSH1 0x4 ADD PUSH2 0x211E SWAP1 PUSH2 0x5303 JUMP JUMPDEST PUSH1 0x40 MLOAD DUP1 SWAP2 SUB SWAP1 REVERT JUMPDEST PUSH0 PUSH8 0xDE0B6B3A7640000 DUP4 PUSH2 0x213C SWAP2 SWAP1 PUSH2 0x5321 JUMP JUMPDEST SWAP1 POP PUSH0 PUSH1 0x64 PUSH1 0x7 SLOAD DUP4 PUSH2 0x214F SWAP2 SWAP1 PUSH2 0x5321 JUMP JUMPDEST PUSH2 0x2159 SWAP2 SWAP1 PUSH2 0x538F JUMP JUMPDEST SWAP1 POP DUP1 CALLVALUE LT ISZERO PUSH2 0x219E JUMPI PUSH1 0x40 MLOAD PUSH32 0x8C379A000000000000000000000000000000000000000000000000000000000 DUP2 MSTORE PUSH1 0x4 ADD PUSH2 0x2195 SWAP1 PUSH2 0x5409 JUMP JUMPDEST PUSH1 0x40 MLOAD DUP1 SWAP2 SUB SWAP1 REVERT JUMPDEST PUSH0 PUSH1 0x40 MLOAD DUP1 PUSH2 0x140 ADD PUSH1 0x40 MSTORE DUP1 CALLER PUSH20 0xFFFFFFFFFFFFFFFFFFFFFFFFFFFFFFFFFFFFFFFF AND DUP2 MSTORE PUSH1 0x20 ADD DUP5 DUP2 MSTORE PUSH1 0x20 ADD DUP6 DUP2 MSTORE PUSH1 0x20 ADD PUSH0 DUP2 MSTORE PUSH1 0x20 ADD PUSH0 DUP2 MSTORE PUSH1 0x20 ADD PUSH0 DUP2 MSTORE PUSH1 0x20 ADD DUP5 DUP2 MSTORE PUSH1 0x20 ADD CALLVALUE DUP2 MSTORE PUSH1 0x20 ADD PUSH0 ISZERO ISZERO DUP2 MSTORE PUSH1 0x20 ADD PUSH0 ISZERO ISZERO DUP2 MSTORE POP SWAP1 POP PUSH1 0x4 DUP2 SWAP1 DUP1 PUSH1 0x1 DUP2 SLOAD ADD DUP1 DUP3 SSTORE DUP1 SWAP2 POP POP PUSH1 0x1 SWAP1 SUB SWAP1 PUSH0 MSTORE PUSH1 0x20 PUSH0 KECCAK256 SWAP1 PUSH1 0x9 MUL ADD PUSH0 SWAP1 SWAP2 SWAP1 SWAP2 SWAP1 SWAP2 POP PUSH0 DUP3 ADD MLOAD DUP2 PUSH0 ADD PUSH0 PUSH2 0x100 EXP DUP2 SLOAD DUP2 PUSH20 0xFFFFFFFFFFFFFFFFFFFFFFFFFFFFFFFFFFFFFFFF MUL NOT AND SWAP1 DUP4 PUSH20 0xFFFFFFFFFFFFFFFFFFFFFFFFFFFFFFFFFFFFFFFF AND MUL OR SWAP1 SSTORE POP PUSH1 0x20 DUP3 ADD MLOAD DUP2 PUSH1 0x1 ADD SSTORE PUSH1 0x40 DUP3 ADD MLOAD DUP2 PUSH1 0x2 ADD SSTORE PUSH1 0x60 DUP3 ADD MLOAD DUP2 PUSH1 0x3 ADD SSTORE PUSH1 0x80 DUP3 ADD MLOAD DUP2 PUSH1 0x4 ADD SSTORE PUSH1 0xA0 DUP3 ADD MLOAD DUP2 PUSH1 0x5 ADD SSTORE PUSH1 0xC0 DUP3 ADD MLOAD DUP2 PUSH1 0x6 ADD SSTORE PUSH1 0xE0 DUP3 ADD MLOAD DUP2 PUSH1 0x7 ADD SSTORE PUSH2 0x100 DUP3 ADD MLOAD DUP2 PUSH1 0x8 ADD PUSH0 PUSH2 0x100 EXP DUP2 SLOAD DUP2 PUSH1 0xFF MUL NOT AND SWAP1 DUP4 ISZERO ISZERO MUL OR SWAP1 SSTORE POP PUSH2 0x120 DUP3 ADD MLOAD DUP2 PUSH1 0x8 ADD PUSH1 0x1 PUSH2 0x100 EXP DUP2 SLOAD DUP2 PUSH1 0xFF MUL NOT AND SWAP1 DUP4 ISZERO ISZERO MUL OR SWAP1 SSTORE POP POP POP PUSH0 PUSH1 0x1 PUSH1 0x4 DUP1 SLOAD SWAP1 POP PUSH2 0x230A SWAP2 SWAP1 PUSH2 0x4B20 JUMP JUMPDEST SWAP1 POP CALLER PUSH20 0xFFFFFFFFFFFFFFFFFFFFFFFFFFFFFFFFFFFFFFFF AND DUP2 PUSH32 0xF6CC19E46A340AB5888D736BFC79AEF72AE92D12D7B76319D72B0ABC170868E6 DUP7 DUP9 CALLVALUE PUSH1 0x40 MLOAD PUSH2 0x2357 SWAP4 SWAP3 SWAP2 SWAP1 PUSH2 0x5427 JUMP JUMPDEST PUSH1 0x40 MLOAD DUP1 SWAP2 SUB SWAP1 LOG3 POP POP POP POP POP POP JUMP JUMPDEST PUSH1 0x2 PUSH0 CALLER PUSH20 0xFFFFFFFFFFFFFFFFFFFFFFFFFFFFFFFFFFFFFFFF AND PUSH20 0xFFFFFFFFFFFFFFFFFFFFFFFFFFFFFFFFFFFFFFFF AND DUP2 MSTORE PUSH1 0x20 ADD SWAP1 DUP2 MSTORE PUSH1 0x20 ADD PUSH0 KECCAK256 PUSH1 0x40 MLOAD PUSH2 0x23B0 SWAP1 PUSH2 0x443B JUMP JUMPDEST SWAP1 DUP2 MSTORE PUSH1 0x20 ADD PUSH1 0x40 MLOAD DUP1 SWAP2 SUB SWAP1 KECCAK256 PUSH0 SWAP1 SLOAD SWAP1 PUSH2 0x100 EXP SWAP1 DIV PUSH1 0xFF AND PUSH2 0x240A JUMPI PUSH1 0x40 MLOAD PUSH32 0x8C379A000000000000000000000000000000000000000000000000000000000 DUP2 MSTORE PUSH1 0x4 ADD PUSH2 0x2401 SWAP1 PUSH2 0x44CF JUMP JUMPDEST PUSH1 0x40 MLOAD DUP1 SWAP2 SUB SWAP1 REVERT JUMPDEST PUSH2 0x2412 PUSH2 0x30D3 JUMP JUMPDEST PUSH2 0x241B CALLER PUSH2 0x3062 JUMP JUMPDEST PUSH2 0x2424 DUP2 PUSH2 0x312C JUMP JUMPDEST PUSH0 PUSH1 0x4 DUP3 DUP2 SLOAD DUP2 LT PUSH2 0x2439 JUMPI PUSH2 0x2438 PUSH2 0x4AF3 JUMP JUMPDEST JUMPDEST SWAP1 PUSH0 MSTORE PUSH1 0x20 PUSH0 KECCAK256 SWAP1 PUSH1 0x9 MUL ADD SWAP1 POP DUP1 PUSH1 0x8 ADD PUSH0 SWAP1 SLOAD SWAP1 PUSH2 0x100 EXP SWAP1 DIV PUSH1 0xFF AND ISZERO PUSH2 0x2498 JUMPI PUSH1 0x40 MLOAD PUSH32 0x8C379A000000000000000000000000000000000000000000000000000000000 DUP2 MSTORE PUSH1 0x4 ADD PUSH2 0x248F SWAP1 PUSH2 0x54A6 JUMP JUMPDEST PUSH1 0x40 MLOAD DUP1 SWAP2 SUB SWAP1 REVERT JUMPDEST DUP1 PUSH1 0x8 ADD PUSH1 0x1 SWAP1 SLOAD SWAP1 PUSH2 0x100 EXP SWAP1 DIV PUSH1 0xFF AND ISZERO PUSH2 0x24EA JUMPI PUSH1 0x40 MLOAD PUSH32 0x8C379A000000000000000000000000000000000000000000000000000000000 DUP2 MSTORE PUSH1 0x4 ADD PUSH2 0x24E1 SWAP1 PUSH2 0x550E JUMP JUMPDEST PUSH1 0x40 MLOAD DUP1 SWAP2 SUB SWAP1 REVERT JUMPDEST DUP1 PUSH1 0x1 ADD SLOAD SELFBALANCE LT ISZERO PUSH2 0x2531 JUMPI PUSH1 0x40 MLOAD PUSH32 0x8C379A000000000000000000000000000000000000000000000000000000000 DUP2 MSTORE PUSH1 0x4 ADD PUSH2 0x2528 SWAP1 PUSH2 0x5576 JUMP JUMPDEST PUSH1 0x40 MLOAD DUP1 SWAP2 SUB SWAP1 REVERT JUMPDEST PUSH2 0x2539 PUSH2 0x3176 JUMP JUMPDEST DUP2 PUSH1 0x3 ADD DUP2 SWAP1 SSTORE POP PUSH1 0x1 DUP2 PUSH1 0x8 ADD PUSH1 0x1 PUSH2 0x100 EXP DUP2 SLOAD DUP2 PUSH1 0xFF MUL NOT AND SWAP1 DUP4 ISZERO ISZERO MUL OR SWAP1 SSTORE POP PUSH0 DUP2 PUSH0 ADD PUSH0 SWAP1 SLOAD SWAP1 PUSH2 0x100 EXP SWAP1 DIV PUSH20 0xFFFFFFFFFFFFFFFFFFFFFFFFFFFFFFFFFFFFFFFF AND PUSH20 0xFFFFFFFFFFFFFFFFFFFFFFFFFFFFFFFFFFFFFFFF AND DUP3 PUSH1 0x1 ADD SLOAD PUSH1 0x40 MLOAD PUSH2 0x25A9 SWAP1 PUSH2 0x46E9 JUMP JUMPDEST PUSH0 PUSH1 0x40 MLOAD DUP1 DUP4 SUB DUP2 DUP6 DUP8 GAS CALL SWAP3 POP POP POP RETURNDATASIZE DUP1 PUSH0 DUP2 EQ PUSH2 0x25E3 JUMPI PUSH1 0x40 MLOAD SWAP2 POP PUSH1 0x1F NOT PUSH1 0x3F RETURNDATASIZE ADD AND DUP3 ADD PUSH1 0x40 MSTORE RETURNDATASIZE DUP3 MSTORE RETURNDATASIZE PUSH0 PUSH1 0x20 DUP5 ADD RETURNDATACOPY PUSH2 0x25E8 JUMP JUMPDEST PUSH1 0x60 SWAP2 POP JUMPDEST POP POP SWAP1 POP DUP1 PUSH2 0x262C JUMPI PUSH1 0x40 MLOAD PUSH32 0x8C379A000000000000000000000000000000000000000000000000000000000 DUP2 MSTORE PUSH1 0x4 ADD PUSH2 0x2623 SWAP1 PUSH2 0x55DE JUMP JUMPDEST PUSH1 0x40 MLOAD DUP1 SWAP2 SUB SWAP1 REVERT JUMPDEST DUP2 PUSH0 ADD PUSH0 SWAP1 SLOAD SWAP1 PUSH2 0x100 EXP SWAP1 DIV PUSH20 0xFFFFFFFFFFFFFFFFFFFFFFFFFFFFFFFFFFFFFFFF AND PUSH20 0xFFFFFFFFFFFFFFFFFFFFFFFFFFFFFFFFFFFFFFFF AND DUP4 PUSH32 0x2B993938BAA27C88E77A207903D275C96FA30AE5949A3EA5CD56E466E4F5C891 DUP5 PUSH1 0x3 ADD SLOAD PUSH1 0x40 MLOAD PUSH2 0x2699 SWAP2 SWAP1 PUSH2 0x40AE JUMP JUMPDEST PUSH1 0x40 MLOAD DUP1 SWAP2 SUB SWAP1 LOG3 DUP2 PUSH0 ADD PUSH0 SWAP1 SLOAD SWAP1 PUSH2 0x100 EXP SWAP1 DIV PUSH20 0xFFFFFFFFFFFFFFFFFFFFFFFFFFFFFFFFFFFFFFFF AND PUSH20 0xFFFFFFFFFFFFFFFFFFFFFFFFFFFFFFFFFFFFFFFF AND DUP4 PUSH32 0xCEEB4503A2FE0B51298A0AF21358F3D89E7EAB3F65AE2A7835859C3E2C51604 DUP5 PUSH1 0x1 ADD SLOAD PUSH1 0x40 MLOAD PUSH2 0x270E SWAP2 SWAP1 PUSH2 0x40AE JUMP JUMPDEST PUSH1 0x40 MLOAD DUP1 SWAP2 SUB SWAP1 LOG3 POP POP PUSH2 0x2720 PUSH2 0x3122 JUMP JUMPDEST POP JUMP JUMPDEST PUSH1 0x9 SLOAD DUP2 JUMP JUMPDEST PUSH1 0x2 PUSH0 CALLER PUSH20 0xFFFFFFFFFFFFFFFFFFFFFFFFFFFFFFFFFFFFFFFF AND PUSH20 0xFFFFFFFFFFFFFFFFFFFFFFFFFFFFFFFFFFFFFFFF AND DUP2 MSTORE PUSH1 0x20 ADD SWAP1 DUP2 MSTORE PUSH1 0x20 ADD PUSH0 KECCAK256 PUSH1 0x40 MLOAD PUSH2 0x2772 SWAP1 PUSH2 0x443B JUMP JUMPDEST SWAP1 DUP2 MSTORE PUSH1 0x20 ADD PUSH1 0x40 MLOAD DUP1 SWAP2 SUB SWAP1 KECCAK256 PUSH0 SWAP1 SLOAD SWAP1 PUSH2 0x100 EXP SWAP1 DIV PUSH1 0xFF AND PUSH2 0x27CC JUMPI PUSH1 0x40 MLOAD PUSH32 0x8C379A000000000000000000000000000000000000000000000000000000000 DUP2 MSTORE PUSH1 0x4 ADD PUSH2 0x27C3 SWAP1 PUSH2 0x44CF JUMP JUMPDEST PUSH1 0x40 MLOAD DUP1 SWAP2 SUB SWAP1 REVERT JUMPDEST PUSH2 0x27D5 CALLER PUSH2 0x3062 JUMP JUMPDEST PUSH2 0x1388 DUP2 GT ISZERO PUSH2 0x281A JUMPI PUSH1 0x40 MLOAD PUSH32 0x8C379A000000000000000000000000000000000000000000000000000000000 DUP2 MSTORE PUSH1 0x4 ADD PUSH2 0x2811 SWAP1 PUSH2 0x5646 JUMP JUMPDEST PUSH1 0x40 MLOAD DUP1 SWAP2 SUB SWAP1 REVERT JUMPDEST PUSH0 PUSH1 0x8 SLOAD SWAP1 POP DUP2 PUSH1 0x8 DUP2 SWAP1 SSTORE POP PUSH32 0x38FC5525C7AB9850422E6F2CD4B086B0B50F1235A0D8DDEB7B43F61B9A5BFB05 DUP2 DUP4 PUSH1 0x40 MLOAD PUSH2 0x2858 SWAP3 SWAP2 SWAP1 PUSH2 0x45E3 JUMP JUMPDEST PUSH1 0x40 MLOAD DUP1 SWAP2 SUB SWAP1 LOG1 POP POP JUMP JUMPDEST PUSH1 0x7 SLOAD DUP2 JUMP JUMPDEST PUSH1 0x8 SLOAD DUP2 JUMP JUMPDEST PUSH1 0x4 DUP2 DUP2 SLOAD DUP2 LT PUSH2 0x287F JUMPI PUSH0 DUP1 REVERT JUMPDEST SWAP1 PUSH0 MSTORE PUSH1 0x20 PUSH0 KECCAK256 SWAP1 PUSH1 0x9 MUL ADD PUSH0 SWAP2 POP SWAP1 POP DUP1 PUSH0 ADD PUSH0 SWAP1 SLOAD SWAP1 PUSH2 0x100 EXP SWAP1 DIV PUSH20 0xFFFFFFFFFFFFFFFFFFFFFFFFFFFFFFFFFFFFFFFF AND SWAP1 DUP1 PUSH1 0x1 ADD SLOAD SWAP1 DUP1 PUSH1 0x2 ADD SLOAD SWAP1 DUP1 PUSH1 0x3 ADD SLOAD SWAP1 DUP1 PUSH1 0x4 ADD SLOAD SWAP1 DUP1 PUSH1 0x5 ADD SLOAD SWAP1 DUP1 PUSH1 0x6 ADD SLOAD SWAP1 DUP1 PUSH1 0x7 ADD SLOAD SWAP1 DUP1 PUSH1 0x8 ADD PUSH0 SWAP1 SLOAD SWAP1 PUSH2 0x100 EXP SWAP1 DIV PUSH1 0xFF AND SWAP1 DUP1 PUSH1 0x8 ADD PUSH1 0x1 SWAP1 SLOAD SWAP1 PUSH2 0x100 EXP SWAP1 DIV PUSH1 0xFF AND SWAP1 POP DUP11 JUMP JUMPDEST PUSH1 0x2 PUSH0 CALLER PUSH20 0xFFFFFFFFFFFFFFFFFFFFFFFFFFFFFFFFFFFFFFFF AND PUSH20 0xFFFFFFFFFFFFFFFFFFFFFFFFFFFFFFFFFFFFFFFF AND DUP2 MSTORE PUSH1 0x20 ADD SWAP1 DUP2 MSTORE PUSH1 0x20 ADD PUSH0 KECCAK256 PUSH1 0x40 MLOAD PUSH2 0x2950 SWAP1 PUSH2 0x443B JUMP JUMPDEST SWAP1 DUP2 MSTORE PUSH1 0x20 ADD PUSH1 0x40 MLOAD DUP1 SWAP2 SUB SWAP1 KECCAK256 PUSH0 SWAP1 SLOAD SWAP1 PUSH2 0x100 EXP SWAP1 DIV PUSH1 0xFF AND ISZERO PUSH2 0x29AB JUMPI PUSH1 0x40 MLOAD PUSH32 0x8C379A000000000000000000000000000000000000000000000000000000000 DUP2 MSTORE PUSH1 0x4 ADD PUSH2 0x29A2 SWAP1 PUSH2 0x4A47 JUMP JUMPDEST PUSH1 0x40 MLOAD DUP1 SWAP2 SUB SWAP1 REVERT JUMPDEST PUSH0 PUSH0 SWAP1 SLOAD SWAP1 PUSH2 0x100 EXP SWAP1 DIV PUSH20 0xFFFFFFFFFFFFFFFFFFFFFFFFFFFFFFFFFFFFFFFF AND PUSH20 0xFFFFFFFFFFFFFFFFFFFFFFFFFFFFFFFFFFFFFFFF AND CALLER PUSH20 0xFFFFFFFFFFFFFFFFFFFFFFFFFFFFFFFFFFFFFFFF AND SUB PUSH2 0x2A39 JUMPI PUSH1 0x40 MLOAD PUSH32 0x8C379A000000000000000000000000000000000000000000000000000000000 DUP2 MSTORE PUSH1 0x4 ADD PUSH2 0x2A30 SWAP1 PUSH2 0x4AD5 JUMP JUMPDEST PUSH1 0x40 MLOAD DUP1 SWAP2 SUB SWAP1 REVERT JUMPDEST PUSH2 0x2A41 PUSH2 0x30D3 JUMP JUMPDEST PUSH2 0x2A4A CALLER PUSH2 0x3062 JUMP JUMPDEST PUSH2 0x2A53 DUP3 PUSH2 0x312C JUMP JUMPDEST PUSH0 PUSH1 0x4 DUP4 DUP2 SLOAD DUP2 LT PUSH2 0x2A68 JUMPI PUSH2 0x2A67 PUSH2 0x4AF3 JUMP JUMPDEST JUMPDEST SWAP1 PUSH0 MSTORE PUSH1 0x20 PUSH0 KECCAK256 SWAP1 PUSH1 0x9 MUL ADD SWAP1 POP DUP1 PUSH1 0x8 ADD PUSH1 0x1 SWAP1 SLOAD SWAP1 PUSH2 0x100 EXP SWAP1 DIV PUSH1 0xFF AND DUP1 ISZERO PUSH2 0x2AA2 JUMPI POP DUP1 PUSH1 0x8 ADD PUSH0 SWAP1 SLOAD SWAP1 PUSH2 0x100 EXP SWAP1 DIV PUSH1 0xFF AND ISZERO JUMPDEST PUSH2 0x2AE1 JUMPI PUSH1 0x40 MLOAD PUSH32 0x8C379A000000000000000000000000000000000000000000000000000000000 DUP2 MSTORE PUSH1 0x4 ADD PUSH2 0x2AD8 SWAP1 PUSH2 0x56AE JUMP JUMPDEST PUSH1 0x40 MLOAD DUP1 SWAP2 SUB SWAP1 REVERT JUMPDEST DUP1 PUSH0 ADD PUSH0 SWAP1 SLOAD SWAP1 PUSH2 0x100 EXP SWAP1 DIV PUSH20 0xFFFFFFFFFFFFFFFFFFFFFFFFFFFFFFFFFFFFFFFF AND PUSH20 0xFFFFFFFFFFFFFFFFFFFFFFFFFFFFFFFFFFFFFFFF AND CALLER PUSH20 0xFFFFFFFFFFFFFFFFFFFFFFFFFFFFFFFFFFFFFFFF AND EQ PUSH2 0x2B71 JUMPI PUSH1 0x40 MLOAD PUSH32 0x8C379A000000000000000000000000000000000000000000000000000000000 DUP2 MSTORE PUSH1 0x4 ADD PUSH2 0x2B68 SWAP1 PUSH2 0x5716 JUMP JUMPDEST PUSH1 0x40 MLOAD DUP1 SWAP2 SUB SWAP1 REVERT JUMPDEST PUSH0 DUP3 GT PUSH2 0x2BB3 JUMPI PUSH1 0x40 MLOAD PUSH32 0x8C379A000000000000000000000000000000000000000000000000000000000 DUP2 MSTORE PUSH1 0x4 ADD PUSH2 0x2BAA SWAP1 PUSH2 0x577E JUMP JUMPDEST PUSH1 0x40 MLOAD DUP1 SWAP2 SUB SWAP1 REVERT JUMPDEST DUP1 PUSH1 0x2 ADD SLOAD DUP3 DUP3 PUSH1 0x4 ADD SLOAD PUSH2 0x2BC8 SWAP2 SWAP1 PUSH2 0x4B53 JUMP JUMPDEST GT ISZERO PUSH2 0x2C09 JUMPI PUSH1 0x40 MLOAD PUSH32 0x8C379A000000000000000000000000000000000000000000000000000000000 DUP2 MSTORE PUSH1 0x4 ADD PUSH2 0x2C00 SWAP1 PUSH2 0x57E6 JUMP JUMPDEST PUSH1 0x40 MLOAD DUP1 SWAP2 SUB SWAP1 REVERT JUMPDEST PUSH0 PUSH2 0x2C1F DUP3 PUSH1 0x3 ADD SLOAD PUSH2 0x2C1A PUSH2 0x3176 JUMP JUMPDEST PUSH2 0x317D JUMP JUMPDEST SWAP1 POP DUP2 PUSH1 0x2 ADD SLOAD DUP3 PUSH1 0x4 ADD SLOAD LT PUSH2 0x2C6B JUMPI PUSH1 0x40 MLOAD PUSH32 0x8C379A000000000000000000000000000000000000000000000000000000000 DUP2 MSTORE PUSH1 0x4 ADD PUSH2 0x2C62 SWAP1 PUSH2 0x584E JUMP JUMPDEST PUSH1 0x40 MLOAD DUP1 SWAP2 SUB SWAP1 REVERT JUMPDEST PUSH0 PUSH2 0x2C75 DUP6 PUSH2 0x3F34 JUMP JUMPDEST SWAP1 POP PUSH0 DUP4 PUSH1 0x4 ADD SLOAD SWAP1 POP PUSH0 DUP4 SWAP1 POP PUSH0 PUSH0 SWAP1 POP DUP3 DUP3 GT ISZERO PUSH2 0x2CC7 JUMPI PUSH0 DUP4 DUP4 PUSH2 0x2C9C SWAP2 SWAP1 PUSH2 0x4B20 JUMP JUMPDEST SWAP1 POP DUP1 PUSH1 0x64 PUSH1 0x6 SLOAD DUP8 PUSH2 0x2CAF SWAP2 SWAP1 PUSH2 0x5321 JUMP JUMPDEST PUSH2 0x2CB9 SWAP2 SWAP1 PUSH2 0x538F JUMP JUMPDEST PUSH2 0x2CC3 SWAP2 SWAP1 PUSH2 0x5321 JUMP JUMPDEST SWAP2 POP POP JUMPDEST PUSH0 DUP2 DUP6 PUSH2 0x2CD4 SWAP2 SWAP1 PUSH2 0x4B53 JUMP JUMPDEST SWAP1 POP PUSH1 0x1 DUP9 GT ISZERO PUSH2 0x2D05 JUMPI PUSH1 0x1 DUP9 PUSH2 0x2CEC SWAP2 SWAP1 PUSH2 0x4B20 JUMP JUMPDEST DUP6 PUSH2 0x2CF7 SWAP2 SWAP1 PUSH2 0x5321 JUMP JUMPDEST DUP2 PUSH2 0x2D02 SWAP2 SWAP1 PUSH2 0x4B53 JUMP JUMPDEST SWAP1 POP JUMPDEST DUP1 CALLVALUE EQ PUSH2 0x2D47 JUMPI PUSH1 0x40 MLOAD PUSH32 0x8C379A000000000000000000000000000000000000000000000000000000000 DUP2 MSTORE PUSH1 0x4 ADD PUSH2 0x2D3E SWAP1 PUSH2 0x58DC JUMP JUMPDEST PUSH1 0x40 MLOAD DUP1 SWAP2 SUB SWAP1 REVERT JUMPDEST PUSH0 PUSH0 SWAP1 POP JUMPDEST DUP9 DUP2 LT ISZERO PUSH2 0x2EAB JUMPI PUSH0 PUSH0 DUP3 EQ PUSH2 0x2D62 JUMPI DUP7 PUSH2 0x2D6F JUMP JUMPDEST DUP4 DUP8 PUSH2 0x2D6E SWAP2 SWAP1 PUSH2 0x4B53 JUMP JUMPDEST JUMPDEST SWAP1 POP PUSH0 PUSH1 0x64 PUSH1 0x5 SLOAD DUP12 PUSH1 0x1 ADD SLOAD PUSH2 0x2D86 SWAP2 SWAP1 PUSH2 0x5321 JUMP JUMPDEST PUSH2 0x2D90 SWAP2 SWAP1 PUSH2 0x538F JUMP JUMPDEST SWAP1 POP PUSH0 DUP2 DUP10 PUSH2 0x2D9F SWAP2 SWAP1 PUSH2 0x4B20 JUMP JUMPDEST SWAP1 POP PUSH0 DUP5 SUB PUSH2 0x2DD0 JUMPI DUP6 DUP3 PUSH2 0x2DB4 SWAP2 SWAP1 PUSH2 0x4B53 JUMP JUMPDEST PUSH1 0x9 PUSH0 DUP3 DUP3 SLOAD PUSH2 0x2DC4 SWAP2 SWAP1 PUSH2 0x4B53 JUMP JUMPDEST SWAP3 POP POP DUP2 SWAP1 SSTORE POP PUSH2 0x2DE9 JUMP JUMPDEST DUP2 PUSH1 0x9 PUSH0 DUP3 DUP3 SLOAD PUSH2 0x2DE1 SWAP2 SWAP1 PUSH2 0x4B53 JUMP JUMPDEST SWAP3 POP POP DUP2 SWAP1 SSTORE POP JUMPDEST DUP11 PUSH1 0x6 ADD SLOAD DUP2 GT ISZERO PUSH2 0x2DFD JUMPI DUP11 PUSH1 0x6 ADD SLOAD SWAP1 POP JUMPDEST DUP1 DUP12 PUSH1 0x6 ADD PUSH0 DUP3 DUP3 SLOAD PUSH2 0x2E10 SWAP2 SWAP1 PUSH2 0x4B20 JUMP JUMPDEST SWAP3 POP POP DUP2 SWAP1 SSTORE POP PUSH1 0x1 DUP12 PUSH1 0x4 ADD PUSH0 DUP3 DUP3 SLOAD PUSH2 0x2E2B SWAP2 SWAP1 PUSH2 0x4B53 JUMP JUMPDEST SWAP3 POP POP DUP2 SWAP1 SSTORE POP DUP11 PUSH1 0x2 ADD SLOAD DUP12 PUSH1 0x4 ADD SLOAD LT ISZERO DUP1 PUSH2 0x2E4C JUMPI POP PUSH0 DUP12 PUSH1 0x6 ADD SLOAD EQ JUMPDEST ISZERO PUSH2 0x2E59 JUMPI POP POP POP PUSH2 0x2EAB JUMP JUMPDEST PUSH0 DUP4 EQ PUSH2 0x2E9B JUMPI PUSH1 0x40 MLOAD PUSH32 0x8C379A000000000000000000000000000000000000000000000000000000000 DUP2 MSTORE PUSH1 0x4 ADD PUSH2 0x2E92 SWAP1 PUSH2 0x591A JUMP JUMPDEST PUSH1 0x40 MLOAD DUP1 SWAP2 SUB SWAP1 REVERT JUMPDEST POP POP POP DUP1 DUP1 PUSH1 0x1 ADD SWAP2 POP POP PUSH2 0x2D4C JUMP JUMPDEST POP PUSH0 DUP8 PUSH1 0x5 ADD DUP2 SWAP1 SSTORE POP CALLER PUSH20 0xFFFFFFFFFFFFFFFFFFFFFFFFFFFFFFFFFFFFFFFF AND DUP10 PUSH32 0x41E038704BF70CE2E97DCDDC75986A8DEC282D710422669D04A1D908FF94B34 CALLVALUE DUP11 PUSH1 0x4 ADD SLOAD PUSH1 0x40 MLOAD PUSH2 0x2F02 SWAP3 SWAP2 SWAP1 PUSH2 0x45E3 JUMP JUMPDEST PUSH1 0x40 MLOAD DUP1 SWAP2 SUB SWAP1 LOG3 DUP7 PUSH1 0x2 ADD SLOAD DUP8 PUSH1 0x4 ADD SLOAD LT ISZERO DUP1 PUSH2 0x2F24 JUMPI POP PUSH0 DUP8 PUSH1 0x6 ADD SLOAD EQ JUMPDEST ISZERO PUSH2 0x302C JUMPI PUSH0 DUP8 PUSH1 0x8 ADD PUSH1 0x1 PUSH2 0x100 EXP DUP2 SLOAD DUP2 PUSH1 0xFF MUL NOT AND SWAP1 DUP4 ISZERO ISZERO MUL OR SWAP1 SSTORE POP PUSH0 DUP8 PUSH1 0x7 ADD SLOAD SWAP1 POP PUSH0 DUP9 PUSH1 0x7 ADD DUP2 SWAP1 SSTORE POP PUSH0 DUP2 GT ISZERO PUSH2 0x302A JUMPI PUSH0 DUP9 PUSH0 ADD PUSH0 SWAP1 SLOAD SWAP1 PUSH2 0x100 EXP SWAP1 DIV PUSH20 0xFFFFFFFFFFFFFFFFFFFFFFFFFFFFFFFFFFFFFFFF AND PUSH20 0xFFFFFFFFFFFFFFFFFFFFFFFFFFFFFFFFFFFFFFFF AND DUP3 PUSH1 0x40 MLOAD PUSH2 0x2FA5 SWAP1 PUSH2 0x46E9 JUMP JUMPDEST PUSH0 PUSH1 0x40 MLOAD DUP1 DUP4 SUB DUP2 DUP6 DUP8 GAS CALL SWAP3 POP POP POP RETURNDATASIZE DUP1 PUSH0 DUP2 EQ PUSH2 0x2FDF JUMPI PUSH1 0x40 MLOAD SWAP2 POP PUSH1 0x1F NOT PUSH1 0x3F RETURNDATASIZE ADD AND DUP3 ADD PUSH1 0x40 MSTORE RETURNDATASIZE DUP3 MSTORE RETURNDATASIZE PUSH0 PUSH1 0x20 DUP5 ADD RETURNDATACOPY PUSH2 0x2FE4 JUMP JUMPDEST PUSH1 0x60 SWAP2 POP JUMPDEST POP POP SWAP1 POP DUP1 PUSH2 0x3028 JUMPI PUSH1 0x40 MLOAD PUSH32 0x8C379A000000000000000000000000000000000000000000000000000000000 DUP2 MSTORE PUSH1 0x4 ADD PUSH2 0x301F SWAP1 PUSH2 0x5982 JUMP JUMPDEST PUSH1 0x40 MLOAD DUP1 SWAP2 SUB SWAP1 REVERT JUMPDEST POP JUMPDEST POP JUMPDEST POP POP POP POP POP POP POP PUSH2 0x303B PUSH2 0x3122 JUMP JUMPDEST POP POP JUMP JUMPDEST PUSH1 0x5 SLOAD DUP2 JUMP JUMPDEST PUSH1 0xB PUSH1 0x20 MSTORE DUP1 PUSH0 MSTORE PUSH1 0x40 PUSH0 KECCAK256 PUSH0 SWAP2 POP SLOAD SWAP1 PUSH2 0x100 EXP SWAP1 DIV PUSH1 0xFF AND DUP2 JUMP JUMPDEST PUSH0 PUSH20 0xFFFFFFFFFFFFFFFFFFFFFFFFFFFFFFFFFFFFFFFF AND DUP2 PUSH20 0xFFFFFFFFFFFFFFFFFFFFFFFFFFFFFFFFFFFFFFFF AND SUB PUSH2 0x30D0 JUMPI PUSH1 0x40 MLOAD PUSH32 0x8C379A000000000000000000000000000000000000000000000000000000000 DUP2 MSTORE PUSH1 0x4 ADD PUSH2 0x30C7 SWAP1 PUSH2 0x5A10 JUMP JUMPDEST PUSH1 0x40 MLOAD DUP1 SWAP2 SUB SWAP1 REVERT JUMPDEST POP JUMP JUMPDEST PUSH1 0x2 PUSH1 0x3 SLOAD SUB PUSH2 0x3118 JUMPI PUSH1 0x40 MLOAD PUSH32 0x8C379A000000000000000000000000000000000000000000000000000000000 DUP2 MSTORE PUSH1 0x4 ADD PUSH2 0x310F SWAP1 PUSH2 0x5A78 JUMP JUMPDEST PUSH1 0x40 MLOAD DUP1 SWAP2 SUB SWAP1 REVERT JUMPDEST PUSH1 0x2 PUSH1 0x3 DUP2 SWAP1 SSTORE POP JUMP JUMPDEST PUSH1 0x1 PUSH1 0x3 DUP2 SWAP1 SSTORE POP JUMP JUMPDEST PUSH1 0x4 DUP1 SLOAD SWAP1 POP DUP2 LT PUSH2 0x3173 JUMPI PUSH1 0x40 MLOAD PUSH32 0x8C379A000000000000000000000000000000000000000000000000000000000 DUP2 MSTORE PUSH1 0x4 ADD PUSH2 0x316A SWAP1 PUSH2 0x5AE0 JUMP JUMPDEST PUSH1 0x40 MLOAD DUP1 SWAP2 SUB SWAP1 REVERT JUMPDEST POP JUMP JUMPDEST PUSH0 TIMESTAMP SWAP1 POP SWAP1 JUMP JUMPDEST PUSH0 DUP3 DUP3 GT PUSH2 0x318D JUMPI PUSH0 SWAP1 POP PUSH2 0x31AF JUMP JUMPDEST PUSH0 PUSH3 0x278D00 SWAP1 POP DUP1 DUP5 DUP5 PUSH2 0x31A1 SWAP2 SWAP1 PUSH2 0x4B20 JUMP JUMPDEST PUSH2 0x31AB SWAP2 SWAP1 PUSH2 0x538F JUMP JUMPDEST SWAP2 POP POP JUMPDEST SWAP3 SWAP2 POP POP JUMP JUMPDEST PUSH2 0x31BE DUP3 PUSH2 0x312C JUMP JUMPDEST PUSH0 PUSH1 0x4 DUP4 DUP2 SLOAD DUP2 LT PUSH2 0x31D3 JUMPI PUSH2 0x31D2 PUSH2 0x4AF3 JUMP JUMPDEST JUMPDEST SWAP1 PUSH0 MSTORE PUSH1 0x20 PUSH0 KECCAK256 SWAP1 PUSH1 0x9 MUL ADD SWAP1 POP DUP1 PUSH1 0x8 ADD PUSH0 SWAP1 SLOAD SWAP1 PUSH2 0x100 EXP SWAP1 DIV PUSH1 0xFF AND DUP1 PUSH2 0x320C JUMPI POP DUP1 PUSH1 0x8 ADD PUSH1 0x1 SWAP1 SLOAD SWAP1 PUSH2 0x100 EXP SWAP1 DIV PUSH1 0xFF AND ISZERO JUMPDEST ISZERO PUSH2 0x3217 JUMPI POP PUSH2 0x38DC JUMP JUMPDEST PUSH0 DUP3 SWAP1 POP DUP2 PUSH1 0x2 ADD SLOAD DUP2 DUP4 PUSH1 0x4 ADD SLOAD PUSH2 0x3230 SWAP2 SWAP1 PUSH2 0x4B53 JUMP JUMPDEST GT ISZERO PUSH2 0x324D JUMPI DUP2 PUSH1 0x4 ADD SLOAD DUP3 PUSH1 0x2 ADD SLOAD PUSH2 0x324A SWAP2 SWAP1 PUSH2 0x4B20 JUMP JUMPDEST SWAP1 POP JUMPDEST PUSH0 DUP2 SUB PUSH2 0x325B JUMPI POP POP PUSH2 0x38DC JUMP JUMPDEST PUSH0 PUSH2 0x3265 DUP6 PUSH2 0x3F34 JUMP JUMPDEST SWAP1 POP PUSH0 DUP3 DUP3 PUSH2 0x3274 SWAP2 SWAP1 PUSH2 0x5321 JUMP JUMPDEST SWAP1 POP PUSH0 PUSH1 0x64 PUSH1 0x6 SLOAD DUP4 PUSH2 0x3287 SWAP2 SWAP1 PUSH2 0x5321 JUMP JUMPDEST PUSH2 0x3291 SWAP2 SWAP1 PUSH2 0x538F JUMP JUMPDEST SWAP1 POP PUSH0 DUP2 DUP4 PUSH2 0x32A0 SWAP2 SWAP1 PUSH2 0x4B53 JUMP JUMPDEST SWAP1 POP PUSH0 PUSH0 SWAP1 POP PUSH0 PUSH0 SWAP1 POP PUSH0 PUSH0 SWAP1 POP DUP4 DUP10 PUSH1 0x7 ADD SLOAD LT PUSH2 0x337F JUMPI DUP4 SWAP3 POP PUSH0 PUSH1 0x64 PUSH1 0x5 SLOAD DUP12 PUSH1 0x1 ADD SLOAD PUSH2 0x32D1 SWAP2 SWAP1 PUSH2 0x5321 JUMP JUMPDEST PUSH2 0x32DB SWAP2 SWAP1 PUSH2 0x538F JUMP JUMPDEST SWAP1 POP PUSH0 DUP10 DUP3 PUSH2 0x32EA SWAP2 SWAP1 PUSH2 0x5321 JUMP JUMPDEST SWAP1 POP DUP7 DUP2 PUSH2 0x32F8 SWAP2 SWAP1 PUSH2 0x4B53 JUMP JUMPDEST PUSH1 0x9 PUSH0 DUP3 DUP3 SLOAD PUSH2 0x3308 SWAP2 SWAP1 PUSH2 0x4B53 JUMP JUMPDEST SWAP3 POP POP DUP2 SWAP1 SSTORE POP PUSH0 DUP11 DUP4 PUSH2 0x331C SWAP2 SWAP1 PUSH2 0x5321 JUMP JUMPDEST DUP10 PUSH2 0x3327 SWAP2 SWAP1 PUSH2 0x4B20 JUMP JUMPDEST SWAP1 POP DUP12 PUSH1 0x6 ADD SLOAD DUP2 GT ISZERO PUSH2 0x333D JUMPI DUP12 PUSH1 0x6 ADD SLOAD SWAP1 POP JUMPDEST DUP1 DUP13 PUSH1 0x6 ADD PUSH0 DUP3 DUP3 SLOAD PUSH2 0x3350 SWAP2 SWAP1 PUSH2 0x4B20 JUMP JUMPDEST SWAP3 POP POP DUP2 SWAP1 SSTORE POP DUP6 DUP13 PUSH1 0x7 ADD PUSH0 DUP3 DUP3 SLOAD PUSH2 0x336A SWAP2 SWAP1 PUSH2 0x4B20 JUMP JUMPDEST SWAP3 POP POP DUP2 SWAP1 SSTORE POP PUSH0 SWAP5 POP PUSH0 SWAP4 POP POP POP POP PUSH2 0x353B JUMP JUMPDEST DUP9 PUSH1 0x7 ADD SLOAD SWAP3 POP PUSH0 DUP4 SWAP1 POP PUSH0 DUP11 PUSH1 0x6 ADD SLOAD SWAP1 POP PUSH0 DUP2 SWAP1 POP DUP3 DUP2 GT ISZERO PUSH2 0x33C5 JUMPI PUSH0 DUP4 SWAP1 POP DUP1 DUP14 PUSH1 0x6 ADD PUSH0 DUP3 DUP3 SLOAD PUSH2 0x33B5 SWAP2 SWAP1 PUSH2 0x4B20 JUMP JUMPDEST SWAP3 POP POP DUP2 SWAP1 SSTORE POP PUSH0 SWAP4 POP POP PUSH2 0x3450 JUMP JUMPDEST PUSH0 DUP12 DUP14 PUSH1 0x2 ADD SLOAD DUP15 PUSH1 0x1 ADD SLOAD PUSH2 0x33DB SWAP2 SWAP1 PUSH2 0x538F JUMP JUMPDEST PUSH2 0x33E5 SWAP2 SWAP1 PUSH2 0x5321 JUMP JUMPDEST SWAP1 POP DUP13 PUSH1 0x6 ADD SLOAD DUP2 GT ISZERO PUSH2 0x33FB JUMPI DUP13 PUSH1 0x6 ADD SLOAD SWAP1 POP JUMPDEST DUP4 DUP2 GT ISZERO PUSH2 0x3425 JUMPI DUP4 DUP14 PUSH1 0x6 ADD PUSH0 DUP3 DUP3 SLOAD PUSH2 0x3416 SWAP2 SWAP1 PUSH2 0x4B20 JUMP JUMPDEST SWAP3 POP POP DUP2 SWAP1 SSTORE POP PUSH0 SWAP4 POP PUSH2 0x344E JUMP JUMPDEST DUP1 DUP14 PUSH1 0x6 ADD PUSH0 DUP3 DUP3 SLOAD PUSH2 0x3438 SWAP2 SWAP1 PUSH2 0x4B20 JUMP JUMPDEST SWAP3 POP POP DUP2 SWAP1 SSTORE POP DUP1 DUP5 PUSH2 0x344B SWAP2 SWAP1 PUSH2 0x4B20 JUMP JUMPDEST SWAP4 POP JUMPDEST POP JUMPDEST PUSH0 PUSH1 0x64 PUSH1 0x5 SLOAD DUP15 PUSH1 0x1 ADD SLOAD PUSH2 0x3465 SWAP2 SWAP1 PUSH2 0x5321 JUMP JUMPDEST PUSH2 0x346F SWAP2 SWAP1 PUSH2 0x538F JUMP JUMPDEST SWAP1 POP PUSH0 DUP13 DUP3 PUSH2 0x347E SWAP2 SWAP1 PUSH2 0x5321 JUMP JUMPDEST SWAP1 POP PUSH0 PUSH1 0x64 PUSH1 0x6 SLOAD DUP16 DUP16 PUSH2 0x3492 SWAP2 SWAP1 PUSH2 0x5321 JUMP JUMPDEST PUSH2 0x349C SWAP2 SWAP1 PUSH2 0x5321 JUMP JUMPDEST PUSH2 0x34A6 SWAP2 SWAP1 PUSH2 0x538F JUMP JUMPDEST DUP3 PUSH2 0x34B1 SWAP2 SWAP1 PUSH2 0x4B53 JUMP JUMPDEST SWAP1 POP DUP1 DUP7 LT PUSH2 0x34F3 JUMPI DUP1 PUSH1 0x9 PUSH0 DUP3 DUP3 SLOAD PUSH2 0x34CB SWAP2 SWAP1 PUSH2 0x4B53 JUMP JUMPDEST SWAP3 POP POP DUP2 SWAP1 SSTORE POP DUP1 DUP7 PUSH2 0x34DE SWAP2 SWAP1 PUSH2 0x4B20 JUMP JUMPDEST SWAP6 POP DUP6 DUP9 PUSH2 0x34EC SWAP2 SWAP1 PUSH2 0x4B53 JUMP JUMPDEST SWAP8 POP PUSH2 0x350F JUMP JUMPDEST DUP6 PUSH1 0x9 PUSH0 DUP3 DUP3 SLOAD PUSH2 0x3504 SWAP2 SWAP1 PUSH2 0x4B53 JUMP JUMPDEST SWAP3 POP POP DUP2 SWAP1 SSTORE POP PUSH0 SWAP6 POP JUMPDEST PUSH0 DUP16 PUSH1 0x7 ADD DUP2 SWAP1 SSTORE POP DUP9 DUP11 GT PUSH2 0x3525 JUMPI PUSH0 PUSH2 0x3532 JUMP JUMPDEST DUP9 DUP11 PUSH2 0x3531 SWAP2 SWAP1 PUSH2 0x4B20 JUMP JUMPDEST JUMPDEST SWAP7 POP POP POP POP POP POP POP JUMPDEST DUP8 DUP10 PUSH1 0x4 ADD PUSH0 DUP3 DUP3 SLOAD PUSH2 0x354E SWAP2 SWAP1 PUSH2 0x4B53 JUMP JUMPDEST SWAP3 POP POP DUP2 SWAP1 SSTORE POP DUP9 PUSH1 0x2 ADD SLOAD DUP10 PUSH1 0x4 ADD SLOAD GT ISZERO PUSH2 0x3573 JUMPI DUP9 PUSH1 0x2 ADD SLOAD DUP10 PUSH1 0x4 ADD DUP2 SWAP1 SSTORE POP JUMPDEST PUSH0 DUP10 PUSH1 0x5 ADD DUP2 SWAP1 SSTORE POP PUSH1 0x1 PUSH1 0xC PUSH0 DUP12 PUSH0 ADD PUSH0 SWAP1 SLOAD SWAP1 PUSH2 0x100 EXP SWAP1 DIV PUSH20 0xFFFFFFFFFFFFFFFFFFFFFFFFFFFFFFFFFFFFFFFF AND PUSH20 0xFFFFFFFFFFFFFFFFFFFFFFFFFFFFFFFFFFFFFFFF AND PUSH20 0xFFFFFFFFFFFFFFFFFFFFFFFFFFFFFFFFFFFFFFFF AND DUP2 MSTORE PUSH1 0x20 ADD SWAP1 DUP2 MSTORE PUSH1 0x20 ADD PUSH0 KECCAK256 PUSH0 DUP3 DUP3 SLOAD PUSH2 0x35EB SWAP2 SWAP1 PUSH2 0x4B53 JUMP JUMPDEST SWAP3 POP POP DUP2 SWAP1 SSTORE POP DUP9 PUSH0 ADD PUSH0 SWAP1 SLOAD SWAP1 PUSH2 0x100 EXP SWAP1 DIV PUSH20 0xFFFFFFFFFFFFFFFFFFFFFFFFFFFFFFFFFFFFFFFF AND PUSH20 0xFFFFFFFFFFFFFFFFFFFFFFFFFFFFFFFFFFFFFFFF AND PUSH32 0x73DC1DABFE81E4B13A65BBC538E7BFC06BAFCCA30510B59584F1043E4C04851 PUSH1 0xC PUSH0 DUP13 PUSH0 ADD PUSH0 SWAP1 SLOAD SWAP1 PUSH2 0x100 EXP SWAP1 DIV PUSH20 0xFFFFFFFFFFFFFFFFFFFFFFFFFFFFFFFFFFFFFFFF AND PUSH20 0xFFFFFFFFFFFFFFFFFFFFFFFFFFFFFFFFFFFFFFFF AND PUSH20 0xFFFFFFFFFFFFFFFFFFFFFFFFFFFFFFFFFFFFFFFF AND DUP2 MSTORE PUSH1 0x20 ADD SWAP1 DUP2 MSTORE PUSH1 0x20 ADD PUSH0 KECCAK256 SLOAD PUSH1 0x40 MLOAD PUSH2 0x36B9 SWAP2 SWAP1 PUSH2 0x40AE JUMP JUMPDEST PUSH1 0x40 MLOAD DUP1 SWAP2 SUB SWAP1 LOG2 PUSH1 0x3 PUSH1 0xC PUSH0 DUP12 PUSH0 ADD PUSH0 SWAP1 SLOAD SWAP1 PUSH2 0x100 EXP SWAP1 DIV PUSH20 0xFFFFFFFFFFFFFFFFFFFFFFFFFFFFFFFFFFFFFFFF AND PUSH20 0xFFFFFFFFFFFFFFFFFFFFFFFFFFFFFFFFFFFFFFFF AND PUSH20 0xFFFFFFFFFFFFFFFFFFFFFFFFFFFFFFFFFFFFFFFF AND DUP2 MSTORE PUSH1 0x20 ADD SWAP1 DUP2 MSTORE PUSH1 0x20 ADD PUSH0 KECCAK256 SLOAD LT PUSH2 0x3805 JUMPI PUSH1 0x1 PUSH1 0xB PUSH0 DUP12 PUSH0 ADD PUSH0 SWAP1 SLOAD SWAP1 PUSH2 0x100 EXP SWAP1 DIV PUSH20 0xFFFFFFFFFFFFFFFFFFFFFFFFFFFFFFFFFFFFFFFF AND PUSH20 0xFFFFFFFFFFFFFFFFFFFFFFFFFFFFFFFFFFFFFFFF AND PUSH20 0xFFFFFFFFFFFFFFFFFFFFFFFFFFFFFFFFFFFFFFFF AND DUP2 MSTORE PUSH1 0x20 ADD SWAP1 DUP2 MSTORE PUSH1 0x20 ADD PUSH0 KECCAK256 PUSH0 PUSH2 0x100 EXP DUP2 SLOAD DUP2 PUSH1 0xFF MUL NOT AND SWAP1 DUP4 ISZERO ISZERO MUL OR SWAP1 SSTORE POP DUP9 PUSH0 ADD PUSH0 SWAP1 SLOAD SWAP1 PUSH2 0x100 EXP SWAP1 DIV PUSH20 0xFFFFFFFFFFFFFFFFFFFFFFFFFFFFFFFFFFFFFFFF AND PUSH20 0xFFFFFFFFFFFFFFFFFFFFFFFFFFFFFFFFFFFFFFFF AND PUSH32 0xFFA4E6181777692565CF28528FC88FD1516EA86B56DA075235FA575AF6A4B855 PUSH1 0x40 MLOAD PUSH1 0x40 MLOAD DUP1 SWAP2 SUB SWAP1 LOG2 JUMPDEST DUP9 PUSH1 0x2 ADD SLOAD DUP10 PUSH1 0x4 ADD SLOAD LT ISZERO DUP1 PUSH2 0x381F JUMPI POP PUSH0 DUP10 PUSH1 0x6 ADD SLOAD EQ JUMPDEST ISZERO PUSH2 0x385D JUMPI PUSH0 DUP10 PUSH1 0x8 ADD PUSH1 0x1 PUSH2 0x100 EXP DUP2 SLOAD DUP2 PUSH1 0xFF MUL NOT AND SWAP1 DUP4 ISZERO ISZERO MUL OR SWAP1 SSTORE POP PUSH1 0x1 DUP10 PUSH1 0x8 ADD PUSH0 PUSH2 0x100 EXP DUP2 SLOAD DUP2 PUSH1 0xFF MUL NOT AND SWAP1 DUP4 ISZERO ISZERO MUL OR SWAP1 SSTORE POP JUMPDEST DUP9 PUSH0 ADD PUSH0 SWAP1 SLOAD SWAP1 PUSH2 0x100 EXP SWAP1 DIV PUSH20 0xFFFFFFFFFFFFFFFFFFFFFFFFFFFFFFFFFFFFFFFF AND PUSH20 0xFFFFFFFFFFFFFFFFFFFFFFFFFFFFFFFFFFFFFFFF AND DUP12 PUSH32 0x4A14ED616CE90B51A0A9222C0E231E9CE03B6885730AFF30C76A5CCB7C5B8106 DUP6 DUP5 DUP7 PUSH1 0x40 MLOAD PUSH2 0x38CA SWAP4 SWAP3 SWAP2 SWAP1 PUSH2 0x5427 JUMP JUMPDEST PUSH1 0x40 MLOAD DUP1 SWAP2 SUB SWAP1 LOG3 POP POP POP POP POP POP POP POP POP JUMPDEST POP POP JUMP JUMPDEST PUSH2 0x38E9 DUP2 PUSH2 0x312C JUMP JUMPDEST PUSH0 PUSH1 0x4 DUP3 DUP2 SLOAD DUP2 LT PUSH2 0x38FE JUMPI PUSH2 0x38FD PUSH2 0x4AF3 JUMP JUMPDEST JUMPDEST SWAP1 PUSH0 MSTORE PUSH1 0x20 PUSH0 KECCAK256 SWAP1 PUSH1 0x9 MUL ADD SWAP1 POP DUP1 PUSH1 0x8 ADD PUSH0 SWAP1 SLOAD SWAP1 PUSH2 0x100 EXP SWAP1 DIV PUSH1 0xFF AND ISZERO PUSH2 0x3928 JUMPI POP PUSH2 0x3F0C JUMP JUMPDEST PUSH0 DUP2 PUSH1 0x4 ADD SLOAD DUP3 PUSH1 0x2 ADD SLOAD GT PUSH2 0x393E JUMPI PUSH0 PUSH2 0x3953 JUMP JUMPDEST DUP2 PUSH1 0x4 ADD SLOAD DUP3 PUSH1 0x2 ADD SLOAD PUSH2 0x3952 SWAP2 SWAP1 PUSH2 0x4B20 JUMP JUMPDEST JUMPDEST SWAP1 POP PUSH0 PUSH2 0x395F DUP5 PUSH2 0x3F34 JUMP JUMPDEST SWAP1 POP PUSH0 DUP3 DUP3 PUSH2 0x396E SWAP2 SWAP1 PUSH2 0x5321 JUMP JUMPDEST SWAP1 POP PUSH0 PUSH1 0x64 PUSH1 0x6 SLOAD DUP4 PUSH2 0x3981 SWAP2 SWAP1 PUSH2 0x5321 JUMP JUMPDEST PUSH2 0x398B SWAP2 SWAP1 PUSH2 0x538F JUMP JUMPDEST SWAP1 POP PUSH0 DUP2 DUP4 PUSH2 0x399A SWAP2 SWAP1 PUSH2 0x4B53 JUMP JUMPDEST SWAP1 POP PUSH0 PUSH0 SWAP1 POP PUSH0 PUSH0 SWAP1 POP PUSH0 PUSH0 SWAP1 POP DUP4 DUP10 PUSH1 0x7 ADD SLOAD LT PUSH2 0x3A73 JUMPI DUP4 SWAP3 POP PUSH0 PUSH1 0x64 PUSH1 0x5 SLOAD DUP12 PUSH1 0x1 ADD SLOAD PUSH2 0x39CB SWAP2 SWAP1 PUSH2 0x5321 JUMP JUMPDEST PUSH2 0x39D5 SWAP2 SWAP1 PUSH2 0x538F JUMP JUMPDEST SWAP1 POP PUSH0 DUP10 DUP3 PUSH2 0x39E4 SWAP2 SWAP1 PUSH2 0x5321 JUMP JUMPDEST SWAP1 POP DUP7 DUP2 PUSH2 0x39F2 SWAP2 SWAP1 PUSH2 0x4B53 JUMP JUMPDEST PUSH1 0x9 PUSH0 DUP3 DUP3 SLOAD PUSH2 0x3A02 SWAP2 SWAP1 PUSH2 0x4B53 JUMP JUMPDEST SWAP3 POP POP DUP2 SWAP1 SSTORE POP PUSH0 DUP11 DUP4 PUSH2 0x3A16 SWAP2 SWAP1 PUSH2 0x5321 JUMP JUMPDEST DUP10 PUSH2 0x3A21 SWAP2 SWAP1 PUSH2 0x4B20 JUMP JUMPDEST SWAP1 POP DUP12 PUSH1 0x6 ADD SLOAD DUP2 GT ISZERO PUSH2 0x3A37 JUMPI DUP12 PUSH1 0x6 ADD SLOAD SWAP1 POP JUMPDEST DUP1 DUP13 PUSH1 0x6 ADD PUSH0 DUP3 DUP3 SLOAD PUSH2 0x3A4A SWAP2 SWAP1 PUSH2 0x4B20 JUMP JUMPDEST SWAP3 POP POP DUP2 SWAP1 SSTORE POP DUP6 DUP13 PUSH1 0x7 ADD PUSH0 DUP3 DUP3 SLOAD PUSH2 0x3A64 SWAP2 SWAP1 PUSH2 0x4B20 JUMP JUMPDEST SWAP3 POP POP DUP2 SWAP1 SSTORE POP POP POP POP PUSH2 0x3BCC JUMP JUMPDEST DUP9 PUSH1 0x7 ADD SLOAD SWAP3 POP PUSH0 DUP4 SWAP1 POP PUSH0 DUP10 DUP12 PUSH1 0x2 ADD SLOAD DUP13 PUSH1 0x1 ADD SLOAD PUSH2 0x3A94 SWAP2 SWAP1 PUSH2 0x538F JUMP JUMPDEST PUSH2 0x3A9E SWAP2 SWAP1 PUSH2 0x5321 JUMP JUMPDEST SWAP1 POP DUP11 PUSH1 0x6 ADD SLOAD DUP2 GT ISZERO PUSH2 0x3AB4 JUMPI DUP11 PUSH1 0x6 ADD SLOAD SWAP1 POP JUMPDEST DUP1 DUP3 LT PUSH2 0x3AE8 JUMPI DUP1 DUP3 PUSH2 0x3AC7 SWAP2 SWAP1 PUSH2 0x4B20 JUMP JUMPDEST SWAP2 POP DUP1 DUP12 PUSH1 0x6 ADD PUSH0 DUP3 DUP3 SLOAD PUSH2 0x3ADC SWAP2 SWAP1 PUSH2 0x4B20 JUMP JUMPDEST SWAP3 POP POP DUP2 SWAP1 SSTORE POP PUSH2 0x3B06 JUMP JUMPDEST DUP2 DUP12 PUSH1 0x6 ADD PUSH0 DUP3 DUP3 SLOAD PUSH2 0x3AFB SWAP2 SWAP1 PUSH2 0x4B20 JUMP JUMPDEST SWAP3 POP POP DUP2 SWAP1 SSTORE POP PUSH0 SWAP2 POP JUMPDEST PUSH0 PUSH1 0x64 PUSH1 0x5 SLOAD DUP14 PUSH1 0x1 ADD SLOAD PUSH2 0x3B1B SWAP2 SWAP1 PUSH2 0x5321 JUMP JUMPDEST PUSH2 0x3B25 SWAP2 SWAP1 PUSH2 0x538F JUMP JUMPDEST SWAP1 POP PUSH0 DUP12 DUP3 PUSH2 0x3B34 SWAP2 SWAP1 PUSH2 0x5321 JUMP JUMPDEST SWAP1 POP PUSH0 DUP10 DUP3 PUSH2 0x3B43 SWAP2 SWAP1 PUSH2 0x4B53 JUMP JUMPDEST SWAP1 POP DUP1 DUP6 LT PUSH2 0x3B85 JUMPI DUP1 PUSH1 0x9 PUSH0 DUP3 DUP3 SLOAD PUSH2 0x3B5D SWAP2 SWAP1 PUSH2 0x4B53 JUMP JUMPDEST SWAP3 POP POP DUP2 SWAP1 SSTORE POP DUP1 DUP6 PUSH2 0x3B70 SWAP2 SWAP1 PUSH2 0x4B20 JUMP JUMPDEST SWAP5 POP DUP5 DUP7 PUSH2 0x3B7E SWAP2 SWAP1 PUSH2 0x4B53 JUMP JUMPDEST SWAP6 POP PUSH2 0x3BA1 JUMP JUMPDEST DUP5 PUSH1 0x9 PUSH0 DUP3 DUP3 SLOAD PUSH2 0x3B96 SWAP2 SWAP1 PUSH2 0x4B53 JUMP JUMPDEST SWAP3 POP POP DUP2 SWAP1 SSTORE POP PUSH0 SWAP5 POP JUMPDEST PUSH0 DUP15 PUSH1 0x7 ADD DUP2 SWAP1 SSTORE POP DUP8 DUP10 GT PUSH2 0x3BB7 JUMPI PUSH0 PUSH2 0x3BC4 JUMP JUMPDEST DUP8 DUP10 PUSH2 0x3BC3 SWAP2 SWAP1 PUSH2 0x4B20 JUMP JUMPDEST JUMPDEST SWAP7 POP POP POP POP POP POP JUMPDEST PUSH1 0x1 DUP10 PUSH1 0x8 ADD PUSH0 PUSH2 0x100 EXP DUP2 SLOAD DUP2 PUSH1 0xFF MUL NOT AND SWAP1 DUP4 ISZERO ISZERO MUL OR SWAP1 SSTORE POP PUSH0 DUP10 PUSH1 0x8 ADD PUSH1 0x1 PUSH2 0x100 EXP DUP2 SLOAD DUP2 PUSH1 0xFF MUL NOT AND SWAP1 DUP4 ISZERO ISZERO MUL OR SWAP1 SSTORE POP PUSH1 0x1 PUSH1 0xC PUSH0 DUP12 PUSH0 ADD PUSH0 SWAP1 SLOAD SWAP1 PUSH2 0x100 EXP SWAP1 DIV PUSH20 0xFFFFFFFFFFFFFFFFFFFFFFFFFFFFFFFFFFFFFFFF AND PUSH20 0xFFFFFFFFFFFFFFFFFFFFFFFFFFFFFFFFFFFFFFFF AND PUSH20 0xFFFFFFFFFFFFFFFFFFFFFFFFFFFFFFFFFFFFFFFF AND DUP2 MSTORE PUSH1 0x20 ADD SWAP1 DUP2 MSTORE PUSH1 0x20 ADD PUSH0 KECCAK256 PUSH0 DUP3 DUP3 SLOAD PUSH2 0x3C73 SWAP2 SWAP1 PUSH2 0x4B53 JUMP JUMPDEST SWAP3 POP POP DUP2 SWAP1 SSTORE POP DUP9 PUSH0 ADD PUSH0 SWAP1 SLOAD SWAP1 PUSH2 0x100 EXP SWAP1 DIV PUSH20 0xFFFFFFFFFFFFFFFFFFFFFFFFFFFFFFFFFFFFFFFF AND PUSH20 0xFFFFFFFFFFFFFFFFFFFFFFFFFFFFFFFFFFFFFFFF AND PUSH32 0x73DC1DABFE81E4B13A65BBC538E7BFC06BAFCCA30510B59584F1043E4C04851 PUSH1 0xC PUSH0 DUP13 PUSH0 ADD PUSH0 SWAP1 SLOAD SWAP1 PUSH2 0x100 EXP SWAP1 DIV PUSH20 0xFFFFFFFFFFFFFFFFFFFFFFFFFFFFFFFFFFFFFFFF AND PUSH20 0xFFFFFFFFFFFFFFFFFFFFFFFFFFFFFFFFFFFFFFFF AND PUSH20 0xFFFFFFFFFFFFFFFFFFFFFFFFFFFFFFFFFFFFFFFF AND DUP2 MSTORE PUSH1 0x20 ADD SWAP1 DUP2 MSTORE PUSH1 0x20 ADD PUSH0 KECCAK256 SLOAD PUSH1 0x40 MLOAD PUSH2 0x3D41 SWAP2 SWAP1 PUSH2 0x40AE JUMP JUMPDEST PUSH1 0x40 MLOAD DUP1 SWAP2 SUB SWAP1 LOG2 PUSH1 0x3 PUSH1 0xC PUSH0 DUP12 PUSH0 ADD PUSH0 SWAP1 SLOAD SWAP1 PUSH2 0x100 EXP SWAP1 DIV PUSH20 0xFFFFFFFFFFFFFFFFFFFFFFFFFFFFFFFFFFFFFFFF AND PUSH20 0xFFFFFFFFFFFFFFFFFFFFFFFFFFFFFFFFFFFFFFFF AND PUSH20 0xFFFFFFFFFFFFFFFFFFFFFFFFFFFFFFFFFFFFFFFF AND DUP2 MSTORE PUSH1 0x20 ADD SWAP1 DUP2 MSTORE PUSH1 0x20 ADD PUSH0 KECCAK256 SLOAD LT PUSH2 0x3E8D JUMPI PUSH1 0x1 PUSH1 0xB PUSH0 DUP12 PUSH0 ADD PUSH0 SWAP1 SLOAD SWAP1 PUSH2 0x100 EXP SWAP1 DIV PUSH20 0xFFFFFFFFFFFFFFFFFFFFFFFFFFFFFFFFFFFFFFFF AND PUSH20 0xFFFFFFFFFFFFFFFFFFFFFFFFFFFFFFFFFFFFFFFF AND PUSH20 0xFFFFFFFFFFFFFFFFFFFFFFFFFFFFFFFFFFFFFFFF AND DUP2 MSTORE PUSH1 0x20 ADD SWAP1 DUP2 MSTORE PUSH1 0x20 ADD PUSH0 KECCAK256 PUSH0 PUSH2 0x100 EXP DUP2 SLOAD DUP2 PUSH1 0xFF MUL NOT AND SWAP1 DUP4 ISZERO ISZERO MUL OR SWAP1 SSTORE POP DUP9 PUSH0 ADD PUSH0 SWAP1 SLOAD SWAP1 PUSH2 0x100 EXP SWAP1 DIV PUSH20 0xFFFFFFFFFFFFFFFFFFFFFFFFFFFFFFFFFFFFFFFF AND PUSH20 0xFFFFFFFFFFFFFFFFFFFFFFFFFFFFFFFFFFFFFFFF AND PUSH32 0xFFA4E6181777692565CF28528FC88FD1516EA86B56DA075235FA575AF6A4B855 PUSH1 0x40 MLOAD PUSH1 0x40 MLOAD DUP1 SWAP2 SUB SWAP1 LOG2 JUMPDEST DUP9 PUSH0 ADD PUSH0 SWAP1 SLOAD SWAP1 PUSH2 0x100 EXP SWAP1 DIV PUSH20 0xFFFFFFFFFFFFFFFFFFFFFFFFFFFFFFFFFFFFFFFF AND PUSH20 0xFFFFFFFFFFFFFFFFFFFFFFFFFFFFFFFFFFFFFFFF AND DUP11 PUSH32 0x4A14ED616CE90B51A0A9222C0E231E9CE03B6885730AFF30C76A5CCB7C5B8106 DUP6 DUP6 DUP6 PUSH1 0x40 MLOAD PUSH2 0x3EFA SWAP4 SWAP3 SWAP2 SWAP1 PUSH2 0x5427 JUMP JUMPDEST PUSH1 0x40 MLOAD DUP1 SWAP2 SUB SWAP1 LOG3 POP POP POP POP POP POP POP POP POP JUMPDEST POP JUMP JUMPDEST PUSH0 PUSH0 PUSH1 0x8 SLOAD SUB PUSH2 0x3F22 JUMPI PUSH1 0x1 SWAP1 POP PUSH2 0x3F31 JUMP JUMPDEST PUSH1 0x8 SLOAD PUSH2 0x3F2D PUSH2 0x3FF5 JUMP JUMPDEST LT SWAP1 POP JUMPDEST SWAP1 JUMP JUMPDEST PUSH0 PUSH2 0x3F3E DUP3 PUSH2 0x312C JUMP JUMPDEST PUSH0 PUSH1 0x4 DUP4 DUP2 SLOAD DUP2 LT PUSH2 0x3F53 JUMPI PUSH2 0x3F52 PUSH2 0x4AF3 JUMP JUMPDEST JUMPDEST SWAP1 PUSH0 MSTORE PUSH1 0x20 PUSH0 KECCAK256 SWAP1 PUSH1 0x9 MUL ADD SWAP1 POP PUSH0 DUP2 PUSH1 0x2 ADD SLOAD GT PUSH2 0x3FA7 JUMPI PUSH1 0x40 MLOAD PUSH32 0x8C379A000000000000000000000000000000000000000000000000000000000 DUP2 MSTORE PUSH1 0x4 ADD PUSH2 0x3F9E SWAP1 PUSH2 0x5B48 JUMP JUMPDEST PUSH1 0x40 MLOAD DUP1 SWAP2 SUB SWAP1 REVERT JUMPDEST PUSH0 DUP2 PUSH1 0x2 ADD SLOAD DUP3 PUSH1 0x1 ADD SLOAD PUSH2 0x3FBC SWAP2 SWAP1 PUSH2 0x538F JUMP JUMPDEST SWAP1 POP PUSH0 PUSH1 0x64 PUSH1 0x5 SLOAD DUP5 PUSH1 0x1 ADD SLOAD PUSH2 0x3FD3 SWAP2 SWAP1 PUSH2 0x5321 JUMP JUMPDEST PUSH2 0x3FDD SWAP2 SWAP1 PUSH2 0x538F JUMP JUMPDEST SWAP1 POP DUP1 DUP3 PUSH2 0x3FEB SWAP2 SWAP1 PUSH2 0x4B53 JUMP JUMPDEST SWAP4 POP POP POP POP SWAP2 SWAP1 POP JUMP JUMPDEST PUSH0 PUSH0 PUSH1 0x4 DUP1 SLOAD SWAP1 POP SUB PUSH2 0x400A JUMPI PUSH0 SWAP1 POP PUSH2 0x4093 JUMP JUMPDEST PUSH0 PUSH0 SWAP1 POP PUSH0 PUSH0 SWAP1 POP JUMPDEST PUSH1 0x4 DUP1 SLOAD SWAP1 POP DUP2 LT ISZERO PUSH2 0x4071 JUMPI PUSH1 0x4 DUP2 DUP2 SLOAD DUP2 LT PUSH2 0x4034 JUMPI PUSH2 0x4033 PUSH2 0x4AF3 JUMP JUMPDEST JUMPDEST SWAP1 PUSH0 MSTORE PUSH1 0x20 PUSH0 KECCAK256 SWAP1 PUSH1 0x9 MUL ADD PUSH1 0x8 ADD PUSH0 SWAP1 SLOAD SWAP1 PUSH2 0x100 EXP SWAP1 DIV PUSH1 0xFF AND ISZERO PUSH2 0x4064 JUMPI DUP2 DUP1 PUSH2 0x4060 SWAP1 PUSH2 0x513A JUMP JUMPDEST SWAP3 POP POP JUMPDEST DUP1 DUP1 PUSH1 0x1 ADD SWAP2 POP POP PUSH2 0x4013 JUMP JUMPDEST POP PUSH1 0x4 DUP1 SLOAD SWAP1 POP PUSH1 0x64 DUP3 PUSH2 0x4085 SWAP2 SWAP1 PUSH2 0x5321 JUMP JUMPDEST PUSH2 0x408F SWAP2 SWAP1 PUSH2 0x538F JUMP JUMPDEST SWAP2 POP POP JUMPDEST SWAP1 JUMP JUMPDEST PUSH0 DUP2 SWAP1 POP SWAP2 SWAP1 POP JUMP JUMPDEST PUSH2 0x40A8 DUP2 PUSH2 0x4096 JUMP JUMPDEST DUP3 MSTORE POP POP JUMP JUMPDEST PUSH0 PUSH1 0x20 DUP3 ADD SWAP1 POP PUSH2 0x40C1 PUSH0 DUP4 ADD DUP5 PUSH2 0x409F JUMP JUMPDEST SWAP3 SWAP2 POP POP JUMP JUMPDEST PUSH0 PUSH0 REVERT JUMPDEST PUSH0 PUSH0 REVERT JUMPDEST PUSH2 0x40D8 DUP2 PUSH2 0x4096 JUMP JUMPDEST DUP2 EQ PUSH2 0x40E2 JUMPI PUSH0 PUSH0 REVERT JUMPDEST POP JUMP JUMPDEST PUSH0 DUP2 CALLDATALOAD SWAP1 POP PUSH2 0x40F3 DUP2 PUSH2 0x40CF JUMP JUMPDEST SWAP3 SWAP2 POP POP JUMP JUMPDEST PUSH0 PUSH1 0x20 DUP3 DUP5 SUB SLT ISZERO PUSH2 0x410E JUMPI PUSH2 0x410D PUSH2 0x40C7 JUMP JUMPDEST JUMPDEST PUSH0 PUSH2 0x411B DUP5 DUP3 DUP6 ADD PUSH2 0x40E5 JUMP JUMPDEST SWAP2 POP POP SWAP3 SWAP2 POP POP JUMP JUMPDEST PUSH0 PUSH20 0xFFFFFFFFFFFFFFFFFFFFFFFFFFFFFFFFFFFFFFFF DUP3 AND SWAP1 POP SWAP2 SWAP1 POP JUMP JUMPDEST PUSH0 PUSH2 0x414D DUP3 PUSH2 0x4124 JUMP JUMPDEST SWAP1 POP SWAP2 SWAP1 POP JUMP JUMPDEST PUSH2 0x415D DUP2 PUSH2 0x4143 JUMP JUMPDEST DUP2 EQ PUSH2 0x4167 JUMPI PUSH0 PUSH0 REVERT JUMPDEST POP JUMP JUMPDEST PUSH0 DUP2 CALLDATALOAD SWAP1 POP PUSH2 0x4178 DUP2 PUSH2 0x4154 JUMP JUMPDEST SWAP3 SWAP2 POP POP JUMP JUMPDEST PUSH0 PUSH0 REVERT JUMPDEST PUSH0 PUSH0 REVERT JUMPDEST PUSH0 PUSH0 REVERT JUMPDEST PUSH0 PUSH0 DUP4 PUSH1 0x1F DUP5 ADD SLT PUSH2 0x419F JUMPI PUSH2 0x419E PUSH2 0x417E JUMP JUMPDEST JUMPDEST DUP3 CALLDATALOAD SWAP1 POP PUSH8 0xFFFFFFFFFFFFFFFF DUP2 GT ISZERO PUSH2 0x41BC JUMPI PUSH2 0x41BB PUSH2 0x4182 JUMP JUMPDEST JUMPDEST PUSH1 0x20 DUP4 ADD SWAP2 POP DUP4 PUSH1 0x1 DUP3 MUL DUP4 ADD GT ISZERO PUSH2 0x41D8 JUMPI PUSH2 0x41D7 PUSH2 0x4186 JUMP JUMPDEST JUMPDEST SWAP3 POP SWAP3 SWAP1 POP JUMP JUMPDEST PUSH0 PUSH0 PUSH0 PUSH1 0x40 DUP5 DUP7 SUB SLT ISZERO PUSH2 0x41F6 JUMPI PUSH2 0x41F5 PUSH2 0x40C7 JUMP JUMPDEST JUMPDEST PUSH0 PUSH2 0x4203 DUP7 DUP3 DUP8 ADD PUSH2 0x416A JUMP JUMPDEST SWAP4 POP POP PUSH1 0x20 DUP5 ADD CALLDATALOAD PUSH8 0xFFFFFFFFFFFFFFFF DUP2 GT ISZERO PUSH2 0x4224 JUMPI PUSH2 0x4223 PUSH2 0x40CB JUMP JUMPDEST JUMPDEST PUSH2 0x4230 DUP7 DUP3 DUP8 ADD PUSH2 0x418A JUMP JUMPDEST SWAP3 POP SWAP3 POP POP SWAP3 POP SWAP3 POP SWAP3 JUMP JUMPDEST PUSH0 DUP2 ISZERO ISZERO SWAP1 POP SWAP2 SWAP1 POP JUMP JUMPDEST PUSH2 0x4250 DUP2 PUSH2 0x423C JUMP JUMPDEST DUP3 MSTORE POP POP JUMP JUMPDEST PUSH0 PUSH1 0x20 DUP3 ADD SWAP1 POP PUSH2 0x4269 PUSH0 DUP4 ADD DUP5 PUSH2 0x4247 JUMP JUMPDEST SWAP3 SWAP2 POP POP JUMP JUMPDEST PUSH0 PUSH1 0x20 DUP3 DUP5 SUB SLT ISZERO PUSH2 0x4284 JUMPI PUSH2 0x4283 PUSH2 0x40C7 JUMP JUMPDEST JUMPDEST PUSH0 PUSH2 0x4291 DUP5 DUP3 DUP6 ADD PUSH2 0x416A JUMP JUMPDEST SWAP2 POP POP SWAP3 SWAP2 POP POP JUMP JUMPDEST PUSH0 PUSH2 0x42A4 DUP3 PUSH2 0x4124 JUMP JUMPDEST SWAP1 POP SWAP2 SWAP1 POP JUMP JUMPDEST PUSH2 0x42B4 DUP2 PUSH2 0x429A JUMP JUMPDEST DUP2 EQ PUSH2 0x42BE JUMPI PUSH0 PUSH0 REVERT JUMPDEST POP JUMP JUMPDEST PUSH0 DUP2 CALLDATALOAD SWAP1 POP PUSH2 0x42CF DUP2 PUSH2 0x42AB JUMP JUMPDEST SWAP3 SWAP2 POP POP JUMP JUMPDEST PUSH0 PUSH1 0x20 DUP3 DUP5 SUB SLT ISZERO PUSH2 0x42EA JUMPI PUSH2 0x42E9 PUSH2 0x40C7 JUMP JUMPDEST JUMPDEST PUSH0 PUSH2 0x42F7 DUP5 DUP3 DUP6 ADD PUSH2 0x42C1 JUMP JUMPDEST SWAP2 POP POP SWAP3 SWAP2 POP POP JUMP JUMPDEST PUSH2 0x4309 DUP2 PUSH2 0x4143 JUMP JUMPDEST DUP3 MSTORE POP POP JUMP JUMPDEST PUSH0 PUSH2 0x140 DUP3 ADD SWAP1 POP PUSH2 0x4323 PUSH0 DUP4 ADD DUP14 PUSH2 0x4300 JUMP JUMPDEST PUSH2 0x4330 PUSH1 0x20 DUP4 ADD DUP13 PUSH2 0x409F JUMP JUMPDEST PUSH2 0x433D PUSH1 0x40 DUP4 ADD DUP12 PUSH2 0x409F JUMP JUMPDEST PUSH2 0x434A PUSH1 0x60 DUP4 ADD DUP11 PUSH2 0x409F JUMP JUMPDEST PUSH2 0x4357 PUSH1 0x80 DUP4 ADD DUP10 PUSH2 0x409F JUMP JUMPDEST PUSH2 0x4364 PUSH1 0xA0 DUP4 ADD DUP9 PUSH2 0x409F JUMP JUMPDEST PUSH2 0x4371 PUSH1 0xC0 DUP4 ADD DUP8 PUSH2 0x409F JUMP JUMPDEST PUSH2 0x437E PUSH1 0xE0 DUP4 ADD DUP7 PUSH2 0x409F JUMP JUMPDEST PUSH2 0x438C PUSH2 0x100 DUP4 ADD DUP6 PUSH2 0x4247 JUMP JUMPDEST PUSH2 0x439A PUSH2 0x120 DUP4 ADD DUP5 PUSH2 0x4247 JUMP JUMPDEST SWAP12 SWAP11 POP POP POP POP POP POP POP POP POP POP POP JUMP JUMPDEST PUSH0 PUSH0 PUSH1 0x40 DUP4 DUP6 SUB SLT ISZERO PUSH2 0x43BF JUMPI PUSH2 0x43BE PUSH2 0x40C7 JUMP JUMPDEST JUMPDEST PUSH0 PUSH2 0x43CC DUP6 DUP3 DUP7 ADD PUSH2 0x40E5 JUMP JUMPDEST SWAP3 POP POP PUSH1 0x20 PUSH2 0x43DD DUP6 DUP3 DUP7 ADD PUSH2 0x40E5 JUMP JUMPDEST SWAP2 POP POP SWAP3 POP SWAP3 SWAP1 POP JUMP JUMPDEST PUSH0 DUP2 SWAP1 POP SWAP3 SWAP2 POP POP JUMP JUMPDEST PUSH32 0x41646D696E000000000000000000000000000000000000000000000000000000 PUSH0 DUP3 ADD MSTORE POP JUMP JUMPDEST PUSH0 PUSH2 0x4425 PUSH1 0x5 DUP4 PUSH2 0x43E7 JUMP JUMPDEST SWAP2 POP PUSH2 0x4430 DUP3 PUSH2 0x43F1 JUMP JUMPDEST PUSH1 0x5 DUP3 ADD SWAP1 POP SWAP2 SWAP1 POP JUMP JUMPDEST PUSH0 PUSH2 0x4445 DUP3 PUSH2 0x4419 JUMP JUMPDEST SWAP2 POP DUP2 SWAP1 POP SWAP2 SWAP1 POP JUMP JUMPDEST PUSH0 DUP3 DUP3 MSTORE PUSH1 0x20 DUP3 ADD SWAP1 POP SWAP3 SWAP2 POP POP JUMP JUMPDEST PUSH32 0x456D706C6F79656541737369676E6D656E743A2063616C6C6572206973206E6F PUSH0 DUP3 ADD MSTORE PUSH32 0x7420616E2061646D696E00000000000000000000000000000000000000000000 PUSH1 0x20 DUP3 ADD MSTORE POP JUMP JUMPDEST PUSH0 PUSH2 0x44B9 PUSH1 0x2A DUP4 PUSH2 0x444F JUMP JUMPDEST SWAP2 POP PUSH2 0x44C4 DUP3 PUSH2 0x445F JUMP JUMPDEST PUSH1 0x40 DUP3 ADD SWAP1 POP SWAP2 SWAP1 POP JUMP JUMPDEST PUSH0 PUSH1 0x20 DUP3 ADD SWAP1 POP DUP2 DUP2 SUB PUSH0 DUP4 ADD MSTORE PUSH2 0x44E6 DUP2 PUSH2 0x44AD JUMP JUMPDEST SWAP1 POP SWAP2 SWAP1 POP JUMP JUMPDEST PUSH32 0x436F6C6C61746572616C20726174696F20746F6F206C6F770000000000000000 PUSH0 DUP3 ADD MSTORE POP JUMP JUMPDEST PUSH0 PUSH2 0x4521 PUSH1 0x18 DUP4 PUSH2 0x444F JUMP JUMPDEST SWAP2 POP PUSH2 0x452C DUP3 PUSH2 0x44ED JUMP JUMPDEST PUSH1 0x20 DUP3 ADD SWAP1 POP SWAP2 SWAP1 POP JUMP JUMPDEST PUSH0 PUSH1 0x20 DUP3 ADD SWAP1 POP DUP2 DUP2 SUB PUSH0 DUP4 ADD MSTORE PUSH2 0x454E DUP2 PUSH2 0x4515 JUMP JUMPDEST SWAP1 POP SWAP2 SWAP1 POP JUMP JUMPDEST PUSH32 0x436F6C6C61746572616C20726174696F20746F6F20686967683A206D61782033 PUSH0 DUP3 ADD MSTORE PUSH32 0x3030250000000000000000000000000000000000000000000000000000000000 PUSH1 0x20 DUP3 ADD MSTORE POP JUMP JUMPDEST PUSH0 PUSH2 0x45AF PUSH1 0x23 DUP4 PUSH2 0x444F JUMP JUMPDEST SWAP2 POP PUSH2 0x45BA DUP3 PUSH2 0x4555 JUMP JUMPDEST PUSH1 0x40 DUP3 ADD SWAP1 POP SWAP2 SWAP1 POP JUMP JUMPDEST PUSH0 PUSH1 0x20 DUP3 ADD SWAP1 POP DUP2 DUP2 SUB PUSH0 DUP4 ADD MSTORE PUSH2 0x45DC DUP2 PUSH2 0x45A3 JUMP JUMPDEST SWAP1 POP SWAP2 SWAP1 POP JUMP JUMPDEST PUSH0 PUSH1 0x40 DUP3 ADD SWAP1 POP PUSH2 0x45F6 PUSH0 DUP4 ADD DUP6 PUSH2 0x409F JUMP JUMPDEST PUSH2 0x4603 PUSH1 0x20 DUP4 ADD DUP5 PUSH2 0x409F JUMP JUMPDEST SWAP4 SWAP3 POP POP POP JUMP JUMPDEST DUP3 DUP2 DUP4 CALLDATACOPY PUSH0 DUP4 DUP4 ADD MSTORE POP POP POP JUMP JUMPDEST PUSH0 PUSH2 0x4623 DUP4 DUP6 PUSH2 0x43E7 JUMP JUMPDEST SWAP4 POP PUSH2 0x4630 DUP4 DUP6 DUP5 PUSH2 0x460A JUMP JUMPDEST DUP3 DUP5 ADD SWAP1 POP SWAP4 SWAP3 POP POP POP JUMP JUMPDEST PUSH0 PUSH2 0x4648 DUP3 DUP5 DUP7 PUSH2 0x4618 JUMP JUMPDEST SWAP2 POP DUP2 SWAP1 POP SWAP4 SWAP3 POP POP POP JUMP JUMPDEST PUSH32 0x6E6F2070726F6669747300000000000000000000000000000000000000000000 PUSH0 DUP3 ADD MSTORE POP JUMP JUMPDEST PUSH0 PUSH2 0x4688 PUSH1 0xA DUP4 PUSH2 0x444F JUMP JUMPDEST SWAP2 POP PUSH2 0x4693 DUP3 PUSH2 0x4654 JUMP JUMPDEST PUSH1 0x20 DUP3 ADD SWAP1 POP SWAP2 SWAP1 POP JUMP JUMPDEST PUSH0 PUSH1 0x20 DUP3 ADD SWAP1 POP DUP2 DUP2 SUB PUSH0 DUP4 ADD MSTORE PUSH2 0x46B5 DUP2 PUSH2 0x467C JUMP JUMPDEST SWAP1 POP SWAP2 SWAP1 POP JUMP JUMPDEST PUSH0 DUP2 SWAP1 POP SWAP3 SWAP2 POP POP JUMP JUMPDEST POP JUMP JUMPDEST PUSH0 PUSH2 0x46D4 PUSH0 DUP4 PUSH2 0x46BC JUMP JUMPDEST SWAP2 POP PUSH2 0x46DF DUP3 PUSH2 0x46C6 JUMP JUMPDEST PUSH0 DUP3 ADD SWAP1 POP SWAP2 SWAP1 POP JUMP JUMPDEST PUSH0 PUSH2 0x46F3 DUP3 PUSH2 0x46C9 JUMP JUMPDEST SWAP2 POP DUP2 SWAP1 POP SWAP2 SWAP1 POP JUMP JUMPDEST PUSH32 0x7472616E73666572206661696C65640000000000000000000000000000000000 PUSH0 DUP3 ADD MSTORE POP JUMP JUMPDEST PUSH0 PUSH2 0x4731 PUSH1 0xF DUP4 PUSH2 0x444F JUMP JUMPDEST SWAP2 POP PUSH2 0x473C DUP3 PUSH2 0x46FD JUMP JUMPDEST PUSH1 0x20 DUP3 ADD SWAP1 POP SWAP2 SWAP1 POP JUMP JUMPDEST PUSH0 PUSH1 0x20 DUP3 ADD SWAP1 POP DUP2 DUP2 SUB PUSH0 DUP4 ADD MSTORE PUSH2 0x475E DUP2 PUSH2 0x4725 JUMP JUMPDEST SWAP1 POP SWAP2 SWAP1 POP JUMP JUMPDEST PUSH32 0x456D706C6F79656541737369676E6D656E743A2063616C6C6572206973206E6F PUSH0 DUP3 ADD MSTORE PUSH32 0x7420746865206F776E6572000000000000000000000000000000000000000000 PUSH1 0x20 DUP3 ADD MSTORE POP JUMP JUMPDEST PUSH0 PUSH2 0x47BF PUSH1 0x2B DUP4 PUSH2 0x444F JUMP JUMPDEST SWAP2 POP PUSH2 0x47CA DUP3 PUSH2 0x4765 JUMP JUMPDEST PUSH1 0x40 DUP3 ADD SWAP1 POP SWAP2 SWAP1 POP JUMP JUMPDEST PUSH0 PUSH1 0x20 DUP3 ADD SWAP1 POP DUP2 DUP2 SUB PUSH0 DUP4 ADD MSTORE PUSH2 0x47EC DUP2 PUSH2 0x47B3 JUMP JUMPDEST SWAP1 POP SWAP2 SWAP1 POP JUMP JUMPDEST PUSH0 PUSH2 0x47FE DUP4 DUP6 PUSH2 0x46BC JUMP JUMPDEST SWAP4 POP PUSH2 0x480B DUP4 DUP6 DUP5 PUSH2 0x460A JUMP JUMPDEST DUP3 DUP5 ADD SWAP1 POP SWAP4 SWAP3 POP POP POP JUMP JUMPDEST PUSH0 PUSH2 0x4823 DUP3 DUP5 DUP7 PUSH2 0x47F3 JUMP JUMPDEST SWAP2 POP DUP2 SWAP1 POP SWAP4 SWAP3 POP POP POP JUMP JUMPDEST PUSH32 0x456D706C6F79656541737369676E6D656E743A20696E76616C696420726F6C65 PUSH0 DUP3 ADD MSTORE POP JUMP JUMPDEST PUSH0 PUSH2 0x4863 PUSH1 0x20 DUP4 PUSH2 0x444F JUMP JUMPDEST SWAP2 POP PUSH2 0x486E DUP3 PUSH2 0x482F JUMP JUMPDEST PUSH1 0x20 DUP3 ADD SWAP1 POP SWAP2 SWAP1 POP JUMP JUMPDEST PUSH0 PUSH1 0x20 DUP3 ADD SWAP1 POP DUP2 DUP2 SUB PUSH0 DUP4 ADD MSTORE PUSH2 0x4890 DUP2 PUSH2 0x4857 JUMP JUMPDEST SWAP1 POP SWAP2 SWAP1 POP JUMP JUMPDEST PUSH32 0x456D706C6F79656541737369676E6D656E743A20656D706C6F79656520646F65 PUSH0 DUP3 ADD MSTORE PUSH32 0x73206E6F742068617665207468697320726F6C65000000000000000000000000 PUSH1 0x20 DUP3 ADD MSTORE POP JUMP JUMPDEST PUSH0 PUSH2 0x48F1 PUSH1 0x34 DUP4 PUSH2 0x444F JUMP JUMPDEST SWAP2 POP PUSH2 0x48FC DUP3 PUSH2 0x4897 JUMP JUMPDEST PUSH1 0x40 DUP3 ADD SWAP1 POP SWAP2 SWAP1 POP JUMP JUMPDEST PUSH0 PUSH1 0x20 DUP3 ADD SWAP1 POP DUP2 DUP2 SUB PUSH0 DUP4 ADD MSTORE PUSH2 0x491E DUP2 PUSH2 0x48E5 JUMP JUMPDEST SWAP1 POP SWAP2 SWAP1 POP JUMP JUMPDEST PUSH32 0x4E487B7100000000000000000000000000000000000000000000000000000000 PUSH0 MSTORE PUSH1 0x11 PUSH1 0x4 MSTORE PUSH1 0x24 PUSH0 REVERT JUMPDEST PUSH0 PUSH2 0x495C DUP3 PUSH2 0x4096 JUMP JUMPDEST SWAP2 POP PUSH0 DUP3 SUB PUSH2 0x496E JUMPI PUSH2 0x496D PUSH2 0x4925 JUMP JUMPDEST JUMPDEST PUSH1 0x1 DUP3 SUB SWAP1 POP SWAP2 SWAP1 POP JUMP JUMPDEST PUSH0 PUSH1 0x1F NOT PUSH1 0x1F DUP4 ADD AND SWAP1 POP SWAP2 SWAP1 POP JUMP JUMPDEST PUSH0 PUSH2 0x4994 DUP4 DUP6 PUSH2 0x444F JUMP JUMPDEST SWAP4 POP PUSH2 0x49A1 DUP4 DUP6 DUP5 PUSH2 0x460A JUMP JUMPDEST PUSH2 0x49AA DUP4 PUSH2 0x4979 JUMP JUMPDEST DUP5 ADD SWAP1 POP SWAP4 SWAP3 POP POP POP JUMP JUMPDEST PUSH0 PUSH1 0x20 DUP3 ADD SWAP1 POP DUP2 DUP2 SUB PUSH0 DUP4 ADD MSTORE PUSH2 0x49CE DUP2 DUP5 DUP7 PUSH2 0x4989 JUMP JUMPDEST SWAP1 POP SWAP4 SWAP3 POP POP POP JUMP JUMPDEST PUSH32 0x456D706C6F79656541737369676E6D656E743A2063616C6C657220697320616E PUSH0 DUP3 ADD MSTORE PUSH32 0x2061646D696E0000000000000000000000000000000000000000000000000000 PUSH1 0x20 DUP3 ADD MSTORE POP JUMP JUMPDEST PUSH0 PUSH2 0x4A31 PUSH1 0x26 DUP4 PUSH2 0x444F JUMP JUMPDEST SWAP2 POP PUSH2 0x4A3C DUP3 PUSH2 0x49D7 JUMP JUMPDEST PUSH1 0x40 DUP3 ADD SWAP1 POP SWAP2 SWAP1 POP JUMP JUMPDEST PUSH0 PUSH1 0x20 DUP3 ADD SWAP1 POP DUP2 DUP2 SUB PUSH0 DUP4 ADD MSTORE PUSH2 0x4A5E DUP2 PUSH2 0x4A25 JUMP JUMPDEST SWAP1 POP SWAP2 SWAP1 POP JUMP JUMPDEST PUSH32 0x456D706C6F79656541737369676E6D656E743A2063616C6C6572206973207468 PUSH0 DUP3 ADD MSTORE PUSH32 0x65206F776E657200000000000000000000000000000000000000000000000000 PUSH1 0x20 DUP3 ADD MSTORE POP JUMP JUMPDEST PUSH0 PUSH2 0x4ABF PUSH1 0x27 DUP4 PUSH2 0x444F JUMP JUMPDEST SWAP2 POP PUSH2 0x4ACA DUP3 PUSH2 0x4A65 JUMP JUMPDEST PUSH1 0x40 DUP3 ADD SWAP1 POP SWAP2 SWAP1 POP JUMP JUMPDEST PUSH0 PUSH1 0x20 DUP3 ADD SWAP1 POP DUP2 DUP2 SUB PUSH0 DUP4 ADD MSTORE PUSH2 0x4AEC DUP2 PUSH2 0x4AB3 JUMP JUMPDEST SWAP1 POP SWAP2 SWAP1 POP JUMP JUMPDEST PUSH32 0x4E487B7100000000000000000000000000000000000000000000000000000000 PUSH0 MSTORE PUSH1 0x32 PUSH1 0x4 MSTORE PUSH1 0x24 PUSH0 REVERT JUMPDEST PUSH0 PUSH2 0x4B2A DUP3 PUSH2 0x4096 JUMP JUMPDEST SWAP2 POP PUSH2 0x4B35 DUP4 PUSH2 0x4096 JUMP JUMPDEST SWAP3 POP DUP3 DUP3 SUB SWAP1 POP DUP2 DUP2 GT ISZERO PUSH2 0x4B4D JUMPI PUSH2 0x4B4C PUSH2 0x4925 JUMP JUMPDEST JUMPDEST SWAP3 SWAP2 POP POP JUMP JUMPDEST PUSH0 PUSH2 0x4B5D DUP3 PUSH2 0x4096 JUMP JUMPDEST SWAP2 POP PUSH2 0x4B68 DUP4 PUSH2 0x4096 JUMP JUMPDEST SWAP3 POP DUP3 DUP3 ADD SWAP1 POP DUP1 DUP3 GT ISZERO PUSH2 0x4B80 JUMPI PUSH2 0x4B7F PUSH2 0x4925 JUMP JUMPDEST JUMPDEST SWAP3 SWAP2 POP POP JUMP JUMPDEST PUSH32 0x63616E6E6F742072656A656374206163746976652F6C69717569646174656400 PUSH0 DUP3 ADD MSTORE POP JUMP JUMPDEST PUSH0 PUSH2 0x4BBA PUSH1 0x1F DUP4 PUSH2 0x444F JUMP JUMPDEST SWAP2 POP PUSH2 0x4BC5 DUP3 PUSH2 0x4B86 JUMP JUMPDEST PUSH1 0x20 DUP3 ADD SWAP1 POP SWAP2 SWAP1 POP JUMP JUMPDEST PUSH0 PUSH1 0x20 DUP3 ADD SWAP1 POP DUP2 DUP2 SUB PUSH0 DUP4 ADD MSTORE PUSH2 0x4BE7 DUP2 PUSH2 0x4BAE JUMP JUMPDEST SWAP1 POP SWAP2 SWAP1 POP JUMP JUMPDEST PUSH32 0x726566756E64206661696C656400000000000000000000000000000000000000 PUSH0 DUP3 ADD MSTORE POP JUMP JUMPDEST PUSH0 PUSH2 0x4C22 PUSH1 0xD DUP4 PUSH2 0x444F JUMP JUMPDEST SWAP2 POP PUSH2 0x4C2D DUP3 PUSH2 0x4BEE JUMP JUMPDEST PUSH1 0x20 DUP3 ADD SWAP1 POP SWAP2 SWAP1 POP JUMP JUMPDEST PUSH0 PUSH1 0x20 DUP3 ADD SWAP1 POP DUP2 DUP2 SUB PUSH0 DUP4 ADD MSTORE PUSH2 0x4C4F DUP2 PUSH2 0x4C16 JUMP JUMPDEST SWAP1 POP SWAP2 SWAP1 POP JUMP JUMPDEST PUSH0 DUP2 SWAP1 POP SWAP2 SWAP1 POP JUMP JUMPDEST PUSH0 DUP2 SWAP1 POP SWAP2 SWAP1 POP JUMP JUMPDEST PUSH0 PUSH2 0x4C82 PUSH2 0x4C7D PUSH2 0x4C78 DUP5 PUSH2 0x4C56 JUMP JUMPDEST PUSH2 0x4C5F JUMP JUMPDEST PUSH2 0x4096 JUMP JUMPDEST SWAP1 POP SWAP2 SWAP1 POP JUMP JUMPDEST PUSH2 0x4C92 DUP2 PUSH2 0x4C68 JUMP JUMPDEST DUP3 MSTORE POP POP JUMP JUMPDEST PUSH0 PUSH1 0x60 DUP3 ADD SWAP1 POP PUSH2 0x4CAB PUSH0 DUP4 ADD DUP7 PUSH2 0x409F JUMP JUMPDEST PUSH2 0x4CB8 PUSH1 0x20 DUP4 ADD DUP6 PUSH2 0x4C89 JUMP JUMPDEST PUSH2 0x4CC5 PUSH1 0x40 DUP4 ADD DUP5 PUSH2 0x4C89 JUMP JUMPDEST SWAP5 SWAP4 POP POP POP POP JUMP JUMPDEST PUSH32 0x50656E616C747920746F6F20686967683A206D61782035302500000000000000 PUSH0 DUP3 ADD MSTORE POP JUMP JUMPDEST PUSH0 PUSH2 0x4D01 PUSH1 0x19 DUP4 PUSH2 0x444F JUMP JUMPDEST SWAP2 POP PUSH2 0x4D0C DUP3 PUSH2 0x4CCD JUMP JUMPDEST PUSH1 0x20 DUP3 ADD SWAP1 POP SWAP2 SWAP1 POP JUMP JUMPDEST PUSH0 PUSH1 0x20 DUP3 ADD SWAP1 POP DUP2 DUP2 SUB PUSH0 DUP4 ADD MSTORE PUSH2 0x4D2E DUP2 PUSH2 0x4CF5 JUMP JUMPDEST SWAP1 POP SWAP2 SWAP1 POP JUMP JUMPDEST PUSH32 0x50656E616C747920746F6F206C6F770000000000000000000000000000000000 PUSH0 DUP3 ADD MSTORE POP JUMP JUMPDEST PUSH0 PUSH2 0x4D69 PUSH1 0xF DUP4 PUSH2 0x444F JUMP JUMPDEST SWAP2 POP PUSH2 0x4D74 DUP3 PUSH2 0x4D35 JUMP JUMPDEST PUSH1 0x20 DUP3 ADD SWAP1 POP SWAP2 SWAP1 POP JUMP JUMPDEST PUSH0 PUSH1 0x20 DUP3 ADD SWAP1 POP DUP2 DUP2 SUB PUSH0 DUP4 ADD MSTORE PUSH2 0x4D96 DUP2 PUSH2 0x4D5D JUMP JUMPDEST SWAP1 POP SWAP2 SWAP1 POP JUMP JUMPDEST PUSH32 0x41646472657373206973206E6F7420626C61636B6C6973746564000000000000 PUSH0 DUP3 ADD MSTORE POP JUMP JUMPDEST PUSH0 PUSH2 0x4DD1 PUSH1 0x1A DUP4 PUSH2 0x444F JUMP JUMPDEST SWAP2 POP PUSH2 0x4DDC DUP3 PUSH2 0x4D9D JUMP JUMPDEST PUSH1 0x20 DUP3 ADD SWAP1 POP SWAP2 SWAP1 POP JUMP JUMPDEST PUSH0 PUSH1 0x20 DUP3 ADD SWAP1 POP DUP2 DUP2 SUB PUSH0 DUP4 ADD MSTORE PUSH2 0x4DFE DUP2 PUSH2 0x4DC5 JUMP JUMPDEST SWAP1 POP SWAP2 SWAP1 POP JUMP JUMPDEST PUSH32 0x43616E6E6F7420736574207A65726F2061646472657373000000000000000000 PUSH0 DUP3 ADD MSTORE POP JUMP JUMPDEST PUSH0 PUSH2 0x4E39 PUSH1 0x17 DUP4 PUSH2 0x444F JUMP JUMPDEST SWAP2 POP PUSH2 0x4E44 DUP3 PUSH2 0x4E05 JUMP JUMPDEST PUSH1 0x20 DUP3 ADD SWAP1 POP SWAP2 SWAP1 POP JUMP JUMPDEST PUSH0 PUSH1 0x20 DUP3 ADD SWAP1 POP DUP2 DUP2 SUB PUSH0 DUP4 ADD MSTORE PUSH2 0x4E66 DUP2 PUSH2 0x4E2D JUMP JUMPDEST SWAP1 POP SWAP2 SWAP1 POP JUMP JUMPDEST PUSH32 0x43616E6E6F742073657420636F6E747261637420697473656C66000000000000 PUSH0 DUP3 ADD MSTORE POP JUMP JUMPDEST PUSH0 PUSH2 0x4EA1 PUSH1 0x1A DUP4 PUSH2 0x444F JUMP JUMPDEST SWAP2 POP PUSH2 0x4EAC DUP3 PUSH2 0x4E6D JUMP JUMPDEST PUSH1 0x20 DUP3 ADD SWAP1 POP SWAP2 SWAP1 POP JUMP JUMPDEST PUSH0 PUSH1 0x20 DUP3 ADD SWAP1 POP DUP2 DUP2 SUB PUSH0 DUP4 ADD MSTORE PUSH2 0x4ECE DUP2 PUSH2 0x4E95 JUMP JUMPDEST SWAP1 POP SWAP2 SWAP1 POP JUMP JUMPDEST PUSH0 PUSH2 0x4EEF PUSH2 0x4EEA PUSH2 0x4EE5 DUP5 PUSH2 0x4124 JUMP JUMPDEST PUSH2 0x4C5F JUMP JUMPDEST PUSH2 0x4124 JUMP JUMPDEST SWAP1 POP SWAP2 SWAP1 POP JUMP JUMPDEST PUSH0 PUSH2 0x4F00 DUP3 PUSH2 0x4ED5 JUMP JUMPDEST SWAP1 POP SWAP2 SWAP1 POP JUMP JUMPDEST PUSH0 PUSH2 0x4F11 DUP3 PUSH2 0x4EF6 JUMP JUMPDEST SWAP1 POP SWAP2 SWAP1 POP JUMP JUMPDEST PUSH2 0x4F21 DUP2 PUSH2 0x4F07 JUMP JUMPDEST DUP3 MSTORE POP POP JUMP JUMPDEST PUSH0 PUSH1 0x40 DUP3 ADD SWAP1 POP PUSH2 0x4F3A PUSH0 DUP4 ADD DUP6 PUSH2 0x4300 JUMP JUMPDEST PUSH2 0x4F47 PUSH1 0x20 DUP4 ADD DUP5 PUSH2 0x4F18 JUMP JUMPDEST SWAP4 SWAP3 POP POP POP JUMP JUMPDEST PUSH32 0x496E74657265737420746F6F20686967683A206D617820323025000000000000 PUSH0 DUP3 ADD MSTORE POP JUMP JUMPDEST PUSH0 PUSH2 0x4F82 PUSH1 0x1A DUP4 PUSH2 0x444F JUMP JUMPDEST SWAP2 POP PUSH2 0x4F8D DUP3 PUSH2 0x4F4E JUMP JUMPDEST PUSH1 0x20 DUP3 ADD SWAP1 POP SWAP2 SWAP1 POP JUMP JUMPDEST PUSH0 PUSH1 0x20 DUP3 ADD SWAP1 POP DUP2 DUP2 SUB PUSH0 DUP4 ADD MSTORE PUSH2 0x4FAF DUP2 PUSH2 0x4F76 JUMP JUMPDEST SWAP1 POP SWAP2 SWAP1 POP JUMP JUMPDEST PUSH32 0x496E7465726573742063616E6E6F74206265207A65726F000000000000000000 PUSH0 DUP3 ADD MSTORE POP JUMP JUMPDEST PUSH0 PUSH2 0x4FEA PUSH1 0x17 DUP4 PUSH2 0x444F JUMP JUMPDEST SWAP2 POP PUSH2 0x4FF5 DUP3 PUSH2 0x4FB6 JUMP JUMPDEST PUSH1 0x20 DUP3 ADD SWAP1 POP SWAP2 SWAP1 POP JUMP JUMPDEST PUSH0 PUSH1 0x20 DUP3 ADD SWAP1 POP DUP2 DUP2 SUB PUSH0 DUP4 ADD MSTORE PUSH2 0x5017 DUP2 PUSH2 0x4FDE JUMP JUMPDEST SWAP1 POP SWAP2 SWAP1 POP JUMP JUMPDEST PUSH32 0x456D706C6F79656541737369676E6D656E743A20656D706C6F7965652063616E PUSH0 DUP3 ADD MSTORE PUSH32 0x6E6F74206265207A65726F206164647265737300000000000000000000000000 PUSH1 0x20 DUP3 ADD MSTORE POP JUMP JUMPDEST PUSH0 PUSH2 0x5078 PUSH1 0x33 DUP4 PUSH2 0x444F JUMP JUMPDEST SWAP2 POP PUSH2 0x5083 DUP3 PUSH2 0x501E JUMP JUMPDEST PUSH1 0x40 DUP3 ADD SWAP1 POP SWAP2 SWAP1 POP JUMP JUMPDEST PUSH0 PUSH1 0x20 DUP3 ADD SWAP1 POP DUP2 DUP2 SUB PUSH0 DUP4 ADD MSTORE PUSH2 0x50A5 DUP2 PUSH2 0x506C JUMP JUMPDEST SWAP1 POP SWAP2 SWAP1 POP JUMP JUMPDEST PUSH32 0x456D706C6F79656541737369676E6D656E743A20656D706C6F79656520616C72 PUSH0 DUP3 ADD MSTORE PUSH32 0x6561647920686173207468697320726F6C650000000000000000000000000000 PUSH1 0x20 DUP3 ADD MSTORE POP JUMP JUMPDEST PUSH0 PUSH2 0x5106 PUSH1 0x32 DUP4 PUSH2 0x444F JUMP JUMPDEST SWAP2 POP PUSH2 0x5111 DUP3 PUSH2 0x50AC JUMP JUMPDEST PUSH1 0x40 DUP3 ADD SWAP1 POP SWAP2 SWAP1 POP JUMP JUMPDEST PUSH0 PUSH1 0x20 DUP3 ADD SWAP1 POP DUP2 DUP2 SUB PUSH0 DUP4 ADD MSTORE PUSH2 0x5133 DUP2 PUSH2 0x50FA JUMP JUMPDEST SWAP1 POP SWAP2 SWAP1 POP JUMP JUMPDEST PUSH0 PUSH2 0x5144 DUP3 PUSH2 0x4096 JUMP JUMPDEST SWAP2 POP PUSH32 0xFFFFFFFFFFFFFFFFFFFFFFFFFFFFFFFFFFFFFFFFFFFFFFFFFFFFFFFFFFFFFFFF DUP3 SUB PUSH2 0x5176 JUMPI PUSH2 0x5175 PUSH2 0x4925 JUMP JUMPDEST JUMPDEST PUSH1 0x1 DUP3 ADD SWAP1 POP SWAP2 SWAP1 POP JUMP JUMPDEST PUSH32 0x626C61636B6C6973746564000000000000000000000000000000000000000000 PUSH0 DUP3 ADD MSTORE POP JUMP JUMPDEST PUSH0 PUSH2 0x51B5 PUSH1 0xB DUP4 PUSH2 0x444F JUMP JUMPDEST SWAP2 POP PUSH2 0x51C0 DUP3 PUSH2 0x5181 JUMP JUMPDEST PUSH1 0x20 DUP3 ADD SWAP1 POP SWAP2 SWAP1 POP JUMP JUMPDEST PUSH0 PUSH1 0x20 DUP3 ADD SWAP1 POP DUP2 DUP2 SUB PUSH0 DUP4 ADD MSTORE PUSH2 0x51E2 DUP2 PUSH2 0x51A9 JUMP JUMPDEST SWAP1 POP SWAP2 SWAP1 POP JUMP JUMPDEST PUSH32 0x696E76616C6964207072696E636970616C000000000000000000000000000000 PUSH0 DUP3 ADD MSTORE POP JUMP JUMPDEST PUSH0 PUSH2 0x521D PUSH1 0x11 DUP4 PUSH2 0x444F JUMP JUMPDEST SWAP2 POP PUSH2 0x5228 DUP3 PUSH2 0x51E9 JUMP JUMPDEST PUSH1 0x20 DUP3 ADD SWAP1 POP SWAP2 SWAP1 POP JUMP JUMPDEST PUSH0 PUSH1 0x20 DUP3 ADD SWAP1 POP DUP2 DUP2 SUB PUSH0 DUP4 ADD MSTORE PUSH2 0x524A DUP2 PUSH2 0x5211 JUMP JUMPDEST SWAP1 POP SWAP2 SWAP1 POP JUMP JUMPDEST PUSH32 0x6475726174696F6E206D757374206265203E3D2031206D6F6E74680000000000 PUSH0 DUP3 ADD MSTORE POP JUMP JUMPDEST PUSH0 PUSH2 0x5285 PUSH1 0x1B DUP4 PUSH2 0x444F JUMP JUMPDEST SWAP2 POP PUSH2 0x5290 DUP3 PUSH2 0x5251 JUMP JUMPDEST PUSH1 0x20 DUP3 ADD SWAP1 POP SWAP2 SWAP1 POP JUMP JUMPDEST PUSH0 PUSH1 0x20 DUP3 ADD SWAP1 POP DUP2 DUP2 SUB PUSH0 DUP4 ADD MSTORE PUSH2 0x52B2 DUP2 PUSH2 0x5279 JUMP JUMPDEST SWAP1 POP SWAP2 SWAP1 POP JUMP JUMPDEST PUSH32 0x6E6577206C6F616E7320626C6F636B6564000000000000000000000000000000 PUSH0 DUP3 ADD MSTORE POP JUMP JUMPDEST PUSH0 PUSH2 0x52ED PUSH1 0x11 DUP4 PUSH2 0x444F JUMP JUMPDEST SWAP2 POP PUSH2 0x52F8 DUP3 PUSH2 0x52B9 JUMP JUMPDEST PUSH1 0x20 DUP3 ADD SWAP1 POP SWAP2 SWAP1 POP JUMP JUMPDEST PUSH0 PUSH1 0x20 DUP3 ADD SWAP1 POP DUP2 DUP2 SUB PUSH0 DUP4 ADD MSTORE PUSH2 0x531A DUP2 PUSH2 0x52E1 JUMP JUMPDEST SWAP1 POP SWAP2 SWAP1 POP JUMP JUMPDEST PUSH0 PUSH2 0x532B DUP3 PUSH2 0x4096 JUMP JUMPDEST SWAP2 POP PUSH2 0x5336 DUP4 PUSH2 0x4096 JUMP JUMPDEST SWAP3 POP DUP3 DUP3 MUL PUSH2 0x5344 DUP2 PUSH2 0x4096 JUMP JUMPDEST SWAP2 POP DUP3 DUP3 DIV DUP5 EQ DUP4 ISZERO OR PUSH2 0x535B JUMPI PUSH2 0x535A PUSH2 0x4925 JUMP JUMPDEST JUMPDEST POP SWAP3 SWAP2 POP POP JUMP JUMPDEST PUSH32 0x4E487B7100000000000000000000000000000000000000000000000000000000 PUSH0 MSTORE PUSH1 0x12 PUSH1 0x4 MSTORE PUSH1 0x24 PUSH0 REVERT JUMPDEST PUSH0 PUSH2 0x5399 DUP3 PUSH2 0x4096 JUMP JUMPDEST SWAP2 POP PUSH2 0x53A4 DUP4 PUSH2 0x4096 JUMP JUMPDEST SWAP3 POP DUP3 PUSH2 0x53B4 JUMPI PUSH2 0x53B3 PUSH2 0x5362 JUMP JUMPDEST JUMPDEST DUP3 DUP3 DIV SWAP1 POP SWAP3 SWAP2 POP POP JUMP JUMPDEST PUSH32 0x696E73756666696369656E7420636F6C6C61746572616C000000000000000000 PUSH0 DUP3 ADD MSTORE POP JUMP JUMPDEST PUSH0 PUSH2 0x53F3 PUSH1 0x17 DUP4 PUSH2 0x444F JUMP JUMPDEST SWAP2 POP PUSH2 0x53FE DUP3 PUSH2 0x53BF JUMP JUMPDEST PUSH1 0x20 DUP3 ADD SWAP1 POP SWAP2 SWAP1 POP JUMP JUMPDEST PUSH0 PUSH1 0x20 DUP3 ADD SWAP1 POP DUP2 DUP2 SUB PUSH0 DUP4 ADD MSTORE PUSH2 0x5420 DUP2 PUSH2 0x53E7 JUMP JUMPDEST SWAP1 POP SWAP2 SWAP1 POP JUMP JUMPDEST PUSH0 PUSH1 0x60 DUP3 ADD SWAP1 POP PUSH2 0x543A PUSH0 DUP4 ADD DUP7 PUSH2 0x409F JUMP JUMPDEST PUSH2 0x5447 PUSH1 0x20 DUP4 ADD DUP6 PUSH2 0x409F JUMP JUMPDEST PUSH2 0x5454 PUSH1 0x40 DUP4 ADD DUP5 PUSH2 0x409F JUMP JUMPDEST SWAP5 SWAP4 POP POP POP POP JUMP JUMPDEST PUSH32 0x616C7265616479206C6971756964617465640000000000000000000000000000 PUSH0 DUP3 ADD MSTORE POP JUMP JUMPDEST PUSH0 PUSH2 0x5490 PUSH1 0x12 DUP4 PUSH2 0x444F JUMP JUMPDEST SWAP2 POP PUSH2 0x549B DUP3 PUSH2 0x545C JUMP JUMPDEST PUSH1 0x20 DUP3 ADD SWAP1 POP SWAP2 SWAP1 POP JUMP JUMPDEST PUSH0 PUSH1 0x20 DUP3 ADD SWAP1 POP DUP2 DUP2 SUB PUSH0 DUP4 ADD MSTORE PUSH2 0x54BD DUP2 PUSH2 0x5484 JUMP JUMPDEST SWAP1 POP SWAP2 SWAP1 POP JUMP JUMPDEST PUSH32 0x616C726561647920616374697665000000000000000000000000000000000000 PUSH0 DUP3 ADD MSTORE POP JUMP JUMPDEST PUSH0 PUSH2 0x54F8 PUSH1 0xE DUP4 PUSH2 0x444F JUMP JUMPDEST SWAP2 POP PUSH2 0x5503 DUP3 PUSH2 0x54C4 JUMP JUMPDEST PUSH1 0x20 DUP3 ADD SWAP1 POP SWAP2 SWAP1 POP JUMP JUMPDEST PUSH0 PUSH1 0x20 DUP3 ADD SWAP1 POP DUP2 DUP2 SUB PUSH0 DUP4 ADD MSTORE PUSH2 0x5525 DUP2 PUSH2 0x54EC JUMP JUMPDEST SWAP1 POP SWAP2 SWAP1 POP JUMP JUMPDEST PUSH32 0x636F6E7472616374206C61636B73206C69717569646974790000000000000000 PUSH0 DUP3 ADD MSTORE POP JUMP JUMPDEST PUSH0 PUSH2 0x5560 PUSH1 0x18 DUP4 PUSH2 0x444F JUMP JUMPDEST SWAP2 POP PUSH2 0x556B DUP3 PUSH2 0x552C JUMP JUMPDEST PUSH1 0x20 DUP3 ADD SWAP1 POP SWAP2 SWAP1 POP JUMP JUMPDEST PUSH0 PUSH1 0x20 DUP3 ADD SWAP1 POP DUP2 DUP2 SUB PUSH0 DUP4 ADD MSTORE PUSH2 0x558D DUP2 PUSH2 0x5554 JUMP JUMPDEST SWAP1 POP SWAP2 SWAP1 POP JUMP JUMPDEST PUSH32 0x6469736275727365206661696C65640000000000000000000000000000000000 PUSH0 DUP3 ADD MSTORE POP JUMP JUMPDEST PUSH0 PUSH2 0x55C8 PUSH1 0xF DUP4 PUSH2 0x444F JUMP JUMPDEST SWAP2 POP PUSH2 0x55D3 DUP3 PUSH2 0x5594 JUMP JUMPDEST PUSH1 0x20 DUP3 ADD SWAP1 POP SWAP2 SWAP1 POP JUMP JUMPDEST PUSH0 PUSH1 0x20 DUP3 ADD SWAP1 POP DUP2 DUP2 SUB PUSH0 DUP4 ADD MSTORE PUSH2 0x55F5 DUP2 PUSH2 0x55BC JUMP JUMPDEST SWAP1 POP SWAP2 SWAP1 POP JUMP JUMPDEST PUSH32 0x4E504C206C696D697420746F6F20686967683A206D6178203530250000000000 PUSH0 DUP3 ADD MSTORE POP JUMP JUMPDEST PUSH0 PUSH2 0x5630 PUSH1 0x1B DUP4 PUSH2 0x444F JUMP JUMPDEST SWAP2 POP PUSH2 0x563B DUP3 PUSH2 0x55FC JUMP JUMPDEST PUSH1 0x20 DUP3 ADD SWAP1 POP SWAP2 SWAP1 POP JUMP JUMPDEST PUSH0 PUSH1 0x20 DUP3 ADD SWAP1 POP DUP2 DUP2 SUB PUSH0 DUP4 ADD MSTORE PUSH2 0x565D DUP2 PUSH2 0x5624 JUMP JUMPDEST SWAP1 POP SWAP2 SWAP1 POP JUMP JUMPDEST PUSH32 0x6C6F616E206E6F7420616374697665206F72206C697175696461746564000000 PUSH0 DUP3 ADD MSTORE POP JUMP JUMPDEST PUSH0 PUSH2 0x5698 PUSH1 0x1D DUP4 PUSH2 0x444F JUMP JUMPDEST SWAP2 POP PUSH2 0x56A3 DUP3 PUSH2 0x5664 JUMP JUMPDEST PUSH1 0x20 DUP3 ADD SWAP1 POP SWAP2 SWAP1 POP JUMP JUMPDEST PUSH0 PUSH1 0x20 DUP3 ADD SWAP1 POP DUP2 DUP2 SUB PUSH0 DUP4 ADD MSTORE PUSH2 0x56C5 DUP2 PUSH2 0x568C JUMP JUMPDEST SWAP1 POP SWAP2 SWAP1 POP JUMP JUMPDEST PUSH32 0x6F6E6C7920626F72726F77657200000000000000000000000000000000000000 PUSH0 DUP3 ADD MSTORE POP JUMP JUMPDEST PUSH0 PUSH2 0x5700 PUSH1 0xD DUP4 PUSH2 0x444F JUMP JUMPDEST SWAP2 POP PUSH2 0x570B DUP3 PUSH2 0x56CC JUMP JUMPDEST PUSH1 0x20 DUP3 ADD SWAP1 POP SWAP2 SWAP1 POP JUMP JUMPDEST PUSH0 PUSH1 0x20 DUP3 ADD SWAP1 POP DUP2 DUP2 SUB PUSH0 DUP4 ADD MSTORE PUSH2 0x572D DUP2 PUSH2 0x56F4 JUMP JUMPDEST SWAP1 POP SWAP2 SWAP1 POP JUMP JUMPDEST PUSH32 0x6D75737420706179206174206C65617374206F6E65206D6F6E74680000000000 PUSH0 DUP3 ADD MSTORE POP JUMP JUMPDEST PUSH0 PUSH2 0x5768 PUSH1 0x1B DUP4 PUSH2 0x444F JUMP JUMPDEST SWAP2 POP PUSH2 0x5773 DUP3 PUSH2 0x5734 JUMP JUMPDEST PUSH1 0x20 DUP3 ADD SWAP1 POP SWAP2 SWAP1 POP JUMP JUMPDEST PUSH0 PUSH1 0x20 DUP3 ADD SWAP1 POP DUP2 DUP2 SUB PUSH0 DUP4 ADD MSTORE PUSH2 0x5795 DUP2 PUSH2 0x575C JUMP JUMPDEST SWAP1 POP SWAP2 SWAP1 POP JUMP JUMPDEST PUSH32 0x657863656564732072656D61696E696E67206D6F6E7468730000000000000000 PUSH0 DUP3 ADD MSTORE POP JUMP JUMPDEST PUSH0 PUSH2 0x57D0 PUSH1 0x18 DUP4 PUSH2 0x444F JUMP JUMPDEST SWAP2 POP PUSH2 0x57DB DUP3 PUSH2 0x579C JUMP JUMPDEST PUSH1 0x20 DUP3 ADD SWAP1 POP SWAP2 SWAP1 POP JUMP JUMPDEST PUSH0 PUSH1 0x20 DUP3 ADD SWAP1 POP DUP2 DUP2 SUB PUSH0 DUP4 ADD MSTORE PUSH2 0x57FD DUP2 PUSH2 0x57C4 JUMP JUMPDEST SWAP1 POP SWAP2 SWAP1 POP JUMP JUMPDEST PUSH32 0x6C6F616E20616C72656164792066756C6C792070616964000000000000000000 PUSH0 DUP3 ADD MSTORE POP JUMP JUMPDEST PUSH0 PUSH2 0x5838 PUSH1 0x17 DUP4 PUSH2 0x444F JUMP JUMPDEST SWAP2 POP PUSH2 0x5843 DUP3 PUSH2 0x5804 JUMP JUMPDEST PUSH1 0x20 DUP3 ADD SWAP1 POP SWAP2 SWAP1 POP JUMP JUMPDEST PUSH0 PUSH1 0x20 DUP3 ADD SWAP1 POP DUP2 DUP2 SUB PUSH0 DUP4 ADD MSTORE PUSH2 0x5865 DUP2 PUSH2 0x582C JUMP JUMPDEST SWAP1 POP SWAP2 SWAP1 POP JUMP JUMPDEST PUSH32 0x6D73672E76616C7565206D69736D6174636820746F74616C207061796D656E74 PUSH0 DUP3 ADD MSTORE PUSH32 0x206E656564656400000000000000000000000000000000000000000000000000 PUSH1 0x20 DUP3 ADD MSTORE POP JUMP JUMPDEST PUSH0 PUSH2 0x58C6 PUSH1 0x27 DUP4 PUSH2 0x444F JUMP JUMPDEST SWAP2 POP PUSH2 0x58D1 DUP3 PUSH2 0x586C JUMP JUMPDEST PUSH1 0x40 DUP3 ADD SWAP1 POP SWAP2 SWAP1 POP JUMP JUMPDEST PUSH0 PUSH1 0x20 DUP3 ADD SWAP1 POP DUP2 DUP2 SUB PUSH0 DUP4 ADD MSTORE PUSH2 0x58F3 DUP2 PUSH2 0x58BA JUMP JUMPDEST SWAP1 POP SWAP2 SWAP1 POP JUMP JUMPDEST PUSH0 PUSH2 0x5905 PUSH0 DUP4 PUSH2 0x444F JUMP JUMPDEST SWAP2 POP PUSH2 0x5910 DUP3 PUSH2 0x46C6 JUMP JUMPDEST PUSH0 DUP3 ADD SWAP1 POP SWAP2 SWAP1 POP JUMP JUMPDEST PUSH0 PUSH1 0x20 DUP3 ADD SWAP1 POP DUP2 DUP2 SUB PUSH0 DUP4 ADD MSTORE PUSH2 0x5931 DUP2 PUSH2 0x58FA JUMP JUMPDEST SWAP1 POP SWAP2 SWAP1 POP JUMP JUMPDEST PUSH32 0x436F6C61746572616C206661696C656420746F2073656E642021000000000000 PUSH0 DUP3 ADD MSTORE POP JUMP JUMPDEST PUSH0 PUSH2 0x596C PUSH1 0x1A DUP4 PUSH2 0x444F JUMP JUMPDEST SWAP2 POP PUSH2 0x5977 DUP3 PUSH2 0x5938 JUMP JUMPDEST PUSH1 0x20 DUP3 ADD SWAP1 POP SWAP2 SWAP1 POP JUMP JUMPDEST PUSH0 PUSH1 0x20 DUP3 ADD SWAP1 POP DUP2 DUP2 SUB PUSH0 DUP4 ADD MSTORE PUSH2 0x5999 DUP2 PUSH2 0x5960 JUMP JUMPDEST SWAP1 POP SWAP2 SWAP1 POP JUMP JUMPDEST PUSH32 0x456D706C6F79656541737369676E6D656E743A207A65726F2061646472657373 PUSH0 DUP3 ADD MSTORE PUSH32 0x206E6F7420616C6C6F7765640000000000000000000000000000000000000000 PUSH1 0x20 DUP3 ADD MSTORE POP JUMP JUMPDEST PUSH0 PUSH2 0x59FA PUSH1 0x2C DUP4 PUSH2 0x444F JUMP JUMPDEST SWAP2 POP PUSH2 0x5A05 DUP3 PUSH2 0x59A0 JUMP JUMPDEST PUSH1 0x40 DUP3 ADD SWAP1 POP SWAP2 SWAP1 POP JUMP JUMPDEST PUSH0 PUSH1 0x20 DUP3 ADD SWAP1 POP DUP2 DUP2 SUB PUSH0 DUP4 ADD MSTORE PUSH2 0x5A27 DUP2 PUSH2 0x59EE JUMP JUMPDEST SWAP1 POP SWAP2 SWAP1 POP JUMP JUMPDEST PUSH32 0x5265656E7472616E637947756172643A207265656E7472616E742063616C6C00 PUSH0 DUP3 ADD MSTORE POP JUMP JUMPDEST PUSH0 PUSH2 0x5A62 PUSH1 0x1F DUP4 PUSH2 0x444F JUMP JUMPDEST SWAP2 POP PUSH2 0x5A6D DUP3 PUSH2 0x5A2E JUMP JUMPDEST PUSH1 0x20 DUP3 ADD SWAP1 POP SWAP2 SWAP1 POP JUMP JUMPDEST PUSH0 PUSH1 0x20 DUP3 ADD SWAP1 POP DUP2 DUP2 SUB PUSH0 DUP4 ADD MSTORE PUSH2 0x5A8F DUP2 PUSH2 0x5A56 JUMP JUMPDEST SWAP1 POP SWAP2 SWAP1 POP JUMP JUMPDEST PUSH32 0x696E76616C696420496400000000000000000000000000000000000000000000 PUSH0 DUP3 ADD MSTORE POP JUMP JUMPDEST PUSH0 PUSH2 0x5ACA PUSH1 0xA DUP4 PUSH2 0x444F JUMP JUMPDEST SWAP2 POP PUSH2 0x5AD5 DUP3 PUSH2 0x5A96 JUMP JUMPDEST PUSH1 0x20 DUP3 ADD SWAP1 POP SWAP2 SWAP1 POP JUMP JUMPDEST PUSH0 PUSH1 0x20 DUP3 ADD SWAP1 POP DUP2 DUP2 SUB PUSH0 DUP4 ADD MSTORE PUSH2 0x5AF7 DUP2 PUSH2 0x5ABE JUMP JUMPDEST SWAP1 POP SWAP2 SWAP1 POP JUMP JUMPDEST PUSH32 0x696E76616C6964206C6F616E0000000000000000000000000000000000000000 PUSH0 DUP3 ADD MSTORE POP JUMP JUMPDEST PUSH0 PUSH2 0x5B32 PUSH1 0xC DUP4 PUSH2 0x444F JUMP JUMPDEST SWAP2 POP PUSH2 0x5B3D DUP3 PUSH2 0x5AFE JUMP JUMPDEST PUSH1 0x20 DUP3 ADD SWAP1 POP SWAP2 SWAP1 POP JUMP JUMPDEST PUSH0 PUSH1 0x20 DUP3 ADD SWAP1 POP DUP2 DUP2 SUB PUSH0 DUP4 ADD MSTORE PUSH2 0x5B5F DUP2 PUSH2 0x5B26 JUMP JUMPDEST SWAP1 POP SWAP2 SWAP1 POP JUMP INVALID LOG2 PUSH5 0x6970667358 0x22 SLT KECCAK256 RETURNDATASIZE SWAPN 0xA2 MLOAD 0xAF 0xDD 0xAA NUMBER 0xD2 CALLDATACOPY 0xAA PUSH1 0xB4 LOG3 CREATE STATICCALL BLOCKHASH SWAP6 0xBE DUP10 0xA5 JUMPDEST SWAP2 PUSH12 0x84C41199A2FBEC0064736F6C PUSH4 0x4300081E STOP CALLER "
		},
		"gasEstimates": {
			"creation": {
				"codeDepositCost": "4690400",
				"executionCost": "infinite",
				"totalCost": "infinite"
			},
			"external": {
				"TotalLoan()": "5136",
				"approveLoan(uint256)": "infinite",
				"assignNewEmployee(address,string)": "infinite",
				"blacklist(address)": "2943",
				"checkAndProcessLoan(uint256)": "infinite",
				"collateralRatioPercent()": "2492",
				"employeeCount()": "2448",
				"hasRole(address,string)": "infinite",
				"loanInfo(uint256)": "infinite",
				"loans(uint256)": "infinite",
				"maxNPLPercent()": "2514",
				"monthlyInterestPercent()": "2513",
				"payMonthly(uint256,uint256)": "infinite",
				"penaltyPercent()": "2449",
				"rejectLoan(uint256)": "infinite",
				"removeEmployee(address,string)": "infinite",
				"requestLoan(uint256,uint256)": "infinite",
				"setCollateralRatioPercent(uint256)": "infinite",
				"setManagementWallet(address)": "infinite",
				"setMaxNPLPercent(uint256)": "infinite",
				"setMonthlyInterestPercent(uint256)": "infinite",
				"setPenaltyPercent(uint256)": "infinite",
				"strikes(address)": "2869",
				"takeProfits()": "infinite",
				"totalProfits()": "2558",
				"unblacklist(address)": "infinite"
			},
			"internal": {
				"_finalLiquidation(uint256)": "infinite",
				"_invalidId(uint256)": "infinite",
				"_liquidateForConsecutiveMisses(uint256,uint256)": "infinite",
				"_monthsSince(uint256,uint256)": "infinite",
				"currentNPL()": "infinite",
				"loansAllowed()": "infinite",
				"monthlyDue(uint256)": "infinite"
			}
		},
		"methodIdentifiers": {
			"TotalLoan()": "4492b5c9",
			"approveLoan(uint256)": "aadc1ac1",
			"assignNewEmployee(address,string)": "a5623ffc",
			"blacklist(address)": "f9f92be4",
			"checkAndProcessLoan(uint256)": "5b4d76f1",
			"collateralRatioPercent()": "d682dab5",
			"employeeCount()": "9047bf58",
			"hasRole(address,string)": "217fe6c6",
			"loanInfo(uint256)": "8349d6be",
			"loans(uint256)": "e1ec3c68",
			"maxNPLPercent()": "de2cf972",
			"monthlyInterestPercent()": "f013e4b5",
			"payMonthly(uint256,uint256)": "e7774868",
			"penaltyPercent()": "161ba46a",
			"rejectLoan(uint256)": "5d29cb98",
			"removeEmployee(address,string)": "559b9b4c",
			"requestLoan(uint256,uint256)": "aa452fa6",
			"setCollateralRatioPercent(uint256)": "20a87d80",
			"setManagementWallet(address)": "7be9878b",
			"setMaxNPLPercent(uint256)": "d071b980",
			"setMonthlyInterestPercent(uint256)": "98b7049e",
			"setPenaltyPercent(uint256)": "71c263b2",
			"strikes(address)": "7794e3fd",
			"takeProfits()": "23e77db3",
			"totalProfits()": "bd998cb3",
			"unblacklist(address)": "75e3661e"
		}
	},
	"abi": [
		{
			"inputs": [
				{
					"internalType": "address payable",
					"name": "_managementWallet",
					"type": "address"
				}
			],
			"stateMutability": "nonpayable",
			"type": "constructor"
		},
		{
			"anonymous": false,
			"inputs": [
				{
					"indexed": true,
					"internalType": "address",
					"name": "borrower",
					"type": "address"
				}
			],
			"name": "Blacklisted",
			"type": "event"
		},
		{
			"anonymous": false,
			"inputs": [
				{
					"indexed": false,
					"internalType": "uint256",
					"name": "oldValue",
					"type": "uint256"
				},
				{
					"indexed": false,
					"internalType": "uint256",
					"name": "newValue",
					"type": "uint256"
				}
			],
			"name": "CollateralRatioChanged",
			"type": "event"
		},
		{
			"anonymous": false,
			"inputs": [
				{
					"indexed": true,
					"internalType": "address",
					"name": "employee",
					"type": "address"
				},
				{
					"indexed": false,
					"internalType": "string",
					"name": "role",
					"type": "string"
				}
			],
			"name": "EmployeeAssigned",
			"type": "event"
		},
		{
			"anonymous": false,
			"inputs": [
				{
					"indexed": true,
					"internalType": "address",
					"name": "employee",
					"type": "address"
				},
				{
					"indexed": false,
					"internalType": "string",
					"name": "role",
					"type": "string"
				}
			],
			"name": "EmployeeRemoved",
			"type": "event"
		},
		{
			"anonymous": false,
			"inputs": [
				{
					"indexed": false,
					"internalType": "uint256",
					"name": "oldValue",
					"type": "uint256"
				},
				{
					"indexed": false,
					"internalType": "uint256",
					"name": "newValue",
					"type": "uint256"
				}
			],
			"name": "InterestRateChanged",
			"type": "event"
		},
		{
			"anonymous": false,
			"inputs": [
				{
					"indexed": true,
					"internalType": "uint256",
					"name": "loanId",
					"type": "uint256"
				},
				{
					"indexed": true,
					"internalType": "address",
					"name": "borrower",
					"type": "address"
				},
				{
					"indexed": false,
					"internalType": "uint256",
					"name": "startTimestamp",
					"type": "uint256"
				}
			],
			"name": "LoanApproved",
			"type": "event"
		},
		{
			"anonymous": false,
			"inputs": [
				{
					"indexed": true,
					"internalType": "uint256",
					"name": "loanId",
					"type": "uint256"
				},
				{
					"indexed": true,
					"internalType": "address",
					"name": "borrower",
					"type": "address"
				},
				{
					"indexed": false,
					"internalType": "uint256",
					"name": "amount",
					"type": "uint256"
				}
			],
			"name": "LoanDisbursed",
			"type": "event"
		},
		{
			"anonymous": false,
			"inputs": [
				{
					"indexed": true,
					"internalType": "uint256",
					"name": "loanId",
					"type": "uint256"
				},
				{
					"indexed": true,
					"internalType": "address",
					"name": "borrower",
					"type": "address"
				},
				{
					"indexed": false,
					"internalType": "uint256",
					"name": "collateralUsed",
					"type": "uint256"
				},
				{
					"indexed": false,
					"internalType": "uint256",
					"name": "deficitCovered",
					"type": "uint256"
				},
				{
					"indexed": false,
					"internalType": "uint256",
					"name": "profitFromCollateral",
					"type": "uint256"
				}
			],
			"name": "LoanLiquidated",
			"type": "event"
		},
		{
			"anonymous": false,
			"inputs": [
				{
					"indexed": true,
					"internalType": "uint256",
					"name": "loanId",
					"type": "uint256"
				},
				{
					"indexed": true,
					"internalType": "address",
					"name": "borrower",
					"type": "address"
				},
				{
					"indexed": false,
					"internalType": "uint256",
					"name": "principal",
					"type": "uint256"
				},
				{
					"indexed": false,
					"internalType": "uint256",
					"name": "durationMonths",
					"type": "uint256"
				},
				{
					"indexed": false,
					"internalType": "uint256",
					"name": "collateral",
					"type": "uint256"
				}
			],
			"name": "LoanRequested",
			"type": "event"
		},
		{
			"anonymous": false,
			"inputs": [
				{
					"indexed": false,
					"internalType": "address",
					"name": "oldWallet",
					"type": "address"
				},
				{
					"indexed": false,
					"internalType": "address",
					"name": "newWallet",
					"type": "address"
				}
			],
			"name": "ManagementWalletChanged",
			"type": "event"
		},
		{
			"anonymous": false,
			"inputs": [
				{
					"indexed": false,
					"internalType": "uint256",
					"name": "oldValue",
					"type": "uint256"
				},
				{
					"indexed": false,
					"internalType": "uint256",
					"name": "newValue",
					"type": "uint256"
				}
			],
			"name": "MaxNPLChanged",
			"type": "event"
		},
		{
			"anonymous": false,
			"inputs": [
				{
					"indexed": true,
					"internalType": "uint256",
					"name": "loanId",
					"type": "uint256"
				},
				{
					"indexed": false,
					"internalType": "uint256",
					"name": "missedCount",
					"type": "uint256"
				}
			],
			"name": "MonthMissed",
			"type": "event"
		},
		{
			"anonymous": false,
			"inputs": [
				{
					"indexed": true,
					"internalType": "uint256",
					"name": "loanId",
					"type": "uint256"
				},
				{
					"indexed": true,
					"internalType": "address",
					"name": "payer",
					"type": "address"
				},
				{
					"indexed": false,
					"internalType": "uint256",
					"name": "amount",
					"type": "uint256"
				},
				{
					"indexed": false,
					"internalType": "uint256",
					"name": "monthIndex",
					"type": "uint256"
				}
			],
			"name": "MonthlyPaymentMade",
			"type": "event"
		},
		{
			"anonymous": false,
			"inputs": [
				{
					"indexed": false,
					"internalType": "uint256",
					"name": "oldValue",
					"type": "uint256"
				},
				{
					"indexed": false,
					"internalType": "uint256",
					"name": "newValue",
					"type": "uint256"
				}
			],
			"name": "PenaltyPercentChanged",
			"type": "event"
		},
		{
			"anonymous": false,
			"inputs": [
				{
					"indexed": true,
					"internalType": "address",
					"name": "to",
					"type": "address"
				},
				{
					"indexed": false,
					"internalType": "uint256",
					"name": "amount",
					"type": "uint256"
				}
			],
			"name": "ProfitTaken",
			"type": "event"
		},
		{
			"anonymous": false,
			"inputs": [
				{
					"indexed": true,
					"internalType": "address",
					"name": "borrower",
					"type": "address"
				},
				{
					"indexed": false,
					"internalType": "uint256",
					"name": "strikes",
					"type": "uint256"
				}
			],
			"name": "StrikeAdded",
			"type": "event"
		},
		{
			"anonymous": false,
			"inputs": [
				{
					"indexed": true,
					"internalType": "address",
					"name": "borrower",
					"type": "address"
				}
			],
			"name": "UnBlacklisted",
			"type": "event"
		},
		{
			"anonymous": false,
			"inputs": [
				{
					"indexed": true,
					"internalType": "address",
					"name": "managementWallet",
					"type": "address"
				}
			],
			"name": "managementWallet_address",
			"type": "event"
		},
		{
			"inputs": [],
			"name": "TotalLoan",
			"outputs": [
				{
					"internalType": "uint256",
					"name": "",
					"type": "uint256"
				}
			],
			"stateMutability": "view",
			"type": "function"
		},
		{
			"inputs": [
				{
					"internalType": "uint256",
					"name": "loanId",
					"type": "uint256"
				}
			],
			"name": "approveLoan",
			"outputs": [],
			"stateMutability": "nonpayable",
			"type": "function"
		},
		{
			"inputs": [
				{
					"internalType": "address",
					"name": "newEmployee",
					"type": "address"
				},
				{
					"internalType": "string",
					"name": "role",
					"type": "string"
				}
			],
			"name": "assignNewEmployee",
			"outputs": [],
			"stateMutability": "nonpayable",
			"type": "function"
		},
		{
			"inputs": [
				{
					"internalType": "address",
					"name": "",
					"type": "address"
				}
			],
			"name": "blacklist",
			"outputs": [
				{
					"internalType": "bool",
					"name": "",
					"type": "bool"
				}
			],
			"stateMutability": "view",
			"type": "function"
		},
		{
			"inputs": [
				{
					"internalType": "uint256",
					"name": "loanId",
					"type": "uint256"
				}
			],
			"name": "checkAndProcessLoan",
			"outputs": [],
			"stateMutability": "nonpayable",
			"type": "function"
		},
		{
			"inputs": [],
			"name": "collateralRatioPercent",
			"outputs": [
				{
					"internalType": "uint256",
					"name": "",
					"type": "uint256"
				}
			],
			"stateMutability": "view",
			"type": "function"
		},
		{
			"inputs": [],
			"name": "employeeCount",
			"outputs": [
				{
					"internalType": "uint256",
					"name": "",
					"type": "uint256"
				}
			],
			"stateMutability": "view",
			"type": "function"
		},
		{
			"inputs": [
				{
					"internalType": "address",
					"name": "account",
					"type": "address"
				},
				{
					"internalType": "string",
					"name": "role",
					"type": "string"
				}
			],
			"name": "hasRole",
			"outputs": [
				{
					"internalType": "bool",
					"name": "",
					"type": "bool"
				}
			],
			"stateMutability": "view",
			"type": "function"
		},
		{
			"inputs": [
				{
					"internalType": "uint256",
					"name": "loanId",
					"type": "uint256"
				}
			],
			"name": "loanInfo",
			"outputs": [
				{
					"internalType": "address",
					"name": "borrower",
					"type": "address"
				},
				{
					"internalType": "uint256",
					"name": "principal",
					"type": "uint256"
				},
				{
					"internalType": "uint256",
					"name": "durationMonths",
					"type": "uint256"
				},
				{
					"internalType": "uint256",
					"name": "startTimestamp",
					"type": "uint256"
				},
				{
					"internalType": "uint256",
					"name": "paidMonths",
					"type": "uint256"
				},
				{
					"internalType": "uint256",
					"name": "consecutiveMissed",
					"type": "uint256"
				},
				{
					"internalType": "uint256",
					"name": "remainingPrincipal",
					"type": "uint256"
				},
				{
					"internalType": "uint256",
					"name": "collateral",
					"type": "uint256"
				},
				{
					"internalType": "bool",
					"name": "liquidated",
					"type": "bool"
				},
				{
					"internalType": "bool",
					"name": "active",
					"type": "bool"
				}
			],
			"stateMutability": "view",
			"type": "function"
		},
		{
			"inputs": [
				{
					"internalType": "uint256",
					"name": "",
					"type": "uint256"
				}
			],
			"name": "loans",
			"outputs": [
				{
					"internalType": "address",
					"name": "borrower",
					"type": "address"
				},
				{
					"internalType": "uint256",
					"name": "principal",
					"type": "uint256"
				},
				{
					"internalType": "uint256",
					"name": "durationMonths",
					"type": "uint256"
				},
				{
					"internalType": "uint256",
					"name": "startTimestamp",
					"type": "uint256"
				},
				{
					"internalType": "uint256",
					"name": "paidMonths",
					"type": "uint256"
				},
				{
					"internalType": "uint256",
					"name": "consecutiveMissed",
					"type": "uint256"
				},
				{
					"internalType": "uint256",
					"name": "remainingPrincipal",
					"type": "uint256"
				},
				{
					"internalType": "uint256",
					"name": "collateral",
					"type": "uint256"
				},
				{
					"internalType": "bool",
					"name": "liquidated",
					"type": "bool"
				},
				{
					"internalType": "bool",
					"name": "active",
					"type": "bool"
				}
			],
			"stateMutability": "view",
			"type": "function"
		},
		{
			"inputs": [],
			"name": "maxNPLPercent",
			"outputs": [
				{
					"internalType": "uint256",
					"name": "",
					"type": "uint256"
				}
			],
			"stateMutability": "view",
			"type": "function"
		},
		{
			"inputs": [],
			"name": "monthlyInterestPercent",
			"outputs": [
				{
					"internalType": "uint256",
					"name": "",
					"type": "uint256"
				}
			],
			"stateMutability": "view",
			"type": "function"
		},
		{
			"inputs": [
				{
					"internalType": "uint256",
					"name": "loanId",
					"type": "uint256"
				},
				{
					"internalType": "uint256",
					"name": "monthsToPay",
					"type": "uint256"
				}
			],
			"name": "payMonthly",
			"outputs": [],
			"stateMutability": "payable",
			"type": "function"
		},
		{
			"inputs": [],
			"name": "penaltyPercent",
			"outputs": [
				{
					"internalType": "uint256",
					"name": "",
					"type": "uint256"
				}
			],
			"stateMutability": "view",
			"type": "function"
		},
		{
			"inputs": [
				{
					"internalType": "uint256",
					"name": "loanId",
					"type": "uint256"
				}
			],
			"name": "rejectLoan",
			"outputs": [],
			"stateMutability": "nonpayable",
			"type": "function"
		},
		{
			"inputs": [
				{
					"internalType": "address",
					"name": "employee",
					"type": "address"
				},
				{
					"internalType": "string",
					"name": "role",
					"type": "string"
				}
			],
			"name": "removeEmployee",
			"outputs": [],
			"stateMutability": "nonpayable",
			"type": "function"
		},
		{
			"inputs": [
				{
					"internalType": "uint256",
					"name": "principalInETH",
					"type": "uint256"
				},
				{
					"internalType": "uint256",
					"name": "durationMonths",
					"type": "uint256"
				}
			],
			"name": "requestLoan",
			"outputs": [],
			"stateMutability": "payable",
			"type": "function"
		},
		{
			"inputs": [
				{
					"internalType": "uint256",
					"name": "p",
					"type": "uint256"
				}
			],
			"name": "setCollateralRatioPercent",
			"outputs": [],
			"stateMutability": "nonpayable",
			"type": "function"
		},
		{
			"inputs": [
				{
					"internalType": "address payable",
					"name": "w",
					"type": "address"
				}
			],
			"name": "setManagementWallet",
			"outputs": [],
			"stateMutability": "nonpayable",
			"type": "function"
		},
		{
			"inputs": [
				{
					"internalType": "uint256",
					"name": "p",
					"type": "uint256"
				}
			],
			"name": "setMaxNPLPercent",
			"outputs": [],
			"stateMutability": "nonpayable",
			"type": "function"
		},
		{
			"inputs": [
				{
					"internalType": "uint256",
					"name": "p",
					"type": "uint256"
				}
			],
			"name": "setMonthlyInterestPercent",
			"outputs": [],
			"stateMutability": "nonpayable",
			"type": "function"
		},
		{
			"inputs": [
				{
					"internalType": "uint256",
					"name": "p",
					"type": "uint256"
				}
			],
			"name": "setPenaltyPercent",
			"outputs": [],
			"stateMutability": "nonpayable",
			"type": "function"
		},
		{
			"inputs": [
				{
					"internalType": "address",
					"name": "",
					"type": "address"
				}
			],
			"name": "strikes",
			"outputs": [
				{
					"internalType": "uint256",
					"name": "",
					"type": "uint256"
				}
			],
			"stateMutability": "view",
			"type": "function"
		},
		{
			"inputs": [],
			"name": "takeProfits",
			"outputs": [],
			"stateMutability": "nonpayable",
			"type": "function"
		},
		{
			"inputs": [],
			"name": "totalProfits",
			"outputs": [
				{
					"internalType": "uint256",
					"name": "",
					"type": "uint256"
				}
			],
			"stateMutability": "view",
			"type": "function"
		},
		{
			"inputs": [
				{
					"internalType": "address",
					"name": "user",
					"type": "address"
				}
			],
			"name": "unblacklist",
			"outputs": [],
			"stateMutability": "nonpayable",
			"type": "function"
		},
		{
			"stateMutability": "payable",
			"type": "receive"
		}
	]
}